:100000000C94D91B0C94191C0C94191C0C94191CDD
:100010000C94191C0C94191C0C94191C0C94191C8C
:100020000C94191C0C94191C0C94191C0C94191C7C
:100030000C94191C0D94781F0C94191C0C94191C09
:100040000C94191C0C949FC90C94191C0C94191C29
:100050000C94191C0C949AC40C94191C0D942E1F0A
:100060000C94191C0C9490890C9486890C94191C7E
:100070000C94191C0C94191C0C94191C0C94191C2C
:100080000C94191C0C94191C0C94191C0C94191C1C
:100090000C94191C0C94191C0C94191C0C94191C0C
:1000A0000C94191C0C94191C0C94191C0C94191CFC
:1000B0000C94191C0C94191C0C94191C0C94191CEC
:1000C0000C94191C0C94191C0C94191C0C94191CDC
:1000D0000C94191C0C94191C0C94191C0C94191CCC
:1000E0000C94191C084AD73B3BCE016E84BCBFFD63
:1000F000C12F3D6C74319ABD56833DDA3D00C77FF8
:1001000011BED9E4BB4C3E916BAAAABE0000008090
:100110003F05A84CCDB2D44EB93836A9020C50B91F
:10012000918688083CA6AAAA2ABE000000803F004B
:100130000D9495170D946C170D9474170D948117E9
:100140000D94A92B0D944C2C0D9468170D948B28AD
:100150000D949A2B0D9487170D942A2B0D949D17AF
:100160000D94882B0D947D170D9499170D948F176E
:100170000D9451170D9477170D94A7170D947017C0
:100180000D94A3170D94B4280D948B170D94561746
:100190004E414E494E495459494E46CDCCCC3D0A6C
:1001A000D7233C17B7D13877CC2B329595E6241F4F
:1001B000B14F0A000020410000C84200401C462008
:1001C000BCBE4CCA1B0E5AAEC59D7400407A10F3DB
:1001D0005A00A0724E18090010A5D4E80000E87675
:1001E00048170000E40B54020000CA9A3B000000CC
:1001F000E1F505000080969800000040420F0000E5
:1002000000A08601000000102700000000E80300A5
:100210000000006400000000000A0000000000016F
:1002200000000000002C76D888DC674F0823DFC16F
:10023000DFAE59E1B1B796E5E3E453C63AE651992A
:100240007696E8E6C28426EB898C9B62ED407C6F53
:10025000FCEFBC9C9F40F2BAA56FA5F490055A2A0A
:10026000F75C936B6CF9676DC11BFCE0E40D47FE16
:10027000F520E6B500D0ED902E030094357705000B
:1002800080841E080000204E0A000000C80C333392
:1002900033330F986E12831141EF8D2114893BE6A1
:1002A0005516CFFEE6DB18D1844B381BF77C1D902A
:1002B0001DA4BBE424203284725E228100C9F12493
:1002C000ECA1E53D27554E4C4F41442046494C4159
:1002D0004D454E54004C4F41442046494C414D45FC
:1002E0004E540046494C414D454E54204348414EE2
:1002F0004745004E796C6F6E0050455447004142AF
:100300005300504C41004361703A0020204D32357B
:10031000302043004C434420436F6E747261737409
:1003200000203B0020204D3835312058005A2D50F8
:10033000726F6265204F666673657400436F6F6C01
:10034000696E672E2E2E00453120255300426564CC
:1003500020436F6F6C696E672E2E2E0042656420FD
:1003600048656174696E672E2E2E00206661696C87
:10037000656421204261642068656174657220694A
:10038000640A00504944204175746F74756E6500AD
:1003900023646566696E652044454641554C545F4B
:1003A000004B6420004B6920004B702000206669E0
:1003B0006E697368656421205075742074686520C7
:1003C0006C617374204B702C204B6920616E64202B
:1003D0004B6420636F6E7374616E74732066726F0A
:1003E0006D2062656C6F7720696E746F20436F6E4D
:1003F00066696775726174696F6E2E680A0050498C
:1004000044204175746F74756E6500206661696C77
:100410006564212074696D656F75740A00504944E4
:10042000204175746F74756E6500206661696C6536
:1004300064212054656D70657261747572652074F5
:100440006F6F20686967680A0050494420417574DD
:100450006F74756E6500504944204379636C657311
:100460000025532025692F256900204B643A200080
:10047000204B693A2000204B703A200020436C61E9
:100480007373696320504944200A002054753A2050
:1004900000204B753A2000206D61783A2000206DD5
:1004A000696E3A200020643A200020626961733A44
:1004B000200048656174696E672E2E2E00207374CB
:1004C0006172740A00504944204175746F74756EEE
:1004D0006500206661696C6564212054656D7065F6
:1004E00072617475726520746F6F20686967680A3D
:1004F00000504944204175746F74756E6500504911
:1005000044204175746F74756E65004572723A20AF
:100510007574663820666F6E74206E6F7420696E15
:10052000697469616C697A65642E004572723A205B
:100530007574663820666F6E74206E6F7420696EF5
:10054000697469616C697A65642E004572723A203B
:100550007574663820666F6E74206E6F7420696ED5
:10056000697469616C697A65642E0020002000203E
:10057000003A003A002568753A2530326875002542
:10058000303268753A25303268750025303268752A
:10059000272530326875002568756420253032685B
:1005A000753A253032687500FFE0FFD140A0C8A63B
:1005B000A22FF80023AC00AF10FFFEFF05FFD0FF15
:1005C000E0FFC1FFD1E240A0C8A6A22FF80023811E
:1005D00027AC00AFFFD0FF64FFD1A5FFD0FF64FFC1
:1005E00064FFD1A4FFD0FF16FFFE42656400456E94
:1005F000636C6F7375726500450020002000200059
:100600002000200025002020202020202000202065
:10061000202000657272001FE020102010201010B2
:100620002010202010201030300840048003001FCC
:10063000E03FF03FF03FF01FE01FE03FF03FF03FB2
:10064000F00FC0078003003FFFF038007030FC302F
:1006500020FC102078102030102C00D02E31D02F0C
:100660007BD02F7BD02E31D02C00D02030102078A2
:100670001020FC1030FC303800703FFFF03FFFF0DE
:100680003800703186302387102787902F87D02F2E
:1006900003D02030102078102078102030102F0345
:1006A000D02F87D02787902387103186303800706D
:1006B0003FFFF01FFFF81FFFF80410400208200260
:1006C000082004104008208010410010410008203C
:1006D000800410400000001FFFF81FFFF83E0FF0DD
:1006E000C18618C1860C0186040306041F06040394
:1006F0000604018604C1860CC186183E0FF05072B4
:10070000696E742041626F72746564004D323520E9
:10071000500A4D32340050617573696E672E2E2E6B
:10072000004D323400454550524F4D20566572738E
:10073000696F6E204572726F7200454550524F4D81
:1007400020496E646578204572726F72004545508D
:10075000524F4D20435243204572726F72003F004A
:1007600049676E6F726500526573657400496E6902
:100770007469616C697A6520454550524F4D00504F
:10078000726F6265205A204F6666736574004C6F05
:100790006164206D6D00556E6C6F6164206D6D003D
:1007A00046696C2E204469612E004F6666004F6ECC
:1007B000004520696E206D6D5E3300200820466183
:1007C0006374002008204D6178002008204D696E78
:1007D000004D696E2054726176656C2053706565BA
:1007E00064004D696E2056656C6F63697479004DC5
:1007F00061782040205370656564004D6178204524
:1008000020416363656C004D617820402041636343
:10081000656C0054726176656C20416363656C00A1
:100820005265747261637420416363656C00416357
:1008300063656C0050726F6265205A204F66667364
:1008400065740050726F62652059204F666673654B
:10085000740050726F62652058204F66667365742D
:1008600000402073746570732F6D6D004164766174
:100870006E6365642053657474696E6773003F002E
:1008800043616E63656C00496E6974004D343238A3
:1008900000496E697469616C697A652045455052FA
:1008A0004F4D0046696C616D656E740054656D70E6
:1008B000657261747572650053746570732F6D6D28
:1008C0000050726F6265204F666673657473004AEC
:1008D000756E6374696F6E2044657600416363656D
:1008E0006C65726174696F6E004D6178205370653C
:1008F000656420286D6D2F73290053657420486F3F
:100900006D65204F66667365747300436F6E66692C
:100910006775726174696F6E003F004E6578742070
:10092000436F726E657200446F6E65004E65787439
:1009300000486F6D696E672058595A0053746F7282
:10094000652053657474696E6773004C6F61642031
:1009500053657474696E67730042656420547261F4
:100960006D6D696E670050726F6265205A204F6628
:1009700066736574004661646520486569676874DC
:10098000004F6666004F6E00426564204C657665D8
:100990006C696E67004C6576656C20426564004743
:1009A00032394E00473239004175746F20486F6DFF
:1009B00065004D6F74696F6E00426564004E6F7A1A
:1009C0007A6C650046616E20537065656400436F04
:1009D0006E66696775726174696F6E0052657374D3
:1009E0006F72652044656661756C7473004C6F614D
:1009F000642053657474696E67730053746F726515
:100A00002053657474696E67730050726568656120
:100A100074202420436F6E66004F6666004F6E00A0
:100A200052756E6F75742053656E736F72005072DD
:100A30006F6265205A204F66667365740041647664
:100A4000616E6365642053657474696E6773004DED
:100A500061696E004D37303220542564004D3630C8
:100A60003020423020542564004D373032203B2561
:100A700064004D37303120542564004368616E674F
:100A8000652046696C616D656E74005072656865BD
:100A9000617420437573746F6D0050726568656191
:100AA000742024004261636B004D363030423000C8
:100AB000436F6E74696E7565004F6666004F6E0019
:100AC00052756E6F75742053656E736F720050753A
:100AD000726765206D6F726500524553554D452014
:100AE0004F5054494F4E533A005052494E542050A3
:100AF0004155534544002F00200020204E6F7A7A44
:100B00006C653A20005061726B696E672E2E2E0064
:100B100000005761697420666F720066696C616DD0
:100B2000656E74206368616E676500746F2073740E
:100B3000617274005761697420666F720066696C37
:100B4000616D656E7420756E6C6F616400004E6F30
:100B50007A7A6C652068656174696E6700506C65AF
:100B600061736520776169742E2E2E0000507265C6
:100B7000737320627574746F6E00746F20686561A2
:100B800074206E6F7A7A6C650000496E73657274BA
:100B90002066696C616D656E7400616E64207072B0
:100BA00065737320627574746F6E00746F20636F69
:100BB0006E74696E7565005761697420666F7200A6
:100BC00066696C616D656E74206C6F6164000050C5
:100BD0007265737320427574746F6E00746F207247
:100BE0006573756D65207072696E74000057616978
:100BF0007420666F72207072696E7400746F207258
:100C00006573756D652E2E2E0000436C69636B2035
:100C1000746F2066696E6973680066696C616D65E2
:100C20006E742070757267650000313230003500D7
:100C30004245443A204550434F53203130304B0019
:100C400052756E617761792057617463683A204FFD
:100C50004E004D61782054656D7000323635004D80
:100C6000696E2054656D7000350045313A2045505D
:100C7000434F53203130304B005053550047656E81
:100C8000657269630050726F746F636F6C00312E10
:100C900030004261756400323530303030004372CC
:100CA00065616C69747933442052414D5053004260
:100CB000696C696E656172204C6576656C696E67FA
:100CC000004578747275646572730031006D6172ED
:100CD0006C696E66772E6F72670043522D3130203B
:100CE000533400323032332D30312D3234006275BE
:100CF000676669782D322E312E78004D61726C69ED
:100D00006E00546865726D6973746F727300426F20
:100D100061726420496E666F005072696E7465720C
:100D200020496E666F004D61696E003F004261634D
:100D30006B0053746F70003F004E4F0059455300D5
:100D40004368616E67652046696C616D656E74000D
:100D50004E6F204D65646961005072696E74206643
:100D6000726F6D204D65646961004368616E6765EF
:100D7000204D65646961004D32310041626F7574C8
:100D8000205072696E74657200436F6E6669677594
:100D9000726174696F6E0054656D7065726174750F
:100DA0007265004D6F74696F6E00526573756D6585
:100DB000205072696E740054756E650053746F70C4
:100DC000205072696E7400506175736520507269AD
:100DD0006E7400496E666F2053637265656E003FE6
:100DE000005374617274205072696E740043616EB6
:100DF00063656C005072696E740043616E6E6F744F
:100E000020656E746572207375626469723A2000A1
:100E100002202E2E004D61696E002100486F74651E
:100E20006E6420746F6F20636F6C64004261636B4B
:100E30000050726F63656564004D6F76652045787C
:100E4000747275646572004732385A0047323859F7
:100E500000486F6D65204000473238580041757476
:100E60006F20486F6D6500473238004D6F74696FB1
:100E70006E0044697361626C6520537465707065BF
:100E80007273004D383400426564204C6576656CA1
:100E9000696E6700486F6D696E67004D61696E002D
:100EA0005072656865617420242042656400507248
:100EB0006568656174202420456E640054656D701A
:100EC00065726174757265000203FE02F902F30235
:100ED000436F6F6C646F776E005072656865617404
:100EE00020240046616E205370656564004265648D
:100EF000004E6F7A7A6C65004D61696E0050726FBA
:100F00006265205A204F666673657400466C6F7781
:100F10000046616E20537065656400426564004E52
:100F20006F7A7A6C65005370656564004D61696E17
:100F300000000C0F00FE07022503BB017FFE08FE28
:100F400008FE05080806000040F0C8888898781058
:100F5000050808060000C0F88888888888F8050514
:100F6000050600012030F8302005080806000020A2
:100F700070F820202020E00509090600FF2070A855
:100F8000A8B888887020070505070001D86C366C62
:100F9000D80509090600FFF8A88888888888A8F875
:100FA000050A0A0600FE205050505088A8A88870F4
:100FB00003030306000340A040FFFFFFFFFFFFFF06
:100FC000FFFFFFFFFFFFFFFFFFFFFFFFFFFFFF0030
:100FD00000000605FF010707060200808080808070
:100FE0000080030303060105A0A0A0050606060075
:100FF0000050F85050F8500509090600FF2070A86D
:10100000A07028A87020050707060000C8C8102097
:1010100040989805070706000040A0A040A89068E7
:101020000103030602058080800309090601FF20F1
:1010300040408080804040200309090601FF804035
:101040004020202040408005070706000020A870AF
:101050002070A8200505050600012020F8202002A8
:1010600003030601FFC04080050101060003F802EA
:101070000202060100C0C0050707060000081010A4
:1010800020404080050707060000708898A8C8889F
:101090007003070706010040C040404040E00507DC
:1010A00007060000708808102040F80507070600B2
:1010B00000F8081030088870050707060000103097
:1010C0005090F81010050707060000F880F0080897
:1010D0008870050707060000304080F0888870059A
:1010E0000707060000F80810102020200507070653
:1010F00000007088887088887005070706000070F7
:10110000888878081060020505060100C0C000C08C
:10111000C00206060601FFC0C000C04080030505EE
:101120000601012040804020050303060002F8006C
:10113000F8030505060101804020408005070706E9
:1011400000007088102020002005070706000070AE
:1011500088B8A8B88070050707060000708888F86E
:10116000888888050707060000F04848704848F05E
:1011700005070706000070888080808870050707D3
:10118000060000F04848484848F0050707060000F8
:10119000F88080F08080F8050707060000F880805E
:1011A000F08080800507070600007088808098889E
:1011B00070050707060000888888F8888888030774
:1011C00007060100E04040404040E00507070600F8
:1011D0000038101010109060050707060000889076
:1011E000A0C0A0908805070706000080808080804E
:1011F00080F805070706000088D8A8888888880531
:1012000007070600008888C8A89888880507070689
:10121000000070888888888870050707060000F03D
:101220008888F0808080050707060000708888881D
:10123000A89068050707060000F08888F0A090884D
:10124000050707060000708880700888700507078A
:10125000060000F8202020202020050707060000B7
:10126000888888888888700507070600008888882D
:101270008850502005070706000088888888A8A89D
:101280005005070706000088885020508888050709
:101290000706000088885020202020050707060048
:1012A00000F80810204080F80309090601FFE080DB
:1012B000808080808080E005070706000080404035
:1012C000201010080309090601FFE020202020203B
:1012D0002020E005030306000520508805010106D3
:1012E00000FEF803030306010580402005050506FE
:1012F000000070087888780507070600008080F0F5
:10130000888888F0050505060000708080887005D3
:10131000070706000008087888888878050505060C
:1013200000007088F0807005070706000030484014
:10133000E04040400507070600FE7088888878086E
:10134000700507070600008080F0888888880307FA
:10135000070601004000C0404040E00409090601C2
:10136000FE100030101010109060050707060000F6
:1013700080808890E09088030707060100C0404005
:10138000404040E0050505060000D0A8A8A8A80533
:101390000505060000B0C888888805050506000018
:1013A00070888888700507070600FEF0888888F036
:1013B00080800507070600FE788888887808080579
:1013C0000505060000B0C880808005050506000000
:1013D00078807008F00507070600002020F820201C
:1013E0002018050505060000888888986805050509
:1013F00006000088888850200505050600008888BA
:10140000A8A850050505060000885020508805074B
:10141000070600FE888888502040800505050600E4
:1014200000F8102040F80309090601FF2040404061
:1014300080404040200109090602FF8080808080B2
:10144000808080800309090601FF804040402040E1
:1014500040408005030306000248A890FF434F4D1B
:101460004D554E49434154494F4E004452595255EF
:101470004E004552524F525300494E464F0045438D
:10148000484F0053544F505045442E20005072692D
:101490006E7465722073746F707065642064756516
:1014A00020746F206572726F72732E2046697820E7
:1014B000746865206572726F7220616E6420757346
:1014C00065204D39393920746F20726573746172EB
:1014D000742E202854656D70657261747572652074
:1014E00069732072657365742E2053657420697466
:1014F0002061667465722072657374617274696EBE
:1015000067290A004E6F20436865636B73756D2011
:1015100077697468206C696E65206E756D6265729E
:101520002C204C617374204C696E653A20004E6F1C
:1015300020436865636B73756D2077697468206CF0
:10154000696E65206E756D6265722C204C617374D6
:10155000204C696E653A2000636865636B73756D36
:10156000206D69736D617463682C204C6173742005
:101570004C696E653A20004C696E65204E756D624F
:101580006572206973206E6F74204C617374204CF7
:10159000696E65204E756D6265722B312C204C6131
:1015A0007374204C696E653A20004D313130005320
:1015B000657269616C20737461747573206D6973F1
:1015C0006D617463680A005344207265616420652C
:1015D00072726F720A004B494C4C20627574746FC2
:1015E0006E2F70696E0A002121204B494C4C2063FC
:1015F00061757365642062792000746F6F206D756A
:10160000636820696E6163746976652074696D65CD
:10161000202D2063757272656E7420636F6D6D612D
:101620006E643A20002121204B494C4C20636175A7
:101630007365642062792000627573793A20706165
:101640007573656420666F7220696E7075740A0028
:10165000627573793A2070617573656420666F7284
:1016600020757365720A00627573793A2070726F23
:1016700063657373696E670A004D65646961205222
:10168000656D6F766564004D6564696120496E73B0
:101690006572746564004D36303000506C6561735E
:1016A00065205265736574005052494E544552206E
:1016B00048414C5445440025533A202553004B499A
:1016C0004C4C45442E20005072696E74657220683F
:1016D000616C7465642E206B696C6C2829206361D1
:1016E0006C6C6564210A00006563686F3A0045729E
:1016F000726F723A0042696C696E656172204C6566
:1017000076656C696E6720477269643A0A00486FB3
:1017100074656E6420746F6F20636F6C640A00538D
:10172000656E64204D31303820746F20726573759A
:101730006D650A00496E736572742066696C616D2F
:10174000656E7420616E642073656E64204D313067
:10175000380A0053656E64204D31303820746F2094
:1017600068656174206E6F7A7A6C650A004732365C
:101770002043616E63656C656400473236204865BE
:101780006174696E67204E6F7A7A6C6500473236F5
:101790002048656174696E6720426564005761691D
:1017A00074696E6720666F72206865617475702E4B
:1017B0000A004669786564204C656E67746820503D
:1017C00072696D6500446F6E65205072696D696E57
:1017D00067004D616E75616C207072696D696E672E
:1017E0002E2E2E004C656176696E672047323600DA
:1017F0003F53706563696669656420582C5920639E
:101800006F6F7264696E617465206F7574206F66A6
:1018100020626F756E64732E0A003F28522965702E
:101820006561742076616C7565206E6F7420706CD4
:1018300061757369626C653B206D757374206265B8
:10184000206174206C6561737420312E0A003F534F
:101850007065636966696564206E6F7A7A6C65206D
:1018600074656D7065726174757265206E6F742039
:10187000706C61757369626C652E0A003F53706508
:101880006369666965642066696C616D656E742064
:1018900073697A65206E6F7420706C61757369620C
:1018A0006C652E0A003F5370656369666965642044
:1018B0007072696D65206C656E677468206E6F74F8
:1018C00020706C61757369626C652E0A003F5370FD
:1018D00065636966696564206E6F7A7A6C652073EA
:1018E000697A65206E6F7420706C61757369626CC3
:1018F000652E0A003F52657472616374696F6E20D1
:101900004D756C7469706C696572206D75737420A7
:101910006265207370656369666965642E0A003FBD
:1019200053706563696669656420526574726163AA
:1019300074696F6E204D756C7469706C6965722086
:101940006E6F7420706C61757369626C652E0A002D
:101950003F537065636966696564206C617965727F
:1019600020686569676874206E6F7420706C61759B
:101970007369626C652E0A0043292E0A003F53707A
:1019800065636966696564206265642074656D706D
:1019900065726174757265206E6F7420706C61750C
:1019A0007369626C65202834302D0047323620730D
:1019B00074617274696E672E2E2E0A004F46460AB5
:1019C0000046616465204865696768742000426567
:1019D00064204C6576656C696E6720004661696CB1
:1019E000656420746F20656E61626C652042656479
:1019F000204C6576656C696E670A00496E76616C8D
:101A00006964206D6573682E0A0050726F62696E9A
:101A10006720506F696E740025532025692F256952
:101A2000002E0A002F0050726F62696E67206D658C
:101A3000736820706F696E742000202844525952D8
:101A4000554E2900473239204175746F2042656434
:101A5000204C6576656C696E67003F20284C2C52DF
:101A60002C462C4229206F7574206F6620626F759A
:101A70006E64732E0A003F2856296572626F736583
:101A8000206C6576656C20696D706C617573696238
:101A90006C652028302D34292E0A00426164205ABA
:101AA0002076616C75650A004E6F2062696C696E04
:101AB00065617220677269640A0020440020204D2D
:101AC000323030205300202844697361626C6564B1
:101AD000293A0046696C616D656E74207365747493
:101AE000696E67730020204D3230312058004D61FF
:101AF0007820416363656C65726174696F6E20283C
:101B0000756E6974732F7332290020204D32303383
:101B10002058004D61782066656564726174657354
:101B20002028756E6974732F7329002052002020BD
:101B30004D323034205000416363656C65726174CE
:101B4000696F6E2028756E6974732F73322920288F
:101B5000503C7072696E742D616363656C3E2052F7
:101B60003C726574726163742D616363656C3E20C1
:101B7000543C74726176656C2D616363656C3E29BB
:101B800000204A0020540020530020204D323035E0
:101B9000204200416476616E6365642028423C6D9A
:101BA000696E5F7365676D656E745F74696D655F9F
:101BB00075733E20533C6D696E5F66656564726146
:101BC00074653E20543C6D696E5F74726176656C1D
:101BD0005F66656564726174653E204A3C6A756E35
:101BE000635F6465763E2900204400204900202080
:101BF0004D333031205000486F74656E6420504979
:101C00004400203B0020550020204D363033204C2E
:101C10000046696C616D656E74206C6F61642F7530
:101C20006E6C6F6164003B200020496E76616C69C8
:101C300064206578747275646572200047322F479E
:101C4000332062616420706172616D6574657273C6
:101C50000A00536C6565702E2E2E005A2050726F4C
:101C600062652050617374204265640A005A2050F6
:101C7000726F626520506173742042656400473260
:101C8000384C3000205A3A200020593A2000426552
:101C90006420583A20004D65736820706F696E7437
:101CA000206F7574206F662072616E67650A00434D
:101CB0006C69636B20746F20526573756D652E2E91
:101CC0002E004E6F204D6F76652E00456E642066A7
:101CD000696C65206C6973740A00426567696E20DF
:101CE00066696C65206C6973740A004E6F206D65BF
:101CF0006469610A00286E6F2066696C652900437B
:101D0000757272656E742066696C653A20004E6F5C
:101D100074205344207072696E74696E670A0053B0
:101D200044207072696E74696E67206279746520F0
:101D3000002E0A0044656C6574696F6E20666169E7
:101D40006C65642C2046696C653A200046696C65B8
:101D50002064656C657465643A00256973002569C3
:101D60006D20256973002569682025696D20256926
:101D70007300256964202569682025696D2025691F
:101D80007300256979202569642025696820256903
:101D90006D20256973005072696E742074696D65D9
:101DA0003A20006F6B006F6666007E14791472141F
:101DB0006B145D1444454255473A004D3131332090
:101DC000530043522D3130205334204F46462E00CD
:101DD000434F4E4649475F4558504F5254004D457A
:101DE00041545041434B00434F4F4C45525F544583
:101DF0004D5045524154555245004348414D42458E
:101E0000525F54454D504552415455524500424150
:101E100042595354455050494E4700415243530094
:101E20004D4F54494F4E5F4D4F4445530054484524
:101E3000524D414C5F50524F54454354494F4E0010
:101E4000455854454E4445445F4D32300043555348
:101E5000544F4D5F4649524D574152455F55504C86
:101E60004F4144004C464E5F5752495445004C4F39
:101E70004E475F46494C454E414D45004155544FF4
:101E80005245504F52545F53445F5354415455533D
:101E90000053445F57524954450052455045415400
:101EA000004D554C54495F564F4C554D45005344D9
:101EB000434152440050524F4D50545F535550507F
:101EC0004F525400484F53545F414354494F4E5F63
:101ED000434F4D4D414E445300454D455247454EAD
:101EE00043595F50415253455200434153455F4C63
:101EF000494748545F4252494748544E455353005E
:101F0000544F47474C455F4C494748545300534F43
:101F10004654574152455F504F574552004255492C
:101F20004C445F50455243454E54004C4556454C39
:101F3000494E475F44415441005A5F50524F424519
:101F40000052554E4F5554004155544F4C4556453F
:101F50004C005052494E545F4A4F420050524F4736
:101F600052455353004155544F5245504F52545FC0
:101F700054454D50004155544F5245504F52545FB7
:101F8000504F5300564F4C554D4554524943004510
:101F90004550524F4D0042494E4152595F46494CBF
:101FA000455F5452414E53464552005345524941B4
:101FB0004C5F584F4E5F584F4646004649524D576A
:101FC0004152455F4E414D453A4D61726C696E20FC
:101FD0006275676669782D322E312E782028466525
:101FE0006220313020323032332031313A34393AC4
:101FF00032372920534F555243455F434F44455F85
:1020000055524C3A6769746875622E636F6D2F4D37
:1020100061726C696E4669726D776172652F4D6190
:10202000726C696E2050524F544F434F4C5F56456F
:102030005253494F4E3A312E30204D414348494E7C
:10204000455F545950453A43522D31302053342086
:1020500045585452554445525F434F554E543A31BA
:1020600020555549443A63656465326132662D34C2
:102070003161322D343734382D396231322D6335A8
:1020800035633632663336376666002F2F004D31A2
:10209000343520533C696E6465783E206F7574203A
:1020A0006F662072616E67652028302D31290A0025
:1020B0003F4A206F7574206F662072616E676520DD
:1020C00028302E303120746F20302E33290A002022
:1020D000580020204D61783A2000200020204D69D2
:1020E0006E3A2000203B200020204D323131205319
:1020F00000536F667420656E6473746F707300258F
:102100000A0046523A0020466C6F773A200042613E
:10211000627973746570205A0050726F6265204F47
:102120006666736574205A0050726F6265204F6650
:1021300066736574205A0064697300656E004329F4
:102140000A0061626C656420286D696E2074656D9B
:10215000702000436F6C64206578747275646573D9
:102160002061726520004F4646004F4E0046696C64
:10217000616D656E742072756E6F757420004D34DC
:10218000323120696E636F727265637420706172A0
:10219000616D657465722075736167650A004D65D0
:1021A000736820706F696E74206F7574206F66207D
:1021B00072616E67650A00454550524F4D204F4B86
:1021C0000A00290A0020746F20003F5A206F75749E
:1021D000206F662072616E6765202800290A002042
:1021E000746F20003F59206F7574206F66207261F4
:1021F0006E676520282D00290A0020746F20003F9B
:1022000058206F7574206F662072616E6765202894
:102210002D004D383400446F6E65207072696E7405
:10222000696E672066696C650A004D3737004D336B
:10223000310020204D323036205800486F6D652027
:102240006F6666736574004F6666736574732041CC
:1022500070706C696564004572723A20546F6F202B
:102260006661722100546F6F206661722066726F22
:102270006D207265666572656E636520706F696E4C
:10228000740A00446966663A2020200046726F6D29
:102290005374703A00537465707065723A00556EED
:1022A0004C6576656C3A004C6576656C65643A0001
:1022B0005261773A20202020000A4C6F67696361E1
:1022C0006C3A00436F756E7420453A00486F6D6933
:1022D0006E67204661696C6564006F70656E0054BE
:1022E0005249474745524544003A200066696C61AF
:1022F0006D656E74007A5F6D696E00795F6D696EF1
:1023000000785F6D696E005265706F7274696E67F8
:1023100020656E6473746F70207374617475730AD2
:102320000020746F6F206C6F6E6720657874727513
:1023300073696F6E2070726576656E7465640A00ED
:1023400020636F6C6420657874727573696F6E209A
:1023500070726576656E7465640A00486F6D6520FD
:1023600025732046697273740000008040000000ED
:1023700040000000005761726E696E673A20486F36
:102380006D696E672042756D702044697669736F60
:1023900072203C20310A000202040000C843000001
:1023A000B4430000C8430000A0400000A04000006B
:1023B00000400000C8430000B4430000C8430000D0
:1023C0000000000000000000000053657474696E96
:1023D00067732053746F72656400290A0020627964
:1023E0007465733B20637263200053657474696E77
:1023F00067732053746F72656420280048617264AB
:10240000636F6465642044656661756C7420536510
:102410007474696E6773204C6F6164656400202872
:102420006D6D2900203B204C6576656C696E6720D8
:102430000020204D3432302053004175746F20420B
:102440006564204C6576656C696E670020460020E7
:10245000480020204D3134352053004D61746572A1
:1024600069616C2068656174757020706172616D5E
:10247000657465727300203B2053656E736F722024
:102480000020204D34313220530046696C616D6567
:102490006E742072756E6F75742073656E736F72D3
:1024A00000204A00202047323920572049002020B0
:1024B0004D3134392043203B20556E6974732069B7
:1024C0006E2043656C736975730A0054656D7065A1
:1024D00072617475726520556E69747300202047AF
:1024E0003231203B004C696E65617220556E697413
:1024F0007300454550524F4D206461746173697A91
:1025000065206572726F722E0A00290A00206279B6
:102510007465733B2063726320002073746F72656F
:10252000642073657474696E677320726574726970
:1025300065766564202800202863616C63756C6192
:1025400074656429210A0020213D20004545505230
:102550004F4D20435243206D69736D617463682051
:102560002D202873746F7265642920002053697AC6
:10257000653A2000496E6465783A20000000964371
:10258000000096430000A040000048420000A04226
:102590000000A0420000C8430080F2432C0100006C
:1025A0002C0100006400000088130000204D6172BF
:1025B0006C696E3D563837290A00454550524F4DDB
:1025C0002076657273696F6E206D69736D617463D7
:1025D000682028454550524F4D3D0020436F756E91
:1025E0007420583A00426564004531004500626538
:1025F00064002C2073797374656D2073746F707030
:10260000656421204865617465725F49443A200021
:102610004572723A204D415854454D50004D415835
:1026200054454D502074726967676572656400484F
:10263000656174696E67204661696C656400486510
:102640006174696E67206661696C6564004D35323E
:1026500034004D3131322053687574646F776E00E9
:102660004572723A204D494E54454D50004D494EE9
:1026700054454D5020747269676765726564002027
:102680002F002042403A0020403A0020573A0020D4
:10269000573A00496E76616C69642065787472758A
:1026A0006465720A007C3C3E5E2B3D3F2F5B5D3BC8
:1026B0002C2A225C004D6564696120496E69742092
:1026C0004661696C0053442063617264206F6B0A39
:1026D000006F70656E526F6F74206661696C65641F
:1026E0000A00766F6C756D652E696E69742066617F
:1026F000696C65640A004E6F205344206361726404
:102700000A00534420636172642072656C656173D2
:1027100065640A000A4D3234004D323320257300BF
:102720002E0A006F70656E206661696C65642C20EE
:1027300046696C653A200046696C652073656C6576
:10274000637465640A002053697A653A200046691B
:102750006C65206F70656E65643A2000454E4420BC
:10276000535542524F5554494E450A002220706F2E
:1027700073002220706172656E743A2200535542D4
:10278000524F5554494E452043414C4C2074617280
:102790006765743A220053756263616C6C204F76F2
:1027A0006572666C6F770045786365656465642063
:1027B0006D617820535542524F5554494E4520641F
:1027C000657074683A0057726974696E6720746F37
:1027D0002066696C653A2000667265736800646FF4
:1027E000696E67002066696C653A20004E6F77203D
:1027F000002F6175746F25632E670020583A000220
:1028000000000000000000600000000000FC00006C
:102810000FF00000000007E00000000001861FC06C
:1028200018700000000000603C0C000001830C6088
:1028300010300000000000603C0C000001830C30F0
:102840003030000000000060000C000000030C1895
:102850003000000000000060003F0F3C00030C0C43
:102860006001DF0FE0FE00601C1C061800060C0C67
:102870006000F318318300600C0C0318001E0C0C70
:102880006000E030398300600C0C033000030C0C56
:102890006000C030380F00600C0C033000018C0C5D
:1028A0006000C03FF8FB00600C0C033000018C0C92
:1028B0006030C030018300600C0C01F001818C0C91
:1028C0006030C030018300600C0C00E001818C1886
:1028D0003030C018318300600C0C40E001838C3034
:1028E0001860C00C6187C0E01C0CC06000C30C60A5
:1028F0000FC3F007C0FFC7FC7F0781C0007E1FC069
:1029000000000000000000000000070000000000C0
:1029100000000000000000000000070000000000B0
:102920006D61726C696E66772E6F72670062756793
:102930006669782D322E312E78001FFFFFFFFFFFD2
:10294000FF600000000001FF400000000000FF8069
:1029500000000000007F83CF00000C303F87FF8025
:10296000000C301F867980000C000F8C30C7838CE0
:1029700030E78C30CFC7CC31F38C30DCECEC33B9A2
:102980008C30D86C6C33198C30D06C0C33198C3083
:10299000D86C0C33198C30DC6C0E3B198C30CF7C2E
:1029A000079F198C30C77C038F194000000000007E
:1029B00002600000000000061FFFFFFFFFFFF8702D
:1029C000012C0190012701B0012201C0011D01F07D
:1029D0000118011002130130020E0160020901907A
:1029E000020401C002FF000003FA004003F500806A
:1029F00003F000D003EB002004E6007004E100E0E7
:102A000004DC004005D700C005D2004006CD00D050
:102A100006C8008007C3003008BE00F008B900C037
:102A200009B400B00AAF00B00BAA00D00CA500009A
:102A30000EA000500F9B00C0109600501291000095
:102A4000148C00C0158700B0178200B0197D00D02B
:102A50001B7800001E730040206E0090226900F079
:102A600024640040275F0090295A00E02B55001095
:102A70002E500020304B0010324600E033410090D1
:102A8000353C001037370070383200A0392D00B0C7
:102A90003A2800A03B2300603C1E00103D19009026
:102AA0003D1400103E0F00703E0A00C03E050000BD
:102AB0003F0000403FFBFF803FF6FFC03FF1FF209B
:102AC00020506C616E6E6572427566666572427901
:102AD0007465733A20002046726565204D656D6F00
:102AE00072793A200020436F6D70696C65643A20FA
:102AF00046656220313020323032330A00204C618A
:102B0000737420557064617465643A2032303233D6
:102B10002D30312D3234207C20417574686F723A2B
:102B20002028436F6F6C5A65726F4E4C2C20646581
:102B30006661756C7420636F6E666967290A004D63
:102B400061726C696E206275676669782D322E310C
:102B50002E780A0020536F66747761726520526583
:102B60007365740A00205761746368646F6720524C
:102B7000657365740A002042726F776E206F7574FA
:102B80002052657365740A002045787465726E6121
:102B90006C2052657365740A00506F7765725570CA
:102BA0000A0073746172740A00473237004D313085
:102BB0003031006572726F722077726974696E6766
:102BC00020746F2066696C650A00446F6E6520731F
:102BD0006176696E672066696C652E0A004D323930
:102BE00000456E6473746F70730025532025632055
:102BF000256320256320256300205A3A0020593A96
:102C00000020583A00656E6473746F7073206869B1
:102C1000743A200000002100240027002A002D0023
:102C20003000330001010000040107010A01000027
:102C30000A0B02090C0D0E08070304010000000036
:102C40000000000000000000000000000000000084
:102C50000000000000000000000012111000000041
:102C60000000000000000000000000000000000064
:102C70000000000000000000000000000000000054
:102C80000000000024F404D9201BC40C5C0E98043E
:102C9000C4095F0265077101F405F900FB04B30084
:102CA00048048700C1036900580355000303450029
:102CB000BE023A008402310053022A002902250094
:102CC00004022000E4011C00C8011900AF01170034
:102CD00098011400840113007101100061011000BB
:102CE00051010E0043010D0036010B002B010B00BA
:102CF00020010B00150109000C0109000301080067
:102D0000FB000800F3000800EB000700E4000600E9
:102D1000DE000600D8000600D2000600CC00050048
:102D2000C7000500C2000500BD000400B900040092
:102D3000B5000400B1000400AD000400A9000400C7
:102D4000A5000300A20003009F0004009B000300F5
:102D50009800030095000200930003009000030018
:102D60008D0002008B000300880002008600020034
:102D700084000300810002007F0002007D00020049
:102D80007B0002007900020077000100760002005B
:102D90007400020072000100710002006F00020066
:102DA0006D0001006C0002006A0001006900020071
:102DB0006700010066000100650001006400020078
:102DC0006200010061000100600001005F0002007C
:102DD0005D0001005C0001005B0001005A00010081
:102DE0005900010058000100570001005600010081
:102DF0005500010054000100530000005300010081
:102E00005200010051000100500001004F0001007C
:102E10004E0000004E0001004D0001004C0001007A
:102E20004B0000004B0001004A0001004900010076
:102E30004800000048000100470001004600000073
:102E4000460001004500000045000100440001006B
:102E50004300000043000100420000004200010066
:102E60004100000041000100400001003F0000005F
:102E70003F0001003E0000003E0001003D00000058
:102E80003D0001003C0000003C0000003C0001004F
:102E90003B0000003B0001003A0000003A00010046
:102EA000390000003900010038000000380000003F
:102EB0003800010037000000370001003600000034
:102EC000360000003600010035000000350000002B
:102ED000350001003400000034000000340001001F
:102EE0003300000033000000330001003200000016
:102EF000320000003200010031000000310000000B
:102F000031000100300000003000000030000100FE
:102F10002F0000002F0000002F0000002F000100F4
:102F20002E0000002E0000002E0001002D000000E9
:102F30002D0000002D0000002D0001002C000000DD
:102F40002C0000002C0000002C0001002B000000D1
:102F50002B0000002B0000002B0001002A000000C5
:102F60002A0000002A0000002A00010029000000B9
:102F700029000000290000002900000029000100AC
:102F800028000000280000002800000028000000A1
:102F90002800010027000000270000002700000093
:102FA0002700000027000100260000002600000086
:102FB0002600000026000000260001002500000079
:102FC000250000002500000025000000250000006D
:102FD000250001002400000024000000240000005F
:102FE0002400000024000100230000002300000052
:102FF0002300000023000000230000002300000045
:103000002300010022000000220000002200000036
:103010002200000022000000220001002100000028
:10302000210000002100000021000000210000001C
:10303000210000002100010020000000200000000D
:103040002000000020000000200000002000000000
:1030500020000000200001001F0000001F000000F1
:103060001F0000001F0000001F0000001F000000E4
:103070001F0001001E0000001E0000001E000000D6
:103080001E00000024F4D43050C38E20C2A240178A
:10309000828B7011127A910D816CD90AA861E108B6
:1030A000C7586607615143061E4B5D05C145A7041D
:1030B0001A411104093D9803713931034036DB028E
:1030C00065339102D4305402802E1D02632CEE0130
:1030D000752AC501B028A001102781018F25640140
:1030E0002B244B01E0223401AC211F018D200D0166
:1030F000801FFC00841EED00971DDF00B81CD2006D
:10310000E61BC600201BBC00641AB200B219A8005E
:103110000A19A0006A189900D117910040178B0076
:10312000B516840031167E00B31579003A15730088
:10313000C7146F0058146A00EE136600881363000A
:1031400025135E00C7125B006C1257001512540065
:10315000C111510070114F0021114B00D6104900D0
:103160008D1047004610440002104200C00F40007E
:10317000800F3E00420F3C00060F3B00CB0E380094
:10318000930E37005C0E3500270E3400F30D32002D
:10319000C10D3100900D3000600D2E00320D2D005C
:1031A000050D2C00D90C2B00AE0C2900850C290034
:1031B0005C0C2700350C27000E0C2600E80B2400C1
:1031C000C40B2400A00B23007D0B23005A0B21000D
:1031D000390B2100180B2000F80A1F00D90A1E0025
:1031E000BB0A1E009D0A1D00800A1D00630A1C0008
:1031F000470A1B002C0A1B00110A1A00F7091A00C3
:10320000DD091900C4091900AB091900920917005A
:103210007B091800630917004C09160036091600CF
:10322000200916000A091500F5081500E008140029
:10323000CC081400B8081400A40814009008130067
:103240007D0812006B08130058081200460812008F
:1032500034081100230811001208110001081100A0
:10326000F0071000E0071000D0071000C0071000A2
:10327000B0070F00A107100091070E0083070F0091
:1032800074070F0065070E0057070E0049070E0070
:103290003B070D002E070E0020070D0013070D0041
:1032A00006070D00F9060C00ED060D00E0060C0007
:1032B000D4060C00C8060C00BC060C00B0060C00BE
:1032C000A4060B0099060C008D060B0082060B006D
:1032D00077060B006C060B0061060A0057060B0010
:1032E0004C060A0042060A0038060A002E060A00AA
:1032F00024060A001A060A001006090007060A003A
:10330000FD050900F4050900EB050900E2050900C7
:10331000D9050900D0050900C7050900BE05090047
:10332000B5050800AD050800A50509009C050800C5
:10333000940508008C050800840508007C05080039
:10334000740508006C050700650508005D050700A9
:10335000560508004E050700470507004005080010
:1033600038050700310507002A0507002305070077
:103370001C050600160507000F05070008050600D6
:1033800002050700FB040600F5040700EE04060032
:10339000E8040600E2040700DB040600D50406008A
:1033A000CF040600C9040600C3040600BD040600DD
:1033B000B7040600B1040500AC040600A60406002C
:1033C000A00405009B040600950405009004060077
:1033D0008A04050085040500800406007A040500BF
:1033E00075040500700405006B0405006604050003
:1033F000610405005C040500570405005204050043
:103400004D04050048040500430405003E04040083
:103410003A04050035040500300404002C040500BE
:1034200027040400230405001E0404001A040400F9
:1034300016040500110404000D040400090405002D
:103440000404040000040400FC030400F803040066
:10345000F4030400F0030400EC030400E803040098
:10346000E4030400E0030400DC030400D8030400C8
:10347000D4030400D0030400CC030400C8030300F9
:10348000C50303003A2E00007B1D00001811000048
:103490004A090000DB0400007C020000410100003A
:1034A000A10000004D6F766520246D6D00302E3038
:1034B0003235004D6F766520302E316D6D004D6FC9
:1034C000766520316D6D004D6F76652031306D6D04
:1034D000004D6F76652041786973004D6F766520E9
:1034E0002A004D6F766520400020005072696E748E
:1034F0002066726F6D204D656469610020002000B8
:103500004572726F722077726974696E6720746F8A
:1035100020454550524F4D210A00DB0FC93F45BCA5
:10352000DA3F8FB30240FCF0274056946140FE4BD7
:103530009B4084A5D840E0231841346A5641E8599D
:10354000974164DBD5416E271742B4B75542CE1A76
:103550009742C8AED542B5885A43D40684BFA65F09
:10356000A7BF7443E0BF10B11AC01C2C58C0E8F6C6
:1035700097C0B849D6C04E4E17C124D355C1802438
:1035800097C1A0B5D5C1121A17C244AE55C278175B
:1035900097C26CACD5C267885AC320746F6F206C19
:1035A0006F6E6720657874727573696F6E207072C4
:1035B0006576656E7465640A0020636F6C642065CF
:1035C0007874727573696F6E2070726576656E744B
:1035D00065640A00544845524D414C2052554E41B5
:1035E00057415900546865726D616C2052756E6167
:1035F00077617900496E736572742066696C616DDC
:10360000656E7420616E642073656E64204D313088
:10361000380A0050726F62696E67204661696C6596
:10362000640A0050726F62696E67204661696C655A
:103630006400205A3A200020593A20004265642054
:10364000583A2000FFFFFF43616E6E6F74206F7069
:10365000656E207375626469722000FB27AA36A626
:1036600036A236204500205A0020590020204D392E
:103670003220580053746570732070657220756E27
:10368000697400220A00556E6B6E6F776E20636F4F
:103690006D6D616E643A2022002042002050006F60
:1036A0006B0020453A00205A3A0020593A00583A17
:1036B000006F6B0A00526573656E643A20004352D6
:1036C0002D31302053342052656164792E005072C0
:1036D000696E74696E672E2E2E005072696E7420AA
:1036E00050617573656400010210202008081020E5
:1036F000401020408002010201080402010102047E
:10370000081020408080402010080402018004023C
:103710000180402010080402010804020101020493
:103720000810204080010204081020408010080486
:1037300008801020400440801020400480000022B7
:1037400000250028002B002E00310034000201006B
:1037500000050108010B0105050505070508080816
:1037600008020202020A0A08080404040401010112
:10377000010101010103030303030303030407071A
:10378000070C0C0C0C0C0C0C0C02020202060606B8
:1037900006060606060B0B0B0B0B0B0B0B07070A9B
:1037A0000A0A0A0A0A050505040404080800C200FA
:1037B000A60011241FBECFEFD1E2DEBFCDBF00E0D7
:1037C0000CBF84B780931E1614BE0FB6F894A8954C
:1037D00080916000886180936000109260000FBE4D
:1037E00013E0A0E0B2E0E2EAF5E802E00BBF02C0BD
:1037F00007900D92A83EB107D9F726E1A8EEB3E0F5
:1038000001C01D92AE31B207E1F71BE1C8EDDBE16B
:1038100000E006C021970109802FFE010F94653F4B
:10382000C73DD10780E00807A9F70F942D2A0D9412
:10383000C0420C9400006091230270912402072E74
:10384000000C880B990B0F94A4382AE037ED43E263
:103850005CE30F94033920912A0630912B064091A6
:103860002C0650912D060F940339609363027093D8
:103870006402809365029093660208958091AA087D
:10388000811104C080918A088093D008089508951A
:103890000895CF93DF93EC01CB01BA010F94A438C4
:1038A00029EC38EC48EC5EE30F945C4020E030E01B
:1038B00040E05FE30F94803F0F94C9406883DF913D
:1038C000CF910895E091AA0886E0E802F001112462
:1038D000E859F74F80918A0890E095838483089592
:1038E000CF93DF93EC01CB01BA010F94A438688326
:1038F00079838A839B83DF91CF910895CF93DF9360
:10390000EC01CB01BA010F94A438688379838A83D0
:103910009B83DF91CF9108958F929F92AF92BF9238
:10392000CF92DF92EF92FF926B017C0120E030E0BA
:10393000A9010F949E3887FD6BC06DEB77E386E09D
:1039400095E3A70196010F94803F6B017C0120E075
:1039500030E040E251E40F94033920E030E040E2EF
:1039600051E40F9403394B015C0120E030E0A901E0
:10397000C701B6010F949E3820E030E040EA50E4E1
:1039800087FF04C020E030E040EA50ECC501B401FC
:103990000F94803F20E030E040E251E40F945C401F
:1039A0000F94C4409B018BE237FF05C022273327C9
:1039B000261B370B8DE280930906C90164E670E08F
:1039C0000F94523FCB01EAE0F0E0BF010F94523F69
:1039D000805D80930A06C901BF010F94523F282FD2
:1039E000CB01BF010F94523F805D80930B068EE2A6
:1039F00080930C06205D20930D0689E096E0FF90F1
:103A0000EF90DF90CF90BF90AF909F908F900895F0
:103A10006DEB77E386E095EB94CF8F929F92AF9218
:103A2000BF92CF92DF92EF92FF92CF936B017C0116
:103A300020E030E0A9010F949E3887FDD6C06DEBE1
:103A400077E386E095E3A70196010F94803F6B0131
:103A50007C0120E030E0A9010F949E3887FFCAC0A6
:103A6000C701B601905820E030E040E251E40F94E5
:103A7000033920E030E048EC52E40F94033920E0B1
:103A800030E040EA50E40F94803F20E030E040E234
:103A900051E40F945C400F94C4406B017C0160E2E0
:103AA00080E4C81682E4D8068FE0E806F1048CF0C2
:103AB000C701B60120E432E44FE050E00F94EA3E43
:103AC000CA01B9012AE030E040E050E00F94EA3E3C
:103AD000605D6093060660E280EAC81686E8D80654
:103AE00081E0E806F1048CF0C701B60120EA36E86F
:103AF00041E050E00F94EA3ECA01B9012AE030E00B
:103B000040E050E00F94EA3E605D6093070660E29B
:103B100080E1C81687E2D806E104F1048CF0C70101
:103B2000B60120E137E240E050E00F94EA3ECA01DE
:103B3000B9012AE030E040E050E00F94EA3E605DD9
:103B40006093080660E288EEC81683E0D806E104B8
:103B5000F1048CF0C701B60128EE33E040E050E0FC
:103B60000F94EA3ECA01B9012AE030E040E050E09B
:103B70000F94EA3E605D60930906C701B60124E632
:103B800030E040E050E00F94EA3E8AE0882E912C2D
:103B9000A12CB12CCA01B901A50194010F94EA3EF0
:103BA000605D60930A068EE280930B06C701B60142
:103BB000A50194010F94EA3EC62FCA01B901A501DF
:103BC00094010F94EA3E605D60930C06C05DC09363
:103BD0000D0686E096E0CF91FF90EF90DF90CF90BA
:103BE000BF90AF909F908F9008956DEB77E386E044
:103BF00095EB29CF20E030E040E251E4C701B60167
:103C000036CF8F929F92AF92BF92CF92DF92EF9278
:103C1000FF92CF936B017C0120E030E0A9010F946B
:103C20009E3887FD93C06DEB77E386E095E3A701AF
:103C300096010F94803F6B017C0120E030E040E270
:103C400051E40F94033920E030E04AE754E40F9444
:103C500003394B015C0120E030E0A901C701B60146
:103C60000F949E3820E030E040EA50E487FF04C023
:103C700020E030E040EA50ECC501B4010F94803FF1
:103C800020E030E040E251E40F945C400F94C440E7
:103C90006B017C01C114D104E104F10409F45BC09F
:103CA000F7FE59C0F094E094D094C094C11CD11C8C
:103CB000E11CF11C8DE280930806C701B60128EED5
:103CC00033E040E050E00F94EA3E8AE0882E912CE9
:103CD000A12CB12CCA01B901A50194010F94EA3EAF
:103CE000605D609309068EE280930A06C701B60103
:103CF00024E630E040E050E00F94EA3ECA01B9010A
:103D0000A50194010F94EA3E605D60930B06C70124
:103D1000B601A50194010F94EA3EC62FCA01B9016C
:103D2000A50194010F94EA3E605D60930C06C05DAE
:103D3000C0930D0688E096E0CF91FF90EF90DF9062
:103D4000CF90BF90AF909F908F9008956DEB77E3E9
:103D500086E095EB6CCF80E2AECF8F929F92AF92D0
:103D6000BF92CF92DF92EF92FF92CF936B017C01D3
:103D700020E030E0A9010F949E3887FFA3C06DEBCF
:103D800077E386E095EBA70196010F94803F6B01E6
:103D90007C0120E030E040E251E40F94033920E060
:103DA00030E048EC52E40F9403394B015C0120E011
:103DB00030E040E251ECC701B6010F949E3818166E
:103DC00054F420E030E048EC52E4C701B6010F940F
:103DD000A74187FD8BC020E030E0A901C701B601F3
:103DE0000F949E3887FF73C060E070E080EA90EC2B
:103DF000A50194010F94803F20E030E040E251E4BF
:103E00000F945C400F94C4406B017C01F7FC64C0CC
:103E100020E137E240E050E00F94EA3ECA01B901E8
:103E20002AE030E040E050E00F94EA3E605D6093AD
:103E30000806C701B60128EE33E040E050E00F94D9
:103E4000EA3E9AE0892E912CA12CB12CCA01B9012D
:103E5000A50194010F94EA3E605D60930906C701D5
:103E6000B60124E630E040E050E00F94EA3ECA019B
:103E7000B901A50194010F94EA3E605D60930A06C2
:103E80008EE280930B06C701B601A50194010F9441
:103E9000EA3EC62FCA01B901A50194010F94EA3E7A
:103EA000605D60930C06C05DC0930D0688E096E0EF
:103EB000CF91FF90EF90DF90CF90BF90AF909F9009
:103EC0008F9008956DEB77E386E095E35CCF60E03B
:103ED00070E080EA90E48CCFF094E094D094C094A9
:103EE000C11CD11CE11CF11C6DE2A1CF20E030E02F
:103EF000A901C701B6010F949E3887FF6AC060E030
:103F000070E080EA90ECA50194010F94803F20E0DE
:103F100030E040E251E40F945C400F94C4404B0108
:103F20005C0120E030E0A901C701B6010F94A74170
:103F300087FD0BC020E030E040E251E4C701B6014C
:103F40000F949E3860E287FD13C0B7FC47C0C501DF
:103F5000B40128EE33E040E050E00F94EA3ECA019D
:103F6000B9012AE030E040E050E00F94EA3E605DA5
:103F700060930906C501B40124E630E040E050E05A
:103F80000F94EA3E8AE0C82ED12CE12CF12CCA0114
:103F9000B901A70196010F94EA3E605D60930A069D
:103FA0008EE280930B06C501B401A70196010F9420
:103FB000EA3EC62FCA01B901A70196010F94EA3E55
:103FC000605D60930C06C05DC0930D0689E096E0CD
:103FD0006FCF60E070E080EA90E495CFB094A09459
:103FE00090948094811C911CA11CB11C6DE2C0CFE7
:103FF000CF93DF93EC01CB01BA010F94A43820E0FA
:1040000030E048EC52E40F945C40688379838A8303
:104010009B83DF91CF910895CF93DF93EC01CB0188
:10402000BA010F94A43820E030E048EC52E40F9439
:104030005C40688379838A839B83DF91CF91089565
:104040000F94A43820E030E048EC52E40F945C4038
:10405000E4CCCF93DF93EC01CB01BA010F94A438E9
:1040600020E030E040E251E40F945C4068837983C3
:104070008A839B83DF91CF9108950F94A43820E029
:1040800030E040E251E40F945C4046CCCF93DF93A4
:10409000EC01CB01BA010F94A4382AE037ED43E2DA
:1040A0005DE30F945C400F94C940688379838A83F1
:1040B0009B83DF91CF910895CF93DF93EC01CB01E8
:1040C000BA010F94A4382AE037ED43E25DE30F9480
:1040D0005C40688379838A839B83DF91CF910895C5
:1040E000CF93DF93EC01CB01BA010F94A43868831E
:1040F00079838A839B83DF91CF9108950F94A438AD
:1041000020E030E048EC52E40F945C4026CECF93A0
:10411000DF93EC01CB01BA010F94A4380F94C44093
:1041200079836883DF91CF910895CF93DF93EC017A
:10413000CB01BA010F94A43820E030E04AE754E400
:104140000F945C40688379838A839B83DF91CF914E
:1041500008950F94A43820E030E04AE754E40F9427
:104160005C404FCDFC0184910895FC01808108954D
:10417000FC01A081B1811C92A281B3818C918F5FDF
:104180008C930280F381E02D90818CE0989F800DCC
:104190001124EEEDF3E113AE84AF089590E080E0DA
:1041A0000895CF93DF93C0916508D091660881E0B0
:1041B000CE31D105E4F020E030E040E05FE36091F3
:1041C00061087091620880916308909164080F946F
:1041D000803F0F94C4406C1B7D0B77FF03C071952B
:1041E0006195710981E0633071050CF080E0DF9129
:1041F000CF910895CF92DF92EF92FF92CF93C82F85
:104200000F9478186B017C0124EA30E74DE75FE3F7
:10421000609110027091110280911202909113022C
:104220000F949E3887FD18C08AEF90E0A0E0B0E0C0
:104230008C0D9D1DAE1DBF1D8093400590934105C3
:10424000A0934205B0934305C0930F02CF91FF9016
:10425000EF90DF90CF90089580E090E0DC01E8CF10
:10426000CF92DF92EF92FF920F931F930F947818E3
:1042700000911705109118052091190530911A0524
:104280006B017C01C01AD10AE20AF30A9701860188
:1042900037FD11C0209116052095209316056A540C
:1042A0007C4F8F4F9F4F6093170570931805809335
:1042B000190590931A0581E090911605911101C09E
:1042C00080E01F910F91FF90EF90DF90CF900895C5
:1042D000CF93DF93CDB7DEB720E2488559856F8154
:1042E0008E810F945613DF91CF910895CF92DF9274
:1042F000EF92FF920F94A4386B017C0120E030E034
:10430000A9010F949E382DEB37E346E055E387FF74
:1043100004C02DEB37E346E055EBC701B6010F941F
:10432000803F6B017C0120E030E0A9010F949E38B2
:1043300020E030E040E05FE387FF04C020E030E0B1
:1043400040E05FEBC701B6010F94803F0F94C4407B
:10435000CB01FF90EF90DF90CF900C942CE40F9462
:10436000A4380F94C440CB010C942CE40F94A438CF
:1043700029EC38EC48EC5EE30F945C4020E030E040
:1043800040E05FE30F94803F0F94C940862F0C9468
:1043900061E460918A088FEF0D942B2380918A0845
:1043A000682F0D942B236FEF80918A080D942B2397
:1043B00066EE78E482E00D94FB2668EE78E481E016
:1043C0000D94FB266AEE78E480E00D94FB2668E904
:1043D00076E483E00D94FB26809121148823D1F0AC
:1043E000815080932114EAE4F4E1882351F0815054
:1043F000990B2BE1289FF001299FF00D1124E05823
:10440000FB4E8BE1A5E6B4E101900D928A95E1F7B0
:104410000E946FC120912114211105C080912C149C
:10442000806480932C1481E090E0A0E0B0E0211142
:1044300003C080E090E0DC018093910890939208A3
:10444000A0939308B09394081092870881E080931A
:10445000A10883E08093620208950F945A08109295
:10446000E208109260020E94087B882331F081E20A
:1044700097E090931A08809319080C944BE28F925E
:104480009F92AF92BF92EF92FF920F931F93CF93A1
:10449000DF93EC018B01E42EF22E8091DC139091DE
:1044A000DD138C179D07D9F1109211042FE2CC3344
:1044B000D20709F03FC0845E9F4371F40F947818CF
:1044C0006E517B4F8F4F9F4F60938D0570938E057C
:1044D00080938F0590939005D093DD13C093DC13E8
:1044E00030E020E000939108109392082093930805
:1044F00030939408E0928708F0928008C45EDF430E
:1045000021F41092E40810928C0582E080936202FC
:1045100081E08093A1081092980510929305DF9195
:10452000CF911F910F91FF90EF90BF90AF909F9010
:104530008F9008952FE3C43ED20771F68C539F42AB
:10454000D9F40F94781880908D0590908E05A090E6
:104550008F05B0909005681979098A099B0997FF22
:104560000BC08091B30D8770873031F40E94F07AD0
:10457000CCEED8E48111B0CFC4EEDFE3ADCF20E0C4
:1045800040E070E060E087EE91E279CFCF93C1E048
:10459000C093E408FC0180819181A281B381809362
:1045A000100290931102A0931202B093130220E024
:1045B00040E070E060E080918808909189085FDFBA
:1045C000C0931104CF910895CF93DF9300D01F9231
:1045D000CDB7DEB78DEC9CECACECBCE389839A8361
:1045E000AB83BC83CE010196D1DF0F900F900F906B
:1045F0000F90DF91CF910895CF93DF9300D01F925A
:10460000CDB7DEB78DEC9CECACECBDE389839A832F
:10461000AB83BC83CE010196B9DF0F900F900F9052
:104620000F90DF91CF910895CF93DF9300D01F9229
:10463000CDB7DEB780E090E0A0E8BFE389839A833E
:10464000AB83BC83CE010196A1DF0F900F900F903A
:104650000F90DF91CF910895CF93DF9300D01F92F9
:10466000CDB7DEB780E090E0A0E2B1E489839A8321
:10467000AB83BC83CE01019689DF0F900F900F9022
:104680000F90DF91CF91089520E040E070E060E06E
:1046900084EE9FE3F4CE1092D0080E94D2C4F4CFEF
:1046A0008AE992E10E94BFB7EFDF0D945A088CE8C7
:1046B00098E090931A0880931908E6CF80918113AF
:1046C000909182130E948575811107C089EA9AE052
:1046D00090931A0880931908089520E040E070E054
:1046E00060E087EB9AE6CBCE9091420681E0892785
:1046F0000C94B97681E08093E4088091B30D8770C3
:10470000873051F01092B30D10921B0687E69EE0A1
:1047100090931A088093190880914206809395051A
:1047200080E00E94B97620E040E070E060E083E63F
:104730009EE3A5CE61E08AE898E00C94237780E0C0
:1047400090E0A0E8B0E480937A0290937B02A0937B
:104750007C02B0937D028CED92E00E94ADDB80E0A4
:1047600090E0A0EFB1E48093720290937302A09363
:104770007402B09375028093760290937702A093AF
:104780007802B0937902E0919405EE0FFF0BE454A8
:10479000FD4F808191818330910549F184309105ED
:1047A00091F1029761F480E090E0A9EBB3E480938B
:1047B000720290937302A0937402B093750284EC1A
:1047C00092E00E94ADDB10927A0210927B0210926E
:1047D0007C0210927D028CED92E00E94ADDB809114
:1047E00094058F5F8430E4F480939405089580E00D
:1047F00090E0A9EBB3E48093720290937302A093CC
:104800007402B093750280E090E0A5EAB3E480936F
:10481000760290937702A0937802B0937902CFCF7B
:10482000109294050895CF93DF9300D01F92CDB7D7
:10483000DEB70F94C9400F94A23869837A838B83C3
:104840009C83CE0101960E94AEE20F900F900F90D4
:104850000F90DF91CF9108950F94A4382AE037ED9F
:1048600043E25DE30F945C40DECFCF92DF92EF92A4
:10487000FF92CF93DF9300D01F92CDB7DEB76B01CD
:104880007C0120E030E0A9010F949E3887FD1BC019
:104890006DEB77E386E095E3A70196010F94803FE7
:1048A00069837A838B839C83CE0101960E94AEE25A
:1048B0000F900F900F900F90DF91CF91FF90EF909E
:1048C000DF90CF9008956DEB77E386E095EBE4CF32
:1048D0000F94A4382AE037ED43E25DE30F945C4087
:1048E000C4CF0F94A438C1CFCF92DF92EF92FF9242
:1048F0006B017C0120E030E0A9010F949E3887FD18
:1049000026C06DEB77E386E095E3A70196010F944F
:10491000803F6B017C0120E030E0A9010F949E38BC
:1049200020E030E040E05FE387FF04C020E030E0BB
:1049300040E05FEBC701B6010F94803F0F94C44085
:10494000CB01FF90EF90DF90CF900C94ADE36DEB37
:1049500077E386E095EBD9CF0F94A438C5CF0C94BC
:10496000B5CE0C94B5CE0C9467CE0C9467CE0C9457
:1049700067CE0C9467CEEF92FF920F931F93CF9365
:10498000DF93EC018B017A018A859B858617970757
:1049900031F0888199810F9442221B870A87B701E1
:1049A000888199810F9421142E813F81820F932F4A
:1049B000911D9F838E8390E080E0DF91CF911F91C6
:1049C0000F91FF90EF9008959F92AF92BF92CF9278
:1049D000DF92EF92FF920F931F93CF93DF93EC013F
:1049E0008B01942EA52E8A859B858617970731F01B
:1049F000888199810F9442221B870A87888599852F
:104A0000019649F5BC800A818E81080FC880D98043
:104A1000D6015596ED91FC91C6011995B80EE92C79
:104A2000FA2C10E0F70121917F01211127C08E811E
:104A30009F81810F911D9F838E8390E080E0DF91A5
:104A4000CF911F910F91FF90EF90DF90CF90BF908B
:104A5000AF909F9008950E811F81692D7A2D8881D6
:104A600099810F942114800F912F911D28853985EC
:104A70002817390738F681E090E0E1CF4B2D602F01
:104A8000C6010F949A22080F180FCCCFDF92EF9235
:104A9000FF920F931F93CF93DF93EC01D62E1CADA3
:104AA0000BAD7C0184E0E80EF11CE98DFA8DC701A5
:104AB0001995412F480F2D2D602FC7010F949A2271
:104AC0009BAD890F8BAF81E090E0DF91CF911F917B
:104AD0000F91FF90EF90DF900895AF92BF92DF9219
:104AE000EF92FF920F931F93CF93DF938C01EB0113
:104AF000D42E79018FE0481709F488C0A5E14A1740
:104B0000C1F1BAE04B130EC0EC81FD8130E020E032
:104B100042E061E0C80119954DEB55E0BE01C801C6
:104B20000E94CFB60A80DB81C02DF2E3DF1609F4C4
:104B3000E4C0FD1508F493C085E1D81609F4E2C07D
:104B4000A7E1DA1609F4FCC0B4E1DB127DC0EE8106
:104B5000FF818D8190E0880F991F8E0F9F1F11920A
:104B60008E179F07E1F71A82888181508B831C8200
:104B70006BC0AA80BB8048EA55E0C8010E94CFB64E
:104B8000F5014481440F406BBE01C8010E94B7B6D5
:104B900041E0BE01C8010E94BFB6D50116962D9115
:104BA0003C911797EC81FD8115964C9166E0C80108
:104BB000199540E0BE01C8010E94C7B648EA55E019
:104BC000BE01C8010E94CFB6F5014481440F4F5F7A
:104BD000406BBE01C8010E94B7B641E0BE01C801EA
:104BE0000E94BFB6D50115964C91159716962D913A
:104BF0003C91240F311DEC81FD8166E0C8011995BF
:104C000040E0BE01C8010E94C7B68CCF41E0C80198
:104C10000E94C7B640E0BE01C8010E94BFB641E88D
:104C2000BE01C8010E94B7B6F701408150E055951A
:104C3000479555954795BE01C8010E94B7B640E01B
:104C4000BE01C8010E94C7B681E0DF91CF911F91DC
:104C50000F91FF90EF90DF90BF90AF900895E6E442
:104C6000DE1609F47CC0F7E4DF1609F47CC08BE3A0
:104C7000D812EACFD70111969C91119713968C9177
:104C800038E0390F813031F0833011F0392F02C014
:104C9000392F985021E04B81491708F420E041E07A
:104CA000391708F040E091E05A81351708F490E098
:104CB000322F342B932311F4242331F2F701128184
:104CC00000E0D12C843048F490E0FC01E855FD4F21
:104CD000D0808C559D4FDC010C9117FF04C0B701AB
:104CE000CE010F941720F70180818D0D8083818183
:104CF000800F8183110F89F7A7CFB701CE010F94E1
:104D00001720A2CF88819A81980F9A8329819217C0
:104D100070F59C819F5F9C839B81890F821710F0A7
:104D20008FEF820F8B83EE81FF818D8190E0880F62
:104D3000991F8E0F9F1F11928E179F07E1F784CF47
:104D4000D7011C928A8111968C9311978D81815085
:104D500012968C9312978B8113968C9375CF8D81BD
:104D6000F701808371CF8981D7018C936DCF80E06B
:104D70006CCF2F923F924F925F926F927F928F9261
:104D80009F92AF92BF92CF92DF92EF92FF920F93DA
:104D90001F93CF93DF93CDB7DEB72D970FB6F8945F
:104DA000DEBF0FBECDBF8091E912813031F080911E
:104DB0002C1482FF6EC087FD6CC00E94FEE14B0187
:104DC0005C0145E050E060E270E080E295E00F9425
:104DD0006C4285E480931E058AE380931F05C5011C
:104DE000B40120E13EE040E050E00F94C83ED22EF6
:104DF000C32E022F132F8CE3282E312C412C512C43
:104E0000C501B401A20191010F94C83E762E672E10
:104E1000CA01B901A20191010F94C83E9E012F5F02
:104E20003F4F790130E8831631E5930631E0A30660
:104E3000B10408F447C07F936F93C80168E170E044
:104E40000F943E3F9F938F93C501B40120E831E555
:104E500041E050E00F94C83E3F932F9387E995E0DF
:104E60009F938F93FF92EF920F943738C7010F945F
:104E7000ED370FB6F894DEBF0FBECDBF2CE030E0AB
:104E8000A901481B5109CA01B701825E9A4F0F94CC
:104E900091422D960FB6F894DEBF0FBECDBFDF91C5
:104EA000CF911F910F91FF90EF90DF90CF90BF9027
:104EB000AF909F908F907F906F905F904F903F90BA
:104EC0002F9008950115110599F46F927F927F93A9
:104ED0006F938BE895E09F938F93FF92EF920F94DF
:104EE00037380FB6F894DEBF0FBECDBF85E0C6CF12
:104EF0000436110538F47F936F93CF92DF928FE7DA
:104F000095E0E9CF7F936F93CF92DF9285E795E0AD
:104F10009F938F93FF92EF920F9437380FB6F894C8
:104F2000DEBF0FBECDBF86E0A9CFCF93C0912C05C9
:104F3000CC2391F14CE050E060E270E08EE195E02E
:104F40000F946C4280E2C43628F08C2F64E60F94F4
:104F5000253F805D80930B0690E2CA3040F02AE046
:104F60008C2F622F0F94253F0F94253F905D9093D7
:104F70000C068C2F6AE00F94253F905D90930D06F0
:104F800083E0EBE0F6E0A2E2B5E001900D928A95B5
:104F9000E1F785E280932505CF910895CF92DF92C6
:104FA000EF92FF920F931F93CF93DF93CDB7DEB7AE
:104FB0002C970FB6F894DEBF0FBECDBFF09019143A
:104FC000E0901A142091150521111DC04BE255E007
:104FD0006E2D8F2D0F94052390E080E0F80EF09257
:104FE0001914E0921A1499272C960FB6F894DEBF84
:104FF0000FBECDBFDF91CF911F910F91FF90EF902A
:10500000DF90CF900895C090E613D090E71322EE82
:1050100033E13A8329832F2D30E03C832B832E2DDF
:1050200030E03E832D8318861F827A8769871C862D
:105030001B8604EE14E29E012F5F3F4F42EB50E2CD
:10504000BC01C6010F947E06B60182EE93E10F9477
:1050500042228F819885C2CF0E9421CE882339F0C9
:1050600020E040E070E060E083E596E308CA87CA8C
:105070000F931F93CF93DF938C01EB019091CA1391
:105080002091CB13921305C00E9489EC0E943CE64C
:10509000F5CF8091C91334E0839FF0011124E453CC
:1050A000FC4E11830083D383C2839F5F9093CA1306
:1050B0008F5F281739F08093C913DF91CF911F912B
:1050C0000F9108951092C913F8CF63E972E084E656
:1050D00090E0CEDF70E060E08AE090E0C9DF6AEB4C
:1050E00072E084E690E0C4CF0E94F2DFEECF81113F
:1050F000ECCF68E270E080E991E0BACF0E947ECB0D
:10510000F6CF0E949AF5F3CFCF930E94F2DF0E9470
:105110007ECBC82F882319F080E00E9476CA8C2F9E
:10512000E6DFCF91B1CACF93DF93C0918113D091C5
:105130008213209729F160917D1370917E138091E5
:105140007F13909180130F94C4406E5F7F4F24971C
:105150006C177D07ACF47093BD066093BC060F948A
:105160007818605C73468F4F9F4F6093BE067093B4
:10517000BF068093C0069093C106DF91CF9108953A
:105180001092BE061092BF061092C0061092C10681
:10519000F4CFC9CF6111609367024093E6088C3069
:1051A00008F037C0E82F880FFF0B8827E552F74D2E
:1051B0008F4F0D94653F0A29E728F1280D29F4281F
:1051C000F728FA280629FD2809290029032989EC4E
:1051D0009FE321E02093E40820E040E070E060E0FD
:1051E0004EC98FEC9FE3F5CF82ED9FE3F2CF85EDC3
:1051F0009FE3EFCF88ED9FE3ECCF8BED9FE3E9CF0B
:105200008EED9FE3E6CF81EE9FE3E3CF8EEF90E557
:10521000E0CF3ACA86EC9FE3DCCF8CEC9FE3D9CF9A
:10522000282F1092A6088091910890919208A09141
:105230009308B0919408B7FF08C01092910810929B
:105240009208109293081092940880919B058823ED
:1052500031F080919108809386081092A108809186
:1052600080081816FCF4082E000C990B821B91097B
:1052700020918608022E000C330B2817390794F072
:1052800097FF02C090E080E080938608092E000C12
:10529000AA0BBB0B8093910890939208A09393085C
:1052A000B0939408809186086623A9F090918708AE
:1052B000891714F48093870820918708022E000C28
:1052C000330B2C5F3F4F482F082E000C550B241733
:1052D00035071CF48450809387080895CF93DF939B
:1052E000C0918C05CC23B1F0C150C0938C0589E0EE
:1052F000C89FE0011124CA5ADA4F6A817B812F814D
:105300004E8188819981BBD888858093E408DF919C
:10531000CF910895DF91CF91B7C94F925F926F926D
:105320007F928F929F92AF92BF92CF92DF92EF9235
:10533000FF920F931F93CF93DF9300918A0861E050
:1053400081E06EDFC091870810E0000F111F085345
:10535000114F95E0592E5C0E20EAE22E2EE0F22E3F
:10536000D3E0DC1B33EDC32E31E2D32E4EEAA42E64
:105370004EE0B42E82E0782E7C1A59ED852E5EE048
:10538000952E81E0682E6C1A4C2E4194C11136C0C6
:10539000809186088823B1F080916202882359F0B9
:1053A00081E090918608911180E024E04CEB5EE072
:1053B000642D0F945613CF5FC511E8CF84E080931E
:1053C00080080BC08091810810928108882321F306
:1053D00085DF8091A1088823F9F2DF91CF911F9199
:1053E0000F91FF90EF90DF90CF90BF90AF909F9084
:1053F0008F907F906F905F904F900895C13089F5A6
:10540000F801859194911092AA089093AE08809328
:10541000AD081092AC081092AB08809186088130DC
:1054200081F080916202882331F21F929F928F92C5
:105430006F9281E090918608913009F480C080E0FD
:105440007EC08091810810928108882351F3809159
:105450008A08682F0F942B238091A108882309F3D1
:10546000BCCFC23009F048C0F801859194911092E8
:10547000AA089093AE088093AD081092AC081092E1
:10548000AB08809186088230D1F080916202882337
:1054900009F491CFDF92CF92BF92AF927F9281E0D9
:1054A00090918608923009F080E08F930E946821E5
:1054B0000F900F900F900F900F900F907CCF8091D6
:1054C000810810928108882301F30E94D3218091E2
:1054D000A1088823D1F281CF8091810810928108A0
:1054E0008823F1F060918A088FEF0F942B2380912D
:1054F000A1088823A9F071CFC33009F05CCFF8016F
:10550000859194911092AA089093AE088093AD086B
:105510001092AC081092AB08809186088330E1F2BB
:1055200080916202882309F446CF1F92FF92EF9286
:10553000DF9381E090918608933009F080CF8F93BC
:105540000E9468210F900F900F900F900F9033CF13
:105550003F924F925F926F927F928F929F92AF9203
:10556000BF92CF92DF92EF92FF920F931F93CF9350
:10557000DF9361E081E054DEC091870885E0682E0A
:105580006C0E02E097E4E92E9EE0F92ED4E0DC1BDD
:10559000772473942CE4C22E2EE0D22E13E01C1B31
:1055A00038E5A32E3EE0B32E502E5C1A47E6842E3B
:1055B0004EE0942E472C4C1A3C2E3194C11137C02A
:1055C000809186088823B1F080916202882359F087
:1055D00081E090918608911180E024E04BE65EE046
:1055E000632D0F945613CF5FC611E8CF85E08093EB
:1055F00080080BC08091810810928108882321F3D4
:105600006DDE8091A1088823F9F2DF91CF911F917F
:105610000F91FF90EF90DF90CF90BF90AF909F9051
:105620008F907F906F905F904F903F900895C13022
:1056300001F590918608913069F08091620288238B
:1056400091F281E0913009F080E020E24DE55EE0EA
:10565000642DC7CF8091810810928108882369F357
:1056600090921A08809219088091A108882329F342
:10567000CCCFC23009F065C01092AA081092AE08D3
:105680001092AD081092AC081092AB089091860869
:10569000923071F080916202882309F4A4CF81E0F6
:1056A000923009F080E020E241E55EE0652D99CF7F
:1056B0008091810810928108882361F3B0921A08C2
:1056C000A09219088091A108882321F39ECF70929F
:1056D000AA081092AE081092AD081092AC08109271
:1056E000AB0890918608933071F080916202882314
:1056F00009F479CF81E0933009F080E020E241E5C0
:105700005EE0612F6ECF809181081092810888231E
:1057100061F3D0921A08C09219088091A1088823D9
:1057200021F373CF80918108109281088823E1F0E2
:10573000F0921A08E09219088091A1088823A1F03C
:1057400064CFC33021F2C43009F04DCF0093AA08D2
:105750001092AE081092AD081092AC081092AB08EF
:10576000909186089430F1F280916202882309F4C6
:105770003ACF81E0943009F080E020E241E55EE03C
:105780006D2F2FCF80E090E0A0E8B0E480937A0204
:1057900090937B02A0937C02B0937D028CED92E00B
:1057A0000E94ADDB809195050E94B9761092E408C5
:1057B00095CDE0918C05E63028F581E08E0F809341
:1057C0008C054091910850919208609193087091D6
:1057D000940820918708909180088091E40839E02E
:1057E000E39FF0011124EA5AFA4FA091DC13B09123
:1057F000DD13B183A083428353836483758326833F
:10580000978380870895CF93DF93EC01D2DF20E068
:1058100040E070E060E0CE01DF91CF910C943F2238
:10582000BF92CF92DF92EF92FF920F931F93CF938D
:10583000DF9361E081E0F4DCC091870885E0E82E29
:10584000EC0E93E8C92E9EE0D92ED4E0DC1B13E0C9
:105850001C1B02E00C1B81E0F82EFC1ABC2EB1943C
:10586000C1112FC0809186088823B1F08091620217
:10587000882359F081E090918608911180E024E01E
:105880004BE95EE06B2D0F945613CF5FEC12E8CF1F
:1058900085E0809380080BC0809181081092810878
:1058A000882321F31BDD8091A1088823F9F2DF9181
:1058B000CF911F910F91FF90EF90DF90CF90BF900D
:1058C0000895C13009F580918608813079F0809182
:1058D00062028823D1F281E090918608913009F02C
:1058E00080E023E041ED54E36F2DCDCF809181081E
:1058F00010928108882359F381EF9CE284DF809124
:10590000A108882321F3D3CFC23009F053C080917E
:105910008608823081F080916202882309F4B5CF35
:1059200081E090918608923009F080E023E044E91C
:105930005EE0602FA8CF80918108109281088823B3
:1059400051F388EA9AE25FDF8091A108882319F376
:10595000AECF80918608833081F0809162028823E7
:1059600009F493CF81E090918608933009F080E0AC
:1059700023E047E85EE0612F86CF80918108109296
:105980008108882351F388E096E53DDF8091A108E6
:10599000882319F38CCF8091810810928108882385
:1059A00091F0D0921A08C09219088091A10888231A
:1059B00051F07DCFC33069F2C43009F066CF9091C9
:1059C0008608943041F380916202882309F45DCF08
:1059D00081E0943009F080E020E242E75EE06D2F44
:1059E00052CFBF92CF92DF92EF92FF920F931F930D
:1059F000CF93DF9361E081E013DCC091870885E0FD
:105A0000E82EEC0ED4E0DC1B01E092E0F92E13E06E
:105A10001C1BDF2CDC1AC02ECC1ABC2EB194C11179
:105A20002FC0809186088823B1F08091620288237C
:105A300059F081E090918608911180E024E04BE6D6
:105A40005EE06B2D0F945613CF5FEC12E8CF85E02C
:105A5000809380080BC08091810810928108882370
:105A600021F33CDC8091A1088823F9F2DF91CF91EA
:105A70001F910F91FF90EF90DF90CF90BF9008950E
:105A8000C13059F51092AA081092AE081092AD08D4
:105A90001092AC081092AB0880918608813079F0A2
:105AA00080916202882381F281E090918608913092
:105AB00009F080E023E042EE54E36C2DC3CF8091E7
:105AC000810810928108882359F382EE91E29BDECF
:105AD0008091A108882321F3C9CFC23009F066C0A4
