:100000000C94321C0C94721C0C94721C0C94721C78
:100010000C94721C0C94721C0C94721C0C94721C28
:100020000C94721C0C94721C0C94721C0C94721C18
:100030000C94721C0D9456250C94721C0C94721C1A
:100040000C94721C0C9491CF0C94721C0C94721C26
:100050000C94721C0C948DCA0C94721C0D940C257B
:100060000C94721C0C947A8F0C94708F0C94721CEC
:100070000C94721C0C94721C0C94721C0C94721CC8
:100080000C94721C0C94721C0C94721C0C94721CB8
:100090000C94721C0C94721C0C94721C0C94721CA8
:1000A0000C94721C0C94721C0C94721C0C94721C98
:1000B0000C94721C0C94721C0C94721C0C94721C88
:1000C0000C94721C0C94721C0C94721C0C94721C78
:1000D0000C94721C0C94721C0C94721C0C94721C68
:1000E0000C94721C084AD73B3BCE016E84BCBFFD0A
:1000F000C12F3D6C74319ABD56833DDA3D00C77FF8
:1001000011BED9E4BB4C3E916BAAAABE0000008090
:100110003F05A84CCDB2D44EB93836A9020C50B91F
:10012000918688083CA6AAAA2ABE000000803F004B
:100130000D94651D0D94691D0D94461D0D9481311E
:100140000D94521D0D94811D0D9411310D94341D8B
:100150000D94692E0D94851D0D942F1D0D949031D5
:100160000D944E1D0D94771D0D945F1D0D944A1D29
:100170000D947B1D0D94551D0D94731D0D943332FC
:100180000D945B1D0D94922E0D946F310D946D1D89
:100190004E414E494E495459494E46CDCCCC3D0A6C
:1001A000D7233C17B7D13877CC2B329595E6241F4F
:1001B000B14F0A000020410000C84200401C462008
:1001C000BCBE4CCA1B0E5AAEC59D7400407A10F3DB
:1001D0005A00A0724E18090010A5D4E80000E87675
:1001E00048170000E40B54020000CA9A3B000000CC
:1001F000E1F505000080969800000040420F0000E5
:1002000000A08601000000102700000000E80300A5
:100210000000006400000000000A0000000000016F
:1002200000000000002C76D888DC674F0823DFC16F
:10023000DFAE59E1B1B796E5E3E453C63AE651992A
:100240007696E8E6C28426EB898C9B62ED407C6F53
:10025000FCEFBC9C9F40F2BAA56FA5F490055A2A0A
:10026000F75C936B6CF9676DC11BFCE0E40D47FE16
:10027000F520E6B500D0ED902E030094357705000B
:1002800080841E080000204E0A000000C80C333392
:1002900033330F986E12831141EF8D2114893BE6A1
:1002A0005516CFFEE6DB18D1844B381BF77C1D902A
:1002B0001DA4BBE424203284725E228100C9F12493
:1002C000ECA1E53D27554E4C4F41442046494C4159
:1002D0004D454E54004C4F41442046494C414D45FC
:1002E0004E540046494C414D454E54204348414EE2
:1002F0004745004E796C6F6E0050455447004142AF
:100300005300504C4100206661696C6564212042B5
:100310006164206865617465722069640A005049EF
:1003200044204175746F74756E6500236465666959
:100330006E652044454641554C545F004B64200097
:100340004B6920004B7020002066696E69736865F8
:1003500064212050757420746865206C617374206A
:100360004B702C204B6920616E64204B6420636FBE
:100370006E7374616E74732066726F6D2062656C4B
:100380006F7720696E746F20436F6E666967757250
:100390006174696F6E2E680A00504944204175747B
:1003A0006F74756E6500206661696C6564212074E8
:1003B000696D656F75740A00504944204175746F0A
:1003C00074756E6500206661696C656421205465F2
:1003D0006D706572617475726520746F6F206869E5
:1003E00067680A00504944204175746F74756E65E2
:1003F00000504944204379636C65730025532025E0
:10040000692F256900204B643A2000204B693A206F
:1004100000204B703A200020436C617373696320A5
:10042000504944200A002054753A2000204B753A68
:100430002000206D61783A2000206D696E3A20001E
:1004400020643A200020626961733A2000486561A7
:1004500074696E672E2E2E002073746172740A0008
:10046000504944204175746F74756E650020666153
:10047000696C6564212054656D7065726174757274
:100480006520746F6F20686967680A0050494420CE
:100490004175746F74756E650050494420417574E0
:1004A0006F74756E65004572723A207574663820F7
:1004B000666F6E74206E6F7420696E697469616C0A
:1004C000697A65642E004572723A20757466382028
:1004D000666F6E74206E6F7420696E697469616CEA
:1004E000697A65642E004572723A20757466382008
:1004F000666F6E74206E6F7420696E697469616CCA
:10050000697A65642E002000200020003A003A003D
:100510002568753A25303268750025303268753A9D
:1005200025303268750025303268752725303268ED
:100530007500256875642025303268753A2530329B
:10054000687500FFE0FFD140A0C8A6A22FF80023E5
:10055000AC00AF10FFFEFF05FFD0FFE0FFC1FFD1F1
:10056000E240A0C8A6A22FF800238127AC00AFFF6D
:10057000D0FF64FFD1A5FFD0FF64FF64FFD1A4FFCB
:10058000D0FF16FFFE42656400456E636C6F7375A5
:10059000726500450020002000200020002000257A
:1005A0000020202020202020002020202000657214
:1005B00072001FE0201020102010102010202010AA
:1005C000201030300840048003001FE03FF03FF06F
:1005D0003FF01FE01FE03FF03FF03FF00FC007800B
:1005E00003003FFFF038007030FC3020FC10207812
:1005F000102030102C00D02E31D02F7BD02F7BD06C
:100600002E31D02C00D020301020781020FC10305B
:10061000FC303800703FFFF03FFFF038007031864B
:10062000302387102787902F87D02F03D0203010BA
:100630002078102078102030102F03D02F87D0275B
:1006400087902387103186303800703FFFF01FFFFE
:10065000F81FFFF804104002082002082004104090
:100660000820801041001041000820800410400044
:1006700000001FFFF81FFFF83E0FF0C18618C1866B
:100680000C0186040306041F060403060401860405
:10069000C1860CC186183E0FF05072696E742041FD
:1006A000626F72746564004D323520500A4D3234E9
:1006B0000050617573696E672E2E2E004D32340026
:1006C000454550524F4D2056657273696F6E2045F7
:1006D00072726F7200454550524F4D20496E6465ED
:1006E00078204572726F7200454550524F4D20433D
:1006F0005243204572726F72003F0049676E6F72FD
:100700006500526573657400496E697469616C694E
:100710007A6520454550524F4D0050726F626520FA
:100720005A204F6666736574004C6F6164206D6D6E
:1007300000556E6C6F6164206D6D0046696C2E20F3
:100740004469612E004F6666004F6E004520696E59
:10075000206D6D5E33002008204661637400200820
:10076000204D6178002008204D696E004D696E2093
:1007700054726176656C205370656564004D696ED6
:100780002056656C6F63697479004D617820402054
:100790005370656564004D61782045204163636551
:1007A0006C004D6178204020416363656C00547299
:1007B0006176656C20416363656C0052657472619B
:1007C000637420416363656C00416363656C005032
:1007D000726F6265205A204F6666736574005072AE
:1007E0006F62652059204F66667365740050726FA2
:1007F00062652058204F66667365740040207374EC
:100800006570732F6D6D00416476616E6365642061
:1008100053657474696E6773003F0043616E63656E
:100820006C00496E6974004D34323800496E697449
:1008300069616C697A6520454550524F4D004669A3
:100840006C616D656E740054656D70657261747570
:1008500072650053746570732F6D6D0050726F6216
:1008600065204F666673657473004A756E637469BC
:100870006F6E2044657600416363656C65726174D8
:10088000696F6E004D617820537065656420286D36
:100890006D2F73290053657420486F6D65204F6676
:1008A000667365747300436F6E6669677572617411
:1008B000696F6E003F004E65787420436F726E65FD
:1008C0007200446F6E65004E65787400486F6D6904
:1008D0006E672058595A0053746F726520536574BF
:1008E00074696E6773004C6F61642053657474693A
:1008F0006E677300426564205472616D6D696E6746
:100900000050726F6265205A204F666673657400EE
:100910004661646520486569676874004F666600D3
:100920004F6E00426564204C6576656C696E6700A9
:100930004C6576656C20426564004732394E00474D
:100940003239004175746F20486F6D65004D6F74CA
:10095000696F6E00426564004E6F7A7A6C6500467E
:10096000616E20537065656400436F6E66696775DC
:10097000726174696F6E00526573746F72652044A2
:10098000656661756C7473004C6F616420536574A7
:1009900074696E67730053746F7265205365747465
:1009A000696E677300507265686561742024204326
:1009B0006F6E66004F6666004F6E0052756E6F7503
:1009C000742053656E736F720050726F6265205AA7
:1009D000204F666673657400416476616E6365647A
:1009E0002053657474696E6773004D61696E004DC4
:1009F00037303220542564004D36303020423020CC
:100A0000542564004D373032203B2564004D37308B
:100A10003120542564004368616E67652046696C27
:100A2000616D656E74005072656865617420437510
:100A300073746F6D005072656865617420240042A4
:100A400061636B004D363030423000436F6E746925
:100A50006E7565004F6666004F6E0052756E6F755D
:100A6000742053656E736F72005075726765206DE8
:100A70006F726500524553554D45204F5054494FB4
:100A80004E533A005052494E54205041555345441C
:100A9000002F00200020204E6F7A7A6C653A2000EB
:100AA0005061726B696E672E2E2E000000576169CF
:100AB0007420666F720066696C616D656E74206388
:100AC00068616E676500746F20737461727400579B
:100AD00061697420666F720066696C616D656E7421
:100AE00020756E6C6F616400004E6F7A7A6C6520C1
:100AF00068656174696E6700506C65617365207725
:100B00006169742E2E2E0000507265737320627519
:100B100074746F6E00746F2068656174206E6F7AF4
:100B20007A6C650000496E736572742066696C6149
:100B30006D656E7400616E642070726573732062FF
:100B40007574746F6E00746F20636F6E74696E7568
:100B500065005761697420666F720066696C616D2B
:100B6000656E74206C6F6164000050726573732051
:100B7000427574746F6E00746F20726573756D6565
:100B8000207072696E7400005761697420666F721C
:100B9000207072696E7400746F20726573756D6574
:100BA0002E2E2E0000436C69636B20746F206669E3
:100BB0006E6973680066696C616D656E742070752E
:100BC00072676500003132300035004245443A20FA
:100BD0004550434F53203130304B0052756E617792
:100BE00061792057617463683A204F4E004D6178F7
:100BF0002054656D7000323635004D696E205465A5
:100C00006D7000350045313A204550434F53203137
:100C100030304B005053550047656E657269630074
:100C200050726F746F636F6C00312E3000426175CB
:100C3000640032353030303000437265616C697465
:100C40007933442052414D50530042696C696E65BE
:100C50006172204C6576656C696E670045787472C8
:100C600075646572730031006D61726C696E6677D0
:100C70002E6F72670043522D3130205334003230D2
:100C800032332D30312D3234006275676669782D2C
:100C9000322E312E78004D61726C696E0054686599
:100CA000726D6973746F727300426F617264204970
:100CB0006E666F005072696E74657220496E666F61
:100CC000004D61696E0056696F6C657400496E6411
:100CD00069676F00426C756500477265656E005903
:100CE000656C6C6F77004F72616E6765005265646A
:100CF000005768697465004272696768746E65734D
:100D00007300426C756520496E74656E7369747901
:100D100000477265656E20496E74656E73697479FB
:100D20000052656420496E74656E73697479004C75
:100D3000454420436F6E74726F6C00437573746F1B
:100D40006D204C6967687473004C69676874205043
:100D50007265736574730044656661756C74004FE9
:100D60006666004F6E004C6967687473004D616978
:100D70006E003F004261636B0053746F70003F0070
:100D80004E4F00594553004368616E6765204669C0
:100D90006C616D656E74004E6F204D656469610015
:100DA0005072696E742066726F6D204D6564696162
:100DB000004368616E6765204D65646961004D326E
:100DC00031004C69676874730041626F757420501C
:100DD00072696E74657200436F6E666967757261E1
:100DE00074696F6E0054656D7065726174757265BB
:100DF000004D6F74696F6E00526573756D6520509C
:100E000072696E740054756E650053746F70205073
:100E100072696E74005061757365205072696E74EA
:100E200000496E666F2053637265656E003F005324
:100E300074617274205072696E740043616E6365F0
:100E40006C005072696E740043616E6E6F74206541
:100E50006E746572207375626469723A20000220B4
:100E60002E2E004D61696E002100486F74656E641E
:100E700020746F6F20636F6C64004261636B00507D
:100E8000726F63656564004D6F7665204578747296
:100E900075646572004732385A0047323859004845
:100EA0006F6D6520400047323858004175746F20DF
:100EB000486F6D6500473238004D6F74696F6E0082
:100EC00044697361626C65205374657070657273F8
:100ED000004D383400426564204C6576656C696E5F
:100EE0006700486F6D696E67004D61696E005072F2
:100EF00065686561742024204265640050726568ED
:100F0000656174202420456E640054656D706572BF
:100F10006174757265000203FE02F902F302436F09
:100F20006F6C646F776E0050726568656174202421
:100F30000046616E20537065656400426564004E32
:100F40006F7A7A6C65004D61696E0050726F6265F0
:100F5000205A204F666673657400466C6F770046B2
:100F6000616E20537065656400426564004E6F7A5F
:100F70007A6C65005370656564004D61696E0000B0
:100F80000C0F00FE07022503BB017FFE08FE08FED2
:100F900005080806000040F0C88888987810050801
:100FA00008060000C0F88888888888F805050506C6
:100FB00000012030F830200508080600002070F8F5
:100FC00020202020E00509090600FF2070A8A8B80D
:100FD00088887020070505070001D86C366CD80595
:100FE00009090600FFF8A88888888888A8F8050AF3
:100FF0000A0600FE205050505088A8A888700303AD
:101000000306000340A040FFFFFFFFFFFFFFFFFFBD
:10101000FFFFFFFFFFFFFFFFFFFFFFFFFF000000DD
:101020000605FF010707060200808080808000809F
:10103000030303060105A0A0A00506060600005054
:10104000F85050F8500509090600FF2070A8A0705C
:1010500028A87020050707060000C8C8102040987F
:101060009805070706000040A0A040A8906801036B
:10107000030602058080800309090601FF20404025
:101080008080804040200309090601FF8040402005
:10109000202040408005070706000020A87020702F
:1010A000A8200505050600012020F82020020303E2
:1010B0000601FFC04080050101060003F80202029C
:1010C000060100C0C00507070600000810102040F8
:1010D0004080050707060000708898A8C88870033C
:1010E000070706010040C040404040E005070706F2
:1010F0000000708808102040F8050707060000F877
:10110000081030088870050707060000103050905E
:10111000F81010050707060000F880F0080888702E
:10112000050707060000304080F088887005070733
:10113000060000F808101020202005070706000010
:101140007088887088887005070706000070888896
:1011500078081060020505060100C0C000C0C0028A
:1011600006060601FFC0C000C04080030505060159
:10117000012040804020050303060002F800F80328
:101180000505060101804020408005070706000094
:10119000708810202000200507070600007088B81E
:1011A000A8B88070050707060000708888F888884E
:1011B00088050707060000F04848704848F0050712
:1011C0000706000070888080808870050707060089
:1011D00000F04848484848F0050707060000F88036
:1011E00080F08080F8050707060000F88080F08016
:1011F0008080050707060000708880809888700549
:101200000707060000888888F8888888030707068B
:101210000100E04040404040E0050707060000387C
:101220001010101090600507070600008890A0C0FD
:10123000A09088050707060000808080808080F8E5
:1012400005070706000088D8A8888888880507074A
:101250000600008888C8A898888805070706000047
:1012600070888888888870050707060000F08888DD
:10127000F080808005070706000070888888A890A5
:1012800068050707060000F08888F0A09088050729
:101290000706000070888070088870050707060040
:1012A00000F820202020202005070706000088885D
:1012B0008888888870050707060000888888885015
:1012C000502005070706000088888888A8A85005D0
:1012D0000707060000888850205088880507070601
:1012E000000088885020202020050707060000F80D
:1012F0000810204080F80309090601FFE080808083
:1013000080808080E00507070600008040402010B4
:1013100010080309090601FFE020202020202020DA
:10132000E00503030600052050880501010600FEC4
:10133000F8030303060105804020050505060000AB
:1013400070087888780507070600008080F0888894
:1013500088F0050505060000708080887005070785
:1013600006000008087888888878050505060000CA
:101370007088F08070050707060000304840E040A4
:1013800040400507070600FE7088888878087005C9
:1013900007070600008080F0888888880307070612
:1013A00001004000C0404040E00409090601FE1071
:1013B00000301010101090600507070600008080B4
:1013C0008890E09088030707060100C04040404035
:1013D00040E0050505060000D0A8A8A8A805050559
:1013E000060000B0C88888880505050600007088DA
:1013F0008888700507070600FEF0888888F08080DE
:101400000507070600FE788888887808080505051E
:10141000060000B0C88080800505050600007880C1
:101420007008F00507070600002020F8202020188B
:1014300005050506000088888898680505050600EA
:101440000088888850200505050600008888A8A81F
:10145000500505050600008850205088050707063E
:1014600000FE88888850204080050505060000F8A9
:10147000102040F80309090601FF20404040804049
:101480004040200109090602FF8080808080808022
:1014900080800309090601FF804040402040404011
:1014A0008005030306000248A890FF434F4D4D55A9
:1014B0004E49434154494F4E0044525952554E00F3
:1014C0004552524F525300494E464F004543484FF4
:1014D0000053544F505045442E20005072696E7492
:1014E00065722073746F7070656420647565207414
:1014F0006F206572726F72732E204669782074684F
:1015000065206572726F7220616E6420757365204C
:101510004D39393920746F20726573746172742E7D
:10152000202854656D7065726174757265206973E9
:101530002072657365742E20536574206974206170
:10154000667465722072657374617274696E67295E
:101550000A004E6F20436865636B73756D20776971
:101560007468206C696E65206E756D6265722C20E2
:101570004C617374204C696E653A20004E6F2043B5
:101580006865636B73756D2077697468206C696E2C
:1015900065206E756D6265722C204C617374204CF1
:1015A000696E653A2000636865636B73756D206DC5
:1015B00069736D617463682C204C617374204C698D
:1015C0006E653A20004C696E65204E756D626572DD
:1015D000206973206E6F74204C617374204C696EA7
:1015E00065204E756D6265722B312C204C617374D1
:1015F000204C696E653A20004D31313000536572E0
:1016000069616C20737461747573206D69736D61A9
:101610007463680A005344207265616420657272C5
:101620006F720A004B494C4C20627574746F6E2FB8
:1016300070696E0A002121204B494C4C2063617572
:101640007365642062792000746F6F206D75636824
:1016500020696E6163746976652074696D65202DFB
:101660002063757272656E7420636F6D6D616E6458
:101670003A20002121204B494C4C20636175736551
:10168000642062792000627573793A207061757305
:10169000656420666F7220696E7075740A006275E9
:1016A00073793A2070617573656420666F72207576
:1016B0007365720A00627573793A2070726F6365A0
:1016C0007373696E670A004D656469612052656DC8
:1016D0006F766564004D6564696120496E7365725B
:1016E000746564004D36303000506C656173652060
:1016F0005265736574005052494E5445522048411A
:101700004C5445440025533A202553004B494C4C3A
:1017100045442E20005072696E7465722068616CB9
:101720007465642E206B696C6C28292063616C6C75
:101730006564210A00006563686F3A004572726F44
:10174000723A0042696C696E656172204C6576651B
:101750006C696E6720477269643A0A00486F746565
:101760006E6420746F6F20636F6C640A0053656E43
:1017700064204D31303820746F20726573756D654B
:101780000A00496E736572742066696C616D656EDE
:101790007420616E642073656E64204D3130380AA8
:1017A0000053656E64204D31303820746F206865B9
:1017B0006174206E6F7A7A6C650A00473236204376
:1017C000616E63656C6564004732362048656174FC
:1017D000696E67204E6F7A7A6C6500473236204812
:1017E000656174696E672042656400576169746958
:1017F0006E6720666F72206865617475702E0A00CE
:101800004669786564204C656E677468205072691B
:101810006D6500446F6E65205072696D696E67007A
:101820004D616E75616C207072696D696E672E2EE8
:101830002E004C656176696E6720473236003F5353
:10184000706563696669656420582C5920636F6F01
:101850007264696E617465206F7574206F662062B2
:101860006F756E64732E0A003F285229657065619A
:10187000742076616C7565206E6F7420706C617574
:101880007369626C653B206D7573742062652061BD
:1018900074206C6561737420312E0A003F537065AB
:1018A000636966696564206E6F7A7A6C6520746519
:1018B0006D7065726174757265206E6F7420706CE6
:1018C00061757369626C652E0A003F5370656369C8
:1018D000666965642066696C616D656E7420736904
:1018E0007A65206E6F7420706C61757369626C65C7
:1018F0002E0A003F537065636966696564207072E3
:10190000696D65206C656E677468206E6F742070F9
:101910006C61757369626C652E0A003F5370656374
:101920006966696564206E6F7A7A6C652073697A7E
:1019300065206E6F7420706C61757369626C652EC2
:101940000A003F52657472616374696F6E204D7551
:101950006C7469706C696572206D75737420626552
:10196000207370656369666965642E0A003F537071
:101970006563696669656420526574726163746940
:101980006F6E204D756C7469706C696572206E6F36
:101990007420706C61757369626C652E0A003F5328
:1019A0007065636966696564206C61796572206839
:1019B0006569676874206E6F7420706C61757369F7
:1019C000626C652E0A0043292E0A003F537065633E
:1019D0006966696564206265642074656D7065720E
:1019E0006174757265206E6F7420706C61757369B7
:1019F000626C65202834302D0047323620737461C4
:101A00007274696E672E2E2E0A004F46460A0046F3
:101A100061646520486569676874200042656420D8
:101A20004C6576656C696E6720004661696C65641B
:101A300020746F20656E61626C6520426564204C85
:101A40006576656C696E670A00496E76616C6964DB
:101A5000206D6573682E0A0050726F62696E672090
:101A6000506F696E740025532025692F2569002E5B
:101A70000A002F0050726F62696E67206D6573688F
:101A800020706F696E742000202844525952554EC0
:101A90002900473239204175746F20426564204C1B
:101AA0006576656C696E67003F20284C2C522C4689
:101AB0002C4229206F7574206F6620626F756E64EA
:101AC000732E0A003F2856296572626F7365206C79
:101AD0006576656C20696D706C61757369626C65A3
:101AE0002028302D34292E0A00426164205A2076A5
:101AF000616C75650A004E6F2062696C696E656184
:101B00007220677269640A0020440020204D323040
:101B100030205300202844697361626C6564293A5F
:101B20000046696C616D656E742073657474696ECE
:101B300067730020204D3230312058004D617820ED
:101B4000416363656C65726174696F6E2028756EA0
:101B50006974732F7332290020204D32303320589E
:101B6000004D617820666565647261746573202834
:101B7000756E6974732F73290020520020204D3236
:101B80003034205000416363656C65726174696F25
:101B90006E2028756E6974732F7332292028503C8B
:101BA0007072696E742D616363656C3E20523C7285
:101BB0006574726163742D616363656C3E20543C8F
:101BC00074726176656C2D616363656C3E290020DB
:101BD0004A0020540020530020204D32303520424E
:101BE00000416476616E6365642028423C6D696ED5
:101BF0005F7365676D656E745F74696D655F75733E
:101C00003E20533C6D696E5F666565647261746504
:101C10003E20543C6D696E5F74726176656C5F66E0
:101C2000656564726174653E204A3C6A756E635FE7
:101C30006465763E290020440020490020204D3371
:101C40003031205000486F74656E64205049440064
:101C5000203B0020550020204D363033204C0046DC
:101C6000696C616D656E74206C6F61642F756E6C4C
:101C70006F6164003B200020496E76616C696420CE
:101C80006578747275646572200047322F4733207F
:101C900062616420706172616D65746572730A00BF
:101CA000536C6565702E2E2E005A2050726F62653F
:101CB0002050617374204265640A005A2050726F8C
:101CC0006265205061737420426564004732384C6D
:101CD0003000205A3A200020593A20004265642002
:101CE000583A20004D65736820706F696E74206FDC
:101CF0007574206F662072616E67650A00436C69B7
:101D0000636B20746F20526573756D652E2E2E00E7
:101D10004E6F204D6F76652E00456E642066696CAF
:101D200065206C6973740A00426567696E20666994
:101D30006C65206C6973740A004E6F206D65646970
:101D4000610A00286E6F2066696C65290043757210
:101D500072656E742066696C653A20004E6F74205F
:101D60005344207072696E74696E670A0053442090
:101D70007072696E74696E67206279746520002ED6
:101D80000A0044656C6574696F6E206661696C65F4
:101D9000642C2046696C653A200046696C652064B5
:101DA000656C657465643A002569730025696D206A
:101DB000256973002569682025696D2025697300F0
:101DC000256964202569682025696D2025697300CF
:101DD00025697920256964202569682025696D2099
:101DE000256973005072696E742074696D653A20BC
:101DF000006F6B006F666600CC14C714C014B91472
:101E0000AB1444454255473A004D3131332053001D
:101E100043522D3130205334204F46462E00434F3D
:101E20004E4649475F4558504F5254004D45415426
:101E30005041434B00434F4F4C45525F54454D502A
:101E400045524154555245004348414D4245525F29
:101E500054454D5045524154555245004241425916
:101E60005354455050494E470041524353004D4F43
:101E700054494F4E5F4D4F44455300544845524DD1
:101E8000414C5F50524F54454354494F4E004558C2
:101E900054454E4445445F4D323000435553544FF2
:101EA0004D5F4649524D574152455F55504C4F4149
:101EB00044004C464E5F5752495445004C4F4E47E4
:101EC0005F46494C454E414D45004155544F5245A2
:101ED000504F52545F53445F535441545553005331
:101EE000445F575249544500524550454154004DB6
:101EF000554C54495F564F4C554D45005344434152
:101F000052440050524F4D50545F535550504F5211
:101F10005400484F53545F414354494F4E5F434F21
:101F20004D4D414E445300454D455247454E435952
:101F30005F50415253455200434153455F4C49471E
:101F400048545F4252494748544E45535300544FFA
:101F500047474C455F4C494748545300534F4654FC
:101F6000574152455F504F574552004255494C44E6
:101F70005F50455243454E54004C4556454C494EE2
:101F8000475F44415441005A5F50524F424500520E
:101F9000554E4F5554004155544F4C4556454C00F5
:101FA0005052494E545F4A4F420050524F4752459B
:101FB0005353004155544F5245504F52545F54456E
:101FC0004D50004155544F5245504F52545F504F61
:101FD0005300564F4C554D455452494300454550CA
:101FE000524F4D0042494E4152595F46494C455F60
:101FF0005452414E534645520053455249414C5F5D
:10200000584F4E5F584F4646004649524D57415231
:10201000455F4E414D453A4D61726C696E20627567
:10202000676669782D322E312E7820284665622029
:10203000313020323032332031323A35393A35328C
:102040002920534F555243455F434F44455F5552F6
:102050004C3A6769746875622E636F6D2F4D6172BB
:102060006C696E4669726D776172652F4D61726C35
:10207000696E2050524F544F434F4C5F5645525358
:10208000494F4E3A312E30204D414348494E455F2D
:10209000545950453A43522D31302053342045583D
:1020A0005452554445525F434F554E543A31205592
:1020B0005549443A63656465326132662D34316155
:1020C000322D343734382D396231322D6335356352
:1020D0003632663336376666002F2F004D31343581
:1020E00020533C696E6465783E206F7574206F667E
:1020F0002072616E67652028302D31290A003F4A21
:10210000206F7574206F662072616E6765202830BD
:102110002E303120746F20302E33290A00205800D1
:1021200020204D61783A2000200020204D696E3A31
:102130002000203B200020204D323131205300531D
:102140006F667420656E6473746F707300250A0087
:1021500046523A0020466C6F773A2000426162791D
:1021600073746570205A0050726F6265204F666606
:10217000736574205A0050726F6265204F666673F3
:102180006574205A0064697300656E0043290A0073
:1021900061626C656420286D696E2074656D7020C5
:1021A00000436F6C64206578747275646573206198
:1021B000726520004F4646004F4E0046696C616DC7
:1021C000656E742072756E6F757420004D343231F7
:1021D00020696E636F727265637420706172616DE5
:1021E000657465722075736167650A004D65736873
:1021F00020706F696E74206F7574206F6620726135
:102200006E67650A00454550524F4D204F4B0A00FE
:10221000290A0020746F20003F5A206F7574206FC8
:10222000662072616E6765202800290A0020746F9D
:1022300020003F59206F7574206F662072616E67B1
:102240006520282D00290A0020746F20003F5820A7
:102250006F7574206F662072616E676520282D008F
:102260004D383400446F6E65207072696E74696E0B
:10227000672066696C650A004D3737004D333100C1
:1022800020204D323036205800486F6D65206F6633
:1022900066736574004F6666736574732041707071
:1022A0006C696564004572723A20546F6F206661F4
:1022B000722100546F6F206661722066726F6D200C
:1022C0007265666572656E636520706F696E740A0B
:1022D00000446966663A2020200046726F6D537490
:1022E000703A00537465707065723A00556E4C65B3
:1022F00076656C3A004C6576656C65643A005261AF
:10230000773A20202020000A4C6F676963616C3A9D
:1023100000436F756E7420453A004361703A0020A7
:10232000204D3235302043004C434420436F6E74BF
:102330007261737400203B0020204D3835312058E5
:10234000005A2D50726F6265204F66667365740087
:10235000436F6F6C696E672E2E2E0045312025531A
:102360000042656420436F6F6C696E672E2E2E00ED
:102370004265642048656174696E672E2E2E0048A0
:102380006F6D696E67204661696C6564006F70658A
:102390006E00545249474745524544003A20006672
:1023A000696C616D656E74007A5F6D696E00795F4E
:1023B0006D696E00785F6D696E005265706F727442
:1023C000696E6720656E6473746F702073746174D6
:1023D00075730A0020746F6F206C6F6E67206578CC
:1023E00074727573696F6E2070726576656E746550
:1023F000640A0020636F6C64206578747275736979
:102400006F6E2070726576656E7465640A00486F41
:102410006D6520257320466972737400000080404A
:1024200000000040000000005761726E696E673A5C
:1024300020486F6D696E672042756D702044697623
:1024400069736F72203C20310A000202040000C848
:10245000430000B4430000C8430000A0400000A0B7
:1024600040000000400000C8430000B4430000C822
:1024700043000000000000000000000000536574ED
:1024800074696E67732053746F72656400290A0063
:102490002062797465733B20637263200053657416
:1024A00074696E67732053746F72656420280048E6
:1024B000617264636F6465642044656661756C7401
:1024C0002053657474696E6773204C6F6164656432
:1024D0000020286D6D2900203B204C6576656C69D5
:1024E0006E67200020204D34323020530041757437
:1024F0006F20426564204C6576656C696E670020CC
:10250000460020480020204D3134352053004D61D5
:1025100074657269616C20686561747570207061A2
:1025200072616D657465727300203B2053656E7334
:102530006F72200020204D34313220530046696CE8
:10254000616D656E742072756E6F75742073656E43
:10255000736F7200204A00202047323920572049EB
:102560000020204D3134392043203B20556E6974C2
:102570007320696E2043656C736975730A00546536
:102580006D706572617475726520556E6974730043
:102590002020473231203B004C696E656172205526
:1025A0006E69747300454550524F4D2064617461EB
:1025B00073697A65206572726F722E0A00290A00AB
:1025C0002062797465733B2063726320002073740A
:1025D0006F7265642073657474696E6773207265C9
:1025E00074726965766564202800202863616C63D5
:1025F000756C6174656429210A0020213D20004525
:102600004550524F4D20435243206D69736D6174A4
:102610006368202D202873746F7265642920002060
:1026200053697A653A2000496E6465783A20000063
:10263000009643000096430000A04000004842007E
:1026400000A0420000A0420000C8430080F2432CDA
:102650000100002C0100006400000088130000202D
:102660004D61726C696E3D563837290A00454550F8
:10267000524F4D2076657273696F6E206D69736D70
:10268000617463682028454550524F4D3D002043FA
:102690006F756E7420583A004265640045310045FC
:1026A00000626564002C2073797374656D20737407
:1026B0006F7070656421204865617465725F49447C
:1026C0003A20004572723A204D415854454D500011
:1026D0004D415854454D5020747269676765726565
:1026E000640048656174696E67204661696C656461
:1026F0000048656174696E67206661696C65640095
:102700004D353234004D3131322053687574646F69
:10271000776E004572723A204D494E54454D500037
:102720004D494E54454D5020747269676765726516
:102730006400202F002042403A0020403A002057F9
:102740003A0020573A00496E76616C6964206578DA
:102750007472756465720A007C3C3E5E2B3D3F2FAF
:102760005B5D3B2C2A225C004D6564696120496EEB
:102770006974204661696C0053442063617264206F
:102780006F6B0A006F70656E526F6F7420666169BF
:102790006C65640A00766F6C756D652E696E697480
:1027A000206661696C65640A004E6F2053442063A3
:1027B0006172640A00534420636172642072656C24
:1027C00065617365640A000A4D3234004D3233206E
:1027D0002573002E0A006F70656E206661696C6556
:1027E000642C2046696C653A200046696C6520734C
:1027F000656C65637465640A002053697A653A20E4
:102800000046696C65206F70656E65643A2000450E
:102810004E4420535542524F5554494E450A0022CA
:1028200020706F73002220706172656E743A22000E
:10283000535542524F5554494E452043414C4C202C
:102840007461726765743A220053756263616C6CDF
:10285000204F766572666C6F7700457863656564B6
:102860006564206D617820535542524F5554494E4E
:10287000452064657074683A0057726974696E67C0
:1028800020746F2066696C653A2000667265736813
:1028900000646F696E67002066696C653A20004EBF
:1028A0006F7720002F6175746F25632E67002058A5
:1028B0003A0002000000000000006000000000007C
:1028C000FC00000FF00000000007E0000000000125
:1028D000861FC018700000000000603C0C00000162
:1028E000830C6010300000000000603C0C00000110
:1028F000830C303030000000000060000C0000004D
:10290000030C183000000000000060003F0F3C0086
:10291000030C0C6001DF0FE0FE00601C1C061800B9
:10292000060C0C6000F318318300600C0C031800D7
:102930001E0C0C6000E030398300600C0C0330008A
:10294000030C0C6000C030380F00600C0C0330002A
:10295000018C0C6000C03FF8FB00600C0C033000E1
:10296000018C0C6030C030018300600C0C01F00160
:10297000818C0C6030C030018300600C0C00E001E1
:10298000818C183030C018318300600C0C40E0019D
:10299000838C301860C00C6187C0E01C0CC06000E4
:1029A000C30C600FC3F007C0FFC7FC7F0781C000E6
:1029B0007E1FC000000000000000000000070000B3
:1029C0000000000000000000000000000007000000
:1029D0000000006D61726C696E66772E6F72670021
:1029E0006275676669782D322E312E78001FFFFFE1
:1029F000FFFFFFFF600000000001FF40000000003B
:102A000000FF8000000000007F83CF00000C303FFB
:102A100087FF80000C301F867980000C000F8C30FF
:102A2000C7838C30E78C30CFC7CC31F38C30DCECF3
:102A3000EC33B98C30D86C6C33198C30D06C0C33CF
:102A4000198C30D86C0C33198C30DC6C0E3B198C23
:102A500030CF7C079F198C30C77C038F1940000052
:102A600000000002600000000000061FFFFFFFFFE3
:102A7000FFF870012C0190012701B0012201C00173
:102A80001D01F00118011002130130020E01600255
:102A9000090190020401C002FF000003FA00400394
:102AA000F5008003F000D003EB002004E600700482
:102AB000E100E004DC004005D700C005D20040067C
:102AC000CD00D006C8008007C3003008BE00F00863
:102AD000B900C009B400B00AAF00B00BAA00D00C16
:102AE000A500000EA000500F9B00C01096005012D1
:102AF000910000148C00C0158700B0178200B01937
:102B00007D00D01B7800001E730040206E009022D4
:102B10006900F024640040275F0090295A00E02BF0
:102B20005500102E500020304B0010324600E0338C
:102B3000410090353C001037370070383200A03922
:102B40002D00B03A2800A03B2300603C1E00103D41
:102B50001900903D1400103E0F00703E0A00C03E68
:102B60000500003F0000403FFBFF803FF6FFC03FF5
:102B7000F1FF2020506C616E6E657242756666656D
:102B80007242797465733A20002046726565204D63
:102B9000656D6F72793A200020436F6D70696C65C6
:102BA000643A2046656220313020323032330A00E8
:102BB000204C61737420557064617465643A2032EE
:102BC0003032332D30312D3234207C204175746801
:102BD0006F723A2028436F6F6C5A65726F4E4C2C9F
:102BE0002064656661756C7420636F6E6669672921
:102BF0000A004D61726C696E206275676669782D96
:102C0000322E312E780A0020536F66747761726518
:102C10002052657365740A00205761746368646F9D
:102C2000672052657365740A002042726F776E20C8
:102C30006F75742052657365740A00204578746559
:102C4000726E616C2052657365740A00506F77650F
:102C50007255700A0073746172740A00473237004B
:102C60004D31303031006572726F72207772697445
:102C7000696E6720746F2066696C650A00446F6E28
:102C80006520736176696E672066696C652E0A003F
:102C90004D323900456E6473746F70730025532094
:102CA000256320256320256320256300205A3A00F0
:102CB00020593A0020583A00656E6473746F70733F
:102CC000206869743A200000002100240027002AAF
:102CD000002D003000330001010000040107010A4B
:102CE0000100000A0B02090C0D0E08070304010085
:102CF00000000000000000000000000000000000D4
:102D00000000000000000000000000000012111090
:102D100000000000000000000000000000000000B3
:102D200000000000000000000000000000000000A3
:102D30000000000000000024F404D9201BC40C5C37
:102D40000E9804C4095F0265077101F405F900FBE0
:102D500004B30048048700C1036900580355000309
:102D6000034500BE023A008402310053022A0029C2
:102D700002250004022000E4011C00C8011900AF74
:102D80000117009801140084011300710110006103
:102D900001100051010E0043010D0036010B002B04
:102DA000010B0020010B00150109000C01090003B3
:102DB000010800FB000800F3000800EB000700E436
:102DC000000600DE000600D8000600D2000600CC97
:102DD000000500C7000500C2000500BD000400B9E1
:102DE000000400B5000400B1000400AD000400A917
:102DF000000400A5000300A20003009F0004009B44
:102E00000003009800030095000200930003009067
:102E10000003008D0002008B000300880002008682
:102E200000020084000300810002007F0002007D98
:102E30000002007B000200790002007700010076AA
:102E40000002007400020072000100710002006FB5
:102E50000002006D0001006C0002006A00010069C0
:102E600000020067000100660001006500010064C7
:102E70000002006200010061000100600001005FCB
:102E80000002005D0001005C0001005B0001005ACF
:102E900000010059000100580001005700010056D0
:102EA00000010055000100540001005300000053D0
:102EB0000001005200010051000100500001004FCC
:102EC0000001004E0000004E0001004D0001004CCA
:102ED0000001004B0000004B0001004A00010049C6
:102EE00000010048000000480001004700010046C2
:102EF00000000046000100450000004500010044BC
:102F000000010043000000430001004200000042B5
:102F10000001004100000041000100400001003FAD
:102F20000000003F0001003E0000003E0001003DA7
:102F30000000003D0001003C0000003C0000003C9F
:102F40000001003B0000003B0001003A0000003A95
:102F5000000100390000003900010038000000388D
:102F60000000003800010037000000370001003683
:102F7000000000360000003600010035000000357A
:102F8000000000350001003400000034000000346F
:102F90000001003300000033000000330001003264
:102FA000000000320000003200010031000000315A
:102FB000000000310001003000000030000000304F
:102FC0000001002F0000002F0000002F0000002F44
:102FD0000001002E0000002E0000002E0001002D38
:102FE0000000002D0000002D0000002D0001002C2D
:102FF0000000002C0000002C0000002C0001002B21
:103000000000002B0000002B0000002B0001002A14
:103010000000002A0000002A0000002A0001002908
:1030200000000029000000290000002900000029FC
:1030300000010028000000280000002800000028EF
:1030400000000028000100270000002700000027E2
:1030500000000027000000270001002600000026D5
:1030600000000026000000260000002600010025C8
:1030700000000025000000250000002500000025BC
:1030800000000025000100240000002400000024AE
:1030900000000024000000240001002300000023A1
:1030A0000000002300000023000000230000002394
:1030B0000000002300010022000000220000002286
:1030C0000000002200000022000000220001002178
:1030D000000000210000002100000021000000216C
:1030E000000000210000002100010020000000205D
:1030F0000000002000000020000000200000002050
:1031000000000020000000200001001F0000001F40
:103110000000001F0000001F0000001F0000001F33
:103120000000001F0001001E0000001E0000001E25
:103130000000001E00000024F4D43050C38E20C2D2
:10314000A24017828B7011127A910D816CD90AA856
:1031500061E108C7586607615143061E4B5D05C112
:1031600045A7041A411104093D9803713931034000
:1031700036DB0265339102D4305402802E1D026387
:103180002CEE01752AC501B028A001102781018FFE
:103190002564012B244B01E0223401AC211F018D59
:1031A000200D01801FFC00841EED00971DDF00B87C
:1031B0001CD200E61BC600201BBC00641AB200B281
:1031C00019A8000A19A0006A189900D117910040A7
:1031D000178B00B516840031167E00B31579003ABE
:1031E000157300C7146F0058146A00EE1366008848
:1031F00013630025135E00C7125B006C12570015A5
:10320000125400C111510070114F0021114B00D612
:103210001049008D1047004610440002104200C0C3
:103220000F4000800F3E00420F3C00060F3B00CBDA
:103230000E3800930E37005C0E3500270E3400F375
:103240000D3200C10D3100900D3000600D2E0032A6
:103250000D2D00050D2C00D90C2B00AE0C2900857E
:103260000C29005C0C2700350C27000E0C2600E80A
:103270000B2400C40B2400A00B23007D0B23005A59
:103280000B2100390B2100180B2000F80A1F00D970
:103290000A1E00BB0A1E009D0A1D00800A1D006355
:1032A0000A1C00470A1B002C0A1B00110A1A00F70F
:1032B000091A00DD091900C4091900AB09190092A7
:1032C0000917007B091800630917004C091600361E
:1032D000091600200916000A091500F5081500E076
:1032E000081400CC081400B8081400A408140090B6
:1032F0000813007D0812006B0813005808120046DE
:1033000008120034081100230811001208110001EE
:10331000081100F0071000E0071000D0071000C0EF
:10332000071000B0070F00A107100091070E0083DF
:10333000070F0074070F0065070E0057070E0049BE
:10334000070E003B070D002E070E0020070D00138F
:10335000070D0006070D00F9060C00ED060D00E054
:10336000060C00D4060C00C8060C00BC060C00B00D
:10337000060C00A4060B0099060C008D060B0082BB
:10338000060B0077060B006C060B0061060A00575F
:10339000060B004C060A0042060A0038060A002EF8
:1033A000060A0024060A001A060A00100609000789
:1033B000060A00FD050900F4050900EB050900E215
:1033C000050900D9050900D0050900C7050900BE97
:1033D000050900B5050800AD050800A50509009C14
:1033E000050800940508008C050800840508007C89
:1033F000050800740508006C050700650508005DF8
:10340000050700560508004E050700470507004060
:1034100005080038050700310507002A05070023C5
:103420000507001C050600160507000F0507000824
:1034300005060002050700FB040600F5040700EE80
:10344000040600E8040600E2040700DB040600D5D9
:10345000040600CF040600C9040600C3040600BD2C
:10346000040600B7040600B1040500AC040600A67B
:10347000040600A00405009B0406009504050090C6
:103480000406008A04050085040500800406007A0D
:1034900004050075040500700405006B0405006652
:1034A000040500610405005C040500570405005292
:1034B0000405004D04050048040500430405003ED2
:1034C0000404003A04050035040500300404002C0F
:1034D00004050027040400230405001E0404001A48
:1034E00004040016040500110404000D040400097E
:1034F0000405000404040000040400FC030400F8B4
:10350000030400F4030400F0030400EC030400E8E7
:10351000030400E4030400E0030400DC030400D817
:10352000030400D4030400D0030400CC030400C847
:10353000030300C50303003A2E00007B1D000018A2
:103540001100004A090000DB0400007C0200004179
:10355000010000A10000004D6F766520246D6D0014
:10356000302E303235004D6F766520302E316D6D46
:10357000004D6F766520316D6D004D6F76652031A1
:10358000306D6D004D6F76652041786973004D6F29
:103590007665202A004D6F7665204000200050722D
:1035A000696E742066726F6D204D656469610020DC
:1035B0000020004572726F722077726974696E67BD
:1035C00020746F20454550524F4D210A00DB0FC932
:1035D0003F45BCDA3F8FB30240FCF0274056946170
:1035E00040FE4B9B4084A5D840E0231841346A56E6
:1035F00041E859974164DBD5416E271742B4B7556E
:1036000042CE1A9742C8AED542B5885A43D40684F2
:10361000BFA65FA7BF7443E0BF10B11AC01C2C58EF
:10362000C0E8F697C0B849D6C04E4E17C124D3554E
:10363000C1802497C1A0B5D5C1121A17C244AE5596
:10364000C2781797C26CACD5C267885AC320746F12
:103650006F206C6F6E6720657874727573696F6E1A
:103660002070726576656E7465640A0020636F6C05
:103670006420657874727573696F6E2070726576F8
:10368000656E7465640A00544845524D414C2052A1
:10369000554E4157415900546865726D616C205216
:1036A000756E6177617900496E7365727420666921
:1036B0006C616D656E7420616E642073656E64204C
:1036C0004D3130380A0050726F62696E6720466172
:1036D000696C65640A0050726F62696E67204661AA
:1036E000696C656400205A3A200020593A20004253
:1036F000656420583A2000FFFFFF43616E6E6F74CF
:10370000206F70656E207375626469722000AE2848
:103710005D3759375537204500205A002059002081
:10372000204D3932205800537465707320706572D3
:1037300020756E697400220A00556E6B6E6F776E8D
:1037400020636F6D6D616E643A202200204200207C
:1037500050006F6B0020453A00205A3A0020593A39
:1037600000583A006F6B0A00526573656E643A2028
:103770000043522D31302053342052656164792E3C
:10378000005072696E74696E672E2E2E0050726939
:103790006E7420506175736564000102102020086A
:1037A000081020401020408002010201080402019C
:1037B000010204081020408080402010080402010B
:1037C0008004020180402010080402010804020164
:1037D00001020408102040800102040810204080EB
:1037E000100804088010204004408010204004800D
:1037F00000002200250028002B002E00310034009C
:1038000002010000050108010B010505050507057A
:1038100008080808020202020A0A0808040404044C
:103820000101010101010101030303030303030378
:10383000040707070C0C0C0C0C0C0C0C0202020207
:1038400006060606060606060B0B0B0B0B0B0B0BF0
:1038500007070A0A0A0A0A0A0505050404040808F3
:10386000C200A80011241FBECFEFD1E2DEBFCDBF42
:1038700000E00CBF84B78093221614BE0FB6F894F4
:10388000A89580916000886180936000109260002C
:103890000FBE13E0A0E0B2E0E8EBF1E902E00BBFFD
:1038A00002C007900D92A83EB107D9F726E1A8EE15
:1038B000B3E001C01D92A232B207E1F71CE1C1E3FF
:1038C000DCE100E006C021970109802FFE010F9482
:1038D0007045C033D10780E00807A9F70F94143072
:1038E0000D94CB480C940000609123027091240247
:1038F000072E000C880B990B0F94AF3E2AE037ED92
:1039000043E25CE30F940E3F2091390630913A0672
:1039100040913B0650913C060F940E3F609363022A
:10392000709364028093650290936602089580917B
:10393000AA08811104C080919E088093D008089540
:10394000CF93DF93EC01CB01BA010F94AF3E0F94FC
:10395000D4466883DF91CF91089508950895CF9359
:10396000DF93EC01CB01BA010F94AF3E29EC38ECA8
:1039700048EC5EE30F94674620E030E040E05FE310
:103980000F948B450F94D4466883DF91CF910895AF
:10399000E091AA0886E0E802F0011124E958F74F07
:1039A00080919E0890E0958384830895CF93DF9360
:1039B000EC01CB01BA010F94AF3E688379838A830F
:1039C0009B83DF91CF910895CF93DF93EC01CB01DF
:1039D000BA010F94AF3E688379838A839B83DF911A
:1039E000CF9108958F929F92AF92BF92CF92DF9224
:1039F000EF92FF926B017C0120E030E0A9010F946F
:103A0000A93E87FD6BC06DEB77E386E095E3A701E8
:103A100096010F948B456B017C0120E030E040E281
:103A200051E40F940E3F20E030E040E251E40F9467
:103A30000E3F4B015C0120E030E0A901C701B60157
:103A40000F94A93E20E030E040EA50E487FF04C034
:103A500020E030E040EA50ECC501B4010F948B4502
:103A600020E030E040E251E40F9467460F94CF46E7
:103A70009B018BE237FF05C022273327261B370B1C
:103A80008DE280931806C90164E670E00F945D45ED
:103A9000CB01EAE0F0E0BF010F945D45805D8093CB
:103AA0001906C901BF010F945D45282FCB01BF0145
:103AB0000F945D45805D80931A068EE280931B060D
:103AC000205D20931C0688E196E0FF90EF90DF9048
:103AD000CF90BF90AF909F908F9008956DEB77E35C
:103AE00086E095EB94CF8F929F92AF92BF92CF9248
:103AF000DF92EF92FF92CF936B017C0120E030E0E8
:103B0000A9010F94A93E87FDD6C06DEB77E386E04F
:103B100095E3A70196010F948B456B017C0120E092
:103B200030E0A9010F94A93E87FFCAC0C701B601C2
:103B3000905820E030E040E251E40F940E3F20E046
:103B400030E048EC52E40F940E3F20E030E040EAD1
:103B500050E40F948B4520E030E040E251E40F94B4
:103B600067460F94CF466B017C0160E280E4C81683
:103B700082E4D8068FE0E806F1048CF0C701B601B4
:103B800020E432E44FE050E00F94F544CA01B9015B
:103B90002AE030E040E050E00F94F544605D60932F
:103BA000150660E280EAC81686E8D80681E0E806D5
:103BB000F1048CF0C701B60120EA36E841E050E09C
:103BC0000F94F544CA01B9012AE030E040E050E02A
:103BD0000F94F544605D6093160660E280E1C816BC
:103BE00087E2D806E104F1048CF0C701B60120E1B8
:103BF00037E240E050E00F94F544CA01B9012AE0F1
:103C000030E040E050E00F94F544605D60931706AB
:103C100060E288EEC81683E0D806E104F1048CF077
:103C2000C701B60128EE33E040E050E00F94F544C0
:103C3000CA01B9012AE030E040E050E00F94F544B9
:103C4000605D60931806C701B60124E630E040E0ED
:103C500050E00F94F5448AE0882E912CA12CB12CD1
:103C6000CA01B901A50194010F94F544605D609308
:103C700019068EE280931A06C701B601A5019401C8
:103C80000F94F544C62FCA01B901A50194010F9400
:103C9000F544605D60931B06C05DC0931C0685E122
:103CA00096E0CF91FF90EF90DF90CF90BF90AF90D4
:103CB0009F908F9008956DEB77E386E095EB29CF89
:103CC00020E030E040E251E4C701B60136CF8F92E8
:103CD0009F92AF92BF92CF92DF92EF92FF92CF93DB
:103CE0006B017C0120E030E0A9010F94A93E87FD23
:103CF00093C06DEB77E386E095E3A70196010F94FF
:103D00008B456B017C0120E030E040E251E40F94F0
:103D10000E3F20E030E04AE754E40F940E3F4B01A1
:103D20005C0120E030E0A901C701B6010F94A93E73
:103D300020E030E040EA50E487FF04C020E030E0BB
:103D400040EA50ECC501B4010F948B4520E030E00F
:103D500040E251E40F9467460F94CF466B017C011B
:103D6000C114D104E104F10409F45BC0F7FE59C0A9
:103D7000F094E094D094C094C11CD11CE11CF11CBF
:103D80008DE280931706C701B60128EE33E040E0CC
:103D900050E00F94F5448AE0882E912CA12CB12C90
:103DA000CA01B901A50194010F94F544605D6093C7
:103DB00018068EE280931906C701B60124E630E0AA
:103DC00040E050E00F94F544CA01B901A501940107
:103DD0000F94F544605D60931A06C701B601A50112
:103DE00094010F94F544C62FCA01B901A5019401AD
:103DF0000F94F544605D60931B06C05DC0931C0684
:103E000087E196E0CF91FF90EF90DF90CF90BF9049
:103E1000AF909F908F9008956DEB77E386E095EBE0
:103E20006CCF80E2AECF8F929F92AF92BF92CF9233
:103E3000DF92EF92FF92CF936B017C0120E030E0A4
:103E4000A9010F94A93E87FFA3C06DEB77E386E03D
:103E500095EBA70196010F948B456B017C0120E047
:103E600030E040E251E40F940E3F20E030E048ECB7
:103E700052E40F940E3F4B015C0120E030E040E241
:103E800051ECC701B6010F94A93E181654F420E076
:103E900030E048EC52E4C701B6010F94B24787FD09
:103EA0008BC020E030E0A901C701B6010F94A93E04
:103EB00087FF73C060E070E080EA90ECA501940198
:103EC0000F948B4520E030E040E251E40F946746C8
:103ED0000F94CF466B017C01F7FC64C020E137E210
:103EE00040E050E00F94F544CA01B9012AE030E007
:103EF00040E050E00F94F544605D60931706C70101
:103F0000B60128EE33E040E050E00F94F5449AE02B
:103F1000892E912CA12CB12CCA01B901A5019401C3
:103F20000F94F544605D60931806C701B60124E65E
:103F300030E040E050E00F94F544CA01B901A5011A
:103F400094010F94F544605D609319068EE28093AE
:103F50001A06C701B601A50194010F94F544C62FB6
:103F6000CA01B901A50194010F94F544605D609305
:103F70001B06C05DC0931C0687E196E0CF91FF90C1
:103F8000EF90DF90CF90BF90AF909F908F9008956B
:103F90006DEB77E386E095E35CCF60E070E080EA6C
:103FA00090E48CCFF094E094D094C094C11CD11CC8
:103FB000E11CF11C6DE2A1CF20E030E0A901C701B6
:103FC000B6010F94A93E87FF6AC060E070E080EA06
:103FD00090ECA50194010F948B4520E030E040E285
:103FE00051E40F9467460F94CF464B015C0120E0EB
:103FF00030E0A901C701B6010F94B24787FD0BC09D
:1040000020E030E040E251E4C701B6010F94A93E40
:1040100060E287FD13C0B7FC47C0C501B40128EEBC
:1040200033E040E050E00F94F544CA01B9012AE0C2
:1040300030E040E050E00F94F544605D6093180676
:10404000C501B40124E630E040E050E00F94F544AF
:104050008AE0C82ED12CE12CF12CCA01B901A701AC
:1040600096010F94F544605D609319068EE280938B
:104070001A06C501B401A70196010F94F544C62F95
:10408000CA01B901A70196010F94F544605D6093E0
:104090001B06C05DC0931C0688E196E06FCF60E010
:1040A00070E080EA90E495CFB094A09490948094CE
:1040B000811C911CA11CB11C6DE2C0CFCF93DF937A
:1040C000EC01CB01BA010F94AF3E20E030E048ECA8
:1040D00052E40F946746688379838A839B83DF91D8
:1040E000CF910895CF93DF93EC01CB01BA010F94E8
:1040F000AF3E20E030E048EC52E40F94674668831E
:1041000079838A839B83DF91CF9108950F94AF3E8B
:1041100020E030E048EC52E40F946746E4CCCF93C3
:10412000DF93EC01CB01BA010F94AF3E20E030E009
:1041300040E251E40F946746688379838A839B83C6
:10414000DF91CF9108950F94AF3E20E030E040E240
:1041500051E40F94674646CCCF93DF93EC01CB013B
:10416000BA010F94AF3E2AE037ED43E25DE30F94CE
:1041700067460F94D446688379838A839B83DF9153
:10418000CF910895CF93DF93EC01CB01BA010F9447
:10419000AF3E2AE037ED43E25DE30F946746688364
:1041A00079838A839B83DF91CF910895CF93DF93A7
:1041B000EC01CB01BA010F94AF3E688379838A8307
:1041C0009B83DF91CF9108950F94AF3E20E030E0C4
:1041D00048EC52E40F94674626CECF93DF93EC0170
:1041E000CB01BA010F94AF3E0F94CF467983688319
:1041F000DF91CF910895CF93DF93EC01CB01BA010A
:104200000F94AF3E20E030E04AE754E40F94674655
:10421000688379838A839B83DF91CF9108950F947C
:10422000AF3E20E030E04AE754E40F9467464FCDBC
:10423000FC0184910895FC0180810895E091780546
:10424000E63028F581E08E0F80937805409196083E
:1042500050919708609198087091990820919B0857
:1042600090918F088091E40839E0E39FF0011124D8
:10427000ED5CFA4FA091DC13B091DD13B183A08304
:10428000428353836483758326839783808708954D
:10429000FC01A081B1811C92A281B3818C918F5FBE
:1042A0008C930280F381E02D90818CE0989F800DAB
:1042B0001124EEEDF3E113AE84AF089590E080E0B9
:1042C0000895CF92DF92EF92FF92CF93C82F0F9471
:1042D000561E6B017C0124EA30E74DE75FE36091F5
:1042E00010027091110280911202909113020F94AA
:1042F000A93E87FD18C08AEF90E0A0E0B0E08C0DE9
:104300009D1DAE1DBF1D80931D0590931E05A0939E
:104310001F05B0932005C0930F02CF91FF90EF903F
:10432000DF90CF90089580E090E0DC01E8CFCF925D
:10433000DF92EF92FF920F931F930F94561E0091FE
:10434000F4041091F5042091F6043091F7046B0108
:104350007C01C01AD10AE20AF30A9701860137FDEF
:1043600011C02091F30420952093F3046A547C4FEC
:104370008F4F9F4F6093F4047093F5048093F6047D
:104380009093F70481E09091F304911101C080E0D3
:104390001F910F91FF90EF90DF90CF900895CF93F2
:1043A000DF93CDB7DEB720E2488559856F818E81D6
:1043B0000F946E19DF91CF910895CF92DF92EF9213
:1043C000FF920F94AF3E6B017C0120E030E0A90129
:1043D0000F94A93E2DEB37E346E055E387FF04C079
:1043E0002DEB37E346E055EBC701B6010F948B4543
:1043F0006B017C0120E030E0A9010F94A93E20E090
:1044000030E040E05FE387FF04C020E030E040E0C0
:104410005FEBC701B6010F948B450F94CF46CB01DC
:10442000FF90EF90DF90CF900C941EEA0F94AF3E78
:104430000F94CF46CB010C941EEA0F94AF3E29ECAB
:1044400038EC48EC5EE30F94674620E030E040E053
:104450005FE30F948B450F94D446862F0C9475EA36
:1044600060919E088FEF0D94092980919E08682F16
:104470000D9409296FEF80919E080D9409296BE432
:104480007CE482E00D94D92C6DE47CE481E00D9411
:10449000D92C6FE47CE480E00D94D92C6DEF79E4A5
:1044A00083E00D94D92C809125148823D1F081507C
:1044B00080932514EEE4F4E1882351F08150990BA8
:1044C0002BE1289FF001299FF00D1124EC57FB4EA2
:1044D0008BE1A9E6B4E101900D928A95E1F70E9483
:1044E00062C720912514211105C080913014806489
:1044F0008093301481E090E0A0E0B0E0211103C08F
:1045000080E090E0DC018093960890939708A09358
:104510009808B093990810929B0881E080939008C6
:1045200083E08093620208950F94720E1092E20865
:10453000109260020E948F7F882331F08CEB96E00E
:1045400090932908809328080C943DE88F929F92BD
:10455000AF92BF92EF92FF920F931F93CF93DF938F
:10456000EC018B01E42EF22E8091DC139091DD138F
:104570008C179D07D9F11092EE0320E3C338D207C0
:1045800009F03FC08954934471F40F94561E6E5144
:104590007B4F8F4F9F4F6093790570937A0580937F
:1045A0007B0590937C05D093DD13C093DC1330E042
:1045B00020E0009396081093970820939808309372
:1045C0009908E0929B08F0928F08C954D34421F4D3
:1045D0001092E4081092780582E08093620281E0F4
:1045E000809390081092840510927F05DF91CF91FF
:1045F0001F910F91FF90EF90BF90AF909F908F9081
:10460000089523E4C934D20771F683589043D9F44E
:104610000F94561E8090790590907A05A0907B05A6
:10462000B0907C05681979098A099B0997FF0BC02E
:104630008091B30D8770873031F40E94777FC1E598
:10464000DCE48111B0CFC9E4D3E4ADCF20E040E099
:1046500070E060E08EE492E279CFCF93C1E0C09346
:10466000E408FC0180819181A281B38180931002D2
:1046700090931102A0931202B093130220E040E045
:1046800070E060E080919C0890919D085FDFC0938E
:10469000EE03CF910895CF93DF9300D01F92CDB753
:1046A000DEB78DEC9CECACECBCE389839A83AB83E6
:1046B000BC83CE010196D1DF0F900F900F900F9029
:1046C000DF91CF910895CF93DF9300D01F92CDB7A4
:1046D000DEB78DEC9CECACECBDE389839A83AB83B5
:1046E000BC83CE010196B9DF0F900F900F900F9011
:1046F000DF91CF910895CF93DF9300D01F92CDB774
:10470000DEB780E090E0A0E8BFE389839A83AB83C3
:10471000BC83CE010196A1DF0F900F900F900F90F8
:10472000DF91CF910895CF93DF9300D01F92CDB743
:10473000DEB780E090E0A0E2B1E489839A83AB83A6
:10474000BC83CE01019689DF0F900F900F900F90E0
:10475000DF91CF91089520E040E070E060E089E4CF
:1047600093E4F4CE1092D0080E94C5CAF4CF8AE92F
:1047700092E10E94B2BDEFDF0D94720E87E298E0E5
:104780009093290880932808E6CF0F94AF3E0F94AA
:10479000D446862F0C9453EACF93DF9300D01F9218
:1047A000CDB7DEB78FEF89838A838B838FE78C83C6
:1047B00060E0CE0101960E94227A0F900F900F9038
:1047C0000F90DF91CF910895CF93DF9300D01F9288
:1047D000CDB7DEB78FEF89831A821B828FE78C8378
:1047E00060E0CE0101960E94227A0F900F900F9008
:1047F0000F90DF91CF910895CF93DF9300D01F9258
:10480000CDB7DEB78FEF898389E18A831B828FE77B
:104810008C8360E0CE0101960E94227A0F900F9067
:104820000F900F90DF91CF910895CF93DF9300D039
:104830001F92CDB7DEB78FEF89838BE48A831B820B
:104840008FE78C8360E0CE0101960E94227A0F9060
:104850000F900F900F90DF91CF910895CF93DF933A
:1048600000D01F92CDB7DEB719821A828FEF8B83EB
:104870008FE78C8360E0CE0101960E94227A0F9030
:104880000F900F900F90DF91CF910895CF93DF930A
:1048900000D01F92CDB7DEB719828FEF8A838B834A
:1048A0008FE78C8360E0CE0101960E94227A0F9000
:1048B0000F900F900F90DF91CF910895CF93DF93DA
:1048C00000D01F92CDB7DEB78FEF89831A828B831A
:1048D0008FE78C8360E0CE0101960E94227A0F90D0
:1048E0000F900F900F90DF91CF91089580918113D9
:1048F000909182130E94BF79811107C084E49AE0ED
:104900009093290880932808089520E040E070E003
:1049100060E08FEC9DE61ACE9091510681E08927E8
:104920000C94407B81E08093E4088091B30D877004
:10493000873051F01092B30D10922A0685EB9EE05D
:1049400090932908809328088091510680938105CF
:1049500080E00E94407B20E040E070E060E086EC78
:1049600091E4F4CD61E08EE998E00C94AA7B80E0BC
:1049700090E0A0E8B0E480937A0290937B02A09349
:104980007C02B0937D028CED92E00E949FE180E07A
:1049900090E0A0EFB1E48093720290937302A09331
:1049A0007402B09375028093760290937702A0937D
:1049B0007802B0937902E0918005EE0FFF0BE4548A
:1049C000FD4F808191818330910549F184309105BB
:1049D00091F1029761F480E090E0A9EBB3E4809359
:1049E000720290937302A0937402B093750284ECE8
:1049F00092E00E949FE110927A0210927B02109244
:104A00007C0210927D028CED92E00E949FE18091E9
:104A100080058F5F8430E4F480938005089580E002
:104A200090E0A9EBB3E48093720290937302A09399
:104A30007402B093750280E090E0A5EAB3E480933D
:104A4000760290937702A0937802B0937902CFCF49
:104A5000109280050895CF93DF9300D01F92CDB7B9
:104A6000DEB70F94D4460F94AD3E69837A838B836F
:104A70009C83CE0101960E94A0E80F900F900F90AA
:104A80000F90DF91CF9108950F94AF3E2AE037ED5C
:104A900043E25DE30F946746DECFCF92DF92EF9261
:104AA000FF92CF93DF9300D01F92CDB7DEB76B019B
:104AB0007C0120E030E0A9010F94A93E87FD1BC0D6
:104AC0006DEB77E386E095E3A70196010F948B45A4
:104AD00069837A838B839C83CE0101960E94A0E830
:104AE0000F900F900F900F90DF91CF91FF90EF906C
:104AF000DF90CF9008956DEB77E386E095EBE4CF00
:104B00000F94AF3E2AE037ED43E25DE30F94674632
:104B1000C4CF0F94AF3EC1CFCF92DF92EF92FF92FE
:104B20006B017C0120E030E0A9010F94A93E87FDD4
:104B300026C06DEB77E386E095E3A70196010F941D
:104B40008B456B017C0120E030E0A9010F94A93E68
:104B500020E030E040E05FE387FF04C020E030E089
:104B600040E05FEBC701B6010F948B450F94CF4631
:104B7000CB01FF90EF90DF90CF900C949FE96DEB0D
:104B800077E386E095EBD9CF0F94AF3EC5CF0C9479
:104B9000A7D40C94A7D40C9459D40C9459D40C9445
:104BA00059D40C9459D4EF92FF920F931F93CF9343
:104BB000DF93EC018B017A018A859B858617970725
:104BC00031F0888199810F9420281B870A87B701CB
:104BD000888199810F94391A2E813F81820F932FFA
:104BE000911D9F838E8390E080E0DF91CF911F9194
:104BF0000F91FF90EF9008959F92AF92BF92CF9246
:104C0000DF92EF92FF920F931F93CF93DF93EC010C
:104C10008B01942EA52E8A859B858617970731F0E8
:104C2000888199810F9420281B870A878885998518
:104C3000019649F5BC800A818E81080FC880D98011
:104C4000D6015596ED91FC91C6011995B80EE92C47
:104C5000FA2C10E0F70121917F01211127C08E81EC
:104C60009F81810F911D9F838E8390E080E0DF9173
:104C7000CF911F910F91FF90EF90DF90CF90BF9059
:104C8000AF909F9008950E811F81692D7A2D8881A4
:104C900099810F94391A800F912F911D288539859C
:104CA0002817390738F681E090E0E1CF4B2D602FCF
:104CB000C6010F947828080F180FCCCFDF92EF921F
:104CC000FF920F931F93CF93DF93EC01D62E1CAD71
:104CD0000BAD7C0184E0E80EF11CE98DFA8DC70173
:104CE0001995412F480F2D2D602FC7010F9478285B
:104CF0009BAD890F8BAF81E090E0DF91CF911F9149
:104D00000F91FF90EF90DF900895AF92BF92DF92E6
:104D1000EF92FF920F931F93CF93DF938C01EB01E0
:104D2000D42E79018FE0481709F488C0A5E14A170D
:104D3000C1F1BAE04B130EC0EC81FD8130E020E000
:104D400042E061E0C801199548E555E0BE01C8019F
:104D50000E94C2BC0A80DB81C02DF2E3DF1609F499
:104D6000E4C0FD1508F493C085E1D81609F4E2C04B
:104D7000A7E1DA1609F4FCC0B4E1DB127DC0EE81D4
:104D8000FF818D8190E0880F991F8E0F9F1F1192D8
:104D90008E179F07E1F71A82888181508B831C82CE
:104DA0006BC0AA80BB8043E455E0C8010E94C2BC2E
:104DB000F5014481440F406BBE01C8010E94AABCAA
:104DC00041E0BE01C8010E94B2BCD50116962D91EA
:104DD0003C911797EC81FD8115964C9166E0C801D6
:104DE000199540E0BE01C8010E94BABC43E455E0F9
:104DF000BE01C8010E94C2BCF5014481440F4F5F4F
:104E0000406BBE01C8010E94AABC41E0BE01C801BE
:104E10000E94B2BCD50115964C91159716962D910E
:104E20003C91240F311DEC81FD8166E0C80119958C
:104E300040E0BE01C8010E94BABC8CCF41E0C8016D
:104E40000E94BABC40E0BE01C8010E94B2BC41E869
:104E5000BE01C8010E94AABCF701408150E05595EF
:104E6000479555954795BE01C8010E94AABC40E0F0
:104E7000BE01C8010E94BABC81E0DF91CF911F91B1
:104E80000F91FF90EF90DF90BF90AF900895E6E410
:104E9000DE1609F47CC0F7E4DF1609F47CC08BE36E
:104EA000D812EACFD70111969C91119713968C9145
:104EB00038E0390F813031F0833011F0392F02C0E2
:104EC000392F985021E04B81491708F420E041E048
:104ED000391708F040E091E05A81351708F490E066
:104EE000322F342B932311F4242331F2F701128152
:104EF00000E0D12C843048F490E0FC01E855FD4FEF
:104F0000D0808C559D4FDC010C9117FF04C0B70178
:104F1000CE010F94F525F70180818D0D808381816D
:104F2000800F8183110F89F7A7CFB701CE010F94AE
:104F3000F525A2CF88819A81980F9A8329819217AB
:104F400070F59C819F5F9C839B81890F821710F075
:104F50008FEF820F8B83EE81FF818D8190E0880F30
:104F6000991F8E0F9F1F11928E179F07E1F784CF15
:104F7000D7011C928A8111968C9311978D81815053
:104F800012968C9312978B8113968C9375CF8D818B
:104F9000F701808371CF8981D7018C936DCF80E039
:104FA0006CCF2F923F924F925F926F927F928F922F
:104FB0009F92AF92BF92CF92DF92EF92FF920F93A8
:104FC0001F93CF93DF93CDB7DEB72D970FB6F8942D
:104FD000DEBF0FBECDBF8091E912813031F08091EC
:104FE000301482FF6EC087FD6CC00E94F0E74B0159
:104FF0005C0145E050E060E270E08DEF94E00F94DA
:10500000774885E48093FB048AE38093FC04C50120
:10501000B40120E13EE040E050E00F94D344D22EB2
:10502000C32E022F132F8CE3282E312C412C512C10
:10503000C501B401A20191010F94D344762E672ECD
:10504000CA01B901A20191010F94D3449E012F5FBF
:105050003F4F790130E8831631E5930631E0A3062E
:10506000B10408F447C07F936F93C80168E170E012
:105070000F9449459F938F93C501B40120E831E512
:1050800041E050E00F94D3443F932F9382E395E0A7
:105090009F938F93FF92EF920F94423EC7010F941C
:1050A000F83D0FB6F894DEBF0FBECDBF2CE030E068
:1050B000A901481B5109CA01B70185509B4F0F94A4
:1050C0009C482D960FB6F894DEBF0FBECDBFDF9182
:1050D000CF911F910F91FF90EF90DF90CF90BF90F5
:1050E000AF909F908F907F906F905F904F903F9088
:1050F0002F9008950115110599F46F927F927F9377
:105100006F9386E295E09F938F93FF92EF920F94B7
:10511000423E0FB6F894DEBF0FBECDBF85E0C6CFCE
:105120000436110538F47F936F93CF92DF928AE1B2
:1051300095E0E9CF7F936F93CF92DF9280E195E086
:105140009F938F93FF92EF920F94423E0FB6F89485
:10515000DEBF0FBECDBF86E0A9CFCF93C0910905BA
:10516000CC23B1F04CE050E060E270E08BEF94E0D3
:105170000F9477488C2F0E9453EAFC0193E0AFEF25
:10518000B4E001900D929A95E1F785E280930205D3
:10519000CF910895CF92DF92EF92FF920F931F93DA
:1051A000CF93DF93CDB7DEB72C970FB6F894DEBF61
:1051B0000FBECDBFF0901914E0901A142091F204A4
:1051C00021111DC046EC54E06E2D8F2D0F94E32865
:1051D00090E080E0F80EF0921914E0921A149927EA
:1051E0002C960FB6F894DEBF0FBECDBFDF91CF91E6
:1051F0001F910F91FF90EF90DF90CF900895C09096
:10520000E613D090E71322EE33E13A8329832F2D62
:1052100030E03C832B832E2D30E03E832D83188697
:105220001F827A8769871C861B860CEF15E29E0118
:105230002F5F3F4F48E151E2BC01C6010F94920C31
:10524000B60182EE93E10F9420288F819885C2CF1A
:105250000E9413D4882339F020E040E070E060E041
:1052600082ED97E373C9F2C90F931F93CF93DF9336
:105270008C01EB019091CA132091CB13921305C0BE
:105280000E949DF20E9450ECF5CF8091C91334E04A
:10529000839FF0011124E453FC4E11830083D383D8
:1052A000C2839F5F9093CA138F5F281739F0809352
:1052B000C913DF91CF911F910F9108951092C913D7
:1052C000F8CF63E972E084E690E0CEDF70E060E062
:1052D0008AE090E0C9DF6AEB72E084E690E0C4CF38
:1052E0000E94E4E5EECF8111ECCF68E270E080E946
:1052F00091E0BACF0E9470D1F6CF0E94AEFBF3CFFF
:10530000CF930E94E4E50E9470D1C82F882319F042
:1053100080E00E9468D08C2FE6DFCF911CCACF932B
:10532000DF93C0918113D0918213209729F160916E
:105330007D1370917E1380917F13909180130F9451
:10534000CF466E5F7F4F24976C177D07ACF4709348
:10535000CC066093CB060F94561E605C73468F4F4D
:105360009F4F6093CD067093CE068093CF069093A7
:10537000D006DF91CF9108951092CD061092CE06FF
:105380001092CF061092D006F4CFC9CFCF93DF93FF
:10539000EC010E941E2120E040E070E060E0CE01C0
:1053A000DF91CF91D3C86111609367024093E60803
:1053B0008C3008F037C0E82F880FFF0B8827EC519E
:1053C000F64D8F4F0D947045132AF029FA29162AAD
:1053D000FD29002A032A0F2A062A122A092A0C2A42
:1053E0008EE293E421E02093E40820E040E070E0C6
:1053F00060E0ACC884E393E4F5CF87E393E4F2CFB5
:105400008AE393E4EFCF8DE393E4ECCF80E493E47D
:10541000E9CF83E493E4E6CF86E493E4E3CF83E942
:1054200096E5E0CF98C98BE293E4DCCF81E393E487
:10543000D9CF282F1092A6088091960890919708AE
:10544000A0919808B0919908B7FF08C010929608EB
:1054500010929708109298081092990880918705E9
:10546000882331F08091960880939A0810929008D2
:1054700080918F081816FCF4082E000C990B821BE3
:10548000910920919A08022E000C330B2817390736
:1054900094F097FF02C090E080E080939A08092E74
:1054A000000CAA0BBB0B8093960890939708A093CF
:1054B0009808B093990880919A086623A9F0909172
:1054C0009B08891714F480939B0820919B08022E57
:1054D000000C330B2C5F3F4F482F082E000C550B50
:1054E000241735071CF4845080939B0808952F924D
:1054F0003F924F925F926F927F928F929F92AF9264
:10550000BF92CF92DF92EF92FF920F931F93CF93B0
:10551000DF9300D000D0CDB7DEB71C017A8369835A
:105520002B833C834D835E832701380181E0809388
:1055300090080E941E2183E08093620230927705DA
:105540002092760589819A819093750580937405E0
:105550008B819C81AD81BE81809370059093710594
:10556000A0937205B093730540926C0550926D053F
:1055700060926E0570926F05F12CE12CC092960836
:10558000D0929708E0929808F0929908B092DD13B3
:10559000A092DC1390926B0580926A058C8D8093AB
:1055A000690526960FB6F894DEBF0FBECDBFDF911A
:1055B000CF911F910F91FF90EF90DF90CF90BF9010
:1055C000AF909F908F907F906F905F904F903F90A3
:1055D0002F900895CF93DF93C0917805CC23B9F035
:1055E000C150C093780589E0C89FE0011124CD5CCB
:1055F000DA4F6A817B812F814E81888199810E9457
:10560000A62288858093E408DF91CF910895DF91E9
:10561000CF91A1C84F925F926F927F928F929F928B
:10562000AF92BF92CF92DF92EF92FF920F931F93B0
:10563000CF93DF9300919E0861E081E0FADEC09194
:105640009B0810E0000F111F0A5E104F95E0592EC5
:105650005C0E2EEEE22E2EE0F22ED3E0DC1B3AE3BF
:10566000C32E32E2D32E4CEFA42E4EE0B42E82E0B5
:10567000782E7C1A57E2852E5FE0952E81E0682E09
:105680006C1A4C2E4194C11136C080919A0888231F
:10569000B1F080916202882359F081E090919A08DC
:1056A000911180E024E04AE05FE0642D0F946E19D0
:1056B000CF5FC511E8CF84E080938F080BC0809145
:1056C000910810929108882321F384DF809190083B
:1056D0008823F9F2DF91CF911F910F91FF90EF9006
:1056E000DF90CF90BF90AF909F908F907F906F9002
:1056F0005F904F900895C13089F5F801859194919C
:105700001092AA089093AE088093AD081092AC084E
:105710001092AB0880919A08813081F080916202EA
:10572000882331F21F929F928F926F9281E0909125
:105730009A08913009F480C080E07EC08091910881
:1057400010929108882351F380919E08682F0F943E
:10575000092980919008882309F3BCCFC23009F051
:1057600048C0F801859194911092AA089093AE08D0
:105770008093AD081092AC081092AB0880919A0803
:105780008230D1F080916202882309F491CFDF92B8
:10579000CF92BF92AF927F9281E090919A0892301F
:1057A00009F080E08F930E94CF210F900F900F900F
:1057B0000F900F900F907CCF8091910810929108DC
:1057C000882301F30E943A22809190088823D1F225
:1057D00081CF80919108109291088823F1F0609117
:1057E0009E088FEF0F940929809190088823A9F0D3
:1057F00071CFC33009F05CCFF8018591949110927C
:10580000AA089093AE088093AD081092AC0810924D
:10581000AB0880919A088330E1F28091620288237C
:1058200009F446CF1F92FF92EF92DF9381E09091AF
:105830009A08933009F080CF8F930E94CF210F9068
:105840000F900F900F900F9033CFBF92CF92DF92B7
:10585000EF92FF920F931F93CF93DF9361E081E06C
:10586000E8DDC0919B0885E0E82EEC0E91EDC92E95
:105870009EE0D92ED4E0DC1B13E01C1B02E00C1BC5
:1058800081E0F82EFC1ABC2EB194C1112FC080917A
:105890009A088823B1F080916202882359F081E050
:1058A00090919A08911180E024E049EE5EE06B2D22
:1058B0000F946E19CF5FEC12E8CF85E080938F08CC
:1058C0000BC08091910810929108882321F382DE09
:1058D000809190088823F9F2DF91CF911F910F9169
:1058E000FF90EF90DF90CF90BF900895C13009F501
:1058F00080919A08813079F0809162028823D1F2F8
:1059000081E090919A08913009F080E023E044E82A
:1059100055E36F2DCDCF8091910810929108882387
:1059200059F386E09DE232DD80919008882321F3CF
:10593000D3CFC23009F053C080919A08823081F0F1
:1059400080916202882309F4B5CF81E090919A0892
:10595000923009F080E023E042EE5EE0602FA8CFB5
:105960008091910810929108882351F384E09EE27F
:105970000DDD80919008882319F3AECF80919A08AD
:10598000833081F080916202882309F493CF81E013
:1059900090919A08933009F080E023E045ED5EE0B5
:1059A000612F86CF8091910810929108882351F33E
:1059B00080EA9BE5EBDC80919008882319F38CCF7B
:1059C0008091910810929108882391F0D092290833
:1059D000C092280880919008882351F07DCFC33071
:1059E00069F2C43009F066CF90919A08943041F37F
:1059F00080916202882309F45DCF81E0943009F040
:105A000080E020E240EC5EE06D2F52CFBF92CF925B
:105A1000DF92EF92FF920F931F93CF93DF9361E09A
:105A200081E007DDC0919B0885E0E82EEC0ED4E014
:105A3000DC1B01E092E0F92E13E01C1BDF2CDC1ACA
:105A4000C02ECC1ABC2EB194C1112FC080919A08DF
:105A50008823B1F080916202882359F081E090910F
:105A60009A08911180E024E049EB5EE06B2D0F94E1
:105A70006E19CF5FEC12E8CF85E080938F080BC0E2
:105A80008091910810929108882321F3A3DD8091E1
:105A900090088823F9F2DF91CF911F910F91FF9029
:105AA000EF90DF90CF90BF900895C13059F51092DC
:105AB000AA081092AE081092AD081092AC0810928D
:105AC000AB0880919A08813079F080916202882336
:105AD00081F281E090919A08913009F080E023E012
