:100000000C94D01C0C94101D0C94101D0C94101DFD
:100010000C94101D0C94101D0C94101D0C94101DAC
:100020000C94101D0C94101D0C94101D0C94101D9C
:100030000C94101D0D94B32C0C94101D0C94101DD9
:100040000C94101D0C942ED60C94101D0C94101DA5
:100050000C94101D0C942AD10C94101D0D94692C35
:100060000C94101D0C9445950C943B950C94101D0C
:100070000C94101D0C94101D0C94101D0C94101D4C
:100080000C946D800C94101D0C94101D0C94101D7C
:100090000C94101D0C94101D0C94101D0C94101D2C
:1000A0000C94101D0C94101D0C943F800C94101D8A
:1000B0000C94101D0C94101D0C94101D0C94101D0C
:1000C0000C94101D0C94101D0C94101D0C94101DFC
:1000D0000C94101D0C94101D0C94101D0C94101DEC
:1000E0000C94101D084AD73B3BCE016E84BCBFFD6B
:1000F000C12F3D6C74319ABD56833DDA3D00C77FF8
:1001000011BED9E4BB4C3E916BAAAABE0000008090
:100110003F05A84CCDB2D44EB93836A9020C50B91F
:10012000918688083CA6AAAA2ABE000000803F004B
:100130000D9433030D94C6240D9491240D94AF2493
:100140000D9435350D94D0240D948C240D945E358A
:100150000D94AB240D941F390D94DE240D94B82416
:100160000D9477380D94CA240D94C2240D94E22482
:100170000D94D4240D94BC240D94B2240D945638BF
:100180000D9468380D94D8240D94A7240D94FA3753
:100190000D9460030D94A3244E414E494E49545989
:1001A000494E46CDCCCC3D0AD7233C17B7D1387742
:1001B000CC2B329595E6241FB14F0A000020410058
:1001C00000C84200401C4620BCBE4CCA1B0E5AAEA2
:1001D000C59D7400407A10F35A00A0724E180900B1
:1001E00010A5D4E80000E87648170000E40B54029C
:1001F0000000CA9A3B000000E1F5050000809698D7
:1002000000000040420F000000A086010000001026
:100210002700000000E80300000000640000000068
:10022000000A00000000000100000000002C76D849
:1002300088DC674F0823DFC1DFAE59E1B1B796E52F
:10024000E3E453C63AE651997696E8E6C28426EB93
:10025000898C9B62ED407C6FFCEFBC9C9F40F2BAA6
:10026000A56FA5F490055A2AF75C936B6CF9676D3E
:10027000C11BFCE0E40D47FEF520E6B500D0ED9093
:100280002E0300943577050080841E080000204E60
:100290000A000000C80C333333330F986E128311F9
:1002A00041EF8D2114893BE65516CFFEE6DB18D1D0
:1002B000844B381BF77C1D901DA4BBE424203284A2
:1002C000725E228100C9F124ECA1E53D27554E4C18
:1002D0004F41442046494C414D454E54004C4F41FE
:1002E000442046494C414D454E540046494C414DF1
:1002F000454E54204348414E4745004E796C6F6E41
:1003000000504554470041425300504C4100457253
:10031000723A207574663820666F6E74206E6F7442
:1003200020696E697469616C697A65642E002000C9
:10033000200020003A003A002568753A25303268DE
:10034000750025303268753A2530326875002530E1
:100350003268752725303268750025687564202558
:10036000303268753A253032687500FFE0FFD140C1
:10037000A0C8A6A22FF80023AC00AF10FFFEFF0517
:10038000FFD0FFE0FFC1FFD1E240A0C8A6A22FF836
:1003900000238127AC00AFFFD0FF64FFD1A5FFD0C1
:1003A000FF64FF64FFD1A4FFD0FF16FFFE42656427
:1003B00000456E636C6F7375726500450020002008
:1003C00000200020002000250020202020202020C8
:1003D000002020202000657272001FE020102010F5
:1003E00020101020102020102010303008400480F1
:1003F00003001FE03FF03FF03FF01FE01FE03FF041
:100400003FF03FF00FC0078003003FFFF03800705F
:1004100030FC3020FC102078102030102C00D02E22
:1004200031D02F7BD02F7BD02E31D02C00D020305C
:100430001020781020FC1030FC303800703FFFF0A6
:100440003FFFF03800703186302387102787902FC8
:1004500087D02F03D0203010207810207810203043
:10046000102F03D02F87D027879023871031863015
:100470003800703FFFF01FFFF81FFFF80410400224
:10048000082002082004104008208010410010417C
:10049000000820800410400000001FFFF81FFFF834
:1004A0003E0FF0C18618C1860C0186040306041FA6
:1004B0000604030604018604C1860CC186183E0F9B
:1004C000F05072696E742041626F72746564004D01
:1004D000323520500A4D32340050617573696E67B1
:1004E0002E2E2E004D323400454550524F4D205691
:1004F000657273696F6E204572726F720045455068
:10050000524F4D20496E646578204572726F7200BB
:10051000454550524F4D20435243204572726F72F1
:10052000003F0049676E6F72650052657365740025
:10053000496E697469616C697A6520454550524F0E
:100540004D0050726F6265205A204F666673657465
:10055000004C6F6164206D6D00556E6C6F6164209E
:100560006D6D0046696C2E204469612E004F6666F1
:10057000004F6E004520696E206D6D5E33002008CF
:100580002046616374002008204D61780020082017
:100590004D696E004D696E2054726176656C205312
:1005A00070656564004D696E2056656C6F63697493
:1005B00079004D61782040205370656564004D617D
:1005C00078204520416363656C004D6178204020B0
:1005D000416363656C0054726176656C20416363AE
:1005E000656C005265747261637420416363656C6D
:1005F00000416363656C0050726F6265205A204F42
:1006000066667365740050726F62652059204F668C
:10061000667365740050726F62652058204F66667D
:1006200073657400402073746570732F6D6D0041A5
:100630006476616E6365642053657474696E677374
:10064000003F0043616E63656C00496E6974004D44
:1006500034323800496E697469616C697A65204585
:100660004550524F4D0046696C616D656E74005483
:10067000656D706572617475726500537465707331
:100680002F6D6D0050726F6265204F6666736574E2
:1006900073004A756E6374696F6E2044657600411D
:1006A0006363656C65726174696F6E004D6178207B
:1006B000537065656420286D6D2F73290053657430
:1006C00020486F6D65204F66667365747300436FD5
:1006D0006E66696775726174696F6E003F004E6582
:1006E000787420436F726E657200446F6E65004EC1
:1006F00065787400486F6D696E672058595A0053C9
:10070000746F72652053657474696E6773004C6F03
:1007100061642053657474696E6773004265642078
:100720005472616D6D696E670050726F6265205A18
:10073000204F66667365740046616465204865698C
:10074000676874004F6666004F6E00426564204C17
:100750006576656C696E67004C6576656C204265F0
:1007600064004732394E00473239004175746F20BA
:10077000486F6D65004D6F74696F6E0053572D4D56
:100780006F64650053746F77004465706C6F790017
:1007900053656C662D5465737400526573657400FF
:1007A000426564004E6F7A7A6C650046616E205334
:1007B0007065656400436F6E666967757261746920
:1007C0006F6E00526573746F726520446566617563
:1007D0006C7473004C6F61642053657474696E6748
:1007E000730053746F72652053657474696E677318
:1007F0000050726568656174202420436F6E660046
:100800004F6666004F6E0052756E6F7574205365AB
:100810006E736F7200424C546F7563680050726F54
:100820006265205A204F6666736574004164766184
:100830006E6365642053657474696E6773004D61FF
:10084000696E004D37303220542564004D3630300B
:1008500020423020542564004D373032203B25643F
:10086000004D37303120542564004368616E676560
:100870002046696C616D656E7400507265686561D3
:100880007420437573746F6D005072656865617490
:100890002024004261636B004D363030423000430B
:1008A0006F6E74696E7565004F6666004F6E00521C
:1008B000756E6F75742053656E736F72005075722C
:1008C0006765206D6F726500524553554D45204F49
:1008D0005054494F4E533A005052494E54205041C3
:1008E00055534544002F00200020204E6F7A7A6C2B
:1008F000653A20005061726B696E672E2E2E0000E3
:10090000005761697420666F720066696C616D657D
:100910006E74206368616E676500746F2073746124
:100920007274005761697420666F720066696C6149
:100930006D656E7420756E6C6F616400004E6F7A29
:100940007A6C652068656174696E6700506C6561DA
:10095000736520776169742E2E2E000050726573C6
:100960007320627574746F6E00746F2068656174B3
:10097000206E6F7A7A6C650000496E736572742020
:1009800066696C616D656E7400616E64207072657D
:10099000737320627574746F6E00746F20636F6E72
:1009A00074696E7565005761697420666F720066C0
:1009B000696C616D656E74206C6F616400005072CB
:1009C00065737320427574746F6E00746F20726566
:1009D00073756D65207072696E740000576169747B
:1009E00020666F72207072696E7400746F20726579
:1009F00073756D652E2E2E0000436C69636B207439
:100A00006F2066696E6973680066696C616D656EFA
:100A10007420707572676500003132300035004215
:100A200045443A204550434F53203130304B00521B
:100A3000756E617761792057617463683A204F4E13
:100A4000004D61782054656D7000323635004D6977
:100A50006E2054656D7000350045313A2045504395
:100A60004F53203130304B005053550047656E6571
:100A70007269630050726F746F636F6C00312E3057
:100A800000426175640032353030303000437265A9
:100A9000616C69747933442052414D50530042696E
:100AA0006C696E656172204C6576656C696E670075
:100AB0004578747275646572730031006D61726C93
:100AC000696E66772E6F72670043522D3130205366
:100AD0003400323032332D30312D323400627567BC
:100AE0006669782D322E312E78004D61726C696EF8
:100AF00000546865726D6973746F727300426F6140
:100B0000726420496E666F005072696E746572205F
:100B1000496E666F004D61696E0056696F6C657451
:100B200000496E6469676F00426C756500477265C5
:100B3000656E0059656C6C6F77004F72616E67650A
:100B4000005265640057686974650042726967689D
:100B5000746E65737300426C756520496E74656EC2
:100B60007369747900477265656E20496E74656EAD
:100B7000736974790052656420496E74656E736997
:100B80007479004C454420436F6E74726F6C00435F
:100B90007573746F6D204C6967687473004C696776
:100BA000687420507265736574730044656661757E
:100BB0006C74004F6666004F6E004C696768747312
:100BC000004D61696E003F004261636B0053746FBA
:100BD00070003F004E4F00594553004368616E67F7
:100BE000652046696C616D656E74004E6F204D65C1
:100BF000646961005072696E742066726F6D204D79
:100C000065646961004368616E6765204D6564696C
:100C100061004D3231004C69676874730041626F46
:100C20007574205072696E74657200436F6E6669E8
:100C30006775726174696F6E0054656D706572617D
:100C400074757265004D6F74696F6E0052657375CF
:100C50006D65205072696E740054756E6500537432
:100C60006F70205072696E7400506175736520500A
:100C700072696E7400496E666F2053637265656EAB
:100C8000003F005374617274205072696E740043A7
:100C9000616E63656C005072696E740043616E6EC4
:100CA0006F7420656E746572207375626469723A40
:100CB000200002202E2E004D61696E002100486F39
:100CC00074656E6420746F6F20636F6C64004261A2
:100CD000636B0050726F63656564004D6F766520CD
:100CE0004578747275646572004732385A0047322D
:100CF000385900486F6D6520400047323858004130
:100D000075746F20486F6D6500473238004D6F7401
:100D1000696F6E0044697361626C6520537465701D
:100D200070657273004D383400426564204C6576FE
:100D3000656C696E670053746F77205A2D50726F1F
:100D40006265004D343032004465706C6F79205A12
:100D50002D50726F6265004D34303100486F6D69FF
:100D60006E67004D61696E00507265686561742040
:100D700024204265640050726568656174202420F7
:100D8000456E640054656D706572617475726500BE
:100D90000A0306030103FB02436F6F6C646F776EF7
:100DA000005072656865617420240046616E2053AE
:100DB0007065656400426564004E6F7A7A6C650008
:100DC0004D61696E0050726F6265205A204F6666F1
:100DD00073657400466C6F770046616E20537065D2
:100DE000656400426564004E6F7A7A6C65005370EA
:100DF000656564004D61696E00000C0F00FE07021E
:100E00002503BB017FFE08FE08FE0508080600005A
:100E100040F0C88888987810050808060000C0F8D7
:100E20008888888888F80505050600012030F83094
:100E3000200508080600002070F820202020E0058A
:100E400009090600FF2070A8A8B888887020070547
:100E500005070001D86C366CD80509090600FFF8B3
:100E6000A88888888888A8F8050A0A0600FE205005
:100E700050505088A8A8887003030306000340A0C0
:100E800040FFFFFFFFFFFFFFFFFFFFFFFFFFFFFF31
:100E9000FFFFFFFFFFFFFF0000000605FF01070740
:100EA0000602008080808080008003030306010525
:100EB000A0A0A005060606000050F85050F8500506
:100EC00009090600FF2070A8A07028A87020050757
:100ED00007060000C8C810204098980507070600BC
:100EE0000040A0A040A8906801030306020580808E
:100EF000800309090601FF20404080808040402097
:100F00000309090601FF8040402020204040800561
:100F1000070706000020A8702070A8200505050618
:100F200000012020F820200203030601FFC04080BA
:100F3000050101060003F8020202060100C0C00517
:100F4000070706000008101020404080050707062C
:100F50000000708898A8C888700307070601004041
:100F6000C040404040E005070706000070880810B8
:100F70002040F8050707060000F8081030088870C0
:100F800005070706000010305090F81010050707FD
:100F9000060000F880F008088870050707060000C2
:100FA000304080F0888870050707060000F80810B8
:100FB00010202020050707060000708888708888A8
:100FC0007005070706000070888878081060020521
:100FD00005060100C0C000C0C00206060601FFC031
:100FE000C000C0408003050506010120408040206C
:100FF000050303060002F800F80305050601018059
:10100000402040800507070600007088102020005F
:10101000200507070600007088B8A8B8807005078B
:1010200007060000708888F888888805070706008A
:1010300000F04848704848F005070706000070882F
:101040008080808870050707060000F048484848FF
:1010500048F0050707060000F88080F08080F8055A
:101060000707060000F88080F080808005070706EB
:101070000000708880809888700507070600008847
:101080008888F8888888030707060100E040404008
:101090004040E0050707060000381010101090606F
:1010A0000507070600008890A0C0A09088050707E4
:1010B000060000808080808080F805070706000019
:1010C00088D8A8888888880507070600008888C807
:1010D000A89888880507070600007088888888888F
:1010E00070050707060000F08888F08080800507FB
:1010F0000706000070888888A89068050707060022
:1011000000F08888F0A09088050707060000708826
:101110008070088870050707060000F8202020204E
:1011200020200507070600008888888888887005C1
:1011300007070600008888888850502005070706A2
:10114000000088888888A8A850050707060000883E
:10115000885020508888050707060000888850209E
:10116000202020050707060000F80810204080F81E
:101170000309090601FFE080808080808080E0050F
:1011800007070600008040402010100803090906E8
:1011900001FFE020202020202020E005030306009E
:1011A000052050880501010600FEF803030306012F
:1011B0000580402005050506000070087888780540
:1011C00007070600008080F0888888F0050505067E
:1011D0000000708080887005070706000008087806
:1011E000888888780505050600007088F0807005FD
:1011F0000707060000304840E0404040050707066A
:1012000000FE70888888780870050707060000804F
:1012100080F0888888880307070601004000C040E6
:101220004040E00409090601FE10003010101010C3
:10123000906005070706000080808890E090880392
:101240000707060100C04040404040E00505050694
:101250000000D0A8A8A8A8050505060000B0C88809
:1012600088880505050600007088888870050707CE
:101270000600FEF0888888F080800507070600FEDB
:1012800078888888780808050505060000B0C880B9
:10129000808005050506000078807008F0050707C6
:1012A0000600002020F82020201805050506000073
:1012B0008888889868050505060000888888502079
:1012C0000505050600008888A8A850050505060044
:1012D0000088502050880507070600FE888888503F
:1012E000204080050505060000F8102040F803099D
:1012F000090601FF2040404080404040200109098C
:101300000602FF808080808080808080030909063B
:1013100001FF80404040204040408005030306001C
:101320000248A890FF434F4D4D554E494341544903
:101330004F4E0044525952554E004552524F52534F
:1013400000494E464F004543484F0053544F5050BC
:1013500045442E20005072696E7465722073746F5C
:10136000707065642064756520746F206572726F9B
:1013700072732E2046697820746865206572726FDA
:101380007220616E6420757365204D39393920747F
:101390006F20726573746172742E202854656D70AD
:1013A0006572617475726520697320726573657406
:1013B0002E205365742069742061667465722072F2
:1013C000657374617274696E67290A004E6F2043F9
:1013D0006865636B73756D2077697468206C696EDE
:1013E00065206E756D6265722C204C617374204CA3
:1013F000696E653A20004E6F20436865636B7375B4
:101400006D2077697468206C696E65206E756D62F9
:1014100065722C204C617374204C696E653A200013
:10142000636865636B73756D206D69736D6174635B
:10143000682C204C617374204C696E653A20004C16
:10144000696E65204E756D626572206973206E6FDE
:1014500074204C617374204C696E65204E756D620A
:1014600065722B312C204C617374204C696E653A87
:1014700020004D3131300053657269616C20737406
:1014800061747573206D69736D617463680A0053CC
:10149000442072656164206572726F720A004B4964
:1014A0004C4C20627574746F6E2F70696E0A002147
:1014B00021204B494C4C206361757365642062792F
:1014C0002000746F6F206D75636820696E616374AE
:1014D0006976652074696D65202D2063757272656B
:1014E0006E7420636F6D6D616E643A20002121205F
:1014F0004B494C4C20636175736564206279200010
:10150000627573793A2070617573656420666F72D5
:1015100020696E7075740A00627573793A20706183
:101520007573656420666F7220757365720A006258
:101530007573793A2070726F63657373696E670AA9
:10154000004D656469612052656D6F766564004D7C
:101550006564696120496E736572746564004D3617
:10156000303000506C65617365205265736574009E
:101570005052494E5445522048414C544544002550
:10158000533A202553004B494C4C45442E200050E3
:1015900072696E7465722068616C7465642E206B6C
:1015A000696C6C28292063616C6C6564210A0000F9
:1015B0006563686F3A004572726F723A0042696CF7
:1015C000696E656172204C6576656C696E6720474F
:1015D0007269643A0A00486F74656E6420746F6FB4
:1015E00020636F6C640A0053656E64204D3130389F
:1015F00020746F20726573756D650A00496E73659E
:1016000072742066696C616D656E7420616E642011
:1016100073656E64204D3130380A0053656E642066
:101620004D31303820746F2068656174206E6F7A98
:101630007A6C650A004732362043616E63656C65DB
:1016400064004732362048656174696E67204E6FCA
:101650007A7A6C65004732362048656174696E6736
:10166000204265640057616974696E6720666F7215
:10167000206865617475702E0A004669786564207B
:101680004C656E677468205072696D6500446F6EBA
:1016900065205072696D696E67004D616E75616C91
:1016A000207072696D696E672E2E2E004C65617612
:1016B000696E6720473236003F537065636966691B
:1016C000656420582C5920636F6F7264696E617471
:1016D00065206F7574206F6620626F756E64732E5F
:1016E0000A003F28522965706561742076616C7527
:1016F00065206E6F7420706C61757369626C653BF8
:10170000206D757374206265206174206C6561734F
:101710007420312E0A003F53706563696669656401
:10172000206E6F7A7A6C652074656D706572617475
:10173000757265206E6F7420706C61757369626C70
:10174000652E0A003F5370656369666965642066AB
:10175000696C616D656E742073697A65206E6F7453
:1017600020706C61757369626C652E0A003F53705E
:1017700065636966696564207072696D65206C6572
:101780006E677468206E6F7420706C617573696227
:101790006C652E0A003F5370656369666965642055
:1017A0006E6F7A7A6C652073697A65206E6F74202B
:1017B000706C61757369626C652E0A003F526574C6
:1017C00072616374696F6E204D756C7469706C69B9
:1017D0006572206D7573742062652073706563692E
:1017E000666965642E0A003F5370656369666965C2
:1017F000642052657472616374696F6E204D756CFC
:101800007469706C696572206E6F7420706C61759C
:101810007369626C652E0A003F537065636966697F
:101820006564206C617965722068656967687420F9
:101830006E6F7420706C61757369626C652E0A003E
:1018400043292E0A003F5370656369666965642009
:101850006265642074656D7065726174757265206F
:101860006E6F7420706C61757369626C65202834CA
:10187000302D00473236207374617274696E672EA2
:101880002E2E0A004F46460A0046616465204865D0
:10189000696768742000426564204C6576656C69F0
:1018A0006E6720004661696C656420746F20656E08
:1018B00061626C6520426564204C6576656C696E7A
:1018C000670A00496E76616C6964206D6573682EE5
:1018D0000A0050726F62696E6720506F696E740003
:1018E00025532025692F2569002E0A002F005072EC
:1018F0006F62696E67206D65736820706F696E74C2
:101900002000202844525952554E29004732392090
:101910004175746F20426564204C6576656C696E14
:1019200067003F20284C2C522C462C4229206F75F2
:1019300074206F6620626F756E64732E0A003F28F4
:1019400056296572626F7365206C6576656C2069D7
:101950006D706C61757369626C652028302D342957
:101960002E0A00426164205A2076616C75650A0077
:101970004E6F2062696C696E65617220677269647E
:101980000A005A2050726F626520506173742042C1
:1019900065640A005A2050726F626520506173744A
:1019A000204265640020440020204D323030205316
:1019B00000202844697361626C6564293A004669B5
:1019C0006C616D656E742073657474696E67730005
:1019D00020204D3230312058004D61782041636322
:1019E000656C65726174696F6E2028756E697473B9
:1019F0002F7332290020204D3230332058004D61A2
:101A000078206665656472617465732028756E69F7
:101A100074732F73290020520020204D323034205F
:101A20005000416363656C65726174696F6E202854
:101A3000756E6974732F7332292028503C70726957
:101A40006E742D616363656C3E20523C72657472E6
:101A50006163742D616363656C3E20543C747261F4
:101A600076656C2D616363656C3E2900204A002019
:101A7000540020530020204D323035204200416474
:101A800076616E6365642028423C6D696E5F7365A4
:101A9000676D656E745F74696D655F75733E205325
:101AA0003C6D696E5F66656564726174653E205465
:101AB0003C6D696E5F74726176656C5F66656564C6
:101AC000726174653E204A3C6A756E635F64657638
:101AD0003E290020440020490020204D3330312091
:101AE0005000486F74656E642050494400203B00EC
:101AF00020550020204D363033204C0046696C6163
:101B00006D656E74206C6F61642F756E6C6F6164AF
:101B1000003B200020496E76616C69642065787412
:101B20007275646572200047322F4733206261640A
:101B300020706172616D65746572730A00536C6523
:101B400065702E2E2E004732384C3000205A3A2035
:101B50000020593A200042656420583A20004D6523
:101B6000736820706F696E74206F7574206F6620C3
:101B700072616E67650A00436C69636B20746F2045
:101B8000526573756D652E2E2E004E6F204D6F764B
:101B9000652E00456E642066696C65206C697374FF
:101BA0000A00426567696E2066696C65206C69731E
:101BB000740A004E6F206D656469610A00286E6FBB
:101BC0002066696C65290043757272656E742066C3
:101BD000696C653A20004E6F74205344207072691E
:101BE0006E74696E670A005344207072696E74697E
:101BF0006E67206279746520002E0A0044656C656A
:101C000074696F6E206661696C65642C2046696C2E
:101C1000653A200046696C652064656C657465648E
:101C20003A002569730025696D20256973002569CF
:101C3000682025696D202569730025696420256960
:101C4000682025696D20256973002569792025693B
:101C500064202569682025696D202569730050720C
:101C6000696E742074696D653A20006F6B006F6651
:101C70006600461341133A13331325134445425566
:101C8000473A004D31313320530043522D3130203B
:101C90005334204F46462E00434F4E4649475F453A
:101CA00058504F5254004D4541545041434B00430E
:101CB0004F4F4C45525F54454D504552415455523B
:101CC00045004348414D4245525F54454D504552B1
:101CD0004154555245004241425953544550504990
:101CE0004E470041524353004D4F54494F4E5F4DB4
:101CF0004F44455300544845524D414C5F50524F5C
:101D000054454354494F4E00455854454E4445446C
:101D10005F4D323000435553544F4D5F4649524D4D
:101D2000574152455F55504C4F4144004C464E5F21
:101D30005752495445004C4F4E475F46494C454E1B
:101D4000414D45004155544F5245504F52545F53F9
:101D5000445F5354415455530053445F57524954C0
:101D60004500524550454154004D554C54495F562D
:101D70004F4C554D45005344434152440050524F3F
:101D80004D50545F535550504F525400484F535488
:101D90005F414354494F4E5F434F4D4D414E445375
:101DA00000454D455247454E43595F5041525345BA
:101DB0005200434153455F4C494748545F425249A2
:101DC0004748544E45535300544F47474C455F4C8A
:101DD000494748545300534F4654574152455F506A
:101DE0004F574552004255494C445F504552434578
:101DF0004E54004C4556454C494E475F4441544172
:101E0000005A5F50524F42450052554E4F555400B4
:101E10004155544F4C4556454C005052494E545F25
:101E20004A4F420050524F47524553530041555478
:101E30004F5245504F52545F54454D5000415554F8
:101E40004F5245504F52545F504F5300564F4C55D0
:101E50004D455452494300454550524F4D0042496B
:101E60004E4152595F46494C455F5452414E53468C
:101E700045520053455249414C5F584F4E5F584FB1
:101E80004646004649524D574152455F4E414D45E9
:101E90003A4D61726C696E206275676669782D32A1
:101EA0002E312E7820284D6172203232203230328D
:101EB000332031333A33303A31382920534F555299
:101EC00043455F434F44455F55524C3A67697468D8
:101ED00075622E636F6D2F4D61726C696E4669720B
:101EE0006D776172652F4D61726C696E2050524F33
:101EF000544F434F4C5F56455253494F4E3A312E43
:101F000030204D414348494E455F545950453A436E
:101F1000522D3130205334204558545255444552A7
:101F20005F434F554E543A3120555549443A636505
:101F30006465326132662D343161322D3437343884
:101F40002D396231322D633535633632663336379B
:101F50006666002F2F004D31343520533C696E6486
:101F600065783E206F7574206F662072616E6765BC
:101F70002028302D31290A003F4A206F7574206FC8
:101F8000662072616E67652028302E303120746FB4
:101F900020302E33290A0020580020204D61783A45
:101FA0002000200020204D696E3A2000203B2000B8
:101FB00020204D323131205300536F667420656EFE
:101FC0006473746F707300250A0046523A0020460D
:101FD0006C6F773A20003A200020536572766F20AC
:101FE00000206F7574206F662072616E67650A004D
:101FF000536572766F200042616279737465702058
:102000005A0050726F6265204F6666736574205A7D
:102010000050726F6265204F6666736574205A00C7
:1020200064697300656E0043290A0061626C65642F
:1020300020286D696E2074656D702000436F6C649C
:102040002065787472756465732061726520004F35
:102050004646004F4E0046696C616D656E74207295
:10206000756E6F757420004D34323120696E636F68
:10207000727265637420706172616D65746572203F
:1020800075736167650A004D65736820706F696ECE
:1020900074206F7574206F662072616E67650A0028
:1020A0004F666673657473204170706C6965640077
:1020B0004572723A20546F6F206661722100546F2E
:1020C0006F206661722066726F6D20726566657240
:1020D000656E636520706F696E740A0045455052E5
:1020E0004F4D204F4B0A00290A0020746F20003FFB
:1020F0005A206F7574206F662072616E67652028A4
:1021000000290A0020746F20003F59206F75742049
:102110006F662072616E676520282D00290A0020F5
:10212000746F20003F58206F7574206F66207261B5
:102130006E676520282D004D383400446F6E652091
:102140007072696E74696E672066696C650A004D0D
:102150003737004D33310020204D323036205800C3
:10216000486F6D65206F66667365740044696666C6
:102170003A2020200046726F6D5374703A005374F9
:1021800065707065723A00556E4C6576656C3A0004
:102190004C6576656C65643A005261773A20202080
:1021A00020000A4C6F676963616C3A00436F756E7B
:1021B0007420453A004361703A0020204D3235309A
:1021C0002043004C434420436F6E7472617374006B
:1021D000203B0020204D3835312058005A2D5072B8
:1021E0006F6265204F666673657400436F6F6C693C
:1021F0006E672E2E2E004531202553004265642047
:10220000436F6F6C696E672E2E2E00426564204806
:10221000656174696E672E2E2E00206661696C659B
:10222000642120426164206865617465722069647C
:102230000A00504944204175746F74756E6500231F
:10224000646566696E652044454641554C545F009F
:102250004B6420004B6920004B7020002066696EA3
:102260006973686564212050757420746865206CFA
:10227000617374204B702C204B6920616E64204B7D
:102280006420636F6E7374616E74732066726F6D19
:102290002062656C6F7720696E746F20436F6E6685
:1022A000696775726174696F6E2E680A00504944DF
:1022B000204175746F74756E6500206661696C6588
:1022C00064212074696D656F75740A00504944205B
:1022D0004175746F74756E6500206661696C656424
:1022E000212054656D706572617475726520746F1C
:1022F0006F20686967680A00504944204175746F0F
:1023000074756E6500504944204379636C657300B1
:1023100025532025692F256900204B643A20002091
:102320004B693A2000204B703A200020436C6173C7
:1023300073696320504944200A002054753A2000F4
:10234000204B753A2000206D61783A2000206D699D
:102350006E3A200020643A200020626961733A20BE
:102360000048656174696E672E2E2E0020737461BB
:1023700072740A00504944204175746F74756E651B
:1023800000206661696C6564212054656D7065721A
:10239000617475726520746F6F20686967680A00E0
:1023A000504944204175746F74756E6500504944FE
:1023B000204175746F74756E65004572723A2075B0
:1023C00074663820666F6E74206E6F7420696E6953
:1023D0007469616C697A65642E004572723A207581
:1023E00074663820666F6E74206E6F7420696E6933
:1023F0007469616C697A65642E00486F6D696E67F7
:10240000204661696C6564006F70656E00545249C6
:10241000474745524544003A200066696C616D6546
:102420006E74007A5F6D696E00795F6D696E007819
:102430005F6D696E005265706F7274696E672065BA
:102440006E6473746F70207374617475730A002006
:10245000746F6F206C6F6E67206578747275736926
:102460006F6E2070726576656E7465640A00206315
:102470006F6C6420657874727573696F6E2070720A
:102480006576656E7465640A00486F6D6520257316
:102490002046697273740000008040000000400014
:1024A0000000005761726E696E673A20486F6D696F
:1024B0006E672042756D702044697669736F722073
:1024C0003C20310A000202040000C8430000B4436B
:1024D0000000C8430000A0400000A04000000040F1
:1024E00053544F505045442E20005072696E74650D
:1024F000722073746F707065642064756520746FEA
:10250000206572726F72732E204669782074686538
:10251000206572726F7220616E6420757365204D44
:1025200039393920746F20726573746172742E208A
:102530002854656D706572617475726520697320C9
:1025400072657365742E205365742069742061660A
:102550007465722072657374617274696E67290A9A
:1025600000206572726F72202D2072657374617223
:10257000742077697468204D3939390A00424C5407
:102580006F7563680021212053544F502063616CA4
:102590006C65642062656361757365206F662000F9
:1025A0000000C8430000B4430000C843000000001E
:1025B000000000000000000053657474696E6773CA
:1025C0002053746F72656400290A00206279746573
:1025D000733B20637263200053657474696E677384
:1025E0002053746F72656420280048617264636FC1
:1025F0006465642044656661756C74205365747409
:10260000696E6773204C6F616465640020286D6D8E
:102610002900203B204C6576656C696E67200020A0
:10262000204D3432302053004175746F2042656470
:10263000204C6576656C696E670020460020480076
:1026400020204D3134352053004D6174657269612D
:102650006C2068656174757020706172616D65745D
:1026600065727300203B2053656E736F72200020EB
:10267000204D34313220530046696C616D656E74B3
:102680002072756E6F75742073656E736F720020A3
:102690004A002020473239205720490020204D3160
:1026A00034392043203B20556E69747320696E20B5
:1026B00043656C736975730A0054656D706572616A
:1026C0007475726520556E6974730020204732312D
:1026D000203B004C696E65617220556E6974730011
:1026E000454550524F4D206461746173697A65208D
:1026F0006572726F722E0A00290A00206279746571
:10270000733B2063726320002073746F72656420D2
:1027100073657474696E6773207265747269657627
:102720006564202800202863616C63756C617465A2
:102730006429210A0020213D2000454550524F4D7B
:1027400020435243206D69736D61746368202D20AE
:102750002873746F7265642920002053697A653A82
:102760002000496E6465783A20000000964300001E
:1027700096430000A040000048420000A042000034
:10278000A0420000C8430080F2432C0100002C014D
:1027900000006400000088130000204D61726C6925
:1027A0006E3D563837290A00454550524F4D207628
:1027B000657273696F6E206D69736D6174636820F3
:1027C00028454550524F4D3D0020436F756E742093
:1027D000583A004265640045310045006265640076
:1027E0002C2073797374656D2073746F70706564D9
:1027F00021204865617465725F49443A2000457242
:10280000723A204D415854454D50004D4158544561
:102810004D50207472696767657265640048656130
:1028200074696E67204661696C656400486561740F
:10283000696E67206661696C6564004D35323400ED
:102840004D3131322053687574646F776E00457274
:10285000723A204D494E54454D50004D494E544515
:102860004D502074726967676572656400202F009F
:102870002042403A0020403A0020573A0020573A80
:1028800000496E76616C6964206578747275646560
:10289000720A007C3C3E5E2B3D3F2F5B5D3B2C2A49
:1028A000225C004D6564696120496E69742046614F
:1028B000696C0053442063617264206F6B0A006F7F
:1028C00070656E526F6F74206661696C65640A0092
:1028D000766F6C756D652E696E6974206661696CC2
:1028E00065640A004E6F20534420636172640A00DD
:1028F000534420636172642072656C656173656422
:102900000A000A4D3234004D3233202573002E0A5E
:10291000006F70656E206661696C65642C20466985
:102920006C653A200046696C652073656C6563745C
:1029300065640A002053697A653A200046696C652F
:10294000206F70656E65643A2000454E44205355F3
:1029500042524F5554494E450A002220706F730071
:102960002220706172656E743A2200535542524FB4
:102970005554494E452043414C4C20746172676563
:10298000743A220053756263616C6C204F766572F5
:10299000666C6F77004578636565646564206D617A
:1029A0007820535542524F5554494E452064657026
:1029B00074683A0057726974696E6720746F206694
:1029C000696C653A2000667265736800646F696EB1
:1029D00067002066696C653A20004E6F7720002FF3
:1029E0006175746F25632E670020583A000200005D
:1029F0000000000000600000000000FC00000FF07C
:102A00000000000007E00000000001861FC01870F1
:102A10000000000000603C0C000001830C601030DE
:102A20000000000000603C0C000001830C303030DE
:102A3000000000000060000C000000030C183000D3
:102A4000000000000060003F0F3C00030C0C600120
:102A5000DF0FE0FE00601C1C061800060C0C600076
:102A6000F318318300600C0C0318001E0C0C60007E
:102A7000E030398300600C0C033000030C0C600064
:102A8000C030380F00600C0C033000018C0C60006B
:102A9000C03FF8FB00600C0C033000018C0C603070
:102AA000C030018300600C0C01F001818C0C60309F
:102AB000C030018300600C0C00E001818C183030C4
:102AC000C018318300600C0C40E001838C3018602A
:102AD000C00C6187C0E01C0CC06000C30C600FC359
:102AE000F007C0FFC7FC7F0781C0007E1FC0000049
:102AF00000000000000000000700000000000000CF
:102B000000000000000000000700000000006D61F0
:102B1000726C696E66772E6F7267006275676669A0
:102B2000782D322E312E78001FFFFFFFFFFFFF6050
:102B30000000000001FF400000000000FF800000D6
:102B40000000007F83CF00000C303F87FF80000C27
:102B5000301F867980000C000F8C30C7838C30E7E3
:102B60008C30CFC7CC31F38C30DCECEC33B98C300B
:102B7000D86C6C33198C30D06C0C33198C30D86C09
:102B80000C33198C30DC6C0E3B198C30CF7C079FDA
:102B9000198C30C77C038F194000000000000260D0
:102BA0000000000000061FFFFFFFFFFFF870012C70
:102BB0000190012701B0012201C0011D01F001189F
:102BC000011002130130020E01600209019002049B
:102BD00001C002FF000003FA004003F5008003F08B
:102BE00000D003EB002004E6007004E100E004DC08
:102BF000004005D700C005D2004006CD00D006C871
:102C0000008007C3003008BE00F008B900C009B456
:102C100000B00AAF00B00BAA00D00CA500000EA0B7
:102C200000500F9B00C01096005012910000148CB1
:102C300000C0158700B0178200B0197D00D01B7846
:102C400000001E730040206E0090226900F0246492
:102C50000040275F0090295A00E02B5500102E50AD
:102C60000020304B0010324600E033410090353CEC
:102C7000001037370070383200A0392D00B03A28E4
:102C800000A03B2300603C1E00103D1900903D1445
:102C900000103E0F00703E0A00C03E0500003F00DD
:102CA00000403FFBFF803FF6FFC03FF1FF20205078
:102CB0006C616E6E657242756666657242797465A6
:102CC000733A20002046726565204D656D6F7279FC
:102CD0003A200020436F6D70696C65643A204D6145
:102CE0007220323220323032330A00204C61737449
:102CF00020557064617465643A20323032332D306F
:102D0000312D3234207C20417574686F723A20284E
:102D1000436F6F6C5A65726F4E4C2C206465666110
:102D2000756C7420636F6E666967290A004D617265
:102D30006C696E206275676669782D322E312E7847
:102D40000A0020536F66747761726520526573655F
:102D5000740A00205761746368646F67205265735A
:102D600065740A002042726F776E206F757420526E
:102D7000657365740A002045787465726E616C2015
:102D800052657365740A00506F77657255700A005A
:102D900073746172740A00473237004D313030313C
:102DA000006572726F722077726974696E67207441
:102DB0006F2066696C650A00446F6E6520736176EA
:102DC000696E672066696C652E0A004D32390045D0
:102DD0006E6473746F707300255320256320256320
:102DE00020256320256300205A3A0020593A00200C
:102DF000583A00656E6473746F7073206869743A32
:102E0000200000002100240027002A002D003000AF
:102E1000330001010000040107010A0100000A0B50
:102E200002090C0D0E080703040100000000000059
:102E30000000000000000000000000000000000092
:102E4000000000000000000012111000000000004F
:102E50000000000000000000000000000000000072
:102E60000000000000000000000000000000000062
:102E7000000024F404D9201BC40C5C0E9804C4097F
:102E80005F0265077101F405F900FB04B300480413
:102E90008700C10369005803550003034500BE02C3
:102EA0003A008402310053022A002902250004025C
:102EB0002000E4011C00C8011900AF0117009801AF
:102EC0001400840113007101100061011000510110
:102ED0000E0043010D0036010B002B010B002001F9
:102EE0000B00150109000C01090003010800FB009B
:102EF0000800F3000800EB000700E4000600DE0015
:102F00000600D8000600D2000600CC000500C7006D
:102F10000500C2000500BD000400B9000400B500B2
:102F20000400B1000400AD000400A9000400A500E5
:102F30000300A20003009F0004009B000300980010
:102F400003009500020093000300900003008D0031
:102F500002008B000300880002008600020084004B
:102F60000300810002007F0002007D0002007B0060
:102F70000200790002007700010076000200740070
:102F8000020072000100710002006F0002006D007B
:102F900001006C0002006A00010069000200670085
:102FA000010066000100650001006400020062008B
:102FB000010061000100600001005F0002005D008F
:102FC00001005C0001005B0001005A000100590093
:102FD0000100580001005700010056000100550093
:102FE0000100540001005300000053000100520092
:102FF000010051000100500001004F0001004E008F
:1030000000004E0001004D0001004C0001004B008B
:1030100000004B0001004A00010049000100480087
:103020000000480001004700010046000000460083
:10303000010045000000450001004400010043007C
:103040000000430001004200000042000100410076
:10305000000041000100400001003F0000003F006F
:1030600001003E0000003E0001003D0000003D0068
:1030700001003C0000003C0000003C0001003B005F
:1030800000003B0001003A0000003A000100390056
:10309000000039000100380000003800000038004E
:1030A0000100370000003700010036000000360044
:1030B000000036000100350000003500000035003A
:1030C000010034000000340000003400010033002F
:1030D0000000330000003300010032000000320025
:1030E000000032000100310000003100000031001A
:1030F00001003000000030000000300001002F000F
:1031000000002F0000002F0000002F0001002E0003
:1031100000002E0000002E0001002D0000002D00F8
:1031200000002D0000002D0001002C0000002C00EC
:1031300000002C0000002C0001002B0000002B00E0
:1031400000002B0000002B0001002A0000002A00D4
:1031500000002A0000002A000100290000002900C8
:1031600000002900000029000000290001002800BB
:1031700000002800000028000000280000002800AF
:1031800001002700000027000000270000002700A2
:103190000000270001002600000026000000260095
:1031A0000000260000002600010025000000250088
:1031B000000025000000250000002500000025007B
:1031C000010024000000240000002400000024006E
:1031D0000000240001002300000023000000230061
:1031E0000000230000002300000023000000230053
:1031F0000100220000002200000022000000220046
:103200000000220000002200010021000000210037
:10321000000021000000210000002100000021002A
:10322000000021000100200000002000000020001C
:10323000000020000000200000002000000020000E
:103240000000200001001F0000001F0000001F0000
:1032500000001F0000001F0000001F0000001F00F2
:1032600001001E0000001E0000001E0000001E00E5
:10327000000024F4D43050C38E20C2A24017828BA9
:103280007011127A910D816CD90AA861E108C758B2
:103290006607615143061E4B5D05C145A7041A41EF
:1032A0001104093D9803713931034036DB0265335F
:1032B0009102D4305402802E1D02632CEE01752A37
:1032C000C501B028A001102781018F2564012B249E
:1032D0004B01E0223401AC211F018D200D01801F24
:1032E000FC00841EED00971DDF00B81CD200E61B19
:1032F000C600201BBC00641AB200B219A8000A194B
:10330000A0006A189900D117910040178B00B516DC
:10331000840031167E00B31579003A157300C71486
:103320006F0058146A00EE136600881363002513BB
:103330005E00C7125B006C12570015125400C111D9
:10334000510070114F0021114B00D61049008D1013
:1033500047004610440002104200C00F4000800F9A
:103360003E00420F3C00060F3B00CB0E3800930E90
:1033700037005C0E3500270E3400F30D3200C10D0E
:103380003100900D3000600D2E00320D2D00050D26
:103390002C00D90C2B00AE0C2900850C29005C0CEC
:1033A0002700350C27000E0C2600E80B2400C40B68
:1033B0002400A00B23007D0B23005A0B2100390BA6
:1033C0002100180B2000F80A1F00D90A1E00BB0AB2
:1033D0001E009D0A1D00800A1D00630A1C00470A8A
:1033E0001B002C0A1B00110A1A00F7091A00DD093C
:1033F0001900C4091900AB091900920917007B09CB
:103400001800630917004C09160036091600200938
:1034100016000A091500F5081500E0081400CC088C
:103420001400B8081400A4081400900813007D08C4
:1034300012006B08130058081200460812003408E6
:103440001100230811001208110001081100F007F3
:103450001000E0071000D0071000C0071000B007F0
:103460000F00A107100091070E0083070F007407DB
:103470000F0065070E0057070E0049070E003B07B7
:103480000D002E070E0020070D0013070D00060784
:103490000D00F9060C00ED060D00E0060C00D40648
:1034A0000C00C8060C00BC060C00B0060C00A406FC
:1034B0000B0099060C008D060B0082060B007706A8
:1034C0000B006C060B0061060A0057060B004C0649
:1034D0000A0042060A0038060A002E060A002406E0
:1034E0000A001A060A001006090007060A00FD0570
:1034F0000900F4050900EB050900E2050900D905FA
:103500000900D0050900C7050900BE050900B50579
:103510000800AD050800A50509009C0508009405F4
:1035200008008C050800840508007C050800740567
:1035300008006C050700650508005D0507005605D5
:1035400008004E050700470507004005080038053C
:103550000700310507002A050700230507001C05A1
:103560000600160507000F050700080506000205FE
:103570000700FB040600F5040700EE040600E8045B
:103580000600E2040700DB040600D5040600CF04B1
:103590000600C9040600C3040600BD040600B70403
:1035A0000600B1040500AC040600A6040600A00451
:1035B00005009B04060095040500900406008A049B
:1035C000050085040500800406007A0405007504E2
:1035D0000500700405006B04050066040500610425
:1035E00005005C04050057040500520405004D0465
:1035F000050048040500430405003E0404003A04A5
:10360000050035040500300404002C0405002704DF
:103610000400230405001E0404001A040400160418
:103620000500110404000D0404000904050004044D
:10363000040000040400FC030400F8030400F40385
:103640000400F0030400EC030400E8030400E403B6
:103650000400E0030400DC030400D8030400D403E6
:103660000400D0030400CC030400C8030300C50316
:1036700003003A2E00007B1D0000181100004A09CB
:103680000000DB0400007C02000041010000A100FA
:1036900000004D6F766520246D6D00302E30323580
:1036A000004D6F766520302E316D6D004D6F766563
:1036B00020316D6D004D6F76652031306D6D004DA0
:1036C0006F76652041786973004D6F7665202A001A
:1036D0004D6F766520400020005072696E74206640
:1036E000726F6D204D656469610020002000457295
:1036F000726F722077726974696E6720746F2045EB
:103700004550524F4D210A00DB0FC93F45BCDA3FFF
:103710008FB30240FCF0274056946140FE4B9B4023
:1037200084A5D840E0231841346A5641E8599741AE
:1037300064DBD5416E271742B4B75542CE1A974283
:10374000C8AED542B5885A43D40684BFA65FA7BF8A
:103750007443E0BF10B11AC01C2C58C0E8F697C0E3
:10376000B849D6C04E4E17C124D355C1802497C145
:10377000A0B5D5C1121A17C244AE55C2781797C268
:103780006CACD5C267885AC320746F6F206C6F6EA3
:103790006720657874727573696F6E2070726576D4
:1037A000656E7465640A0020636F6C6420657874CC
:1037B000727573696F6E2070726576656E7465647C
:1037C0000A00544845524D414C2052554E415741F4
:1037D0005900546865726D616C2052756E61776135
:1037E0007900496E736572742066696C616D656EEF
:1037F0007420616E642073656E64204D3130380A28
:103800000050726F62696E67204661696C65640A78
:103810000050726F62696E67204661696C65640072
:10382000205A3A200020593A200042656420583A34
:103830002000FFFFFF43616E6E6F74206F70656E36
:10384000207375626469722000E929983894389071
:1038500038204500205A0020590020204D393220C0
:10386000580053746570732070657220756E6974AA
:1038700000220A00556E6B6E6F776E20636F6D6D60
:10388000616E643A2022002042002050006F6B00DD
:1038900020453A00205A3A0020593A00583A006F21
:1038A0006B0A00526573656E643A200043522D31F5
:1038B000302053342052656164792E005072696E55
:1038C00074696E672E2E2E005072696E74205061DE
:1038D0007573656400010210202008081020401054
:1038E00020408002010201080402010102040810C4
:1038F00020408080402010080402018004020180E2
:10390000402010080402010804020101020408100A
:103910002040800102040810204080100804088024
:103920001020400440801020400480000022002528
:103930000028002B002E0031003400020100000599
:103940000108010B0105050505070508080808021F
:103950000202020A0A080804040404010101010128
:103960000101010303030303030303040707070C17
:103970000C0C0C0C0C0C0C020202020606060606CD
:103980000606060B0B0B0B0B0B0B0B07070A0A0AA1
:103990000A0A0A050505040404080800A600A00098
:1039A00011241FBECFEFD1E2DEBFCDBF00E00CBFC0
:1039B00084B78093C71614BE0FB6F894A89580916B
:1039C0006000886180936000109260000FBE13E079
:1039D000A0E0B2E0E2E4F0EA02E00BBF02C0079030
:1039E0000D92AC3EB107D9F726E1ACEEB3E001C0D1
:1039F0001D92A73CB207E1F71CE1CFECDCE100E04F
:103A000006C021970109802FFE010F94B54CCE3CD2
:103A1000D10780E00807A9F70F94FC360D941050E9
:103A20000C9400006091230270912402072E000C78
:103A3000880B990B0F94F4452AE037ED43E25CE3E1
:103A40000F9453462091410630914206409143061F
:103A5000509144060F94534660936302709364023E
:103A60008093650290936602089580910409811104
:103A700004C08091F80880932A090895CF93DF93BA
:103A8000EC01CB01BA010F94F4450F94194E6883F1
:103A9000DF91CF91089508950895CF93DF93EC01BE
:103AA000CB01BA010F94F44529EC38EC48EC5EE305
:103AB0000F94AC4D20E030E040E05FE30F94D04C39
:103AC0000F94194E6883DF91CF910895E091040916
:103AD00086E0E802F0011124EF52F74F8091F808D8
:103AE00090E0958384830895CF93DF93EC01CB011D
:103AF000BA010F94F445688379838A839B83DF91AD
:103B0000CF910895CF93DF93EC01CB01BA010F94CD
:103B1000F445688379838A839B83DF91CF910895ED
:103B20008F929F92AF92BF92CF92DF92EF92FF92CD
:103B30006B017C0120E030E0A9010F94EE4587FD88
:103B40006BC06DEB77E386E095E3A70196010F94D8
:103B5000D04C6B017C0120E030E040E251E40F9456
:103B6000534620E030E040E251E40F9453464B01CD
:103B70005C0120E030E0A901C701B6010F94EE45D9
:103B800020E030E040EA50E487FF04C020E030E06D
:103B900040EA50ECC501B4010F94D04C20E030E075
:103BA00040E251E40F94AC4D0F94144E9B018BE214
:103BB00037FF05C022273327261B370B8DE2809362
:103BC0002006C90164E670E00F94A24CCB01EAE044
:103BD000F0E0BF010F94A24C805D80932106C901E3
:103BE000BF010F94A24C282FCB01BF010F94A24C10
:103BF000805D809322068EE280932306205D2093D1
:103C0000240680E296E0FF90EF90DF90CF90BF9087
:103C1000AF909F908F9008956DEB77E386E095EBE2
:103C200094CF8F929F92AF92BF92CF92DF92EF92FA
:103C3000FF92CF936B017C0120E030E0A9010F944B
:103C4000EE4587FDD6C06DEB77E386E095E3A701EF
:103C500096010F94D04C6B017C0120E030E0A9016B
:103C60000F94EE4587FFCAC0C701B601905820E007
:103C700030E040E251E40F94534620E030E048EC5D
:103C800052E40F94534620E030E040EA50E40F94B1
:103C9000D04C20E030E040E251E40F94AC4D0F9462
:103CA000144E6B017C0160E280E4C81682E4D80601
:103CB0008FE0E806F1048CF0C701B60120E432E49D
:103CC0004FE050E00F943A4CCA01B9012AE030E0CD
:103CD00040E050E00F943A4C605D60931D0660E256
:103CE00080EAC81686E8D80681E0E806F1048CF080
:103CF000C701B60120EA36E841E050E00F943A4CA3
:103D0000CA01B9012AE030E040E050E00F943A4C9B
:103D1000605D60931E0660E280E1C81687E2D80607
:103D2000E104F1048CF0C701B60120E137E240E084
:103D300050E00F943A4CCA01B9012AE030E040E06B
:103D400050E00F943A4C605D60931F0660E288EE8D
:103D5000C81683E0D806E104F1048CF0C701B6016F
:103D600028EE33E040E050E00F943A4CCA01B9012C
:103D70002AE030E040E050E00F943A4C605D609300
:103D80002006C701B60124E630E040E050E00F9481
:103D90003A4C8AE0882E912CA12CB12CCA01B90191
:103DA000A50194010F943A4C605D609321068EE268
:103DB00080932206C701B601A50194010F943A4CE5
:103DC000C62FCA01B901A50194010F943A4C605D58
:103DD00060932306C05DC09324068DE196E0CF91E9
:103DE000FF90EF90DF90CF90BF90AF909F908F901B
:103DF00008956DEB77E386E095EB29CF20E030E086
:103E000040E251E4C701B60136CF8F929F92AF9244
:103E1000BF92CF92DF92EF92FF92CF936B017C0122
:103E200020E030E0A9010F94EE4587FD93C06DEBD3
:103E300077E386E095E3A70196010F94D04C6B01E0
:103E40007C0120E030E040E251E40F94534620E052
:103E500030E04AE754E40F9453464B015C0120E004
:103E600030E0A901C701B6010F94EE4520E030E033
:103E700040EA50E487FF04C020E030E040EA50EC24
:103E8000C501B4010F94D04C20E030E040E251E491
:103E90000F94AC4D0F94144E6B017C01C114D104EE
:103EA000E104F10409F45BC0F7FE59C0F094E0941A
:103EB000D094C094C11CD11CE11CF11C8DE28093F4
:103EC0001F06C701B60128EE33E040E050E00F9432
:103ED0003A4C8AE0882E912CA12CB12CCA01B90150
:103EE000A50194010F943A4C605D609320068EE228
:103EF00080932106C701B60124E630E040E050E09F
:103F00000F943A4CCA01B901A50194010F943A4C9F
:103F1000605D60932206C701B601A50194010F946C
:103F20003A4CC62FCA01B901A50194010F943A4C2D
:103F3000605D60932306C05DC09324068FE196E028
:103F4000CF91FF90EF90DF90CF90BF90AF909F9078
:103F50008F9008956DEB77E386E095EB6CCF80E270
:103F6000AECF8F929F92AF92BF92CF92DF92EF929D
:103F7000FF92CF936B017C0120E030E0A9010F9408
:103F8000EE4587FFA3C06DEB77E386E095EBA701D5
:103F900096010F94D04C6B017C0120E030E040E2B0
:103FA00051E40F94534620E030E048EC52E40F9483
:103FB00053464B015C0120E030E040E251ECC70188
:103FC000B6010F94EE45181654F420E030E048ECAA
:103FD00052E4C701B6010F94F74E87FD8BC020E075
:103FE00030E0A901C701B6010F94EE4587FF73C009
:103FF00060E070E080EA90ECA50194010F94D04C51
:1040000020E030E040E251E40F94AC4D0F94144EA8
:104010006B017C01F7FC64C020E137E240E050E036
:104020000F943A4CCA01B9012AE030E040E050E078
:104030000F943A4C605D60931F06C701B60128EEED
:1040400033E040E050E00F943A4C9AE0892E912CF6
:10405000A12CB12CCA01B901A50194010F943A4CCD
:10406000605D60932006C701B60124E630E040E0C1
:1040700050E00F943A4CCA01B901A50194010F9484
:104080003A4C605D609321068EE280932206C70160
:10409000B601A50194010F943A4CC62FCA01B9018B
:1040A000A50194010F943A4C605D60932306C05DB6
:1040B000C09324068FE196E0CF91FF90EF90DF90C0
:1040C000CF90BF90AF909F908F9008956DEB77E366
:1040D00086E095E35CCF60E070E080EA90E48CCF0E
:1040E000F094E094D094C094C11CD11CE11CF11C4C
:1040F0006DE2A1CF20E030E0A901C701B6010F9425
:10410000EE4587FF6AC060E070E080EA90ECA501B0
:1041100094010F94D04C20E030E040E251E40F9441
:10412000AC4D0F94144E4B015C0120E030E0A9012E
:10413000C701B6010F94F74E87FD0BC020E030E0B9
:1041400040E251E4C701B6010F94EE4560E287FDFD
:1041500013C0B7FC47C0C501B40128EE33E040E00E
:1041600050E00F943A4CCA01B9012AE030E040E037
:1041700050E00F943A4C605D60932006C501B40195
:1041800024E630E040E050E00F943A4C8AE0C82E3C
:10419000D12CE12CF12CCA01B901A70196010F9491
:1041A0003A4C605D609321068EE280932206C50141
:1041B000B401A70196010F943A4CC62FCA01B90168
:1041C000A70196010F943A4C605D60932306C05D91
:1041D000C093240680E296E06FCF60E070E080EA52
:1041E00090E495CFB094A09490948094811C911CFD
:1041F000A11CB11C6DE2C0CFCF93DF93EC01CB01CA
:10420000BA010F94F44520E030E048EC52E40F94FA
:10421000AC4D688379838A839B83DF91CF91089526
:10422000CF93DF93EC01CB01BA010F94F44520E06A
:1042300030E048EC52E40F94AC4D688379838A8374
:104240009B83DF91CF9108950F94F44520E030E0F7
:1042500048EC52E40F94AC4DE4CCCF93DF93EC01E7
:10426000CB01BA010F94F44520E030E040E251E484
:104270000F94AC4D688379838A839B83DF91CF91C0
:1042800008950F94F44520E030E040E251E40F94AB
:10429000AC4D46CCCF93DF93EC01CB01BA010F9428
:1042A000F4452AE037ED43E25DE30F94AC4D0F9403
:1042B000194E688379838A839B83DF91CF91089518
:1042C000CF93DF93EC01CB01BA010F94F4452AE0C0
:1042D00037ED43E25DE30F94AC4D688379838A83C5
:1042E0009B83DF91CF910895CF93DF93EC01CB01B6
:1042F000BA010F94F445688379838A839B83DF91A5
:10430000CF9108950F94F44520E030E048EC52E45A
:104310000F94AC4D26CECF93DF93EC01CB01BA01C5
:104320000F94F4450F94144E79836883DF91CF91F5
:104330000895CF93DF93EC01CB01BA010F94F445BC
:1043400020E030E04AE754E40F94AC4D6883798371
:104350008A839B83DF91CF9108950F94F44520E0E9
:1043600030E04AE754E40F94AC4D4FCDFC0184910A
:104370000895FC0180810895E0917C05E63028F5E0
:1043800081E08E0F80937C054091F0085091F108F8
:104390006091F2087091F3082091F5089091E90876
:1043A00080913E0939E0E39FF0011124E95CFA4F66
:1043B000A0918114B0918214B183A083428353836E
:1043C000648375832683978380870895FC01A08189
:1043D000B1811C92A281B3818C918F5F8C930280FA
:1043E000F381E02D90818CE0989F800D1124E3E80B
:1043F000F4E113AE84AF089590E080E00895CF9289
:10440000DF92EF92FF92CF93C82F0F94B3256B01E9
:104410007C0124EA30E74DE75FE360911002709180
:10442000110280911202909113020F94EE4587FDC4
:1044300018C08AEF90E0A0E0B0E08C0D9D1DAE1D8D
:10444000BF1D8093210590932205A0932305B0936F
:104450002405C0930F02CF91FF90EF90DF90CF9093
:10446000089580E090E0DC01E8CFCF92DF92EF92F8
:10447000FF920F931F930F94B3250091F8041091AE
:10448000F9042091FA043091FB046B017C01C01AFD
:10449000D10AE20AF30A9701860137FD11C0209183
:1044A000F70420952093F7046A547C4F8F4F9F4F59
:1044B0006093F8047093F9048093FA049093FB04DA
:1044C00081E09091F704911101C080E01F910F915C
:1044D000FF90EF90DF90CF900895CF93DF93CDB70B
:1044E000DEB720E2488559856F818E810F94CB20FD
:1044F000DF91CF910895CF92DF92EF92FF920F94C8
:10450000F4456B017C0120E030E0A9010F94EE45F9
:104510002DEB37E346E055E387FF04C02DEB37E38F
:1045200046E055EBC701B6010F94D04C6B017C01FE
:1045300020E030E0A9010F94EE4520E030E040E0BB
:104540005FE387FF04C020E030E040E05FEBC7019D
:10455000B6010F94D04C0F94144ECB01FF90EF9006
:10456000DF90CF900C9455F10F94F4450F94144EB6
:10457000CB010C9455F10F94F44529EC38EC48EC40
:104580005EE30F94AC4D20E030E040E05FE30F9439
:10459000D04C0F94194E862F0C94ACF16091F80812
:1045A0008FEF0D94D52F8091F808682F0D94D52F9B
:1045B0006FEF8091F8080D94D52F6EEE7AE482E0CB
:1045C0000D94A53360EF7AE481E00D94A53362EF9A
:1045D0007AE480E00D94A53360EA78E483E00D94FA
:1045E000A5338091CA148823D1F081508093CA14D6
:1045F000E3EFF4E1882351F08150990B2BE1289FE0
:10460000F001299FF00D1124E75DFA4E8BE1AEE039
:10461000B5E101900D928A95E1F70E94FFCD2091BE
:10462000CA14211105C08091D51480648093D514DB
:1046300081E090E0A0E0B0E0211103C080E090E0D4
:10464000DC018093F0089093F108A093F208B093F6
:10465000F3081092F50881E08093EA0883E08093E4
:10466000620208950F94D71510923C0910926002CF
:104670000E94167E882331F084EE94E090938208A5
:10468000809381080C944AEF8F929F92AF92BF92D1
:10469000EF92FF920F931F93CF93DF93EC018B0167
:1046A000E42EF22E80918114909182148C179D0734
:1046B000D9F11092F30322E3CD37D20709F03FC0BE
:1046C00082519B4371F40F94B3256E517B4F8F4FF2
:1046D0009F4F60937D0570937E0580937F05909337
:1046E0008005D0938214C093811430E020E00093C1
:1046F000F0081093F1082093F2083093F308E09249
:10470000F508F092E908C251DB4321F410923E090A
:1047100010927C0582E08093620281E08093EA0837
:104720001092880510928305DF91CF911F910F9110
:10473000FF90EF90BF90AF909F908F9008952BE3E4
:10474000C231D20771F68D579243D9F40F94B32535
:1047500080907D0590907E05A0907F05B0908005AB
:10476000681979098A099B0997FF0BC080910C0E83
:104770008770873031F40E94FE7DC4EFDAE4811146
:10478000B0CFC2E1DBE3ADCF20E040E070E060E01D
:104790008CEE92E279CFCF93C1E0C0933E09FC0149
:1047A00080819181A281B381809310029093110244
:1047B000A0931202B093130220E040E070E060E0AA
:1047C0008091F6089091F7085FDFC093F303CF91D3
:1047D0000895CF93DF9300D01F92CDB7DEB78DEC55
:1047E0009CECACECBCE389839A83AB83BC83CE01A5
:1047F0000196D1DF0F900F900F900F90DF91CF9126
:104800000895CF93DF9300D01F92CDB7DEB78DEC24
:104810009CECACECBDE389839A83AB83BC83CE0173
:104820000196B9DF0F900F900F900F90DF91CF910D
:104830000895CF93DF9300D01F92CDB7DEB780E00D
:1048400090E0A0E8BFE389839A83AB83BC83CE0169
:104850000196A1DF0F900F900F900F90DF91CF91F5
:104860000895CF93DF9300D01F92CDB7DEB780E0DD
:1048700090E0A0E2B1E489839A83AB83BC83CE014C
:10488000019689DF0F900F900F900F90DF91CF91DD
:10489000089520E040E070E060E082E19BE3F4CE28
:1048A00010922A090E9462D1F4CF83EF92E10E9414
:1048B0004FC4EFDF0D94D7158FE496E090938208F4
:1048C00080938108E6CF0F94F4450F94194E862FFC
:1048D0000C948AF1CF93DF9300D01F92CDB7DEB74F
:1048E0008FEF89838A838B838FE78C8360E0CE018F
:1048F00001960E9496780F900F900F900F90DF9185
:10490000CF910895CF93DF9300D01F92CDB7DEB73C
:104910008FEF89831A821B828FE78C8360E0CE0140
:1049200001960E9496780F900F900F900F90DF9154
:10493000CF910895CF93DF9300D01F92CDB7DEB70C
:104940008FEF898389E18A831B828FE78C8360E004
:10495000CE0101960E9496780F900F900F900F90C5
:10496000DF91CF910895CF93DF9300D01F92CDB701
:10497000DEB78FEF89838BE48A831B828FE78C837A
:1049800060E0CE0101960E9496780F900F900F90F4
:104990000F90DF91CF910895CF93DF9300D01F92B6
:1049A000CDB7DEB719821A828FEF8B838FE78C83A6
:1049B00060E0CE0101960E9496780F900F900F90C4
:1049C0000F90DF91CF910895CF93DF9300D01F9286
:1049D000CDB7DEB719828FEF8A838B838FE78C8305
:1049E00060E0CE0101960E9496780F900F900F9094
:1049F0000F90DF91CF910895CF93DF9300D01F9256
:104A0000CDB7DEB78FEF89831A828B838FE78C83D4
:104A100060E0CE0101960E9496780F900F900F9063
:104A20000F90DF91CF9108958091DA139091DB136D
:104A30000E944778811107C088E998E09093820826
:104A400080938108089520E040E070E060E08BE012
:104A50009BE61ACECF93DF9300D01F92CDB7DEB77F
:104A600084EF91E0A0E0B0E089839A83AB83BC83BC
:104A7000BE016F5F7F4F88E70E94427F0F900F90CB
:104A80000F900F90DF91CF9108959091590681E09A
:104A900089270C94CD7981E080933E0980910C0E9A
:104AA0008770873051F010920C0E1092320689E018
:104AB0009DE09093820880938108809159068093AD
:104AC000850580E00E94CD7920E040E070E060E064
:104AD00087EE97E4D9CD61E088EF98E00C94307AC6
:104AE00080E090E0A0E8B0E480937A0290937B02AB
:104AF000A0937C02B0937D028CED92E00E943AE894
:104B000080E090E0A0EFB1E4809372029093730292
:104B1000A0937402B093750280937602909377020B
:104B2000A0937802B0937902E0918405EE0FFF0B19
:104B3000E454FD4F808191818330910549F18430A7
:104B4000910591F1029761F480E090E0A9EBB3E464
:104B50008093720290937302A0937402B0937502D3
:104B600084EC92E00E943AE810927A0210927B0262
:104B700010927C0210927D028CED92E00E943AE845
:104B8000809184058F5F8430E4F4809384050895D8
:104B900080E090E0A9EBB3E48093720290937302FB
:104BA000A0937402B093750280E090E0A5EAB3E4AC
:104BB0008093760290937702A0937802B093790263
:104BC000CFCF109284050895CF93DF9300D01F922A
:104BD000CDB7DEB70F94194E0F94F24569837A83EF
:104BE0008B839C83CE0101960E94D7EF0F900F908C
:104BF0000F900F90DF91CF9108950F94F4452AE024
:104C000037ED43E25DE30F94AC4DDECFCF92DF9200
:104C1000EF92FF92CF93DF9300D01F92CDB7DEB714
:104C20006B017C0120E030E0A9010F94EE4587FD87
:104C30001BC06DEB77E386E095E3A70196010F9427
:104C4000D04C69837A838B839C83CE0101960E942A
:104C5000D7EF0F900F900F900F90DF91CF91FF90B3
:104C6000EF90DF90CF9008956DEB77E386E095EBC2
:104C7000E4CF0F94F4452AE037ED43E25DE30F946F
:104C8000AC4DC4CF0F94F445C1CFCF92DF92EF92D9
:104C9000FF926B017C0120E030E0A9010F94EE450A
:104CA00087FD26C06DEB77E386E095E3A7019601CB
:104CB0000F94D04C6B017C0120E030E0A9010F94EF
:104CC000EE4520E030E040E05FE387FF04C020E0F5
:104CD00030E040E05FEBC701B6010F94D04C0F9479
:104CE000144ECB01FF90EF90DF90CF900C94D6F054
:104CF0006DEB77E386E095EBD9CF0F94F445C5CF04
:104D00000C9442DB0C9442DB0C94F4DA0C94F4DA4D
:104D10000C94F4DA0C94F4DAEF92FF920F931F9351
:104D2000CF93DF93EC018B017A018A859B858617EF
:104D3000970731F0888199810F947D2F1B870A870F
:104D4000B701888199810F9496212E813F81820F2E
:104D5000932F911D9F838E8390E080E0DF91CF9110
:104D60001F910F91FF90EF9008959F92AF92BF9285
:104D7000CF92DF92EF92FF920F931F93CF93DF9327
:104D8000EC018B01942EA52E8A859B8586179707AB
:104D900031F0888199810F947D2F1B870A87888540
:104DA0009985019649F5BC800A818E81080FC880DB
:104DB000D980D6015596ED91FC91C6011995B80E92
:104DC000E92CFA2C10E0F70121917F01211127C075
:104DD0008E819F81810F911D9F838E8390E080E063
:104DE000DF91CF911F910F91FF90EF90DF90CF90C7
:104DF000BF90AF909F9008950E811F81692D7A2DED
:104E0000888199810F949621800F912F911D28857B
:104E100039852817390738F681E090E0E1CF4B2D2E
:104E2000602FC6010E947CC3080F180FCCCFDF9201
:104E3000EF92FF920F931F93CF93DF93EC01D62E47
:104E40001CAD0BAD7C0184E0E80EF11CE98DFA8D00
:104E5000C7011995412F480F2D2D602FC7010E94C2
:104E60007CC39BAD890F8BAF81E090E0DF91CF9148
:104E70001F910F91FF90EF90DF900895AF92BF9236
:104E8000DF92EF92FF920F931F93CF93DF938C01EA
:104E9000EB01D42E79018FE0481709F488C0A5E111
:104EA0004A17C1F1BAE04B130EC0EC81FD8130E02E
:104EB00020E042E061E0C801199540E853E0BE01FE
:104EC000C8010E94F6C20A80DB81C02DF2E3DF1622
:104ED00009F4E4C0FD1508F493C085E1D81609F47F
:104EE000E2C0A7E1DA1609F4FCC0B4E1DB127DC030
:104EF000EE81FF818D8190E0880F991F8E0F9F1F9B
:104F000011928E179F07E1F71A82888181508B8357
:104F10001C826BC0AA80BB804BE653E0C8010E9494
:104F2000F6C2F5014481440F406BBE01C8010E94E6
:104F3000DEC241E0BE01C8010E94E6C2D50116965C
:104F40002D913C911797EC81FD8115964C9166E06F
:104F5000C801199540E0BE01C8010E94EEC24BE6AF
:104F600053E0BE01C8010E94F6C2F5014481440F1E
:104F70004F5F406BBE01C8010E94DEC241E0BE012E
:104F8000C8010E94E6C2D50115964C911597169658
:104F90002D913C91240F311DEC81FD8166E0C8010B
:104FA000199540E0BE01C8010E94EEC28CCF41E0DD
:104FB000C8010E94EEC240E0BE01C8010E94E6C2E4
:104FC00041E8BE01C8010E94DEC2F701408150E005
:104FD0005595479555954795BE01C8010E94DEC27B
:104FE00040E0BE01C8010E94EEC281E0DF91CF9196
:104FF0001F910F91FF90EF90DF90BF90AF900895B9
:10500000E6E4DE1609F47CC0F7E4DF1609F47CC0A0
:105010008BE3D812EACFD70111969C911197139682
:105020008C9138E0390F813031F0833011F0392F15
:1050300002C0392F985021E04B81491708F420E035
:1050400041E0391708F040E091E05A81351708F443
:1050500090E0322F342B932311F4242331F2F70103
:10506000128100E0D12C843048F490E0FC01E85536
:10507000FD4FD0808C559D4FDC010C9117FF04C073
:10508000B701CE010F94522DF70180818D0D8083E1
:105090008181800F8183110F89F7A7CFB701CE01DE
:1050A0000F94522DA2CF88819A81980F9A832981DB
:1050B000921770F59C819F5F9C839B81890F82175B
:1050C00010F08FEF820F8B83EE81FF818D8190E056
:1050D000880F991F8E0F9F1F11928E179F07E1F760
:1050E00084CFD7011C928A8111968C9311978D8160
:1050F000815012968C9312978B8113968C9375CF57
:105100008D81F701808371CF8981D7018C936DCF19
:1051100080E06CCF2F923F924F925F926F927F927E
:105120008F929F92AF92BF92CF92DF92EF92FF92B7
:105130000F931F93CF93DF93CDB7DEB72D970FB6A5
:10514000F894DEBF0FBECDBF80914213813031F0A5
:105150008091D51482FF6EC087FD6CC00E94FDEE69
:105160004B015C0145E050E060E270E081E095E0D9
:105170000F94BC4F85E48093FF048AE3809300057D
:10518000C501B40120E13EE040E050E00F94184C2E
:10519000D22EC32E022F132F8CE3282E312C412C1C
:1051A000512CC501B401A20191010F94184C762E27
:1051B000672ECA01B901A20191010F94184C9E01FA
:1051C0002F5F3F4F790130E8831631E5930631E0D8
:1051D000A306B10408F447C07F936F93C80168E148
:1051E00070E00F948E4C9F938F93C501B40120E81B
:1051F00031E541E050E00F94184C3F932F938AE53E
:1052000093E09F938F93FF92EF920F948745C7018E
:105210000F943D450FB6F894DEBF0FBECDBF2CE016
:1052200030E0A901481B5109CA01B70181509B4FC9
:105230000F94E14F2D960FB6F894DEBF0FBECDBF91
:10524000DF91CF911F910F91FF90EF90DF90CF9062
:10525000BF90AF909F908F907F906F905F904F9096
:105260003F902F9008950115110599F46F927F9248
:105270007F936F938EE493E09F938F93FF92EF92CF
:105280000F9487450FB6F894DEBF0FBECDBF85E003
:10529000C6CF0436110538F47F936F93CF92DF9217
:1052A00082E493E0E9CF7F936F93CF92DF9288E31C
:1052B00093E09F938F93FF92EF920F9487450FB6E1
:1052C000F894DEBF0FBECDBF86E0A9CFCF93C091CB
:1052D0000D05CC23B1F04CE050E060E270E08FEFC0
:1052E00094E00F94BC4F8C2F0E948AF1FC0193E054
:1052F000A3E0B5E001900D929A95E1F785E28093E5
:105300000605CF9108950E94AEDA882339F020E097
:1053100040E070E060E08EEC99E3B6C935CA0F93C7
:105320001F93CF93DF938C01EB0190916F14209129
:105330007014921305C00E94D4F90E9487F3F5CF30
:1053400080916E1434E0839FF0011124EF58FB4EDE
:1053500011830083D383C2839F5F90936F148F5F09
:10536000281739F080936E14DF91CF911F910F9120
:10537000089510926E14F8CF63E972E084E690E02D
:10538000CEDF70E060E08AE090E0C9DF6AEB72E0B7
:1053900084E690E0C4CF0E94D8ECEECF8111ECCF30
:1053A00068E270E080E991E0BACF0E940DD8F6CFB4
:1053B0000F94E602F3CFCF930E94D8EC0E940DD851
:1053C000C82F882319F080E00E9405D78C2FE6DFD4
:1053D000CF915FCACF93DF93C091DA13D091DB13E3
:1053E000209729F16091D6137091D7138091D8132B
:1053F0009091D9130F94144E6E5F7F4F24976C17C2
:105400007D07ACF470932407609323070F94B325B2
:10541000605C73468F4F9F4F6093250770932607FC
:105420008093270790932807DF91CF9108951092DA
:105430002507109226071092270710922807F4CF0D
:10544000C9CFCF93DF93EC010E94BC2120E040E064
:1054500070E060E0CE01DF91CF9116C961116093D9
:105460006702409340098C3008F037C0E82F880F5E
:10547000FF0B8827E15CF54D8F4F0D94B54C6E2ADC
:105480004B2A552A712A582A5B2A5E2A6A2A612ADF
:105490006D2A642A672A8CEC97E421E020933E0968
:1054A00020E040E070E060E0EFC882ED97E4F5CFE7
:1054B00085ED97E4F2CF88ED97E4EFCF8BED97E49D
:1054C000ECCF8EED97E4E9CF81EE97E4E6CF84EE62
:1054D00097E4E3CF8CE192E5E0CFDBC989EC97E478
:1054E000DCCF8FEC97E4D9CF282F10920009809160
:1054F000F0089091F108A091F208B091F308B7FF7D
:1055000008C01092F0081092F1081092F208109260
:10551000F30880918B05882331F08091F008809307
:10552000F4081092EA088091E9081816FCF4082E95
:10553000000C990B821B91092091F408022E000C9B
:10554000330B2817390794F097FF02C090E080E0F2
:105550008093F408092E000CAA0BBB0B8093F00873
:105560009093F108A093F208B093F3088091F408A7
:105570006623A9F09091F508891714F48093F50833
:105580002091F508022E000C330B2C5F3F4F482F63
:10559000082E000C550B241735071CF484508093FB
:1055A000F50808952F923F924F925F926F927F92EB
:1055B0008F929F92AF92BF92CF92DF92EF92FF9223
:1055C0000F931F93CF93DF9300D000D0CDB7DEB7FA
:1055D0001C017A8369832B833C834D835E8327017F
:1055E000380181E08093EA080E94BC2183E0809327
:1055F000620230927B0520927A0589819A8190938C
:105600007905809378058B819C81AD81BE818093E3
:10561000740590937505A0937605B0937705409235
:105620007005509271056092720570927305F12CAD
:10563000E12CC092F008D092F108E092F208F092CA
:10564000F308B0928214A092811490926F05809218
:105650006E058C8D80936D0526960FB6F894DEBF8F
:105660000FBECDBFDF91CF911F910F91FF90EF90B3
:10567000DF90CF90BF90AF909F908F907F906F9072
:105680005F904F903F902F900895CF93DF93C091FC
:105690007C05CC23B9F0C150C0937C0589E0C89F3C
:1056A000E0011124C95CDA4F6A817B812F814E8130
:1056B000888199810E944423888580933E09DF91E7
:1056C000CF910895DF91CF91E4C84F925F926F928E
:1056D0007F928F929F92AF92BF92CF92DF92EF9282
:1056E000FF920F931F93CF93DF930091F80861E02F
:1056F00081E0FADEC091F50810E0000F111F00579D
:10570000124F95E0592E5C0E28E6E22E2DE0F22E87
:10571000D3E0DC1B38EDC32E32E2D32E46E7A42EB5
:105720004DE0B42E82E0782E7C1A51EA852E5DE0A1
:10573000952E81E0682E6C1A4C2E4194C11136C012
:105740008091F4088823B1F080916202882359F097
:1057500081E09091F408911180E024E044E85DE05C
:10576000642D0F94CB20CF5FC511E8CF84E08093E8
:10577000E9080BC08091EB081092EB08882321F315
:1057800084DF8091EA088823F9F2DF91CF911F919D
:105790000F91FF90EF90DF90CF90BF90AF909F90D0
:1057A0008F907F906F905F904F900895C13089F5F2
:1057B000F8018591949110920409909308098093BF
:1057C000070910920609109205098091F4088130AA
:1057D00081F080916202882331F21F929F928F9212
:1057E0006F9281E09091F408913009F480C080E0DC
:1057F0007EC08091EB081092EB08882351F38091D2
:10580000F808682F0F94D52F8091EA08882309F3B0
:10581000BCCFC23009F048C0F80185919491109234
:1058200004099093080980930709109206091092C1
:1058300005098091F4088230D1F0809162028823BA
:1058400009F491CFDF92CF92BF92AF927F9281E025
:105850009091F408923009F080E08F930E946D22BD
:105860000F900F900F900F900F900F907CCF809122
:10587000EB081092EB08882301F30E94D822809154
:10588000EA088823D1F281CF8091EB081092EB08CF
:105890008823F1F06091F8088FEF0F94D52F809155
:1058A000EA088823A9F071CFC33009F05CCFF80172
:1058B00085919491109204099093080980930709A7
:1058C00010920609109205098091F4088330E1F2E4
:1058D00080916202882309F446CF1F92FF92EF92D3
:1058E000DF9381E09091F408933009F080CF8F939B
:1058F0000E946D220F900F900F900F900F9033CF5A
:105900006F927F928F929F92AF92BF92CF92DF92CF
:10591000EF92FF920F931F93CF93DF9361E081E0AB
:10592000E3DDC091F5087C2E85E0682E6C0E95E2D3
:10593000E92E9DE0F92ED6E0DC1B15E01C1B23E4CC
:10594000C22E2DE0D22E04E00C1B37E5A32E3DE045
:10595000B32E82E0982E9C1A81E0882E8C1AC111F9
:1059600035C08091F4088823B9F0809162028823C1
:1059700061F0672D619581E09091F408911180E0CC
:1059800024E043E65DE00F94CB20CF5F6C12E7CFBD
:1059900087E08093E9080BC08091EB081092EB0838
:1059A000882319F372DE8091EA088823F1F2DF91EF
:1059B000CF911F910F91FF90EF90DF90CF90BF900C
:1059C000AF909F908F907F906F900895C13009F5B0
:1059D0008091F408813079F0809162028823A9F2E5
:1059E00081E09091F408913009F080E023E04FEBE2
:1059F00056E3682DC8CF8091EB081092EB088823FE
:105A000059F38FEB9DE21DDD8091EA08882321F395
:105A1000CECFC23009F096C08091F408823081F078
:105A200080916202882309F4B0CF81E09091F4085C
:105A3000923009F080E023E04CE55DE0692DA3CFD2
:105A40008091EB081092EB08882351F38DEB9EE2D6
:105A5000F8DC8091EA08882319F3A9CF9091F40823
:105A6000933079F080916202882309F48ECF63E04D
:105A7000671981E0933009F080E020E248E45DE0BE
:105A800082CF8091EB081092EB08882359F3B092F3
:105A90008208A09281088091EA08882319F387CFB1
:105AA0009091F408943071F080916202882309F497
:105AB0006CCF81E0943009F080E020E246E35DE0C5
:105AC000602F61CF8091EB081092EB08882361F37F
:105AD000D0928208C09281088091EA08882321F33D
