:100000000C94921D0C94D21D0C94D21D0C94D21DF4
:100010000C94D21D0C94D21D0C94D21D0C94D21DA4
:100020000C94D21D0C94D21D0C94D21D0C94D21D94
:100030000C94D21D0D94EC090C94D21D0C94D21D7D
:100040000C94D21D0C94B0BD0C94D21D0C94D21DF6
:100050000C94D21D0C9427BA0C94D21D0D94A209B5
:100060000C94D21D0C9471830C9467830C94D21D54
:100070000C94D21D0C94D21D0C94D21D0C94D21D44
:100080000C94D21D0C94D21D0C94D21D0C94D21D34
:100090000C94D21D0C94D21D0C94D21D0D94B90E4B
:1000A0000C94D21D0C94D21D0C94D21D0C94D21D14
:1000B0000C94D21D0C94D21D0C94D21D0C94D21D04
:1000C0000C94D21D0C94D21D0C94D21D0C94D21DF4
:1000D0000C94D21D0C94D21D0C94D21D0C94D21DE4
:1000E0000C94D21D084AD73B3BCE016E84BCBFFDA9
:1000F000C12F3D6C74319ABD56833DDA3D00C77FF8
:1001000011BED9E4BB4C3E916BAAAABE0000008090
:100110003F05A84CCDB2D44EB93836A9020C50B91F
:10012000918688083CA6AAAA2ABE000000803F004B
:100130000D948C080D941A140D9474080D94A71B3B
:100140000D947E080D9490080D9460080D945D0840
:100150000D9466080D9455080D9459080D94820865
:100160000D943A080D9486080D9478080D94510862
:100170000D946A080D943F080D9470084E414E4945
:100180004E495459494E46CDCCCC3D0AD7233C1755
:10019000B7D13877CC2B329595E6241FB14F0A00A2
:1001A0000020410000C84200401C4620BCBE4CCA92
:1001B0001B0E5AAEC59D74554E4C4F4144204649C6
:1001C0004C414D454E54004C4F41442046494C4112
:1001D0004D454E540046494C414D454E54204348F0
:1001E000414E47450041425300504C410023646555
:1001F00066696E652044454641554C545F00006277
:100200006564004B6420004B6920004B7020002087
:1002100066696E697368656421205075742074681E
:1002200065206C617374204B702C204B6920616ECB
:1002300064204B6420636F6E7374616E7473206608
:10024000726F6D2062656C6F7720696E746F2043EA
:100250006F6E66696775726174696F6E2E680A00E9
:10026000504944204175746F74756E650020666155
:10027000696C6564212074696D656F75740A00503E
:100280004944204175746F74756E6500206661691C
:100290006C6564212054656D70657261747572655A
:1002A00020746F6F20686967680A005049442041D4
:1002B00075746F74756E6500504944204379636CA2
:1002C00065730025532025692F256900204B643A6A
:1002D0002000204B693A2000204B703A2000204338
:1002E0006C617373696320504944200A00204E6F8B
:1002F000206F76657273686F6F740A002054753AC8
:100300002000204B753A2000206D61783A200020B3
:100310006D696E3A200020643A20002062696173A2
:100320003A200048656174696E672E2E2E00207396
:10033000746172740A00504944204175746F747579
:100340006E6500206661696C6564212054656D707E
:100350006572617475726520746F6F206869676873
:100360000A00504944204175746F74756E650050E1
:100370004944204175746F74756E6500206661692B
:100380006C65642120426164206865617465722037
:1003900069640A00504944204175746F74756E6534
:1003A000004572723A207574663820666F6E74204C
:1003B0006E6F7420696E697469616C697A65642E08
:1003C000004572723A207574663820666F6E74202C
:1003D0006E6F7420696E697469616C697A65642EE8
:1003E000004572723A207574663820666F6E74200C
:1003F0006E6F7420696E697469616C697A65642EC8
:1004000000453A0042656400456E636C6F73757217
:1004100065002568753A25303268750025303268E8
:10042000753A2530326875002530326875272530D9
:1004300032687500256875642025303268753A2564
:100440003032687500657272001FE02010201020A5
:10045000101020102020102010303008400480039D
:10046000001FE03FF03FF03FF01FE01FE03FF03F94
:10047000F03FF00FC0078003003FFFF038007030FE
:10048000FC3020FC102078102030102C00D02E31B1
:10049000D02F7BD02F7BD02E31D02C00D02030100D
:1004A00020781020FC1030FC303800703FFFF03F07
:1004B000FFF03800703186302387102787902F8710
:1004C000D02F03D02030102078102078102030104A
:1004D0002F03D02F87D0278790238710318630387D
:1004E00000703FFFF01FFFF81FFFF80410400208E4
:1004F0002002082004104008208010410010410014
:100500000820800410400000001FFFF81FFFF85073
:1005100072696E742041626F72746564004D323589
:100520000050617573696E672E2E2E004D323400B7
:10053000454550524F4D2056657273696F6E204588
:1005400072726F7200454550524F4D20496E64657E
:1005500078204572726F7200454550524F4D2043CE
:100560005243204572726F72003F0049676E6F728E
:100570006500526573657400496E697469616C69E0
:100580007A6520454550524F4D0045005A00585954
:10059000004C6F6164206D6D00556E6C6F6164205E
:1005A0006D6D0046696C2E204469612E00452069FE
:1005B0006E206D6D5E3300416476616E6365204B25
:1005C000004D3330332055312045256920532569AE
:1005D00000504944204175746F74756E65202A007F
:1005E0005049442D44202A005049442D49202A00D6
:1005F0005049442D50202A00200820466163740091
:100600002008204D6178002008204D696E004F665B
:1006100066004F6E004175746F74656D70004D69B2
:100620006E2054726176656C205370656564004D70
:10063000696E2056656C6F63697479004D6178202E
:1006400040205370656564004D617820452041630A
:1006500063656C004D6178204020416363656C00E8
:1006600054726176656C20416363656C00526574F9
:100670007261637420416363656C00416363656C00
:1006800000402073746570732F6D6D004164766156
:100690006E6365642053657474696E6773003F0010
:1006A00043616E63656C00496E6974004D34323885
:1006B00000496E697469616C697A652045455052DC
:1006C0004F4D0046696C616D656E740054656D70C8
:1006D0006572617475726500447269766520537441
:1006E00072656E6774680053746570732F6D6D006A
:1006F0004A756E6374696F6E20446576004163636A
:10070000656C65726174696F6E004D61782053701D
:1007100065656420286D6D2F73290053657420482A
:100720006F6D65204F66667365747300436F6E6608
:10073000696775726174696F6E00426564004E6F1F
:100740007A7A6C650046616E20537065656400437B
:100750006F6E66696775726174696F6E005265735A
:10076000746F72652044656661756C7473004C6FBC
:1007700061642053657474696E67730053746F729B
:10078000652053657474696E67730050726568659F
:100790006174202420436F6E6600416476616E634D
:1007A00065642053657474696E6773004D61696E8A
:1007B000004D37303220542564004D363030204211
:1007C0003020542564004D373032203B2564004DE5
:1007D00037303120542564004368616E67652046D8
:1007E000696C616D656E7400507265686561742036
:1007F000437573746F6D0050726568656174202471
:10080000004261636B004D363030423000436F6E02
:1008100074696E7565005075726765206D6F7265DD
:1008200000524553554D45204F5054494F4E533A71
:10083000005052494E542050415553454400202009
:100840004E6F7A7A6C653A20005061726B696E6700
:100850002E2E2E0000005761697420666F720066AC
:10086000696C616D656E74206368616E67650074A4
:100870006F207374617274005761697420666F72BF
:100880000066696C616D656E7420756E6C6F616475
:1008900000004E6F7A7A6C652068656174696E67D6
:1008A00000506C6561736520776169742E2E2E008F
:1008B00000507265737320627574746F6E00746F8C
:1008C0002068656174206E6F7A7A6C650000496EED
:1008D000736572742066696C616D656E7400616E1B
:1008E0006420707265737320627574746F6E007427
:1008F0006F20636F6E74696E75650057616974204F
:10090000666F720066696C616D656E74206C6F61F4
:10091000640000507265737320427574746F6E00CA
:10092000746F20726573756D65207072696E7400E6
:10093000005761697420666F72207072696E74006E
:10094000746F20726573756D652E2E2E00005761D1
:10095000697420666F720066696C616D656E7420E3
:10096000707572676500003E2000256C642E256955
:100970006D00457874727564656420546F74616CA1
:10098000003E20004C6F6E67657374204A6F6220D2
:1009900054696D65003E20005072696E7420546980
:1009A0006D6500436F6D706C65746564003A20007E
:1009B0005072696E7420436F756E74003A20003176
:1009C00035300035004245443A204550434F5320CE
:1009D0003130304B0052756E617761792057617408
:1009E00063683A204F4E004D61782054656D700069
:1009F000323735004D696E2054656D700035004505
:100A0000313A20507431303020556C74694D422099
:100A10003576005053550047656E65726963005026
:100A2000726F746F636F6C00312E300042617564B9
:100A30000032353030303000556C74696D616B6553
:100A40007220322E78004578747275646572730076
:100A500031006D61726C696E66772E6F7267005738
:100A6000616E68616F2F4475706C696361746F7239
:100A700020443600323032322D31312D3134006293
:100A800075676669782D322E312E78004D61726C53
:100A9000696E005072696E7465722053746174736C
:100AA00000546865726D6973746F727300426F6190
:100AB000726420496E666F005072696E74657220B0
:100AC000496E666F004D61696E004F6666004F6E3D
:100AD000004C69676874204272696768746E657358
:100AE0007300436F6E66696775726174696F6E003B
:100AF00043617365204C69676874004D61696E00DD
:100B00004D313430205335300A4D3130342053329A
:100B100031300A4D3131372055736572205363727D
:100B200069707420446F6E65005072656865617409
:100B300020666F7220504C413F004D3134302053BD
:100B4000300A4D3130342053300A4D313036205385
:100B5000300A4D3131372055736572205363726905
:100B6000707420446F6E6500436F6F6C646F776EB6
:100B70003F00436F6F6C646F776E005072656865FD
:100B8000617420666F7220504C41004D61696E00A7
:100B90003F004261636B0053746F70003F004E4F23
:100BA00000594553004E6F204D65646961005072D5
:100BB000696E742066726F6D204D656469610043D3
:100BC00068616E6765204D65646961004D32310072
:100BD0004368616E67652046696C616D656E74007F
:100BE0004C69676874730041626F75742050726954
:100BF0006E74657200517569636B204D656E75008A
:100C0000436F6E66696775726174696F6E005465D3
:100C10006D7065726174757265004D6F74696F6E89
:100C200000526573756D65205072696E740054755D
:100C30006E650053746F70205072696E740050615D
:100C4000757365205072696E7400496E666F20532B
:100C5000637265656E003F00537461727420507258
:100C6000696E740043616E63656C005072696E74E6
:100C70000043616E6E6F7420656E746572207375CB
:100C8000626469723A200002202E2E004D61696E66
:100C9000002100486F74656E6420746F6F20636F6D
:100CA0006C64004261636B0050726F636565640041
:100CB0004D6F7665204578747275646572004D6F6E
:100CC00074696F6E0044697361626C65205374656A
:100CD0007070657273004D3834004732385A0047DF
:100CE00032385900486F6D6520400047323858004F
:100CF0004175746F20486F6D6500473238004D6153
:100D0000696E0050726568656174202420426564D4
:100D10000050726568656174202420456E6400543B
:100D2000656D706572617475726500E901E5014376
:100D30006F6F6C646F776E005072656865617420C8
:100D4000240046616E20537065656400426564004E
:100D50004E6F7A7A6C65004D61696E00546F7461F4
:100D60006C004261627973746570205A004261625E
:100D70007973746570204000416476616E6365200C
:100D80004B00466C6F770046616E2053706565645A
:100D900000426564004E6F7A7A6C65005370656539
:100DA00064004D61696E00000C0F00FE0702250310
:100DB000BB017FFE08FE08FE05080806000040F0A3
:100DC000C88888987810050808060000C0F8888848
:100DD000888888F80505050600012030F8302005D0
:100DE00008080600002070F820202020E0050909EE
:100DF0000600FF2070A8A8B888887020070505079E
:100E00000001D86C366CD80509090600FFF8A888DF
:100E100088888888A8F8050A0A0600FE20505050E5
:100E20005088A8A8887003030306000340A040FF71
:100E3000FFFFFFFFFFFFFFFFFFFFFFFFFFFFFFFFC2
:100E4000FFFFFFFFFF0000000605FF010707060286
:100E50000080808080800080030303060105A0A03D
:100E6000A005060606000050F85050F85005090984
:100E70000600FF2070A8A07028A8702005070706AC
:100E80000000C8C8102040989805070706000040D9
:100E9000A0A040A89068010303060205808080039B
:100EA00009090601FF20404080808040402003095E
:100EB000090601FF804040202020404080050707B0
:100EC00006000020A8702070A82005050506000176
:100ED0002020F820200203030601FFC04080050106
:100EE00001060003F8020202060100C0C005070760
:100EF000060000081010204040800507070600008B
:100F0000708898A8C8887003070706010040C04091
:100F1000404040E0050707060000708808102040A8
:100F2000F8050707060000F8081030088870050764
:100F30000706000010305090F81010050707060053
:100F400000F880F0080888700507070600003040A8
:100F500080F0888870050707060000F80810102048
:100F600020200507070600007088887088887005B3
:100F700007070600007088887808106002050506DB
:100F80000100C0C000C0C00206060601FFC0C000CC
:100F9000C040800305050601012040804020050374
:100FA00003060002F800F803050506010180402051
:100FB00040800507070600007088102020002005EB
:100FC00007070600007088B8A8B8807005070706F4
:100FD0000000708888F8888888050707060000F0F8
:100FE0004848704848F00507070600007088808070
:100FF000808870050707060000F04848484848F018
:10100000050707060000F88080F08080F8050707D4
:10101000060000F88080F080808005070706000049
:101020007088808098887005070706000088888887
:10103000F8888888030707060100E04040404040E8
:10104000E005070706000038101010109060050733
:10105000070600008890A0C0A0908805070706003A
:1010600000808080808080F805070706000088D80F
:10107000A8888888880507070600008888C8A89877
:1010800088880507070600007088888888887005AA
:101090000707060000F08888F080808005070706B3
:1010A000000070888888A89068050707060000F08F
:1010B0008888F0A090880507070600007088807077
:1010C000088870050707060000F82020202020204F
:1010D0000507070600008888888888887005070744
:1010E0000600008888888850502005070706000001
:1010F00088888888A8A850050707060000888850B7
:101100002050888805070706000088885020202086
:1011100020050707060000F80810204080F80309A2
:10112000090601FFE080808080808080E00507075D
:10113000060000804040201010080309090601FF46
:10114000E020202020202020E005030306000520C9
:1011500050880501010600FEF8030303060105801F
:101160004020050505060000700878887805070707
:101170000600008080F0888888F0050505060000DC
:101180007080808870050707060000080878888846
:1011900088780505050600007088F080700507074F
:1011A000060000304840E04040400507070600FECA
:1011B000708888887808700507070600008080F02E
:1011C000888888880307070601004000C040404027
:1011D000E00409090601FE100030101010109060A4
:1011E00005070706000080808890E09088030707C5
:1011F000060100C04040404040E0050505060000F3
:10120000D0A8A8A8A8050505060000B0C888888849
:101210000505050600007088888870050707060028
:10122000FEF0888888F080800507070600FE788831
:101230008888780808050505060000B0C880808009
:1012400005050506000078807008F0050707060010
:10125000002020F8202020180505050600008888B9
:1012600088986805050506000088888850200505CF
:10127000050600008888A8A8500505050600008816
:10128000502050880507070600FE888888502040B7
:1012900080050505060000F8102040F8030909063E
:1012A00001FF2040404080404040200109090602E3
:1012B000FF8080808080808080800309090601FF94
:1012C0008040404020404040800503030600024823
:1012D000A890FF00060900FE06020F038401FFFE2E
:1012E00007FE06FE05070700000040F0C888987852
:1012F00010050707000000C0F888888888F80505F1
:10130000050000012030F83020050707000000200C
:1013100070F8202020E00507070000002070A8B822
:10132000887020060505000000B0D86CD8B005080C
:10133000080000FFF8A888888888A8F8050909002F
:1013400000FE205050505088A8887003030300000E
:101350000340A040FFFFFFFFFFFFFFFFFFFFFFFF76
:10136000FFFFFFFFFFFFFFFFFFFF0000000605FF7D
:1013700001060606020080808080008003030306C9
:101380000103A0A0A00507070600FF5050F850F881
:1013900050500509090600FE2070A8A07028A8700A
:1013A000200608080600FF40A848102048540805F9
:1013B00007070600FF60909060989068010303069D
:1013C00002038080800207070602FF408080808041
:1013D00080400207070602FF8040404040408005F1
:1013E00005050600008850F8508805050506000030
:1013F0002020F820200204040602FEC040408005A0
:101400000101060002F8020202060200C0C0040642
:101410000606010010102040808004060606010028
:1014200060909090906003060606010040C0404026
:1014300040E00406060601006090102040F004061B
:1014400006060100F020601010E005060606000008
:1014500010305090F810040606060100F080E010ED
:1014600010E00406060601006080E090906004062B
:1014700006060100F0101020404004060606010098
:101480006090609090600406060601006090907085
:101490001060020505060200C0C000C0C0020707B8
:1014A0000602FEC0C000C0404080050505060000E1
:1014B0001860806018050303060001F800F80505B0
:1014C00005060000C0300830C004070706010060B0
:1014D0009010604000400506060600007090A8B01D
:1014E0008070050606060000205088F888880506EA
:1014F00006060000F088F08888F004060606010061
:10150000609080809060040606060100E090909054
:1015100090E0040606060100F080E08080F00406FA
:1015200006060100F080E0808080040606060100C7
:10153000609080B090600406060601009090F090E4
:101540009090030606060100E040404040E005069A
:101550000606000038101010906004060606010010
:1015600090A0C0A0909004060606010080808080B4
:1015700080F005060606000088D8A8A8888804061A
:101580000606010090D0B090909005060606000077
:10159000708888888870040606060100E09090E054
:1015A00080800407070601FF609090D0B0601004AF
:1015B0000606060100E09090E09090040606060101
:1015C00000609040209060050606060000F820208C
:1015D0002020200406060601009090909090600460
:1015E0000606060100909090F06060050606060071
:1015F000008888A8A8D8880506060600008850201C
:101600002050880506060600008888502020200407
:101610000606060100F010204080F00306060601D1
:1016200000E080808080E0040606060100808040A3
:10163000201010030606060100E020202020E0050F
:1016400003030600032050880501010600FEF8028E
:101650000202060204804004040406010070909017
:10166000700406060601008080E09090E004040407
:1016700006010070808070040606060100101070DC
:1016800090907004040406010060B0C07004060667
:10169000060100205040E040400406060601FE60BE
:1016A00090907010600406060601008080E0909023
:1016B000900306060601004000C04040E003080811
:1016C0000601FE200060202020A04004060606013E
:1016D000008080A0C0A090030606060100C0404024
:1016E0004040E0050404060000D0A8A888040404D3
:1016F000060100E0909090040404060100609090C0
:10170000600406060601FEE09090E0808004060674
:101710000601FE709090701010040404060100A0F1
:10172000D0808004040406010070C030E004060686
:101730000601004040E040502004040406010090EF
:101740009090700404040601009090606005040409
:1017500006000088A8A850040404060100906060F8
:10176000900406060601FE909090709060040404B8
:10177000060100F02040F00307070601002040406A
:10178000804040200107070602FF80808080808023
:10179000800307070601008040402040408004028B
:1017A0000206010350A0FFFFFFFFFFFFFFFFFFFF47
:1017B000FFFFFFFFFFFFFFFFFFFFFFFFFFFFFFFF39
:1017C000FFFFFFFFFFFFFF0000000605FF01060609
:1017D0000602008000808080800406060601FF204B
:1017E00070A0A070200507070600FF304840F040B9
:1017F00040F8050505060000A8508850A805060613
:101800000600008850F820F8200107070602FF8034
:101810008080008080800407070601FF7080609050
:101820006010E0030101060105A00607070600009D
:10183000788494A494847803050506010160A0606F
:1018400000E00505050600002850A0502804030309
:10185000060100F01010040101060102F00607075E
:101860000600007884B4A4A484780401010601056C
:10187000F00403030601026090600507070600FFFD
:101880002020F8202000F803050506010140A020D3
:1018900040E0030505060101C0204020C00202020D
:1018A00006020440800405050601FF9090B0D08038
:1018B00005060606000078E8E86828280101010608
:1018C0000202800202020602FE40800305050601B4
:1018D0000140C04040E003050506010140A0400072
:1018E000E0050505060000A0502850A005080806E0
:1018F00000FF40C04050703078100508080600FF17
:1019000040C04050680810380508080600FFC02095
:101910004030F030781004070706010020002060F6
:1019200080906005070706000040202050708888DE
:10193000050707060000102020507088880507075B
:101940000600002050205070888805070706000018
:101950002850205070888805070706000050002096
:1019600050708888050707060000205020507088B6
:101970008805060606000078A0F0A0A0B8040808B4
:101980000601FE60908080906020400407070601F9
:10199000004020F080E080F00407070601002040AE
:1019A000F080E080F00407070601002050F080E09E
:1019B00080F00407070601005000F080E080F0038B
:1019C00007070601008040E0404040E003070706AB
:1019D00001002040E0404040E003070706010040CE
:1019E000A0E0404040E0030707060100A000E040FF
:1019F0004040E00506060600007048E848487004CC
:101A0000070706010050A090D0B090900407070689
:101A100001004020609090906004070706010020BC
:101A2000406090909060040707060100205060908D
:101A300090906004070706010050A06090909060AD
:101A400004070706010050006090909060050505AE
:101A500006000088502050880408080601FF107016
:101A6000B0B0D0D0E080040707060100402090907D
:101A700090906004070706010020409090909060CD
:101A8000040707060100205090909090600407071B
:101A90000601005000909090906005070706000036
:101AA0001020885020202004060606010080E090C7
:101AB00090E0800406060601006090A0A090A004BB
:101AC0000707060100402000709090700407070689
:101AD000010020400070909070040707060100206C
:101AE00050007090907004070706010050A000702D
:101AF00090907004060606010050007090907004EB
:101B0000070706010020502070909070050404061D
:101B1000000070A8B0780406060601FE7080807090
:101B2000204004070706010040200060B0C0700498
:101B3000070706010020400060B0C07004070706D8
:101B4000010020500060B0C070040606060100507D
:101B50000060B0C070030707060100804000C0406D
:101B600040E0030707060100204000C04040E003BA
:101B7000070706010040A000C04040E0030606063B
:101B80000100A000C04040E00407070601003060EB
:101B9000107090906004070706010050A000E090CC
:101BA00090900407070601004020006090906004B8
:101BB00007070601002040006090906004070706B8
:101BC000010020500060909060040707060100505B
:101BD000A00060909060040606060100500060902E
:101BE00090600505050600002000F80020040404AC
:101BF00006010070B0D0E004070706010040200095
:101C0000909090700407070601002040009090908B
:101C100070040707060100205000909090700406A1
:101C2000060601005000909090700409090601FE1C
:101C30002040009090907090600408080601FE809B
:101C400080E09090E080800408080601FE5000903B
:101C50009090709060434F4D4D554E4943415449CB
:101C60004F4E0044525952554E004552524F525316
:101C700000494E464F004543484F004572726F720F
:101C80002077726974696E6720746F2045455052E1
:101C90004F4D210A0053544F505045442E200050C0
:101CA00072696E7465722073746F707065642064FD
:101CB000756520746F206572726F72732E2046698D
:101CC0007820746865206572726F7220616E64207E
:101CD000757365204D39393920746F2072657374BE
:101CE0006172742E202854656D706572617475720E
:101CF000652069732072657365742E2053657420A6
:101D0000697420616674657220726573746172749F
:101D1000696E67290A004E6F20436865636B7375AF
:101D20006D2077697468206C696E65206E756D62D0
:101D300065722C204C617374204C696E653A2000EA
:101D40004E6F20436865636B73756D2077697468A7
:101D5000206C696E65206E756D6265722C204C6119
:101D60007374204C696E653A2000636865636B7319
:101D7000756D206D69736D617463682C204C61739F
:101D800074204C696E653A20004C696E65204E7572
:101D90006D626572206973206E6F74204C6173747C
:101DA000204C696E65204E756D6265722B312C205A
:101DB0004C617374204C696E653A20004D313130AE
:101DC0000053657269616C20737461747573206D62
:101DD00069736D617463680A0053442072656164BD
:101DE000206572726F720A00746F6F206D75636880
:101DF00020696E6163746976652074696D65202D54
:101E00002063757272656E7420636F6D6D616E64B0
:101E10003A20002121204B494C4C206361757365A9
:101E2000642062792000627573793A20706175735D
:101E3000656420666F7220696E7075740A00627541
:101E400073793A2070617573656420666F722075CE
:101E50007365720A00627573793A2070726F6365F8
:101E60007373696E670A004D656469612052656D20
:101E70006F766564004D6564696120496E736572B3
:101E800074656400506C6561736520526573657498
:101E9000005052494E5445522048414C544544004C
:101EA00025533A202553004B494C4C45442E2000E5
:101EB0005072696E7465722068616C7465642E205E
:101EC0006B696C6C28292063616C6C6564210A0065
:101ED0006563686F3A004572726F723A00486F74BA
:101EE000656E6420746F6F20636F6C640A00204419
:101EF0000020204D32303020530020284469736187
:101F0000626C6564293A0046696C616D656E742087
:101F100073657474696E67730020204D3230312010
:101F200058004D617820416363656C657261746926
:101F30006F6E2028756E6974732F7332290020200C
:101F40004D3230332058004D6178206665656472EB
:101F5000617465732028756E6974732F732900206E
:101F6000520020204D323034205000416363656CB4
:101F700065726174696F6E2028756E6974732F7352
:101F800032292028503C7072696E742D616363653C
:101F90006C3E20523C726574726163742D616363A0
:101FA000656C3E20543C74726176656C2D61636390
:101FB000656C3E2900204A00205400205300202058
:101FC0004D323035204200416476616E6365642095
:101FD00028423C6D696E5F7365676D656E745F74F2
:101FE000696D655F75733E20533C6D696E5F666514
:101FF0006564726174653E20543C6D696E5F7472F5
:102000006176656C5F66656564726174653E204AE1
:102010003C6A756E635F6465763E2900204400204B
:10202000490020204D333031205000486F74656ED8
:1020300064205049440020440020490020204D33B2
:102040003034205000426564205049440020204D27
:1020500039303720580053746570706572206D6F89
:10206000746F722063757272656E747300496E735B
:102070006572742066696C616D656E7420616E6452
:1020800020707265737320627574746F6E0A0050ED
:102090007265737320627574746F6E20746F20683C
:1020A000656174206E6F7A7A6C650A00496E73659B
:1020B00072742066696C616D656E7420616E642057
:1020C000707265737320627574746F6E0A00203BC2
:1020D0000020550020204D363033204C0046696CDE
:1020E000616D656E74206C6F61642F756E6C6F61CD
:1020F00064003B200020496E76616C69642065783D
:10210000747275646572200047322F473320626114
:102110006420706172616D65746572730A00536C3E
:102120006565702E2E2E00436C69636B20746F20E2
:10213000526573756D652E2E2E004E6F204D6F7695
:10214000652E00456E642066696C65206C69737449
:102150000A00426567696E2066696C65206C697368
:10216000740A004E6F206D656469610A00286E6F05
:102170002066696C65290043757272656E7420660D
:10218000696C653A20004E6F742053442070726968
:102190006E74696E670A005344207072696E7469C8
:1021A0006E67206279746520002E0A0044656C65B4
:1021B00074696F6E206661696C65642C2046696C79
:1021C000653A200046696C652064656C65746564D9
:1021D0003A005072696E742074696D653A20000A85
:1021E00053746174733A2046696C616D656E742036
:1021F000757365643A20002C204C6F6E67657374AC
:10220000206A6F623A2000546F74616C2074696DAB
:10221000653A200053746174733A20002C204661A3
:10222000696C65643A20002C2046696E69736865A4
:10223000643A20005072696E74733A2000537461DE
:1022400074733A20006F6B006F666600761C711C19
:102250006A1C631C551C44454255473A004D3131B8
:10226000322053687574646F776E004D31313320BE
:10227000530057616E68616F2F4475706C696361BC
:10228000746F72204436204F46462E002F2F004D8B
:1022900031343520533C696E6465783E206F757427
:1022A000206F662072616E67652028302D31290A03
:1022B000003F4A206F7574206F662072616E6765FB
:1022C0002028302E303120746F20302E33290A0020
:1022D0002058004F4646004F4E0020204D61783A6E
:1022E0002000200020204D696E3A2000203B200075
:1022F00020204D323131205300536F667420656EBB
:102300006473746F70730046523A0020466C6F77A6
:102310003A20004261627973746570205A006469E2
:102320007300656E0043290A0061626C65642028B1
:102330006D696E2074656D702000436F6C6420655C
:10234000787472756465732061726520004F6666EB
:1023500073657473204170706C69656400457272B6
:102360003A20546F6F206661722100546F6F2066AF
:1023700061722066726F6D207265666572656E634C
:102380006520706F696E740A00454550524F4D20AC
:102390004F4B0A002E0A002028302D313029002012
:1023A00076616C7565206F7574206F662072616E42
:1023B000676500416476616E6365204B3D004F4662
:1023C000460A0043617365206C696768743A2000AF
:1023D0004D383400446F6E65207072696E74696E9A
:1023E000672066696C650A004D3737004D33310050
:1023F000496E76616C696420657874727564657283
:102400000A0020204D323036205800486F6D65207C
:102410006F6666736574004361703A00434F4E46C1
:1024200049475F4558504F5254004D454154504123
:10243000434B00434F4F4C45525F54454D5045521E
:102440004154555245004348414D4245525F544521
:102450004D50455241545552450042414259535402
:10246000455050494E470041524353004D4F544947
:102470004F4E5F4D4F44455300544845524D414CDB
:102480005F50524F54454354494F4E0045585445B0
:102490004E4445445F4D323000435553544F4D5FD9
:1024A0004649524D574152455F55504C4F414400AB
:1024B0004C464E5F5752495445004C4F4E475F467D
:1024C000494C454E414D45004155544F5245504FA2
:1024D00052545F53445F5354415455530053445F27
:1024E000575249544500524550454154004D554CB2
:1024F00054495F564F4C554D450053444341524457
:102500000050524F4D50545F535550504F5254004D
:10251000484F53545F414354494F4E5F434F4D4DD5
:10252000414E445300454D455247454E43595F5037
:10253000415253455200434153455F4C494748542B
:102540005F4252494748544E45535300544F474702
:102550004C455F4C494748545300534F46545741EC
:1025600052455F504F574552004255494C445F50C9
:10257000455243454E54004C4556454C494E475FE5
:1025800044415441005A5F50524F42450052554E0B
:102590004F5554004155544F4C4556454C005052F0
:1025A000494E545F4A4F420050524F475245535391
:1025B000004155544F5245504F52545F54454D5071
:1025C000004155544F5245504F52545F504F5300A5
:1025D000564F4C554D455452494300454550524F76
:1025E0004D0042494E4152595F46494C455F545255
:1025F000414E534645520053455249414C5F584F56
:102600004E5F584F4646004649524D574152455F2E
:102610004E414D453A4D61726C696E206275676638
:1026200069782D322E312E7820284E6F7620313465
:1026300020323032322030393A30303A33332920A8
:10264000534F555243455F434F44455F55524C3AB3
:102650006769746875622E636F6D2F556C74696D50
:10266000616B65722F4D61726C696E2050524F54D0
:102670004F434F4C5F56455253494F4E3A312E30DF
:10268000204D414348494E455F545950453A5761A2
:102690006E68616F2F4475706C696361746F72202E
:1026A00044362045585452554445525F434F554E89
:1026B000543A3120555549443A6365646532613274
:1026C000662D343161322D343734382D3962313250
:1026D0002D633535633632663336376666002569D5
:1026E000730025696D2025697300256968202569B7
:1026F0006D20256973002569642025696820256996
:102700006D20256973002569792025696420256974
:10271000682025696D2025697300436F6F6C696EB1
:10272000672E2E2E0045312025530020573A0042B7
:10273000656420436F6F6C696E672E2E2E004265B4
:10274000642048656174696E672E2E2E00486F6D97
:10275000696E67204661696C6564006F70656E0024
:10276000545249474745524544003A20007A5F6D2C
:10277000696E00795F6D696E00785F6D696E0052F9
:1027800065706F7274696E6720656E6473746F70C4
:10279000207374617475730A0020746F6F206C6FFE
:1027A0006E6720657874727573696F6E20707265DC
:1027B00076656E7465640A0020636F6C64206578CA
:1027C00074727573696F6E2070726576656E74656C
:1027D000640A000000000000000000000000005734
:1027E00061726E696E673A20486F6D696E6720424C
:1027F000756D702044697669736F72203C20310AD0
:1028000000020204000048430000484300002A433D
:102810000000A0400000A04000000040000048432D
:102820000000484300002A430000000000000000B0
:102830000000000053657474696E67732053746FF1
:1028400072656400290A002062797465733B206315
:102850007263200053657474696E67732053746FDC
:1028600072656420280048617264636F6465642047
:1028700044656661756C742053657474696E677322
:10288000204C6F616465640020286D6D290020462E
:102890000020480020204D3134352053004D617414
:1028A000657269616C206865617475702070617211
:1028B000616D65746572730020204D393030204B96
:1028C000004C696E65617220416476616E636500DB
:1028D00020204D3134392043203B20556E697473DC
:1028E00020696E2043656C736975730A0054656DC9
:1028F000706572617475726520556E69747300201D
:1029000020473231203B004C696E65617220556E64
:1029100069747300454550524F4D20646174617372
:10292000697A65206572726F722E0A00290A00208A
:1029300062797465733B2063726320002073746F47
:102940007265642073657474696E67732072657450
:10295000726965766564202800202863616C637560
:102960006C6174656429210A0020213D20004545E1
:1029700050524F4D20435243206D69736D61746313
:1029800068202D202873746F7265642920002053FD
:10299000697A653A2000496E6465783A2000000043
:1029A0009643000096430000A0400000C84139143F
:1029B000A0423914A042713DC8433333C642B80B1C
:1029C0000000B80B000064000000F4010000204D7E
:1029D00061726C696E3D563837290A004545505280
:1029E0004F4D2076657273696F6E206D69736D61EE
:1029F0007463682028454550524F4D3D0024F4042F
:102A0000D9201BC40C5C0E9804C4095F02650771D1
:102A100001F405F900FB04B30048048700C1036911
:102A2000005803550003034500BE023A00840231FA
:102A30000053022A002902250004022000E4011CA0
:102A400000C8011900AF0117009801140084011398
:102A500000710110006101100051010E0043010DD1
:102A60000036010B002B010B0020010B00150109A2
:102A7000000C01090003010800FB000800F3000836
:102A800000EB000700E4000600DE000600D80006A8
:102A900000D2000600CC000500C7000500C20005FA
:102AA00000BD000400B9000400B5000400B100043A
:102AB00000AD000400A9000400A5000300A200036B
:102AC000009F0004009B0003009800030095000293
:102AD0000093000300900003008D0002008B0003B0
:102AE00000880002008600020084000300810002CA
:102AF000007F0002007D0002007B000200790002DE
:102B000000770001007600020074000200720001EC
:102B100000710002006F0002006D0001006C0002F5
:102B2000006A000100690002006700010066000100
:102B30000065000100640002006200010061000104
:102B400000600001005F0002005D0001005C000108
:102B5000005B0001005A000100590001005800010B
:102B6000005700010056000100550001005400010B
:102B70000053000000530001005200010051000109
:102B800000500001004F0001004E0000004E000107
:102B9000004D0001004C0001004B0000004B000103
:102BA000004A0001004900010048000000480001FF
:102BB00000470001004600000046000100450000FB
:102BC00000450001004400010043000000430001F3
:102BD00000420000004200010041000000410001ED
:102BE00000400001003F0000003F0001003E0000E7
:102BF000003E0001003D0000003D0001003C0000DF
:102C0000003C0000003C0001003B0000003B0001D4
:102C1000003A0000003A00010039000000390001CC
:102C200000380000003800000038000100370000C4
:102C300000370001003600000036000000360001B9
:102C400000350000003500000035000100340000B0
:102C500000340000003400010033000000330000A5
:102C60000033000100320000003200000032000199
:102C70000031000000310000003100010030000090
:102C80000030000000300001002F0000002F000085
:102C9000002F0000002F0001002E0000002E000079
:102CA000002E0001002D0000002D0000002D00006E
:102CB000002D0001002C0000002C0000002C000062
:102CC000002C0001002B0000002B0000002B000056
:102CD000002B0001002A0000002A0000002A00004A
:102CE000002A00010029000000290000002900003E
:102CF0000029000000290001002800000028000031
:102D00000028000000280000002800010027000023
:102D10000027000000270000002700000027000116
:102D2000002600000026000000260000002600000B
:102D300000260001002500000025000000250000FD
:102D400000250000002500000025000100240000EF
:102D500000240000002400000024000000240001E2
:102D600000230000002300000023000000230000D7
:102D700000230000002300000023000100220000C7
:102D800000220000002200000022000000220000BB
:102D900000220001002100000021000000210000AD
:102DA000002100000021000000210000002100019E
:102DB0000020000000200000002000000020000093
:102DC0000020000000200000002000000020000182
:102DD000001F0000001F0000001F0000001F000077
:102DE000001F0000001F0000001F0001001E000067
:102DF000001E0000001E0000001E00000024F4D48D
:102E00003050C38E20C2A24017828B7011127A916B
:102E10000D816CD90AA861E108C758660761514362
:102E2000061E4B5D05C145A7041A411104093D98D2
:102E300003713931034036DB0265339102D43054DB
:102E400002802E1D02632CEE01752AC501B028A058
:102E500001102781018F2564012B244B01E02234CE
:102E600001AC211F018D200D01801FFC00841EED8F
:102E700000971DDF00B81CD200E61BC600201BBC5B
:102E800000641AB200B219A8000A19A0006A1899C1
:102E900000D117910040178B00B516840031167EC3
:102EA00000B31579003A157300C7146F0058146AFF
:102EB00000EE1366008813630025135E00C7125BE3
:102EC000006C12570015125400C111510070114FBF
:102ED0000021114B00D61049008D104700461044C8
:102EE0000002104200C00F4000800F3E00420F3C25
:102EF00000060F3B00CB0E3800930E37005C0E35FA
:102F000000270E3400F30D3200C10D3100900D305A
:102F100000600D2E00320D2D00050D2C00D90C2B5C
:102F200000AE0C2900850C29005C0C2700350C270D
:102F3000000E0C2600E80B2400C40B2400A00B2379
:102F4000007D0B23005A0B2100390B2100180B20A8
:102F500000F80A1F00D90A1E00BB0A1E009D0A1DA8
:102F600000800A1D00630A1C00470A1B002C0A1B74
:102F700000110A1A00F7091A00DD091900C409191D
:102F800000AB091900920917007B091800630917A3
:102F9000004C09160036091600200916000A09150A
:102FA00000F5081500E0081400CC081400B8081457
:102FB00000A4081400900813007D0812006B081389
:102FC00000580812004608120034081100230811A6
:102FD000001208110001081100F0071000E00710AE
:102FE00000D0071000C0071000B0070F00A10710A5
:102FF0000091070E0083070F0074070F0065070E8E
:103000000057070E0049070E003B070D002E070E64
:103010000020070D0013070D0006070D00F9060C30
:1030200000ED060D00E0060C00D4060C00C8060CEE
:1030300000BC060C00B0060C00A4060B0099060CA0
:10304000008D060B0082060B0077060B006C060B4A
:103050000061060A0057060B004C060A0042060AE9
:103060000038060A002E060A0024060A001A060A7C
:10307000001006090007060A00FD050900F405090D
:1030800000EB050900E2050900D9050900D0050992
:1030900000C7050900BE050900B5050800AD050813
:1030A00000A50509009C050800940508008C05088A
:1030B00000840508007C050800740508006C0507FD
:1030C00000650508005D050700560508004E050768
:1030D00000470507004005080038050700310507CF
:1030E000002A050700230507001C05060016050732
:1030F000000F0507000805060002050700FB04068F
:1031000000F5040700EE040600E8040600E20407E8
:1031100000DB040600D5040600CF040600C904063F
:1031200000C3040600BD040600B7040600B1040590
:1031300000AC040600A6040600A00405009B0406DB
:103140000095040500900406008A04050085040526
:1031500000800406007A040500750405007004056B
:10316000006B04050066040500610405005C0405AD
:103170000057040500520405004D040500480405ED
:1031800000430405003E0404003A0405003504052C
:1031900000300404002C0405002704040023040567
:1031A000001E0404001A040400160405001104049F
:1031B000000D0404000904050004040400000404D4
:1031C00000FC030400F8030400F4030400F003040B
:1031D00000EC030400E8030400E4030400E003043B
:1031E00000DC030400D8030400D4030400D003046B
:1031F00000CC030400C8030300C503030020436F91
:10320000756E7420583A00426564004531004500EF
:10321000626564002C2073797374656D2073746F1C
:103220007070656421204865617465725F49443A35
:1032300020004572723A204D415854454D50004D82
:10324000415854454D5020747269676765726564D2
:103250000048656174696E67204661696C65640049
:1032600048656174696E67206661696C65640070A9
:10327000012C0190012701B0012201C0011D01F0C4
:103280000118011002130130020E016002090190C1
:10329000020401C002FF000003FA004003F50080B1
:1032A00003F000D003EB002004E6007004E100E02E
:1032B00004DC004005D700C005D2004006CD00D098
:1032C00006C8008007C3003008BE00F008B900C07F
:1032D00009B400B00AAF00B00BAA00D00CA50000E2
:1032E0000EA000500F9B00C01096005012910000DD
:1032F000148C00C0158700B0178200B0197D00D073
:103300001B7800001E730040206E0090226900F0C0
:1033100024640040275F0090295A00E02B550010DC
:103320002E500020304B0010324600E03341009018
:10333000353C001037370070383200A0392D00B00E
:103340003A2800A03B2300603C1E00103D1900906D
:103350003D1400103E0F00703E0A00C03E05000004
:103360003F0000403FFBFF803FF6FFC03FF1FF45BD
:1033700072723A204D494E54454D50004D494E54BD
:10338000454D5020747269676765726564005448E2
:1033900045524D414C2052554E41574159005468B9
:1033A00065726D616C2052756E6177617900202FB6
:1033B000002042403A0020403A0020573A007C3C2E
:1033C0003E5E2B3D3F2F5B5D3B2C2A225C004D6512
:1033D00064696120496E6974204661696C005344D8
:1033E0002063617264206F6B0A006F70656E526FAC
:1033F0006F74206661696C65640A00766F6C756D28
:10340000652E696E6974206661696C65640A004E98
:103410006F20534420636172640A00534420636147
:1034200072642072656C65617365640A000A4D32CE
:1034300034004D3233202573002E0A006F70656E04
:10344000206661696C65642C2046696C653A2000D1
:1034500046696C652073656C65637465640A002059
:1034600053697A653A200046696C65206F70656E15
:1034700065643A2000454E4420535542524F5554FE
:10348000494E450A002220706F730022207061723D
:10349000656E743A2200535542524F5554494E4579
:1034A0002043414C4C207461726765743A2200538A
:1034B000756263616C6C204F766572666C6F770025
:1034C0004578636565646564206D61782053554275
:1034D000524F5554494E452064657074683A005700
:1034E000726974696E6720746F2066696C653A2032
:1034F00000667265736800646F696E6700206669B4
:103500006C653A20004E6F7720002F6175746F252F
:10351000632E6700FFE0FFD1AFFF32FFD0FFFEFF59
:10352000E0FFD1AEFFD0FFFEFFE0FFD11000FFFEB5
:10353000FFD0FFE0FFC1FFD1AED580A83FD3004050
:103540008D142002A1C8DA1281CFD9F1DB402EA45C
:10355000A6AFFFD0FFFE026D61726C696E66772EBA
:103560006F7267006275676669782D322E312E782A
:10357000001FFFFFFFFFFFFF600000000001FF4092
:103580000000000000FF8000000000007F83CF00EB
:10359000000C303F87FF80000C301F867980000CC4
:1035A000000F8C30C7838C30E78C30CFC7CC31F321
:1035B0008C30DCECEC33B98C30D86C6C33198C303B
:1035C000D06C0C33198C30D86C0C33198C30DC6C0B
:1035D0000E3B198C30CF7C079F198C30C77C038F32
:1035E0001940000000000002600000000000061FFB
:1035F000FFFFFFFFFFF800000000300E0100C00ECB
:103600000A00500F1400D00F1E0060102800E010B8
:10361000320070113C00F01146007012500000138F
:103620005A008013640000146E0090147800101586
:10363000820090158C00101696009016A0001017AE
:10364000AA009017B4001018BE009018C8001019F6
:10365000D2009019DC00101AE600801AF000001B5E
:10366000FA00801B0401F01B0E01701C1801F01CF5
:103670002201601D2C01E01D3601501E4001D01EAC
:103680004A01401F5401B01F5E0130206801A02094
:10369000720110217C019021860100229001602698
:1036A000F401902A5802802EBC0250322003E035EB
:1036B00084035039E803803C4C042020506C616E38
:1036C0006E657242756666657242797465733A20FA
:1036D000002046726565204D656D6F72793A200055
:1036E00020436F6D70696C65643A204E6F762031AF
:1036F0003420323032320A00204C6173742055700D
:1037000064617465643A20323032322D31312D31AA
:1037100034207C20417574686F723A2028436F6FA3
:103720006C5A65726F4E4C2C2064656661756C74C2
:1037300020636F6E666967290A004D61726C696E5D
:10374000206275676669782D322E312E780A002046
:10375000536F6674776172652052657365740A00F1
:10376000205761746368646F672052657365740ADB
:10377000002042726F776E206F75742052657365FA
:10378000740A002045787465726E616C205265730E
:1037900065740A00506F77657255700A0073746122
:1037A00072740A004732385859004D3130303100B8
:1037B0006572726F722077726974696E6720746FB8
:1037C0002066696C650A00446F6E652073617669D6
:1037D0006E672066696C652E0A004D323900456EB1
:1037E0006473746F70730025532025632025632054
:1037F000256320256300205A3A0020593A002058BA
:103800003A00656E6473746F7073206869743A204F
:103810000000000A0B02090C0D0E0807030401004A
:103820000000000000000000000000000000000098
:103830000000000000000000000000000012111055
:103840000000000000000000000000000000000078
:103850000000000000000000000000000000000068
:1038600000000000000000C23100001C260000F42F
:10387000190000D80F0000EB080000C0040000751C
:10388000020000400100004D6F766520246D6D0040
:10389000302E303235004D6F766520302E316D6D13
:1038A000004D6F766520316D6D004D6F766520316E
:1038B000306D6D004D6F76652041786973004D6FF6
:1038C0007665202A004D6F7665204000FFFFFF439C
:1038D000616E6E6F74206F70656E207375626469BF
:1038E000722000220A00556E6B6E6F776E20636F38
:1038F0006D6D616E643A2022002042002050006FFE
:103900006B00204500205A0020590020204D3932FC
:1039100020580053746570732070657220756E694D
:103920007400DB0FC93F45BCDA3F8FB30240FCF0A7
:10393000274056946140FE4B9B4084A5D840E0232D
:103940001841346A5641E859974164DBD5416E27E6
:103950001742B4B75542CE1A9742C8AED542B58881
:103960005A43D40684BFA65FA7BF7443E0BF10B11B
:103970001AC01C2C58C0E8F697C0B849D6C04E4EA5
:1039800017C124D355C1802497C1A0B5D5C1121A3F
:1039900017C244AE55C2781797C26CACD5C26788BF
:1039A0005AC320746F6F206C6F6E672065787472D5
:1039B0007573696F6E2070726576656E7465640AE2
:1039C0000020636F6C6420657874727573696F6E24
:1039D0002070726576656E7465640A00486F6D6567
:1039E0002025732573257320466972737400204562
:1039F0003A00205A3A0020593A00583A006F6B0AB0
:103A000000526573656E643A2000000022002500B4
:103A100028002B002E0031003400020100000501B7
:103A200008010B0100002100240027002A002D00BE
:103A30003000330001010000040107010A010505FF
:103A40000505070508080808020202020A0A080814
:103A50000404040401010101010101010303030342
:103A600003030303040707070C0C0C0C0C0C0C0CD1
:103A70000202020206060606060606060B0B0B0BE2
:103A80000B0B0B0B07070A0A0A0A0A0A05050504AD
:103A9000040408080102102020080810204010200B
:103AA0004080020102010804020101020408102002
:103AB0004080804020100804020180040201804000
:103AC0002010080402010804020101020408102069
:103AD0004080010204081020408010080408801073
:103AE0002040044080102040048057616E68616F60
:103AF0002F4475706C696361746F72204436205274
:103B0000656164792E005072696E74696E672E2E3D
:103B10002E005072696E74205061757365640000E8
:103B20009A009E0011241FBECFEFD1E2DEBFCDBFB1
:103B300000E00CBF84B780937C1614BE0FB6F894D7
:103B4000A895809160008861809360001092600069
:103B50000FBE13E0A0E0B2E0E8EFFFE402E00BBF2D
:103B600002C007900D92AE3AB107D9F726E1AEEA4E
:103B7000B3E001C01D92AC37B207E1F71DE1C1E926
:103B8000DDE100E006C021970109802FFE010F94BE
:103B90009724C039D10780E00807A9F70F940915C9
:103BA0000D94EB270C9400008F929F92AF92BF92DE
:103BB000CF92DF92EF92FF92CF936B017C0120E0D6
:103BC00030E0A9010F94202087FFA3C06DEB77E3BD
:103BD00086E095EBA70196010F94B8246B017C0158
:103BE00020E030E040E251E40F94852020E030E016
:103BF00048EC52E40F9485204B015C0120E030E05A
:103C000040E251ECC701B6010F942020181654F47D
:103C100020E030E048EC52E4C701B6010F94DE2604
:103C200087FD8BC020E030E0A901C701B6010F94E9
:103C3000202087FF73C060E070E080EA90ECA5016F
:103C400094010F94B82420E030E040E251E40F9456
:103C500094250F94FC256B017C01F7FC64C020E1E6
:103C600037E240E050E00F941C24CA01B9012AE079
:103C700030E040E050E00F941C24605D6093EA0562
:103C8000C701B60128EE33E040E050E00F941C2459
:103C90009AE0892E912CA12CB12CCA01B901A50161
:103CA00094010F941C24605D6093EB05C701B6017D
:103CB00024E630E040E050E00F941C24CA01B90132
:103CC000A50194010F941C24605D6093EC058EE2C5
:103CD0008093ED05C701B601A50194010F941C2442
:103CE000C62FCA01B901A50194010F941C24605D7F
:103CF0006093EE05C05DC093EF058AEE95E0CF912D
:103D0000FF90EF90DF90CF90BF90AF909F908F90FB
:103D100008956DEB77E386E095E35CCF60E070E0BB
:103D200080EA90E48CCFF094E094D094C094C11CCD
:103D3000D11CE11CF11C6DE2A1CF20E030E0A90113
:103D4000C701B6010F94202087FF6AC060E070E0D1
:103D500080EA90ECA50194010F94B82420E030E0B3
:103D600040E251E40F9494250F94FC254B015C0133
:103D700020E030E0A901C701B6010F94DE2687FDDF
:103D80000BC020E030E040E251E4C701B6010F94DF
:103D9000202060E287FD13C0B7FC47C0C501B40115
:103DA00028EE33E040E050E00F941C24CA01B90132
:103DB0002AE030E040E050E00F941C24605D609306
:103DC000EB05C501B40124E630E040E050E00F947B
:103DD0001C248AE0C82ED12CE12CF12CCA01B90197
:103DE000A70196010F941C24605D6093EC058EE2A0
:103DF0008093ED05C501B401A70196010F941C2421
:103E0000C62FCA01B901A70196010F941C24605D59
:103E10006093EE05C05DC093EF058BEE95E06FCF2C
:103E200060E070E080EA90E495CFB094A094909424
:103E30008094811C911CA11CB11C6DE2C0CF6091CB
:103E4000340270913502072E000C880B990B0F94E9
:103E500026202AE037ED43E25CE30F948520209191
:103E60000F063091100640911106509112060F94E2
:103E7000852060936D0270936E0280936F02909321
:103E80007002089580917208811104C080916405C8
:103E900080939E080895809147158823C1F0815032
:103EA00080934715E0E9F3E1882351F08150990BA5
:103EB0002BE1289FF001299FF00D1124E75CFB4EB8
:103EC0008BE1A5E7B3E101900D928A95E1F720918E
:103ED0004715211105C080915215806480935215B9
:103EE00081E090E0A0E0B0E0211103C080E090E02C
:103EF000DC018093640890936508A0936608B093F2
:103F000067081092690881E080935E0883E08093DF
:103F10006C02089581E08093B403089582E0809359
:103F2000B4030895CF93DF93EC01CB01BA010F9452
:103F3000262029EC38EC48EC5EE30F94942520E031
:103F400030E040E05FE30F94B8240F9401266883CB
:103F5000DF91CF910895E091720886E0E802F001C8
:103F60001124EF5AF74F8091640590E09583848384
:103F700008952CEA35EC47E25EE360915A057091B2
:103F80005B0580915C0590915D050F94942560938D
:103F9000640670936506809366069093670608959D
:103FA0002CEA35EC47E25EE36091560570915705C7
:103FB00080915805909159050F9485206093600673
:103FC00070936106809362069093630608958091D2
:103FD000520590915305A0915405B09155058093D9
:103FE0005C0690935D06A0935E06B0935F0608950D
:103FF0008F929F92AF92BF92CF92DF92EF92FF92F9
:10400000CF936B017C0120E030E0A9010F942020C8
:1040100087FD9FC06DEB77E386E095E3A7019601EE
:104020000F94B8246B017C0120E030E040E251E4C1
:104030000F94852020E030E048EC52E40F94852076
:104040004B015C0120E030E0A901C701B6010F94EB
:10405000202020E030E040EA50E487FF04C020E068
:1040600030E040EA50ECC501B4010F94B82420E0E0
:1040700030E040E251E40F9494250F94FC256B014D
:104080007C018BE2F7FE09C0F094E094D094C094D8
:10409000C11CD11CE11CF11C8DE28093E905C70114
:1040A000B60120E137E240E050E00F941C248AE0A2
:1040B000882E912CA12CB12CCA01B901A501940123
:1040C0000F941C24605D6093EA05C701B60128EED9
:1040D00033E040E050E00F941C24CA01B901A5016F
:1040E00094010F941C24605D6093EB05C701B60139
:1040F00024E630E040E050E00F941C24CA01B901EE
:10410000A50194010F941C24605D6093EC058EE280
:104110008093ED05C701B601A50194010F941C24FD
:10412000C62FCA01B901A50194010F941C24605D3A
:104130006093EE05C05DC093EF0589EE95E0CF91E9
:10414000FF90EF90DF90CF90BF90AF909F908F90B7
:1041500008956DEB77E386E095EB60CF8F929F92A9
:10416000AF92BF92CF92DF92EF92FF92CF936B010B
:104170007C0120E030E0A9010F94202087FDC3C01E
:104180006DEB77E386E095E3A70196010F94B824E1
:104190006B017C0120E030E0A9010F94202087FF13
:1041A000B7C0C701B601905820E030E040E251E4CA
:1041B0000F94852020E030E040E251E40F94852008
:1041C00020E030E040EA50E40F94B82420E030E0F2
:1041D00040E251E40F9494250F94FC256B017C017F
:1041E00060E280EAC81686E8D80681E0E806F104B5
:1041F0008CF0C701B60120EA36E841E050E00F94A8
:104200001C24CA01B9012AE030E040E050E00F94DC
:104210001C24605D6093E90560E280E1C81687E2D6
:10422000D806E104F1048CF0C701B60120E137E2C1
:1042300040E050E00F941C24CA01B9012AE030E0AC
:1042400040E050E00F941C24605D6093EA0560E25A
:1042500088EEC81683E0D806E104F1048CF0C701AB
:10426000B60128EE33E040E050E00F941C24CA0170
:10427000B9012AE030E040E050E00F941C24605D7A
:104280006093EB0560E284E6C816D104E104F10412
:104290008CF0C701B60124E630E040E050E00F9416
:1042A0001C24CA01B9012AE030E040E050E00F943C
:1042B0001C24605D6093EC058AE0882E912CA12C73
:1042C000B12CC701B601A50194010F941C24C62F7F
:1042D000CA01B901A50194010F941C24605D60938B
:1042E000ED058EE28093EE05C05DC093EF0589EE8B
:1042F00095E0CF91FF90EF90DF90CF90BF90AF907F
:104300009F908F9008956DEB77E386E095EB3CCF1F
:1043100020E030E040E251E4C701B60149CF8F927E
:104320009F92AF92BF92CF92DF92EF92FF92CF9384
:104330006B017C0120E030E0A9010F94202087FD73
:1043400093C06DEB77E386E095E3A70196010F94A8
:10435000B8246B017C0120E030E040E251E40F948E
:10436000852020E030E04AE754E40F9485204B019B
:104370005C0120E030E0A901C701B6010F942020C4
:1043800020E030E040EA50E487FF04C020E030E065
:1043900040EA50ECC501B4010F94B82420E030E0AD
:1043A00040E251E40F9494250F94FC256B017C01AD
:1043B000C114D104E104F10409F45BC0F7FE59C053
:1043C000F094E094D094C094C11CD11CE11CF11C69
:1043D0008DE28093EA05C701B60128EE33E040E0A4
:1043E00050E00F941C248AE0882E912CA12CB12C33
:1043F000CA01B901A50194010F941C24605D60936A
:10440000EB058EE28093EC05C701B60124E630E0AF
:1044100040E050E00F941C24CA01B901A5019401A9
:104420000F941C24605D6093ED05C701B601A501E2
:1044300094010F941C24C62FCA01B901A50194014F
:104440000F941C24605D6093EE05C05DC093EF0582
:104450008AEE95E0CF91FF90EF90DF90CF90BF90E4
:10446000AF909F908F9008956DEB77E386E095EB8A
:104470006CCF80E2AECFCF93DF93EC01CB01BA01DA
:104480000F94262020E030E040E251E40F94942580
:10449000688379838A839B83DF91CF910895CF933B
:1044A000DF93EC01CB01BA010F94262020E030E02D
:1044B00040E251E40F949425688379838A839B8337
:1044C000DF91CF9108950F94262020E030E040E264
:1044D00051E40F94942542CECF93DF93EC01CB01AE
:1044E000BA010F9426202AE037ED43E25DE30F94F2
:1044F00094250F940126688379838A839B83DF91B7
:10450000CF910895CF93DF93EC01CB01BA010F94C3
:1045100026202AE037ED43E25DE30F94942568837B
:1045200079838A839B83DF91CF910895CF93DF9323
:10453000EC01CB01BA010F942620688379838A832A
:104540009B83DF91CF910895CF93DF93EC01CB0153
:10455000BA010F942620688379838A839B83DF9135
:10456000CF910895CF93DF93EC01CB01BA010F9463
:10457000262020E030E048EC52E40F949425688334
:1045800079838A839B83DF91CF910895CF93DF93C3
:10459000EC01CB01BA010F94262020E030E048EC7A
:1045A00052E40F949425688379838A839B83DF91F7
:1045B000CF9108950F94262020E030E048EC52E49B
:1045C0000F94942515CDCF93DF93EC01CB01BA0165
:1045D0000F9426200F94FC2579836883DF91CF9177
:1045E0000895CF93DF93EC01CB01BA010F942620FD
:1045F00020E030E04AE754E40F94942568837983FF
:104600008A839B83DF91CF9108950F94262020E029
:1046100030E04AE754E40F94942581CE0F9426208D
:1046200020E030E048EC52E40F949425BDCACF93CB
:10463000DF93EC01CB01BA010F9426202AE037ED7D
:1046400043E25CE30F9494250F94012668837983F9
:104650008A839B83DF91CF910895CF92DF92EF926F
:10466000FF9223EF34E045E35FE360917A087091B5
:104670007B0880917C0890917D080F9485202AE129
:1046800036EF45E95EE30F9494256B017C01609160
:10469000BE087091BF088091C0089091C1080F9426
:1046A00024209B01AC01C701B6010F9485200F9413
:1046B00023276093920870939308809394089093B3
:1046C0009508FF90EF90DF90CF90089580CC68CC54
:1046D00050CC2CEA35EC47E25EE360915A057091CC
:1046E0005B0580915C0590915D050F949425609326
:1046F0004D0870934E0880934F089093500808958A
:104700002CEA35EC47E25EE360915605709157055F
:1047100080915805909159050F9485206093490820
:1047200070934A0880934B0890934C0808958091A9
:10473000520590915305A0915405B0915505809371
:10474000450890934608A0934708B09348080895F9
:10475000FC0184910895FC0180810895E0914A054F
:10476000E63028F581E08E0F80934A054091640879
:1047700050916508609166087091670820916908FA
:1047800090915D088091B90339E0E39FF001112415
:10479000EB5FFA4FA091F613B091F713B183A083AA
:1047A0004283538364837583268397838087089528
:1047B000FC01A081B1811C92A281B3818C918F5F99
:1047C0008C930280F381E02D90818CE0989F800D86
:1047D0001124E8EFF3E113AE84AF0895009751F090
:1047E000FC0180E09191992331F0907C9038D1F3D5
:1047F0008F5FF8CF80E0089590E080E00895CF9239
:10480000DF92EF92FF92CF93C82F0F9476096B013E
:104810007C0124EA30E74DE75FE360911F0270916D
:10482000200280912102909122020F94202087FD86
:1048300018C08AEF90E0A0E0B0E08C0D9D1DAE1D89
:10484000BF1D8093EB049093EC04A093ED04B09310
:10485000EE04C0930F02CF91FF90EF90DF90CF90C6
:10486000089580E090E0DC01E8CFCF92DF92EF92F4
:10487000FF920F931F930F9476090091BF0410913C
:10488000C0042091C1043091C2046B017C01C01AA4
:10489000D10AE20AF30A9701860137FD11C020917F
:1048A000BE0420952093BE046A547C4F8F4F9F4FC7
:1048B0006093BF047093C0048093C1049093C204BA
:1048C00081E09091BE04911101C080E01F910F9191
:1048D000FF90EF90DF90CF900895CF93DF93CDB707
:1048E000DEB720E2488559856F818E810F94C00420
:1048F000DF91CF9108950F9426200F94FC25CB01D2
:104900000C9487DE0F94262029EC38EC48EC5EE30B
:104910000F94942520E030E040E05FE30F94B8244A
:104920000F940126862F0C94BCDE609164058FEFF6
:104930000D94D01380916405682F0D94D0136FEF00
:10494000809164050D94D0136DE47CE482E00D94B5
:1049500040126FE47CE481E00D94401261E57CE458
:1049600080E00D9440126FEF79E483E00D944012E3
:10497000CF92DF92EF92FF92CF93DF9300D01F92FE
:10498000CDB7DEB76B017C0120E030E0A9010F94C8
:10499000202087FD1BC06DEB77E386E095E3A70140
:1049A00096010F94B82469837A838B839C83CE010C
:1049B00001960E9461DD0F900F900F900F90DF9194
:1049C000CF91FF90EF90DF90CF9008956DEB77E35C
:1049D00086E095EBE4CF0F94262020E030E040E223
:1049E00051E40F949425C4CF0E9484FC0E94797BEB
:1049F000882331F08CE295E09093F6078093F507D9
:104A00000C94D6DB8F929F92AF92BF92EF92FF925F
:104A10000F931F93CF93DF93EC018B01E42EF22EC3
:104A20008091F6139091F7138C179D07D9F110928E
:104A3000B60325E3C83ED20709F03FC0865F94461F
:104A400071F40F9476096E517B4F8F4F9F4F609397
:104A50004B0570934C0580934D0590934E05D09374
:104A6000F713C093F61330E020E00093640810932E
:104A700065082093660830936708E0926908F09211
:104A80005D08C65FD44621F41092B90310924A051E
:104A900082E080936C0281E080935E081092600552
:104AA00010925105DF91CF911F910F91FF90EF90E0
:104AB000BF90AF909F908F90089524E6C63FD20795
:104AC00071F6885E9543D9F40F94760980904B0572
:104AD00090904C05A0904D05B0904E05681979094D
:104AE0008A099B0997FF0BC08091E5078770873083
:104AF00031F40E945B7BC2E8D5E28111B0CFC6EFF2
:104B0000D4E6ADCF20E040E070E060E08EE599E4CF
:104B100079DF81E08093B9031092B8031092B70354
:104B2000089520E040E070E060E083EB94E26ACF1B
:104B3000CF93C1E0C093B903FC0180819181A28130
:104B4000B38180931F0290932002A0932102B0931F
:104B5000220220E040E070E060E080916A089091DD
:104B60006B0850DFC093B603CF910895CF93DF93C6
:104B700000D01F92CDB7DEB78DEC9CECACECBCE363
:104B800089839A83AB83BC83CE010196D1DF0F90DA
:104B90000F900F900F90DF91CF910895CF93DF93F7
:104BA00000D01F92CDB7DEB78DEC9CECACECBDE332
:104BB00089839A83AB83BC83CE010196B9DF0F90C2
:104BC0000F900F900F90DF91CF910895CF93DF93C7
:104BD00000D01F92CDB7DEB780E090E0A0E8BFE341
:104BE00089839A83AB83BC83CE010196A1DF0F90AA
:104BF0000F900F900F90DF91CF910895CF93DF9397
:104C000000D01F92CDB7DEB780E090E0A0E2B1E423
:104C100089839A83AB83BC83CE01019689DF0F9091
:104C20000F900F900F90DF91CF91089520E040E01A
:104C300070E060E086EF94E6E5CE10929E080E9458
:104C40005FBAF4CF81ED92E10E9458B0EFDF0C948F
:104C500084FC8CEA96E09093F6078093F507E6CF04
:104C600081E00C94F17A8091590690915A060E9445
:104C7000AC79811107C086E098E09093F6078093A5
:104C8000F507089520E040E070E060E080E691E7FD
:104C9000B9CE0F931F93CF93DF93CDB7DEB76E9747
:104CA0000FB6F894DEBF0FBECDBF282F082E000C24
:104CB000330B90911102409112028F3F39F0F901AC
:104CC000EE0FFF1FED5EFD4F908141814F939F934B
:104CD0003F938F9381EC95E09F938F938E010F5FAD
:104CE0001F4F1F930F930F94B91F4FE350E0B8016C
:104CF00087EF97E00F94D12799DF0FB6F894DEBFC6
:104D00000FBECDBF6E960FB6F894DEBF0FBECDBFFF
:104D1000DF91CF911F910F9108958FEFBACF8091BE
:104D20007208B7CFCF93DF9300D01F92CDB7DEB715
:104D30000F9401260F94242069837A838B839C83AC
:104D4000CE0101960E94DEDC0F900F900F900F9025
:104D5000DF91CF9108950F9426202AE037ED43E2AA
:104D60005DE30F949425DECF0F9426202AE037EDE3
:104D700043E25CE30F949425D5CFCF92DF92EF927C
:104D8000FF92CF93DF9300D01F92CDB7DEB76B01B8
:104D90007C0120E030E0A9010F94202087FD1BC09A
:104DA0006DEB77E386E095E3A70196010F94B824B5
:104DB00069837A838B839C83CE0101960E94DEDC1B
:104DC0000F900F900F900F90DF91CF91FF90EF9089
:104DD000DF90CF9008956DEB77E386E095EBE4CF1D
:104DE0000F9426202AE037ED43E25DE30F949425EB
:104DF000C4CF0F942620C1CFCF92DF92EF92FF92C3
:104E00006B017C0120E030E0A9010F94202087FD98
:104E100026C06DEB77E386E095E3A70196010F943A
:104E2000B8246B017C0120E030E0A9010F94202020
:104E300020E030E040E05FE387FF04C020E030E0A6
:104E400040E05FEBC701B6010F94B8240F94FC2536
:104E5000CB01FF90EF90DF90CF900C94DDDD6DEBF8
:104E600077E386E095EBD9CF0F942620C5CF0C943D
:104E700003C30C9403C30C9485C20C9485C20C9498
:104E800085C20C9485C2EF92FF920F931F93CF932C
:104E9000DF93EC018B017A018A859B858617970742
:104EA00031F0888199810F94120C1B870A87B70112
:104EB000888199810F942D052E813F81820F932F38
:104EC000911D9F838E8390E080E0DF91CF911F91B1
:104ED0000F91FF90EF9008959F92AF92BF92CF9263
:104EE000DF92EF92FF920F931F93CF93DF93EC012A
:104EF0008B01942EA52E8A859B858617970731F006
:104F0000888199810F94120C1B870A87888599855F
:104F1000019649F5BC800A818E81080FC880D9802E
:104F2000D6015596ED91FC91C6011995B80EE92C64
:104F3000FA2C10E0F70121917F01211127C08E8109
:104F40009F81810F911D9F838E8390E080E0DF9190
:104F5000CF911F910F91FF90EF90DF90CF90BF9076
:104F6000AF909F9008950E811F81692D7A2D8881C1
:104F700099810F942D05800F912F911D28853985DA
:104F80002817390738F681E090E0E1CF4B2D602FEC
:104F9000C6010F946A0C080F180FCCCFDF92EF9266
:104FA000FF920F931F93CF93DF93EC01D62E1CAD8E
:104FB0000BAD7C0184E0E80EF11CE98DFA8DC70190
:104FC0001995412F480F2D2D602FC7010F946A0CA2
:104FD0009BAD890F8BAF81E090E0DF91CF911F9166
:104FE0000F91FF90EF90DF900895CF92DF92EF92B4
:104FF000FF920F931F93CF93DF93CDB7DEB72C971C
:105000000FB6F894DEBF0FBECDBFF0903314E09022
:1050100034142091BD0421111DC041EC53E06E2DCC
:105020008F2D0F94D50C90E080E0F80EF0923314A1
:10503000E092341499272C960FB6F894DEBF0FBE79
:10504000CDBFDF91CF911F910F91FF90EF90DF9037
:10505000CF900895C0900014D09001142CEF33E14C
:105060003A8329832F2D30E03C832B832E2D30E093
:105070003E832D8318861F827A8769871C861B864C
:105080000CE617E29E012F5F3F4F48EA53E2BC0156
:10509000C6010E9420FCB6018CEF93E10F94120C24
:1050A0008F819885C2CF0E9481C2882339F020E089
:1050B00040E070E060E08BE29DE3A4CC32CD6F92E3
:1050C0007F928F929F92AF92BF92CF92DF92EF9298
:1050D000FF920F931F93CF93DF93CDB7DEB72C973B
:1050E0000FB6F894DEBF0FBECDBF3B0140E050E0ED
:1050F00068EC72E44D835E836F83788740E050E014
:1051000060EA70E449875A876B877C878130A9F110
:10511000823009F466C020E030E040E050E4609165
:10512000420E7091430E8091440E9091450E0F9463
:10513000B8244B018C0120E030E04AE253E40F94A4
:10514000DE26181624F4812C912C0AE213E4F301D4
:10515000A084B184C284D3849401A801B501C6019E
:105160000F94DE26181614F054016801C501D6010B
:1051700089839A83AB83BC8357C0BE01675F7F4F2F
:10518000C30108960E940DD7E090420EF090430EA6
:105190000091440E1091450EF30124813581468122
:1051A00057816081718182819381FE0135966F0103
:1051B0000E9455D60E9438D82C960FB6F894DEBFC0
:1051C0000FBECDBFDF91CF911F910F91FF90EF9058
:1051D000DF90CF90BF90AF909F908F907F906F9017
:1051E0000895F30120853185428553856091420EF3
:1051F0007091430E8091440E9091450E0F94B82407
:105200006B017C0120E030E04AE253E40F9420205F
:1052100087FD06C0C12CD12C8AE2E82E83E4F82E4B
:10522000C982DA82EB82FC82BE01675F7F4FCE01CA
:105230000196A8CF2F923F924F925F926F927F92EA
:105240008F929F92AF92BF92CF92DF92EF92FF9296
:105250000F931F93CF93DF9300D000D0CDB7DEB76D
:105260000F9476090091CC071091CD072091CE07BD
:105270003091CF07011511052105310509F00AC349
:105280002091E413222309F44AC0E091E213215053
:105290002093E41321E02E0F2093E2133091E513C5
:1052A000231302C01092E21324E0E29FF0011124C4
:1052B000EA51FC4E00811181228133810093C8079D
:1052C0001093C9072093CA073093CB07600F711F53
:1052D000811D911D6093CC077093CD078093CE07FD
:1052E0009093CF078091CA079091CB07892BB9F093
:1052F0008FB78E83F8942090C8073090C90721019A
:10530000712C612C0091CA071091CB07809160022B
:105310008231F1F08F3F09F495C09E819FBF2696A0
:105320000FB6F894DEBF0FBECDBFDF91CF911F91B6
:105330000F91FF90EF90DF90CF90BF90AF909F9034
:105340008F907F906F905F904F903F902F90089537
:10535000E6E5F5E394919D8397FDDFCF82E10E941E
:105360008DFF8D81882321F09D81923009F0BCC191
:105370004801B12CA12C60E072E18AE790E0A50120
:1053800098010F941C2429833A834B835C83690121
:105390007A0121E0C21AD108E108F1088FEFC8169E
:1053A000D104E104F10409F00CF46EC160E472E48C
:1053B0008FE090E0A50198010F941C2469017A0107
:1053C00091E0C91AD108E108F1082D81223009F0D5
:1053D0000FC18FEFC816D104E104F10409F00CF4F9
:1053E000BFC260E970ED83E090E0A50198010F94E1
:1053F0001C2469017A0191E0C91AD108E108F10879
:1054000083E02FEFC216D104E104F10409F00CF49B
:10541000A0C268E478EE81E090E0A50198010F94C5
:105420001C2469017A0181E0C81AD108E108F10859
:105430009FEFC916D104E104F10411F00CF0FCC097
:1054400084E087C282E180936002E6E5F5E324917F
:105450002D83822F2F3F09F460CF223009F468C0DA
:1054600058F4222379F1213009F444C087FD55CF47
:1054700082E10E948DFF78CF9D81943009F49AC01B
:1054800008F478C0953091F7109220011092210114
:1054900080912101886080932101809121018160A8
:1054A00080932101E0E5FAE3E491F0E0EE0FFF1FC5
:1054B000E65FF54C85919491E6EAFAE3E491E09396
:1054C00068054CCF14BC15BC84B5826084BD85B51D
:1054D000816085BDE0E5FAE3E491F0E0EE0FFF1FA7
:1054E000E65FF54C85919491E6EAFAE3E491E09366
:1054F0006C0534CF10928000109281008091810061
:105500008860809381008091810081608093810018
:10551000E0E5FAE3E491F0E0EE0FFF1FE65FF54C03
:1055200085919491E6EAFAE3E491E0936B0516CF56
:105530001092B0001092B1008091B0008260809310
:10554000B0008091B10081608093B100E0E5FAE3A2
:10555000E491F0E0EE0FFF1FE65FF54C859194912A
:105560009093C1078093C007E6EAFAE3E491E093E1
:10557000C207F4CE10929000109291008091910099
:105580008860809391008091910081608093910068
:10559000E0E5FAE3E491F0E0EE0FFF1FE65FF54C83
:1055A00085919491E6EAFAE3E491E0936A0523E0B9
:1055B0002D83D4CE1092A0001092A1008091A10062
:1055C00088608093A1008091A10081608093A100F8
:1055D000E0E5FAE3E491F0E0EE0FFF1FE65FF54C43
:1055E00085919491E6EAFAE3E491E0936905B6CEF9
:1055F0008FEFC816D104E104F10409F00CF472C075
:1056000068E478EE81E090E0A50198010F941C24F5
:1056100069017A0191E0C91AD108E108F1082D81E8
:10562000222309F462C12FEFC216D104E104F10470
:1056300011F00CF063C104CF64E274EF80E090E0FD
:10564000A50194010F941C2469017A0181E0C81A14
:10565000D108E108F10885E09FEFC916D104E10403
:10566000F10409F008F475C162E17AE780E090E0A6
:10567000A50194010F941C2469017A0181E0C81AE4
:10568000D108E108F1084CC181E02D81211161C1EF
:1056900095B5987F892B85BD2FEF3FEFA901452850
:1056A0004628472809F048C09D81923009F4E2C09D
:1056B0000CF0C9C0992309F4CEC0913009F02DCE69
:1056C000D0928900C09288002093790530937A05A2
:1056D00040937B0550937C0580916F00826080939E
:1056E0006F001BCE82E0D1CFB12CA12C60E072E123
:1056F0008AE790E0A50198010F941C2469017A01C2
:1057000081E0C81AD108E108F108C114D10491E080
:10571000E906F104F4F491E02D81213059F58091EE
:105720008100887F892B809381002FEF3FEFA901B3
:1057300045284628472821F29801220F331FD1011E
:105740000F94482428EE33E040E050E00F94FA2311
:10575000ABCF68E478EE81E090E0A50198010F946A
:105760001C2469017A0181E0C81AD108E108F10816
:1057700093E0D2CF8D818330F9F480919100887FBE
:10578000892B809391002FEF3FEFA90145284628F0
:10579000472891F6D0929900C09298002093750501
:1057A000309376054093770550937805809171008A
:1057B000826080937100B1CD2D81243001F58091FC
:1057C000A100887F892B8093A1002FEF3FEFA901D3
:1057D00045284628472809F0AFCFD092A900C092AB
:1057E000A800209371053093720540937305509380
:1057F0007405809172008260809372008ECD8D81DD
:10580000853009F049CF80912101887F892B8093D1
:1058100021012FEF3FEFA90145284628472809F02D
:105820008BCFD0922901C092280120936D0530932F
:105830006E0540936F0550937005809173008260F0
:10584000809373006ACD8D81843039F20CF4A2CF3D
:10585000853039F362CDC7BC20937D0530937E053A
:1058600040937F055093800580916E008260809305
:105870006E0053CDC092B3002093C3073093C4078A
:105880004093C5075093C607809170008260809353
:10589000700043CD601B710B820B930B97FD3FCDC6
:1058A0005B981092CC071092CD071092CE07109201
:1058B000CF0735CDC980DA80EB80FC809AE0F59483
:1058C000E794D794C7949A95D1F721E0C21AD108EA
:1058D000E108F10885E0DCCE8FEFC816D104E104C1
:1058E000F10409F038F784E0D3CE83E09FEFC916C6
:1058F000D104E104F10409F00CF4CACE62E17AE7C4
:1059000080E090E0A50194010F941C2469017A01C4
:1059100081E0C81AD108E108F1089D819923E1F2DC
:1059200086E02FEFC216D104E104F10491F088F073
:10593000C980DA80EB80FC808AE0F594E794D79404
:10594000C7948A95D1F791E0C91AD108E108F10806
:1059500087E09091B100987F892B8093B1009CCE15
:1059600082E0F7CF0F931F93CF93DF938C01EB016E
:105970009091E4132091E513921304C05BDC0E9424
:10598000F4C4F6CF8091E31334E0839FF001112437
:10599000EA51FC4E11830083D383C2839F5F9093AF
:1059A000E4138F5F281739F08093E313DF91CF91D1
:1059B0001F910F9108951092E313F8CF63E972E0FD
:1059C00084E690E0CFDF70E060E08AE090E0CADF3C
:1059D0006AEB72E084E690E0C5CF8111EFCF68E218
:1059E00070E080E991E0BECF0E9417BFF6CF0E9421
:1059F00038E4F3CFCF930E9497D90E9417BFC82FE6
:105A0000882319F080E00E947EBE8C2FE6DFCF91C4
:105A10000DC98AE39BE09093F6078093F507CECFFC
:105A200080E09BE09093F6078093F507C7CF0E9434
:105A300097D9C4CFCF93DF93C0915906D0915A061E
:105A4000209729F16091550670915606809157066E
:105A5000909158060F94FC256E5F7F4F24976C172A
:105A60007D07ACF470934C0660934B060F94760957
:105A7000605C73468F4F9F4F60934D0670934E0648
:105A800080934F0690935006DF91CF910895109226
:105A90004D0610924E0610924F0610925006F4CF0B
:105AA000C9CFCF93DF93EC010E94AE2320E040E00A
:105AB00070E060E0CE01DF91CF910C94022561117E
:105AC00060931D024093B503EFEFE80FEB3008F051
:105AD00036C00E2E000CFF0B8827EE58F24D8F4F6C
