:100000000C944C1D0C948C1D0C948C1D0C948C1D0C
:100010000C948C1D0C948C1D0C948C1D0C948C1DBC
:100020000C948C1D0C948C1D0C948C1D0C948C1DAC
:100030000C948C1D0D94F6080C948C1D0C948C1D46
:100040000C948C1D0C94BEBC0C948C1D0C948C1DBB
:100050000C948C1D0C9435B90C948C1D0D94AC082B
:100060000C948C1D0C94B1840C94A7840C948C1D5E
:100070000C948C1D0C948C1D0C948C1D0C948C1D5C
:100080000C948C1D0C948C1D0C948C1D0C948C1D4C
:100090000C948C1D0C948C1D0C948C1D0D94C30D14
:1000A0000C948C1D0C948C1D0C948C1D0C948C1D2C
:1000B0000C948C1D0C948C1D0C948C1D0C948C1D1C
:1000C0000C948C1D0C948C1D0C948C1D0C948C1D0C
:1000D0000C948C1D0C948C1D0C948C1D0C948C1DFC
:1000E0000C948C1D084AD73B3BCE016E84BCBFFDEF
:1000F000C12F3D6C74319ABD56833DDA3D00C77FF8
:1001000011BED9E4BB4C3E916BAAAABE0000008090
:100110003F05A84CCDB2D44EB93836A9020C50B91F
:10012000918688083CA6AAAA2ABE000000803F004B
:100130000D9467070D945B070D9496070D947E0749
:100140000D9470070D949A070D9449070D94630759
:100150000D9482070D94B11A0D945F070D947407E6
:100160000D946A070D9488070D9444070D948C072D
:100170000D947A070D9490070D9424134E414E4927
:100180004E495459494E46CDCCCC3D0AD7233C1755
:10019000B7D13877CC2B329595E6241FB14F0A00A2
:1001A0000020410000C84200401C4620BCBE4CCA92
:1001B0001B0E5AAEC59D74554E4C4F4144204649C6
:1001C0004C414D454E54004C4F41442046494C4112
:1001D0004D454E540046494C414D454E54204348F0
:1001E000414E47450041425300504C410020573A90
:1001F0000042656420436F6F6C696E672E2E2E007F
:100200004265642048656174696E672E2E2E002356
:10021000646566696E652044454641554C545F00EF
:1002200000626564004B6420004B6920004B702025
:10023000002066696E6973686564212050757420BA
:10024000746865206C617374204B702C204B69209E
:10025000616E64204B6420636F6E7374616E74739F
:100260002066726F6D2062656C6F7720696E746FA7
:1002700020436F6E66696775726174696F6E2E6870
:100280000A00504944204175746F74756E650020F2
:100290006661696C6564212074696D656F75740AA7
:1002A00000504944204175746F74756E6500206676
:1002B00061696C6564212054656D70657261747547
:1002C000726520746F6F20686967680A005049443E
:1002D000204175746F74756E6500504944204379F0
:1002E000636C65730025532025692F256900204B19
:1002F000643A2000204B693A2000204B703A2000DD
:1003000020436C617373696320504944200A0020C4
:100310004E6F206F76657273686F6F740A00205499
:10032000753A2000204B753A2000206D61783A2004
:1003300000206D696E3A200020643A200020626936
:1003400061733A200048656174696E672E2E2E0035
:100350002073746172740A00504944204175746FAF
:1003600074756E6500206661696C65642120546552
:100370006D706572617475726520746F6F20686945
:1003800067680A00504944204175746F74756E6542
:1003900000504944204175746F74756E6500206685
:1003A00061696C65642120426164206865617465DF
:1003B000722069640A00504944204175746F747555
:1003C0006E65004572723A207574663820666F6EED
:1003D00074206E6F7420696E697469616C697A65E6
:1003E000642E004572723A207574663820666F6E0E
:1003F00074206E6F7420696E697469616C697A65C6
:10040000642E004572723A207574663820666F6EED
:1004100074206E6F7420696E697469616C697A65A5
:10042000642E00453A0042656400456E636C6F734C
:10043000757265002568753A25303268750025307B
:100440003268753A25303268750025303268752774
:10045000253032687500256875642025303268754E
:100460003A253032687500657272001FE020102056
:1004700010201010201020201020103030084004D0
:100480008003001FE03FF03FF03FF01FE01FE03F20
:10049000F03FF03FF00FC0078003003FFFF038004F
:1004A0007030FC3020FC102078102030102C00D050
:1004B0002E31D02F7BD02F7BD02E31D02C00D020CE
:1004C000301020781020FC1030FC303800703FFFD6
:1004D000F03FFFF038007031863023871027879077
:1004E0002F87D02F03D020301020781020781020B4
:1004F00030102F03D02F87D0278790238710318685
:10050000303800703FFFF01FFFF81FFFF804104065
:10051000020820020820041040082080104100102A
:1005200041000820800410400000001FFFF81FFF5A
:10053000F85072696E742041626F72746564004D88
:1005400032350050617573696E672E2E2E004D3264
:100550003400454550524F4D2056657273696F6E99
:10056000204572726F7200454550524F4D20496EC2
:10057000646578204572726F7200454550524F4D48
:1005800020435243204572726F72003F0049676EEC
:100590006F726500526573657400496E69746961B4
:1005A0006C697A6520454550524F4D0045005A0010
:1005B0005859004C6F6164206D6D00556E6C6F6111
:1005C00064206D6D0046696C2E204469612E0045E3
:1005D00020696E206D6D5E3300416476616E6365E7
:1005E000204B004D333033205531204525692053B1
:1005F000256900504944204175746F74756E6520FB
:100600002A005049442D44202A005049442D4920B5
:100610002A005049442D50202A00200820466163BA
:1006200074002008204D6178002008204D696E007C
:100630004F6666004F6E004175746F74656D700093
:100640004D696E2054726176656C205370656564E7
:10065000004D696E2056656C6F63697479004D6159
:10066000782040205370656564004D6178204520F6
:10067000416363656C004D61782040204163636590
:100680006C0054726176656C20416363656C005246
:1006900065747261637420416363656C00416363D8
:1006A000656C00402073746570732F6D6D0041643C
:1006B00076616E6365642053657474696E67730058
:1006C0003F0043616E63656C00496E6974004D3490
:1006D000323800496E697469616C697A65204545F4
:1006E00050524F4D0046696C616D656E74005465E3
:1006F0006D7065726174757265004472697665200B
:10070000537472656E6774680053746570732F6DEF
:100710006D004A756E6374696F6E204465760041A2
:100720006363656C65726174696F6E004D617820FA
:10073000537065656420286D6D2F732900536574AF
:1007400020486F6D65204F66667365747300436F54
:100750006E66696775726174696F6E0042656400E8
:100760004E6F7A7A6C650046616E205370656564E1
:1007700000436F6E66696775726174696F6E0052CF
:100780006573746F72652044656661756C7473007F
:100790004C6F61642053657474696E6773005374A1
:1007A0006F72652053657474696E6773005072656B
:1007B00068656174202420436F6E66004164766131
:1007C0006E6365642053657474696E677300437566
:1007D00073746F6D20436F6D6D616E6473004D6156
:1007E000696E004D37303220542564004D3630306C
:1007F00020423020542564004D373032203B2564A0
:10080000004D37303120542564004368616E6765C0
:100810002046696C616D656E740050726568656133
:100820007420437573746F6D0050726568656174F0
:100830002024004261636B004D363030423000436B
:100840006F6E74696E7565005075726765206D6FA7
:10085000726500524553554D45204F5054494F4EF7
:10086000533A005052494E5420504155534544008C
:1008700020204E6F7A7A6C653A20005061726B6965
:100880006E672E2E2E0000005761697420666F720D
:100890000066696C616D656E74206368616E676582
:1008A00000746F20737461727400576169742066FC
:1008B0006F720066696C616D656E7420756E6C6F29
:1008C000616400004E6F7A7A6C65206865617469B6
:1008D0006E6700506C6561736520776169742E2EB8
:1008E0002E0000507265737320627574746F6E0011
:1008F000746F2068656174206E6F7A7A6C65000091
:10090000496E736572742066696C616D656E740002
:10091000616E6420707265737320627574746F6E9B
:1009200000746F20636F6E74696E7565005761693E
:100930007420666F720066696C616D656E74206C00
:100940006F61640000507265737320427574746F38
:100950006E00746F20726573756D65207072696EBC
:100960007400005761697420666F72207072696E3E
:100970007400746F20726573756D652E2E2E0000E5
:100980005761697420666F720066696C616D656E8F
:100990007420707572676500003E2000256C642E1F
:1009A00025696D00457874727564656420546F74B0
:1009B000616C003E20004C6F6E67657374204A6F57
:1009C000622054696D65003E20005072696E74208B
:1009D00054696D6500436F6D706C65746564003AB1
:1009E00020005072696E7420436F756E74003A2057
:1009F000003135300035004245443A204550434FE0
:100A000053203130304B0052756E61776179205739
:100A1000617463683A204F4E004D61782054656DD3
:100A20007000323735004D696E2054656D700035A9
:100A30000045313A20507431303020556C74694D86
:100A400042203576005053550047656E65726963E4
:100A50000050726F746F636F6C00312E3000426112
:100A600075640032353030303000556C74696D611A
:100A70006B657220322E78004578747275646572E9
:100A8000730031006D61726C696E66772E6F7267EC
:100A90000057616E68616F2F4475706C6963617493
:100AA0006F7220443600323032322D31312D3133E5
:100AB000006275676669782D322E312E78004D619F
:100AC000726C696E005072696E7465722053746145
:100AD000747300546865726D6973746F7273004249
:100AE0006F61726420496E666F005072696E746542
:100AF0007220496E666F004D61696E004F66660038
:100B00004F6E004C69676874204272696768746E42
:100B100065737300436F6E66696775726174696FA0
:100B20006E0043617365204C69676874004D6169AC
:100B30006E003F004261636B0053746F70003F00B2
:100B40004E4F00594553004E6F204D65646961005A
:100B50005072696E742066726F6D204D65646961B4
:100B6000004368616E6765204D65646961004D32C0
:100B700031004368616E67652046696C616D656E22
:100B800074004C69676874730041626F757420501B
:100B900072696E74657200436F6E66696775726123
:100BA00074696F6E0054656D7065726174757265FD
:100BB000004D6F74696F6E00526573756D652050DE
:100BC00072696E740054756E650053746F702050B6
:100BD00072696E74005061757365205072696E742D
:100BE00000496E666F2053637265656E003F005367
:100BF00074617274205072696E740043616E636533
:100C00006C005072696E740043616E6E6F74206583
:100C10006E746572207375626469723A20000220F6
:100C20002E2E004D61696E002100486F74656E6460
:100C300020746F6F20636F6C64004261636B0050BF
:100C4000726F63656564004D6F76652045787472D8
:100C500075646572004D6F74696F6E0044697361ED
:100C6000626C65205374657070657273004D383422
:100C7000004732385A004732385900486F6D6520B6
:100C8000400047323858004175746F20486F6D65D9
:100C900000473238004D61696E00507265686561C9
:100CA0007420242042656400507265686561742078
:100CB0002420456E640054656D70657261747572B0
:100CC0006500E901E501436F6F6C646F776E00505A
:100CD00072656865617420240046616E20537065FA
:100CE000656400426564004E6F7A7A6C65004D6100
:100CF000696E00546F74616C00426162797374654F
:100D000070205A004261627973746570204000411E
:100D10006476616E6365204B00466C6F77004661B8
:100D20006E20537065656400426564004E6F7A7A88
:100D30006C65005370656564004D61696E00000C60
:100D40000F00FE07022503BB017FFE08FE08FE051B
:100D5000080806000040F0C8888898781005080840
:100D6000060000C0F88888888888F8050505060010
:100D7000012030F830200508080600002070F82017
:100D8000202020E00509090600FF2070A8A8B888E7
:100D9000887020070505070001D86C366CD8050956
:100DA000090600FFF8A88888888888A8F8050A0A34
:100DB0000600FE205050505088A8A88870030303F6
:100DC00006000340A040FFFFFFFFFFFFFFFFFFFF04
:100DD000FFFFFFFFFFFFFFFFFFFFFFFF0000000619
:100DE00005FF0107070602008080808080008003E5
:100DF0000303060105A0A0A005060606000050F8A2
:100E00005050F8500509090600FF2070A8A070286E
:100E1000A87020050707060000C8C8102040989851
:100E200005070706000040A0A040A8906801030342
:100E30000602058080800309090601FF20404080EA
:100E400080804040200309090601FF8040402020A7
:100E50002040408005070706000020A8702070A8E9
:100E6000200505050600012020F8202002030306C6
:100E700001FFC04080050101060003F802020206DE
:100E80000100C0C005070706000008101020404000
:100E900080050707060000708898A8C888700307B7
:100EA0000706010040C040404040E005070706003B
:100EB00000708808102040F8050707060000F808B1
:100EC000103008887005070706000010305090F8B1
:100ED0001010050707060000F880F0080888700564
:100EE0000707060000304080F08888700507070675
:100EF0000000F808101020202005070706000070E9
:100F000088887088887005070706000070888878D0
:100F1000081060020505060100C0C000C0C002063E
:100F2000060601FFC0C000C04080030505060101A0
:100F30002040804020050303060002F800F8030566
:100F4000050601018040204080050707060000706B
:100F50008810202000200507070600007088B8A828
:100F6000B88070050707060000708888F8888888B0
:100F7000050707060000F04848704848F0050707D5
:100F800006000070888080808870050707060000D2
:100F9000F04848484848F0050707060000F88080F8
:100FA000F08080F8050707060000F88080F0808058
:100FB0008005070706000070888080988870050704
:100FC00007060000888888F88888880307070601D4
:100FD00000E04040404040E00507070600003810B0
:100FE00010101090600507070600008890A0C0A0B0
:100FF0009088050707060000808080808080F805C3
:10100000070706000088D8A888888888050707068B
:1010100000008888C8A8988888050707060000701F
:10102000888888888870050707060000F08888F09F
:1010300080808005070706000070888888A890686F
:10104000050707060000F08888F0A09088050707CC
:101050000600007088807008887005070706000089
:10106000F820202020202005070706000088888817
:10107000888888700507070600008888888850508F
:101080002005070706000088888888A8A85005075B
:10109000070600008888502050888805070706004A
:1010A0000088885020202020050707060000F80847
:1010B00010204080F80309090601FFE0808080804D
:1010C000808080E005070706000080404020101067
:1010D000080309090601FFE020202020202020E04D
:1010E0000503030600052050880501010600FEF8EF
:1010F0000303030601058040200505050600007076
:10110000087888780507070600008080F0888888BE
:10111000F005050506000070808088700507070649
:1011200000000808788888887805050506000070A2
:1011300088F08070050707060000304840E0404016
:10114000400507070600FE70888888780870050744
:10115000070600008080F08888888803070706015A
:10116000004000C0404040E00409090601FE1000B4
:10117000301010101090600507070600008080886E
:1011800090E09088030707060100C04040404040BF
:10119000E0050505060000D0A8A8A8A805050506D5
:1011A0000000B0C88888880505050600007088889A
:1011B00088700507070600FEF0888888F0808005A3
:1011C00007070600FE788888887808080505050660
:1011D0000000B0C88080800505050600007880709A
:1011E00008F00507070600002020F8202020180539
:1011F0000505060000888888986805050506000032
:1012000088888850200505050600008888A8A85011
:1012100005050506000088502050880507070600D0
:10122000FE88888850204080050505060000F810DB
:101230002040F80309090601FF204040408040405B
:1012400040200109090602FF808080808080808024
:10125000800309090601FF80404040204040408053
:1012600005030306000248A890FF00060900FE06D9
:10127000020F038401FFFE07FE06FE0507070000BC
:101280000040F0C888987810050707000000C0F8F3
:1012900088888888F80505050000012030F830208E
:1012A0000507070000002070F8202020E005070750
:1012B0000000002070A8B888702006050500000016
:1012C000B0D86CD8B00508080000FFF8A888888856
:1012D00088A8F80509090000FE205050505088A841
:1012E000887003030300000340A040FFFFFFFFFFDF
:1012F000FFFFFFFFFFFFFFFFFFFFFFFFFFFFFFFFFE
:10130000FF0000000605FF0106060602008080803F
:10131000800080030303060103A0A0A005070706C1
:1013200000FF5050F850F850500509090600FE2003
:1013300070A8A07028A870200608080600FF40A822
:101340004810204854080507070600FF6090906089
:101350009890680103030602038080800207070655
:1013600002FF408080808080400207070602FF80E5
:101370004040404040800505050600008850F85078
:10138000880505050600002020F820200204040638
:1013900002FEC0404080050101060002F802020280
:1013A000060200C0C004060606010010102040809E
:1013B0008004060606010060909090906003060687
:1013C00006010040C0404040E004060606010060FF
:1013D00090102040F0040606060100F02060101076
:1013E000E005060606000010305090F810040606CE
:1013F000060100F080E01010E0040606060100601F
:1014000080E0909060040606060100F01010204075
:101410004004060606010060906090906004060695
:10142000060100609090701060020505060200C081
:10143000C000C0C00207070602FEC0C000C0404096
:101440008005050506000018608060180503030686
:101450000001F800F8050505060000C0300830C09E
:101460000407070601006090106040004005060672
:101470000600007090A8B0807005060606000020E7
:101480005088F88888050606060000F088F08888ED
:10149000F004060606010060908080906004060655
:1014A000060100E090909090E0040606060100F02E
:1014B00080E08080F0040606060100F080E0808075
:1014C00080040606060100609080B0906004060665
:1014D0000601009090F0909090030606060100E04F
:1014E00040404040E005060606000038101010900D
:1014F0006004060606010090A0C0A09090040606B5
:101500000601008080808080F005060606000088C5
:10151000D8A8A8888804060606010090D0B090904C
:101520009005060606000070888888887004060604
:10153000060100E09090E080800407070601FF604C
:101540009090D0B06010040606060100E09090E094
:101550009090040606060100609040209060050609
:1015600006060000F82020202020040606060100C0
:10157000909090909060040606060100909090F084
:1015800060600506060600008888A8A8D8880506B9
:101590000606000088502020508805060606000038
:1015A000888850202020040606060100F010204004
:1015B00080F0030606060100E080808080E00406DB
:1015C0000606010080804020101003060606010078
:1015D000E020202020E005030306000320508805BA
:1015E00001010600FEF80202020602048040040423
:1015F00004060100709090700406060601008080C9
:10160000E09090E0040404060100708080700406FD
:10161000060601001010709090700404040601008A
:1016200060B0C070040606060100205040E0404053
:101630000406060601FE609090701060040606061F
:1016400001008080E09090900306060601004000B3
:10165000C04040E00308080601FE20006020202072
:10166000A0400406060601008080A0C0A0900306EA
:1016700006060100C040404040E0050404060000AA
:10168000D0A8A888040404060100E0909090040407
:1016900004060100609090600406060601FEE090DA
:1016A00090E080800406060601FE70909070101095
:1016B000040404060100A0D0808004040406010094
:1016C00070C030E00406060601004040E0405020B3
:1016D00004040406010090909070040404060100C4
:1016E0009090606005040406000088A8A8500404D7
:1016F00004060100906060900406060601FE9090CA
:1017000090709060040404060100F02040F003078C
:1017100007060100204040804040200107070602E4
:10172000FF80808080808080030707060100804062
:10173000402040408004020206010350A0FFFFFF4A
:10174000FFFFFFFFFFFFFFFFFFFFFFFFFFFFFFFFA9
:10175000FFFFFFFFFFFFFFFFFFFFFFFFFFFF000097
:10176000000605FF010606060200800080808080DA
:101770000406060601FF2070A0A0702005070706DA
:1017800000FF304840F04040F8050505060000A87D
:10179000508850A80506060600008850F820F8205A
:1017A0000107070602FF8080800080808004070711
:1017B0000601FF708060906010E0030101060105E2
:1017C000A0060707060000788494A4948478030593
:1017D0000506010160A06000E0050505060000287F
:1017E00050A05028040303060100F010100401016A
:1017F000060102F00607070600007884B4A4A4845A
:1018000078040101060105F004030306010260905B
:10181000600507070600FF2020F8202000F80305D8
:101820000506010140A02040E0030505060101C0B6
:10183000204020C002020206020440800405050682
:1018400001FF9090B0D08005060606000078E8E819
:10185000682828010101060202800202020602FE37
:10186000408003050506010140C04040E003050536
:1018700006010140A04000E0050505060000A0505B
:101880002850A00508080600FF40C040507030787E
:10189000100508080600FF40C040506808103805D1
:1018A00008080600FFC0204030F030781004070719
:1018B00006010020002060809060050707060000F8
:1018C000402020507088880507070600001020205F
:1018D0005070888805070706000020502050708847
:1018E00088050707060000285020507088880507E3
:1018F0000706000050002050708888050707060082
:10190000002050205070888805060606000078A048
:10191000F0A0A0B80408080601FE609080809060E6
:1019200020400407070601004020F080E080F0041A
:1019300007070601002040F080E080F0040707065A
:1019400001002050F080E080F004070706010050FD
:1019500000F080E080F00307070601008040E040CF
:101960004040E00307070601002040E0404040E01F
:1019700003070706010040A0E0404040E0030707DE
:10198000060100A000E0404040E005060606000019
:101990007048E848487004070706010050A090D03E
:1019A000B09090040707060100402060909090607E
:1019B000040707060100204060909090600407072C
:1019C0000601002050609090906004070706010017
:1019D00050A06090909060040707060100500060DE
:1019E00090909060050505060000885020508804FE
:1019F00008080601FF1070B0B0D0D0E080040707DF
:101A000006010040209090909060040707060100B6
:101A100020409090909060040707060100205090AD
:101A200090909060040707060100500090909090FD
:101A300060050707060000102088502020200406BB
:101A40000606010080E09090E08004060606010092
:101A50006090A0A090A0040707060100402000703D
:101A6000909070040707060100204000709090706D
:101A700004070706010020500070909070040707CB
:101A800006010050A0007090907004060606010048
:101A900050007090907004070706010020502070DD
:101AA00090907005040406000070A8B07804060643
:101AB0000601FE7080807020400407070601004088
:101AC000200060B0C07004070706010020400060DD
:101AD000B0C07004070706010020500060B0C0705D
:101AE000040606060100500060B0C0700307070638
:101AF0000100804000C04040E003070706010020CD
:101B00004000C04040E003070706010040A000C0BD
:101B10004040E0030606060100A000C04040E0048B
:101B200007070601003060107090906004070706F8
:101B3000010050A000E090909004070706010040CB
:101B400020006090906004070706010020400060BC
:101B5000909060040707060100205000609090609C
:101B600004070706010050A000609090600406067C
:101B700006010050006090906005050506000020F9
:101B800000F8002004040406010070B0D0E004074F
:101B9000070601004020009090907004070706019E
:101BA000002040009090907004070706010020502C
:101BB00000909090700406060601005000909090EE
:101BC000700409090601FE2040009090907090601A
:101BD0000408080601FE8080E09090E08080040800
:101BE000080601FE5000909090709060434F4D4D5C
:101BF000554E49434154494F4E0044525952554E57
:101C0000004552524F525300494E464F00454348FB
:101C10004F004572726F722077726974696E672027
:101C2000746F20454550524F4D210A0053544F5078
:101C30005045442E20005072696E74657220737492
:101C40006F707065642064756520746F20657272B2
:101C50006F72732E204669782074686520657272F1
:101C60006F7220616E6420757365204D393939209B
:101C7000746F20726573746172742E202854656DC0
:101C80007065726174757265206973207265736521
:101C9000742E205365742069742061667465722007
:101CA00072657374617274696E67290A004E6F20E1
:101CB000436865636B73756D2077697468206C6920
:101CC0006E65206E756D6265722C204C6173742098
:101CD0004C696E653A20004E6F20436865636B73F4
:101CE000756D2077697468206C696E65206E756DFE
:101CF0006265722C204C617374204C696E653A20C9
:101D000000636865636B73756D206D69736D6174D5
:101D100063682C204C617374204C696E653A200016
:101D20004C696E65204E756D626572206973206E18
:101D30006F74204C617374204C696E65204E756D14
:101D40006265722B312C204C617374204C696E6576
:101D50003A20004D3131300053657269616C207357
:101D60007461747573206D69736D617463680A00C2
:101D700053442072656164206572726F720A007448
:101D80006F6F206D75636820696E61637469766535
:101D90002074696D65202D2063757272656E7420E4
:101DA000636F6D6D616E643A20002121204B494CB8
:101DB0004C206361757365642062792000627573DD
:101DC000793A2070617573656420666F7220696E60
:101DD0007075740A00627573793A20706175736565
:101DE0006420666F7220757365720A00627573797C
:101DF0003A2070726F63657373696E670A004D6590
:101E00006469612052656D6F766564004D65646933
:101E10006120496E73657274656400506C6561730E
:101E200065205265736574005052494E54455220E6
:101E300048414C5445440025533A202553004B4912
:101E40004C4C45442E20005072696E7465722068B7
:101E5000616C7465642E206B696C6C282920636149
:101E60006C6C6564210A006563686F3A00457272A4
:101E70006F723A00486F74656E6420746F6F2063F0
:101E80006F6C640A0020440020204D323030205313
:101E900000202844697361626C6564293A004669D0
:101EA0006C616D656E742073657474696E67730020
:101EB00020204D3230312058004D6178204163633D
:101EC000656C65726174696F6E2028756E697473D4
:101ED0002F7332290020204D3230332058004D61BD
:101EE00078206665656472617465732028756E6913
:101EF00074732F73290020520020204D323034207B
:101F00005000416363656C65726174696F6E20286F
:101F1000756E6974732F7332292028503C70726972
:101F20006E742D616363656C3E20523C7265747201
:101F30006163742D616363656C3E20543C7472610F
:101F400076656C2D616363656C3E2900204A002034
:101F5000540020530020204D32303520420041648F
:101F600076616E6365642028423C6D696E5F7365BF
:101F7000676D656E745F74696D655F75733E205340
:101F80003C6D696E5F66656564726174653E205480
:101F90003C6D696E5F74726176656C5F66656564E1
:101FA000726174653E204A3C6A756E635F64657653
:101FB0003E290020440020490020204D33303120AC
:101FC0005000486F74656E642050494400204400FE
:101FD00020490020204D33303420500042656420D9
:101FE0005049440020204D39303720580053746543
:101FF00070706572206D6F746F7220637572726598
:102000006E747300496E736572742066696C616DDD
:10201000656E7420616E64207072657373206275E2
:1020200074746F6E0A0050726573732062757474F5
:102030006F6E20746F2068656174206E6F7A7A6CA1
:10204000650A00496E736572742066696C616D651E
:102050006E7420616E642070726573732062757493
:10206000746F6E0A00203B0020550020204D363052
:1020700033204C0046696C616D656E74206C6F6135
:10208000642F756E6C6F6164003B200020496E7692
:10209000616C6964206578747275646572200047AC
:1020A000322F47332062616420706172616D657404
:1020B0006572730A00536C6565702E2E2E00436C9A
:1020C00069636B20746F20526573756D652E2E2EBB
:1020D000004E6F204D6F76652E00456E6420666958
:1020E0006C65206C6973740A00426567696E2066CE
:1020F000696C65206C6973740A004E6F206D6564AD
:1021000069610A00286E6F2066696C652900437555
:102110007272656E742066696C653A20004E6F7449
:10212000205344207072696E74696E670A005344CC
:10213000207072696E74696E672062797465200020
:102140002E0A0044656C6574696F6E206661696C67
:1021500065642C2046696C653A200046696C6520F0
:1021600064656C657465643A005072696E742074BD
:10217000696D653A20000A53746174733A204669A8
:102180006C616D656E7420757365643A20002C2057
:102190004C6F6E67657374206A6F623A2000546FEB
:1021A00074616C2074696D653A20005374617473B6
:1021B0003A20002C204661696C65643A20002C208E
:1021C00046696E69736865643A20005072696E747E
:1021D000733A200053746174733A20006F6B006F80
:1021E0006666000D1C081C011CFA1BEC1B444542D2
:1021F00055473A004D3131322053687574646F771A
:102200006E004D31313320530057616E68616F2F7E
:102210004475706C696361746F72204436204F4658
:10222000462E002F2F004D31343520533C696E640B
:1022300065783E206F7574206F662072616E6765E9
:102240002028302D31290A003F4A206F7574206FF5
:10225000662072616E67652028302E303120746FE1
:1022600020302E33290A002058004F4646004F4E9A
:102270000020204D61783A2000200020204D696E1A
:102280003A2000203B200020204D323131205300E5
:10229000536F667420656E6473746F70730046527A
:1022A0003A0020466C6F773A20004261627973747D
:1022B0006570205A0064697300656E0043290A0046
:1022C00061626C656420286D696E2074656D702094
:1022D00000436F6C64206578747275646573206167
:1022E000726520004F666673657473204170706C70
:1022F000696564004572723A20546F6F206661729E
:102300002100546F6F206661722066726F6D2072BB
:1023100065666572656E636520706F696E740A002C
:10232000454550524F4D204F4B0A002E0A002028A1
:10233000302D313029002076616C7565206F757401
:10234000206F662072616E676500416476616E631E
:1023500065204B3D004F46460A0043617365206C83
:10236000696768743A20004D383400446F6E652008
:102370007072696E74696E672066696C650A004DDB
:102380003737004D333100496E76616C69642065E2
:10239000787472756465720A0020204D32303620E0
:1023A0005800486F6D65206F666673657400436101
:1023B000703A00434F4E4649475F4558504F52547C
:1023C000004D4541545041434B00434F4F4C455203
:1023D0005F54454D50455241545552450043484184
:1023E0004D4245525F54454D50455241545552451A
:1023F00000424142595354455050494E47004152C2
:102400004353004D4F54494F4E5F4D4F4445530089
:10241000544845524D414C5F50524F5445435449E6
:102420004F4E00455854454E4445445F4D323000B0
:10243000435553544F4D5F4649524D574152455FA6
:1024400055504C4F4144004C464E5F5752495445FD
:10245000004C4F4E475F46494C454E414D4500416B
:1024600055544F5245504F52545F53445F5354415B
:102470005455530053445F575249544500524550F8
:10248000454154004D554C54495F564F4C554D45B0
:10249000005344434152440050524F4D50545F53F7
:1024A0005550504F525400484F53545F4143544984
:1024B0004F4E5F434F4D4D414E445300454D4552A5
:1024C00047454E43595F5041525345520043415393
:1024D000455F4C494748545F4252494748544E452E
:1024E000535300544F47474C455F4C49474854535A
:1024F00000534F4654574152455F504F5745520085
:102500004255494C445F50455243454E54004C455A
:1025100056454C494E475F44415441005A5F505222
:102520004F42450052554E4F5554004155544F4C63
:102530004556454C005052494E545F4A4F42005058
:10254000524F4752455353004155544F5245504FF7
:1025500052545F54454D50004155544F5245504FD1
:1025600052545F504F5300564F4C554D45545249AD
:102570004300454550524F4D0042494E4152595F2C
:1025800046494C455F5452414E53464552005345CF
:102590005249414C5F584F4E5F584F46460046499E
:1025A000524D574152455F4E414D453A4D61726C17
:1025B000696E206275676669782D322E312E78201B
:1025C000284E6F7620313320323032322031313A8A
:1025D00035383A34362920534F555243455F434FDF
:1025E00044455F55524C3A6769746875622E636F53
:1025F0006D2F556C74696D616B65722F4D61726CD6
:10260000696E2050524F544F434F4C5F56455253C2
:10261000494F4E3A312E30204D414348494E455F97
:10262000545950453A57616E68616F2F4475706C0C
:10263000696361746F722044362045585452554482
:1026400045525F434F554E543A3120555549443A0F
:1026500063656465326132662D343161322D343701
:1026600034382D396231322D633535633632663375
:1026700036376666002569730025696D2025697304
:10268000002569682025696D202569730025696426
:10269000202569682025696D2025697300256979E1
:1026A00020256964202569682025696D20256973C6
:1026B00000436F6F6C696E672E2E2E00453120250A
:1026C0005300486F6D696E67204661696C656400F0
:1026D0006F70656E00545249474745524544003A71
:1026E00020007A5F6D696E00795F6D696E00785FBA
:1026F0006D696E005265706F7274696E6720656EE9
:102700006473746F70207374617475730A0020743D
:102710006F6F206C6F6E6720657874727573696F68
:102720006E2070726576656E7465640A0020636F52
:102730006C6420657874727573696F6E2070726551
:1027400076656E7465640A000000000000000000F9
:10275000000000005761726E696E673A20486F6D25
:10276000696E672042756D702044697669736F7277
:10277000203C20310A0002020400004843000048C7
:102780004300002A430000A0400000A040000000D9
:1027900040000048430000484300002A4300000076
:1027A00000000000000000000053657474696E674B
:1027B000732053746F72656400290A002062797473
:1027C00065733B20637263200053657474696E67A0
:1027D000732053746F7265642028004861726463CB
:1027E0006F6465642044656661756C74205365741C
:1027F00074696E6773204C6F616465640020286D96
:102800006D290020460020480020204D313435201D
:1028100053004D6174657269616C206865617475FF
:102820007020706172616D65746572730020204D57
:10283000393030204B004C696E65617220416476FE
:10284000616E63650020204D3134392043203B20E8
:10285000556E69747320696E2043656C7369757376
:102860000A0054656D706572617475726520556EED
:10287000697473002020473231203B004C696E653B
:10288000617220556E69747300454550524F4D205A
:102890006461746173697A65206572726F722E0A61
:1028A00000290A002062797465733B2063726320FB
:1028B000002073746F7265642073657474696E6749
:1028C000732072657472696576656420280020281B
:1028D00063616C63756C6174656429210A00202151
:1028E0003D2000454550524F4D20435243206D69D5
:1028F000736D61746368202D202873746F72656432
:102900002920002053697A653A2000496E64657871
:102910003A200000009643000096430000A04000CB
:1029200000C8413914A0423914A042713DC8433354
:1029300033C642B80B0000B80B000064000000F47E
:10294000010000204D61726C696E3D563837290ACE
:1029500000454550524F4D2076657273696F6E2069
:102960006D69736D617463682028454550524F4D01
:102970003D0024F404D9201BC40C5C0E9804C40947
:102980005F0265077101F405F900FB04B300480418
:102990008700C10369005803550003034500BE02C8
:1029A0003A008402310053022A0029022500040261
:1029B0002000E4011C00C8011900AF0117009801B4
:1029C0001400840113007101100061011000510115
:1029D0000E0043010D0036010B002B010B002001FE
:1029E0000B00150109000C01090003010800FB00A0
:1029F0000800F3000800EB000700E4000600DE001A
:102A00000600D8000600D2000600CC000500C70072
:102A10000500C2000500BD000400B9000400B500B7
:102A20000400B1000400AD000400A9000400A500EA
:102A30000300A20003009F0004009B000300980015
:102A400003009500020093000300900003008D0036
:102A500002008B0003008800020086000200840050
:102A60000300810002007F0002007D0002007B0065
:102A70000200790002007700010076000200740075
:102A8000020072000100710002006F0002006D0080
:102A900001006C0002006A0001006900020067008A
:102AA0000100660001006500010064000200620090
:102AB000010061000100600001005F0002005D0094
:102AC00001005C0001005B0001005A000100590098
:102AD0000100580001005700010056000100550098
:102AE0000100540001005300000053000100520097
:102AF000010051000100500001004F0001004E0094
:102B000000004E0001004D0001004C0001004B0090
:102B100000004B0001004A0001004900010048008C
:102B20000000480001004700010046000000460088
:102B30000100450000004500010044000100430081
:102B4000000043000100420000004200010041007B
:102B5000000041000100400001003F0000003F0074
:102B600001003E0000003E0001003D0000003D006D
:102B700001003C0000003C0000003C0001003B0064
:102B800000003B0001003A0000003A00010039005B
:102B90000000390001003800000038000000380053
:102BA0000100370000003700010036000000360049
:102BB000000036000100350000003500000035003F
:102BC0000100340000003400000034000100330034
:102BD000000033000000330001003200000032002A
:102BE000000032000100310000003100000031001F
:102BF00001003000000030000000300001002F0014
:102C000000002F0000002F0000002F0001002E0008
:102C100000002E0000002E0001002D0000002D00FD
:102C200000002D0000002D0001002C0000002C00F1
:102C300000002C0000002C0001002B0000002B00E5
:102C400000002B0000002B0001002A0000002A00D9
:102C500000002A0000002A000100290000002900CD
:102C600000002900000029000000290001002800C0
:102C700000002800000028000000280000002800B4
:102C800001002700000027000000270000002700A7
:102C9000000027000100260000002600000026009A
:102CA000000026000000260001002500000025008D
:102CB0000000250000002500000025000000250080
:102CC0000100240000002400000024000000240073
:102CD0000000240001002300000023000000230066
:102CE0000000230000002300000023000000230058
:102CF000010022000000220000002200000022004B
:102D0000000022000000220001002100000021003C
:102D1000000021000000210000002100000021002F
:102D20000000210001002000000020000000200021
:102D30000000200000002000000020000000200013
:102D40000000200001001F0000001F0000001F0005
:102D500000001F0000001F0000001F0000001F00F7
:102D600001001E0000001E0000001E0000001E00EA
:102D7000000024F4D43050C38E20C2A24017828BAE
:102D80007011127A910D816CD90AA861E108C758B7
:102D90006607615143061E4B5D05C145A7041A41F4
:102DA0001104093D9803713931034036DB02653364
:102DB0009102D4305402802E1D02632CEE01752A3C
:102DC000C501B028A001102781018F2564012B24A3
:102DD0004B01E0223401AC211F018D200D01801F29
:102DE000FC00841EED00971DDF00B81CD200E61B1E
:102DF000C600201BBC00641AB200B219A8000A1950
:102E0000A0006A189900D117910040178B00B516E1
:102E1000840031167E00B31579003A157300C7148B
:102E20006F0058146A00EE136600881363002513C0
:102E30005E00C7125B006C12570015125400C111DE
:102E4000510070114F0021114B00D61049008D1018
:102E500047004610440002104200C00F4000800F9F
:102E60003E00420F3C00060F3B00CB0E3800930E95
:102E700037005C0E3500270E3400F30D3200C10D13
:102E80003100900D3000600D2E00320D2D00050D2B
:102E90002C00D90C2B00AE0C2900850C29005C0CF1
:102EA0002700350C27000E0C2600E80B2400C40B6D
:102EB0002400A00B23007D0B23005A0B2100390BAB
:102EC0002100180B2000F80A1F00D90A1E00BB0AB7
:102ED0001E009D0A1D00800A1D00630A1C00470A8F
:102EE0001B002C0A1B00110A1A00F7091A00DD0941
:102EF0001900C4091900AB091900920917007B09D0
:102F00001800630917004C0916003609160020093D
:102F100016000A091500F5081500E0081400CC0891
:102F20001400B8081400A4081400900813007D08C9
:102F300012006B08130058081200460812003408EB
:102F40001100230811001208110001081100F007F8
:102F50001000E0071000D0071000C0071000B007F5
:102F60000F00A107100091070E0083070F007407E0
:102F70000F0065070E0057070E0049070E003B07BC
:102F80000D002E070E0020070D0013070D00060789
:102F90000D00F9060C00ED060D00E0060C00D4064D
:102FA0000C00C8060C00BC060C00B0060C00A40601
:102FB0000B0099060C008D060B0082060B007706AD
:102FC0000B006C060B0061060A0057060B004C064E
:102FD0000A0042060A0038060A002E060A002406E5
:102FE0000A001A060A001006090007060A00FD0575
:102FF0000900F4050900EB050900E2050900D905FF
:103000000900D0050900C7050900BE050900B5057E
:103010000800AD050800A50509009C0508009405F9
:1030200008008C050800840508007C05080074056C
:1030300008006C050700650508005D0507005605DA
:1030400008004E0507004705070040050800380541
:103050000700310507002A050700230507001C05A6
:103060000600160507000F05070008050600020503
:103070000700FB040600F5040700EE040600E80460
:103080000600E2040700DB040600D5040600CF04B6
:103090000600C9040600C3040600BD040600B70408
:1030A0000600B1040500AC040600A6040600A00456
:1030B00005009B04060095040500900406008A04A0
:1030C000050085040500800406007A0405007504E7
:1030D0000500700405006B0405006604050061042A
:1030E00005005C04050057040500520405004D046A
:1030F000050048040500430405003E0404003A04AA
:10310000050035040500300404002C0405002704E4
:103110000400230405001E0404001A04040016041D
:103120000500110404000D04040009040500040452
:10313000040000040400FC030400F8030400F4038A
:103140000400F0030400EC030400E8030400E403BB
:103150000400E0030400DC030400D8030400D403EB
:103160000400D0030400CC030400C8030300C5031B
:10317000030020436F756E7420583A004265640066
:103180004531004500626564002C207379737465D5
:103190006D2073746F70706564212048656174657B
:1031A000725F49443A20004572723A204D415854AA
:1031B000454D50004D415854454D5020747269673B
:1031C00067657265640048656174696E6720466171
:1031D000696C65640048656174696E672066616941
:1031E0006C65640070012C0190012701B00122017F
:1031F000C0011D01F00118011002130130020E017F
:103200006002090190020401C002FF000003FA00FD
:103210004003F5008003F000D003EB002004E6003B
:103220007004E100E004DC004005D700C005D200D6
:103230004006CD00D006C8008007C3003008BE009D
:10324000F008B900C009B400B00AAF00B00BAA0082
:10325000D00CA500000EA000500F9B00C0109600DF
:103260005012910000148C00C0158700B017820026
:10327000B0197D00D01B7800001E730040206E0046
:1032800090226900F024640040275F0090295A00D2
:10329000E02B5500102E500020304B00103246001D
:1032A000E033410090353C00103737007038320071
:1032B000A0392D00B03A2800A03B2300603C1E003E
:1032C000103D1900903D1400103E0F00703E0A00A2
:1032D000C03E0500003F0000403FFBFF803FF6FF7F
:1032E000C03FF1FF4572723A204D494E54454D5052
:1032F000004D494E54454D502074726967676572A0
:10330000656400544845524D414C2052554E41573A
:10331000415900546865726D616C2052756E617719
:10332000617900202F002042403A0020403A0020DE
:10333000573A007C3C3E5E2B3D3F2F5B5D3B2C2A89
:10334000225C004D6564696120496E6974204661A4
:10335000696C0053442063617264206F6B0A006FD4
:1033600070656E526F6F74206661696C65640A00E7
:10337000766F6C756D652E696E6974206661696C17
:1033800065640A004E6F20534420636172640A0032
:10339000534420636172642072656C656173656477
:1033A0000A000A4D3234004D3233202573002E0AB4
:1033B000006F70656E206661696C65642C204669DB
:1033C0006C653A200046696C652073656C656374B2
:1033D00065640A002053697A653A200046696C6585
:1033E000206F70656E65643A2000454E4420535549
:1033F00042524F5554494E450A002220706F7300C7
:103400002220706172656E743A2200535542524F09
:103410005554494E452043414C4C207461726765B8
:10342000743A220053756263616C6C204F7665724A
:10343000666C6F77004578636565646564206D61CF
:103440007820535542524F5554494E45206465707B
:1034500074683A0057726974696E6720746F2066E9
:10346000696C653A2000667265736800646F696E06
:1034700067002066696C653A20004E6F7720002F48
:103480006175746F25632E6700FFE0FFD1AFFF32D7
:10349000FFD0FFFEFFE0FFD1AEFFD0FFFEFFE0FF59
:1034A000D11000FFFEFFD0FFE0FFC1FFD1AED580FD
:1034B000A83FD300408D142002A1C8DA1281CFD9D1
:1034C000F1DB402EA4A6AFFFD0FFFE026D61726C4F
:1034D000696E66772E6F7267006275676669782D10
:1034E000322E312E78001FFFFFFFFFFFFF6000002C
:1034F000000001FF400000000000FF80000000000D
:10350000007F83CF00000C303F87FF80000C301F0E
:10351000867980000C000F8C30C7838C30E78C30AC
:10352000CFC7CC31F38C30DCECEC33B98C30D86CB9
:103530006C33198C30D06C0C33198C30D86C0C3344
:10354000198C30DC6C0E3B198C30CF7C079F198CAA
:1035500030C77C038F1940000000000002600000AB
:10356000000000061FFFFFFFFFFFF8000000003013
:103570000E0100C00E0A00500F1400D00F1E006094
:10358000102800E010320070113C00F0114600706D
:1035900012500000135A008013640000146E009053
:1035A0001478001015820090158C0010169600906B
:1035B00016A0001017AA009017B4001018BE0090B3
:1035C00018C8001019D2009019DC00101AE600800B
:1035D0001AF000001BFA00801B0401F01B0E0170A2
:1035E0001C1801F01C2201601D2C01E01D36015049
:1035F0001E4001D01E4A01401F5401B01F5E013021
:10360000206801A020720110217C01902186010018
:103610002290016026F401902A5802802EBC0250AC
:10362000322003E03584035039E803803C4C042009
:1036300020506C616E6E6572427566666572427985
:103640007465733A20002046726565204D656D6F84
:1036500072793A200020436F6D70696C65643A207E
:103660004E6F7620313320323032320A00204C61E6
:10367000737420557064617465643A20323032325C
:103680002D31312D3133207C20417574686F723AB1
:103690002028436F6F6C5A65726F4E4C2C20646506
:1036A0006661756C7420636F6E666967290A004DE8
:1036B00061726C696E206275676669782D322E3191
:1036C0002E780A0020536F66747761726520526508
:1036D0007365740A00205761746368646F672052D1
:1036E000657365740A002042726F776E206F75747F
:1036F0002052657365740A002045787465726E61A6
:103700006C2052657365740A00506F77657255704E
:103710000A0073746172740A004732385859004DB8
:1037200031303031006572726F722077726974695E
:103730006E6720746F2066696C650A00446F6E6561
:1037400020736176696E672066696C652E0A004D8C
:10375000323900456E6473746F70730025532025F1
:103760006320256320256320256300205A3A00202A
:10377000593A0020583A00656E6473746F70732074
:103780006869743A200000000A0B02090C0D0E084B
:10379000070304010000000000000000000000001A
:1037A0000000000000000000000000000000000019
:1037B00000001211100000000000000000000000D6
:1037C00000000000000000000000000000000000F9
:1037D000000000000000000000000000C2310000F6
:1037E0001C260000F4190000D80F0000EB080000B0
:1037F000C004000075020000400100004D6F7665B6
:1038000020246D6D00302E303235004D6F766520EE
:10381000302E316D6D004D6F766520316D6D004D30
:103820006F76652031306D6D004D6F766520417883
:103830006973004D6F7665202A004D6F76652040D4
:1038400000FFFFFF43616E6E6F74206F70656E2026
:103850007375626469722000220A00556E6B6E6F88
:10386000776E20636F6D6D616E643A202200204296
:10387000002050006F6B00204500205A00205900A6
:1038800020204D39322058005374657073207065C4
:103890007220756E697400DB0FC93F45BCDA3F8F3B
:1038A000B30240FCF0274056946140FE4B9B40849D
:1038B000A5D840E0231841346A5641E8599741643D
:1038C000DBD5416E271742B4B75542CE1A9742C88E
:1038D000AED542B5885A43D40684BFA65FA7BF744D
:1038E00043E0BF10B11AC01C2C58C0E8F697C0B80E
:1038F00049D6C04E4E17C124D355C1802497C1A0CC
:10390000B5D5C1121A17C244AE55C2781797C26C0A
:10391000ACD5C267885AC320746F6F206C6F6E6716
:1039200020657874727573696F6E20707265766544
:103930006E7465640A0020636F6C6420657874722D
:103940007573696F6E2070726576656E7465640A52
:1039500000486F6D652025732573257320466972B5
:1039600073740020453A00205A3A0020593A005812
:103970003A006F6B0A00526573656E643A2000006E
:10398000002200250028002B002E00310034000208
:10399000010000050108010B01000021002400279F
:1039A000002A002D0030003300010100000401074F
:1039B000010A0105050505070508080808020202B5
:1039C000020A0A08080404040401010101010101BA
:1039D000010303030303030303040707070C0C0C91
:1039E0000C0C0C0C0C020202020606060606060669
:1039F000060B0B0B0B0B0B0B0B07070A0A0A0A0A29
:103A00000A0505050404040808010210202008081E
:103A10001020401020408002010201080402010130
:103A20000204081020408080402010080402018019
:103A30000402018040201008040201080402010170
:103A40000204081020408001020408102040801069
:103A50000804088010204004408010204004805753
:103A6000616E68616F2F4475706C696361746F7209
:103A70002044362052656164792E005072696E745C
:103A8000696E672E2E2E005072696E74205061751B
:103A900073656400BC00AA0011241FBECFEFD1E201
:103AA000DEBFCDBF00E00CBF84B780937C1614BE90
:103AB0000FB6F894A89580916000886180936000AB
:103AC000109260000FBE13E0A0E0B2E0ECE0FEE474
:103AD00002E00BBF02C007900D92AE3AB107D9F7D2
:103AE00026E1AEEAB3E001C01D92AC37B207E1F7C0
:103AF0001DE1CBE4DDE100E006C021970109802F44
:103B0000FE010F94A123CA34D10780E00807A9F76A
:103B10000F9413140D94F5260C9400008F929F922D
:103B2000AF92BF92CF92DF92EF92FF92CF936B0151
:103B30007C0120E030E0A9010F942A1F87FFA3C079
:103B40006DEB77E386E095EBA70196010F94C22316
:103B50006B017C0120E030E040E251E40F948F1FC4
:103B600020E030E048EC52E40F948F1F4B015C01E1
:103B700020E030E040E251ECC701B6010F942A1F6B
:103B8000181654F420E030E048EC52E4C701B601C6
:103B90000F94E82587FD8BC020E030E0A901C70124
:103BA000B6010F942A1F87FF73C060E070E080EABF
:103BB00090ECA50194010F94C22320E030E040E294
:103BC00051E40F949E240F9406256B017C01F7FCB1
:103BD00064C020E137E240E050E00F942623CA01A0
:103BE000B9012AE030E040E050E00F942623605D08
:103BF0006093EA05C701B60128EE33E040E050E0EB
:103C00000F9426239AE0892E912CA12CB12CCA0165
:103C1000B901A50194010F942623605D6093EB0523
:103C2000C701B60124E630E040E050E00F942623BF
:103C3000CA01B901A50194010F942623605D609328
:103C4000EC058EE28093ED05C701B601A501940154
:103C50000F942623C62FCA01B901A50194010F9420
:103C60002623605D6093EE05C05DC093EF058AEE8C
:103C700095E0CF91FF90EF90DF90CF90BF90AF9005
:103C80009F908F9008956DEB77E386E095E35CCF8E
:103C900060E070E080EA90E48CCFF094E094D094FF
:103CA000C094C11CD11CE11CF11C6DE2A1CF20E02D
:103CB00030E0A901C701B6010F942A1F87FF6AC02F
:103CC00060E070E080EA90ECA50194010F94C223BB
:103CD00020E030E040E251E40F949E240F9406254A
:103CE0004B015C0120E030E0A901C701B6010F944F
:103CF000E82587FD0BC020E030E040E251E4C70139
:103D0000B6010F942A1F60E287FD13C0B7FC47C0BD
:103D1000C501B40128EE33E040E050E00F942623C3
:103D2000CA01B9012AE030E040E050E00F942623B8
:103D3000605D6093EB05C501B40124E630E040E02E
:103D400050E00F9426238AE0C82ED12CE12CF12CD0
:103D5000CA01B901A70196010F942623605D609303
:103D6000EC058EE28093ED05C501B401A701960133
:103D70000F942623C62FCA01B901A70196010F94FB
:103D80002623605D6093EE05C05DC093EF058BEE6A
:103D900095E06FCF60E070E080EA90E495CFB0945A
:103DA000A09490948094811C911CA11CB11C6DE284
:103DB000C0CF6091340270913502072E000C880B41
:103DC000990B0F94301F2AE037ED43E25CE30F9428
:103DD0008F1F20910F0630911006409111065091CF
:103DE00012060F948F1F60936D0270936E02809382
:103DF0006F0290937002089580917208811104C03F
:103E00008091640580939E080895809147158823CA
:103E1000C1F0815080934715E0E9F3E1882351F028
:103E20008150990B2BE1289FF001299FF00D11245F
:103E3000E75CFB4E8BE1A5E7B3E101900D928A951B
:103E4000E1F720914715211105C08091521580643A
:103E50008093521581E090E0A0E0B0E0211103C012
:103E600080E090E0DC018093640890936508A09363
:103E70006608B09367081092690881E080935E0835
:103E800083E080936C02089581E08093B4030895E9
:103E900082E08093B4030895CF93DF93EC01CB01CC
:103EA000BA010F94301F29EC38EC48EC5EE30F9414
:103EB0009E2420E030E040E05FE30F94C2230F94A3
:103EC0000B256883DF91CF910895E091720886E019
:103ED000E802F0011124EF5AF74F8091640590E059
:103EE0009583848308952CEA35EC47E25EE3609184
:103EF0005A0570915B0580915C0590915D050F946A
:103F00009E24609364067093650680936606909382
:103F1000670608952CEA35EC47E25EE360915605AA
:103F20007091570580915805909159050F948F1FF6
:103F300060936006709361068093620690936306B7
:103F400008958091520590915305A0915405B09128
:103F5000550580935C0690935D06A0935E06B09332
:103F60005F0608958F929F92AF92BF92CF92DF9299
:103F7000EF92FF92CF936B017C0120E030E0A9012A
:103F80000F942A1F87FD9FC06DEB77E386E095E3D2
:103F9000A70196010F94C2236B017C0120E030E061
:103FA00040E251E40F948F1F20E030E048EC52E4EF
:103FB0000F948F1F4B015C0120E030E0A901C70185
:103FC000B6010F942A1F20E030E040EA50E487FF5A
:103FD00004C020E030E040EA50ECC501B4010F9489
:103FE000C22320E030E040E251E40F949E240F947D
:103FF00006256B017C018BE2F7FE09C0F094E0948A
:10400000D094C094C11CD11CE11CF11C8DE28093A2
:10401000E905C701B60120E137E240E050E00F9426
:1040200026238AE0882E912CA12CB12CCA01B9013B
:10403000A50194010F942623605D6093EA05C701F2
:10404000B60128EE33E040E050E00F942623CA0189
:10405000B901A50194010F942623605D6093EB05DF
:10406000C701B60124E630E040E050E00F9426237B
:10407000CA01B901A50194010F942623605D6093E4
:10408000EC058EE28093ED05C701B601A501940110
:104090000F942623C62FCA01B901A50194010F94DC
:1040A0002623605D6093EE05C05DC093EF0589EE49
:1040B00095E0CF91FF90EF90DF90CF90BF90AF90C1
:1040C0009F908F9008956DEB77E386E095EB60CF3E
:1040D0008F929F92AF92BF92CF92DF92EF92FF9218
:1040E000CF936B017C0120E030E0A9010F942A1FDF
:1040F00087FDC3C06DEB77E386E095E3A7019601EA
:104100000F94C2236B017C0120E030E0A9010F94E1
:104110002A1F87FFB7C0C701B601905820E030E0E2
:1041200040E251E40F948F1F20E030E040E251E480
:104130000F948F1F20E030E040EA50E40F94C22338
:1041400020E030E040E251E40F949E240F940625D5
:104150006B017C0160E280EAC81686E8D80681E03F
:10416000E806F1048CF0C701B60120EA36E841E028
:1041700050E00F942623CA01B9012AE030E040E064
:1041800050E00F942623605D6093E90560E280E1D2
:10419000C81687E2D806E104F1048CF0C701B60125
:1041A00020E137E240E050E00F942623CA01B90134
:1041B0002AE030E040E050E00F942623605D6093F9
:1041C000EA0560E288EEC81683E0D806E104F1044F
:1041D0008CF0C701B60128EE33E040E050E00F94C8
:1041E0002623CA01B9012AE030E040E050E00F94F4
:1041F0002623605D6093EB0560E284E6C816D10477
:10420000E104F1048CF0C701B60124E630E040E09F
:1042100050E00F942623CA01B9012AE030E040E0C3
:1042200050E00F942623605D6093EC058AE0882EB1
:10423000912CA12CB12CC701B601A50194010F94BA
:104240002623C62FCA01B901A50194010F94262384
:10425000605D6093ED058EE28093EE05C05DC093D6
:10426000EF0589EE95E0CF91FF90EF90DF90CF9032
:10427000BF90AF909F908F9008956DEB77E386E0AD
:1042800095EB3CCF20E030E040E251E4C701B601BD
:1042900049CF8F929F92AF92BF92CF92DF92EF92CF
:1042A000FF92CF936B017C0120E030E0A9010F94D5
:1042B0002A1F87FD93C06DEB77E386E095E3A701A6
:1042C00096010F94C2236B017C0120E030E040E2B4
:1042D00051E40F948F1F20E030E04AE754E40F943C
:1042E0008F1F4B015C0120E030E0A901C701B6013E
:1042F0000F942A1F20E030E040EA50E487FF04C01A
:1043000020E030E040EA50ECC501B4010F94C22334
:1043100020E030E040E251E40F949E240F94062503
:104320006B017C01C114D104E104F10409F45BC008
:10433000F7FE59C0F094E094D094C094C11CD11CF5
:10434000E11CF11C8DE28093EA05C701B60128EE5D
:1043500033E040E050E00F9426238AE0882E912C31
:10436000A12CB12CCA01B901A50194010F942623F7
:10437000605D6093EB058EE28093EC05C701B601AA
:1043800024E630E040E050E00F942623CA01B90152
:10439000A50194010F942623605D6093ED05C7018C
:1043A000B601A50194010F942623C62FCA01B901B5
:1043B000A50194010F942623605D6093EE05C05D16
:1043C000C093EF058AEE95E0CF91FF90EF90DF90DC
:1043D000CF90BF90AF909F908F9008956DEB77E353
:1043E00086E095EB6CCF80E2AECFCF93DF93EC010C
:1043F000CB01BA010F94301F20E030E040E251E4DD
:104400000F949E24688379838A839B83DF91CF9165
:104410000895CF93DF93EC01CB01BA010F94301FC5
:1044200020E030E040E251E40F949E2468837983D9
:104430008A839B83DF91CF9108950F94301F20E0F2
:1044400030E040E251E40F949E2442CECF93DF93BC
:10445000EC01CB01BA010F94301F2AE037ED43E2A3
:104460005DE30F949E240F940B25688379838A83E0
:104470009B83DF91CF910895CF93DF93EC01CB0124
:10448000BA010F94301F2AE037ED43E25DE30F9449
:104490009E24688379838A839B83DF91CF910895DB
:1044A000CF93DF93EC01CB01BA010F94301F6883E7
:1044B00079838A839B83DF91CF910895CF93DF9394
:1044C000EC01CB01BA010F94301F688379838A8392
:1044D0009B83DF91CF910895CF93DF93EC01CB01C4
:1044E000BA010F94301F20E030E048EC52E40F9402
:1044F0009E24688379838A839B83DF91CF9108957B
:10450000CF93DF93EC01CB01BA010F94301F20E071
:1045100030E048EC52E40F949E24688379838A83C8
:104520009B83DF91CF9108950F94301F20E030E0FE
:1045300048EC52E40F949E2415CDCF93DF93EC0109
:10454000CB01BA010F94301F0F940625798368833D
:10455000DF91CF910895CF93DF93EC01CB01BA01A6
:104560000F94301F20E030E04AE754E40F949E247B
:10457000688379838A839B83DF91CF9108950F9419
:10458000301F20E030E04AE754E40F949E2481CEAF
:104590000F94301F20E030E048EC52E40F949E244A
:1045A000BDCACF93DF93EC01CB01BA010F94301F4A
:1045B0002AE037ED43E25CE30F949E240F940B2531
:1045C000688379838A839B83DF91CF910895CF920B
:1045D000DF92EF92FF9223EF34E045E35FE36091D7
:1045E0007A0870917B0880917C0890917D080F94E7
:1045F0008F1F2AE136EF45E95EE30F949E246B019D
:104600007C016091BE087091BF088091C0089091B4
:10461000C1080F942E1F9B01AC01C701B6010F9476
:104620008F1F0F942D2660939208709393088093A8
:10463000940890939508FF90EF90DF90CF900895A5
:1046400080CC68CC50CC2CEA35EC47E25EE360913C
:104650005A0570915B0580915C0590915D050F9402
:104660009E2460934D0870934E0880934F0890935A
:10467000500808952CEA35EC47E25EE36091560558
:104680007091570580915805909159050F948F1F8F
:104690006093490870934A0880934B0890934C08A4
:1046A00008958091520590915305A0915405B091C1
:1046B00055058093450890934608A0934708B0930A
:1046C00048080895FC0184910895FC0180810895B3
:1046D000E0914A05E63028F581E08E0F80934A0587
:1046E0004091640850916508609166087091670870
:1046F0002091690890915D088091B90339E0E39FAA
:10470000F0011124EB5FFA4FA091F613B091F7136B
:10471000B183A08342835383648375832683978305
:1047200080870895FC01A081B1811C92A281B38190
:104730008C918F5F8C930280F381E02D90818CE0CF
:10474000989F800D1124E8EFF3E113AE84AF089534
:10475000009751F0FC0180E09191992331F0907C19
:104760009038D1F38F5FF8CF80E0089590E080E03B
:104770000895CF92DF92EF92FF92CF93C82F0F94BC
:1047800080086B017C0124EA30E74DE75FE360912C
:104790001F027091200280912102909122020F94B9
:1047A0002A1F87FD18C08AEF90E0A0E0B0E08C0DD2
:1047B0009D1DAE1DBF1D8093EB049093EC04A09350
:1047C000ED04B093EE04C0930F02CF91FF90EF90F1
:1047D000DF90CF90089580E090E0DC01E8CFCF92A9
:1047E000DF92EF92FF920F931F930F948008009136
:1047F000BF041091C0042091C1043091C2046B0128
:104800007C01C01AD10AE20AF30A9701860137FD3A
:1048100011C02091BE0420952093BE046A547C4FA1
:104820008F4F9F4F6093BF047093C0048093C10467
:104830009093C20481E09091BE04911101C080E088
:104840001F910F91FF90EF90DF90CF900895CF933D
:10485000DF93CDB7DEB720E2488559856F818E8121
:104860000F94CA03DF91CF9108950F94301F0F94D6
:104870000625CB010C9491DD0F94301F29EC38EC08
:1048800048EC5EE30F949E2420E030E040E05FE3DC
:104890000F94C2230F940B25862F0C94C6DD6091D4
:1048A00064058FEF0D94DA1280916405682F0D94E2
:1048B000DA126FEF809164050D94DA1262E67BE400
:1048C00082E00D944A1164E67BE481E00D944A1184
:1048D00066E67BE480E00D944A1164E179E483E0CC
:1048E0000D944A11CF92DF92EF92FF92CF93DF9314
:1048F00000D01F92CDB7DEB76B017C0120E030E025
:10490000A9010F942A1F87FD1BC06DEB77E386E09A
:1049100095E3A70196010F94C22369837A838B8361
:104920009C83CE0101960E946BDC0F900F900F903C
:104930000F90DF91CF91FF90EF90DF90CF9008958F
:104940006DEB77E386E095EBE4CF0F94301F20E02A
:1049500030E040E251E40F949E24C4CF0E948EFBCD
:104960000E94BB7C882331F08EE495E09093F6079B
:104970008093F5070C94E0DA8F929F92AF92BF92EA
:10498000EF92FF920F931F93CF93DF93EC018B0174
:10499000E42EF22E8091F6139091F7138C179D0759
:1049A000D9F11092B60325E3C336D20709F03FC010
:1049B0008B50944671F40F9480086E517B4F8F4F4B
:1049C0009F4F60934B0570934C0580934D059093DA
:1049D0004E05D093F713C093F61330E020E0009318
:1049E0006408109365082093660830936708E09286
:1049F0006908F0925D08CB50D44621F41092B903B7
:104A000010924A0582E080936C0281E080935E08F8
:104A10001092600510925105DF91CF911F910F9177
:104A2000FF90EF90BF90AF909F908F90089524E6F5
:104A3000CB30D20771F683569543D9F40F94800892
:104A400080904B0590904C05A0904D05B0904E0580
:104A5000681979098A099B0997FF0BC08091E507BE
:104A60008770873031F40E949D7CCCE3D5E28111C0
:104A7000B0CFCBE0D4E6ADCF20E040E070E060E026
:104A800083E798E479DF81E08093B9031092B8035B
:104A90001092B703089520E040E070E060E08DE6FA
:104AA00094E26ACFCF93C1E0C093B903FC01808147
:104AB0009181A281B38180931F0290932002A093E1
:104AC0002102B093220220E040E070E060E080919B
:104AD0006A0890916B0850DFC093B603CF91089598
:104AE000CF93DF9300D01F92CDB7DEB78DEC9CEC57
:104AF000ACECBCE389839A83AB83BC83CE01019683
:104B0000D1DF0F900F900F900F90DF91CF9108950C
:104B1000CF93DF9300D01F92CDB7DEB78DEC9CEC26
:104B2000ACECBDE389839A83AB83BC83CE01019651
:104B3000B9DF0F900F900F900F90DF91CF910895F4
:104B4000CF93DF9300D01F92CDB7DEB780E090E027
:104B5000A0E8BFE389839A83AB83BC83CE0101962F
:104B6000A1DF0F900F900F900F90DF91CF910895DC
:104B7000CF93DF9300D01F92CDB7DEB780E090E0F7
:104B8000A0E2B1E489839A83AB83BC83CE01019612
:104B900089DF0F900F900F900F90DF91CF910895C4
:104BA00020E040E070E060E08BE094E6E5CE10921B
:104BB0009E080E946DB9F4CF81ED92E10E9466AF2C
:104BC000EFDF0C948EFB8EEC96E09093F6078093CB
:104BD000F507E6CF81E00C94337C809159069091E3
:104BE0005A060E94EE7A811107C088E398E09093FC
:104BF000F6078093F507089520E040E070E060E05C
:104C000082EA92E7B9CE0F931F93CF93DF93CDB78C
:104C1000DEB76E970FB6F894DEBF0FBECDBF282F5C
:104C2000082E000C330B90911102409112028F3F1D
:104C300039F0F901EE0FFF1FED5EFD4F90814181CC
:104C40004F939F933F938F9383EE95E09F938F9322
:104C50008E010F5F1F4F1F930F930F94C31E4FE3DF
:104C600050E0B80187EF97E00F94DB2699DF0FB68D
:104C7000F894DEBF0FBECDBF6E960FB6F894DEBFC0
:104C80000FBECDBFDF91CF911F910F9108958FEF90
:104C9000BACF80917208B7CFCF93DF9300D01F9225
:104CA000CDB7DEB70F940B250F942E1F69837A833F
:104CB0008B839C83CE0101960E94E8DB0F900F90BE
:104CC0000F900F90DF91CF9108950F94301F2AE03D
:104CD00037ED43E25DE30F949E24DECF0F94301F47
:104CE0002AE037ED43E25CE30F949E24D5CFCF92C8
:104CF000DF92EF92FF92CF93DF9300D01F92CDB758
:104D0000DEB76B017C0120E030E0A9010F942A1F7F
:104D100087FD1BC06DEB77E386E095E3A701960165
:104D20000F94C22369837A838B839C83CE0101967F
:104D30000E94E8DB0F900F900F900F90DF91CF91C2
:104D4000FF90EF90DF90CF9008956DEB77E386E0D2
:104D500095EBE4CF0F94301F2AE037ED43E25DE39B
:104D60000F949E24C4CF0F94301FC1CFCF92DF92F7
:104D7000EF92FF926B017C0120E030E0A9010F94DB
:104D80002A1F87FD26C06DEB77E386E095E3A70138
:104D900096010F94C2236B017C0120E030E0A90151
:104DA0000F942A1F20E030E040E05FE387FF04C05B
:104DB00020E030E040E05FEBC701B6010F94C22372
:104DC0000F940625CB01FF90EF90DF90CF900C94CD
:104DD000E7DC6DEB77E386E095EBD9CF0F94301FDE
:104DE000C5CF0C9411C20C9411C20C9493C10C94B5
:104DF00093C10C9493C10C9493C1EF92FF920F93C3
:104E00001F93CF93DF93EC018B017A018A859B85F9
:104E10008617970731F0888199810F941C0B1B87A7
:104E20000A87B701888199810F9437042E813F81C9
:104E3000820F932F911D9F838E8390E080E0DF91FE
:104E4000CF911F910F91FF90EF9008959F92AF9295
:104E5000BF92CF92DF92EF92FF920F931F93CF9367
:104E6000DF93EC018B01942EA52E8A859B858617F6
:104E7000970731F0888199810F941C0B1B870A8753
:104E800088859985019649F5BC800A818E81080F35
:104E9000C880D980D6015596ED91FC91C60119952F
:104EA000B80EE92CFA2C10E0F70121917F012111B5
:104EB00027C08E819F81810F911D9F838E8390E0FB
:104EC00080E0DF91CF911F910F91FF90EF90DF90E5
:104ED000CF90BF90AF909F9008950E811F81692D54
:104EE0007A2D888199810F943704800F912F911D1D
:104EF000288539852817390738F681E090E0E1CF19
:104F00004B2D602FC6010F94740B080F180FCCCFD8
:104F1000DF92EF92FF920F931F93CF93DF93EC01F9
:104F2000D62E1CAD0BAD7C0184E0E80EF11CE98DA2
:104F3000FA8DC7011995412F480F2D2D602FC701FC
:104F40000F94740B9BAD890F8BAF81E090E0DF91E4
:104F5000CF911F910F91FF90EF90DF900895CF9226
:104F6000DF92EF92FF920F931F93CF93DF93CDB712
:104F7000DEB72C970FB6F894DEBF0FBECDBFF09012
:104F80003314E09034142091BD0421111DC043EE70
:104F900053E06E2D8F2D0F94DF0B90E080E0F80E24
:104FA000F0923314E092341499272C960FB6F894AB
:104FB000DEBF0FBECDBFDF91CF911F910F91FF904C
:104FC000EF90DF90CF900895C0900014D09001141E
:104FD0002CEF33E13A8329832F2D30E03C832B8360
:104FE0002E2D30E03E832D8318861F827A876987B5
:104FF0001C861B8606E217E29E012F5F3F4F42E6AA
:1050000053E2BC01C6010E942AFBB6018CEF93E17A
:105010000F941C0B8F819885C2CF0E948FC188236B
:1050200039F020E040E070E060E089E79CE3A4CC48
:1050300032CD6F927F928F929F92AF92BF92CF921A
:10504000DF92EF92FF920F931F93CF93DF93CDB731
:10505000DEB72C970FB6F894DEBF0FBECDBF3B0175
:1050600040E050E068EC72E44D835E836F837887A4
:1050700040E050E060EA70E449875A876B877C879C
:105080008130A9F1823009F466C020E030E040E0D0
:1050900050E46091420E7091430E8091440E9091C5
:1050A000450E0F94C2234B018C0120E030E04AE210
:1050B00053E40F94E825181624F4812C912C0AE26D
:1050C00013E4F301A084B184C284D3849401A801C1
:1050D000B501C6010F94E825181614F054016801B3
:1050E000C501D60189839A83AB83BC8357C0BE01B7
:1050F000675F7F4FC30108960E941BD6E090420E67
:10510000F090430E0091440E1091450EF30124815E
:105110003581468157816081718182819381FE0151
:1051200035966F010E9463D50E9446D72C960FB624
:10513000F894DEBF0FBECDBFDF91CF911F910F91CD
:10514000FF90EF90DF90CF90BF90AF909F908F90A7
:105150007F906F900895F3012085318542855385B6
:105160006091420E7091430E8091440E9091450ED5
:105170000F94C2236B017C0120E030E04AE253E44B
:105180000F942A1F87FD06C0C12CD12C8AE2E82E7D
:1051900083E4F82EC982DA82EB82FC82BE01675F6B
:1051A0007F4FCE010196A8CF2F923F924F925F92F0
:1051B0006F927F928F929F92AF92BF92CF92DF9227
:1051C000EF92FF920F931F93CF93DF9300D000D005
:1051D000CDB7DEB70F9480080091CC071091CD07B2
:1051E0002091CE073091CF0701151105210531051A
:1051F00009F00AC32091E413222309F44AC0E09184
:10520000E21321502093E41321E02E0F2093E213A8
:105210003091E513231302C01092E21324E0E29FC1
:10522000F0011124EA51FC4E008111812281338169
:105230000093C8071093C9072093CA073093CB0780
:10524000600F711F811D911D6093CC077093CD0776
:105250008093CE079093CF078091CA079091CB0798
:10526000892BB9F08FB78E83F8942090C8073090BF
:10527000C9072101712C612C0091CA071091CB073D
:10528000809160028231F1F08F3F09F495C09E81D8
:105290009FBF26960FB6F894DEBF0FBECDBFDF913D
:1052A000CF911F910F91FF90EF90DF90CF90BF9023
:1052B000AF909F908F907F906F905F904F903F90B6
:1052C0002F900895EBECF4E394919D8397FDDFCF4D
:1052D00082E10E9497FE8D81882321F09D8192308A
:1052E00009F0BCC14801B12CA12C60E072E18AE751
:1052F00090E0A50198010F94262329833A834B83DC
:105300005C8369017A0121E0C21AD108E108F10841
:105310008FEFC816D104E104F10409F00CF46EC15A
:1053200060E472E48FE090E0A50198010F942623D9
:1053300069017A0191E0C91AD108E108F1082D81CB
:10534000223009F00FC18FEFC816D104E104F10437
:1053500009F00CF4BFC260E970ED83E090E0A501B4
:1053600098010F94262369017A0191E0C91AD108A6
:10537000E108F10883E02FEFC216D104E104F10443
:1053800009F00CF4A0C268E478EE81E090E0A50199
:1053900098010F94262369017A0181E0C81AD10887
:1053A000E108F1089FEFC916D104E104F10411F0FE
:1053B0000CF0FCC084E087C282E180936002EBECD9
:1053C000F4E324912D83822F2F3F09F460CF223004
:1053D00009F468C058F4222379F1213009F444C05B
:1053E00087FD55CF82E10E9497FE78CF9D81943052
:1053F00009F49AC008F478C0953091F71092200112
:105400001092210180912101886080932101809177
:105410002101816080932101E5ECF9E3E491F0E062
:10542000EE0FFF1FE158F64C85919491EBE1FAE302
:10543000E491E09368054CCF14BC15BC84B5826040
:1054400084BD85B5816085BDE5ECF9E3E491F0E0CC
:10545000EE0FFF1FE158F64C85919491EBE1FAE3D2
:10546000E491E0936C0534CF10928000109281009B
:1054700080918100886080938100809181008160AB
:1054800080938100E5ECF9E3E491F0E0EE0FFF1F7B
:10549000E158F64C85919491EBE1FAE3E491E093C5
:1054A0006B0516CF1092B0001092B1008091B00041
:1054B00082608093B0008091B10081608093B100E0
:1054C000E5ECF9E3E491F0E0EE0FFF1FE158F64C54
:1054D000859194919093C1078093C007EBE1FAE323
:1054E000E491E093C207F4CE1092900010929100E4
:1054F00080919100886080939100809191008160FB
:1055000080939100E5ECF9E3E491F0E0EE0FFF1FEA
:10551000E158F64C85919491EBE1FAE3E491E09344
:105520006A0523E02D83D4CE1092A0001092A10032
:105530008091A10088608093A1008091A10081608A
:105540008093A100E5ECF9E3E491F0E0EE0FFF1F9A
:10555000E158F64C85919491EBE1FAE3E491E09304
:105560006905B6CE8FEFC816D104E104F10409F045
:105570000CF472C068E478EE81E090E0A501980137
:105580000F94262369017A0191E0C91AD108E10834
:10559000F1082D81222309F462C12FEFC216D10434
:1055A000E104F10411F00CF063C104CF64E274EF84
:1055B00080E090E0A50194010F94262369017A010F
:1055C00081E0C81AD108E108F10885E09FEFC9160B
:1055D000D104E104F10409F008F475C162E17AE74D
:1055E00080E090E0A50194010F94262369017A01DF
:1055F00081E0C81AD108E108F1084CC181E02D8191
:10560000211161C195B5987F892B85BD2FEF3FEFA3
:10561000A90145284628472809F048C09D819230B5
:1056200009F4E2C00CF0C9C0992309F4CEC091304E
:1056300009F02DCED0928900C09288002093790580
:1056400030937A0540937B0550937C0580916F00E1
:10565000826080936F001BCE82E0D1CFB12CA12C51
:1056600060E072E18AE790E0A50198010F9426239B
:1056700069017A0181E0C81AD108E108F108C11472
:10568000D10491E0E906F104F4F491E02D81213098
:1056900059F580918100887F892B809381002FEFBD
:1056A0003FEFA90145284628472821F29801220FFB
:1056B000331FD1010F94522328EE33E040E050E035
:1056C0000F940423ABCF68E478EE81E090E0A5016D
:1056D00098010F94262369017A0181E0C81AD10844
:1056E000E108F10893E0D2CF8D818330F9F4809105
:1056F0009100887F892B809391002FEF3FEFA901C4
:1057000045284628472891F6D0929900C0929800E3
:10571000209375053093760540937705509378056F
:1057200080917100826080937100B1CD2D81243011
:1057300001F58091A100887F892B8093A1002FEF34
:105740003FEFA90145284628472809F0AFCFD0925E
:10575000A900C092A8002093710530937205409370
:10576000730550937405809172008260809372007B
:105770008ECD8D81853009F049CF80912101887FC0
:10578000892B809321012FEF3FEFA901452846285F
:10579000472809F08BCFD0922901C092280120938D
:1057A0006D0530936E0540936F05509370058091A1
:1057B00073008260809373006ACD8D81843039F2EA
:1057C0000CF4A2CF853039F362CDC7BC20937D05A0
:1057D00030937E0540937F055093800580916E0045
:1057E000826080936E0053CDC092B3002093C307B4
:1057F0003093C4074093C5075093C607809170004B
:1058000082608093700043CD601B710B820B930B01
:1058100097FD3FCD5B981092CC071092CD07109268
:10582000CE071092CF0735CDC980DA80EB80FC809F
:105830009AE0F594E794D794C7949A95D1F721E02C
:10584000C21AD108E108F10885E0DCCE8FEFC81656
:10585000D104E104F10409F038F784E0D3CE83E009
:105860009FEFC916D104E104F10409F00CF4CACE8B
:1058700062E17AE780E090E0A50194010F9426238D
:1058800069017A0181E0C81AD108E108F1089D8117
:105890009923E1F286E02FEFC216D104E104F1046E
:1058A00091F088F0C980DA80EB80FC808AE0F59482
:1058B000E794D794C7948A95D1F791E0C91AD10893
:1058C000E108F10887E09091B100987F892B8093DF
:1058D000B1009CCE82E0F7CF0F931F93CF93DF935D
:1058E0008C01EB019091E4132091E513921304C015
:1058F0005BDC0E9402C4F6CF8091E31334E0839F07
:10590000F0011124EA51FC4E11830083D383C2833A
:105910009F5F9093E4138F5F281739F08093E31310
:10592000DF91CF911F910F9108951092E313F8CF5B
:1059300063E972E084E690E0CFDF70E060E08AE047
:1059400090E0CADF6AEB72E084E690E0C5CF0E9487
:10595000A5D8EECF8111ECCF68E270E080E991E04C
:10596000BBCF0E9425BEF6CF0E9442E3F3CFCF9378
:105970000E94A5D80E9425BEC82F882319F080E078
:105980000E948CBD8C2FE6DFCF910AC9CF93DF93A5
:10599000C0915906D0915A06209729F16091550679
:1059A0007091560680915706909158060F940625DF
:1059B0006E5F7F4F24976C177D07ACF470934C0695
:1059C00060934B060F948008605C73468F4F9F4F27
:1059D00060934D0670934E0680934F069093500649
:1059E000DF91CF91089510924D0610924E061092BD
:1059F0004F0610925006F4CFC9CFCF93DF93EC013E
:105A00000E94682320E040E070E060E0CE01DF917A
:105A1000CF910C94BC24611160931D024093B50397
:105A2000EFEFE80FEB3008F036C00E2E000CFF0B46
:105A30008827E25EF24D8F4F0D94A1234C2D4F2D00
:105A4000292D342D372D3A2D462D3D2D4B2D402D12
:105A5000432D88EC97E421E02093B90320E040E057
:105A600070E060E00C94BC248EEC97E4F4CF81ED00
:105A700097E4F1CF84ED97E4EECF87ED97E4EBCF99
:105A80008AED97E4E8CF8DED97E4E5CF1092B4036B
:105A900082ED95E4E0CF84C885EC97E4DCCF8BEC15
:105AA00097E4D9CF282F10927008809164089091C4
:105AB0006508A0916608B0916708B7FF08C010920A
:105AC0006408109265081092660810926708809129
:105AD0006305882331F080916408809368081092F0
