:100000000C942F170C946F170C946F170C946F1798
:100010000C946F170C946F170C946F170C946F1748
:100020000C946F170C946F170C946F170C946F1738
:100030000C946F170C946F170C946F170C946F1728
:100040000C946F170C9488220C946F170C946F17F4
:100050000C946F170C94E0D70C946F170C9411C587
:100060000C946F170C94AB910C94A1910C946F1796
:100070000C946F170C946F170C946F170C946F17E8
:100080000C946F170C946F170C946F170C946F17D8
:100090000C946F170C946F170C946F170C946F17C8
:1000A0000C946F170C946F170C946F170C946F17B8
:1000B0000C946F170C946F170C946F170C946F17A8
:1000C0000C946F170C946F170C946F170C946F1798
:1000D0000C946F170C946F170C946F170C946F1788
:1000E0000C946F174E414E494E495459494E46CDD6
:1000F000CCCC3D0AD7233C17B7D13877CC2B3295DF
:1001000095E6241FB14F0A000020410000C84200BC
:10011000401C4620BCBE4CCA1B0E5AAEC59D745531
:100120004E4C4F41442046494C414D454E54004CA5
:100130004F41442046494C414D454E540046494CA0
:10014000414D454E54204348414E4745004142539E
:1001500000504C410010001900F03F190050726926
:100160006E742041626F72746564004D32352050A8
:100170000A4D32340050617573696E672E2E2E0061
:100180004D3234004C6F6164202A004C6F61642052
:100190006D6D00556E6C6F6164202A00556E6C6F3A
:1001A0006164206D6D0046696C2E204469612E20CB
:1001B0002A0046696C2E204469612E004520696E34
:1001C000206D6D5E330020022046616374002002C2
:1001D000204D6178002002204D696E004F66660058
:1001E0004F6E004175746F74656D700040207374BC
:1001F0006570732F6D6D00416476616E6365642078
:1002000053657474696E67730046696C616D656EE1
:10021000740054656D706572617475726500537415
:100220006570732F6D6D00436F6E666967757261DF
:1002300074696F6E005A20526169736500326E6492
:10024000204E6F7A7A6C65204000436F6E66696756
:1002500075726174696F6E00526573746F72652098
:1002600044656661756C7473004C6F6164205365FE
:100270007474696E67730053746F7265205365748C
:1002800074696E677300546F6F6C204368616E67AA
:100290006500546F6F6C204F666673657473004120
:1002A0006476616E6365642053657474696E677308
:1002B000004D61696E004D37303220542564004D89
:1002C00036303020423020542564004D3730322003
:1002D0003B2564004D37303120542564004368616C
:1002E0006E67652046696C616D656E7400556E6C55
:1002F0006F61642046696C616D656E74004C6F615E
:10030000642046696C616D656E7400507265686545
:10031000617420437573746F6D0050726568656118
:10032000742024004261636B00556E6C6F61642021
:100330002A004C6F6164202A004368616E67652063
:1003400046696C616D656E74202A004D61696E00AE
:10035000436F6E74696E7565005075726765206DC8
:100360006F726500524553554D45204F5054494FCB
:100370004E533A005052494E542050415553454433
:100380000020204E6F7A7A6C653A20005061726BC3
:10039000696E672E2E2E0000005761697420666F0B
:1003A000720066696C616D656E74206368616E676A
:1003B0006500746F207374617274005761697420F2
:1003C000666F720066696C616D656E7420756E6C27
:1003D0006F616400004E6F7A7A6C652068656174A5
:1003E000696E6700506C6561736520776169742E72
:1003F0002E2E0000507265737320627574746F6ED8
:1004000000746F2068656174206E6F7A7A6C650085
:1004100000496E736572742066696C616D656E74F7
:1004200000616E6420707265737320627574746FFE
:100430006E00746F20636F6E74696E75650057612E
:10044000697420666F720066696C616D656E7420F8
:100450006C6F616400005072657373204275747430
:100460006F6E00746F20726573756D6520707269B0
:100470006E7400005761697420666F722070726933
:100480006E7400746F20726573756D652E2E2E006C
:10049000005761697420666F720066696C616D65F2
:1004A0006E7420707572676500004D3630302042E2
:1004B0003020542569004D37303120542569004DD6
:1004C00037303220542569003F004261636B00538E
:1004D000746F70004E6F204D6564696100507269E1
:1004E0006E742066726F6D204D65646961004368AB
:1004F000616E6765204D65646961004D323100436E
:1005000068616E67652046696C616D656E74004355
:100510006F6E66696775726174696F6E0054656DA0
:100520007065726174757265004D6F74696F6E00ED
:10053000526573756D65205072696E740054756EE6
:10054000650053746F70205072696E74005061754D
:100550007365205072696E7400496E666F20536334
:100560007265656E003F0053746172742050726949
:100570006E740043616E63656C005072696E740046
:1005800043616E6E6F7420656E7465722073756260
:100590006469723A200005202E2E004D61696E00BC
:1005A0004D6F766520246D6D00302E303235004D54
:1005B0006F766520302E316D6D004D6F7665203180
:1005C0006D6D004D6F76652031306D6D00210048F6
:1005D0006F74656E6420746F6F20636F6C6400428B
:1005E00061636B0050726F63656564004D6F766583
:1005F000202A004D6F7665204578747275646572A7
:10060000004D6F76652040004D6F74696F6E004439
:10061000697361626C6520537465707065727300F4
:100620004D3834004175746F20486F6D6500473256
:1006300038004D6F76652041786973004D61696EB1
:100640000050726568656174202420426564005022
:10065000726568656174202420416C6C005072657D
:1006600068656174202420456E64207E00507265A8
:10067000686561742024207E0054656D7065726128
:10068000747572650051014D01436F6F6C646F7733
:100690006E005072656865617420240042656400D4
:1006A0004E6F7A7A6C65207E004D61696E00466CF3
:1006B0006F77207E00466C6F7700426564004E6F56
:1006C0007A7A6C65207E005370656564004D6169BF
:1006D0006E00486F6D696E67204661696C656400E5
:1006E0006F70656E00545249474745524544003A81
:1006F00020007A5F6D696E00795F6D617800785FC8
:100700006D6178005265706F7274696E6720656EF6
:100710006473746F70207374617475730A00008061
:100720008443000016430000164300000000000050
:1007300000000000000020746F6F206C6F6E672057
:10074000657874727573696F6E2070726576656E08
:100750007465640A0020636F6C6420657874727538
:1007600073696F6E2070726576656E7465640A00D9
:100770000080844300001643000000005761726E41
:10078000696E673A20486F6D696E672042756D70BB
:100790002044697669736F72203C20310A0002029E
:1007A000040080844300001643000016430000A0AC
:1007B000400000A04000000040DB0FC93F45BCDA0C
:1007C0003F8FB30240FCF0274056946140FE4B9BA4
:1007D0004084A5D840E0231841346A5641E859972F
:1007E0004164DBD5416E271742B4B75542CE1A9704
:1007F00042C8AED542B5885A43D40684BFA65FA787
:10080000BF7443E0BF10B11AC01C2C58C0E8F69763
:10081000C0B849D6C04E4E17C124D355C1802497C5
:10082000C1A0B5D5C1121A17C244AE55C2781797E8
:10083000C26CACD5C267885AC320746F6F206C6FCE
:100840006E6720657874727573696F6E207072655B
:1008500076656E7465640A0020636F6C6420657849
:1008600074727573696F6E2070726576656E7465EB
:10087000640A0053657474696E67732053746F72F1
:10088000656400290A002062797465733B206372F5
:1008900063200053657474696E67732053746F72BC
:1008A0006564202800454550524F4D20496E6974BB
:1008B00069616C697A65640A0048617264636F6497
:1008C00065642044656661756C7420536574746951
:1008D0006E6773204C6F6164656400454550524FEC
:1008E0004D206461746173697A65206572726F72FC
:1008F0002E0A00290A002062797465733B20637216
:100900006320002073746F7265642073657474696A
:100910006E6773207265747269657665642028005D
:10092000202863616C63756C6174656429210A0019
:1009300020213D2000454550524F4D204352432039
:100940006D69736D61746368202D202873746F72F4
:1009500065642920002053697A653A2000496E6455
:1009600065783A200000007A4300007A430000A036
:10097000410000C8428747BC428747BC420000C8CC
:1009800043E78CC042E8030000E803000064000075
:100990000088130000204D61726C696E3D56383737
:1009A000290A00454550524F4D2076657273696F94
:1009B0006E206D69736D61746368202845455052DF
:1009C0004F4D3D0020436F756E7420583A00000172
:1009D00045320042656400453100450062656400AF
:1009E0002C2073797374656D2073746F70706564F7
:1009F00021204865617465725F49443A2000457260
:100A0000723A204D415854454D50004D415854457F
:100A10004D5020747269676765726564004865614E
:100A200074696E67204661696C656400486561742D
:100A3000696E67206661696C65640070012C0190C5
:100A4000012701B0012201C0011D01F001180110B0
:100A500002130130020E016002090190020401C07C
:100A600002FF000003FA004003F5008003F000D00D
:100A700003EB002004E6007004E100E004DC004029
:100A800005D700C005D2004006CD00D006C80080C2
:100A900007C3003008BE00F008B900C009B400B0B8
:100AA0000AAF00B00BAA00D00CA500000EA00050A9
:100AB0000F9B00C01096005012910000148C00C0D3
:100AC000158700B0178200B0197D00D01B78000098
:100AD0001E730040206E0090226900F024640040E4
:100AE000275F0090295A00E02B5500102E5000205F
:100AF000304B0010324600E033410090353C00108E
:100B000037370070383200A0392D00B03A2800A0E5
:100B10003B2300603C1E00103D1900903D14001066
:100B20003E0F00703E0A00C03E0500003F0000403E
:100B30003FFBFF803FF6FFC03FF1FF4572723A2056
:100B40004D494E54454D50004D494E54454D502051
:100B500074726967676572656400544845524D4117
:100B60004C2052554E4157415900546865726D6191
:100B70006C2052756E6177617900434F4D4D554E33
:100B800049434154494F4E0044525952554E004535
:100B900052524F525300494E464F004543484F0072
:100BA0004572726F722077726974696E6720746F14
:100BB00020454550524F4D210A0053544F50504547
:100BC000442E20005072696E7465722073746F70C9
:100BD0007065642064756520746F206572726F7231
:100BE000732E2046697820746865206572726F7272
:100BF00020616E6420757365204D39393920746F1A
:100C000020726573746172742E202854656D70654E
:100C10007261747572652069732072657365742ED4
:100C20002053657420697420616674657220726552
:100C30007374617274696E67290A004E6F2043688D
:100C400065636B73756D2077697468206C696E6578
:100C5000206E756D6265722C204C617374204C6936
:100C60006E653A20004E6F20436865636B73756D47
:100C70002077697468206C696E65206E756D626599
:100C8000722C204C617374204C696E653A200063AD
:100C90006865636B73756D206D69736D61746368EE
:100CA0002C204C617374204C696E653A20004C69AD
:100CB0006E65204E756D626572206973206E6F746B
:100CC000204C617374204C696E65204E756D6265B1
:100CD000722B312C204C617374204C696E653A2064
:100CE000004D3131300053657269616C207374615D
:100CF000747573206D69736D617463680A00534481
:100D00002072656164206572726F720A00746F6F81
:100D1000206D75636820696E6163746976652074FF
:100D2000696D65202D2063757272656E7420636F26
:100D30006D6D616E643A20002121204B494C4C209E
:100D40006361757365642062792000627573793A16
:100D50002070617573656420666F7220696E7075AE
:100D6000740A00627573793A207061757365642046
:100D7000666F7220757365720A00627573793A2026
:100D800070726F63657373696E670A004D6564699D
:100D9000612052656D6F766564004D656469612000
:100DA000496E73657274656400506C65617365208B
:100DB0005265736574005052494E54455220484163
:100DC0004C5445440025533A202553004B494C4C84
:100DD00045442E20005072696E7465722068616C03
:100DE0007465642E206B696C6C28292063616C6CBF
:100DF0006564210A006563686F3A004572726F721C
:100E00003A00486F74656E6420746F6F20636F6C76
:100E1000640A00507265737320627574746F6E207B
:100E2000746F20726573756D650A00496E73657223
:100E3000742066696C616D656E7420616E642070EB
:100E40007265737320627574746F6E0A00507265F8
:100E5000737320627574746F6E20746F206865619F
:100E600074206E6F7A7A6C650A0020496E76616C28
:100E700069642065787472756465722000536C65CE
:100E800065702E2E2E00436C69636B20746F2052A8
:100E90006573756D652E2E2E004E6F204D6F766535
:100EA0002E00456E642066696C65206C6973740A57
:100EB00000426567696E2066696C65206C697374B1
:100EC0000A004E6F206D656469610A00286E6F200C
:100ED00066696C65290043757272656E7420666977
:100EE0006C653A20004E6F74205344207072696E16
:100EF00074696E670A005344207072696E74696E7B
:100F000067206279746520002E0A0044656C657460
:100F1000696F6E206661696C65642C2046696C653A
:100F20003A200046696C652064656C657465643AB6
:100F3000005072696E742074696D653A20000A531E
:100F4000746174733A2046696C616D656E742075C6
:100F50007365643A20002C204C6F6E6765737420B3
:100F60006A6F623A2000546F74616C2074696D6519
:100F70003A200053746174733A20002C2046616952
:100F80006C65643A20002C2046696E69736865645C
:100F90003A20005072696E74733A20005374617481
:100FA000733A20006F6B006F6666009B0B960B8F89
:100FB0000B880B7A0B44454255473A004D3131328C
:100FC0002053687574646F776E004D313133205350
:100FD0000057616E68616F2F4475706C696361744E
:100FE0006F72203453204F46462E0020204D393258
:100FF000205800434F4E4649475F4558504F525482
:10100000004D4541545041434B00434F4F4C4552D6
:101010005F54454D50455241545552450043484157
:101020004D4245525F54454D5045524154555245ED
:1010300000424142595354455050494E4700415295
:101040004353004D4F54494F4E5F4D4F444553005D
:10105000544845524D414C5F50524F5445435449BA
:101060004F4E00455854454E4445445F4D32300084
:10107000435553544F4D5F4649524D574152455F7A
:1010800055504C4F4144004C464E5F5752495445D1
:10109000004C4F4E475F46494C454E414D4500413F
:1010A00055544F5245504F52545F53445F5354412F
:1010B0005455530053445F575249544500524550CC
:1010C000454154004D554C54495F564F4C554D4584
:1010D000005344434152440050524F4D50545F53CB
:1010E0005550504F525400484F53545F4143544958
:1010F0004F4E5F434F4D4D414E445300454D455279
:1011000047454E43595F5041525345520043415366
:10111000455F4C494748545F4252494748544E4501
:10112000535300544F47474C455F4C49474854532D
:1011300000534F4654574152455F504F5745520058
:101140004255494C445F50455243454E54004C452E
:1011500056454C494E475F44415441005A5F5052F6
:101160004F42450052554E4F5554004155544F4C37
:101170004556454C005052494E545F4A4F4200502C
:10118000524F4752455353004155544F5245504FCB
:1011900052545F54454D50004155544F5245504FA5
:1011A00052545F504F5300564F4C554D4554524981
:1011B0004300454550524F4D0042494E4152595F00
:1011C00046494C455F5452414E53464552005345A3
:1011D0005249414C5F584F4E5F584F464600464972
:1011E000524D574152455F4E414D453A4D61726CEB
:1011F000696E206275676669782D322E312E7820EF
:10120000284E6F7620313220323032322031363A59
:1012100033363A35322920534F555243455F434FB9
:1012200044455F55524C3A6769746875622E636F26
:101230006D2F4D61726C696E4669726D7761726572
:101240002F4D61726C696E2050524F544F434F4C7A
:101250005F56455253494F4E3A312E30204D41434F
:1012600048494E455F545950453A57616E68616F21
:101270002F4475706C696361746F7220345320451C
:10128000585452554445525F434F554E543A3220BC
:10129000555549443A63656465326132662D34318F
:1012A00061322D343734382D396231322D63353582
:1012B000633632663336376666002F2F004D313481
:1012C0003520533C696E6465783E206F7574206FDD
:1012D000662072616E67652028302D31290A002052
:1012E000440020204D32303020540020204D323038
:1012F0003020530020204D3230312058002045004E
:1013000020204D32303320580020520020204D3212
:101310003034205000204A00205400205300202068
:101320004D3230352042003F4A206F7574206F6681
:101330002072616E67652028302E303120746F2056
:10134000302E33290A0020204D3230362058004FED
:101350004646004F4E0020204D61783A2000200084
:1013600020204D696E3A2000203B200020204D3285
:10137000313120530020204D32313700205A0020D7
:10138000590020580020204D323138205400465258
:101390003A0020466C6F773A200020440020490034
:1013A00020204D333031205000496E76616C6964E5
:1013B0002065787472756465720A006469730065EB
:1013C0006E0043290A0061626C656420286D696EB5
:1013D0002074656D702000436F6C642065787472B2
:1013E000756465732061726520004F66667365746D
:1013F00073204170706C696564004572723A2054C4
:101400006F6F206661722100546F6F2066617220D9
:1014100066726F6D207265666572656E63652070B9
:101420006F696E740A00454550524F4D204F4B0A6C
:101430000020286D6D2900203B00205500204C0025
:1014400020204D3630332054004D383400446F6E28
:1014500065207072696E74696E672066696C650AD2
:10146000004D3737004D3331004361703A00256934
:10147000730025696D202569730025696820256939
:101480006D20256973002569642025696820256918
:101490006D202569730025697920256964202569F7
:1014A000682025696D2025697300436F6F6C696E34
:1014B000672E2E2E004525632025530042656420AB
:1014C000436F6F6C696E672E2E2E00426564204854
:1014D000656174696E672E2E2E00206661696C65E9
:1014E00064212042616420686561746572206964CA
:1014F0000A00504944204175746F74756E6500236D
:10150000646566696E652044454641554C545F00EC
:101510004B6420004B6920004B7020002066696EF0
:101520006973686564212050757420746865206C47
:10153000617374204B702C204B6920616E64204BCA
:101540006420636F6E7374616E74732066726F6D66
:101550002062656C6F7720696E746F20436F6E66D2
:10156000696775726174696F6E2E680A005049442C
:10157000204175746F74756E6500206661696C65D5
:1015800064212074696D656F75740A0050494420A8
:101590004175746F74756E6500206661696C656471
:1015A000212054656D706572617475726520746F69
:1015B0006F20686967680A00504944204175746F5C
:1015C00074756E6500504944204379636C657300FF
:1015D00025532025692F256900204B643A200020DF
:1015E0004B693A2000204B703A200020436C617315
:1015F00073696320504944200A002054753A200042
:10160000204B753A2000206D61783A2000206D69EA
:101610006E3A200020643A200020626961733A200B
:101620000048656174696E672E2E2E002073746108
:1016300072740A00504944204175746F74756E6568
:1016400000206661696C6564212054656D70657267
:10165000617475726520746F6F20686967680A002D
:10166000504944204175746F74756E65005049444B
:10167000204175746F74756E6500A10000006900EB
:10168000A20000006300B00000000900C1000000DB
:101690004100C20000004100C30000004100C4003E
:1016A00000004100C50000004100C60000004145A7
:1016B000C70000004300C80000004500C90000004A
:1016C0004500CD0000004900D10000004E00D500CB
:1016D00000004F00D60000004F00D7000000780047
:1016E000DC0000005500DD0000005900E0000000B3
:1016F0006100E10000006100E20000006100E30021
:1017000000006100E40000006100E50000006100ED
:10171000E60000006165E70000006300E8000000EB
:101720006500E90000006500EA0000006500EB00CC
:1017300000006500EC0000006900ED000000690099
:10174000EE0000006900EF0000006900F1000000F9
:101750006E00F20000006F00F30000006F00F40064
:1017600000006F00F50000006F00F60000006F0041
:10177000F80000006F00F90000007500FA0000009A
:101780007500FB0000007500FC0000007500FD0006
:1017900000007900FF000000790004010000410012
:1017A0000501000061000601000043000701000080
:1017B00063000C01000043000D01000063000E01F6
:1017C000000044000F0100006400110100006400EB
:1017D0001901000065001A01000045001B0100000E
:1017E00065001F0100006700300100004900310161
:1017F00000006900410100004C00420100006C0043
:10180000430100004E00440100006E00480100004A
:101810006E005801000052005901000072005A0188
:10182000000053005B01000073005F0100007300C3
:1018300060010000530061010000730065010000B9
:1018400074006F01000075007C0100007A007D01CA
:1018500000005A007E0100007A009201000066003C
:10186000E30200007800222000002E001E2100006C
:10187000507822210000544D902100003C2D9221EF
:1018800000002D3EB02100000300BB210000040039
:101890003C2200007E00482200007E3D60220000C5
:1018A000213D612200003D00642200003C3D652294
:1018B00000003E3DF12300000700A03000003D0085
:1018C00021F301000200C2F401000500A2000000A3
:1018D000EC00B0000000DF00E4000000E100F600D2
:1018E0000000EF00F7000000FD00FC000000F50024
:1018F000E3020000EB0087030000A5008F03000057
:10190000F40098030000F2009E030000E300A3032C
:101910000000F600A9030000F400AC030000E000A2
:10192000AD030000E300B1030000E000B2030000DB
:10193000E200B5030000E300B8030000F200BC03BE
:101940000000E400BE030000E300C0030000F70055
:10195000C1030000E600C3030000E5009021000081
:101960007F00922100007E001A220000E8001E2263
:101970000000F30088250000FF0002300000A100F5
:101980000C300000A2000D300000A3009B300000CE
:10199000DE009C300000DF00A03000003D00A130E0
:1019A0000000A700A2300000B100A3300000A80092
:1019B000A4300000B200A5300000A900A63000004D
:1019C000B300A7300000AA00A8300000B400A9307E
:1019D0000000AB00AA300000B500AB300000B6003C
:1019E000AC300000B6DEAD300000B700AE30000015
:1019F000B7DEAF300000B800B0300000B8DEB13064
:101A00000000B900B2300000B9DEB3300000BA0007
:101A1000B4300000BADEB5300000BB00B6300000C4
:101A2000BBDEB7300000BC00B8300000BCDEB9300F
:101A30000000BD00BA300000BDDEBB300000BE00BB
:101A4000BC300000BEDEBD300000BF00BE30000074
:101A5000BFDEBF300000C000C0300000C0DEC130BB
:101A60000000C100C2300000C1DEC3300000AF0082
:101A7000C4300000C200C5300000C2DEC630000025
:101A8000C300C7300000C3DEC8300000C400C93046
:101A90000000C4DECA300000C500CB300000C60024
:101AA000CC300000C700CD300000C800CE300000B0
:101AB000C900CF300000CA00D0300000CADED130EB
:101AC0000000CADFD2300000CB00D3300000CBDEF4
:101AD000D4300000CBDFD5300000CC00D630000081
:101AE000CCDED7300000CCDFD8300000CD00D930BC
:101AF0000000CDDEDA300000CDDFDB300000CE00AC
:101B0000DC300000CEDEDD300000CEDFDE30000055
:101B1000CF00DF300000D000E0300000D100E13025
:101B20000000D200E2300000D300E3300000AC003F
:101B3000E4300000D400E5300000AD00E6300000E5
:101B4000D500E7300000AE00E8300000D600E930F4
:101B50000000D700EA300000D800EB300000D900C8
:101B6000EC300000DA00ED300000DB00EF30000068
:101B7000DC00F2300000A600F3300000DD00F4309D
:101B80000000B3DEF7300000DCDEFA300000A6DE35
:101B9000FB300000A500FC300000B000FD3000006C
:101BA000A400074E0000FB0086510000FC004353D8
:101BB0000000FA0064FF0000A40065FF0000A5001B
:101BC00066FF0000A60067FF0000A70068FF000096
:101BD000A80069FF0000A9006AFF0000AA006BFFCF
:101BE0000000AB006CFF0000AC006DFF0000AD001A
:101BF0006EFF0000AE006FFF0000AF0070FF00003E
:101C0000B00071FF0000B10072FF0000B20073FF6E
:101C10000000B30074FF0000B40075FF0000B500C1
:101C200076FF0000B60077FF0000B70078FF0000E5
:101C3000B80079FF0000B9007AFF0000BA007BFF0E
:101C40000000BB007CFF0000BC007DFF0000BD0069
:101C50007EFF0000BE007FFF0000BF0080FF00008D
:101C6000C00081FF0000C10082FF0000C20083FFAE
:101C70000000C30084FF0000C40085FF0000C50011
:101C800086FF0000C60087FF0000C70088FF000035
:101C9000C80089FF0000C9008AFF0000CA008BFF4E
:101CA0000000CB008CFF0000CC008DFF0000CD00B9
:101CB0008EFF0000CE008FFF0000CF0090FF0000DD
:101CC000D00091FF0000D10092FF0000D20093FFEE
:101CD0000000D30094FF0000D40095FF0000D50061
:101CE00096FF0000D60097FF0000D70098FF000085
:101CF000D80099FF0000D9009AFF0000DA009BFF8E
:101D00000000DB009CFF0000DC009DFF0000DD0008
:101D10009EFF0000DE009FFF0000DF00E5FF0000E7
:101D20005C0000000000010204040000001C1C0C08
:101D30000404040201000000000004081000000078
:101D400000002D2D2D2D2D2D007C4D61726C696EA6
:101D50007C002D2D2D2D2D2D00503A002568753A33
:101D600025303268750025303268753A2530326882
:101D70007500253032687527253032687500001CE3
:101D80001F11111F00000006191803130C00040E88
:101D90001F041C000000000E1315110E00001C1083
:101DA000181705060500040A0A0A0A11110E0C127A
:101DB000120C00000000001F1511151F00004265E5
:101DC0006400456E636C6F7375726500202020207F
:101DD00020202000202F002040002042403A0020F8
:101DE000403A00496E76616C69642065787472755A
:101DF0006465720A0041637469766520457874727F
:101E0000756465723A20000009121B242D363F4884
:101E1000415A536C657E7719100B023D342F2651C1
:101E200058434A757C676E323B2029161F040D7A91
:101E30007368615E574C452B2239300F061D1463C1
:101E40006A7178474E555C646D767F4049525B2CD1
:101E5000253E3708011A137D746F6659504B423581
:101E60003C272E1118030A565F444D727B60691E91
:101E7000170C053A3328214F465D546B6279700781
:101E80000E151C232A31384148535A656C777E0958
:101E9000001B122D243F3658514A437C756E671043
:101EA00019020B343D262F737A6168575E454C3B0F
:101EB0003229201F160D046A6378714E475C552243
:101EC0002B3039060F141D252C373E0108131A6DCF
:101ED000647F7649405B523C352E2718110A037403
:101EE0007D666F5059424B171E050C333A21285F0F
:101EF000564D447B7269600E071C152A2338314603
:101F00004F545D626B707900002110422063308471
:101F100040A550C660E770088129914AA16BB18C39
:101F2000C1ADD1CEE1EFF13112100273325222B5C0
:101F3000529442F772D662399318837BB35AA3BD89
:101F4000D39CC3FFF3DEE36224433420040114E690
:101F500064C774A44485546AA54BB528850995EED9
:101F6000E5CFF5ACC58DD55336722611163006D7A0
:101F700076F6669556B4465BB77AA719973887DF29
:101F8000F7FEE79DD7BCC7C448E5588668A77840E8
:101F900008611802282338CCC9EDD98EE9AFF94879
:101FA0008969990AA92BB9F55AD44AB77A966A7100
:101FB0001A500A333A122AFDDBDCCBBFFB9EEB79C9
:101FC0009B588B3BBB1AABA66C877CE44CC55C2250
:101FD0002C033C600C411CAEED8FFDECCDCDDD2A19
:101FE000AD0BBD688D499D977EB66ED55EF44E13E0
:101FF0003E322E511E700E9FFFBEEFDDDFFCCF1B69
:10200000BF3AAF599F788F8891A981CAB1EBA10CD3
:10201000D12DC14EF16FE18010A100C230E3200448
:1020200050254046706760B9839893FBA3DAB33DAF
:10203000C31CD37FE35EF3B1029012F322D2323598
:1020400042145277625672EAB5CBA5A89589856E7F
:10205000F54FE52CD50DC5E234C324A014810466E8
:1020600074476424540544DBA7FAB79987B8975F8F
:10207000E77EF71DC73CD7D326F2369106B0165738
:10208000667676154634564CD96DC90EF92FE9C8D7
:1020900099E9898AB9ABA94458654806782768C088
:1020A00018E1088238A3287DCB5CDB3FEB1EFBF9EF
:1020B0008BD89BBBAB9ABB754A545A376A167AF1D8
:1020C0000AD01AB32A923A2EFD0FED6CDD4DCDAA3F
:1020D000BD8BADE89DC98D267C076C645C454CA228
:1020E0003C832CE01CC10C1FEF3EFF5DCF7CDF9BCF
:1020F000AFBABFD98FF89F176E367E554E745E9378
:102100002EB23ED10EF01E7C3C3E5E2B3D3F2F5B3F
:102110005D3B2C2A225C004D6564696120496E6933
:1021200074204661696C0053442063617264206FBF
:102130006B0A006F70656E526F6F74206661696C18
:1021400065640A00766F6C756D652E696E69742022
:102150006661696C65640A004E6F205344206361B8
:1021600072640A00534420636172642072656C6576
:10217000617365640A000A4D3234004D3233202504
:1021800073002E0A006F70656E206661696C65646D
:102190002C2046696C653A200046696C65207365A1
:1021A0006C65637465640A002053697A653A20009F
:1021B00046696C65206F70656E65643A2000454E17
:1021C0004420535542524F5554494E450A0022204F
:1021D000706F73002220706172656E743A22005332
:1021E0005542524F5554494E452043414C4C207462
:1021F00061726765743A220053756263616C6C208A
:102200004F766572666C6F770045786365656465C7
:1022100064206D617820535542524F5554494E45C4
:102220002064657074683A0057726974696E67203B
:10223000746F2066696C653A200066726573680089
:10224000646F696E67002066696C653A20004E6FA6
:102250007720002F6175746F25632E67006D6172A2
:102260006C696E66772E6F7267006D61726C696E55
:1022700066772E6F7267006275676669782D322EF9
:10228000312E78006275676669782D322E312E788E
:1022900000006D61726C696E66772E6F7267006DFB
:1022A00061726C696E66772E6F7267002062756767
:1022B0006669782D322E312E78003D0A573F3D0A4F
:1022C000573FCDCCCC3E0000803F0000803F202017
:1022D000506C616E6E6572427566666572427974A5
:1022E00065733A20002046726565204D656D6F72FA
:1022F000793A200020436F6D70696C65643A204E16
:102300006F7620313220323032320A00204C617335
:102310007420557064617465643A20323032322D15
:1023200031312D3132207C20417574686F723A2032
:1023300028436F6F6C5A65726F4E4C2C2064656633
:1023400061756C7420636F6E666967290A004D6160
:10235000726C696E206275676669782D322E312E37
:10236000780A0020536F6674776172652052657336
:1023700065740A00205761746368646F6720526552
:102380007365740A002042726F776E206F75742037
:1023900052657365740A002045787465726E616CCD
:1023A0002052657365740A00506F77657255700A24
:1023B0000073746172740A00473237004D31303057
:1023C00031006F6B006572726F7220777269746989
:1023D0006E6720746F2066696C650A00446F6E65D5
:1023E00020736176696E672066696C652E0A004D00
:1023F000323900456E6473746F7073002553202565
:102400006320256320256320256300205A3A00209D
:10241000593A0020583A00656E6473746F707320E7
:102420006869743A200000002100240027002A0077
:102430002D003000330001010000040107010A01F2
:1024400000002200250028002B002E00310034005F
:1024500002010000050108010B010000200023001B
:10246000260029002C002F0032000001000003018B
:102470000601090105050505070508080808020207
:1024800002020A0A0808040404040101010101010E
:1024900001010303030303030303040707070C0CF1
:1024A0000C0C0C0C0C0C02020202060606060606B8
:1024B00006060B0B0B0B0B0B0B0B07070A0A0A0A82
:1024C0000A0A050505040404080801021020200872
:1024D000081020401020408002010201080402017F
:1024E00001020408102040808040201008040201EE
:1024F0008004020180402010080402010804020147
:1025000001020408102040800102040810204080CD
:1025100010080408801020400440801020400480EF
:1025200000000A0B02090C0D0E080703040100004D
:10253000000000000000000000000000000000009B
:102540000000000000000000000000001211100058
:10255000000000000000000000000000000000007B
:10256000000000000000000000000000000000006B
:1025700000000000000024F404D9201BC40C5C0EF1
:102580009804C4095F0265077101F405F900FB04B2
:10259000B30048048700C1036900580355000303D2
:1025A0004500BE023A008402310053022A0029028B
:1025B000250004022000E4011C00C8011900AF013D
:1025C00017009801140084011300710110006101CB
:1025D000100051010E0043010D0036010B002B01CC
:1025E0000B0020010B00150109000C01090003017B
:1025F0000800FB000800F3000800EB000700E400FF
:102600000600DE000600D8000600D2000600CC005E
:102610000500C7000500C2000500BD000400B900A8
:102620000400B5000400B1000400AD000400A900DE
:102630000400A5000300A20003009F0004009B000B
:10264000030098000300950002009300030090002F
:1026500003008D0002008B0003008800020086004A
:10266000020084000300810002007F0002007D0060
:1026700002007B0002007900020077000100760072
:1026800002007400020072000100710002006F007D
:1026900002006D0001006C0002006A000100690088
:1026A000020067000100660001006500010064008F
:1026B00002006200010061000100600001005F0093
:1026C00002005D0001005C0001005B0001005A0097
:1026D0000100590001005800010057000100560098
:1026E0000100550001005400010053000000530098
:1026F00001005200010051000100500001004F0094
:1027000001004E0000004E0001004D0001004C0091
:1027100001004B0000004B0001004A00010049008D
:102720000100480000004800010047000100460089
:102730000000460001004500000045000100440083
:10274000010043000000430001004200000042007D
:1027500001004100000041000100400001003F0075
:1027600000003F0001003E0000003E0001003D006F
:1027700000003D0001003C0000003C0000003C0067
:1027800001003B0000003B0001003A0000003A005D
:102790000100390000003900010038000000380055
:1027A000000038000100370000003700010036004B
:1027B0000000360000003600010035000000350042
:1027C0000000350001003400000034000000340037
:1027D000010033000000330000003300010032002C
:1027E0000000320000003200010031000000310022
:1027F0000000310001003000000030000000300017
:1028000001002F0000002F0000002F0000002F000B
:1028100001002E0000002E0000002E0001002D00FF
:1028200000002D0000002D0000002D0001002C00F4
:1028300000002C0000002C0000002C0001002B00E8
:1028400000002B0000002B0000002B0001002A00DC
:1028500000002A0000002A0000002A0001002900D0
:1028600000002900000029000000290000002900C4
:1028700001002800000028000000280000002800B7
:1028800000002800010027000000270000002700AA
:10289000000027000000270001002600000026009D
:1028A0000000260000002600000026000100250090
:1028B0000000250000002500000025000000250084
:1028C0000000250001002400000024000000240076
:1028D0000000240000002400010023000000230069
:1028E000000023000000230000002300000023005C
:1028F000000023000100220000002200000022004E
:10290000000022000000220000002200010021003F
:102910000000210000002100000021000000210033
:102920000000210000002100010020000000200024
:102930000000200000002000000020000000200017
:10294000000020000000200001001F0000001F0008
:1029500000001F0000001F0000001F0000001F00FB
:1029600000001F0001001E0000001E0000001E00ED
:1029700000001E00000024F4D43050C38E20C2A2F8
:102980004017828B7011127A910D816CD90AA8615F
:10299000E108C7586607615143061E4B5D05C145F6
:1029A000A7041A411104093D9803713931034036D7
:1029B000DB0265339102D4305402802E1D02632C59
:1029C000EE01752AC501B028A001102781018F25CD
:1029D00064012B244B01E0223401AC211F018D2026
:1029E0000D01801FFC00841EED00971DDF00B81C48
:1029F000D200E61BC600201BBC00641AB200B2194C
:102A0000A8000A19A0006A189900D1179100401770
:102A10008B00B516840031167E00B31579003A1587
:102A20007300C7146F0058146A00EE136600881311
:102A3000630025135E00C7125B006C12570015126D
:102A40005400C111510070114F0021114B00D610DC
:102A500049008D1047004610440002104200C00F8C
:102A60004000800F3E00420F3C00060F3B00CB0EA3
:102A70003800930E37005C0E3500270E3400F30D3E
:102A80003200C10D3100900D3000600D2E00320D6E
:102A90002D00050D2C00D90C2B00AE0C2900850C47
:102AA00029005C0C2700350C27000E0C2600E80BD3
:102AB0002400C40B2400A00B23007D0B23005A0B21
:102AC0002100390B2100180B2000F80A1F00D90A39
:102AD0001E00BB0A1E009D0A1D00800A1D00630A1D
:102AE0001C00470A1B002C0A1B00110A1A00F709D8
:102AF0001A00DD091900C4091900AB09190092096F
:102B000017007B091800630917004C0916003609E5
:102B10001600200916000A091500F5081500E0083E
:102B20001400CC081400B8081400A408140090087D
:102B300013007D0812006B081300580812004608A5
:102B400012003408110023081100120811000108B6
:102B50001100F0071000E0071000D0071000C007B8
:102B60001000B0070F00A107100091070E008307A7
:102B70000F0074070F0065070E0057070E00490786
:102B80000E003B070D002E070E0020070D00130757
:102B90000D0006070D00F9060C00ED060D00E0061D
:102BA0000C00D4060C00C8060C00BC060C00B006D5
:102BB0000C00A4060B0099060C008D060B00820683
:102BC0000B0077060B006C060B0061060A00570627
:102BD0000B004C060A0042060A0038060A002E06C0
:102BE0000A0024060A001A060A0010060900070651
:102BF0000A00FD050900F4050900EB050900E205DE
:102C00000900D9050900D0050900C7050900BE055E
:102C10000900B5050800AD050800A50509009C05DB
:102C20000800940508008C050800840508007C0550
:102C30000800740508006C050700650508005D05BF
:102C40000700560508004E05070047050700400528
:102C5000080038050700310507002A05070023058D
:102C600007001C050600160507000F0507000805EC
:102C7000060002050700FB040600F5040700EE0449
:102C80000600E8040600E2040700DB040600D504A1
:102C90000600CF040600C9040600C3040600BD04F4
:102CA0000600B7040600B1040500AC040600A60443
:102CB0000600A00405009B0406009504050090048E
:102CC00006008A04050085040500800406007A04D5
:102CD000050075040500700405006B04050066041A
:102CE0000500610405005C0405005704050052045A
:102CF00005004D04050048040500430405003E049A
:102D000004003A04050035040500300404002C04D6
:102D1000050027040400230405001E0404001A040F
:102D2000040016040500110404000D040400090445
:102D300005000404040000040400FC030400F8037C
:102D40000400F4030400F0030400EC030400E803AF
:102D50000400E4030400E0030400DC030400D803DF
:102D60000400D4030400D0030400CC030400C8030F
:102D70000300C5030300043700001E290000511B97
:102D800000005810000010090000CC040000780278
:102D90000000410100005072696E742066726F6D10
:102DA000204D65646961000101FF43616E6E6F74BF
:102DB000206F70656E207375626469722000496EC1
:102DC000736572742066696C616D656E7420616EE6
:102DD0006420707265737320627574746F6E0A007C
:102DE000220A00556E6B6E6F776E20636F6D6D619A
:102DF0006E643A202200486F6D6520257325732587
:102E0000732046697273740020453A00205A3A00D4
:102E100020593A00583A0057616E68616F2F447527
:102E2000706C696361746F72203453205265616401
:102E3000792E005072696E74696E672E2E2E0050C6
:102E400072696E7420506175736564006F6B0A005F
:102E5000526573656E643A20000041DC19E6112466
:102E60001FBECFEFD1E2DEBFCDBF00E00CBF84B705
:102E70008093C51314BE0FB6F894A8958091600096
:102E8000886180936000109260000FBE13E0A0E0A4
:102E9000B2E0EAEFF2EE01E00BBF02C007900D9244
:102EA000A23BB107D9F723E1A2EBB3E001C01D9229
:102EB000A53CB207E1F717E1CEE2D7E100E006C09A
:102EC00021970109802FFE010E94FCEECD32D1072F
:102ED00080E00807A9F70E9453DD0C946CF10C9474
:102EE0000000FC0190E1A4E3B5E001900D929A95F9
:102EF000E1F70895BC012091250530912605409108
:102F00002505509126052417350731F481E0261751
:102F1000370709F080E008959A01F1CF7F928F92F0
:102F20009F92AF92BF92CF92DF92EF92FF920F9358
:102F30001F93CF93DF9370900704CEECD3E090E122
:102F4000C92E92E0D92E24E1E22E22E0F22E0FEFDC
:102F500013E0772009F45EC0F80180809180A280A0
:102F6000B38020E030E0A901C501B4010E948BEAE2
:102F7000882309F44FC020E030E040E05FE3C50162
:102F8000B4010E94F0EA9B01AC010E94F0EA2BED33
:102F90003FE049E450E40E94F0EA9B01AC0160E0AC
:102FA00070E080E89FE30E9494EF4B015C018992FE
:102FB0009992A992B992F601619171916F01072ED0
:102FC000000C880B990B0E9491EA2AE037ED43E24E
:102FD0005CE30E94F0EAA50194010E94F0EAF70187
:102FE00061937193819391937F010C5F1F4FF3E085
:102FF000C63DDF0709F0ADCFDF91CF911F910F9153
:10300000FF90EF90DF90CF90BF90AF909F908F9008
:103010007F900895812C912C80E8A82E8FE3B82E04
:10302000C6CF8F929F92AF92BF92CF92DF92EF92D4
:10303000FF92FC01C080D180E280F38020E030E08C
:1030400040E251E4C701B6010E94F0EA20E030E01E
:1030500040E251E40E94F0EA4B015C0120E030E0E4
:10306000A901C701B6010E948BEA20E030E040EAE6
:1030700050E487FF04C020E030E040EA50ECC50196
:10308000B4010E941DEF20E030E040E251E40E94D4
:1030900094EF0E94FCEF9B018BE237FF05C02227D3
:1030A0003327261B370B8DE28093BB03C90168EEE3
:1030B00073E00E94CDEECB01EAE0F0E0BF010E9498
:1030C000CDEE805D8093BC03C90164E670E00E9490
:1030D000CDEECB01BF010E94CDEE805D8093BD039C
:1030E000C901BF010E94CDEE282FCB01BF010E9474
:1030F000CDEE805D8093BE038EE28093BF03205DA2
:103100002093C0038BEB93E0FF90EF90DF90CF9084
:10311000BF90AF909F908F9008950F931F93CF9380
:10312000DF938091640790E0EC01CC0FDD1FCC0FA2
:10313000DD1F8E010C5E1D4F880F991FFC01E05FA3
:10314000FD4F60817181072E000C880B990B0E9446
:1031500091EA2AE037ED43E25CE30E94F0EAC253D1
:10316000DC4F288139814A815B810E94F0EAF801B5
:103170006083718382839383DF91CF911F910F913D
:1031800008950F931F93CF93DF938091B60790E03C
:10319000EC01CC0FDD1FCC0FDD1F8E010C5E1D4F2F
:1031A000880F991FFC01E05FFD4F60817181072E40
:1031B000000C880B990B0E9491EA2AE037ED43E25C
:1031C0005CE30E94F0EAC253DC4F288139814A81D6
:1031D0005B810E94F0EAF8016083718382839383AC
:1031E000DF91CF911F910F9108958091291188232C
:1031F000C1F0815080932911E3E8FFE0882351F06A
:103200008150990B2BE1289FF001299FF00D11248B
:10321000E55EFF4E8BE1A8E6BFE001900D928A9536
:10322000E1F720912911211105C0809134118064AA
:103230008093341181E090E0A0E0B0E0211103C060
:1032400080E090E0DC0180934E0790934F07A093BD
:103250005007B093510710928A0481E080935E0773
:1032600083E080933902089581E080936B0708958D
:1032700082E080936B0708958F929F92AF92BF92E6
:10328000CF92DF92EF92FF92CF936B017C0120E00F
:1032900030E0A9010E948BEA87FFA3C06DEB77E3C2
:1032A00086E095EBA70196010E941DEF6B017C0162
:1032B00020E030E040E251E40E94F0EA20E030E01B
:1032C00048EC52E40E94F0EA4B015C0120E030E05F
:1032D00040E251ECC701B6010E948BEA181654F483
:1032E00020E030E048EC52E4C701B6010E9480F0D3
:1032F00087FD8BC020E030E0A901C701B6010E9424
:103300008BEA87FF73C060E070E080EA90ECA50173
:1033100094010E941DEF20E030E040E251E40E9461
:1033200094EF0E94FCEF6B017C01F7FC64C020E18C
:1033300037E240E050E00E94E0EECA01B9012AE025
:1033400030E040E050E00E94E0EE605D6093BB033F
:10335000C701B60128EE33E040E050E00E94E0EE05
:103360009AE0892E912CA12CB12CCA01B901A5019A
:1033700094010E94E0EE605D6093BC03C701B6015A
:1033800024E630E040E050E00E94E0EECA01B901DE
:10339000A50194010E94E0EE605D6093BD038EE2A2
:1033A0008093BE03C701B601A50194010E94E0EE1F
:1033B000C62FCA01B901A50194010E94E0EE605D2B
:1033C0006093BF03C05DC093C0038BEB93E0CF91CC
:1033D000FF90EF90DF90CF90BF90AF909F908F9035
:1033E00008956DEB77E386E095E35CCF60E070E0F5
:1033F00080EA90E48CCFF094E094D094C094C11C07
:10340000D11CE11CF11C6DE2A1CF20E030E0A9014C
:10341000C701B6010E948BEA87FF6AC060E070E0D6
:1034200080EA90ECA50194010E941DEF20E030E0BD
:1034300040E251E40E9494EF0E94FCEF4B015C01DA
:1034400020E030E0A901C701B6010E9480F087FDAD
:103450000BC020E030E040E251E4C701B6010E9419
:103460008BEA60E287FD13C0B7FC47C0C501B40119
:1034700028EE33E040E050E00E94E0EECA01B901DE
:103480002AE030E040E050E00E94E0EE605D6093B2
:10349000BC03C501B40124E630E040E050E00E94E6
:1034A000E0EE8AE0C82ED12CE12CF12CCA01B90142
:1034B000A70196010E94E0EE605D6093BD038EE27D
:1034C0008093BE03C501B401A70196010E94E0EEFE
:1034D000C62FCA01B901A70196010E94E0EE605D06
:1034E0006093BF03C05DC093C0038CEB93E06FCFCC
:1034F00060E070E080EA90E495CFB094A09490945E
:103500008094811C911CA11CB11C6DE2C0CFCF9393
:10351000DF93EC01CB01BA010E9491EA68837983C1
:103520008A839B83DF91CF910895CF93DF93EC0142
:10353000CB01BA010E9491EA688379838A839B83D5
:10354000DF91CF9108958091B607882369F080912B
:10355000F5068770873041F48EE296E09093040779
:10356000809303071092B60708958F929F92AF92AF
:10357000BF92CF92DF92EF92FF92CF936B017C01CB
:1035800020E030E0A9010E948BEA87FDC3C06DEB0B
:1035900077E386E095E3A70196010E941DEF6B019A
:1035A0007C0120E030E0A9010E948BEA87FFB7C0D0
:1035B000C701B601905820E030E040E251E40E949B
:1035C000F0EA20E030E040E251E40E94F0EA20E03E
:1035D00030E040EA50E40E941DEF20E030E040E29D
:1035E00051E40E9494EF0E94FCEF6B017C0160E2C9
:1035F00080EAC81686E8D80681E0E806F1048CF077
:10360000C701B60120EA36E841E050E00E94E0EE52
:10361000CA01B9012AE030E040E050E00E94E0EE4B
:10362000605D6093BA0360E280E1C81687E2D80665
:10363000E104F1048CF0C701B60120E137E240E07B
:1036400050E00E94E0EECA01B9012AE030E040E01B
:1036500050E00E94E0EE605D6093BB0360E288EEA4
:10366000C81683E0D806E104F1048CF0C701B60166
:1036700028EE33E040E050E00E94E0EECA01B901DC
:103680002AE030E040E050E00E94E0EE605D6093B0
:10369000BC0360E284E6C816D104E104F1048CF0B6
:1036A000C701B60124E630E040E050E00E94E0EEC1
:1036B000CA01B9012AE030E040E050E00E94E0EEAB
:1036C000605D6093BD038AE0882E912CA12CB12C03
:1036D000C701B601A50194010E94E0EEC62FCA0100
:1036E000B901A50194010E94E0EE605D6093BE0304
:1036F0008EE28093BF03C05DC093C0038AEB93E06A
:10370000CF91FF90EF90DF90CF90BF90AF909F90C0
:103710008F9008956DEB77E386E095EB3CCF20E04A
:1037200030E040E251E4C701B60149CFCF92DF92C9
:10373000EF92FF920F931F93CF93DF936B017C0166
:1037400020E030E0A9010E948BEA87FD43C06DEBC9
:1037500077E386E095E3A70196010E941DEF6B01D8
:103760007C0120E030E0A9010E948BEA20E030E0FB
:1037700040E05FE387FF04C020E030E040E05FEB23
:10378000C701B6010E941DEF0E94FCEF8B01FB01F7
:1037900077FF25C0119501951109ED398FEFF807D5
:1037A0000CF063C08DE28093BD03C80164E670E055
:1037B0000E94CDEECB012AE030E0B9010E94CDEEAF
:1037C000805D8093BE03C801B9010E94CDEECB019C
:1037D000B90129C06DEB77E386E095EBBCCF083EDD
:1037E00083E01807ECF1C80168EE73E00E94CDEEAB
:1037F000CB01CAE0D0E0BE010E94CDEE805D809397
:10380000BD03C80164E670E00E94CDEECB01BE01AD
:103810000E94CDEE805D8093BE03C801BE010E9470
:10382000CDEECB01BE010E94CDEE805D8093BF0343
:10383000C8016AE070E00E94CDEE805D8093C00315
:103840008DEB93E0DF91CF911F910F91FF90EF905F
:10385000DF90CF9008958DE2F7FDE8CF80E2E6CFCC
:1038600080E2043611050CF09ECF80E28093BD0308
:103870008093BE030A30110574F38DE2F7FF80E2F6
:103880008093BE03C8016AE070E00E94CDEE605DE7
:103890006093BF03CDCF8F929F92AF92BF92CF9292
:1038A000DF92EF92FF92CF936B017C0120E030E03A
:1038B000A9010E948BEA87FD93C06DEB77E386E058
:1038C00095E3A70196010E941DEF6B017C0120E0AA
:1038D00030E040E251E40E94F0EA20E030E04AE7C4
:1038E00054E40E94F0EA4B015C0120E030E0A901C1
:1038F000C701B6010E948BEA20E030E040EA50E4C4
:1039000087FF04C020E030E040EA50ECC501B4017C
:103910000E941DEF20E030E040E251E40E9494EF6D
:103920000E94FCEF6B017C01C114D104E104F1049D
:1039300009F45BC0F7FE59C0F094E094D094C094B1
:10394000C11CD11CE11CF11C8DE28093BB03C7019B
:10395000B60128EE33E040E050E00E94E0EE8AE05D
:10396000882E912CA12CB12CCA01B901A50194017A
:103970000E94E0EE605D6093BC038EE28093BD0325
:10398000C701B60124E630E040E050E00E94E0EEDE
:10399000CA01B901A50194010E94E0EE605D609347
:1039A000BE03C701B601A50194010E94E0EEC62F37
:1039B000CA01B901A50194010E94E0EE605D609327
:1039C000BF03C05DC093C0038BEB93E0CF91FF902A
:1039D000EF90DF90CF90BF90AF909F908F90089521
:1039E0006DEB77E386E095EB6CCF80E2AECFCF93C3
:1039F000DF93EC01CB01BA010E9491EA20E030E0B4
:103A000040E251E40E9494EF688379838A839B8328
:103A1000DF91CF9108950E9491EA20E030E040E2EA
:103A200051E40E9494EFA1CDCF93DF93EC01CB0141
:103A3000BA010E9491EA20E030E048EC52E40E9492
:103A400094EF688379838A839B83DF91CF91089574
:103A50000E9491EA20E030E048EC52E40E9494EFAA
:103A60000BCCCF93DF93EC01CB01BA010E9491EA1A
:103A70000E94FCEF79836883DF91CF9108950E94C3
:103A800091EA54CECF93DF93EC01CB01BA010E94AF
:103A900091EA20E030E04AE754E40E9494EF688322
:103AA00079838A839B83DF91CF9108950E9491EA65
:103AB00020E030E04AE754E40E9494EFECCE382F47
:103AC0008FEF809309021092630780914E079091C7
:103AD0004F07A0915007B0915107B7FF08C010924F
:103AE0004E0710924F0710925007109251072091E5
:103AF0004E072093890410925E078091880418165F
:103B0000ECF4082E000C990B831B9109022E000C7B
:103B1000330B2817390794F097FF02C090E080E03C
:103B200080938904092E000CAA0BBB0B80934E07CF
:103B300090934F07A0935007B09351078091890449
:103B40006623A9F090918A04891714F480938A045B
:103B500020918A04022E000C330B2D5F3F4F482F1B
:103B6000082E000C550B241735071CF48350809346
:103B70008A0408956091640780918404909185047B
:103B80000C940988809164070C94C7870F93009167
:103B9000140421E0022728ED34E04CE050E0BC01A1
:103BA00086ED94E00E94B4890F9108950F930091DF
:103BB000140421E0022728ED34E044E050E0BC0189
:103BC00086ED94E00E94B4890F9108950F930091BF
:103BD000140421E0022728ED34E041E050E0BC016C
:103BE00086ED94E00E94B4890F9108950F9300919F
:103BF000140421E0022728ED34E041E050E0BC014C
:103C000086ED94E00E94B4890F9108950F9300917E
:103C1000140421E0022728ED34E048E050E0BC0124
:103C200086ED94E00E94B4890F9108950F9300915E
:103C3000140421E0022728ED34E04CE050E0BC0100
:103C400086ED94E00E94B4890F9108950F9301E0EE
:103C500028ED34E041E050E0BC0186ED94E00E94A4
:103C6000B4890F9108950F93AB010091140421E0E2
:103C7000022728ED34E0BC0186ED94E00E94B4896F
:103C80000F91089528ED34E04CE050E0BC0186ED42
:103C900094E00C94A59028ED34E041E050E0BC01A4
:103CA00086ED94E00C94A59028ED34E041E050E0DE
:103CB000BC0186ED94E00C94A59028ED34E04CE036
:103CC00050E0BC0186ED94E00C94A59028ED34E022
:103CD00044E050E0BC0186ED94E00C94A590CF93B5
:103CE000C82FCB010E94F9898FEE96E00E94F989D6
:103CF00080EE96E0CC2311F085EE96E0CF910C9407
:103D000020914F925F926F927F928F929F92AF928B
:103D1000BF92CF92DF92EF92FF920F931F93CF93B8
:103D2000DF93CDB7DEB72E970FB6F894DEBF0FBE88
:103D3000CDBF9E878D875B018A01DC01D7966D918F
:103D40007D918D919C91DA970E948FEA6B017C01A5
:103D5000F50120813181428153810E94F0EA0E9465
:103D600081EF4B015C01D8012D913D914D915C910A
:103D7000C701B6010E94F0EA0E9481EF2B013C01CD
:103D8000C501B4010E9401F06D837E838F83988703
:103D9000683771058105910540F408E710E020E0DF
:103DA00030E00D831E832F833887C301B2010E9448
:103DB00001F069837A838B839C8368377105810561
:103DC000910540F428E730E040E050E029833A8351
:103DD0004B835C83AD85BE8595968D909D90AD900F
:103DE000BC909897FD01ED5BFF4F608171818281EE
:103DF0009381611571058105910509F4D7C00E9471
:103E000091EA9B01AC0160E070E080E89FE30E94D2
:103E100094EF20E030E040E05FE30E94F0EA2B0105
:103E20003C01A7019601C701B6010E94F0EA6B01AF
:103E30007C0169817A818B819C810E948FEA9B0140
:103E4000AC010E94F0EA9B01AC01C701B6010E94DF
:103E50001CEFA30192010E94F0EA69877A878B87A1
:103E60009C876D817E818F8198850E948FEA9B015E
:103E7000AC010E94F0EA9B01AC01C701B6010E94AF
:103E80001CEFA30192010E94F0EA2B013C010E9469
:103E900081EF0E9401F06B017C0169857A858B8539
:103EA0009C850E942DF00E9401F0DC01CB01B7013E
:103EB000A601480F591F6A1F7B1F95018401041B2F
:103EC000150B260B370BB901A80177FF35C0C501CB
:103ED000B4010E948FEAA30192010E941DEF29857F
:103EE0003A854B855C850E941CEF20E030E040E085
:103EF0005FE30E94F0EA0E9481EF6B017C0120E009
:103F000030E0A9010E9480F018161CF0C12CD12CC1
:103F10007601C701B6010E9401F06B017C018C148F
:103F20009D04AE04BF0410F475016401D501C40101
:103F30008C199D09AE09BF09ED85FE85C2A6D3A6E1
:103F4000E4A6F5A695018401081B190B2A0B3B0B6F
:103F5000D901C80186A797A7A0ABB1AB0D811E817F
:103F60002F81388503AF14AF25AF36AFFF96098197
:103F70001A812B813C8100831183228333832E9607
:103F80000FB6F894DEBF0FBECDBFDF91CF911F916A
:103F90000F91FF90EF90DF90CF90BF90AF909F90E8
:103FA0008F907F906F905F904F90089580E090E0A9
:103FB000DC01C12CD12C7601BFCF0F93CF93DF93BF
:103FC000CDB7DEB700E22EE349855A8568858F813B
:103FD0000E943284DF91CF910F910895EF92FF926A
:103FE0000F931F938DECE82E85E0F82E10E000E093
:103FF0002FEC35E048EE52E56FED75E084EE95E08C
:104000000E9443BF1F910F91FF90EF900895EF9290
:10401000FF920F931F9388ECE82E84E0F82E10E0B7
:1040200000E022E435E04FE753E76AEC74E08FEC00
:1040300094E00E9443BF1F910F91FF90EF9008956D
:10404000AF92BF92CF92DF92EF92FF920F931F93A6
:10405000CF93DF9361E081E032DDC0918A0404E018
:104060000C0FD1E080E5E82E83E0F82E12E01C1B57
:1040700099E5C92E93E0D92EBD2EBC1AAC2EA19481
:10408000C1112EC0DD23D9F0809189041816BCF02F
:1040900040914E0750914F07609150077091510722
:1040A0004F5F5F4F6F4F7F4F40934E0750934F07C7
:1040B00060935007709351078F5F809389048091BC
:1040C0003902882331F041E064E673E08A2D0E94D2
:1040D000EDBDCF5F0C13D4CF83E0809388041FC065
:1040E000C13041F590918904913069F08091390295
:1040F0008823C1F11F92DF92CF92BF9281E091306D
:1041000051F180E028C08091490710924907882327
:1041100069F3C0936B0780915E07882339F3DF91C1
:10412000CF911F910F91FF90EF90DF90CF90BF90B4
:10413000AF900895C23069F6909189049230A1F051
:1041400080913902882371F01F92FF92EF921F93A2
:1041500081E09230B1F68F9330DF0F900F900F9087
:104160000F900F90D0E0B5CF80914907109249078A
:10417000882331F3C0936B0780915E07882301F396
:10418000CECF80913902882341F060917A047091FA
:104190007B0441E081E00C94EDBD0895CF92DF9265
:1041A000EF92FF920F931F93CF93DF93CDB7DEB7BC
:1041B000CDB6DEB68091060F67E87CE0882311F06B
:1041C00066E07FE0FB0101900020E9F7CF01861B4C
:1041D000970B01962DB73EB7281B390B0FB6F894F5
:1041E0003EBF0FBE2DBF0DB71EB70F5F1F4F80E242
:1041F000EDB7FEB78183C80101960E943DF185E6C7
:10420000E82E85E0F82E27E635E048E254E563E73E
:1042100075E08AE795E00E9443BF0FB6F894DEBED2
:104220000FBECDBEDF91CF911F910F91FF90EF9008
:10423000DF90CF900895CF93DF9310924C0660E00B
:1042400090E080E00E940988CEE1D6E01A8661E025
:1042500090E080E00E94098819A280910201887094
:10426000809300012D98CEE0D6E0198618860E9432
:104270005B771A8680910B01807180930901DF9131
:10428000CF9108958F929F92AF92BF92CF92DF927B
:10429000EF92FF920F931F93CF93DF93B0E4A0E0D0
:1042A0006A2F70E0AB014B0F511D55954795411199
:1042B00019C0EDE3FAE065917491072E000C880BAC
:1042C000990B0E9491EADF91CF911F910F91FF907E
:1042D000EF90DF90CF90BF90AF909F908F90089518
:1042E000B42FE0CFA41711F0B41303C0E9E3FBE04F
:1042F000E2CF9A0121503109220F331F220F331FC1
:10430000F901E55CF54FE590F490F901E15CF54FBA
:10431000C591D4918E159F0518F3A42FC817D907FE
:1043200008F4BECFF901E35CF54F05911491F90152
:10433000EF5BF54FC590D4908E199F09BC0190E0BA
:1043400080E00E948FEA4B015C01B601601B710B9B
:10435000072E000C880B990B0E9491EA9B01AC017F
:10436000C501B4010E94F0EA4B015C01CE19DF09DE
:10437000BE0190E080E00E948FEA9B01AC01C50184
:10438000B4010E9494EF6B017C01B801110F880BFE
:10439000990B0E9491EA9B01AC01C701B6010E94F2
:1043A0001DEF91CFEF92FF920F931F93CF938EEC5F
:1043B000E82E89E0F82E20E030E048E452E46091F5
:1043C00022067091230680912406909125060E9472
:1043D00080F0C0E087FD08C0F701949181E001C042
:1043E000880F9A95EAF7C82F0FEC19E020E030E02B
:1043F00048E452E46091390670913A0680913B0698
:1044000090913C060E9480F087FD09C0F80124913C
:1044100081E090E001C0880F2A95EAF7C82BF701E8
:10442000E4908C2F90E020910201AC010E2C02C090
:10443000559547950A94E2F740FD1BC020712093E3
:104440000001F801049121E030E002C0220F331F87
:10445000EA94E2F73327002E02C0359527950A9497
:10446000E2F720FF08C0CF911F910F91FF90EF90CE
:1044700008952095E3CF02C0959587950A95E2F7B8
:1044800080FD02C02E98EFCF2E9AEDCF14988D5F4D
:1044900021E030E001C0220F8A95EAF780914405BF
:1044A000822B809344050895CF92DF92EF92FF9282
:1044B000CF93DF93EC01C880D980EA80FB8084EC45
:1044C00099E00E94F989C701B6010E9421B9CC8008
:1044D000DD80EE80FF8080E19EE20E94F989C701C5
:1044E000B6010E9421B9C884D984EA84FB848CE097
:1044F0009EE20E94F989C701B6010E9421B98AE0B3
:10450000DF91CF91FF90EF90DF90CF900C94F289E4
:104510000F930FB70F9300916E000F930D7F0093D1
:104520006E0000916F000D7F00936F000F930BB72B
:104530000F930CB70F921F922F933F934F935F935C
:104540006F937F938F939F93AF93BF93EF93FF935B
:1045500011240E94BB3FFF91EF91BF91AF919F91BA
:104560008F917F916F915F914F913F912F911F900C
:104570000F900CBF0F910BBF0F910260F894009346
:104580006F000F9100936E000F910FBF0F91189560
:1045900000C000C08091F60680FF28C0889A8FEF87
:1045A0008093DB048091F60681FF23C08C9A8FEF05
:1045B0008093DC048091F60682FF1EC08091080182
:1045C00080958170809306018FEF8093DD04809148
:1045D000DF049091F60693FF18C0811114C0129A5F
:1045E0008FEF8093DE0400C000C00895889881E0BA
:1045F000D7CF8C9881E0DCCF8091080181708093C7
:10460000060181E0E2CF1698EBCF811103C012982A
:1046100081E0E7CF169AFCCF93E0980F21E030E0DD
:1046200002C0220F331F9A95E2F7209530959091A2
:104630004405292320934405882321F0813021F06B
:1046400081E00895149AFCCFA29AFACF80E0E4DFCB
:1046500081E0E2CF882319F0813019F0089580E0DD
:1046600015CFA298809144058061809344050895F8
:10467000813089F070F0823081F021E030E001C0BB
:10468000220F8A95EAF780914405822B8093440596
:1046900008958A98F2CF8E98F0CF90910801947087
:1046A00090930601EACFCF93DF9300D01F92CDB74E
:1046B000DEB78091E206882389F083E390E09C8353
:1046C0008B831A8219829E012F5F3F4F40E150E099
:1046D00063EE76E0CE0103960E94A5900F900F90B6
:1046E0000F900F90DF91CF910895CF93DF9300D07B
:1046F0001F921F92CDB7DEB781E08093E20680E182
:10470000E3EEF6E0DF011D928A95E9F7CCDF86E162
:104710008D8382E390E09C838B831A8219829E01B1
:104720002F5F3F4F41E050E0BE016B5F7F4FCE01F6
:1047300003960E94A5900F900F900F900F900F90EE
:10474000DF91CF910895AF92BF92CF92DF92EF9217
:10475000FF920F931F93CF93DF93CCE6D7E006ED44
:1047600013E08CE7A82E87E0B82EC12CD12C76015F
:10477000C39469917991899199910E948FEA2889CE
:1047800039894A895B890E94F0EA0E9401F0F801A8
:1047900061937193819391938F01C616D706E806B2
:1047A000F90610F46B017C01AC16BD0611F76FEF32
:1047B0007FEFCB01A70196010E9465EE2093A8042C
:1047C0003093A9044093AA045093AB04DF91CF9196
:1047D0001F910F91FF90EF90DF90CF90BF90AF901F
:1047E00008950F931F93CF93DF9300E817E0CEEA6D
:1047F000D4E0F80121913191419151918F0160E014
:1048000070E080E89FE30E9494EF69937993899325
:104810009993F4E0CE3BDF0761F70E944BBBDF9139
:10482000CF911F910F918FCFDCCFDBCF9091BC0F39
:104830008091BD0F981306C08091690790916A0717
:10484000892B21F080E00E94FB91F0CF0895909198
:104850006F0081E091FD02C080E0089590916F00AB
:104860009D7F90936F000895EFE6F0E08081826075
:1048700080830895CF93C82FEADF94E0C99F900109
:104880001124F901E85DFA4F2C5C3A4FD9014D91A2
:104890005D916D917C91408351836283738391E03C
:1048A00090932705882311F0CF91DECFCF91089503
:1048B0002F923F924F925F926F927F928F929F9230
:1048C000AF92BF92CF92DF92EF92FF920F931F931E
:1048D000CF93DF93CDB7DEB7C058D1090FB6F894A8
:1048E000DEBF0FBECDBF7C018B01242EA4963FAF4F
:1048F0002EAFA497209180073091810740918207C5
:1049000050918307DC016D917D918D919C910E9466
:10491000F0EA0E9484F0E8966CAF7DAF8EAF9FAF57
:10492000E897209184073091850740918607509140
:104930008707F70164817581868197810E94F0EA7B
:104940000E9484F0EC966CAF7DAF8EAF9FAFEC977A
:10495000209188073091890740918A0750918B07F1
:10496000D70118966D917D918D919C911B970E9416
:10497000F0EA0E9484F0C458DF4F688379838A8309
:104980009B83CC57D04020918C0730918D0740916C
:104990008E0750918F07F701648575858685978509
:1049A0000E94F0EA0E9484F0AA966CAF7DAF8EAFB1
:1049B0009FAFAA978091EA0383FF0EC0AA962CAD01
:1049C0003DAD4EAD5FADAA972093DE0F3093DF0F64
:1049D0004093E00F5093E10FD801BC916A96BFAFAE
:1049E0006A97F801F1812E96FFAF2E97D8011296A3
:1049F000BC91A296BFAFA297F80133808091BC0F03
:104A00009091BD0F891B80958F7019F40E94FB91C6
:104A1000F5CFF091BC0FC058DF4FF883C058D0409D
:104A20002091BC0F2FAF8091690790916A07892B65
:104A300011F00C9499318091D20F9091D30FA091E5
:104A4000D40FB091D50FE8968CAC9DACAEACBFAC9A
:104A5000E897881A990AAA0ABB0A8091D60F909102
:104A6000D70FA091D80FB091D90FEC962CAD3DADDA
:104A70004EAD5FADEC97281B390B4A0B5B0B2BAF90
:104A80003CAF4DAF5EAF8091DA0F9091DB0FA091FC
:104A9000DC0FB091DD0FC458DF4F288139814A8186
:104AA0005B81CC57D040281B390B4A0B5B0B2FABDB
:104AB00038AF49AF5AAF8091DE0F9091DF0FA091D0
:104AC000E00FB091E10FAA96CCACDDACEEACFFAC40
:104AD000AA97C81AD90AEA0AFB0A09F465C0822D06
:104AE0000E9438888823B9F0AA968CAD9DADAEADF2
:104AF000BFADAA978093DE0F9093DF0FA093E00FD6
:104B0000B093E10F0E942E8A88E598E00E94F9890F
:104B1000C12CD12C760194E0299E800111240C5ED9
:104B20001D4FC701B6010E9491EAD8012D913D9118
:104B30004D915C910E94F0EA2B013C0120E030E0B5
:104B4000A9010E9480F087FF04C077FA709477F87B
:104B5000709420E030E048E453E460918C07709159
:104B60008D0780918E0790918F070E94F0EAA30134
:104B700092010E948BEA87FF17C0AA962CAD3DAD2B
:104B80004EAD5FADAA972093DE0F3093DF0F4093B9
:104B9000E00F5093E10F0E942E8A89E398E00E9473
:104BA000F989C12CD12C7601D501C4018827B7FD24
:104BB00083959927AA27BB27782E2BAD3CAD4DAD09
:104BC0005EAD57FF02C0689471F88FA998ADA9AD8A
:104BD000BAADB7FF02C0689472F8F7FE02C06894DD
:104BE00073F894E0299E800111240C5E1D4FC701CB
:104BF000B6010E9491EAD8012D913D914D915C91B1
:104C00000E94F0EA6B017C0120E030E0A9010E94E3
:104C100080F087FFC7C1C701B6019058FFADEF2FE5
:104C2000F0E0FCABEBAB5FAD4BE4549F9001112483
:104C3000D901A553B84F2196BFAFAEAF219720E061
:104C400030E040E05FE30E941DEF0E9401F02D96EE
:104C50006CAF7DAF8EAF9FAF2D972196EEADFFADC0
:104C60002197108276AA2FA938AD49AD5AAD299661
:104C70002CAF3DAF4EAF5FAF299757FF0DC050959A
:104C80004095309521953F4F4F4F5F4F29962CAF60
:104C90003DAF4EAF5FAF29974BAC5CAC6DAC7EAC1B
:104CA00077FE08C07094609450944094411C511C4D
:104CB000611C711C25968CAE9DAEAEAEBFAE259725
:104CC000B7FE0DC088279927DC0188199909AA0920
:104CD000BB0925968CAF9DAFAEAFBFAF259725968C
:104CE0002CAD3DAD4EAD5FAD25972196AEADBFADC0
:104CF000219755962D933D934D935C935897FD01C5
:104D0000418E528E638E748E29962CAD3DAD4EAD84
:104D10005FAD29975D962D933D934D935C9390974E
:104D2000C501B4010E9491EA2091AE043091AF0414
:104D30004091B0045091B1040E94F0EA65966CAFC6
:104D40007DAF8EAF9FAF659769A37AA38BA39CA31A
:104D50006BAD7CAD8DAD9EAD0E9491EA2091B20409
:104D60003091B3044091B4045091B5040E94F0EA2C
:104D700069966CAF7DAF8EAF9FAF69976DA37EA331
:104D80008FA398A76FA978AD89AD9AAD0E9491EADB
:104D90002091B6043091B7044091B8045091B90401
:104DA0000E94F0EAA1966CAF7DAF8EAF9FAFA19746
:104DB00069A77AA78BA79CA72091BA043091BB045E
:104DC0004091BC045091BD04C701B6010E94F0EAB5
:104DD0006BAF7CAF8DAF9EAF6DA77EA78FA798AB53
:104DE00025962CAD3DAD4EAD5FAD259726303105F6
:104DF000410551050CF0DEC036E043165104610454
:104E000071040CF0D7C029968CAD9DADAEADBFAD91
:104E100029970697A105B1050CF0CCC020E030E041
:104E2000A9016BAD7CAD8DAD9EAD0E9480F087FF7A
:104E3000BCC08BAD9CADADADBEADB0582BE44BA9A5
:104E40005CA9249FF001259FF00D1124E553F84F34
:104E500085879687A787B08B8BE4ABA9BCA98A9F6F
:104E6000F0018B9FF00D1124E553F84F2D962CADDA
:104E70003DAD4EAD5FAD2D9721A332A343A354A307
:104E800029968CAD9DADAEADBFAD29978415950526
:104E9000A605B70510F4D301C20125962CAD3DAD92
:104EA0004EAD5FAD259782179307A407B50710F4A1
:104EB000DA01C9012D962CAD3DAD4EAD5FAD2D97FC
:104EC00082179307A407B50710F4DA01C9012BE490
:104ED0004BA95CA9249FF001259FF00D1124E553F7
:104EE000F84F85A396A3A7A3B0A70697A105B10580
:104EF00010F40C947C3121A689288A288B2811F083
:104F000080E0B6DB8BE4ABA9BCA98A9FF0018B9F44
:104F1000F00D1124E553F84F818D928DA38DB48D42
:104F2000892B8A2B8B2B11F081E0A2DB8BE42BA940
:104F30003CA9829FF001839FF00D1124E553F84FA7
:104F4000858D968DA78DB0A1892B8A2B8B2B11F087
:104F500082E08EDB2D968CAD9DADAEADBFAD2D97B5
:104F6000892B8A2B8B2B11F40C949B318091AC04F0
:104F7000882319F081508093AC048091AD0488237C
:104F800019F081508093AD04211073C080E07EDA67
:104F900080E28093AC048091AD04811177C081E000
:104FA0003BDB74C0C701B60139CE8BAD9CADADAD56
:104FB000BEAD44CFA496AEADBFADA497CD90DD906D
:104FC000ED90FC9020E030E0A901C701B6010E94FD
:104FD0008BEA882379F08BE42BA93CA9829FF0010E
:104FE000839FF00D1124E553F84FC586D686E786DA
:104FF000F08A32CF65962CAD3DAD4EAD5FAD659775
:10500000CA01B9010E94F0EA6B017C0169962CADDE
:105010003DAD4EAD5FAD6997CA01B9010E94F0EA9E
:105020009B01AC01C701B6010E941DEF6B017C0121
:10503000A1962CAD3DAD4EAD5FADA197CA01B901B2
:105040000E94F0EA9B01AC01C701B6010E941DEF6E
:105050000E94B8F02BE44BA95CA9249FF001259F86
:10506000F00D1124E553F84F658776878787908B7D
:10507000F3CE8091AC04811101C0CEDA91E0291207
:105080008ACF81E0E7DA80E28093AD04E090AC075C
:10509000F090AD070091AE071091AF070C94A331CB
:1050A0002D968CAD9DADAEADBFAD2D97892B8A2BC6
:1050B0008B2B09F4F1C52091A0073091A1074091F5
:1050C000A2075091A307A6966CAD7DAD8EAD9FADA6
:1050D000A6970E94F0EA0E9481EF0E9401F06B0106
:1050E0007C018091A8049091A904A091AA04B09198
:1050F000AB042196EEADFFAD2197218D328D438D0E
:10510000548D2FAB38AF49AF5AAF258D368D478DB3
:1051100050A125962CAF3DAF4EAF5FAF259721A193
:1051200032A143A154A161962CAF3DAF4EAF5FAF0A
:10513000619729962CAD3DAD4EAD5FAD2997821795
:105140009307A407B50708F4B0C581149104A1041E
:10515000B104D1F06091D6037091D7038091D80348
:105160009091D9036C157D058E059F0568F40E940A
:1051700056EEA50194010E9465EE2C153D054E05E5
:105180005F0510F469017A018FA998ADA9ADBAAD98
:10519000892B8A2B8B2B11F16091DA037091DB0341
:1051A0008091DC039091DD036C157D058E059F05D4
:1051B000A8F429962CAD3DAD4EAD5FAD29970E9468
:1051C00056EE2FA938AD49AD5AAD0E9465EE2C15AB
:1051D0003D054E055F0510F469017A0125962CAD59
:1051E0003DAD4EAD5FAD2597232B242B252B21F113
:1051F0006091DE037091DF038091E0039091E10301
:105200006C157D058E059F05B8F429962CAD3DAD36
:105210004EAD5FAD29970E9456EE25962CAD3DAD63
:105220004EAD5FAD25970E9465EE2C153D054E05F0
:105230005F0510F469017A0161968CAD9DADAEAD4C
:10524000BFAD6197892B8A2B8B2B21F16091E203F3
:105250007091E3038091E4039091E5036C157D0563
:105260008E059F05B8F429962CAD3DAD4EAD5FADD2
:1052700029970E9456EE61962CAD3DAD4EAD5FADC7
:1052800061970E9465EE2C153D054E055F0510F4F3
:1052900069017A018BE44BA95CA9849F8001859FF9
:1052A000100D11240553184FF801ED5BFF4FC0821C
:1052B000D182E282F382C701B6010E948FEA6B01BC
:1052C0007C01A6962CAD3DAD4EAD5FADA6970E947C
:1052D00094EFD80151966D937D938D939C93549741
:1052E0002DEB37E346E051E4C701B6010E94F0EA36
:1052F0000E9401F0F80162AB73AB84AB95AB65968D
:105300002CAD3DAD4EAD5FAD6597298B3A8B4B8B88
:105310005C8B69968CAD9DADAEADBFAD69978D8B45
:105320009E8BAF8BB88FA1962CAD3DAD4EAD5FADD2
:10533000A197298F3A8F4B8F5C8F8BAD9CADADAD14
:10534000BEAD8D8F9E8FAF8FB8A32D962CAD3DAD8A
:105350004EAD5FAD2D97232B242B252B09F4B4C51F
:105360008E010F5E1F4F5E0131E2A30EB11CC12CF6
:10537000D12C7601D8014D905D906D907D908D017E
:1053800020E030E0A901C301B2010E948BEA88232A
:1053900071F0A3019201C301B2010E94F0EA9B01E6
:1053A000AC01C701B6010E941DEF6B017C01A01684
:1053B000B10601F7C701B6010E94B8F09B01AC012C
:1053C00060E070E080E89FE30E9494EF6B017C0155
:1053D000AC019B0165966CAD7DAD8EAD9FAD6597C3
:1053E0000E94F0EA698B7A8B8B8B9C8BA7019601CC
:1053F00069966CAD7DAD8EAD9FAD69970E94F0EA68
:105400006D8B7E8B8F8B988FA7019601A1966CADCB
:105410007DAD8EAD9FADA1970E94F0EA698F7A8F26
:105420008B8F9C8FA70196016BAD7CAD8DAD9EAD32
:105430000E94F0EA6D8F7E8F8F8F98A3A296BFADEA
:10544000A297BB2309F47EC52091BE0F3091BF0FF8
:105450004091C00F5091C10F25962CAF3DAF4EAF7C
:105460005FAF25972DEB37E346E855E325966CAD06
:105470007DAD8EAD9FAD25970E948BEA87FD62C5FD
:105480008090980490909904A0909A04B0909B0406
:10549000C988DA88EB88FC8880919C0490919D04EF
:1054A000A0919E04B0919F048FAB98AFA9AFBAAF03
:1054B0002D893E894F89588D2D962CAF3DAF4EAF2B
:1054C0005FAF2D978091A0049091A104A091A204B8
:1054D000B091A30465968CAF9DAFAEAFBFAF65979B
:1054E000298D3A8D4B8D5C8D69962CAF3DAF4EAFBB
:1054F0005FAF69978091A4049091A504A091A60440
:10550000B091A704A1968CAF9DAFAEAFBFAFA197EE
:105510002D8D3E8D4F8D58A129962CAF3DAF4EAFAE
:105520005FAF2997C501B4019058A70196010E9469
:10553000F0EA2B013C016FA978AD89AD9AAD905886
:105540002D962CAD3DAD4EAD5FAD2D970E94F0EA8E
:105550009B01AC01C301B2010E941DEF2B013C0174
:1055600065966CAD7DAD8EAD9FAD65979058699693
:105570002CAD3DAD4EAD5FAD69970E94F0EA9B0149
:10558000AC01C301B2010E941DEF2B013C01A196A9
:105590006CAD7DAD8EAD9FADA197905829962CAD89
:1055A0003DAD4EAD5FAD29970E94F0EA9B01AC0185
:1055B000C301B2010E941DEF6BAF7CAF8DAF9EAFF8
:1055C0002FEE3FEF4FE75FE30E9480F018160CF4D8
:1055D000B2C4A5019401C701B6010E941CEF2B01C2
:1055E0003C0149825A826B827C822FA938AD49AD39
:1055F0005AAD2D966CAD7DAD8EAD9FAD2D970E94B1
:105600001CEF2D966CAF7DAF8EAF9FAF2D976D8346
:105610007E838F83988765962CAD3DAD4EAD5FAD93
:10562000659769966CAD7DAD8EAD9FAD69970E9413
:105630001CEF65966CAF7DAF8EAF9FAF65976987A6
:105640007A878B879C87A1962CAD3DAD4EAD5FAD23
:10565000A19729966CAD7DAD8EAD9FAD29970E9427
:105660001CEF69966CAF7DAF8EAF9FAF69976D876A
:105670007E878F87988BAE014F5F5F4F58AF4FABE0
:105680008E010F5E1F4F1A01C12CD12C7601D10162
:105690008D909D90AD90BD901D0120E030E0A9015E
:1056A000C501B4010E948BEA882371F0A501940121
:1056B000C501B4010E94F0EA9B01AC01C701B6012B
:1056C0000E941DEF6B017C010215130501F7C70154
:1056D000B6010E94B8F09B01AC0160E070E080E888
:1056E0009FE30E9494EF6B017C01AC019B01C3011D
:1056F000B2010E94F0EA69837A838B839C83A701BD
:1057000096012D966CAD7DAD8EAD9FAD2D970E940F
:10571000F0EA6D837E838F839887A7019601659653
:105720006CAD7DAD8EAD9FAD65970E94F0EA698747
:105730007A878B879C87A701960169966CAD7DADB2
:105740008EAD9FAD69970E94F0EA6D877E878F8747
:10575000988B2196EEADFFAD2197418852886388E2
:1057600074880CE617E0AFA9B8ADCD90DD90ED9050
:10577000FD90B8AFAFAB20E030E0A901C701B601A2
:105780000E948BEA882309F43EC020E030E0A901A2
:10579000C701B6010E9480F087FFC3C3A70196012D
:1057A00050582D962CAF3DAF4EAF5FAF2D97D8011F
:1057B0006D917D918D919C910E948FEA4B015C01CE
:1057C000A30192012D966CAD7DAD8EAD9FAD2D9751
:1057D0000E94F0EAA50194010E9480F018169CF442
:1057E000A7019601C501B4010E9494EF2B013C0171
:1057F00020E030E0A9010E9480F087FF04C077FA22
:10580000709477F870940C5F1F4FEFA9F8AD2E16C7
:105810003F0609F0A8CF2FEE3FEF4FE75FEB6BADF0
:105820007CAD8DAD9EAD0E948BEA87FF08C02FEE48
:105830003FEF4FE75FEB2BAF3CAF4DAF5EAF2BAD14
:105840003CAD4DAD5EAD60E070E080E89FE30E944E
:105850001CEF20E030E040E05FE30E94F0EA0E94AD
:10586000B8F06B017C01209110043091110440913B
:10587000120450911304C301B2010E94F0EAA7017F
:1058800096010E94F0EA4B015C01A701960160E0DD
:1058900070E080E89FE30E941CEF9B01AC01C50112
:1058A000B4010E9494EF262E172F082F392E8BE477
:1058B0004BA95CA9849FF001859FF00D1124E5534D
:1058C000F84F85859685A785B0898FAB98AFA9AF2E
:1058D000BAAF20E030E040E85FE3BC01CD010E94B8
:1058E0008BEA87FF9AC023EF34E045E35FEB6BADB3
:1058F0007CAD8DAD9EAD0E948BEA87FF8EC020E00F
:1059000030E0A9016BAD7CAD8DAD9EAD0E948BEA00
:10591000C12CD12C50E8E52E5FEBF52E87FD06C09B
:10592000C12CD12C40E8E42E4FE3F42EA7019601C0
:105930006BAD7CAD8DAD9EAD0E94F0EA4B015C017C
:1059400029E539ED40E053E30E948BEA87FDF0C280
:10595000A501940160E070E080E89FE30E941CEFE5
:1059600020E030E040E057E40E94F0EA0E9401F0BD
:10597000CB010E9404EF0197880F991F880F991F90
:10598000FC01E750F84F2591359145915491FC0168
:10599000E754F84F85919591A591B4918BAF9CAF49
:1059A000ADAFBEAFC501B4010E94F0EA2BAD3CAD76
:1059B0004DAD5EAD0E941DEF4B015C0120E030E07B
:1059C000A901C701B6010E9480F0181654F4A50180
:1059D00094016BED7FE089E490E40E941CEF4B01A1
:1059E0005C01A30192016FA978AD89AD9AAD0E94C7
:1059F000F0EAA50194010E9494EF6B017C019B01E8
:105A0000AC01622D712F802F932D0E9480F018160B
:105A100024F42C2C1D2D0E2D3F2C25962CAD3DADA8
:105A20004EAD5FAD2597CA01B9010E94F0EA6B0146
:105A30007C018BE4ABA9BCA98A9FF0018B9FF00D80
:105A40001124E553F84F61817281838194819B0118
:105A5000AC010E94F0EA4B015C019B01AC01B60174
:105A6000C7010E9480F0181614F464017501222DFC
:105A7000312F402F532DB601C7010E9480F0181618
:105A800024F4C22CD12EE02EF32C80E1FE0171967D
:105A9000A8E9B4E001900D928A95E1F78BE4EBA9B7
:105AA000FCA98E9F80018F9F100D11240553184F64
:105AB000C601D701F80181879287A387B4876189DE
:105AC00072898389948990589B01AC010E941DEFD3
:105AD0002196AEADBFAD21971D962D913D914D9173
