:100000000C94C1160C94FA160C94FA160C94FA1669
:100010000C94FA160C94FA160C94FA160C94FA1620
:100020000C94FA160C94FA160C94FA160C94FA1610
:100030000C94FA160C94FDC90C94FA160C94FA164A
:100040000C94FA160C94D6770C94FA160C94FA16B3
:100050000C94FA160C9423DD0C94FA160C94B3C984
:100060000C94FA160C94EF490C94E5490C94FA168A
:100070000C94FA160C94FA160C94FA160C94FA16C0
:100080000C94FA160C94FA160C94FA160C94FA16B0
:100090000C94FA160C94FA160C94FA160C94FA16A0
:1000A0000C94FA160C94FA160C94FA160C94FA1690
:1000B0000C94FA160C94FA160C94FA160C94FA1680
:1000C0000C94FA160C94FA160C94FA160C94FA1670
:1000D0000C94FA160C94FA160C94FA160C94FA1660
:1000E0000C94FA164E414E494E495459494E46CD4C
:1000F000CCCC3D0AD7233C17B7D13877CC2B3295DF
:1001000095E6241FB14F0A000020410000C84200BC
:10011000401C4620BCBE4CCA1B0E5AAEC59D744343
:100120004F4D4D554E49434154494F4E004452594D
:1001300052554E004552524F525300494E464F00C1
:100140004543484F004572726F7220777269746937
:100150006E6720746F20454550524F4D210A005361
:10016000544F505045442E20005072696E74657291
:100170002073746F707065642064756520746F20DF
:100180006572726F72732E204669782074686520DC
:100190006572726F7220616E6420757365204D39CF
:1001A000393920746F20726573746172742E20283F
:1001B00054656D7065726174757265206973207223
:1001C000657365742E2053657420697420616674AC
:1001D00065722072657374617274696E67290A00B2
:1001E0004E6F20436865636B73756D207769746823
:1001F000206C696E65206E756D6265722C204C6195
:100200007374204C696E653A20004E6F2043686518
:10021000636B73756D2077697468206C696E6520F7
:100220006E756D6265722C204C617374204C696E22
:10023000653A2000636865636B73756D206D697343
:100240006D617463682C204C617374204C696E6519
:100250003A20004C696E65204E756D6265722069AA
:1002600073206E6F74204C617374204C696E65202E
:100270004E756D6265722B312C204C617374204C6D
:10028000696E653A20004D31313000536572696105
:100290006C20737461747573206D69736D61746320
:1002A000680A0053442072656164206572726F723F
:1002B0000A00746F6F206D75636820696E616374E6
:1002C0006976652074696D65202D2063757272658D
:1002D0006E7420636F6D6D616E643A200021212081
:1002E0004B494C4C20636175736564206279200032
:1002F000627573793A2070617573656420666F72F8
:1003000020696E7075740A00627573793A207061A5
:100310007573656420666F7220757365720A00627A
:100320007573793A2070726F63657373696E670ACB
:10033000004D656469612052656D6F766564004D9E
:100340006564696120496E73657274656400506C00
:1003500065617365205265736574005052494E544F
:1003600045522048414C5445440025533A202553DA
:10037000004B494C4C45442E20005072696E746508
:10038000722068616C7465642E206B696C6C28291E
:100390002063616C6C6564210A006563686F3A00D4
:1003A0004572726F723A00486F74656E6420746FA4
:1003B0006F20636F6C640A005072657373206275FE
:1003C00074746F6E20746F20726573756D650A00AA
:1003D000496E736572742066696C616D656E742018
:1003E000616E6420707265737320627574746F6ED1
:1003F0000A00507265737320627574746F6E207496
:100400006F2068656174206E6F7A7A6C650A0020CF
:10041000440020204D32303020540020204D323016
:1004200030205300202844697361626C6564293A66
:100430000046696C616D656E742073657474696ED5
:1004400067730020204D3230312058004D617820F4
:10045000416363656C65726174696F6E2028756EA7
:100460006974732F7332290020204D3230332058A5
:10047000004D61782066656564726174657320283B
:10048000756E6974732F73290020520020204D323D
:100490003034205000416363656C65726174696F2C
:1004A0006E2028756E6974732F7332292028503C92
:1004B0007072696E742D616363656C3E20523C728C
:1004C0006574726163742D616363656C3E20543C96
:1004D00074726176656C2D616363656C3E290020E2
:1004E0004A0020540020530020204D323035204255
:1004F00000416476616E6365642028423C6D696EDC
:100500005F7365676D656E745F74696D655F757344
:100510003E20533C6D696E5F66656564726174650B
:100520003E20543C6D696E5F74726176656C5F66E7
:10053000656564726174653E204A3C6A756E635FEE
:100540006465763E290020204D32313700546F6FAC
:100550006C2D6368616E67696E670020204D3231D3
:1005600038205400486F74656E64206F666673654A
:1005700074730020440020490020204D3330312086
:100580005000486F74656E642050494400203B0061
:10059000205500204C0020204D363033205400469A
:1005A000696C616D656E74206C6F61642F756E6C23
:1005B0006F6164003B200020496E76616C696420A5
:1005C00065787472756465722000536C6565702E71
:1005D0002E2E00436C69636B20746F205265737517
:1005E0006D652E2E2E004E6F204D6F76652E0045C8
:1005F0006E642066696C65206C6973740A004265DC
:1006000067696E2066696C65206C6973740A004EB8
:100610006F206D656469610A00286E6F2066696CE1
:1006200065290043757272656E742066696C653A5F
:1006300020004E6F74205344207072696E74696E8E
:10064000670A005344207072696E74696E67206295
:1006500079746520002E0A0044656C6574696F6EBC
:10066000206661696C65642C2046696C653A2000DF
:1006700046696C652064656C657465643A00507207
:10068000696E742074696D653A20000A5374617450
:10069000733A2046696C616D656E7420757365648C
:1006A0003A20002C204C6F6E67657374206A6F626D
:1006B0003A2000546F74616C2074696D653A2000B3
:1006C00053746174733A20002C204661696C656430
:1006D0003A20002C2046696E69736865643A2000F0
:1006E0005072696E74733A200053746174733A20C7
:1006F000006F6B006F66660040013B0134012D0105
:100700001F0144454255473A004D3131322053686C
:100710007574646F776E004D31313320530057612B
:100720006E68616F2F4475706C696361746F7220BD
:100730003453204F46462E00434F4E4649475F45AF
:1007400058504F5254004D4541545041434B004383
:100750004F4F4C45525F54454D50455241545552B0
:1007600045004348414D4245525F54454D50455226
:100770004154555245004241425953544550504905
:100780004E470041524353004D4F54494F4E5F4D29
:100790004F44455300544845524D414C5F50524FD1
:1007A00054454354494F4E00455854454E444544E2
:1007B0005F4D323000435553544F4D5F4649524DC3
:1007C000574152455F55504C4F4144004C464E5F97
:1007D0005752495445004C4F4E475F46494C454E91
:1007E000414D45004155544F5245504F52545F536F
:1007F000445F5354415455530053445F5752495436
:100800004500524550454154004D554C54495F56A2
:100810004F4C554D45005344434152440050524FB4
:100820004D50545F535550504F525400484F5354FD
:100830005F414354494F4E5F434F4D4D414E4453EA
:1008400000454D455247454E43595F50415253452F
:100850005200434153455F4C494748545F42524917
:100860004748544E45535300544F47474C455F4CFF
:10087000494748545300534F4654574152455F50DF
:100880004F574552004255494C445F5045524345ED
:100890004E54004C4556454C494E475F44415441E7
:1008A000005A5F50524F42450052554E4F5554002A
:1008B0004155544F4C4556454C005052494E545F9B
:1008C0004A4F420050524F475245535300415554EE
:1008D0004F5245504F52545F54454D50004155546E
:1008E0004F5245504F52545F504F5300564F4C5546
:1008F0004D455452494300454550524F4D004249E1
:100900004E4152595F46494C455F5452414E534601
:1009100045520053455249414C5F584F4E5F584F26
:100920004646004649524D574152455F4E414D455E
:100930003A4D61726C696E206275676669782D3216
:100940002E312E7820284465632020342032303226
:10095000322030363A32313A30322920534F555214
:1009600043455F434F44455F55524C3A676974684D
:1009700075622E636F6D2F4D61726C696E46697280
:100980006D776172652F4D61726C696E2050524FA8
:10099000544F434F4C5F56455253494F4E3A312EB8
:1009A00030204D414348494E455F545950453A57D0
:1009B000616E68616F2F4475706C696361746F72EA
:1009C0002034532045585452554445525F434F55A7
:1009D0004E543A3220555549443A63656465326154
:1009E00032662D343161322D343734382D3962314D
:1009F000322D633535633632663336376666002FFF
:100A00002F004D31343520533C696E6465783E20AB
:100A10006F7574206F662072616E67652028302DB7
:100A200031290A003F4A206F7574206F6620726179
:100A30006E67652028302E303120746F20302E33C1
:100A4000290A002058004F4646004F4E0020204DF6
:100A500061783A2000200020204D696E3A20002065
:100A60003B200020204D323131205300536F6674FB
:100A700020656E6473746F70730046523A002046AE
:100A80006C6F773A2000496E76616C6964206578F6
:100A90007472756465720A0064697300656E004360
:100AA000290A0061626C656420286D696E20746596
:100AB0006D702000436F6C64206578747275646596
:100AC000732061726520004F666673657473204100
:100AD00070706C696564004572723A20546F6F20C3
:100AE0006661722100546F6F206661722066726FBA
:100AF0006D207265666572656E636520706F696EE4
:100B0000740A00454550524F4D204F4B0A004D3856
:100B10003400446F6E65207072696E74696E672070
:100B200066696C650A004D3737004D33310020206F
:100B30004D323036205800486F6D65206F66667301
:100B40006574004361703A002569730025696D2062
:100B5000256973002569682025696D202569730062
:100B6000256964202569682025696D202569730041
:100B700025697920256964202569682025696D200B
:100B800025697300436F6F6C696E672E2E2E0045CA
:100B900025632025530042656420436F6F6C696EA6
:100BA000672E2E2E004265642048656174696E6769
:100BB0002E2E2E00206661696C65642120426164DE
:100BC000206865617465722069640A005049442098
:100BD0004175746F74756E650023646566696E6532
:100BE0002044454641554C545F004B6420004B69FE
:100BF00020004B7020002066696E6973686564216F
:100C00002050757420746865206C617374204B707B
:100C10002C204B6920616E64204B6420636F6E73DF
:100C200074616E74732066726F6D2062656C6F778D
:100C300020696E746F20436F6E66696775726174A8
:100C4000696F6E2E680A00504944204175746F74B4
:100C5000756E6500206661696C6564212074696D3C
:100C6000656F75740A00504944204175746F74753E
:100C70006E6500206661696C6564212054656D7045
:100C80006572617475726520746F6F20686967683A
:100C90000A00504944204175746F74756E650050A8
:100CA0004944204379636C65730025532025692FDF
:100CB000256900204B643A2000204B693A2000202F
:100CC0004B703A200020436C617373696320504974
:100CD00044200A002054753A2000204B753A200029
:100CE000206D61783A2000206D696E3A2000206402
:100CF0003A200020626961733A2000486561746996
:100D00006E672E2E2E002073746172740A00504993
:100D100044204175746F74756E6500206661696C5E
:100D20006564212054656D7065726174757265200B
:100D3000746F6F20686967680A00504944204175E4
:100D4000746F74756E6500504944204175746F74FA
:100D5000756E6500A10000006900A200000063003C
:100D6000B00000000900C10000004100C200000006
:100D70004100C30000004100C40000004100C50064
:100D800000004100C60000004145C70000004300CC
:100D9000C80000004500C90000004500CD0000006B
:100DA0004900D10000004E00D50000004F00D600E1
:100DB00000004F00D70000007800DC000000550064
:100DC000DD0000005900E00000006100E1000000CB
:100DD0006100E20000006100E30000006100E40047
:100DE00000006100E50000006100E60000006165B0
:100DF000E70000006300E80000006500E900000073
:100E00006500EA0000006500EB0000006500EC00F2
:100E100000006900ED0000006900EE0000006900BC
:100E2000EF0000006900F10000006E00F200000019
:100E30006F00F30000006F00F40000006F00F50089
:100E400000006F00F60000006F00F80000006F0067
:100E5000F90000007500FA0000007500FB000000BA
:100E60007500FC0000007500FD0000007900FF0027
:100E7000000079000401000041000501000061004C
:100E80000601000043000701000063000C010000A0
:100E900043000D01000063000E01000044000F013B
:100EA00000006400110100006400190100006500E9
:100EB0001A01000045001B01000065001F01000031
:100EC0006700300100004900310100006900410164
:100ED00000004C00420100006C00430100004E0085
:100EE000440100006E00480100006E00580100003F
:100EF00052005901000072005A01000053005B01CA
:100F0000000073005F0100007300600100005300E7
:100F10006101000073006501000074006F010000B2
:100F200075007C0100007A007D0100005A007E01FE
:100F300000007A00920100006600E30200007800E1
:100F4000222000002E001E210000507822210000E7
:100F5000544D902100003C2D922100002D3EB021E7
:100F600000000300BB21000004003C2200007E00C2
:100F7000482200007E3D60220000213D61220000E9
:100F80003D00642200003C3D652200003E3DF1230F
:100F900000000700A03000003D0021F30100020026
:100FA000C2F401000500A2000000EC00B000000047
:100FB000DF00E4000000E100F6000000EF00F700B1
:100FC0000000FD00FC000000F500E3020000EB0063
:100FD00087030000A5008F030000F40098030000C1
:100FE000F2009E030000E300A3030000F600A90343
:100FF0000000F400AC030000E000AD030000E300DB
:10100000B1030000E000B2030000E200B5030000FD
:10101000E300B8030000F200BC030000E400BE03DC
:101020000000E300C0030000F700C1030000E60079
:10103000C3030000E500902100007F009221000022
:101040007E001A220000E8001E220000F30088251E
:101050000000FF0002300000A1000C300000A200E0
:101060000D300000A3009B300000DE009C3000002B
:10107000DF00A03000003D00A1300000A700A2303A
:101080000000B100A3300000A800A4300000B200AE
:10109000A5300000A900A6300000B300A730000072
:1010A000AA00A8300000B400A9300000AB00AA30AC
:1010B0000000B500AB300000B600AC300000B6DE7A
:1010C000AD300000B700AE300000B7DEAF3000003A
:1010D000B800B0300000B8DEB1300000B900B23066
:1010E0000000B9DEB3300000BA00B4300000BADE50
:1010F000B5300000BB00B6300000BBDEB7300000EA
:10110000BC00B8300000BCDEB9300000BD00BA3011
:101110000000BDDEBB300000BE00BC300000BEDE03
:10112000BD300000BF00BE300000BFDEBF30000099
:10113000C000C0300000C0DEC1300000C100C230BD
:101140000000C1DEC3300000AF00C4300000C200A8
:10115000C5300000C2DEC6300000C300C73000004A
:10116000C3DEC8300000C400C9300000C4DECA308D
:101170000000C500CB300000C600CC300000C70026
:10118000CD300000C800CE300000C900CF300000D4
:10119000CA00D0300000CADED1300000CADFD23031
:1011A0000000CB00D3300000CBDED4300000CBDF1A
:1011B000D5300000CC00D6300000CCDED7300000A7
:1011C000CCDFD8300000CD00D9300000CDDEDA30E1
:1011D0000000CDDFDB300000CE00DC300000CEDED2
:1011E000DD300000CEDFDE300000CF00DF30000059
:1011F000D000E0300000D100E1300000D200E23049
:101200000000D300E3300000AC00E4300000D40064
:10121000E5300000AD00E6300000D500E73000000A
:10122000AE00E8300000D600E9300000D700EA3018
:101230000000D800EB300000D900EC300000DA00EC
:10124000ED300000DB00EF300000DC00F230000089
:10125000A600F3300000DD00F4300000B3DEF7300C
:101260000000DCDEFA300000A6DEFB300000A50046
:10127000FC300000B000FD300000A400074E00006C
:10128000FB0086510000FC0043530000FA0064FF9D
:101290000000A40065FF0000A50066FF0000A60096
:1012A00067FF0000A70068FF0000A80069FF0000BA
:1012B000A9006AFF0000AA006BFF0000AB006CFFF2
:1012C0000000AC006DFF0000AD006EFF0000AE003E
:1012D0006FFF0000AF0070FF0000B00071FF000062
:1012E000B10072FF0000B20073FF0000B30074FF92
:1012F0000000B40075FF0000B50076FF0000B600E6
:1013000077FF0000B70078FF0000B80079FF000009
:10131000B9007AFF0000BA007BFF0000BB007CFF31
:101320000000BC007DFF0000BD007EFF0000BE008D
:101330007FFF0000BF0080FF0000C00081FF0000B1
:10134000C10082FF0000C20083FF0000C30084FFD1
:101350000000C40085FF0000C50086FF0000C60035
:1013600087FF0000C70088FF0000C80089FF000059
:10137000C9008AFF0000CA008BFF0000CB008CFF71
:101380000000CC008DFF0000CD008EFF0000CE00DD
:101390008FFF0000CF0090FF0000D00091FF000001
:1013A000D10092FF0000D20093FF0000D30094FF11
:1013B0000000D40095FF0000D50096FF0000D60085
:1013C00097FF0000D70098FF0000D80099FF0000A9
:1013D000D9009AFF0000DA009BFF0000DB009CFFB1
:1013E0000000DC009DFF0000DD009EFF0000DE002D
:1013F0009FFF0000DF00E5FF00005C000000000030
:10140000010204040000001C1C0C0404040201007E
:101410000000000004081000000000002D2D2D2DFC
:101420002D2D007C4D61726C696E7C002D2D2D2D53
:101430002D2D00503A002568753A25303268750028
:1014400025303268753A25303268750025303268AB
:101450007527253032687500001C1F11111F000010
:101460000006191803130C00040E1F041C000000D2
:10147000000E1315110E00001C10181705060500AC
:10148000040A0A0A0A11110E0C12120C00000000C4
:10149000001F1511151F000042656400456E636C46
:1014A0006F7375726500202020202020200050726C
:1014B000696E742041626F72746564004D3235202C
:1014C000500A4D32340050617573696E672E2E2EAE
:1014D000004D323400454550524F4D2056657273D1
:1014E000696F6E204572726F7200454550524F4DC4
:1014F00020496E646578204572726F7200454550D0
:10150000524F4D20435243204572726F72003F008C
:1015100049676E6F726500526573657400496E6944
:101520007469616C697A6520454550524F4D004C95
:101530006F6164202A004C6F6164206D6D00556EF0
:101540006C6F6164202A00556E6C6F6164206D6D54
:101550000046696C2E204469612E202A0046696C81
:101560002E204469612E004520696E206D6D5E332A
:101570000020022046616374002002204D61780043
:101580002002204D696E004F6666004F6E00417567
:10159000746F74656D7000402073746570732F6D87
:1015A0006D00416476616E6365642053657474698F
:1015B0006E67730046696C616D656E740054656D8D
:1015C00070657261747572650053746570732F6D08
:1015D0006D00436F6E66696775726174696F6E0046
:1015E0005A20526169736500326E64204E6F7A7AB8
:1015F0006C65204000436F6E66696775726174693F
:101600006F6E00526573746F726520446566617514
:101610006C7473004C6F61642053657474696E67F9
:10162000730053746F72652053657474696E6773C9
:1016300000546F6F6C204368616E676500546F6F74
:101640006C204F66667365747300416476616E63E7
:1016500065642053657474696E6773004D61696ECB
:10166000004D37303220542564004D363030204252
:101670003020542564004D373032203B2564004D26
:1016800037303120542564004368616E6765204619
:10169000696C616D656E7400556E6C6F6164204697
:1016A000696C616D656E74004C6F61642046696C95
:1016B000616D656E74005072656865617420437574
:1016C00073746F6D00507265686561742024004208
:1016D00061636B00554E4C4F41442046494C414D8F
:1016E000454E54004C4F41442046494C414D454ED7
:1016F000540046494C414D454E54204348414E47C5
:10170000450041425300504C4100556E6C6F61647E
:10171000202A004C6F6164202A004368616E67656F
:101720002046696C616D656E74202A004D61696E9A
:1017300000436F6E74696E75650050757267652041
:101740006D6F726500524553554D45204F505449B9
:101750004F4E533A005052494E5420504155534534
:10176000440020204E6F7A7A6C653A2000506172F6
:101770006B696E672E2E2E0000005761697420661B
:101780006F720066696C616D656E74206368616E6E
:10179000676500746F2073746172740057616974B7
:1017A00020666F720066696C616D656E7420756E7F
:1017B0006C6F616400004E6F7A7A6C6520686561B9
:1017C00074696E6700506C65617365207761697438
:1017D0002E2E2E0000507265737320627574746F24
:1017E0006E00746F2068656174206E6F7A7A6C6524
:1017F0000000496E736572742066696C616D656E78
:101800007400616E64207072657373206275747405
:101810006F6E00746F20636F6E74696E756500572C
:1018200061697420666F720066696C616D656E74C3
:10183000206C6F6164000050726573732042757490
:10184000746F6E00746F20726573756D65207072B1
:10185000696E7400005761697420666F722070723F
:10186000696E7400746F20726573756D652E2E2E0F
:1018700000005761697420666F720066696C616D63
:10188000656E7420707572676500004D36303020CB
:10189000423020542569004D3730312054256900ED
:1018A0004D37303220542569003F004261636B00A0
:1018B00053746F70004E6F204D6564696100507203
:1018C000696E742066726F6D204D656469610043B6
:1018D00068616E6765204D65646961004D32310055
:1018E0004368616E67652046696C616D656E740062
:1018F000436F6E66696775726174696F6E005465D7
:101900006D7065726174757265004D6F74696F6E8C
:1019100000526573756D65205072696E7400547560
:101920006E650053746F70205072696E7400506160
:10193000757365205072696E7400496E666F20532E
:10194000637265656E003F0053746172742050725B
:10195000696E740043616E63656C005072696E74E9
:101960000043616E6E6F7420656E746572207375CE
:10197000626469723A200005202E2E004D61696E66
:10198000004D6F766520246D6D00302E30323500AD
:101990004D6F766520302E316D6D004D6F76652070
:1019A000316D6D004D6F76652031306D6D00210019
:1019B000486F74656E6420746F6F20636F6C640091
:1019C0004261636B0050726F63656564004D6F76B2
:1019D00065202A004D6F76652045787472756465C0
:1019E00072004D6F76652040004D6F74696F6E0018
:1019F00044697361626C65205374657070657273BD
:101A0000004D3834004732385A00473238590048C0
:101A10006F6D6520400047323858004175746F2063
:101A2000486F6D6500473238004D6F76652041780C
:101A30006973004D61696E0050726568656174205C
:101A4000242042656400507265686561742024201A
:101A5000416C6C0050726568656174202420456E8D
:101A600064207E00507265686561742024207E00C9
:101A700054656D70657261747572650006170217A2
:101A8000436F6F6C646F776E005072656865617448
:101A9000202400426564004E6F7A7A6C65207E00D7
:101AA0004D61696E00466C6F77207E00466C6F77E3
:101AB00000426564004E6F7A7A6C65207E00537038
:101AC000656564004D61696E00486F6D696E6720E1
:101AD0004661696C6564006F70656E0054524947D9
:101AE0004745524544003A20007A5F6D696E00799F
:101AF0005F6D617800785F6D6178005265706F721C
:101B000074696E6720656E6473746F70207374619E
:101B10007475730A00000066430000164300001647
:101B20004300000000000000000000000020746F6F
:101B30006F206C6F6E6720657874727573696F6E55
:101B40002070726576656E7465640A0020636F6C40
:101B50006420657874727573696F6E207072657633
:101B6000656E7465640A0000006643000016430059
:101B70000000005761726E696E673A20486F6D69A8
:101B80006E672042756D702044697669736F7220AC
:101B90003C20310A000202040000664300001643A4
:101BA000000016430000A0400000A04000000040DC
:101BB000DB0FC93F45BCDA3F8FB30240FCF0274042
:101BC00056946140FE4B9B4084A5D840E0231841C9
:101BD000346A5641E859974164DBD5416E27174274
:101BE000B4B75542CE1A9742C8AED542B5885A43CB
:101BF000D40684BFA65FA7BF7443E0BF10B11AC06C
:101C00001C2C58C0E8F697C0B849D6C04E4E17C134
:101C100024D355C1802497C1A0B5D5C1121A17C2CB
:101C200044AE55C2781797C26CACD5C267885AC308
:101C300020746F6F206C6F6E672065787472757397
:101C4000696F6E2070726576656E7465640A002037
:101C5000636F6C6420657874727573696F6E207041
:101C6000726576656E7465640A0053657474696E96
:101C700067732053746F72656400290A00206279CB
:101C80007465733B20637263200053657474696EDE
:101C900067732053746F7265642028004861726412
:101CA000636F6465642044656661756C7420536578
:101CB0007474696E6773204C6F61646564002028DA
:101CC0006D6D290020420020480020204D31343520
:101CD0002053004D6174657269616C2068656174A0
:101CE000757020706172616D65746572730020207B
:101CF0004D3134392043203B20556E69747320697F
:101D00006E2043656C736975730A0054656D706568
:101D100072617475726520556E6974730020204776
:101D20003231203B004C696E65617220556E6974DA
:101D30007300454550524F4D206461746173697A58
:101D400065206572726F722E0A00290A002062797E
:101D50007465733B2063726320002073746F726537
:101D6000642073657474696E677320726574726938
:101D700065766564202800202863616C63756C615A
:101D800074656429210A0020213D200045455052F8
:101D90004F4D20435243206D69736D617463682019
:101DA0002D202873746F7265642920002053697A8E
:101DB000653A2000496E6465783A20000000964339
:101DC000000096430000A0410000C8428747BC4283
:101DD0008747BC420000C843E78CC042E8030000CC
:101DE000E80300006400000088130000204D6172C9
:101DF0006C696E3D563837290A00454550524F4DA3
:101E00002076657273696F6E206D69736D6174639E
:101E1000682028454550524F4D3D0020436F756E58
:101E20007420583A00000145320042656400453193
:101E3000004500626564002C2073797374656D2021
:101E400073746F7070656421204865617465725F9A
:101E500049443A20004572723A204D415854454D4C
:101E600050004D415854454D502074726967676564
:101E7000726564004572723A204D494E54454D508A
:101E8000004D494E54454D50207472696767657224
:101E900065640048656174696E67204661696C65B8
:101EA000640048656174696E67206661696C656489
:101EB0000070012C0190012701B0012201C0011D19
:101EC00001F00118011002130130020E0160020935
:101ED0000190020401C002FF000003FA004003F574
:101EE000008003F000D003EB002004E6007004E162
:101EF00000E004DC004005D700C005D2004006CD5C
:101F000000D006C8008007C3003008BE00F008B942
:101F100000C009B400B00AAF00B00BAA00D00CA5F5
:101F200000000EA000500F9B00C0109600501291B0
:101F30000000148C00C0158700B0178200B0197D16
:101F400000D01B7800001E730040206E00902269B4
:101F500000F024640040275F0090295A00E02B55D0
:101F600000102E500020304B0010324600E033416C
:101F70000090353C001037370070383200A0392D02
:101F800000B03A2800A03B2300603C1E00103D1921
:101F900000903D1400103E0F00703E0A00C03E0548
:101FA00000003F0000403FFBFF803FF6FFC03FF1D5
:101FB000FF544845524D414C2052554E41574159CE
:101FC00000546865726D616C2052756E617761793D
:101FD000004D415836363735204661756C743A20CD
:101FE0004F70656E20436972637569740A005465A9
:101FF0006D70206D6561737572656D656E742065B9
:1020000072726F72212000202F0020400020424079
:102010003A0020403A00496E76616C696420657828
:102020007472756465720A0041637469766520454F
:10203000787472756465723A20007C3C3E5E2B3D7C
:102040003F2F5B5D3B2C2A225C004D65646961205B
:10205000496E6974204661696C0053442063617263
:1020600064206F6B0A006F70656E526F6F7420662C
:1020700061696C65640A00766F6C756D652E696EBA
:102080006974206661696C65640A004E6F20534470
:1020900020636172640A0053442063617264207299
:1020A000656C65617365640A000A4D3234004D3217
:1020B00033202573002E0A006F70656E20666169FB
:1020C0006C65642C2046696C653A200046696C6535
:1020D0002073656C65637465640A002053697A65D2
:1020E0003A200046696C65206F70656E65643A2021
:1020F00000454E4420535542524F5554494E450ACF
:10210000002220706F73002220706172656E743A35
:102110002200535542524F5554494E452043414C9D
:102120004C207461726765743A2200537562636172
:102130006C6C204F766572666C6F770045786365CE
:1021400065646564206D617820535542524F555443
:10215000494E452064657074683A00577269746925
:102160006E6720746F2066696C653A200066726540
:10217000736800646F696E67002066696C653A2059
:10218000004E6F7720002F6175746F25632E6700F6
:10219000026D61726C696E66772E6F7267006D6199
:1021A000726C696E66772E6F72670062756766691A
:1021B000782D322E312E78006275676669782D325F
:1021C0002E312E7800006D61726C696E66772E6F0D
:1021D0007267006D61726C696E66772E6F72670050
:1021E000206275676669782D322E312E78003D0A9F
:1021F000573F3D0A573FCDCCCC3E0000803F00000A
:10220000803F2020506C616E6E6572427566666517
:102210007242797465733A20002046726565204DDC
:10222000656D6F72793A200020436F6D70696C653F
:10223000643A2044656320203420323032320A0070
:10224000204C61737420557064617465643A203267
:102250003032322D31312D3135207C20417574687A
:102260006F723A2028436F6F6C5A65726F4E4C2C18
:102270002064656661756C7420636F6E666967299A
:102280000A004D61726C696E206275676669782D0F
:10229000322E312E780A0020536F66747761726592
:1022A0002052657365740A00205761746368646F17
:1022B000672052657365740A002042726F776E2042
:1022C0006F75742052657365740A002045787465D3
:1022D000726E616C2052657365740A00506F776589
:1022E0007255700A0073746172740A0047323700C5
:1022F0004D31303031006F6B006572726F72207734
:10230000726974696E6720746F2066696C650A0073
:10231000446F6E6520736176696E672066696C65CF
:102320002E0A004D323900456E6473746F7073006D
:102330002553202563202563202563202563002065
:102340005A3A0020593A0020583A00656E64737476
:102350006F7073206869743A200000002100240027
:1023600027002A002D003000330001010000040185
:1023700007010A0100002200250028002B002E0082
:102380003100340002010000050108010B010000CA
:1023900020002300260029002C002F00320000011D
:1023A00000000301060109010505050507050808E8
:1023B0000808020202020A0A0808040404040101CF
:1023C00001010101010103030303030303030407E4
:1023D00007070C0C0C0C0C0C0C0C0202020206067B
:1023E0000606060606060B0B0B0B0B0B0B0B01026E
:1023F0001020200808102040102040800201020117
:1024000008040201010204081020408080402010CE
:102410000804020180040201804020100804020127
:10242000080402010102040810204080010204088F
:102430001020408000000A0B02090C0D0E08070353
:102440000401000000000000000000000000000087
:10245000000000000000000000000000000000007C
:102460001211100000000000000000000000000039
:102470000000000000000000000024F404D9201B2C
:10248000C40C5C0E9804C4095F0265077101F40571
:10249000F900FB04B30048048700C1036900580336
:1024A000550003034500BE023A0084023100530286
:1024B0002A002902250004022000E4011C00C801B2
:1024C0001900AF0117009801140084011300710175
:1024D00010006101100051010E0043010D00360192
:1024E0000B002B010B0020010B00150109000C0152
:1024F000090003010800FB000800F3000800EB00DE
:102500000700E4000600DE000600D8000600D20046
:102510000600CC000500C7000500C2000500BD0094
:102520000400B9000400B5000400B1000400AD00CF
:102530000400A9000400A5000300A20003009F00FE
:1025400004009B0003009800030095000200930024
:102550000300900003008D0002008B000300880040
:1025600002008600020084000300810002007F0058
:1025700002007D0002007B0002007900020077006B
:102580000100760002007400020072000100710078
:1025900002006F0002006D0001006C0002006A0082
:1025A000010069000200670001006600010065008B
:1025B000010064000200620001006100010060008F
:1025C00001005F0002005D0001005C0001005B0093
:1025D00001005A0001005900010058000100570095
:1025E0000100560001005500010054000100530095
:1025F0000000530001005200010051000100500092
:1026000001004F0001004E0000004E0001004D008F
:1026100001004C0001004B0000004B0001004A008B
:102620000100490001004800000048000100470087
:102630000100460000004600010045000000450082
:10264000010044000100430000004300010042007B
:102650000000420001004100000041000100400074
:1026600001003F0000003F0001003E0000003E006E
:1026700001003D0000003D0001003C0000003C0066
:1026800000003C0001003B0000003B0001003A005C
:1026900000003A0001003900000039000100380054
:1026A000000038000000380001003700000037004B
:1026B0000100360000003600000036000100350041
:1026C0000000350000003500010034000000340037
:1026D000000034000100330000003300000033002C
:1026E0000100320000003200000032000100310021
:1026F0000000310000003100010030000000300017
:102700000000300001002F0000002F0000002F000B
:1027100000002F0001002E0000002E0000002E00FF
:1027200001002D0000002D0000002D0000002D00F4
:1027300001002C0000002C0000002C0000002C00E8
:1027400001002B0000002B0000002B0000002B00DC
:1027500001002A0000002A0000002A0000002A00D0
:1027600001002900000029000000290000002900C4
:1027700000002900010028000000280000002800B7
:1027800000002800000028000100270000002700AA
:10279000000027000000270000002700010026009D
:1027A0000000260000002600000026000000260091
:1027B0000100250000002500000025000000250084
:1027C0000000250000002500010024000000240076
:1027D0000000240000002400000024000100230069
:1027E000000023000000230000002300000023005D
:1027F000000023000000230001002200000022004E
:102800000000220000002200000022000000220040
:102810000100210000002100000021000000210033
:102820000000210000002100000021000100200024
:102830000000200000002000000020000000200018
:1028400000002000000020000000200001001F0008
:1028500000001F0000001F0000001F0000001F00FC
:1028600000001F0000001F0001001E0000001E00ED
:1028700000001E0000001E00000024F4D43050C3ED
:102880008E20C2A24017828B7011127A910D816C3A
:10289000D90AA861E108C7586607615143061E4B73
:1028A0005D05C145A7041A411104093D980371391A
:1028B00031034036DB0265339102D4305402802E5E
:1028C0001D02632CEE01752AC501B028A001102756
:1028D00081018F2564012B244B01E0223401AC21BE
:1028E0001F018D200D01801FFC00841EED00971D2F
:1028F000DF00B81CD200E61BC600201BBC00641A17
:10290000B200B219A8000A19A0006A189900D117DC
:10291000910040178B00B516840031167E00B31568
:1029200079003A157300C7146F0058146A00EE134B
:1029300066008813630025135E00C7125B006C12EB
:10294000570015125400C111510070114F00211190
:102950004B00D61049008D1047004610440002106D
:102960004200C00F4000800F3E00420F3C00060FA7
:102970003B00CB0E3800930E37005C0E3500270E5F
:102980003400F30D3200C10D3100900D3000600DA8
:102990002E00320D2D00050D2C00D90C2B00AE0C95
:1029A0002900850C29005C0C2700350C27000E0C33
:1029B0002600E80B2400C40B2400A00B23007D0B91
:1029C00023005A0B2100390B2100180B2000F80AB4
:1029D0001F00D90A1E00BB0A1E009D0A1D00800AA6
:1029E0001D00630A1C00470A1B002C0A1B00110A69
:1029F0001A00F7091A00DD091900C4091900AB090A
:102A00001900920917007B091800630917004C0987
:102A1000160036091600200916000A091500F508E7
:102A20001500E0081400CC081400B8081400A4082D
:102A30001400900813007D0812006B08130058085A
:102A40001200460812003408110023081100120871
:102A5000110001081100F0071000E0071000D00776
:102A60001000C0071000B0070F00A1071000910769
:102A70000E0083070F0074070F0065070E0057074D
:102A80000E0049070E003B070D002E070E00200721
:102A90000D0013070D0006070D00F9060C00ED06EA
:102AA0000D00E0060C00D4060C00C8060C00BC06A5
:102AB0000C00B0060C00A4060B0099060C008D0655
:102AC0000B0082060B0077060B006C060B006106FC
:102AD0000A0057060B004C060A0042060A00380698
:102AE0000A002E060A0024060A001A060A0010062A
:102AF000090007060A00FD050900F4050900EB05B9
:102B00000900E2050900D9050900D0050900C7053B
:102B10000900BE050900B5050800AD050800A505BA
:102B200009009C050800940508008C050800840530
:102B300008007C050800740508006C0507006505A1
:102B400008005D050700560508004E05070047050B
:102B500007004005080038050700310507002A0571
:102B60000700230507001C050600160507000F05D2
:102B700007000805060002050700FB040600F5042F
:102B80000700EE040600E8040600E2040700DB0488
:102B90000600D5040600CF040600C9040600C304DD
:102BA0000600BD040600B7040600B1040500AC042D
:102BB0000600A6040600A00405009B040600950478
:102BC0000500900406008A040500850405008004C1
:102BD00006007A04050075040500700405006B0406
:102BE000050066040500610405005C040500570447
:102BF0000500520405004D04050048040500430487
:102C000005003E0404003A040500350405003004C4
:102C100004002C04050027040400230405001E04FE
:102C200004001A04040016040500110404000D0435
:102C30000400090405000404040000040400FC036B
:102C40000400F8030400F4030400F0030400EC03A0
:102C50000400E8030400E4030400E0030400DC03D0
:102C60000400D8030400D4030400D0030400CC0300
:102C70000400C8030300C5030300043700001E2935
:102C80000000511B00005810000010090000CC0487
:102C9000000078020000410100005072696E74204B
:102CA00066726F6D204D65646961000101FF4361CB
:102CB0006E6E6F74206F70656E20737562646972DA
:102CC0002000496E736572742066696C616D656E73
:102CD0007420616E64207072657373206275747401
:102CE0006F6E0A00220A00556E6B6E6F776E20635E
:102CF0006F6D6D616E643A202200204500205A00FD
:102D000020590020204D39322058005374657073CB
:102D10002070657220756E697400486F6D6520259E
:102D200073257325732046697273740020453A0039
:102D3000205A3A0020593A00583A006F6B0A005264
:102D40006573656E643A200057616E68616F2F4449
:102D500075706C696361746F7220345320526561C1
:102D600064792E005072696E74696E672E2E2E0083
:102D70005072696E7420506175736564000084E15F
:102D800052EB11241FBECFEFD1E2DEBFCDBF84B71F
:102D90008093EB1314BE0FB6F894A8958091600051
:102DA000886180936000109260000FBE13E0A0E085
:102DB000B2E0E4E7FDEE01E00BBF02C007900D9228
:102DC000AA3AB107D9F723E1AAEAB3E001C01D92FC
:102DD000AB3EB207E1F716E1C0ECD6E104C02197A3
:102DE000FE010E943DF4CF3BD107C9F70E9496E255
:102DF0000C94AEF60C9400008F929F92AF92BF920B
:102E0000CF92DF92EF92FF92CF936B017C0120E093
:102E100030E0A9010E94CBEF87FFA3C06DEB77E301
:102E200086E095EBA70196010E945FF46B017C019F
:102E300020E030E040E251E40E9430F020E030E059
:102E400048EC52E40E9430F04B015C0120E030E09D
:102E500040E251ECC701B6010E94CBEF181654F4C2
:102E600020E030E048EC52E4C701B6010E94C2F510
:102E700087FD8BC020E030E0A901C701B6010E94A8
:102E8000CBEF87FF73C060E070E080EA90ECA501B3
:102E900094010E945FF420E030E040E251E40E949F
:102EA000D6F40E943EF56B017C01F7FC64C020E182
:102EB00037E240E050E00E9421F4CA01B9012AE063
:102EC00030E040E050E00E9421F4605D60938D04AA
:102ED000C701B60128EE33E040E050E00E9421F443
:102EE0009AE0892E912CA12CB12CCA01B901A5011F
:102EF00094010E9421F4605D60938E04C701B601C5
:102F000024E630E040E050E00E9421F4CA01B9011B
:102F1000A50194010E9421F4605D60938F048EE20C
:102F200080939004C701B601A50194010E9421F489
:102F3000C62FCA01B901A50194010E9421F4605D68
:102F400060939104C05DC09392048DE894E0CF91AA
:102F5000FF90EF90DF90CF90BF90AF909F908F90B9
:102F600008956DEB77E386E095E35CCF60E070E079
:102F700080EA90E48CCFF094E094D094C094C11C8B
:102F8000D11CE11CF11C6DE2A1CF20E030E0A901D1
:102F9000C701B6010E94CBEF87FF6AC060E070E016
:102FA00080EA90ECA50194010E945FF420E030E0FB
:102FB00040E251E40E94D6F40E943EF54B015C01D0
:102FC00020E030E0A901C701B6010E94C2F587FDEB
:102FD0000BC020E030E040E251E4C701B6010E949E
:102FE000CBEF60E287FD13C0B7FC47C0C501B40159
:102FF00028EE33E040E050E00E9421F4CA01B9011C
:103000002AE030E040E050E00E9421F4605D6093EF
:103010008E04C501B40124E630E040E050E00E9497
:1030200021F48AE0C82ED12CE12CF12CCA01B9017F
:10303000A70196010E9421F4605D60938F048EE2E7
:1030400080939004C501B401A70196010E9421F468
:10305000C62FCA01B901A70196010E9421F4605D43
:1030600060939104C05DC09392048EE894E06FCFAA
:1030700060E070E080EA90E495CFB094A0949094E2
:103080008094811C911CA11CB11C6DE2C0CFCF9318
:10309000DF93EC01CB01BA010E94D1EF6883798301
:1030A0008A839B83DF91CF910895CF93DF93EC01C7
:1030B000CB01BA010E94D1EF688379838A839B8315
:1030C000DF91CF91089580919407882369F08091D2
:1030D0001E078770873041F485E29AE190932D07AF
:1030E00080932C071092940708958F929F92AF922D
:1030F000BF92CF92DF92EF92FF92CF936B017C0150
:1031000020E030E0A9010E94CBEF87FDC3C06DEB4A
:1031100077E386E095E3A70196010E945FF46B01D7
:103120007C0120E030E0A9010E94CBEF87FFB7C00F
:10313000C701B601905820E030E040E251E40E941F
:1031400030F020E030E040E251E40E9430F020E036
:1031500030E040EA50E40E945FF420E030E040E2DA
:1031600051E40E94D6F40E943EF56B017C0160E2BE
:1031700080EAC81686E8D80681E0E806F1048CF0FB
:10318000C701B60120EA36E841E050E00E9421F490
:10319000CA01B9012AE030E040E050E00E9421F489
:1031A000605D60938C0460E280E1C81687E2D80617
:1031B000E104F1048CF0C701B60120E137E240E000
:1031C00050E00E9421F4CA01B9012AE030E040E059
:1031D00050E00E9421F4605D60938D0460E288EE0F
:1031E000C81683E0D806E104F1048CF0C701B601EB
:1031F00028EE33E040E050E00E9421F4CA01B9011A
:103200002AE030E040E050E00E9421F4605D6093ED
:103210008E0460E284E6C816D104E104F1048CF067
:10322000C701B60124E630E040E050E00E9421F4FE
:10323000CA01B9012AE030E040E050E00E9421F4E8
:10324000605D60938F048AE0882E912CA12CB12CB4
:10325000C701B601A50194010E9421F4C62FCA013D
:10326000B901A50194010E9421F4605D609390046E
:103270008EE280939104C05DC09392048CE894E048
:10328000CF91FF90EF90DF90CF90BF90AF909F9045
:103290008F9008956DEB77E386E095EB3CCF20E0CF
:1032A00030E040E251E4C701B60149CFCF92DF924E
:1032B000EF92FF920F931F93CF93DF936B017C01EB
:1032C00020E030E0A9010E94CBEF87FD43C06DEB09
:1032D00077E386E095E3A70196010E945FF46B0116
:1032E0007C0120E030E0A9010E94CBEF20E030E03B
:1032F00040E05FE387FF04C020E030E040E05FEBA8
:10330000C701B6010E945FF40E943EF58B01FB01EC
:1033100077FF25C0119501951109ED398FEFF80759
:103320000CF063C08DE280938F04C80164E670E006
:103330000E940EF4CB012AE030E0B9010E940EF4A5
:10334000805D80939004C801B9010E940EF4CB0106
:10335000B90129C06DEB77E386E095EBBCCF083E61
:1033600083E01807ECF1C80168EE73E00E940EF4E8
:10337000CB01CAE0D0E0BE010E940EF4805D8093D4
:103380008F04C80164E670E00E940EF4CB01BE0118
:103390000E940EF4805D80939004C801BE010E94DB
:1033A0000EF4CB01BE010E940EF4805D8093910467
:1033B000C8016AE070E00E940EF4805D8093920480
:1033C0008FE894E0DF91CF911F910F91FF90EF90E4
:1033D000DF90CF9008958DE2F7FDE8CF80E2E6CF51
:1033E00080E2043611050CF09ECF80E280938F04BA
:1033F000809390040A30110574F38DE2F7FF80E2A8
:1034000080939004C8016AE070E00E940EF4605D51
:1034100060939104CDCF8F929F92AF92BF92CF9243
:10342000DF92EF92FF92CF936B017C0120E030E0BE
:10343000A9010E94CBEF87FD93C06DEB77E386E097
:1034400095E3A70196010E945FF46B017C0120E0E7
:1034500030E040E251E40E9430F020E030E04AE702
:1034600054E40E9430F04B015C0120E030E0A901FF
:10347000C701B6010E94CBEF20E030E040EA50E403
:1034800087FF04C020E030E040EA50ECC501B40101
:103490000E945FF420E030E040E251E40E94D6F464
:1034A0000E943EF56B017C01C114D104E104F104DA
:1034B00009F45BC0F7FE59C0F094E094D094C09436
:1034C000C11CD11CE11CF11C8DE280938D04C7014D
:1034D000B60128EE33E040E050E00E9421F48AE09B
:1034E000882E912CA12CB12CCA01B901A5019401FF
:1034F0000E9421F4605D60938E048EE280938F04BD
:10350000C701B60124E630E040E050E00E9421F41B
:10351000CA01B901A50194010E9421F4605D609384
:103520009004C701B601A50194010E9421F4C62FA1
:10353000CA01B901A50194010E9421F4605D609364
:103540009104C05DC09392048DE894E0CF91FF9008
:10355000EF90DF90CF90BF90AF909F908F900895A5
:103560006DEB77E386E095EB6CCF80E2AECFCF9347
:10357000DF93EC01CB01BA010E94D1EF20E030E0F3
:1035800040E251E40E94D6F4688379838A839B8366
:10359000DF91CF9108950E94D1EF20E030E040E22A
:1035A00051E40E94D6F4A1CDCF93DF93EC01CB017F
:1035B000BA010E94D1EF20E030E048EC52E40E94D2
:1035C000D6F4688379838A839B83DF91CF910895B2
:1035D0000E94D1EF20E030E048EC52E40E94D6F4A3
:1035E0000BCCCF93DF93EC01CB01BA010E94D1EF5A
:1035F0000E943EF579836883DF91CF9108950E9400
:10360000D1EF54CECF93DF93EC01CB01BA010E94EE
:10361000D1EF20E030E04AE754E40E94D6F468831A
:1036200079838A839B83DF91CF9108950E94D1EFA4
:1036300020E030E04AE754E40E94D6F4ECCEFC01EE
:1036400084910895FC0180810895AF92BF92CF923A
:10365000DF92EF92FF920F931F93CF93DF93EC01D2
:103660005B018A01FB01099587FD16C0C82ED12C8C
:10367000F12CE12C2196F801C082D182E282F38202
:10368000CE01DF91CF911F910F91FF90EF90DF90CE
:10369000CF90BF90AF900895982F907E903CA9F462
:1036A0008F7190E0B0E0A0E06C017D0156E0CC0CA1
:1036B000DD1CEE1CFF1C5A95D1F7CE010196F501D9
:1036C00009958F73C82A2296D6CF982F907F903E67
:1036D00011F58F7090E0B0E0A0E06C017D0136E064
:1036E000CC0CDD1CEE1CFF1C3A95D1F7CE010196E7
:1036F000F50109958F73C82A46E0CC0CDD1CEE1C41
:10370000FF1C4A95D1F7CE010296F50109958F73FA
:10371000C82A2396B0CF982F987F903F79F587706D
:1037200090E0B0E0A0E06C017D0186E0CC0CDD1CF7
:10373000EE1CFF1C8A95D1F7CE010196F501099583
:103740008F73C82A96E0CC0CDD1CEE1CFF1C9A95EA
:10375000D1F7CE010296F50109958F73C82A26E0AC
:10376000CC0CDD1CEE1CFF1C2A95D1F7CE01039674
:10377000F50109958F73C82A24967DCF982F907CE8
:10378000903841F4807C803869F42196CE01F501AF
:103790000995F8CF8E7F8D3F28F02196CE01F50157
:1037A0000995F8CFC12CD12C760165CFCF93DF934B
:1037B000C0913806D091390681E0CE31D105E4F0D0
:1037C00020E030E040E05FE3609134067091350620
:1037D00080913606909137060E945FF40E943EF574
:1037E0006C1B7D0B77FF03C071956195710981E0BA
:1037F000633071050CF080E0DF91CF910895CF9395
:10380000DF93DB01F9019C919130C1F0943080F09D
:1038100094509C938830D1F480819181009771F00D
:10382000019791838083480F591FEA01188206C0CF
:103830008C3539F49C5F9C93943041F4DF91CF91A7
:1038400008958B3339F781E08C93F8CF2081318153
:10385000B9016F5F7F4F71836083420F531FEA018D
:103860008883808191818F3591056CF7E7CF0F9325
:103870001F9381E00091561110915711209158111A
:10388000309159114091521150915311609154113E
:1038900070915511041715072607370708F480E0C3
:1038A0001F910F91089590E080E008952091EA0320
:1038B000833021F425FD0CC024FD0CC030E0A901AB
:1038C00002C0559547958A95E2F7CA01817008951F
:1038D00081E0089580E008958091050484FD0BC087
:1038E0008091070487FD07C090910804937081E0E0
:1038F00019F480E0089581E008952FEB280F2A3114
:1039000008F047C0E22FF0E0809105049091060492
:10391000A0910704B091080404C0B695A7959795A7
:1039200087952A95D2F780FD02C081700895E551F0
:10393000FC4FE081EE2341F18091A7079091A80709
:10394000E80FF92FF11D808190ED980F9A3030F03B
:103950008E3251F4818180538A3098F4F093E403DD
:10396000E093E30381E008958D3211F08B3249F446
:10397000818190ED980F9A3088F38E3211F4828114
:10398000EACFF0E0E0E0EACF1092E4031092E30324
:10399000E9CF80E008950C94FFB60C9432B70C94F4
:1039A00065B7CF92DF92EF92FF920E94D1EF6B0149
:1039B0007C0120E030E0A9010E94CBEF2DEB37E342
:1039C00046E055E387FF04C02DEB37E346E055EBB7
:1039D000C701B6010E945FF46B017C0120E030E07A
:1039E000A9010E94CBEF20E030E040E05FE387FFD9
:1039F00004C020E030E040E05FEBC701B6010E9468
:103A00005FF40E943EF5CB01FF90EF90DF90CF90E6
:103A10000C94E8A00E94D1EF0E943EF5CB010C94DB
:103A2000E8A080913B02882341F060917C04709172
:103A30007D0441E081E00C94C4C308952F923F922D
:103A40004F925F926F927F928F929F92AF92BF92AE
:103A5000CF92DF92EF92FF920F931F93CF93DF935A
:103A6000D62FC72FFC0180809180A280B380C50132
:103A7000B40120E831E541E050E00E94A6F3C9011D
:103A80006DE671E00E94FAF36B017C01C501B4019F
:103A900020E13EE040E050E00E94A6F3CA01B901F7
:103AA00028E130E040E050E00E94A6F3362E272EB9
:103AB000062F172F8CE3482E512C612C712CC50139
:103AC000B401A30192010E94A6F3B62EA72ECA014B
:103AD000B901A30192010E94A6F3CB01C114D10444
:103AE00079F1AF92BF927F936F932F923F92FF92A3
:103AF000EF92DF92CF9280E79BE09F938F93CF93DB
:103B0000DF930E9464EF8DB79EB70E960FB6F894C0
:103B10009EBF0FBE8DBF8D2F9C2FDF91CF911F9128
:103B20000F91FF90EF90DF90CF90BF90AF909F905C
:103B30008F907F906F905F904F903F902F9008955F
:103B4000E114F104C9F0AF92BF927F936F932F926B
:103B50003F92FF92EF9280E69BE09F938F93CF93EB
:103B6000DF930E9464EFEDB7FEB73C960FB6F89472
:103B7000FEBF0FBEEDBFCFCF012BB9F0AF92BF920A
:103B80007F936F932F923F9284E59BE09F938F9357
:103B9000CF93DF930E9464EF8DB79EB70A960FB65E
:103BA000F8949EBF0FBE8DBFB6CF892BA9F0AF9200
:103BB000BF927F936F938CE49BE09F938F93CF93FF
:103BC000DF930E9464EFEDB7FEB738960FB6F89416
:103BD000FEBF0FBEEDBF9FCFAF92BF9288E49BE0C8
:103BE0009F938F93CF93DF930E9464EF0F900F907A
:103BF0000F900F900F900F908ECF0C94097D0C9426
:103C0000097D63E972E084E690E00E9487AE70E08F
:103C100060E08AE090E00E9487AE6AEB72E084E6A2
:103C200090E00C9487AE8111ECCF68E270E080E9FF
:103C300091E00C9487AE0E945379F5CF0E947B9F50
:103C4000F2CF0E94DE9DDDCFCF93DF93C091380687
:103C5000D0913906209729F160913406709135068C
:103C600080913606909137060E943EF56E5F7F4F39
:103C700024976C177D07ACF47093E8046093E70415
:103C80000E94D5C6605A75418F4F9F4F6093E904DB
:103C90007093EA048093EB049093EC04DF91CF914E
:103CA00008951092E9041092EA041092EB04109225
:103CB000EC04F4CFCF93DF93CDB7DEB728970FB6E0
:103CC000F894DEBF0FBECDBFAB01DE01119630E030
:103CD00020E0BD01FA01E20FF31FE491ED932F5FA5
:103CE0003F4F28303105B1F70E94A9CB28960FB677
:103CF000F894DEBF0FBECDBFDF91CF910895CF9274
:103D0000DF92EF92FF920F931F93CF93DF9300D038
:103D100000D000D0CDB7DEB78A0146E0469F9001C3
:103D2000479F300D1124BC01620F731F46E050E025
:103D3000CE0101960E94F4EEC980DA80EB80FC800F
:103D4000F80140815181628173818FEF9FEFC4162A
:103D5000D506E606F70640F081E090E04C155D05DB
:103D60006E057F0508F080E026960FB6F894DEBF5A
:103D70000FBECDBFDF91CF911F910F91FF90EF90BC
:103D8000DF90CF9008950F931F93CF93DF93CDB71C
:103D9000DEB72E970FB6F894DEBF0FBECDBF8B01F6
:103DA0001E861D86FC0160817181828193816F83F3
:103DB000788789879A872FEF2B876038710581056F
:103DC000910538F48EE190E10E9494CB81E090E07F
:103DD0002FC09E01235F3F4FAE01495F5F4F69EBEC
:103DE00070E086EA9FE00E9459BE97FD2CC08D8549
:103DF0009E8526E0289FB001299F700D11246A55E9
:103E0000704F46E050E0CE0101960E94F4EE6D81C5
:103E10008EE190E10E9494CB01301105B9F26E81E0
:103E20006623A1F28EE190E10E9494CB82E090E0C3
:103E30002E960FB6F894DEBF0FBECDBFDF91CF91A7
:103E40001F910F9108959E01235F3F4FAE01495F7F
:103E50005F4F63E670E084E59DE00E9459BE97FDE8
:103E60000BC08D859E8526E0289FB001299F700D8F
:103E700011246C5A724FC5CF6FE3A4CF8091E30336
:103E80009091E403009731F04AE050E070E060E088
:103E90000C94ECED60E070E0CB0108958091E303B9
:103EA0009091E403009731F04AE050E070E060E068
:103EB0000C94C1EC60E070E0CB010895EFDFCB0122
:103EC0000895ECDF97FD0AC0E9DF6F3F71058105BA
:103ED000910509F02CF4E2DF862F089580E0089523
:103EE0008FEF08958091E3039091E403892B39F0DB
:103EF000E8DF91E0811101C090E0892F089591E001
:103F0000FCCF4FE350E0BC018EE297E00C9494F6B6
:103F1000382F8FEF809316021092890780917407D3
:103F200090917507A0917607B0917707B7FF08C009
:103F30001092740710927507109276071092770707
:103F40002091740720938A0410928407809188043A
:103F50001816ECF4082E000C990B831B9109022E05
:103F6000000C330B2817390794F097FF02C090E03C
:103F700080E080938A04092E000CAA0BBB0B80936F
:103F8000740790937507A0937607B0937707809195
:103F90008A046623A9F090918B04891714F4809306
:103FA0008B0420918B04022E000C330B2D5F3F4FAE
:103FB000482F082E000C550B241735071CF483508E
:103FC00080938B040895E0917B04E63028F581E02E
:103FD0008E0F80937B044091740750917507609118
:103FE00076077091770720918B04909188048091D7
:103FF000830439E0E39FF0011124EB5BFB4FA091B8
:104000001C10B0911D10B183A0834283538364833D
:1040100075832683978380870895CF93DF93CDB7E9
:10402000DEB78D81282F082E000C330B9091720F74
:104030009217130609F08CF48093720F9E01285F8B
:104040003F4F4E815F8168E270E089E49FE00E940B
:1040500093EF1092480F1092470FDF91CF91089580
:104060000F931F93CF93DF938C016F3F19F410923E
:10407000720F60E02091720F862F062E000C990BB4
:104080002817190609F014F56093720FC8010E94F1
:104090001AEF800F911FEC01C01BD10BC932D10563
:1040A0003CF00197FC012491207C2038D1F3F3CF20
:1040B000DD27AE01B80189E49FE00E943BEFC75BBA
:1040C000D04F18821092480F1092470FDF91CF9176
:1040D0001F910F910895CF92DF92EF92FF920F936D
:1040E0001F930E94D5C60091390410913A04209183
:1040F0003B0430913C046B017C01C01AD10AE20AF6
:10410000F30A9701860137FD2EC02091030130E0AC
:1041100020FF34E040911602242F220F220F240F9B
:104120004091030144FD0FC020933804645D7E4F2D
:104130008F4F9F4F6093390470933A0480933B04F0
:1041400090933C040EC04091030143FD02C02195B1
:10415000EBCF4091030142FFFACF4091030141FFB1
:10416000E3CF309337048091370481709091370406
:1041700091FD826090913604981749F0813049F1A1
:1041800068F08230A9F08330C1F0809336041F912B
:104190000F91FF90EF90DF90CF900895913089F0CC
:1041A000923099F79091380420911602921B0EC01C
:1041B000992339F09330B1F3E8CF913099F39230ED
:1041C00021F79091380420911602920F90933804B1
:1041D000DCCF992339F39330C1F6F3CFCF92DF923E
:1041E000EF92FF92CF93C82F833011F46093250490
:1041F0000E94D5C66B017C0124EA30E74DE75FE3FE
:1042000060911702709118028091190290911A0220
:104210000E94CBEF87FD18C08AEF90E0A0E0B0E0ED
:104220008C0D9D1DAE1DBF1D809326049093270409
:10423000A0932804B0932904C0930B02CF91FF9060
:10424000EF90DF90CF90089580E090E0DC01E8CF20
:10425000CF92DF92EF92FF920F931F930E94D5C6E9
:1042600000911D0410911E0420911F043091200420
:104270006B017C01C01AD10AE20AF30A9701860198
:1042800037FD11C020911C04209520931C046A5412
:104290007C4F8F4F9F4F60931D0470931E0480933B
:1042A0001F049093200481E090911C04911101C09F
:1042B00080E01F910F91FF90EF90DF90CF900895D5
:1042C000FC0180E0309749F09491992331F0907C83
:1042D000903809F08F5F3196F7CF0895009751F02D
:1042E000FC0180E09191992331F0907C9038D1F3DA
:1042F0008F5FF8CF80E0089560E974E180E0DADC58
:1043000068E874E181E0D6DC60E874E182E0D2DC48
:1043100068E774E186E0CEDC60E774E187E0CADC40
:1043200068E674E183E0C6DC60E674E184E0C2DC48
:1043300068E574E185E0BECCCF93823061F4C4E0DF
:10434000C15058F088E0C89FB001112464507C4EE1
:104350008C2FB0DCF5CFCF91CFCFCF9108950F93B5
:104360001F93522F20911C1030911D1028173907D0
:1043700091F11092820490931D1080931C108B0178
:1043800030E020E0009374071093750720937607C0
:104390003093770740938B0450938804845E98424F
:1043A00021F41092830410927B040E9457CB81E089
:1043B00020911C1030911D10245E384209F080E0DD
:1043C000BBDF82E080933B0281E08093840780938F
:1043D000160210927E041F910F91089520E040E094
:1043E00070E060E084EE98E2BACFCF93DF93C091A3
:1043F0007B04CC23B1F0C150C0937B0489E0C89FFB
:10440000E0011124CB5BDB4F6A817B812F814E81E0
:1044100088819981A4DF888580938304DF91CF917F
:104420000895DF91CF91DACFCF930E94DE9D0E9455
:104430005379C82F882319F080E00E94D4788C2FFC
:10444000F2DBCF91CBCF4F925F926F927F928F92A0
:104450009F92AF92BF92CF92DF92EF92FF921F9303
:10446000CF93DF93CDB7DEB728970FB6F894DEBFB2
:104470000FBECDBF0E94D5C66B017C0180910B029F
:104480008F3F09F445C00E94D5C6809026049090C5
:104490002704A0902804B0902904681979098A0992
:1044A0009B0997FD35C08091E20F9091E30F8F5FDC
:1044B0008F70891769F180910B0240E050E065E050
:1044C00073E4843050F424E0829FF0011124E2561A
:1044D000FD4F40815181628173814D835E836F8383
:1044E000788719821A821B821C82409125048330AE
:1044F00011F0409194079E012F5F3F4FBE016B5F0B
:104500007F4F86E592E00E940C8D8FEF80930B0227
:10451000E2DD8091370482FF33C080913504811140
:1045200031C091E090933504809192078927809360
:1045300089041092920783E080933B021092370423
:104540000E94D5C66C507E4F8F4F9F4F60933904A9
:1045500070933A0480933B0490933C0468EE73E0BC
:1045600085E090E00E9487AE16E0115059F00E945D
:10457000ECAA62E070E080E090E00E94A2C6F5CF75
:10458000109235048091310490913204A09133044B
:10459000B0913404A7019601281B390B4A0B5B0B21
:1045A000DA01C901B7FD88C1D701C6018C599F4FF7
:1045B000AF4FBF4F8093310490933204A0933304E4
:1045C000B093340460913804062E000C770B77FF0B
:1045D00003C0719561957109909138048091300400
:1045E000981398C0633008F095C0109238048091F9
:1045F000380480933004653008F09EC080918904AF
:1046000081111CC180911C1090911D10845E9842F4
:1046100041F480910C02882309F422C181508093D7
:104620000C020E944E7D8090B8049090B904A09036
:10463000BA04B090BB0481110E945B7D20913B02C3
:10464000222309F44BC0D501C4014AE0B695A795D1
:10465000979587954A95D1F7009741E0A407B10552
:1046600020F08FEF9FEFA0E0B0E096958795009740
:1046700039F040912A0450912B044817590770F5DE
:10468000223038F0243008F4FDC0243011F41092A8
:104690003B02E0911C10F0911D10099510928904C5
:1046A00080911C1090911D10845E9842F9F40E9434
:1046B000D5C6DC01CB018C199D09AE09BF098090DC
:1046C0002A0490902B04B12CA12C88169906AA06D6
:1046D000BB0620F490932B0480932A0480911C1035
:1046E00090911D10845E984209F4D0C0809183049B
:1046F0008111CCC080912C0490912D04A0912E04A6
:10470000B0912F04C81AD90AEA0AFB0AF7FCCCC0F8
:1047100065DECAC08DEF860F823008F068CF8091C9
:10472000380491E087FD9FEF892F880F880F890F4C
:104730008093380465E05BCF8091890721E030E009
:1047400040E050E0882309F456C08090850790909F
:104750008607A0908707B090880781149104A10470
:10476000B104E9F170E090E080E00E94CFEF20E03A
:1047700030E040EA50E40E94D6F42B013C01C7012E
:10478000B601681979098A099B090E94CFEF9B013C
:10479000AC01C301B2010E94D6F420E030E04AE748
:1047A00054E40E9430F04B015C0120E030E040EA2C
:1047B00052E40E94C2F524E630E040E050E087FF7A
:1047C00012C020E030E040EF51E4C501B4010E9486
:1047D000C2F52AE030E040E050E087FF04C021E06D
:1047E00030E040E050E0C0928507D0928607E0922A
:1047F0008707F0928807A09138040A2E000CBB0BA3
:104800000E9458F425E030E040E050E00E9421F49E
:104810008091740790917507A0917607B091770702
:10482000820F931FA41FB51F809374079093750781
:10483000A0937607B093770710923804D701C6018A
:104840008856954CAF4FBF4F80932C0490932D0406
:10485000A0932E04B0932F0481E080933B02D2CE2C
:1048600089E080930C0280912A0490912B04009798
:1048700029F0019790932B0480932A0481E0809380
:104880003B02CFCE81E080933B0203CF38E9C30ED9
:104890003AE3D31EE11CF11CC0922C04D0922D04EB
:1048A000E0922E04F0922F0480913B028130D1F0EF
:1048B000833011F40E9457CB28960FB6F894DEBFD0
:1048C0000FBECDBFDF91CF911F91FF90EF90DF9092
:1048D000CF90BF90AF909F908F907F906F905F90A0
:1048E0004F90089510923B02E7CF8093840420E01C
:1048F00040E070E060E08FE898E231CDCF938091A6
:104900003D04811109C086EC94E190937D0480936D
:104910007C0481E080933D0456DB20E040E070E0C1
:1049200060E081E19DE11BDDC1E0C09383040E9452
:104930002C7D1092830459DDC093830460E080E7EE
:104940009DE28EDB4091940761E080E00E949BB97C
:104950008CEB94E190932D0780932C07CF910895D1
:10496000FF920F931F93CF93DF93CDB7DEB7689776
:104970000FB6F894DEBF0FBECDBF809125108860C2
:104980008093251084E0F82EF0922B1084E1809320
:104990002C108BE39DE00197F1F760E08EE190E150
:1049A0000E9404CB60E38EE190E10E9433CB0BE4E4
:1049B00016E4C8010197F1F760E38EE190E10E94EF
:1049C00033CBC8010197F1F760E38EE190E10E94DB
:1049D00033CB83E592E00197F1F760E28EE190E15D
:1049E0000E9433CB60912510606240E08EE190E13F
:1049F0000E9440CBF092261040E06CE08EE190E106
:104A00000E9440CB0E9457CB82E08093271040E069
:104A100066E08EE190E10E9440CB88E0E6E6F2E0BD
:104A2000DE01519601900D928A95E1F788E0EEE65D
:104A3000F2E0DE01199601900D928A95E1F788E087
:104A4000E6E7F2E0DE01119601900D928A95E1F71A
:104A5000BE016F5E7F4F80E00E94A9CBBE01675F01
:104A60007F4F86E00E94A9CBBE016F5F7F4F87E03A
:104A70000E94A9CB81E020911C1030911D10245E72
:104A8000384209F080E058DC0E9457CB68960FB698
:104A9000F894DEBF0FBECDBFDF91CF911F910F9174
:104AA000FF9008955DDFE4E0F1E080818E7F8083F8
:104AB00080910501809581708093030180818F7EB4
:104AC00080838081877F808306DB109238040C947A
:104AD000D4BE6FEF7FEF57C9AF92BF92CF92DF92F4
:104AE000EF92FF920F931F93CF93DF9300D000D0EC
:104AF000CDB7DEB76C015B017A0110E000E00E1566
:104B00001F05C8F4AE014F5F5F4FB501C6010E949B
:104B1000251B6C0189819A81AB81BC81892B8A2BF1
:104B20008B2B49F0B701601B710BCE0101962BD97D
:104B3000080F191FE4CFC8010F900F900F900F902E
:104B4000DF91CF911F910F91FF90EF90DF90CF9069
:104B5000BF90AF9008958F929F92AF92BF92CF92E5
:104B6000DF92EF92FF920F931F93CF93DF93CDB716
:104B7000DEB728970FB6F894DEBF0FBECDBF7C011D
:104B8000162F5A014901862F660F990B9C01265654
:104B90003D4F690110160CF042C0AE014B5F5F4FF4
:104BA0006FE17BE1C7010E94251B7C018D819E8105
:104BB000AF81B8850097A105B10589F18D339105C5
:104BC000A105B10509F476C08E379105A105B1059F
:104BD00009F470C08A329105A105B105A1F517FF4E
:104BE0000FC08CE994E11E3F11F088E994E1402F59
:104BF000002E000C550B6FE17BE16EDF081B92C0AD
:104C000085E490E0A0E0B0E089839A83AB83BC8325
:104C1000CE0101965EDF015009F04EC000E0802F0A
:104C200028960FB6F894DEBF0FBECDBFDF91CF91AF
:104C30001F910F91FF90EF90DF90CF90BF90AF90BA
:104C40009F908F90089584329105A105B105C1F41C
:104C50008114910451F0402F002E000C550B6FE190
:104C60007BE1C40139DF081B95CFA114B104E9F041
:104C7000402F002E000C550B62E27BE1C501F2CF04
:104C800080349105A105B10581F40150F6018081C0
:104C9000082E000C990BAA0BBB0B89839A83AB835C
:104CA000BC83CE01019615DF75CFCE01059611DFCD
:104CB000015070CF17FD95CF81E04D815E816F81EE
:104CC00078854D3351056105710509F480E0810F48
:104CD0008A30C4F001506AE00E94EDF3192F082ECB
:104CE000000C990BC096092E000CAA0BBB0B8983F4
:104CF0009A83AB83BC83CE010196EBDE002309F4DB
:104D00008DCF812F082E000C990BC096092E000C18
:104D1000AA0BBB0B89839A83AB83BC83CE0101961C
:104D2000D8DE0150002309F479CF402F002E000C6B
:104D3000550B6FE17BE1C701CFDE081B70CF4FEF52
:104D40005FEF62E27BE1C8CE4FEF5FEF6FE17BE1A7
:104D5000C3CE462F682F8EE190E10C9461CBFC010D
:104D6000A081B1811C92A281B3818C918F5F8C93C1
:104D70000280F381E02D608180E0EBCF4F925F9263
:104D80006F927F928F929F92BF92CF92DF92EF921B
:104D9000FF920F931F93CF93DF93CDB7DEB7289782
:104DA0000FB6F894DEBF0FBECDBF7C013B016A0198
:104DB0004901FB016081FC018081CBDFC114D1047A
:104DC00069F1FA82E9827C826B82011120C0AE0116
:104DD0004B5F5F4FB401C6010E94251B6C018D81A2
:104DE0009E81AF81B885892B8A2B8B2BB9F0CE01A0
:104DF00005966FDEF70180818F5F8083843138F301
:104E0000CE010196ACDFE3CFB12C860129C086012B
:104E1000B12C26C0452846284728B1F728960FB65A
:104E2000F894DEBF0FBECDBFDF91CF911F910F91E0
:104E3000FF90EF90DF90CF90BF909F908F907F90EA
:104E40006F905F904F900895B39407C0B1102EC03B
:104E500001151105C9F20F5F1F4F01151105A9F2C8
:104E6000AE014B5F5F4FB401C6010E94251B6C0170
:104E70004D805E806F807884411451046104710418
:104E8000A9F0F0E24F16510461047104F9F2D30164
:104E9000C2018D97A109B1090297A105B10530F0B2
:104EA0004BE2441651046104710471F6F7018081EC
:104EB000482F4B0D5527551F453151052CF0853096
:104EC00018F0CE0101964BDF81E0411451046104DA
:104ED000710409F480E0B80EF70180818B0D8083A6
:104EE000BB2009F497CFBA94AE014B5F5F4FB4017A
:104EF000C8010E94251B8C01CE010596EADDF0CF8A
:104F00002F923F924F925F926F927F928F929F92D9
:104F1000AF92BF92CF92DF92EF92FF920F931F93C7
:104F2000CF93DF9300D000D000D0CDB7DEB74C01D7
:104F30003B015A012E83232E280181E080938304B4
:104F400040917407509175076091760770917707CB
:104F5000411551056105710571F0141615060CF027
:104F600080E080937E04109274071092750710926F
:104F700076071092770710917E0430908904109282
:104F80008904311005C080913B02882309F4ACC02C
:104F9000C20196D9082F80E0C114D10411F0C601D6
:104FA0008FD91D821982E114F104B1F4402F50E031
:104FB000282F30E0CA01820F931F45976CF484E1DB
:104FC00090E0841B950B821B930B97FD01969595A2
:104FD00087958D8381E0898301E02FE13BE1A20188
:104FE000BE016F5F7F4FCE010596C8DEE114F1046C
:104FF00089F08D81882321F01D8289818F5F8983CB
:1050000000E022E23BE1A701BE016F5F7F4FCE01CE
:105010000596B4DEC114D10451F000E02FE13BE16C
:10502000A601BE016F5F7F4FCE010596A7DE63E04C
:1050300080E08FDE8BE590E0A0E0B0E0112321F06E
:1050400080E290E0A0E0B0E089839A83AB83BC83E8
:10505000CE0101963EDDC30177DE8DE590E0A0E054
:10506000B0E0112321F080E290E0A0E0B0E089837D
:105070009A83AB83BC83CE0101962BDDC40120D97A
:1050800063E092E1981B892F64DE80E290E0A0E06B
:10509000B0E0112321F08BE590E0A0E0B0E089833F
:1050A0009A83AB83BC83CE01019613DDC4014CDE31
:1050B00080E290E0A0E0B0E0112321F08DE590E0E7
:1050C000A0E0B0E089839A83AB83BC83CE010196D4
:1050D00000DD332049F0111102C0AE80B22CA114C2
:1050E000B104D9F0F501099526960FB6F894DEBF04
:1050F0000FBECDBFDF91CF911F910F91FF90EF9029
:10510000DF90CF90BF90AF909F908F907F906F90E7
:105110005F904F903F902F90089567D9E5CFAF9261
:10512000BF92CF92DF92EF92FF920F931F93CF9394
:10513000DF93CDB7DEB7ADB6BEB68DE195E1C0D891
:1051400090E001962DB73EB7281B390B0FB6F894A7
:105150003EBF0FBE2DBF8DB79EB701967C016DE19E
:1051600075E10E9413EF809184040AEE14E181300E
:1051700031F005ED14E1823011F00DEF14E18EE015
:10518000C82E85E1D82E2EEE31E244E152E260E1F4
:1051900075E187E195E1B4DE0FB6F894BEBE0FBEAF
:1051A000ADBEDF91CF911F910F91FF90EF90DF90F7
:1051B000CF90BF90AF900895CF93DF93EA01C9DD00
:1051C000CE01DF91CF9185CC8F929F92AF92BF920B
:1051D000CF92DF92EF92FF920F931F93CF93DF93C3
:1051E00000D000D0CDB7DEB710928907E091470F0D
:1051F000F091480F309721F0099581110E94D4BE9B
:1052000080918904109289048823C9F020E040E04D
:1052100070E060E087E594EBA2D8A2DB0F900F90DE
:105220000F900F90DF91CF911F910F91FF90EF9012
:10523000DF90CF90BF90AF909F908F90089508D847
:10524000182F60E080E085DD20E030E040E05FE3A3
:1052500060914406709145068091460690914706FC
:105260000E945FF40E943EF56B01A0904806B0904A
:10527000490682E090E0A0E0B0E089839A83AB83A6
:10528000BC83CE01019625DC81E893E0D7FC03C006
:10529000C6010E94E8A053DD8FE290E0A0E0B0E0FC
:1052A00089839A83AB83BC83CE01019612DC1111F2
:1052B00029C080910105882329F1F0E2CF2ED12C5D
:1052C000E12CF12CC982DA82EB82FC82CE010196BC
:1052D00000DC8AE0A816B1040CF4C3C2C982DA82E9
:1052E000EB82FC82CE010196F4DB94E6A916B104B0
:1052F0000CF4CAC2C982DA82EB82FC82CE0101962A
:10530000E8DB04C0C5010E94BDA019DD81E090E08A
:10531000A0E0B0E089839A83AB83BC83CE01019681
:10532000D8DB80E290E0A0E0B0E089839A83AB8391
:10533000BC83CE010196CDDBEAE0AE16B1045CF48D
:1053400080E290E0A0E0B0E089839A83AB83BC83E5
:10535000CE010196BEDB60E08AE0FBDC20E030E0BD
:1053600040E05FE360915B0670915C0680915D06B2
:1053700090915E060E945FF40E943EF56B01A09042
:105380005F06B090600682E090E0A0E0B0E0898324
:105390009A83AB83BC83CE0101969BDB81E893E0CB
:1053A000D7FC03C0C6010E94E8A0C9DC8FE290E0F0
:1053B000A0E0B0E089839A83AB83BC83CE010196E1
:1053C00088DB111129C080910605882329F1E0E2CC
:1053D000CE2ED12CE12CF12CC982DA82EB82FC8218
:1053E000CE01019676DBFAE0AF16B1040CF45CC294
:1053F000C982DA82EB82FC82CE0101966ADB84E606
:10540000A816B1040CF463C2C982DA82EB82FC8272
:10541000CE0101965EDB04C0C5010E94BDA08FDCF9
:1054200081E090E0A0E0B0E089839A83AB83BC8305
:10543000CE0101964EDB80E290E0A0E0B0E08983EF
:105440009A83AB83BC83CE01019643DB9AE0A91615
:10545000B1045CF480E290E0A0E0B0E089839A833C
:10546000AB83BC83CE01019634DB61E080E071DC6C
:1054700020E030E040E05FE3609134067091350653
:1054800080913606909137060E945FF40E943EF5A7
:105490006B01A0903806B090390619821A821B82DF
:1054A0001C82CE01019615DB81E893E0D7FC03C096
:1054B000C6010E94E8A043DC8FE290E0A0E0B0E0EB
:1054C00089839A83AB83BC83CE01019602DB1111E1
:1054D00029C080910B05882329F170E2C72ED12CB9
:1054E000E12CF12CC982DA82EB82FC82CE0101969A
:1054F000F0DAEAE0AE16B1040CF4F9C1C982DA823E
:10550000EB82FC82CE010196E4DAF4E6AF16B10438
:105510000CF400C2C982DA82EB82FC82CE010196D1
:10552000D8DA04C0C5010E94BDA009DC81E090E08A
:10553000A0E0B0E089839A83AB83BC83CE0101965F
:10554000C8DA80E290E0A0E0B0E089839A83AB8380
:10555000BC83CE010196BDDA8AE0A816B1045CF4E2
:1055600080E290E0A0E0B0E089839A83AB83BC83C3
:10557000CE010196AEDA61E08CE0EBDB2091A90C64
:105580003091AA0C4091AB0C5091AC0C60915E0232
:1055900070915F0280916002909161020E945FF4BD
:1055A0006B017C0120E030E040E251E40E9430F0E9
:1055B00020E030E048EC52E40E9430F04B015C0106
:1055C00020E030E0A901C701B6010E94CBEF20E046
:1055D00030E040EA50EC87FD04C020E030E040EAD3
:1055E00050E4C501B4010E945FF420E030E040E2E5
:1055F00051E40E94D6F40E943EF56B017C0180E2EA
:10560000F7FE09C0F094E094D094C094C11CD11C62
:10561000E11CF11C8DE280938C0460E290E1C916DC
:1056200097E2D906E104F1048CF0C701B60120E14C
:1056300037E240E050E00E9421F4CA01B9012AE0BB
:1056400030E040E050E00E9421F4605D60938D0402
:1056500060E2E8EECE16E3E0DE06E104F1048CF051
:10566000C701B60128EE33E040E050E00E9421F48B
:10567000CA01B9012AE030E040E050E00E9421F484
:10568000605D60938E04C701B60124E630E040E01F
:1056900050E00E9421F46AE0862E912CA12CB12CBE
:1056A000CA01B901A50194010E9421F4605D6093D3
:1056B0008F04C701B601A50194010E9421F4062FB1
:1056C000CA01B901A50194010E9421F4002309F443
:1056D0008FC08EE280939004605D60939104005DC2
:1056E000009392048AE590E0A0E0B0E089839A8379
:1056F000AB83BC83CE010196ECD9112309F48AC097
:105700008CE894E01CDB86E090E0A0E0B0E08983C8
:105710009A83AB83BC83AE014F5F5F4F62E080E052
:105720004BDD80911B0290911C020E94E8A007DBD8
:1057300085E290E0A0E0B0E089839A83AB83BC83EC
:10574000CE010196C6D980910A0287508093240425
:1057500082E08093230480917E0290917F02A09149
:105760008002B091810289839A83AB83BC830E94BB
:105770002821909122048917D9F00E942821809332
:105780002204809121048F5F823008F067C08093EB
:105790002104E0912104F0E0EE0FFF1F81E090E092
:1057A0008C0F9D1FE80FF91F0190F081E02D0995E6
:1057B00063E080E0CEDA89E49FE00E946E21182F3A
:1057C00044E150E062E27BE189E49FE085D980E238
:1057D000C82ED12CE12CF12C143108F01FCDC98238
:1057E000DA82EB82FC82CE01019673D91F5FF4CF7F
:1057F000662351F08EE280939004605D6093910483
:1058000080E2809392046ECF80E280939104809333
:105810009004F6CF0E944CC082FF18C00CE814E040
:10582000F80181918F01882309F46DCF8F320CF03C
:105830008FE3082E000C990BAA0BBB0B89839A836C
:10584000AB83BC83CE01019644D9EACF80911E0779
:1058500082FD56CF86EA94E177DA55CF1092210483
:1058600098CF81E090E0A0E0B0E089839A83AB8399
:10587000BC83CE0101962DD9C982DA82EB82FC82EB
:10588000CE01019626D95CCD81E090E0A0E0B0E0A9
:1058900089839A83AB83BC83CE0101961AD9C982CE
:1058A000DA82EB82FC8254CD81E090E0A0E0B0E0AF
:1058B00089839A83AB83BC83CE0101960AD9C982BE
:1058C000DA82EB82FC82CE01019603D9C3CD81E05E
:1058D00090E0A0E0B0E089839A83AB83BC83CE01E3
:1058E0000196F7D8C982DA82EB82FC82BBCD81E0D7
:1058F00090E0A0E0B0E089839A83AB83BC83CE01C3
:105900000196E7D8C982DA82EB82FC82CE01019649
:10591000E0D826CE81E090E0A0E0B0E089839A83D1
:10592000AB83BC83CE010196D4D8C982DA82EB82E4
:10593000FC821ECE8F929F92AF92BF92CF92DF9247
:10594000EF92FF920F931F93CF93DF9300D000D07D
:10595000CDB7DEB76C017B0181E0809316028090A9
:105960008D0790908E07A0908B07B0908C071091B8
:105970008A0761E080E0EDD903E19401A501612F80
:10598000C601E9D8182FE114F10429F18AE390E067
:10599000A0E0B0E089839A83AB83BC83CE010196FB
:1059A00098D8C7010E946E218F5F115061E01817CF
:1059B00008F462E000E210E020E030E009831A839E
:1059C0002B833C83AE014F5F5F4F94E1981B892F7F
:1059D000F3DBC701B4D90F900F900F900F90DF91B8
:1059E000CF911F910F91FF90EF90DF90CF90BF90DC
:1059F000AF909F908F9008950F931F93CF93DF9355
:105A0000FC01EB018091740790917507A0917607D6
:105A1000B0917707B7FF08C010927407109275070E
:105A20001092760710927707809178079091790706
:105A3000A0917A07B0917B07409174075091750748
:105A4000609176077091770784179507A607B707C7
:105A500044F48093740790937507A0937607B093EE
:105A6000770780913B028823D9F060917407709189
:105A70007507809176079091770700917C071091C8
:105A80007D0720917E0730917F07600F711F821F75
:105A9000931F0995BC0180918207909183074ADF8B
:105AA00080918904811108C0809171078823D1F108
:105AB00080913B028823B1F180918007909181070A
:105AC0000097B1F040917407509175076091760787
:105AD0007091770700917C0710917D0720917E07D8
