:100000000C94CA1C0C940A1D0C940A1D0C940A1D15
:100010000C940A1D0C940A1D0C940A1D0C940A1DC4
:100020000C940A1D0C940A1D0C940A1D0C940A1DB4
:100030000C940A1D0C940A1D0C940A1D0C940A1DA4
:100040000C940A1D0C9403940C940A1D0C940A1D24
:100050000C940A1D0C9487900C940A1D0D944E3735
:100060000C940A1D0C94B4F10C947EF10C940A1DAE
:100070000C940A1D0C940A1D0C940A1D0C940A1D64
:100080000C940A1D0C940A1D0C940A1D0C940A1D54
:100090000C940A1D0C940A1D0C940A1D0C94C28029
:1000A0000C940A1D0C940A1D0C940A1D0C940A1D34
:1000B0000C940A1D0C940A1D0C940A1D0C940A1D24
:1000C0000C940A1D0C940A1D0C940A1D0C940A1D14
:1000D0000C940A1D0C940A1D0C940A1D0C940A1D04
:1000E0000C940A1D084AD73B3BCE016E84BCBFFD71
:1000F000C12F3D6C74319ABD56833DDA3D00C77FF8
:1001000011BED9E4BB4C3E916BAAAABE0000008090
:100110003F05A84CCDB2D44EB93836A9020C50B91F
:10012000918688083CA6AAAA2ABE000000803F004B
:100130000D9441340D944F340D943D340D94FE33A1
:100140000D9460280D94843D0D9445340D94C30A9C
:100150000D9437340D94D73C0D942F340D941C34EA
:100160000D94F00A0D949B240D9429340D9433348E
:100170000D94F9330D949E270D9425340D944B3432
:100180000D94210B0D9480260D942A260D948F2614
:100190000D9414340D9410340D943E0D0D9494244C
:1001A0000D9418340D94640C0D941F344E414E4937
:1001B0004E495459494E46CDCCCC3D0AD7233C1725
:1001C000B7D13877CC2B329595E6241FB14F0A0072
:1001D0000020410000C84200401C4620BCBE4CCA62
:1001E0001B0E5AAEC59D74554E4C4F414420464996
:1001F0004C414D454E54004C4F41442046494C41E2
:100200004D454E540046494C414D454E54204348BF
:10021000414E4745004D3834005072696E74204499
:100220006F6E6500446F6E65207072696E74696EE2
:10023000672066696C650A004D3737004D33310021
:10024000436F6F6C696E672E2E2E0045312025534B
:100250000020573A0042656420436F6F6C696E67F7
:100260002E2E2E004265642048656174696E672EEB
:100270002E2E0023646566696E652044454641550F
:100280004C545F0000626564004B6420004B6920A1
:10029000004B7020005049442074756E696E6720D1
:1002A000646F6E65002066696E69736865642120FD
:1002B00050757420746865206C617374204B702CC9
:1002C000204B6920616E64204B6420636F6E7374F1
:1002D000616E74732066726F6D2062656C6F77203B
:1002E000696E746F20436F6E6669677572617469B9
:1002F0006F6E2E680A00504944204175746F747502
:100300006E6500206661696C6564212074696D65A5
:100310006F75740A00504944204175746F74756E8E
:1003200065004175746F74756E65206661696C65F2
:1003300064212054696D656F75742E0020666169B3
:100340006C6564212054656D7065726174757265A9
:1003500020746F6F20686967680A00504944204123
:1003600075746F74756E6500504944204379636CF1
:1003700065730025532025692F256900204B643AB9
:100380002000204B693A2000204B703A2000204387
:100390006C617373696320504944200A00204E6FDA
:1003A000206F76657273686F6F740A002054753A17
:1003B0002000204B753A2000206D61783A20002003
:1003C0006D696E3A200020643A20002062696173F2
:1003D0003A200048656174696E672E2E2E002073E6
:1003E000746172740A00504944204175746F7475C9
:1003F0006E65004175746F74756E65206661696C19
:100400006564212054656D70657261747572652034
:10041000746F6F20686967682E00206661696C657B
:1004200064212054656D7065726174757265207405
:100430006F6F20686967680A0050494420417574ED
:100440006F74756E6500504944204175746F747502
:100450006E6500206661696C6564212042616420DC
:100460006865617465722069640A005049442041DE
:1004700075746F74756E65004572723A2075746696
:100480003820666F6E74206E6F7420696E697469AF
:10049000616C697A65642E004572723A20757466E3
:1004A0003820666F6E74206E6F7420696E6974698F
:1004B000616C697A65642E004572723A20757466C3
:1004C0003820666F6E74206E6F7420696E6974696F
:1004D000616C697A65642E002000200020003A00DB
:1004E0003A002568753A2530326875002530326843
:1004F000753A253032687500253032687527253009
:1005000032687500256875642025303268753A2593
:10051000303268750042656400456E636C6F7375B8
:1005200072650045002000200020002000200025EA
:10053000002020202020202000202020200020201B
:10054000202020202000657272001FE03FF03FF065
:100550003FF01FE01FE03FF03FF03FF00FC007808B
:1005600003001FE020102010201010201020201069
:10057000201030300840048003003FFFF83E00F8B0
:1005800039F03831E01831E01821E1E820F3E820B3
:100590007FE82077E828EE282FDC082FFC082F9E24
:1005A000082F0F08300F18300F18381F383E00F88A
:1005B0003FFFF83FFFF83E00F8383F38307E1830F4
:1005C0007C18287C082C38082F39C82FFFE82FC743
:1005D000E82FFFE82739E8203868207C28307C188D
:1005E00030FC1839F8383E00F83FFFF83FFFF83E7E
:1005F00000F8380F38341FD8361F982F1F082F9E49
:10060000082FFC082FDC0827EFC82077E8207FE8B8
:1006100020F3E821F1E833F0D837F05839E0383EDC
:1006200000F83FFFF83FFFF83E80F8398038378107
:10063000D837C3D827C7E823C7F821FF88206C081C
:10064000206C08206C0823FF083FC7882FC7C837D5
:1006500087D83703D83803383E02F83FFFF81FFF2A
:10066000F81FFFF804104002082002082004104080
:100670000820801041001041000820800410400034
:1006800000001FFFF81FFFF8256C6425636D0063F1
:10069000616E63656C005072696E742041626F72A6
:1006A000746564004469736D697373005549204132
:1006B000626F72746564004D323520500A4D3234D9
:1006C00000526573756D65005549205061757365FD
:1006D0000050617573696E672E2E2E0072657375FA
:1006E0006D65004D323400454550524F4D205665E2
:1006F0007273696F6E204572726F72004545505279
:100700004F4D20496E646578204572726F720045C6
:100710004550524F4D20435243204572726F720034
:100720003F0049676E6F72650052657365740049DA
:100730006E697469616C697A6520454550524F4D08
:100740000045005A005859004C6F6164206D6D00DF
:10075000556E6C6F6164206D6D0046696C2E20448F
:1007600069612E004F6666004F6E004520696E205D
:100770006D6D5E3300200820466163740020082000
:100780004D6178002008204D696E004D696E20543F
:10079000726176656C205370656564004D696E20EA
:1007A00056656C6F63697479004D61782040205301
:1007B00070656564004D6178204520416363656C18
:1007C000004D6178204020416363656C0054726184
:1007D00076656C20416363656C0052657472616379
:1007E0007420416363656C00416363656C004D6117
:1007F000782040204A65726B0040207374657073E6
:100800002F6D6D00416476616E636564205365747D
:1008100074696E6773003F0043616E63656C0049E5
:100820006E6974004D34323800496E697469616CC8
:10083000697A6520454550524F4D0046696C616D9F
:10084000656E740054656D706572617475726500D3
:10085000447269766520537472656E6774680053DC
:10086000746570732F6D6D004A65726B0041636330
:10087000656C65726174696F6E004D6178205370AC
:1008800065656420286D6D2F7329005365742048B9
:100890006F6D65204F66667365747300436F6E6697
:1008A000696775726174696F6E004C6576656C6915
:1008B0006E6720446F6E6521004D6F7665205A008B
:1008C0004732395332004E65787420506F696E7428
:1008D000002569202F202575004732395331004704
:1008E0003239533200436C69636B20746F20426568
:1008F00067696E005A2056616C756500496E6465C3
:1009000078205900496E64657820580053746F72DE
:10091000652053657474696E6773004C6F61642061
:1009200053657474696E6773004265642054726124
:100930006D6D696E6700426564205A0046616465AA
:1009400020486569676874004F6666004F6E004214
:100950006564204C6576656C696E670045646974F2
:10096000204D657368004C6576656C2042656400B7
:100970004D6F74696F6E003F004E65787420436F51
:10098000726E657200446F6E65004E657874004843
:100990006F6D696E672058595A003F0043616E635E
:1009A000656C204F626A656374004E4F0059455371
:1009B0000043616E63656C204F626A656374203D1D
:1009C000004D61696E00426564004E6F7A7A6C6515
:1009D0000046616E20537065656400436F6E666902
:1009E0006775726174696F6E00526573746F7265BA
:1009F0002044656661756C7473004C6F61642053AC
:100A0000657474696E67730053746F726520536503
:100A10007474696E6773004F6666004F6E00536FA3
:100A2000756E640050726568656174202420436FA0
:100A30006E66004C434420436F6E747261737400A1
:100A4000416476616E6365642053657474696E6792
:100A500073004D61696E004D3730322054256400BB
:100A60004D36303020423020542564004D3730322E
:100A7000203B2564004D37303120542564004D372C
:100A80003032004D373031004D36303020423000AA
:100A90004D61696E00436F6E74696E7565005075C7
:100AA000726765206D6F726500524553554D452044
:100AB0004F5054494F4E533A005052494E542050D3
:100AC0004155534544002F00200020204E6F7A7A74
:100AD0006C653A20005061726B696E672E2E2E0095
:100AE00000005761697420666F720066696C616D01
:100AF000656E74206368616E676500746F2073743F
:100B0000617274005761697420666F720066696C67
:100B1000616D656E7420756E6C6F616400004E6F60
:100B20007A7A6C652068656174696E6700506C65DF
:100B300061736520776169742E2E2E0000507265F6
:100B4000737320627574746F6E00746F20686561D2
:100B500074206E6F7A7A6C650000496E73657274EA
:100B60002066696C616D656E7400616E64207072E0
:100B700065737320627574746F6E00746F20636F99
:100B80006E74696E7565005761697420666F7200D6
:100B900066696C616D656E74206C6F6164000050F5
:100BA0007265737320427574746F6E00746F207277
:100BB0006573756D65207072696E740000576169A8
:100BC0007420666F72207072696E7400746F207288
:100BD0006573756D652E2E2E000057616974206651
:100BE0006F720066696C616D656E742070757267F6
:100BF0006500003135300035004245443A205074DC
:100C000031303020556C74694D4220357600527574
:100C10006E617761792057617463683A204F4E00A6
:100C20004D61782054656D7000323735004D696E26
:100C30002054656D7000350045313A2050743130D4
:100C40003020556C74694D42203576005053550064
:100C500047656E657269630050726F746F636F6C85
:100C600000312E3000426175640032353030303052
:100C700000556C74696D616B657220322E78004D81
:100C8000657368204C6576656C696E67004578749D
:100C90007275646572730031006D61726C696E66A5
:100CA000772E6F726700556C74696D616B65722089
:100CB000322B00323032332D30342D30310062751A
:100CC000676669782D322E312E78004D61726C691D
:100CD0006E00546865726D6973746F727300426F51
:100CE00061726420496E666F005072696E7465723D
:100CF00020496E666F004D61696E0056696F6C65C4
:100D00007400496E6469676F00426C7565004772D4
:100D100065656E0059656C6C6F77004F72616E6728
:100D2000650052656400576869746500426C7565BA
:100D300020496E74656E7369747900477265656EDB
:100D400020496E74656E7369747900526564204938
:100D50006E74656E73697479004C454420436F6E00
:100D600074726F6C004C69676874204272696768BE
:100D7000746E65737300436F6E6669677572617434
:100D8000696F6E0043617365204C69676874004346
:100D90007573746F6D204C6967687473004C696774
:100DA000687420507265736574730044656661757C
:100DB0006C74004F6666004F6E004C696768747310
:100DC000004D61696E003F004261636B0053746FB8
:100DD000700073687574646F776E003F0043616ED6
:100DE00063656C0050726F63656564004368616E93
:100DF00067652046696C616D656E7400486F737439
:100E00002053687574646F776E004E6F204D656473
:100E10006961005072696E742066726F6D204D6555
:100E2000646961004368616E6765204D656469614E
:100E3000004D3231004C69676874730041626F7510
:100E400074205072696E74657200436F6E666967D4
:100E500075726174696F6E0054656D70657261744E
:100E6000757265004D6F74696F6E005072656865CC
:100E7000617420437573746F6D00537461727420D4
:100E8000486F7374205072696E7400526573756D8B
:100E900065205072696E740043616E63656C204F0B
:100EA000626A6563740054756E650053746F7020D8
:100EB0005072696E74005061757365205072696E6E
:100EC0007400496E666F2053637265656E003F0063
:100ED0005374617274205072696E740043616E6362
:100EE000656C005072696E740043616E6E6F7420A1
:100EF000656E746572207375626469723A200002CF
:100F0000202E2E004261636B004D61696E00000C63
:100F10000F00FE07022503BB017FFE08FE08FE0549
:100F2000080806000040F0C888889878100508086E
:100F3000060000C0F88888888888F805050506003E
:100F4000012030F830200508080600002070F82045
:100F5000202020E00509090600FF2070A8A8B88815
:100F6000887020070505070001D86C366CD8050984
:100F7000090600FFF8A88888888888A8F8050A0A62
:100F80000600FE205050505088A8A8887003030324
:100F900006000340A040FFFFFFFFFFFFFFFFFFFF32
:100FA000FFFFFFFFFFFFFFFFFFFFFFFF0000000647
:100FB00005FF010707060200808080808000800313
:100FC0000303060105A0A0A005060606000050F8D0
:100FD0005050F8500509090600FF2070A8A070289D
:100FE000A87020050707060000C8C8102040989880
:100FF00005070706000040A0A040A8906801030371
:101000000602058080800309090601FF2040408018
:1010100080804040200309090601FF8040402020D5
:101020002040408005070706000020A8702070A817
:10103000200505050600012020F8202002030306F4
:1010400001FFC04080050101060003F8020202060C
:101050000100C0C00507070600000810102040402E
:1010600080050707060000708898A8C888700307E5
:101070000706010040C040404040E0050707060069
:1010800000708808102040F8050707060000F808DF
:10109000103008887005070706000010305090F8DF
:1010A0001010050707060000F880F0080888700592
:1010B0000707060000304080F088887005070706A3
:1010C0000000F80810102020200507070600007017
:1010D00088887088887005070706000070888878FF
:1010E000081060020505060100C0C000C0C002066D
:1010F000060601FFC0C000C04080030505060101CF
:101100002040804020050303060002F800F8030594
:101110000506010180402040800507070600007099
:101120008810202000200507070600007088B8A856
:10113000B88070050707060000708888F8888888DE
:10114000050707060000F04848704848F005070703
:101150000600007088808080887005070706000000
:10116000F04848484848F0050707060000F8808026
:10117000F08080F8050707060000F88080F0808086
:101180008005070706000070888080988870050732
:1011900007060000888888F8888888030707060102
:1011A00000E04040404040E00507070600003810DE
:1011B00010101090600507070600008890A0C0A0DE
:1011C0009088050707060000808080808080F805F1
:1011D000070706000088D8A88888888805070706BA
:1011E00000008888C8A8988888050707060000704E
:1011F000888888888870050707060000F08888F0CE
:1012000080808005070706000070888888A890689D
:10121000050707060000F08888F0A09088050707FA
:1012200006000070888070088870050707060000B7
:10123000F820202020202005070706000088888845
:1012400088888870050707060000888888885050BD
:101250002005070706000088888888A8A850050789
:101260000706000088885020508888050707060078
:101270000088885020202020050707060000F80875
:1012800010204080F80309090601FFE0808080807B
:10129000808080E005070706000080404020101095
:1012A000080309090601FFE020202020202020E07B
:1012B0000503030600052050880501010600FEF81D
:1012C00003030306010580402005050506000070A4
:1012D000087888780507070600008080F0888888ED
:1012E000F005050506000070808088700507070678
:1012F00000000808788888887805050506000070D1
:1013000088F08070050707060000304840E0404044
:10131000400507070600FE70888888780870050772
:10132000070600008080F088888888030707060188
:10133000004000C0404040E00409090601FE1000E2
:10134000301010101090600507070600008080889C
:1013500090E09088030707060100C04040404040ED
:10136000E0050505060000D0A8A8A8A80505050603
:101370000000B0C8888888050505060000708888C8
:1013800088700507070600FEF0888888F0808005D1
:1013900007070600FE78888888780808050505068E
:1013A0000000B0C8808080050505060000788070C8
:1013B00008F00507070600002020F8202020180567
:1013C0000505060000888888986805050506000060
:1013D00088888850200505050600008888A8A85040
:1013E00005050506000088502050880507070600FF
:1013F000FE88888850204080050505060000F8100A
:101400002040F80309090601FF2040404080404089
:1014100040200109090602FF808080808080808052
:10142000800309090601FF80404040204040408081
:1014300005030306000248A890FF2100486F746569
:101440006E6420746F6F20636F6C64004261636B25
:101450000050726F63656564004D6F766520457856
:10146000747275646572004732385A0047323859D1
:1014700000486F6D65204000473238580041757450
:101480006F20486F6D6500473238004D6F74696F8B
:101490006E0044697361626C652053746570706599
:1014A0007273004D383400426564204C6576656C7B
:1014B000696E6700486F6D696E67004D61696E0007
:1014C0005072656865617420242042656400507222
:1014D0006568656174202420456E640054656D70F4
:1014E0006572617475726500436F6F6C646F776EBF
:1014F0000046616E20537065656400426564004E6D
:101500006F7A7A6C6500507265686561742024009A
:101510004D61696E004261627973746570205A0092
:101520004261627973746570204000466C6F770089
:1015300046616E20537065656400426564004E6FBD
:101540007A7A6C6500426564205A00537065656460
:10155000004D61696E006F70656E005452494747D7
:1015600045524544003A20007A5F6D617800795F0A
:101570006D617800785F6D696E005265706F72748E
:10158000696E6720656E6473746F70207374617424
:1015900075730A0020746F6F206C6F6E672065781A
:1015A00074727573696F6E2070726576656E74659E
:1015B000640A0020636F6C642065787472757369C7
:1015C0006F6E2070726576656E7465640A00000047
:1015D000000000005F4300004D435761726E696E6A
:1015E000673A20486F6D696E672042756D702044C0
:1015F000697669736F72203C20310A000202040090
:10160000005F4300005F4300004D430000A0400026
:1016100000A04000000040000000010000000100A8
:10162000008000555555000000400033333300AAB8
:10163000AA2A004992240000002000C7711C0099CA
:10164000991900D1451700555515003BB1130024D9
:1016500049120011111100000010000F0F0F00E3DC
:10166000380E0043790D00CCCC0C00C3300C00E8E0
:10167000A20B0064210B00AAAA0A00703D0A009D7B
:10168000D80900427B090092240900DCD3080088B5
:101690008808001042080000000800F0C107008719
:1016A00087070075500700711C07003EEB0600A17C
:1016B000BC06006990060066660600703E06006182
:1016C00018060017F4050074D105005BB00500B2E0
:1016D000900500627205005555050078390500B87F
:1016E0001E0500050505004EEC040087D40400A18A
:1016F000BD040090A7040049920400C17D0400EEDF
:10170000690400C7560400444404005C3204000825
:1017100021040041100400000004003FF00300F821
:10172000E0030026D20300C3C30300CCB503003A94
:10173000A803000A9B0300388E0300C08103009FAA
:10174000750300D0690300505E03001D530300348D
:10175000480300913D03003333030016290300388A
:101760001F030097150300300C0300030303000B55
:10177000FA020049F10200BAE802005CE002002D22
:10178000D802002DD0020059C80200B0C0020031BA
:10179000B90200DAB10200AAAA0200A0A30200BCAA
:1017A0009C0200FA9502005C8F0200DF8802008232
:1017B000820200457C020027760200277002004367
:1017C0006A02007C640200D05E02003F590200C839
:1017D000530200206C696D6974656420746F200089
:1017E000204D617820004A65726B00FFFDFCFAF81D
:1017F000F6F4F2F0EEECEAE9E7E5E3E1E0DEDCDA6C
:10180000D9D7D5D4D2D0CFCDCBCAC8C7C5C3C2C013
:10181000BFBDBCBAB9B7B6B4B3B2B0AFADACAAA98C
:10182000A8A6A5A4A2A1A09E9D9C9A9998979594DC
:101830009392908F8E8D8B8A89888786848382810C
:10184000807F7E7D7B7A797877767574737271701C
:101850006F6E6D6C6B6A6968676665646362616010
:101860005F5E5D5C5B5A59585857565554535251F8
:1018700050504F4E4D4C4B4A4A49484746464544C6
:1018800043424241403F3E3E3D3C3B3B3A39383883
:1018900037363535343332323130302F2E2E2D2C31
:1018A0002B2B2A29292827272625252423232221D3
:1018B0002120201F1E1E1D1C1C1B1B1A1919181865
:1018C000171616151514131312121111100F0F0EEF
:1018D0000E0D0D0C0C0B0A0A09090808070706066D
:1018E000050504040303020201000000005F430039
:1018F000005F4300004D43000000000000000000B6
:1019000000000053657474696E67732053746F72BE
:10191000656400290A002062797465733B20637254
:1019200063200053657474696E67732053746F721B
:10193000656420280048617264636F6465642044B4
:10194000656661756C742053657474696E67732085
:101950004C6F616465640020286D6D2900203B2078
:101960004C6576656C696E67200020204D343230FE
:101970002053004D65736820426564204C65766590
:101980006C696E670020460020480020204D3134ED
:10199000352053004D6174657269616C2068656122
:1019A00074757020706172616D657465727300206A
:1019B00020473239205334205A00204A0020204743
:1019C000323920533320490020204D31343920430F
:1019D000203B20556E69747320696E2043656C73DB
:1019E0006975730A0054656D70657261747572650E
:1019F00020556E697473002020473231203B004C23
:101A0000696E65617220556E697473004545505268
:101A10004F4D206461746173697A65206572726FDD
:101A2000722E0A0053746F72656420736574746952
:101A30006E67732072657472696576656400290A41
:101A4000002062797465733B206372632000207309
:101A5000746F7265642073657474696E6773207245
:101A60006574726965766564202800454550524F5B
:101A70004D20435243204572726F720020286361EB
:101A80006C63756C6174656429210A0020213D2016
:101A900000454550524F4D20435243206D69736DB0
:101AA00061746368202D202873746F726564292027
:101AB000002053697A653A2000496E6465783A20BF
:101AC000000000FA430000FA430000F0410000C8A3
:101AD000410000A0420000A042000048430080B83E
:101AE0004328230000282300006400000010270082
:101AF00000454550524F4D2056657273696F6E20F8
:101B00004572726F7200204D61726C696E3D56387D
:101B100037290A00454550524F4D2076657273694A
:101B20006F6E206D69736D61746368202845455040
:101B3000524F4D3D0024F4D43050C38D20C3A241F8
:101B400017828B7011127A900D826CDA0AA861E10B
:101B500008C7586607615142061F4B5E05C145A67E
:101B6000041B411204093D9703723931034136DBEE
:101B70000266339202D4305302812E1D02642CEE91
:101B800001762AC501B128A101102781018F2564A2
:101B9000012B244A01E1223401AD2120018D200CCA
:101BA00001811FFC00851EED00981DDF00B91CD2CD
:101BB00000E71BC700201BBB00651AB200B319A9C0
:101BC000000A19A0006A189800D217920040178ADC
:101BD00000B616840032167E00B41579003B1574E9
:101BE00000C7146F0058146A00EE13660088136271
:101BF0000026135E00C8125B006D125700161255C6
:101C000000C111510070114E0022114C00D6104934
:101C1000008D1046004710450002104200C00F40E2
:101C200000800F3E00420F3C00060F3A00CC0E39F8
:101C300000930E37005C0E3500270E3400F30D3292
:101C400000C10D3100900D2F00610D2F00320D2DC0
:101C500000050D2C00D90C2A00AF0C2A00850C2899
:101C6000005D0C2800350C27000E0C2500E90B2523
:101C700000C40B2400A00B23007D0B22005B0B2172
:101C8000003A0B2100190B2000F90A1F00DA0A1F85
:101C900000BB0A1E009D0A1D00800A1C00640A1C6D
:101CA00000480A1C002C0A1B00110A1A00F7091A26
:101CB00000DD091900C4091900AB091800930918BF
:101CC000007B091700640917004D09170036091633
:101CD00000200915000B091500F6081500E108158C
:101CE00000CC081400B8081400A4081300910813CD
:101CF000007E0813006B08120059081200470812F2
:101D00000035081200230811001208110001081004
:101D100000F1071100E0071000D0071000C0070F06
:101D200000B1071000A1070F0092070F0083070FF3
:101D30000074070E0066070E0058070E004A070ED3
:101D4000003C070E002E070D0021070D0014070DA3
:101D50000007070D00FA060D00ED060C00E1060D68
:101D600000D4060C00C8060C00BC060C00B0060B24
:101D700000A5060C0099060B008E060B0083060BCF
:101D80000078060B006D060B0062060B0057060A72
:101D9000004D060A0043060B0038060A002E060A0C
:101DA00000240609001B060A0011060A000706099E
:101DB00000FE050A00F4050900EB050900E205092B
:101DC00000D9050900D0050900C7050800BF0509AD
:101DD00000B6050900AD050800A50508009D050829
:101DE00000950509008C050800840508007C05079E
:101DF00000750508006D050800650507005E05080B
:101E000000560507004F0508004705070040050775
:101E10000039050700320507002B050700240507D8
:101E2000001D050700160507000F05060009050738
:101E30000002050600FC040700F5040600EF040795
:101E400000E8040600E2040600DC040600D60406EE
:101E500000D0040700C9040500C4040600BE04063F
:101E600000B8040600B2040600AC040600A604058F
:101E700000A10406009B04050096040600900405DA
:101E8000008B04060085040500800405007B040522
:101E90000076040600700405006B04050066040566
:101EA00000610405005C04050057040500520405A8
:101EB000004D04050048040400440405003F0405E7
:101EC000003A04040036040500310405002C040423
:101ED0000028040500230404001F0405001A04045C
:101EE0000016040400120405000D04040009040493
:101EF000000504040001040500FC030400F80304C9
:101F000000F4030400F0030400EC030400E80304FD
:101F100000E4030400E0030400DC030400D803042D
:101F200000D4030300D1030400CD030400C903045B
:101F300000C50304000000000000000000000000D5
:101F400000000000000000000000000000D1036D50
:101F50006403570D0347C6023B8B023259022B2EF6
:101F60000225090221E8011CCC011AB201179B01CC
:101F70001487011374011163010F54010E46010D02
:101F800039010D2C010B21010A17010A0D01090469
:101F90000108FC0008F40007ED0007E60007DF0079
:101FA00006D90006D30005CE0006C80005C300040C
:101FB000BF0005BA0004B60004B20004AE0004AAD3
:101FC0000004A60003A300049F00039C00039900E3
:101FD000039600039300029100038E00028C00031D
:101FE0008900028700038400028200028000027ED2
:101FF00000027C00027A000278000276000175007F
:10200000027300027100017000026E00016D000297
:102010006B00016A0002680001670002650001644C
:1020200000016300016200026000015F00015E00C8
:10203000015D00015C00015B00015A0001590001D3
:10204000580001570001560001550001540001538A
:1020500000015200015100005100015000014F00E9
:10206000014E00014D00004D00014C00014B0001EC
:102070004A00004A000149000148000048000147A9
:1020800000014600004600014500004500014400F3
:1020900001430000430001420000420001410000F2
:1020A0004100014000004000013F00003F00013EB0
:1020B00000003E00013D00003D00013C00003C00EE
:1020C000013B00003B00013A00003A0001390000EA
:1020D00039000039000138000038000137000037AE
:1020E00000003700013600003600003600013500E0
:1020F00000350001340000340000340001330000DA
:1021000033000033000132000032000032000131A0
:1021100000003100003100003100013000003000CB
:10212000003000012F00002F00002F00002F0001C1
:102130002E00002E00002E00012D00002D00002D8D
:1021400000002D00012C00002C00002C00002C00B1
:10215000012B00002B00002B00002B00012A0000A7
:102160002A00002A00002A00002A00012900002974
:102170000000290000290001280000280000280094
:102180000028000028000127000027000027000089
:102190002700002700012600002600002600002658
:1021A0000000260000260001250000250000250073
:1021B0000025000025000025000124000024000067
:1021C0002400002400002400002400012300002338
:1021D0000000230000230000230000230001220050
:1021E0000022000022000022000022000022000045
:1021F0002200012100002100002100002100002117
:10220000000021000021000120000020000020002B
:10221000002000002000002000002000002000011D
:102220001F00001F00001F00001F00001F00001FF4
:1022300000001F000020436F756E7420583A0000A4
:10224000426564004531004500626564002C2073DE
:10225000797374656D2073746F70706564212048A4
:1022600065617465725F49443A20004572723A2094
:102270004D415854454D50004D415854454D502006
:102280007472696767657265640048656174696E38
:1022900067204661696C65640048656174696E67B2
:1022A000206661696C6564004D353234004D313112
:1022B000322053687574646F776E004572723A20ED
:1022C0004D494E54454D50004D494E54454D5020BA
:1022D00074726967676572656400544845524D4180
:1022E0004C2052554E4157415900546865726D61FA
:1022F0006C2052756E6177617900202800202F00D4
:102300002042403A0020403A0020573A0000002185
:1023100000240027002A002D0030003300010100B6
:1023200000040107010A017C3C3E5E2B3D3F2F5B10
:102330005D3B2C2A225C0043616E6E6F74206F70CF
:10234000656E2073756264697220004D6564696111
:1023500020496E6974204661696C005344206361B2
:102360007264206F6B0A006F70656E526F6F74201D
:102370006661696C65640A00766F6C756D652E69BF
:102380006E6974206661696C65640A004E6F205343
:102390004420636172640A005344206361726420C4
:1023A00072656C65617365640A000A4D3234004DD4
:1023B0003233202573002E0A006F70656E2066612F
:1023C000696C65642C2046696C653A200046696C2E
:1023D000652073656C65637465640A002053697ACF
:1023E000653A200046696C65206F70656E65643AD9
:1023F0002000454E4420535542524F5554494E45B6
:102400000A002220706F73002220706172656E7462
:102410003A2200535542524F5554494E45204341AC
:102420004C4C207461726765743A22005375626384
:10243000616C6C204F766572666C6F7700457863CF
:102440006565646564206D617820535542524F552F
:1024500054494E452064657074683A005772697437
:10246000696E6720746F2066696C653A20002E0AD9
:102470000044656C6574696F6E206661696C6564A3
:102480002C2046696C653A200046696C65206465BD
:102490006C657465643A004E6F742053442070720A
:1024A000696E74696E670A005344207072696E74B5
:1024B000696E6720627974652000667265736800D2
:1024C000646F696E67002066696C653A20004E6F24
:1024D0007720002F6175746F25632E6700434F4D81
:1024E0004D554E49434154494F4E0044525952555F
:1024F0004E004552524F525300494E464F004543FD
:10250000484F005046543A696F6572726F720A0004
:102510005046543A737563636573730A00505446AA
:102520003A696E76616C69640A005046543A737574
:1025300063636573730A005046543A696F6572723B
:102540006F720A005046543A696E76616C69640A8B
:10255000005046543A696E76616C69640A005046D0
:10256000543A6661696C0A005046543A7375636365
:102570006573730A005046543A627573790A002CE9
:10258000003A636F6D7072657373696F6E3A686558
:102590006174736872696E6B2C002E002E005046B9
:1025A000543A76657273696F6E3A00556E73757042
:1025B000706F727465642042696E61727920507226
:1025C0006F746F636F6C0A00556E6B6E6F776E2061
:1025D00042696E61727950726F746F636F6C436F92
:1025E0006E74726F6C205061636B65740A0066656F
:1025F000004461746173747265616D2074696D6506
:102600006F75740A00727300526573656E64207290
:1026100065717565737420006F6B00292070617996
:102620006C6F616420636F72727570740A00506120
:10263000636B657428004461746173747265616DC5
:10264000207061636B6574206461746120627566DB
:10265000666572206F76657272756E0A003F29207A
:10266000636F72727570740A005061636B657420D9
:102670006865616465722800446174617374726591
:10268000616D207061636B6574206F7574206F6677
:10269000206F726465720A006F6B002E002E002C92
:1026A000002C0073730053544F505045442E2000AB
:1026B0005072696E7465722073746F7070656420F7
:1026C00064756520746F206572726F72732E204678
:1026D000697820746865206572726F7220616E641B
:1026E00020757365204D39393920746F20726573F8
:1026F000746172742E202854656D706572617475F2
:1027000072652069732072657365742E2053657439
:1027100020697420616674657220726573746172D9
:1027200074696E67290A004E6F20436865636B7396
:10273000756D2077697468206C696E65206E756DA3
:102740006265722C204C617374204C696E653A206E
:10275000004E6F20436865636B73756D20776974F5
:1027600068206C696E65206E756D6265722C204CF8
:10277000617374204C696E653A2000636865636B11
:1027800073756D206D69736D617463682C204C6185
:102790007374204C696E653A20004C696E65204E5A
:1027A000756D626572206973206E6F74204C617361
:1027B00074204C696E65204E756D6265722B312CEC
:1027C000204C617374204C696E653A20004D3131A4
:1027D000300053657269616C207374617475732085
:1027E0006D69736D617463680A005344207265619A
:1027F00064206572726F720A00746F6F206D75636A
:102800006820696E6163746976652074696D6520FE
:102810002D2063757272656E7420636F6D6D616ECD
:10282000643A20002121204B494C4C206361757390
:10283000656420627920004D656469612052656D90
:102840006F76656400627573793A2070617573659F
:102850006420666F7220696E7075740A0062757309
:10286000793A2070617573656420666F72207573A4
:1028700065720A00627573793A2070726F636573CE
:1028800073696E670A00506C6561736520526573E9
:102890006574005052494E5445522048414C5445AD
:1028A000440025533A20255300706F7765726F6698
:1028B00066004B494C4C45442E20005072696E74A2
:1028C00065722068616C7465642E206B696C6C287D
:1028D000292063616C6C6564210A006563686F3A46
:1028E000004572726F723A004F4646004F4E000A22
:1028F0004D6561737572656420706F696E74733AAB
:102900000A00337833206D6573682E205A206F6675
:10291000667365743A20005072696E74696E672040
:102920004F626A656374002553202569002F2F616B
:102930006374696F6E3A007374617274006E6F74C1
:10294000696669636174696F6E2000656E64006218
:102950007574746F6E00486F74656E6420746F6F69
:1029600020636F6C640A0053656E64204D3130380B
:1029700020746F20726573756D650A00496E73650A
:1029800072742066696C616D656E7420616E64207E
:1029900073656E64204D3130380A00526568656198
:1029A0007420446F6E6500526568656174696E6776
:1029B0002E2E2E005265686561740048656174654D
:1029C000722054696D656F75740053656E64204D97
:1029D00031303820746F2068656174206E6F7A7AA8
:1029E0006C650A004E6F7A7A6C65205061726B6577
:1029F0006400706175736564005061757365007281
:102A00006573756D656400526573756D696E6700F9
:102A10004F46460A004661646520486569676874E8
:102A20002000426564204C6576656C696E67200005
:102A30004661696C656420746F20656E61626C65C7
:102A400020426564204C6576656C696E670A004DAE
:102A500065736820426564204C6576656C2064610E
:102A600074613A0A00496E76616C6964206D657321
:102A7000682E0A00206E6F7420656E74657265643E
:102A80002E0A0020440020204D32303020530020F8
:102A90002844697361626C6564293A0046696C6117
:102AA0006D656E742073657474696E6773002020A1
:102AB0004D3230312058004D617820416363656CA0
:102AC00065726174696F6E2028756E6974732F73F7
:102AD00032290020204D3230332058004D617820BB
:102AE0006665656472617465732028756E697473B8
:102AF0002F73290020520020204D32303420500006
:102B0000416363656C65726174696F6E2028756ED0
:102B10006974732F7332292028503C7072696E7467
:102B20002D616363656C3E20523C72657472616313
:102B3000742D616363656C3E20543C7472617665EC
:102B40006C2D616363656C3E2900205400205300A6
:102B500020204D323035204200416476616E63653D
:102B6000642028423C6D696E5F7365676D656E74A5
:102B70005F74696D655F75733E20533C6D696E5F70
:102B800066656564726174653E20543C6D696E5F74
:102B900074726176656C5F66656564726174653ECA
:102BA00020583C6D61785F6A65726B3E20593C6DC0
:102BB00061785F6A65726B3E205A3C6D61785F6A2E
:102BC00065726B3E20453C6D61785F6A65726B3E55
:102BD000290020440020490020204D33303120506E
:102BE00000486F74656E6420504944002044002002
:102BF000490020204D33303420500042656420507D
:102C000049440020204D39303720580053746570F6
:102C1000706572206D6F746F722063757272656E6D
:102C200074730020646174613A0020627974657382
:102C30003A003A2066726F6D3A006932632D726510
:102C4000706C79004261642069326320726571752D
:102C50006573740A00203B0020550020204D36305B
:102C600033204C0046696C616D656E74206C6F6139
:102C7000642F756E6C6F6164003B200020496E7696
:102C8000616C6964206578747275646572200053A4
:102C90006C6565702E2E2E0050726F62696E672013
:102CA000506F696E740025532025692F2569002017
:102CB0006F6620004D424C2047323920706F696E9C
:102CC000742000290A004A206F7574206F662072F4
:102CD000616E67652028302D00290A0049206F7534
:102CE00074206F662072616E67652028302D004D5C
:102CF0006573682070726F62696E6720646F6E65BD
:102D0000004D6573682070726F62696E6720646F32
:102D10006E652E0A005374617274206D65736820AD
:102D200070726F62696E672077697468202247321B
:102D300039205331222066697273742E0A0047329B
:102D400039533200686173206E6F20646174612EA4
:102D50000A004D65736820426564204C6576656C99
:102D6000696E67200053206F7574206F6620726152
:102D70006E67652028302D35292E0A004D65736851
:102D800020706F696E74206F7574206F6620726199
:102D90006E67650A004E6F204D6F76652E00456E9A
:102DA000642066696C65206C6973740A004265670B
:102DB000696E2066696C65206C6973740A004E6FD9
:102DC000206D656469610A00526573756D696E678F
:102DD00020534400286E6F2066696C652900437596
:102DE0007272656E742066696C653A20005377696B
:102DF000746368696E6720746F2042696E617279CE
:102E00002050726F746F636F6C0A0043616E6E6F57
:102E100074206F70656E207375626469722000257E
:102E200069730025696D202569730025696820256F
:102E3000696D20256973002569642025696820254E
:102E4000696D20256973002569792025696420252D
:102E500069682025696D20256973005072696E7458
:102E60002074696D653A20006F6B006F666600FE26
:102E700024F924F224EB24DD2444454255473A004A
:102E80004D313133205300556C74696D616B65723F
:102E900020322B204F46462E002F2F004D31343547
:102EA00020533C696E6465783E206F7574206F66B0
:102EB0002072616E67652028302D31290A00205864
:102EC0000020204D61783A2000200020204D696EBE
:102ED0003A2000203B200020204D32313120530089
:102EE000536F667420656E6473746F707300250A87
:102EF0000046523A0020466C6F773A20004D424C13
:102F00002041646A757374205A004261642049321A
:102F10004320616464726573732028382D31323721
:102F2000290A0064697300656E0043290A00616222
:102F30006C656420286D696E2074656D7020004397
:102F40006F6C642065787472756465732061726556
:102F500020004D65736820706F696E74206F757402
:102F6000206F662072616E67650A004D3432312031
:102F7000696E636F727265637420706172616D65F2
:102F80007465722075736167650A00454550524F3C
:102F90004D204F4B0A003F28422961756420726121
:102FA000746520696D706C61757369626C652E0A59
:102FB00000206261756420726174652073657420FD
:102FC000746F20002053657269616C20004F464683
:102FD0000A0043617365206C696768743A20004990
:102FE0006E76616C69642065787472756465720AC6
:102FF0000020204D323036205800486F6D65206F1C
:103000006666736574004F666673657473204170FD
:10301000706C696564004572723A20546F6F206667
:1030200061722100546F6F206661722066726F6D4D
:10303000207265666572656E636520706F696E7477
:103040000A004361703A00434F4E4649475F455876
:10305000504F5254004D4541545041434B00434F53
:103060004F4C45525F54454D504552415455524581
:10307000004348414D4245525F54454D50455241F1
:103080005455524500424142595354455050494EBF
:10309000470041524353004D4F54494F4E5F4D4FEF
:1030A00044455300544845524D414C5F50524F5493
:1030B000454354494F4E00455854454E4445445F9E
:1030C0004D323000435553544F4D5F4649524D5792
:1030D0004152455F55504C4F4144004C464E5F575E
:1030E00052495445004C4F4E475F46494C454E416E
:1030F0004D45004155544F5245504F52545F534433
:103100005F5354415455530053445F5752495445FB
:1031100000524550454154004D554C54495F564F5F
:103120004C554D45005344434152440050524F4D7D
:1031300050545F535550504F525400484F53545FB2
:10314000414354494F4E5F434F4D4D414E44530010
:10315000454D455247454E43595F504152534552A4
:1031600000434153455F4C494748545F42524947E9
:1031700048544E45535300544F47474C455F4C49C4
:103180004748545300534F4654574152455F504FA0
:10319000574552004255494C445F50455243454EB5
:1031A00054004C4556454C494E475F4441544100FC
:1031B0005A5F50524F42450052554E4F55540041B0
:1031C00055544F4C4556454C005052494E545F4A59
:1031D0004F420050524F4752455353004155544FB0
:1031E0005245504F52545F54454D50004155544F35
:1031F0005245504F52545F504F5300564F4C554D0F
:10320000455452494300454550524F4D0042494EA6
:103210004152595F46494C455F5452414E534645D1
:10322000520053455249414C5F584F4E5F584F46EC
:1032300046004649524D574152455F4E414D453A31
:103240004D61726C696E206275676669782D322EE9
:10325000312E7820284170722031342032303233C0
:103260002031333A34373A31362920534F555243BF
:10327000455F434F44455F55524C3A6769746875E2
:10328000622E636F6D2F556C74696D616B65722F63
:103290004D61726C696E2050524F544F434F4C5FDA
:1032A00056455253494F4E3A312E30204D414348F6
:1032B000494E455F545950453A556C74696D616B80
:1032C000657220322B2045585452554445525F4375
:1032D0004F554E543A3120555549443A636564651B
:1032E000326132662D343161322D343734382D3924
:1032F0006231322D63353563363266333637666672
:103300000070726F6D70745F00626567696E004D6A
:10331000302053746F70004D312053746F70004330
:103320006C69636B20746F20526573756D652E2E0A
:103330002E0020204D3235302043004C43442043A2
:103340006F6E74726173740047322F47332062616D
:103350006420706172616D65746572730A00504318
:103360000041425300504C4100FFE0FFD1AFFF321B
:10337000FFD0FFFEFFE0FFD1AEFFD0FFFEFFE0FF7A
:10338000D11000FFFEFFD0FFE0FFC1FFD1FD12AE64
:10339000D5A0A83F3D0040A1C8DA1281DFD982DB69
:1033A00034A4A6FFBFFF32AFFF32FFD0FFFE6D6136
:1033B000726C696E66772E6F7267006275676669F8
:1033C000782D322E312E78001FFFFFFFFFFFFF60A8
:1033D0000000000001FF400000000000FF8000002E
:1033E0000000007F83CF00000C303F87FF80000C7F
:1033F000301F867980000C000F8C30C7838C30E73B
:103400008C30CFC7CC31F38C30DCECEC33B98C3062
:10341000D86C6C33198C30D06C0C33198C30D86C60
:103420000C33198C30DC6C0E3B198C30CF7C079F31
:10343000198C30C77C038F19400000000000026027
:103440000000000000061FFFFFFFFFFFF800000064
:1034500000300E0100C00E0A00500F1400D00F1EE5
:103460000060102800E010320070113C00F011469E
:10347000007012500000135A008013640000146E94
:1034800000901478001015820090158C001016968C
:10349000009016A0001017AA009017B4001018BED4
:1034A000009018C8001019D2009019DC00101AE61C
:1034B00000801AF000001BFA00801B0401F01B0EB4
:1034C00001701C1801F01C2201601D2C01E01D364A
:1034D00001501E4001D01E4A01401F5401B01F5E22
:1034E0000130206801A020720110217C019021860A
:1034F00001002290016026F401902A5802802EBC1F
:103500000250322003E03584035039E803803C4CFC
:10351000042020506C616E6E65724275666665723D
:1035200042797465733A20002046726565204D65C6
:103530006D6F72793A200020436F6D70696C65641D
:103540003A2041707220313420323032330A002068
:103550004C61737420557064617465643A20323034
:1035600032332D30342D3031207C20417574686F1A
:10357000723A2028436F6F6C5A65726F4E4C2C2044
:1035800064656661756C7420636F6E666967290A8D
:10359000004D61726C696E206275676669782D32C4
:1035A0002E312E780A0020536F6674776172652081
:1035B00052657365740A00205761746368646F67AD
:1035C0002052657365740A002042726F776E206F17
:1035D00075742052657365740A00204578746572AD
:1035E0006E616C2052657365740A00506F77657266
:1035F00055700A0073746172740A004739322045AD
:10360000300A473120452D330A4732385859004D8A
:1036100031303031006572726F722077726974696F
:103620006E6720746F2066696C650A00446F6E6572
:1036300020736176696E672066696C652E0A004D9D
:10364000323900456E6473746F7073002553202502
:103650006320256320256320256300205A3A00203B
:10366000593A0020583A00656E6473746F70732085
:103670006869743A200000002200250028002B0011
:103680002E003100340002010000050108010B0189
:1036900005050505070508080808020202020A0ACE
:1036A00008080404040401010101010101010303EC
:1036B000030303030303040707070C0C0C0C0C0C97
:1036C0000C0C0202020206060606060606060B0B94
:1036D0000B0B0B0B0B0B07070A0A0A0A0A0A050554
:1036E00005040404080801021020200808102040E6
:1036F00010204080020102010804020101020408B6
:103700001020408080402010080402018004020143
:10371000804020100804020108040201010204088C
:103720001020408001020408102040801008040886
:1037300080102040044080102040048000000A0BCC
:1037400002090C0D0E080703040100000000000030
:103750000000000000000000000000000000000069
:103760000000000000000000121110000000000026
:103770000000000000000000000000000000000049
:103780000000000000000000000000000000000039
:1037900000004D6F766520246D6D00302E3032357F
:1037A000004D6F766520302E316D6D004D6F766562
:1037B00020316D6D004D6F76652031306D6D004D9F
:1037C0006F76652041786973004D6F7665202A0019
:1037D0004D6F7665204000653361335E3343686129
:1037E0006E67652046696C616D656E7400556E6C20
:1037F0006F61642046696C616D656E74004C6F6129
:10380000642046696C616D656E7400507265686510
:10381000617420437573746F6D00507265686561E3
:10382000742024004261636B0020005072696E7442
:103830002066726F6D204D65646961002000200074
:103840004572726F722077726974696E6720746F47
:1038500020454550524F4D210A0020746F6F206C57
:103860006F6E6720657874727573696F6E20707201
:103870006576656E7465640A0020636F6C6420650C
:103880007874727573696F6E2070726576656E7488
:1038900065640A0073686F7700626567696E00503F
:1038A000757267654D6F7265005061757365640070
:1038B000436F6E74696E7565004C6F616420466974
:1038C0006C616D656E74205400496E73657274206E
:1038D00066696C616D656E7420616E642073656EDF
:1038E00064204D3130380A00486F6D696E6720469C
:1038F00061696C656400FF0101204500205A0020C9
:10390000590020204D3932205800537465707320BF
:1039100070657220756E697400220A00556E6B6EB8
:103920006F776E20636F6D6D616E643A20220020A8
:1039300042002050006F6B00486F6D65202573209A
:103940004669727374006F6B0A00526573656E642A
:103950003A200020453A00205A3A0020593A0058AF
:103960003A00556C74696D616B657220322B205280
:10397000656164792E005072696E74696E672E2ECF
:103980002E005072696E742050617573656400007A
:10399000A200AA0011241FBECFEFD1E2DEBFCDBF2F
:1039A00000E00CBF84B78093E31F14BE0FB6F894F9
:1039B000A8958091600088618093600010926000FB
:1039C0000FBE14E0A0E0B2E0EAE7F1EA02E00BBFCC
:1039D00002C007900D92AC30B107D9F72FE1ACE0EF
:1039E000B4E001C01D92A33EB207E1F71CE1C9ECAF
:1039F000DCE100E006C021970109802FFE010F9451
:103A0000634DC83CD10780E00807A9F70F94723FC7
:103A10000D94AC500C94000080914A1F8823F1F063
:103A20002FEF3FEF30934D0220934C028150809353
:103A30004A1FE8ECFCE1882351F08150990B2BE1FF
:103A4000289FF001299FF00D1124E45CF14E8BE1D9
:103A5000ADEABCE101900D928A95E1F720914A1FF1
:103A6000211105C08091551F80648093551F81E00E
:103A700090E0A0E0B0E0211103C080E090E0DC0124
:103A80008093D90A9093DA0AA093DB0AB093DC0AF8
:103A90001092DE0A81E08093D70A83E08093670268
:103AA000089581E08093E210089582E08093E2100F
:103AB0000895CF93DF93EC01CB01BA010F94F24844
:103AC00029EC38EC48EC5EE30F944E4E20E030E0F9
:103AD00040E05FE30F94724D0F94BB4E6883DF911B
:103AE000CF91089580913E020C94B133E091E90AA0
:103AF00086E0E802F0011124E254F54F80914B0575
:103B000090E09583848308958F929F92AF92BF92A5
:103B1000CF92DF92EF92FF92CF936B017C0120E076
:103B200030E0A9010F94EC4887FFA3C06DEB77E369
:103B300086E095EBA70196010F94724D6B017C0115
:103B400020E030E040E251E40F94514920E030E0C1
:103B500048EC52E40F9451494B015C0120E030E005
:103B600040E251ECC701B6010F94EC48181654F42A
:103B700020E030E048EC52E4C701B6010F94984FC2
:103B800087FD8BC020E030E0A901C701B6010F948A
:103B9000EC4887FF73C060E070E080EA90ECA5011C
:103BA00094010F94724D20E030E040E251E40F9414
:103BB0004E4E0F94B64E6B017C01F7FC64C020E1C1
:103BC00037E240E050E00F94E84CCA01B9012AE026
:103BD00030E040E050E00F94E84C605D60935105A8
:103BE000C701B60128EE33E040E050E00F94E84C06
:103BF0009AE0892E912CA12CB12CCA01B901A50102
:103C000094010F94E84C605D60935205C701B601C2
:103C100024E630E040E050E00F94E84CCA01B901DE
:103C2000A50194010F94E84C605D609353058EE20A
:103C300080935405C701B601A50194010F94E84C87
:103C4000C62FCA01B901A50194010F94E84C605D2B
:103C500060935505C05DC093560581E595E0CF9111
:103C6000FF90EF90DF90CF90BF90AF909F908F909C
:103C700008956DEB77E386E095E35CCF60E070E05C
:103C800080EA90E48CCFF094E094D094C094C11C6E
:103C9000D11CE11CF11C6DE2A1CF20E030E0A901B4
:103CA000C701B6010F94EC4887FF6AC060E070E07E
:103CB00080EA90ECA50194010F94724D20E030E071
:103CC00040E251E40F944E4E0F94B64E4B015C010E
:103CD00020E030E0A901C701B6010F94984F87FD9D
:103CE0000BC020E030E040E251E4C701B6010F9480
:103CF000EC4860E287FD13C0B7FC47C0C501B401C2
:103D000028EE33E040E050E00F94E84CCA01B901DE
:103D10002AE030E040E050E00F94E84C605D6093B2
:103D20005205C501B40124E630E040E050E00F94B4
:103D3000E84C8AE0C82ED12CE12CF12CCA01B90143
:103D4000A70196010F94E84C605D609353058EE2E5
:103D500080935405C501B401A70196010F94E84C66
:103D6000C62FCA01B901A70196010F94E84C605D06
:103D700060935505C05DC093560582E595E06FCF11
:103D800060E070E080EA90E495CFB094A0949094C5
:103D90008094811C911CA11CB11C6DE2C0CFCF93FB
:103DA000DF93EC01CB01BA010F94F2480F94BB4EA4
:103DB0006883DF91CF9108958F929F92AF92BF92C7
:103DC000CF92DF92EF92FF92CF936B017C0120E0C4
:103DD00030E0A9010F94EC4887FDD6C06DEB77E386
:103DE00086E095E3A70196010F94724D6B017C016B
:103DF00020E030E0A9010F94EC4887FFCAC0C7015A
:103E0000B601905820E030E040E251E40F9451496F
:103E100020E030E048EC52E40F94514920E030E0DB
:103E200040EA50E40F94724D20E030E040E251E46B
:103E30000F944E4E0F94B64E6B017C0160E280E40D
:103E4000C81682E4D8068FE0E806F1048CF0C701BA
:103E5000B60120E432E44FE050E00F94E84CCA0190
:103E6000B9012AE030E040E050E00F94E84C605D9A
:103E700060934F0560E280EAC81686E8D80681E0C4
:103E8000E806F1048CF0C701B60120EA36E841E00B
:103E900050E00F94E84CCA01B9012AE030E040E05C
:103EA00050E00F94E84C605D6093500560E280E163
:103EB000C81687E2D806E104F1048CF0C701B60108
:103EC00020E137E240E050E00F94E84CCA01B9012C
:103ED0002AE030E040E050E00F94E84C605D6093F1
:103EE000510560E288EEC81683E0D806E104F104CB
:103EF0008CF0C701B60128EE33E040E050E00F94AB
:103F0000E84CCA01B9012AE030E040E050E00F94EB
:103F1000E84C605D60935205C701B60124E630E0CD
:103F200040E050E00F94E84C8AE0882E912CA12CC0
:103F3000B12CCA01B901A50194010F94E84C605D50
:103F4000609353058EE280935405C701B601A50125
:103F500094010F94E84CC62FCA01B901A501940140
:103F60000F94E84C605D60935505C05DC0935605A5
:103F70008FE495E0CF91FF90EF90DF90CF90BF90CE
:103F8000AF909F908F9008956DEB77E386E095EB6F
:103F900029CF20E030E040E251E4C701B60136CF3E
:103FA000CF93DF93EC01CB01BA010F94F24820E0EC
:103FB00030E048EC52E40F944E4E688379838A8354
:103FC0009B83DF91CF910895CF93DF93EC01CB01D9
:103FD000BA010F94F24820E030E048EC52E40F942C
:103FE0004E4E688379838A839B83DF91CF910895B6
:103FF0000F94F24820E030E048EC52E40F944E4E2B
:10400000DBCECF93DF93EC01CB01BA010F94F248E2
:10401000688379838A839B83DF91CF910895CF93BF
:10402000DF93EC01CB01BA010F94F24868837983E6
:104030008A839B83DF91CF910895CF93DF93EC0127
:10404000CB01BA010F94F24820E030E048EC52E492
:104050000F944E4E688379838A839B83DF91CF913F
:104060000895CF93DF93EC01CB01BA010F94F2488E
:104070002AE037ED43E25DE30F944E4E0F94BB4EC2
:10408000688379838A839B83DF91CF910895CF934F
:10409000DF93EC01CB01BA010F94F2482AE037ED2F
:1040A00043E25DE30F944E4E688379838A839B835A
:1040B000DF91CF910895CF93DF93EC01CB01BA014B
:1040C0000F94F248688379838A839B83DF91CF9131
:1040D00008950F94F24820E030E048EC52E40F9449
:1040E0004E4E12CDCF93DF93EC01CB01BA010F946A
:1040F000F2480F94B64E79836883DF91CF9108958B
:10410000CF93DF93EC01CB01BA010F94F24820E08A
:1041100030E04AE754E40F944E4E688379838A83F3
:104120009B83DF91CF910895CF93DF93EC01CB0177
:10413000BA010F94F2482AE037ED43E25CE30F94B2
:104140004E4E0F94BB4E688379838A839B83DF91A5
:10415000CF910895FC0184910895FC018081089518
:10416000FC01A081B1811C92A281B3818C918F5FEF
:104170008C930280F381E02D90818CE0989F800DDC
:104180001124E8E8FDE113AE84AF089590E080E0EB
:104190000895CF93DF93C091FD1CD091FE1C81E068
:1041A000CE31D105E4F020E030E040E05FE3609103
:1041B000F91C7091FA1C8091FB1C9091FC1C0F94CF
:1041C000724D0F94B64E6C1B7D0B77FF03C071953B
:1041D0006195710981E0633071050CF080E0DF9139
:1041E000CF910895CF93DF93C0911804D091190413
:1041F000DF77209759F58091551F83FD2BC00E94D2
:104200009CCE882319F180914D1F90914E1FA09153
:104210004F1FB091501F0097A105B105B9F0BC0127
:10422000CD01615F784D8F4F9F4F20E137E240E035
:1042300050E00F94C64C6091511F7091521F8091B5
:10424000531F9091541F0F94C64CE901CE01DF918A
:10425000CF910895C0E1D7E2F9CF0F94F2480F94BF
:10426000BB4E862F0C94B5B70F94F81C1092E31038
:10427000109265020E94AACE882331F083EE96E068
:1042800090937C0A80937B0A61E08CED96E00E941B
:104290006CD20C9447B30F94F24829EC38EC48ECFC
:1042A0005EE30F944E4E20E030E040E05FE30F9479
:1042B000724D0F94BB4E862F0C94D7B781E00C94AF
:1042C000DDCCCF93DF9300D0CDB7DEB78FEF8983FE
:1042D0008A838B83CE0101960E948FCB0F900F9023
:1042E0000F90DF91CF910895CF93DF9300D0CDB79A
:1042F000DEB78FEF89831A821B82CE0101960E945E
:104300008FCB0F900F900F90DF91CF910895CF93A7
:10431000DF9300D0CDB7DEB78FEF898380E58A8346
:104320001B82CE0101960E948FCB0F900F900F90B1
:10433000DF91CF910895CF93DF9300D0CDB7DEB753
:104340008FEF89838A831B82CE0101960E948FCBD7
:104350000F900F900F90DF91CF910895CF93DF933F
:1043600000D0CDB7DEB719828FEF8A831B82CE01D2
:1043700001960E948FCB0F900F900F90DF91CF91FD
:104380000895CF93DF9300D0CDB7DEB719821A829C
:104390008FEF8B83CE0101960E948FCB0F900F90F1
:1043A0000F90DF91CF910895CF93DF9300D0CDB7D9
:1043B000DEB719828FEF8A838B83CE0101960E942C
:1043C0008FCB0F900F900F90DF91CF910895CF93E7
:1043D000DF9300D0CDB7DEB78FEF89831A828B834E
:1043E000CE0101960E948FCB0F900F900F90DF911E
:1043F000CF910895CF92DF92EF92FF926B017C01F3
:1044000020E030E0A9010F94EC4887FD26C06DEB59
:1044100077E386E095E3A70196010F94724D6B0157
:104420007C0120E030E0A9010F94EC4820E030E06E
:1044300040E05FE387FF04C020E030E040E05FEB56
:10444000C701B6010F94724D0F94B64ECB01FF9089
:10445000EF90DF90CF900C9480B76DEB77E386E020
:1044600095EBD9CF0F94F248C5CF0F94F2480F9433
:10447000B64ECB010C9480B784E00D947C3283E07F
:104480000D947C3282E00D947C326AEA7AE084E614
:1044900090E00C94D1BF63E972E084E690E00E9462
:1044A000D1BF70E060E08AE090E00E94D1BF6AEB8B
:1044B00072E084E690E00C94D1BF8111ECCF68E209
:1044C00070E080E991E00C94D1BF0E94CF95F5CFC8
:1044D0000E94EFB2F2CF0E9423B1DDCF9091E8109D
:1044E00081E089270C942DCDCF93DF9300D000D0AD
:1044F0001F921F92CDB7DEB788E0ECE7F2E0DE0155
:10450000119601900D928A95E1F7809142058330D2
:1045100014F010924205E0914205E7FD05C0E2303B
:10452000D4F1E23009F459C080E090E0A0E8B0E4B2
:104530008093740290937502A0937602B0937702F1
:104540008EED92E00E9415AA2AEB32E044E752E099
:10455000BE016B5F7F4FCE0101960E943CAA109274
:1045600074021092750210927602109277028EED0C
:1045700092E00E9415AA809142058F5F8330F4F586
:104580008093420528960FB6F894DEBF0FBECDBFCC
:10459000DF91CF910895EE0FFF0BEE52FD4F80811A
:1045A00091818330910579F084309105F1F0029783
:1045B00009F0BACF80E090E0A1E4B3E489839A8364
:1045C000AB83BC83B1CF88E0EAECF2E0DE01119668
:1045D00001900D928A95E1F7A7CF80E090E0AFEDD2
:1045E000B2E489839A83AB83BC8380E090E0A1E44A
:1045F000B3E48D839E83AF83B88796CF1092420534
:10460000C1CF61E08BE495E00C9446CD0F94242C4F
:104610000C943EABCF93DF9300D01F92CDB7DEB7A3
:104620000F94BB4E0F94F04869837A838B839C83ED
:10463000CE0101960E9450B40F900F900F900F90F2
:10464000DF91CF9108950F94F2482AE037ED43E2CD
:104650005DE30F944E4EDECF0F94F2482AE037ED23
:1046600043E25CE30F944E4ED5CFCF92DF92EF92B0
:10467000FF92CF93DF9300D01F92CDB7DEB76B01CF
:104680007C0120E030E0A9010F94EC4887FD1BC0BD
:104690006DEB77E386E095E3A70196010F94724DE9
:1046A00069837A838B839C83CE0101960E9450B4E8
:1046B0000F900F900F900F90DF91CF91FF90EF90A0
:1046C000DF90CF9008956DEB77E386E095EBE4CF34
:1046D0000F94F2482AE037ED43E25DE30F944E4E2B
:1046E000C4CF0F94F248C1CFCF92DF92EF92FF92E6
:1046F000CF93DF9300D01F92CDB7DEB76B017C0163
:1047000020E030E0A9010F94EC4887FD1BC06DEB61
:1047100077E386E095E3A70196010F94724D6983D4
:104720007A838B839C83CE0101960E945DB60F90A5
:104730000F900F900F90DF91CF91FF90EF90DF904F
:10474000CF9008956DEB77E386E095EBE4CF0F947F
:10475000F248CACFCF92DF92EF92FF92CF93DF93CE
:1047600000D01F92CDB7DEB70F94F24820E030E0C2
:1047700048EC52E40F944E4E6B017C0120E030E097
:10478000A9010F94EC482DEB37E346E055E387FF92
:1047900004C02DEB37E346E055EBC701B6010F949B
:1047A000724D69837A838B839C83CE0101960E942C
:1047B000ABB30F900F900F900F90DF91CF91FF90C0
:1047C000EF90DF90CF9008950F94F24820E030E012
:1047D0004AE754E40F944E4E0C9447C00C94A799AA
:1047E0000C94A7990C9459990C9459990C94599933
:1047F0000C945999CF92DF92EF92FF920F931F93EF
:104800000F94C2360091AA041091AB042091AC041D
:104810003091AD046B017C01C01AD10AE20AF30A9F
:104820009701860137FD11C02091A904209520939E
:10483000A9046A547C4F8F4F9F4F6093AA047093D2
:10484000AB048093AC049093AD0481E09091A904F3
:10485000911101C080E01F910F91FF90EF90DF90C8
:10486000CF900895CF93DF93C091FD1CD091FE1C93
:10487000209729F16091F91C7091FA1C8091FB1C22
:104880009091FC1C0F94B64E6E5F7F4F24976C176F
:104890007D07ACF47093D1056093D0050F94C236B8
:1048A000605A75418F4F9F4F6093D2057093D30527
:1048B0008093D4059093D505DF91CF910895109200
:1048C000D2051092D3051092D4051092D505F4CFDD
:1048D000EF92FF920F931F93CF93DF93EC018B0125
:1048E0007A018A859B858617970731F0888199819F
:1048F0000F9490391B870A87B701888199810F949B
:10490000B82F2E813F81820F932F911D9F838E831D
:1049100090E080E0DF91CF911F910F91FF90EF9099
:1049200008959F92AF92BF92CF92DF92EF92FF9243
:104930000F931F93CF93DF93EC018B01942EA52E41
:104940008A859B858617970731F0888199810F9416
:1049500090391B870A8788859985019649F5BC801F
:104960000A818E81080FC880D980D6015596ED91B5
:10497000FC91C6011995B80EE92CFA2C10E0F7014C
:1049800021917F01211127C08E819F81810F911D6F
:104990009F838E8390E080E0DF91CF911F910F91F4
:1049A000FF90EF90DF90CF90BF90AF909F900895D1
:1049B0000E811F81692D7A2D888199810F94B82FDE
:1049C000800F912F911D288539852817390738F6D2
:1049D00081E090E0E1CF4B2D602FC6010F94E839C4
:1049E000080F180FCCCFDF92EF92FF920F931F9317
:1049F000CF93DF93EC01D62E1CAD0BAD7C0184E090
:104A0000E80EF11CE98DFA8DC7011995412F480F69
:104A10002D2D602FC7010F94E8399BAD890F8BAF07
:104A200081E090E0DF91CF911F910F91FF90EF9087
:104A3000DF900895CF92DF92EF92FF920E94FAB238
:104A40006B017C01CFDBFC0120E030E0A901009785
:104A500069F0A0E1B7E2A81BB90BA70196010F947A
:104A6000044D9F0150E040E00F94C64CCA01B901CB
:104A7000FF90EF90DF90CF9008951F93CF93DF9337
:104A8000C091C104D091C204209709F447C04CE002
:104A900050E060E270E081EB94E00F945850EFEF4B
:104AA000F3E0C03187E2D80778F5CE0164E670E024
:104AB0000F943C4D362F172FEAE0F0E0CE01BF01F6
:104AC0000F943C4D482FCB01BF010F943C4D20E388
:104AD000280FC83E83E0D80728F1CE0168EE73E0C6
:104AE0000F943C4D605D60935305832F912FBF0160
:104AF0000F943C4D805D809354058EE28093550564
:104B000020935605E3E5F5E084E0A5EBB4E00190E1
:104B10000D928A95E1F785E28093B904DF91CF91F8
:104B20001F910895305D309353058EE280935405B4
:104B300020935505405D40935605E4CF2F923F9258
:104B40004F925F926F927F928F929F92AF92BF929D
:104B5000CF92DF92EF92FF920F931F93CF93DF9349
:104B6000CDB7DEB72D970FB6F894DEBF0FBECDBF21
:104B70008C01F62E45E050E060E270E083EB94E0BB
:104B80000F945850F092B1048AE38093B204F80174
:104B900080809180A280B380C501B40120E13EE015
:104BA00040E050E00F94C64CD22EC32E022F132F9C
:104BB0008CE3282E312C412C512CC501B401A201CB
:104BC00091010F94C64C762E672ECA01B901A2013D
:104BD00091010F94C64C9E012F5F3F4F790130E841
:104BE000831631E5930631E0A306B10408F447C00B
:104BF0007F936F93C80168E170E00F943C4D9F93E1
:104C00008F93C501B40120E831E541E050E00F94F5
:104C1000C64C3F932F9384E095E09F938F93FF9230
:104C2000EF920F948548C7010F943B480FB6F89454
:104C3000DEBF0FBECDBF2CE030E0A901481B5109FB
:104C4000CA01B7018F549B4F0F947D502D960FB61C
:104C5000F894DEBF0FBECDBFDF91CF911F910F91B2
:104C6000FF90EF90DF90CF90BF90AF909F908F908C
:104C70007F906F905F904F903F902F900895011517
:104C8000110599F46F927F927F936F9388EF94E070
:104C90009F938F93FF92EF920F9485480FB6F894ED
:104CA000DEBF0FBECDBF85E0C6CF0436110538F498
:104CB0007F936F93CF92DF928CEE94E0E9CF7F9356
:104CC0006F93CF92DF9282EE94E09F938F93FF9247
:104CD000EF920F9485480FB6F894DEBF0FBECDBF9C
:104CE00086E0A9CFCF93DF9300D01F92CDB7DEB778
:104CF0000E9478CE882351F00E94FAB269837A83A9
:104D00008B839C8365E4CE01019618DF0F900F9092
:104D10000F900F90DF91CF910895CF93DF9300D044
:104D20001F92CDB7DEB70E9478CE8823D9F060916C
:104D30001004709111048091120490911304611574
:104D400071058105910531F475DE672B682B692BA0
:104D500049F070DE69837A838B839C8362E5CE01A0
:104D60000196ECDE0F900F900F900F90DF91CF9196
:104D70000895CF92DF92EF92FF920F931F93CF93FC
:104D8000DF93CDB7DEB72C970FB6F894DEBF0FBE1A
:104D9000CDBFF090C31DE090C41D2091A804211147
:104DA0001DC048E954E06E2D8F2D0F94533A90E0CA
:104DB00080E0F80EF092C31DE092C41D99272C9656
:104DC0000FB6F894DEBF0FBECDBFDF91CF911F911C
:104DD0000F91FF90EF90DF90CF900895C090901DBD
:104DE000D090911D2CE83DE13A8329832F2D30E0AE
:104DF0003C832B832E2D30E03E832D8318861F822B
:104E00007A8769871C861B8601E914E29E012F5F61
:104E10003F4F4AEA50E2BC01C6010F94921CB60112
:104E20008CE89DE10F9490398F819885C2CFEF92E5
:104E3000FF920F931F93CF93DF9300D000D000D049
:104E40001F921F92CDB7DEB77C012091DF0A422F5F
:104E5000022E000C550B8091E00A833099F18430CA
:104E600051F180E69AE05F932F939F938F938E0189
:104E70000F5F1F4F1F930F930F948548C7010E9428
:104E800037C04FE350E0B8018DE79AE00F9492509D
:104E90000F900F900F900F900F900F902B960FB6D2
:104EA000F894DEBF0FBECDBFDF91CF911F910F9160
:104EB000FF90EF9008958CE69AE027FDD4CF87E528
:104EC0009AE0D1CF85E79AE0CECF8091291D9091CD
:104ED0002A1DADCFE091E90A86E0E802F001112435
:104EE000E254F54F80819181A2CF8091291D90914C
:104EF0002A1D0C947ACBCF93DF93CDB7DEB720E297
:104F0000488559856F818E810F94ED2EDF91CF9169
:104F10000895282F1092E50A8091D90A9091DA0A13
:104F2000A091DB0AB091DC0AB7FF08C01092D90A41
:104F30001092DA0A1092DB0A1092DC0A809147057F
:104F4000882331F08091D90A8093DD0A1092D70A24
:104F50008091D60A1816FCF4082E000C990B821BBF
:104F600091092091DD0A022E000C330B2817390716
:104F700094F097FF02C090E080E08093DD0A092E54
:104F8000000CAA0BBB0B8093D90A9093DA0AA0936A
:104F9000DB0AB093DC0A8091DD0A6623A9F09091C8
:104FA000DE0A891714F48093DE0A2091DE0A022EAD
:104FB000000C330B2C5F3F4F482F082E000C550B75
:104FC000241735071CF484508093DE0A08950F934C
:104FD0001F93522F2091861D3091871D2817390766
:104FE00081F110922304209118043091190437FFA5
:104FF00004C010921904109218049093871D809396
:10500000861D8B0130E020E00093D90A1093DA0A64
:105010002093DB0A3093DC0A4093DE0A5093D60AD1
:10502000815F934421F410924A051092220482E099
:105030008093670281E08093D70A10924405109212
:1050400041051F910F910895CF93C1E0C0934A0588
:10505000FC0180819181A281B3818093120290939F
:105060001302A0931402B093150220E040E070E018
:1050700060E08091D40A9091D50AA9DFC0932304FF
:10508000CF9108958FEF80934B0520E040E070E0D2
:1050900060E08DE59BE29BCF81E080934A05109212
:1050A0006C0A1092580587E894E190937C0A8093EB
:1050B0007B0A20E040E070E060E088E492E487CF83
:1050C0008091580587708730A1F48091E810809313
:1050D000430580E00E942DCD1092420520E040E083
:1050E00070E060E080E598E372DF81E08093410545
:1050F000FBC9089581E080934A0510926C0A1092D2
:10510000580520E040E070E060E08FE292E45FDF6D
:1051100087E894E190937C0A80937B0A089520E0CD
:1051200040E070E060E08EE79DE451DF81E0809335
:105130001A0480913E05811107C089ED98E0909393
:105140007C0A80937B0A08958FED98E0F8CF20E0E9
:1051500040E070E060E081EF93E439CF87E79BE1C6
:105160000E944E82F4DF0D94F81CF1DF61E082EDC5
:105170009DE00C946CD26111609311024093200465
:105180008C3008F039C0E82F880FFF0B8827E453D4
:10519000F74D8F4F0D94634DFD28D828E228002944
:1051A000E528E828EB28F728EE28FC28F128F42841
:1051B00086ED93E421E020934A0520E040E070E092
:1051C00060E005CF8CED93E4F5CF8FED93E4F2CF63
:1051D00082EE93E4EFCF85EE93E4ECCF88EE93E498
:1051E000E9CF8BEE93E4E6CF8EEE93E4E3CF10921B
:1051F000E2108BE891E4DECFAACF83ED93E4DACF1F
:1052000089ED93E4D7CFCF930E9423B10E94CF952D
:10521000C82F882319F080E00E94D1948C2F4DD99B
:10522000CF9195CF84E298E090937C0A80937B0A9B
:105230008ECFCF93DF93E0912204EE2329F1E1504A
:10524000E0932204AE2FB0E099E0E99FF001112431
:10525000E950FB4F278140E070E060E0811103C01E
:1052600046816281738189E08A9FE0018B9FD00D26
:105270001124C950DB4F88819981A9DE88858093EC
:105280004A05DF91CF910895DF91CF9160CF809152
:10529000E90A803210F40E94F1CCFDD880E0C9CF39
:1052A00081E0C7CFEF92FF920F931F93CF93DF93CD
:1052B00061E081E02EDEC091DE0A85E0F82EFC0E72
:1052C000D3E0DC1B12E01C1B01E00C1BEC2EE19474
:1052D000C1112CC08091DD0A8823B1F08091670252
:1052E000882359F081E09091DD0A911180E024E05B
:1052F00046EF5CE06E2D0F94ED2ECF5FFC12E8CFF1
:1053000084E08093D60A0BC08091D80A1092D80A04
:10531000882321F3C5DF8091D70A8823F9F2DF9132
:10532000CF911F910F91FF90EF900895C13011F52B
:105330008091DD0A813079F0809167028823E9F25B
:1053400081E09091DD0A913009F080E023E049EEA0
:105350005CE0602FD0CF8091D80A1092D80A8823C1
:1053600059F381E89FE30E947BC08091D70A88238C
:1053700019F3D5CFC23091F58091DD0A823081F0EA
:1053800080916702882309F4B8CF81E09091DD0A0B
:10539000923009F080E023E04EED5CE0612FABCF6E
:1053A0008091D80A1092D80A882351F38EE190E4B4
:1053B0000E947BC08091D70A882311F3B0CF8091DF
:1053C000D80A1092D80A882381F083EB90E40E94D7
:1053D0007BC08091D70A882341F0A1CFC33009F068
:1053E0008CCF8091DD0A833051F38091670288234E
:1053F00009F483CF81E09091DD0A933009F080E0D9
:1054000023E042ED5CE06D2F76CF7F928F929F92EA
:10541000AF92BF92CF92DF92EF92FF920F931F93C2
:10542000CF93DF930E94B5CE882309F45CC081E05E
:1054300080934B050E9492CE982E61E081E069DD59
:10544000C091DE0A85E0882E8C0E7C2E71949EE73A
:10545000E92E9AE0F92ED3E0DC1B23E8C22E2AE0E5
:10546000D22E12E01C1B38E8A32E3AE0B32E01E046
:105470000C1BC11113C08091DD0A8823B1F180910A
:105480006702882359F081E09091DD0A911180E054
:1054900024E040E95AE0672D0F94ED2E26DD8823A5
:1054A00009F44DC0C13009F0E6C08091DD0A8130B9
:1054B000B1F180916702882361F081E09091DD0A6B
:1054C000913009F080E023E04DED57E3602F0F9419
:1054D000ED2E992009F4E8C082E0CF5F8C12C9CF8D
:1054E0008093D60A0EC082E0A3CF8091D80A109292
:1054F000D80A882321F2D4DE8091D70A882309F4C0
:10550000BECFDF91CF911F910F91FF90EF90DF9071
:10551000CF90BF90AF909F908F907F900895809193
:10552000D80A1092D80A882321F282E492E20E94DB
:105530007BC08091D70A882309F4BBCFE2CFC1306A
:1055400009F086C09091DD0A913059F08091670290
:10555000882309F4BECF81E0913009F080E020E299
:10556000B3CF8091D80A1092D80A882379F3B092E9
:105570007C0AA0927B0A8091D70A882339F3C1CF95
:105580008091D80A1092D80A882309F47DC08FE34D
:1055900092E20E947BC08091D70A882309F474C0EC
:1055A000B0CF8091D80A1092D80A882309F459C044
:1055B000D0927C0AC0927B0A8091D70A882309F492
:1055C00050C09FCF8091DD0A833091F080916702B7
:1055D000882309F470C081E09091DD0A933009F0CE
:1055E00080E023E04DEE57E36D2F0F94ED2E63C066
:1055F0008091D80A1092D80A882341F38CE392E272
:105600000E947BC08091D70A882301F37ACFC330F0
:1056100009F051C09091DD0A933059F080916702F2
:10562000882309F448C081E0933009F080E020E24B
:10563000D9CF8091D80A1092D80A882379F3F092B2
:105640007C0AE0927B0A8091D70A882339F359CFEC
:10565000911042CFC23041F59091DD0A923009F4A9
:10566000A0CF809167028823F9F081E0923009F0A1
:1056700080E020E214C091102FCFC230A9F48091B5
:10568000DD0A823009F47CCF80916702882361F0C3
:1056900081E09091DD0A923009F080E023E04DEF47
:1056A00057E3612F0F94ED2E20DC882309F4AFCF50
:1056B000C33009F487CF84E010CFAF92BF92CF926E
:1056C000DF92EF92FF920F931F93CF93DF9300919E
:1056D000100261E081E01DDCC091DE0ACC2E85E085
:1056E000D82EDC0EBC2EB194EE24E394F12CC11123
:1056F00014C08091DD0A882309F45DC0809167029F
:10570000882359F081E09091DD0A911180E024E036
:1057100041EC59E06B2D0F94ED2E1FEFD1E0AC2E34
:10572000AC1880911F0418170CF06EC0011709F413
:1057300040C0212F17FD202FC701022E02C0880F65
:10574000991F0A94E2F7092E000CAA0BBB0B40919B
:105750001B0450911C0460911D0470911E0484234D
:105760009523A623B723892B8A2B8B2B11F5DC13CA
:105770001DC02093E90A1092ED0A1092EC0A1092D3
:10578000EB0A1092EA0A8091DD0A8D1761F180918F
:105790006702882359F081E09091DD0A9D1380E033
:1057A00023E041EB59E06A2D0F94ED2E17FD2AC03E
:1057B000DF5F1F5FB6CF8091D80A1092D80A882386
:1057C00009F49CCF6DDD8091D70A882309F496CF28
:1057D000DF91CF911F910F91FF90EF90DF90CF90CD
:1057E000BF90AF9008958091D80A1092D80A88236C
:1057F00071F280E198E30E947BC08091D70A8823F0
:1058000031F2E6CFDE5FD5CFCF5FCD1170CFD09331
:10581000D60ADECFE0912204E63028F581E08E0F33
:10582000809322044091D90A5091DA0A6091DB0AF0
:105830007091DC0A2091DE0A9091D60A80914A0587
:1058400039E0E39FF0011124E950FB4FA091861D40
:10585000B091871DB183A083428353836483758392
:1058600026839783808708954F925F926F927F92ED
:105870008F929F92AF92BF92CF92DF92EF92FF9260
:105880000F931F93CF93DF930E9492CE682E61E017
:1058900081E03FDBC091DE0A15E0611001C016E037
:1058A0000C2F85E0582E5C0E85E0F82EFC1A84E063
:1058B000E82EEC1A83E0982E9C1A82E0882E8C1A2F
:1058C00094E2A92E98E0B92E2BE8C22E28E0D22E21
:1058D00081E0782E7C1A4C2E4194C11131C0809108
:1058E000DD0A882389F080916702882309F445C086
:1058F00081E09091DD0A911180E024E04CE958E0CC
:10590000642D0F94ED2E39C08091D80A1092D80AD8
:10591000882349F3C5DC8091D70A882321F3DF91DE
:10592000CF911F910F91FF90EF90DF90CF90BF909C
:10593000AF909F908F907F906F905F904F90089561
:10594000C13009F08BC08091DD0A813009F474C048
:1059500080916702882389F01F92DF92CF927F9215
:1059600081E09091DD0A913009F080E08F93C3DAF5
:105970000F900F900F900F900F906110AAC0C5303C
:1059800009F0A7C08091DD0A853009F4CFC080916D
:1059900067028111DCC0D6E081E08D0F8C1315C049
:1059A0008091DD0A8C1709F4FDC08091670288237D
:1059B00061F06C2F601B81E09091DD0A9C1380E008
:1059C00023E044E458E00F94ED2E82E08D0F8C1319
:1059D00015C08091DD0A8C1709F4F5C0809167022B
:1059E000882361F06C2F601B81E09091DD0A9C138D
:1059F00080E023E04BE358E00F94ED2E83E08D0F21
:105A00008C1313C09091DD0A9C1709F4EDC08091AE
:105A10006702882351F06C2F601B81E09C1380E0AB
:105A200023E049E258E00F94ED2ECF5F5C1255CF92
:105A3000DC5FD093D60A73CF8091D80A1092D80A2F
:105A4000882309F485CFB0927C0AA0927B0A7FDB81
:105A50008091D70A882309F47BCF61CFC23009F047
:105A6000E2C08091DD0A823081F080916702882354
:105A700009F483CF81E09091DD0A923009F080E053
:105A800023E04AE758E0682D3CCF8091D80A109275
:105A9000D80A882351F381E89AE50E947BC080915F
:105AA000D70A882311F33BCF8091DD0A8330F1F0D0
:105AB00080916702882309F460CF81E09091DD0A2C
:105AC000933009F080E023E04DE658E0692D0F9413
:105AD000ED2E1C1309C08091DD0A811709F444C022
