:100000000C94F01C0C94301D0C94301D0C94301D7D
:100010000C94301D0C94301D0C94301D0C94301D2C
:100020000C94301D0C94301D0C94301D0C94301D1C
:100030000C94301D0C94301D0C94301D0C94301D0C
:100040000C94301D0C94C63E0C94301D0C94301D45
:100050000C94301D0C944A3B0C94301D0D940E38BA
:100060000C94301D0C9474F20C943EF20C94301DE0
:100070000C94301D0C94301D0C94301D0C94301DCC
:100080000C94301D0C94301D0C94301D0C94301DBC
:100090000C94301D0C94301D0C94301D0C94852B49
:1000A0000C94301D0C94301D0C94301D0C94301D9C
:1000B0000C94301D0C94301D0C94301D0C94301D8C
:1000C0000C94301D0C94301D0C94301D0C94301D7C
:1000D0000C94301D0C94301D0C94301D0C94301D6C
:1000E0000C94301D084AD73B3BCE016E84BCBFFD4B
:1000F000C12F3D6C74319ABD56833DDA3D00C77FF8
:1001000011BED9E4BB4C3E916BAAAABE0000008090
:100110003F05A84CCDB2D44EB93836A9020C50B91F
:10012000918688083CA6AAAA2ABE000000803F004B
:100130000D94B9340D94E9340D94830B0D94E10BB7
:100140000D9420290D94E5340D9405350D94F73464
:100150000D9440270D9454250D945B250D940B357B
:100160000D94EF340D94240D0D94EA260D94DC3497
:100170000D945E280D940F350D944F270D94DF34A8
:100180000D9401350D94D8340D94973D0D94B00B1A
:100190000D94D0340D94FE0D0D94443E0D94BE3458
:1001A0000D94FD340D94D4340D94F3344E414E49E6
:1001B0004E495459494E46CDCCCC3D0AD7233C1725
:1001C000B7D13877CC2B329595E6241FB14F0A0072
:1001D0000020410000C84200401C4620BCBE4CCA62
:1001E0001B0E5AAEC59D742100486F74656E642065
:1001F000746F6F20636F6C64004261636B005072B8
:100200006F63656564004D6F76652045787472751F
:10021000646572004732385A004732385900486FD7
:100220006D6520400047323858004175746F204892
:100230006F6D6500473238004D6F74696F6E004412
:10024000697361626C6520537465707065727300C8
:100250004D383400426564204C6576656C696E6784
:1002600000486F6D696E67004D61696E0050726580
:100270006865617420242042656400507265686579
:100280006174202420456E640054656D7065726150
:100290007475726500436F6F6C646F776E004661B2
:1002A0006E20537065656400426564004E6F7A7A13
:1002B0006C6500507265686561742024004D616949
:1002C0006E004261627973746570205A0042616207
:1002D0007973746570204000466C6F770046616EDC
:1002E00020537065656400426564004E6F7A7A6CD5
:1002F0006500426564205A005370656564004D6175
:10030000696E006F70656E0054524947474552450B
:1003100044003A20007A5F6D617800795F6D617802
:1003200000785F6D696E005265706F7274696E67F8
:1003300020656E6473746F70207374617475730AD2
:100340000020746F6F206C6F6E6720657874727513
:1003500073696F6E2070726576656E7465640A00ED
:1003600020636F6C6420657874727573696F6E209A
:1003700070726576656E7465640A000000000000A6
:10038000005F43000052435761726E696E673A2006
:10039000486F6D696E672042756D7020446976699B
:1003A000736F72203C20310A0002020400005F4398
:1003B00000005F43000052430000A0400000A04046
:1003C000000000400000000100000001000080006B
:1003D000555555000000400033333300AAAA2A00C7
:1003E0004992240000002000C7711C00999919004F
:1003F000D1451700555515003BB113002449120093
:1004000011111100000010000F0F0F00E3380E0053
:1004100043790D00CCCC0C00C3300C00E8A20B00DB
:1004200064210B00AAAA0A00703D0A009DD80900A9
:10043000427B090092240900DCD308008888080068
:100440001042080000000800F0C10700878707007D
:1004500075500700711C07003EEB0600A1BC0600AA
:100460006990060066660600703E06006118060088
:1004700017F4050074D105005BB00500B2900500CB
:10048000627205005555050078390500B81E050053
:10049000050505004EEC040087D40400A1BD04004E
:1004A00090A7040049920400C17D0400EE69040095
:1004B000C7560400444404005C32040008210400D0
:1004C00041100400000004003FF00300F8E00300C6
:1004D00026D20300C3C30300CCB503003AA803002F
:1004E0000A9B0300388E0300C08103009F75030040
:1004F000D0690300505E03001D530300344803001D
:10050000913D03003333030016290300381F030015
:1005100097150300300C0300030303000BFA0200DD
:1005200049F10200BAE802005CE002002DD80200A6
:100530002DD0020059C80200B0C0020031B902003B
:10054000DAB10200AAAA0200A0A30200BC9C020029
:10055000FA9502005C8F0200DF88020082820200AE
:10056000457C02002776020027700200436A0200E1
:100570007C640200D05E02003F590200C8530200B2
:10058000206C696D6974656420746F2000204D6172
:100590007820004A65726B00FFFDFCFAF8F6F4F271
:1005A000F0EEECEAE9E7E5E3E1E0DEDCDAD9D7D525
:1005B000D4D2D0CFCDCBCAC8C7C5C3C2C0BFBDBCC3
:1005C000BAB9B7B6B4B3B2B0AFADACAAA9A8A6A534
:1005D000A4A2A1A09E9D9C9A99989795949392907D
:1005E0008F8E8D8B8A8988878684838281807F7EA7
:1005F0007D7B7A797877767574737271706F6E6DB2
:100600006C6B6A696867666564636261605F5E5DA2
:100610005C5B5A5958585756555453525150504F85
:100620004E4D4C4B4A4A4948474646454443424250
:1006300041403F3E3E3D3C3B3B3A3938383736350A
:1006400035343332323130302F2E2E2D2C2B2B2AB5
:100650002929282727262525242323222121202054
:100660001F1E1E1D1C1C1B1B1A19191818171616E5
:10067000151514131312121111100F0F0E0E0D0D6C
:100680000C0C0B0A0A0909080807070606050504E9
:10069000040303020201000000005F4300005F4307
:1006A00000005243000000000000000000000000B5
:1006B00053657474696E67732053746F7265640058
:1006C000290A002062797465733B206372632000FD
:1006D00053657474696E67732053746F7265642018
:1006E000280048617264636F6465642044656661D4
:1006F000756C742053657474696E6773204C6F61F8
:100700006465640020286D6D2900203B204C6576CF
:10071000656C696E67200020204D34323020530014
:100720004D65736820426564204C6576656C696E22
:10073000670020460020480020204D3134352053EA
:10074000004D6174657269616C20686561747570D3
:1007500020706172616D657465727300202047328C
:1007600039205334205A00204A00202047323920B3
:10077000533320490020204D3134392043203B2081
:10078000556E69747320696E2043656C7369757367
:100790000A0054656D706572617475726520556EDE
:1007A000697473002020473231203B004C696E652C
:1007B000617220556E69747300454550524F4D204B
:1007C0006461746173697A65206572726F722E0A52
:1007D0000053746F7265642073657474696E677317
:1007E0002072657472696576656400290A0020626A
:1007F000797465733B2063726320002073746F7299
:1008000065642073657474696E67732072657472B1
:100810006965766564202800454550524F4D204358
:100820005243204572726F7200202863616C6375B9
:100830006C6174656429210A0020213D2000454532
:1008400050524F4D20435243206D69736D61746364
:1008500068202D202873746F72656429200020534E
:10086000697A653A2000496E6465783A2000000094
:1008700096430000964300002042000034420000EE
:10088000A0420000A042000048430080B843282353
:1008900000002823000064000000102700004545E8
:1008A00050524F4D2056657273696F6E20457272BB
:1008B0006F7200204D61726C696E3D563837290A9F
:1008C00000454550524F4D2076657273696F6E201A
:1008D0006D69736D617463682028454550524F4DB2
:1008E0003D0024F4D43050C38D20C3A24117828B25
:1008F0007011127A900D826CDA0AA861E108C7586B
:100900006607615142061F4B5E05C145A6041B41A7
:100910001204093D9703723931034136DB02663315
:100920009202D4305302812E1D02642CEE01762AED
:10093000C501B128A101102781018F2564012B2455
:100940004A01E1223401AD2120018D200C01811FDB
:10095000FC00851EED00981DDF00B91CD200E71BCE
:10096000C700201BBB00651AB200B319A9000A1901
:10097000A0006A189800D217920040178A00B61695
:10098000840032167E00B41579003B157400C7143C
:100990006F0058146A00EE13660088136200261375
:1009A0005E00C8125B006D12570016125500C1118F
:1009B000510070114E0022114C00D61049008D10CC
:1009C00046004710450002104200C00F4000800F53
:1009D0003E00420F3C00060F3A00CC0E3900930E49
:1009E00037005C0E3500270E3400F30D3200C10DC8
:1009F0003100900D2F00610D2F00320D2D00050DDF
:100A00002C00D90C2A00AF0C2A00850C28005D0CA4
:100A10002800350C27000E0C2500E90B2500C40B1F
:100A20002400A00B23007D0B22005B0B21003A0B5E
:100A30002100190B2000F90A1F00DA0A1F00BB0A67
:100A40001E009D0A1D00800A1C00640A1C00480A42
:100A50001C002C0A1B00110A1A00F7091A00DD09F4
:100A60001900C4091900AB091800930918007B0983
:100A70001700640917004D091700360916002009F0
:100A800015000B091500F6081500E1081500CC0843
:100A90001400B8081400A4081300910813007E087D
:100AA00013006B081200590812004708120035089D
:100AB0001200230811001208110001081000F107AC
:100AC0001100E0071000D0071000C0070F00B107A9
:100AD0001000A1070F0092070F0083070F00740793
:100AE0000E0066070E0058070E004A070E003C076E
:100AF0000E002E070D0021070D0014070D0007073B
:100B00000D00FA060D00ED060C00E1060D00D406FE
:100B10000C00C8060C00BC060C00B0060B00A506B5
:100B20000C0099060B008E060B0083060B0078065E
:100B30000B006D060B0062060B0057060A004D06FF
:100B40000A0043060B0038060A002E060A00240697
:100B500009001B060A0011060A0007060900FE0527
:100B60000A00F4050900EB050900E2050900D905B2
:100B70000900D0050900C7050800BF050900B60532
:100B80000900AD050800A50508009D0508009505AC
:100B900009008C050800840508007C050700750520
:100BA00008006D050800650507005E05080056058C
:100BB00007004F05080047050700400507003905F5
:100BC0000700320507002B050700240507001D0557
:100BD0000700160507000F050600090507000205B6
:100BE0000600FC040700F5040600EF040700E80413
:100BF0000600E2040600DC040600D6040600D00469
:100C00000700C9040500C4040600BE040600B804B9
:100C10000600B2040600AC040600A6040500A10408
:100C200006009B04050096040600900405008B0452
:100C3000060085040500800405007B040500760499
:100C40000600700405006B040500660405006104DD
:100C500005005C04050057040500520405004D041E
:100C6000050048040400440405003F0405003A045C
:100C7000040036040500310405002C040400280497
:100C80000500230404001F0405001A0404001604D0
:100C90000400120405000D04040009040400050406
:100CA000040001040500FC030400F8030400F4033D
:100CB0000400F0030400EC030400E8030400E40370
:100CC0000400E0030400DC030400D8030400D403A0
:100CD0000300D1030400CD030400C9030400C503CD
:100CE0000400000000000000000000000000000000
:100CF00000000000000000000000D1036D640357F5
:100D00000D0347C6023B8B023259022B2E022509E6
:100D10000221E8011CCC011AB201179B01148701C2
:100D20001374011163010F54010E46010D39010DB9
:100D30002C010B21010A17010A0D0109040108FC0D
:100D40000008F40007ED0007E60007DF0006D90001
:100D500006D30005CE0006C80005C30004BF000589
:100D6000BA0004B60004B20004AE0004AA0004A64F
:100D70000003A300049F00039C0003990003960056
:100D8000039300029100038E00028C00038900028D
:100D90008700038400028200028000027E00027C41
:100DA00000027A00027800027600017500027300EA
:100DB000027100017000026E00016D00026B000103
:100DC0006A000268000167000265000164000163B7
:100DD00000016200026000015F00015E00015D0031
:100DE000015C00015B00015A00015900015800013B
:100DF00057000156000155000154000153000152F3
:100E000000015100005100015000014F00014E004F
:100E1000014D00004D00014C00014B00014A000053
:100E20004A0001490001480000480001470001460E
:100E30000000460001450000450001440001430058
:100E40000043000142000042000141000041000156
:100E50004000004000013F00003F00013E00003E16
:100E600000013D00003D00013C00003C00013B0052
:100E7000003B00013A00003A00013900003900004F
:100E80003900013800003800013700003700003712
:100E90000001360000360000360001350000350044
:100EA000013400003400003400013300003300003E
:100EB0003300013200003200003200013100003105
:100EC000000031000031000130000030000030002F
:100ED000012F00002F00002F00002F00012E000026
:100EE0002E00002E00012D00002D00002D00002DF1
:100EF00000012C00002C00002C00002C00012B0015
:100F0000002B00002B00002B00012A00002A00000B
:100F10002A00002A00002A000129000029000029D7
:100F200000002900012800002800002800002800F7
:100F300000280001270000270000270000270000EC
:100F400027000126000026000026000026000026BB
:100F500000002600012500002500002500002500D6
:100F600000250000250001240000240000240000CA
:100F7000240000240000240001230000230000239B
:100F800000002300002300002300012200002200B3
:100F900000220000220000220000220000220001A6
:100FA000210000210000210000210000210000217B
:100FB000000021000120000020000020000020008F
:100FC000002000002000002000002000011F000081
:100FD0001F00001F00001F00001F00001F00001F57
:100FE000000020436F756E7420583A00004265641B
:100FF000004531004500626564002C2073797374EC
:10100000656D2073746F707065642120486561742C
:1010100065725F49443A20004572723A204D41584A
:1010200054454D50004D415854454D5020747269FF
:10103000676765726564002842656429002066540C
:1010400065726D200020635465726D200020645429
:1010500065726D200020695465726D200020705407
:1010600065726D2000204F757470757420003A20F1
:10107000496E7075742000450048656174696E673B
:10108000204661696C65640048656174696E67201B
:101090006661696C6564004D353234004D31313222
:1010A0002053687574646F776E004572723A204DF4
:1010B000494E54454D50004D494E54454D502074B5
:1010C000726967676572656400544845524D414CCA
:1010D0002052554E4157415900546865726D616CFC
:1010E0002052756E6177617900202800202F002042
:1010F00042403A0020403A0020573A0000002100C8
:10110000240027002A002D003000330001010000D8
:10111000040107010A017C3C3E5E2B3D3F2F5B5DD5
:101120003B2C2A225C0043616E6E6F74206F7065E9
:101130006E2073756264697220004D656469612078
:10114000496E6974204661696C0053442063617282
:1011500064206F6B0A006F70656E526F6F7420664B
:1011600061696C65640A00766F6C756D652E696ED9
:101170006974206661696C65640A004E6F2053448F
:1011800020636172640A00534420636172642072B8
:10119000656C65617365640A000A4D3234004D3236
:1011A00033202573002E0A006F70656E206661691A
:1011B0006C65642C2046696C653A200046696C6554
:1011C0002073656C65637465640A002053697A65F1
:1011D0003A200046696C65206F70656E65643A2040
:1011E00000454E4420535542524F5554494E450AEE
:1011F000002220706F73002220706172656E743A55
:101200002200535542524F5554494E452043414CBC
:101210004C207461726765743A2200537562636191
:101220006C6C204F766572666C6F770045786365ED
:1012300065646564206D617820535542524F555462
:10124000494E452064657074683A00577269746944
:101250006E6720746F2066696C653A20002E0A0064
:1012600044656C6574696F6E206661696C65642C99
:101270002046696C653A200046696C652064656C9F
:10128000657465643A004E6F74205344207072692F
:101290006E74696E670A005344207072696E7469D7
:1012A0006E672062797465200066726573680064F9
:1012B0006F696E67002066696C653A20004E6F7733
:1012C00020002F6175746F25632E6700554E4C4FBB
:1012D00041442046494C414D454E54004C4F4144F9
:1012E0002046494C414D454E540046494C414D45E0
:1012F0004E54204348414E4745004D38340050720B
:10130000696E7420446F6E6500446F6E6520707264
:10131000696E74696E672066696C650A004D3737BF
:10132000004D333100436F6F6C696E672E2E2E00B7
:1013300045312025530020573A0042656420436F11
:101340006F6C696E672E2E2E0042656420486561C1
:1013500074696E672E2E2E0023646566696E6520A3
:1013600044454641554C545F0000626564004B643F
:1013700020004B6920004B702000504944207475B8
:101380006E696E6720646F6E65002066696E6973B2
:10139000686564212050757420746865206C6173E1
:1013A00074204B702C204B6920616E64204B6420AC
:1013B000636F6E7374616E74732066726F6D2062FA
:1013C000656C6F7720696E746F20436F6E66696716
:1013D00075726174696F6E2E680A0050494420412D
:1013E00075746F74756E6500206661696C65642143
:1013F0002074696D656F75740A0050494420417509
:10140000746F74756E65004175746F74756E6520C8
:101410006661696C6564212054696D656F75742E11
:1014200000206661696C6564212054656D70657289
:10143000617475726520746F6F20686967680A004F
:10144000504944204175746F74756E65005049446D
:10145000204379636C65730025532025692F256926
:1014600000204B643A2000204B693A2000204B704A
:101470003A200020436C6173736963205049442013
:101480000A00204E6F206F76657273686F6F740A62
:10149000002054753A2000204B753A2000206D61E1
:1014A000783A2000206D696E3A200020643A2000CE
:1014B00020626961733A200048656174696E672E25
:1014C0002E2E002073746172740A0050494420412A
:1014D00075746F74756E65004175746F74756E65A3
:1014E000206661696C6564212054656D7065726168
:1014F0007475726520746F6F20686967682E0020AC
:101500006661696C6564212054656D7065726174F3
:1015100075726520746F6F20686967680A005049AA
:1015200044204175746F74756E65005049442041C4
:1015300075746F74756E6500206661696C656421F1
:1015400020426164206865617465722069640A00E4
:10155000504944204175746F74756E65005049445C
:1015600020446562756720004572723A2075746682
:101570003820666F6E74206E6F7420696E697469AE
:10158000616C697A65642E004572723A20757466E2
:101590003820666F6E74206E6F7420696E6974698E
:1015A000616C697A65642E004572723A20757466C2
:1015B0003820666F6E74206E6F7420696E6974696E
:1015C000616C697A65642E002000200020003A00DA
:1015D0003A002568753A2530326875002530326842
:1015E000753A253032687500253032687527253008
:1015F00032687500256875642025303268753A2593
:10160000303268750042656400456E636C6F7375B7
:1016100072650045002000200020002000200025E9
:10162000002020202020202000202020200020201A
:10163000202020202000657272001FE03FF03FF064
:101640003FF01FE01FE03FF03FF03FF00FC007808A
:1016500003001FE020102010201010201020201068
:10166000201030300840048003003FFFF83E00F8AF
:1016700039F03831E01831E01821E1E820F3E820B2
:101680007FE82077E828EE282FDC082FFC082F9E23
:10169000082F0F08300F18300F18381F383E00F889
:1016A0003FFFF83FFFF83E00F8383F38307E1830F3
:1016B0007C18287C082C38082F39C82FFFE82FC742
:1016C000E82FFFE82739E8203868207C28307C188C
:1016D00030FC1839F8383E00F83FFFF83FFFF83E7D
:1016E00000F8380F38341FD8361F982F1F082F9E48
:1016F000082FFC082FDC0827EFC82077E8207FE8B8
:1017000020F3E821F1E833F0D837F05839E0383EDB
:1017100000F83FFFF83FFFF83E80F8398038378106
:10172000D837C3D827C7E823C7F821FF88206C081B
:10173000206C08206C0823FF083FC7882FC7C837D4
:1017400087D83703D83803383E02F83FFFF81FFF29
:10175000F81FFFF80410400208200208200410407F
:101760000820801041001041000820800410400033
:1017700000001FFFF81FFFF8256C6425636D0063F0
:10178000616E63656C005072696E742041626F72A5
:10179000746564004469736D697373005549204131
:1017A000626F72746564004D323520500A4D3234D8
:1017B00000526573756D65005549205061757365FC
:1017C0000050617573696E672E2E2E0072657375F9
:1017D0006D65004D323400454550524F4D205665E1
:1017E0007273696F6E204572726F72004545505278
:1017F0004F4D20496E646578204572726F720045C6
:101800004550524F4D20435243204572726F720033
:101810003F0049676E6F72650052657365740049D9
:101820006E697469616C697A6520454550524F4D07
:101830000045005A005859004C6F6164206D6D00DE
:10184000556E6C6F6164206D6D0046696C2E20448E
:1018500069612E004F6666004F6E004520696E205C
:101860006D6D5E33002008204661637400200820FF
:101870004D6178002008204D696E004D696E20543E
:10188000726176656C205370656564004D696E20E9
:1018900056656C6F63697479004D61782040205300
:1018A00070656564004D6178204520416363656C17
:1018B000004D6178204020416363656C0054726183
:1018C00076656C20416363656C0052657472616378
:1018D0007420416363656C00416363656C004D6116
:1018E000782040204A65726B0040207374657073E5
:1018F0002F6D6D00416476616E636564205365747D
:1019000074696E6773003F0043616E63656C0049E4
:101910006E6974004D34323800496E697469616CC7
:10192000697A6520454550524F4D0046696C616D9E
:10193000656E740054656D706572617475726500D2
:10194000447269766520537472656E6774680053DB
:10195000746570732F6D6D004A65726B004163632F
:10196000656C65726174696F6E004D6178205370AB
:1019700065656420286D6D2F7329005365742048B8
:101980006F6D65204F66667365747300436F6E6696
:10199000696775726174696F6E004C6576656C6914
:1019A0006E6720446F6E6521004D6F7665205A008A
:1019B0004732395332004E65787420506F696E7427
:1019C000002569202F202575004732395331004703
:1019D0003239533200436C69636B20746F20426567
:1019E00067696E005A2056616C756500496E6465C2
:1019F00078205900496E64657820580053746F72DE
:101A0000652053657474696E6773004C6F61642060
:101A100053657474696E6773004265642054726123
:101A20006D6D696E6700426564205A0046616465A9
:101A300020486569676874004F6666004F6E004213
:101A40006564204C6576656C696E670045646974F1
:101A5000204D657368004C6576656C2042656400B6
:101A60004D6F74696F6E003F004E65787420436F50
:101A7000726E657200446F6E65004E657874004842
:101A80006F6D696E672058595A003F0043616E635D
:101A9000656C204F626A656374004E4F0059455370
:101AA0000043616E63656C204F626A656374203D1C
:101AB000004D61696E00426564004E6F7A7A6C6514
:101AC0000046616E20537065656400436F6E666901
:101AD0006775726174696F6E00526573746F7265B9
:101AE0002044656661756C7473004C6F61642053AB
:101AF000657474696E67730053746F726520536503
:101B00007474696E6773004F6666004F6E00536FA2
:101B1000756E640050726568656174202420436F9F
:101B20006E66004C434420436F6E747261737400A0
:101B3000416476616E6365642053657474696E6791
:101B400073004D61696E004D3730322054256400BA
:101B50004D36303020423020542564004D3730322D
:101B6000203B2564004D37303120542564004D372B
:101B70003032004D373031004D36303020423000A9
:101B80004D61696E00436F6E74696E7565005075C6
:101B9000726765206D6F726500524553554D452043
:101BA0004F5054494F4E533A005052494E542050D2
:101BB0004155534544002F00200020204E6F7A7A73
:101BC0006C653A20005061726B696E672E2E2E0094
:101BD00000005761697420666F720066696C616D00
:101BE000656E74206368616E676500746F2073743E
:101BF000617274005761697420666F720066696C67
:101C0000616D656E7420756E6C6F616400004E6F5F
:101C10007A7A6C652068656174696E6700506C65DE
:101C200061736520776169742E2E2E0000507265F5
:101C3000737320627574746F6E00746F20686561D1
:101C400074206E6F7A7A6C650000496E73657274E9
:101C50002066696C616D656E7400616E64207072DF
:101C600065737320627574746F6E00746F20636F98
:101C70006E74696E7565005761697420666F7200D5
:101C800066696C616D656E74206C6F6164000050F4
:101C90007265737320427574746F6E00746F207276
:101CA0006573756D65207072696E740000576169A7
:101CB0007420666F72207072696E7400746F207287
:101CC0006573756D652E2E2E000057616974206650
:101CD0006F720066696C616D656E742070757267F5
:101CE0006500003135300035004245443A205074DB
:101CF00031303020556C74694D4220357600527574
:101D00006E617761792057617463683A204F4E00A5
:101D10004D61782054656D7000323735004D696E25
:101D20002054656D7000350045313A2050743130D3
:101D30003020556C74694D42203576005053550063
:101D400047656E657269630050726F746F636F6C84
:101D500000312E3000426175640032353030303051
:101D600000556C74696D616B657220322E78004D80
:101D7000657368204C6576656C696E67004578749C
:101D80007275646572730031006D61726C696E66A4
:101D9000772E6F726700556C74696D616B65722088
:101DA000322B00323032332D30342D303100627519
:101DB000676669782D322E312E78004D61726C691C
:101DC0006E00546865726D6973746F727300426F50
:101DD00061726420496E666F005072696E7465723C
:101DE00020496E666F004D61696E0056696F6C65C3
:101DF0007400496E6469676F00426C7565004772D4
:101E000065656E0059656C6C6F77004F72616E6727
:101E1000650052656400576869746500426C7565B9
:101E200020496E74656E7369747900477265656EDA
:101E300020496E74656E7369747900526564204937
:101E40006E74656E73697479004C454420436F6EFF
:101E500074726F6C004C69676874204272696768BD
:101E6000746E65737300436F6E6669677572617433
:101E7000696F6E0043617365204C69676874004345
:101E80007573746F6D204C6967687473004C696773
:101E9000687420507265736574730044656661757B
:101EA0006C74004F6666004F6E004C69676874730F
:101EB000004D61696E003F004261636B0053746FB7
:101EC000700073687574646F776E003F0043616ED5
:101ED00063656C0050726F63656564004368616E92
:101EE00067652046696C616D656E7400486F737438
:101EF0002053687574646F776E004E6F204D656473
:101F00006961005072696E742066726F6D204D6554
:101F1000646961004368616E6765204D656469614D
:101F2000004D3231004C69676874730041626F750F
:101F300074205072696E74657200436F6E666967D3
:101F400075726174696F6E0054656D70657261744D
:101F5000757265004D6F74696F6E005072656865CB
:101F6000617420437573746F6D00537461727420D3
:101F7000486F7374205072696E7400526573756D8A
:101F800065205072696E740043616E63656C204F0A
:101F9000626A6563740054756E650053746F7020D7
:101FA0005072696E74005061757365205072696E6D
:101FB0007400496E666F2053637265656E003F0062
:101FC0005374617274205072696E740043616E6361
:101FD000656C005072696E740043616E6E6F7420A0
:101FE000656E746572207375626469723A200002CE
:101FF000202E2E004261636B004D61696E00000C63
:102000000F00FE07022503BB017FFE08FE08FE0548
:10201000080806000040F0C888889878100508086D
:10202000060000C0F88888888888F805050506003D
:10203000012030F830200508080600002070F82044
:10204000202020E00509090600FF2070A8A8B88814
:10205000887020070505070001D86C366CD8050983
:10206000090600FFF8A88888888888A8F8050A0A61
:102070000600FE205050505088A8A8887003030323
:1020800006000340A040FFFFFFFFFFFFFFFFFFFF31
:10209000FFFFFFFFFFFFFFFFFFFFFFFF0000000646
:1020A00005FF010707060200808080808000800312
:1020B0000303060105A0A0A005060606000050F8CF
:1020C0005050F8500509090600FF2070A8A070289C
:1020D000A87020050707060000C8C810204098987F
:1020E00005070706000040A0A040A8906801030370
:1020F0000602058080800309090601FF2040408018
:1021000080804040200309090601FF8040402020D4
:102110002040408005070706000020A8702070A816
:10212000200505050600012020F8202002030306F3
:1021300001FFC04080050101060003F8020202060B
:102140000100C0C00507070600000810102040402D
:1021500080050707060000708898A8C888700307E4
:102160000706010040C040404040E0050707060068
:1021700000708808102040F8050707060000F808DE
:10218000103008887005070706000010305090F8DE
:102190001010050707060000F880F0080888700591
:1021A0000707060000304080F088887005070706A2
:1021B0000000F80810102020200507070600007016
:1021C00088887088887005070706000070888878FE
:1021D000081060020505060100C0C000C0C002066C
:1021E000060601FFC0C000C04080030505060101CE
:1021F0002040804020050303060002F800F8030594
:102200000506010180402040800507070600007098
:102210008810202000200507070600007088B8A855
:10222000B88070050707060000708888F8888888DD
:10223000050707060000F04848704848F005070702
:1022400006000070888080808870050707060000FF
:10225000F04848484848F0050707060000F8808025
:10226000F08080F8050707060000F88080F0808085
:102270008005070706000070888080988870050731
:1022800007060000888888F8888888030707060101
:1022900000E04040404040E00507070600003810DD
:1022A00010101090600507070600008890A0C0A0DD
:1022B0009088050707060000808080808080F805F0
:1022C000070706000088D8A88888888805070706B9
:1022D00000008888C8A8988888050707060000704D
:1022E000888888888870050707060000F08888F0CD
:1022F00080808005070706000070888888A890689D
:10230000050707060000F08888F0A09088050707F9
:1023100006000070888070088870050707060000B6
:10232000F820202020202005070706000088888844
:1023300088888870050707060000888888885050BC
:102340002005070706000088888888A8A850050788
:102350000706000088885020508888050707060077
:102360000088885020202020050707060000F80874
:1023700010204080F80309090601FFE0808080807A
:10238000808080E005070706000080404020101094
:10239000080309090601FFE020202020202020E07A
:1023A0000503030600052050880501010600FEF81C
:1023B00003030306010580402005050506000070A3
:1023C000087888780507070600008080F0888888EC
:1023D000F005050506000070808088700507070677
:1023E00000000808788888887805050506000070D0
:1023F00088F08070050707060000304840E0404044
:10240000400507070600FE70888888780870050771
:10241000070600008080F088888888030707060187
:10242000004000C0404040E00409090601FE1000E1
:10243000301010101090600507070600008080889B
:1024400090E09088030707060100C04040404040EC
:10245000E0050505060000D0A8A8A8A80505050602
:102460000000B0C8888888050505060000708888C7
:1024700088700507070600FEF0888888F0808005D0
:1024800007070600FE78888888780808050505068D
:102490000000B0C8808080050505060000788070C7
:1024A00008F00507070600002020F8202020180566
:1024B000050506000088888898680505050600005F
:1024C00088888850200505050600008888A8A8503F
:1024D00005050506000088502050880507070600FE
:1024E000FE88888850204080050505060000F81009
:1024F0002040F80309090601FF2040404080404089
:1025000040200109090602FF808080808080808051
:10251000800309090601FF80404040204040408080
:1025200005030306000248A890FF434F4D4D554E4A
:1025300049434154494F4E0044525952554E00456B
:1025400052524F525300494E464F004543484F00A8
:102550005046543A696F6572726F720A0050465461
:102560003A737563636573730A005054463A696E33
:1025700076616C69640A005046543A73756363650A
:1025800073730A005046543A696F6572726F720A2B
:10259000005046543A696E76616C69640A00504690
:1025A000543A696E76616C69640A005046543A6622
:1025B00061696C0A005046543A73756363657373BE
:1025C0000A005046543A627573790A002C003A6347
:1025D0006F6D7072657373696F6E3A68656174735D
:1025E0006872696E6B2C002E002E005046543A76AD
:1025F000657273696F6E3A00556E737570706F72A5
:102600007465642042696E6172792050726F746FD4
:10261000636F6C0A00556E6B6E6F776E2042696E49
:1026200061727950726F746F636F6C436F6E747206
:102630006F6C205061636B65740A006665004461CD
:10264000746173747265616D2074696D656F757402
:102650000A00727300526573656E6420726571754D
:1026600065737420006F6B0029207061796C6F6155
:102670006420636F72727570740A005061636B65D9
:102680007428004461746173747265616D207061B7
:10269000636B65742064617461206275666665723F
:1026A000206F76657272756E0A003F2920636F7223
:1026B000727570740A005061636B6574206865619F
:1026C00064657228004461746173747265616D2081
:1026D0007061636B6574206F7574206F66206F7214
:1026E0006465720A006F6B002E002E002C002C0017
:1026F00073730053544F505045442E20005072695C
:102700006E7465722073746F707065642064756593
:1027100020746F206572726F72732E204669782064
:10272000746865206572726F7220616E64207573C3
:1027300065204D39393920746F2072657374617268
:10274000742E202854656D706572617475726520F1
:1027500069732072657365742E20536574206974E3
:102760002061667465722072657374617274696E3B
:1027700067290A004E6F20436865636B73756D208F
:1027800077697468206C696E65206E756D6265721C
:102790002C204C617374204C696E653A20004E6F9A
:1027A00020436865636B73756D2077697468206C6E
:1027B000696E65206E756D6265722C204C61737454
:1027C000204C696E653A2000636865636B73756DB4
:1027D000206D69736D617463682C204C6173742083
:1027E0004C696E653A20004C696E65204E756D62CD
:1027F0006572206973206E6F74204C617374204C75
:10280000696E65204E756D6265722B312C204C61AE
:102810007374204C696E653A20004D31313000539D
:10282000657269616C20737461747573206D69736E
:102830006D617463680A00534420726561642065A9
:1028400072726F720A00746F6F206D756368206911
:102850006E6163746976652074696D65202D2063EF
:10286000757272656E7420636F6D6D616E643A206F
:10287000002121204B494C4C206361757365642015
:10288000627920004D656469612052656D6F7665DF
:102890006400627573793A207061757365642066AF
:1028A0006F7220696E7075740A00627573793A20D0
:1028B00070617573656420666F7220757365720A46
:1028C00000627573793A2070726F63657373696E15
:1028D000670A00506C65617365205265736574000A
:1028E0005052494E5445522048414C5445440025CD
:1028F000533A20255300706F7765726F6666004B00
:10290000494C4C45442E20005072696E746572200B
:1029100068616C7465642E206B696C6C2829206377
:10292000616C6C6564210A006563686F3A004572EA
:10293000726F723A004F4646004F4E000A4D656175
:10294000737572656420706F696E74733A0A003330
:102950007833206D6573682E205A206F6666736524
:10296000743A20005072696E74696E67204F626A13
:10297000656374002553202569002F2F61637469F6
:102980006F6E3A007374617274006E6F7469666979
:10299000636174696F6E2000656E640062757474A3
:1029A0006F6E00486F74656E6420746F6F20636F84
:1029B0006C640A0053656E64204D31303820746FAA
:1029C00020726573756D650A00496E7365727420B7
:1029D00066696C616D656E7420616E642073656EEE
:1029E00064204D3130380A005265686561742044B6
:1029F0006F6E6500526568656174696E672E2E2E74
:102A000000526568656174004865617465722054A0
:102A1000696D656F75740053656E64204D31303893
:102A200020746F2068656174206E6F7A7A6C650A15
:102A3000004E6F7A7A6C65205061726B656400702D
:102A400061757365640050617573650072657375B7
:102A50006D656400526573756D696E67004F46461B
:102A60000A00466164652048656967687420004211
:102A70006564204C6576656C696E67200046616907
:102A80006C656420746F20656E61626C65204265C0
:102A900064204C6576656C696E670A004D657368E5
:102AA00020426564204C6576656C20646174613AEF
:102AB0000A00496E76616C6964206D6573682E0A40
:102AC00000206E6F7420656E74657265642E0A0056
:102AD00020440020204D323030205300202844690B
:102AE0007361626C6564293A0046696C616D656E5C
:102AF000742073657474696E67730020204D3230E2
:102B0000312058004D617820416363656C657261C6
:102B100074696F6E2028756E6974732F7332290083
:102B200020204D3230332058004D61782066656595
:102B30006472617465732028756E6974732F7329CC
:102B40000020520020204D32303420500041636379
:102B5000656C65726174696F6E2028756E69747337
:102B60002F7332292028503C7072696E742D616376
:102B700063656C3E20523C726574726163742D61B2
:102B80006363656C3E20543C74726176656C2D61A4
:102B90006363656C3E290020540020530020204DC3
:102BA000323035204200416476616E6365642028CE
:102BB000423C6D696E5F7365676D656E745F7469C5
:102BC0006D655F75733E20533C6D696E5F6665652C
:102BD00064726174653E20543C6D696E5F7472610D
:102BE00076656C5F66656564726174653E20583C0D
:102BF0006D61785F6A65726B3E20593C6D61785FEC
:102C00006A65726B3E205A3C6D61785F6A65726BD3
:102C10003E20453C6D61785F6A65726B3E290020FD
:102C2000440020490020204D333031205000486FAF
:102C300074656E64205049440020440020490020FF
:102C4000204D333034205000426564205049440008
:102C500020204D39303720580053746570706572EC
:102C6000206D6F746F722063757272656E7473007D
:102C700020646174613A002062797465733A003AA5
:102C80002066726F6D3A006932632D7265706C79DF
:102C900000426164206932632072657175657374E6
:102CA0000A00203B0020550020204D363033204CB8
:102CB0000046696C616D656E74206C6F61642F7580
:102CC0006E6C6F6164003B200020496E76616C6918
:102CD000642065787472756465722000536C656554
:102CE000702E2E2E0050726F62696E6720506F69D1
:102CF0006E740025532025692F256900206F6620FA
:102D0000004D424C2047323920706F696E742000AC
:102D1000290A004A206F7574206F662072616E6701
:102D2000652028302D00290A0049206F7574206F16
:102D3000662072616E67652028302D004D657368CE
:102D40002070726F62696E6720646F6E65004D65FA
:102D500073682070726F62696E6720646F6E652E93
:102D60000A005374617274206D6573682070726F0D
:102D700062696E6720776974682022473239205370
:102D800031222066697273742E0A00473239533239
:102D900000686173206E6F20646174612E0A004DBB
:102DA00065736820426564204C6576656C696E6762
:102DB000200053206F7574206F662072616E676506
:102DC0002028302D35292E0A004D65736820706F3C
:102DD000696E74206F7574206F662072616E67650E
:102DE0000A004E6F204D6F76652E00456E6420669A
:102DF000696C65206C6973740A00426567696E20AE
:102E000066696C65206C6973740A004E6F206D658D
:102E10006469610A00526573756D696E6720534479
:102E200000286E6F2066696C6529004375727265B3
:102E30006E742066696C653A200053776974636824
:102E4000696E6720746F2042696E617279205072DA
:102E50006F746F636F6C0A0043616E6E6F74206FE6
:102E600070656E2073756264697220002569730055
:102E700025696D20256973002569682025696D2005
:102E800025697300256964202569682025696D20FE
:102E900025697300256979202569642025696820E2
:102EA00025696D20256973005072696E74207469FC
:102EB0006D653A20006F6B006F6666004B254625F6
:102EC0003F2538252A2544454255473A004D3131A2
:102ED00033205300556C74696D616B657220322B21
:102EE000204F46462E002F2F004D31343520533CC5
:102EF000696E6465783E206F7574206F662072611C
:102F00006E67652028302D31290A002058002020C6
:102F10004D61783A2000200020204D696E3A200053
:102F2000203B200020204D323131205300536F666A
:102F30007420656E6473746F707300250A004652C6
:102F40003A0020466C6F773A20004D424C20416495
:102F50006A757374205A00426164204932432061CB
:102F60006464726573732028382D313237290A0062
:102F700064697300656E0043290A0061626C6564D0
:102F800020286D696E2074656D702000436F6C643D
:102F90002065787472756465732061726520004DD8
:102FA00065736820706F696E74206F7574206F662A
:102FB0002072616E67650A004D34323120696E639C
:102FC0006F727265637420706172616D6574657291
:102FD0002075736167650A00454550524F4D204F7B
:102FE0004B0A003F28422961756420726174652094
:102FF000696D706C61757369626C652E0A00206280
:1030000061756420726174652073657420746F202B
:10301000002053657269616C20004F46460A0043E8
:10302000617365206C696768743A2000496E766147
:103030006C69642065787472756465720A0020207A
:103040004D323036205800486F6D65206F666673CC
:103050006574004F666673657473204170706C69A7
:103060006564004572723A20546F6F206661722168
:1030700000546F6F206661722066726F6D207265FA
:10308000666572656E636520706F696E740A0043D1
:1030900061703A00434F4E4649475F4558504F5282
:1030A00054004D4541545041434B00434F4F4C4514
:1030B000525F54454D504552415455524500434886
:1030C000414D4245525F54454D5045524154555231
:1030D0004500424142595354455050494E470041E2
:1030E000524353004D4F54494F4E5F4D4F4445534B
:1030F00000544845524D414C5F50524F5445435443
:10310000494F4E00455854454E4445445F4D32307A
:1031100000435553544F4D5F4649524D5741524518
:103120005F55504C4F4144004C464E5F57524954F6
:1031300045004C4F4E475F46494C454E414D45007A
:103140004155544F5245504F52545F53445F53546E
:10315000415455530053445F57524954450052451A
:1031600050454154004D554C54495F564F4C554DB8
:1031700045005344434152440050524F4D50545F18
:10318000535550504F525400484F53545F4143548D
:10319000494F4E5F434F4D4D414E445300454D45C1
:1031A0005247454E43595F504152534552004341A7
:1031B00053455F4C494748545F4252494748544E33
:1031C00045535300544F47474C455F4C494748547B
:1031D0005300534F4654574152455F504F57455245
:1031E000004255494C445F50455243454E54004CB3
:1031F0004556454C494E475F44415441005A5F5043
:10320000524F42450052554E4F5554004155544F70
:103210004C4556454C005052494E545F4A4F42006F
:1032200050524F4752455353004155544F52455009
:103230004F52545F54454D50004155544F524550E4
:103240004F52545F504F5300564F4C554D455452BA
:10325000494300454550524F4D0042494E41525955
:103260005F46494C455F5452414E534645520053C8
:10327000455249414C5F584F4E5F584F46460046B5
:1032800049524D574152455F4E414D453A4D61724D
:103290006C696E206275676669782D322E312E78E2
:1032A00020284170722031342032303233203136C0
:1032B0003A32303A32322920534F555243455F4318
:1032C0004F44455F55524C3A6769746875622E6386
:1032D0006F6D2F556C74696D616B65722F4D6172E6
:1032E0006C696E2050524F544F434F4C5F564552BD
:1032F00053494F4E3A312E30204D414348494E45B7
:103300005F545950453A556C74696D616B65722014
:10331000322B2045585452554445525F434F554E29
:10332000543A3120555549443A63656465326132F7
:10333000662D343161322D343734382D39623132D3
:103340002D63353563363266333637666600707204
:103350006F6D70745F00626567696E004D30205359
:10336000746F70004D312053746F7000436C69634B
:103370006B20746F20526573756D652E2E2E0020A4
:10338000204D3235302043004C434420436F6E744F
:10339000726173740047322F47332062616420707A
:1033A0006172616D65746572730A00504300414239
:1033B0005300504C4100FFE0FFD1AFFF32FFD0FF80
:1033C000FEFFE0FFD1AEFFD0FFFEFFE0FFD1100017
:1033D000FFFEFFD0FFE0FFC1FFD1FD12AED5A0A8D8
:1033E0003F3D0040A1C8DA1281DFD982DB34A4A6B8
:1033F000FFBFFF32AFFF32FFD0FFFE6D61726C691D
:103400006E66772E6F7267006275676669782D3217
:103410002E312E78001FFFFFFFFFFFFF600000002E
:103420000001FF400000000000FF800000000000DD
:103430007F83CF00000C303F87FF80000C301F8659
:103440007980000C000F8C30C7838C30E78C30CF34
:10345000C7CC31F38C30DCECEC33B98C30D86C6CED
:1034600033198C30D06C0C33198C30D86C0C331968
:103470008C30DC6C0E3B198C30CF7C079F198C3064
:10348000C77C038F194000000000000260000000AC
:103490000000061FFFFFFFFFFFF800000000300ED6
:1034A0000100C00E0A00500F1400D00F1E00601063
:1034B0002800E010320070113C00F011460070123C
:1034C000500000135A008013640000146E00901422
:1034D00078001015820090158C001016960090163A
:1034E000A0001017AA009017B4001018BE00901882
:1034F000C8001019D2009019DC00101AE600801ADA
:10350000F000001BFA00801B0401F01B0E01701C70
:103510001801F01C2201601D2C01E01D3601501E17
:103520004001D01E4A01401F5401B01F5E013020EF
:103530006801A020720110217C01902186010022E7
:1035400090016026F401902A5802802EBC0250326D
:103550002003E03584035039E803803C4C042020EC
:10356000506C616E6E657242756666657242797402
:1035700065733A20002046726565204D656D6F7257
:10358000793A200020436F6D70696C65643A204180
:10359000707220313420323032330A00204C617393
:1035A0007420557064617465643A20323032332D72
:1035B00030342D3031207C20417574686F723A2090
:1035C00028436F6F6C5A65726F4E4C2C2064656691
:1035D00061756C7420636F6E666967290A004D61BE
:1035E000726C696E206275676669782D322E312E95
:1035F000780A0020536F6674776172652052657394
:1036000065740A00205761746368646F67205265AF
:103610007365740A002042726F776E206F75742094
:1036200052657365740A002045787465726E616C2A
:103630002052657365740A00506F77657255700A81
:103640000073746172740A004739322045300A47AA
:103650003120452D330A4732385859004D3130302A
:1036600031006572726F722077726974696E6720BB
:10367000746F2066696C650A00446F6E6520736123
:1036800076696E672066696C652E0A004D323900D6
:10369000456E6473746F7073002553202563202575
:1036A0006320256320256300205A3A0020593A0000
:1036B00020583A00656E6473746F70732068697483
:1036C0003A200000002200250028002B002E0031A7
:1036D00000340002010000050108010B0105050589
:1036E00005070508080808020202020A0A08080479
:1036F00004040401010101010101010303030303A7
:10370000030303040707070C0C0C0C0C0C0C0C0235
:1037100002020206060606060606060B0B0B0B0B3C
:103720000B0B0B07070A0A0A0A0A0A050505040417
:103730000408080102102020080810204010204032
:103740008002010201080402010102040810204065
:103750008080402010080402018004020180402083
:1037600010080402010804020101020408102040AC
:1037700080010204081020408010080408801020F6
:1037800040044080102040048000000A0B02090C15
:103790000D0E0807030401000000000000000000F7
:1037A0000000000000000000000000000000000019
:1037B00000000000001211100000000000000000D6
:1037C00000000000000000000000000000000000F9
:1037D0000000000000000000000000000000004D9C
:1037E0006F766520246D6D00302E303235004D6FC0
:1037F000766520302E316D6D004D6F766520316D10
:103800006D004D6F76652031306D6D004D6F7665C2
:103810002041786973004D6F7665202A004D6F76E0
:1038200065204000B233AE33AB334368616E6765E9
:103830002046696C616D656E7400556E6C6F6164D5
:103840002046696C616D656E74004C6F6164204642
:10385000696C616D656E7400507265686561742095
:10386000437573746F6D00507265686561742024D0
:10387000004261636B0020005072696E74206672B2
:103880006F6D204D656469610020002000457272F3
:103890006F722077726974696E6720746F20454576
:1038A00050524F4D210A0020746F6F206C6F6E676D
:1038B00020657874727573696F6E207072657665B5
:1038C0006E7465640A0020636F6C6420657874729E
:1038D0007573696F6E2070726576656E7465640AC3
:1038E0000073686F7700626567696E005075726774
:1038F000654D6F72650050617573656400436F6E4E
:1039000074696E7565004C6F61642046696C616D09
:10391000656E74205400496E736572742066696C1C
:10392000616D656E7420616E642073656E64204DF8
:103930003130380A00486F6D696E67204661696CE6
:10394000656400FF0101204500205A002059002035
:10395000204D3932205800537465707320706572A1
:1039600020756E697400220A00556E6B6E6F776E5B
:1039700020636F6D6D616E643A202200204200204A
:1039800050006F6B00486F6D65202573204669728B
:103990007374006F6B0A00526573656E643A2000A1
:1039A00020453A00205A3A0020593A00583A00552A
:1039B0006C74696D616B657220322B205265616495
:1039C000792E005072696E74696E672E2E2E00502B
:1039D00072696E742050617573656400CC00C40018
:1039E00011241FBECFEFD1E2DEBFCDBF00E00CBF80
:1039F00084B78093E51F14BE0FB6F894A895809104
:103A00006000886180936000109260000FBE14E037
:103A1000A0E0B2E0EAEFF2EA02E00BBF02C00790DA
:103A20000D92AE30B107D9F72FE1AEE0B4E001C09E
:103A30001D92A53EB207E1F71CE1CFEEDCE100E00C
:103A400006C021970109802FFE010F94234ECE3E20
:103A5000D10780E00807A9F70F9432400D946C510C
:103A60000C94000020910106260F3327331F2132CA
:103A70003105ECF42091481CFC0190E080E02430FA
:103A800069F082E00895A09101062191AC014F51A7
:103A90005A4FA40FB52FB11D2C930196861798F39A
:103AA00080910106680F6093010680E0089581E02F
:103AB0000895089508950895E091CF1D8091CE1D39
:103AC000E81730F4F0E0EC5DFA4F808190E0089563
:103AD0008FEF9FEF08959091CF1D8091CE1D2FEF16
:103AE0003FEF981748F4E92FF0E0EC5DFA4F2081A2
:103AF00030E09F5F9093CF1DC90108958091CE1D46
:103B00009091CF1D891B990B0895CF92DF92EF9270
:103B1000FF920F931F93CF93DF937C01CB018A0118
:103B200020914E1C222389F0EB016B01C40ED51E9F
:103B3000CC15DD0561F06991D701ED91FC91019003
:103B4000F081E02DC7011995F3CF642F8BDFC801F9
:103B5000DF91CF911F910F91FF90EF90DF90CF9069
:103B60000895CF93DF931F92CDB7DEB7698320917D
:103B70004E1C2223F9F02091CC1D203258F021E078
:103B800030E0FC013383228390E080E00F90DF91EE
:103B9000CF9108958091CD1DE82FF0E0E15BF34EC9
:103BA000998190838F5F8093CD1D8093CC1D81E0A0
:103BB00090E0ECCF61E0CE01019654DFF8CF8BE1CD
:103BC000EAECFCE1AFEABCE101900D928A95E1F7E5
:103BD000E7E5FFE180818064808310924C1F8FEFC6
:103BE0009FEF90933B0280933A0208950F931F93A7
:103BF000CF93DF93CDB7DEB760970FB6F894DEBFF3
:103C00000FBECDBF8C01DC01ED91FC910280F381F0
:103C1000E02DBE016F5F7F4F1995882309F464C0C2
:103C20008981807CC9F56F81637070E0762F66278B
:103C3000770F770F8885B4E08B9FC0011124682B24
:103C4000792B89858295869586958370682B6F5F21
:103C50007F4F90E080E02A852370220F3B8537FB61
:103C6000332730F9232B3E813F70230F3327331F37
:103C70002750310904C0660F771F881F991F2A95A6
:103C8000D2F760960FB6F894DEBF0FBECDBFDF91BE
:103C9000CF911F910F910895803419F5688566952D
:103CA000669570E090E080E0CB01772766272A8553
:103CB000622B098510E0102F0027012E000C220B2B
:103CC000330B602B712B822B932B6F5F7F4F8F4FAA
:103CD0009F4F4AE0660F771F881F991F4A95D1F7BB
:103CE000D0CF8BE0F801848360E070E0CB01C9CFD6
:103CF0000895FC01828108952F923F924F925F9226
:103D00006F927F928F929F92AF92BF92CF92DF92EB
:103D1000EF92FF920F931F93CF93DF9300D000D0C9
:103D2000CDB7DEB7DC010D90BC91A02DBE83AD8375
:103D300018966D917C91072E000C880B990B0F94AF
:103D4000B2496B017C0120E030E0A9010F94AC493D
:103D50008823E1F0AD81BE8114968D919D910D90E7
:103D6000BC91A02D89839A83AB83BC839C01AD0158
:103D7000C701B6010F94314E4B015C0120E030E0E9
:103D800040EF51EC0F94AC4987FF08C081E0ED8112
:103D9000FE818387C12CD12C7601DCC020E030E08D
:103DA00040EF51E4C501B4010F945850181664F463
:103DB00081E0AD81BE811B968C93C12CD12C8FE705
:103DC000E82E83E4F82EC6C0ED81FE81838588232A
:103DD00049F013861486158616861786148E158E5E
:103DE000168E178EAD81BE8194964D905D906D902C
:103DF0007C9097971C962D913D914D915C911F97CA
:103E0000C501B4010F94324EF62EE72ED82EC92EDE
:103E100020E030E0A9010F94AC4987FDB6C0A301B2
:103E2000920160E070E08FE793E40F940E4F162F3D
:103E3000072F382E292E2F2D3E2D4D2D5C2D0F9422
:103E4000AC4987FF02C0780161018F2D9E2DAD2DF9
:103E5000BC2DED81FE8184879587A687B78720A139
:103E600031A142A153A1C501B4010F94114A4B01E4
:103E70005C01AD81BE8154968D929D92AD92BC92B3
:103E800057972F2D3E2D4D2D5C2DC301B2010F9460
:103E9000114A2B013C01ED81FE81408E518E628ED4
:103EA000738EC48CD58CE68CF78C29813A814B813A
:103EB0005C8160897189828993890F94314EAD81CB
:103EC000BE8198962D913D914D915C919B970F9459
:103ED000114AA70196010F94314E20E037ED43E2DD
:103EE0005CE30F94114AA70196010F94324E6B01C7
:103EF0007C01ED81FE81C48ED58EE68EF78E8981A0
:103F00009A81AB81BC81808B918BA28BB38BA301F7
:103F10009201C501B4010F94324EA70196010F948E
:103F2000324E20E030E0A9010F94324E6B017C014B
:103F300020E030E0A9010F94AC4987FD2BCF20E0B1
:103F400030E04FE753E4C701B6010F9458501816FC
:103F50000CF433CFC701B60126960FB6F894DEBF36
:103F60000FBECDBFDF91CF911F910F91FF90EF90CA
:103F7000DF90CF90BF90AF909F908F907F906F9089
:103F80005F904F903F902F900895F12CE12CD12C11
:103F9000C12C5BCFCF93DF93C0912B1DD0912C1DF3
:103FA00081E0CE31D105E4F020E030E040E05FE395
:103FB0006091271D7091281D8091291D90912A1DC7
:103FC0000F94324E0F94764F6C1B7D0B77FF03C01E
:103FD00071956195710981E0633071050CF080E0A5
:103FE000DF91CF910895FC0190E1A0EBB5E0019045
:103FF0000D929A95E1F708950F931F9320912D024A
:10400000203148F0F4E09695879577956795FA9575
:10401000D1F722952F70243048F0E2E096958795ED
:1040200077956795EA95D1F726952695223020F069
:104030009695879577956795611528E072078105B4
:104040009105C8F081114BC023E0729FA00111249B
:104050004E51534FFA0125913491FA013296E49171
:104060006E9F412D1124000C411DC901841B910933
:104070001F910F910895613271058105910550F1ED
:1040800060527109810991098B019C0183E0369589
:104090002795179507958A95D1F7000F111F000FE7
:1040A000111F0E51174FF80125913491F8013296E6
:1040B000459154916770649FC001659F900D1124D4
:1040C00043E0969587954A95E1F7A901481B590B5E
:1040D000CA01CECFE2EEF8E085919491C9CF8EE18E
:1040E00090E0C6CFEF92FF920F931F93E09281046E
:1040F000F0928204009383041093840460938504F7
:1041000070938604809387049FEFFF27621B730BD5
:10411000840B30F4809570956195790B890B992704
:1041200090937007A6E06A9F00926407512DEE27D6
:104130007A9F500DE11D8A9FE00D50936507E09333
:104140006607AFE06A9F00926807512DEE277A9FBD
:10415000500DE11D8A9FE00D50936907E0936A07B7
:10416000AAE06A9F00926C07512DEE277A9F500DAE
:10417000E11D8A9FE00D50936D07E0936E071F913C
:104180000F91FF90EF9008959F92AF92BF92CF92C0
:10419000DF92EF92FF920F931F93CF93DF9300D0A4
:1041A0001F921F92CDB7DEB7E8E9F5E00027BB27E5
:1041B000462F572FA82FAA2341F4A52F542FB85FBD
:1041C000AA2319F4A52F5527B85FA03138F45295CA
:1041D000A295452F4F70507FA42BBC5FA03428F4CC
:1041E000550FAA1F550FAA1FBE5FA03818F4550F10
:1041F000AA1FB395550FAA1FEA0FF01F449151E073
:10420000AA27B85079F1C0F0B0FF02C0440F551F83
:10421000B1FF04C0440F551F440F551FB2FF06C025
:1042200052954295142F1F70407F512BB3FF1AC037
:10423000A52F542F442716C0B195B0FF02C0559545
:104240004795B1FF04C05595479555954795B2FFE1
:1042500005C05295407F4295452B5F70B3FF02C069
:10426000452F5527DD24CC24BB24B2E0649FD01811
:10427000C108B00AB00B749FC018B108B00B849F7E
:10428000B018B109659FC018B108B00B759FB01880
:10429000B109859FB0196A9FB018B1097A9FB0190A
:1042A0004D9DA12C99243327992722275D9DA00C91
:1042B000911C301F901F201FAD9D900C311D901F31
:1042C000201F4C9DA00C911C301F901F201F5C9D37
:1042D000900C311D901F201FAC9D300D911D201F93
:1042E0004B9D900C311D901F201F5B9D300D911D2B
:1042F000201FAB9D900D211D4B9F300D911D201F48
:104300005B9F900D211DAB9F200DB1E0BB24CC2401
:10431000DD24639FD018C108B00AB00B739FC0188A
:10432000B108B00B839FB018B109699FC018B108DC
:10433000B00B799FB018B109899FB019629FB0186E
:10434000B109729FB019D61AC70AB80A20F0B1E0B5
:104350003B0F901F201F1124792F632F90E0822F95
:104360000F900F900F900F900F90DF91CF911F91B2
:104370000F91FF90EF90DF90CF90BF90AF909F9004
:104380000895CF92DF92EF92FF9280915704882395
:1043900009F457C0C0905304D0905404E0905504E1
:1043A000F090560420E030E0A901C701B6010F9457
:1043B000AC49882309F445C020E030E040E05FE3E9
:1043C000C701B6010F94114A9B01AC010F94114A29
:1043D0002BED3FE049E450E40F94114A9B01AC01FE
:1043E00060E070E080E89FE30F940E4F6B017C016A
:1043F000C0923B04D0923C04E0923D04F0923E0413
:1044000060910A0270910B02072E000C880B990B29
:104410000F94B2492AE037ED43E25CE30F94114A6E
:10442000A70196010F94114A6093690270936A0282
:1044300080936B0290936C02FF90EF90DF90CF908F
:104440000895C12CD12C80E8E82E8FE3F82ED0CF30
:104450002F923F924F925F926F927F928F929F9294
:10446000AF92BF92CF92DF92EF92FF920F931F9382
:10447000CF93DF93CDB7DEB764970FB6F894DEBF66
:104480000FBECDBFDC01CD90DD90ED90FC90139779
:1044900014962D913D914D915C91179729873A87FC
:1044A0004B875C8720E030E040E251E4C701B60171
:1044B0000F94314E21E33BE641E25CE30F94114A55
:1044C0000F94764F16160CF01EC161E0662E660F33
:1044D0007708F301EE0FFF1FEE0FFF1FEE5CF14EAA
:1044E00080809180A280B38083010F5F1F4F20E006
:1044F00030E040E251E469857A858B859C850F9494
:10450000314E21E33BE641E25CE30F94114A0F9404
:10451000764F16160CF0FBC061E0E62F660FFF0B1E
:10452000FC8BEB8BEE0FFF1FEE0FFF1FEA5DF14ED2
:10453000208131814281538129833A834B835C837B
:104540002B883C883FEF231A330AB301660F771F8D
:10455000AB01460D571D5E874D87FA018B899C89FB
:10456000E80FF91FEE0FFF1FEE0FFF1FE85AFB4F7A
:1045700020813181428153812D833E834F8358872F
:10458000F801EE0FFF1FEE0FFF1FEE5CF14EA501CD
:10459000940160817181828193810F94314E6F8784
:1045A000788B898B9A8BA5019401C701B6010F9472
:1045B000314E2B013C01C801880F991F080F191FAC
:1045C0004B895C89400F511F440F551F440F551FE5
:1045D000485A5B4F5C8B4B8B2D813E814F815885B8
:1045E000AB89BC896D917D918D919C910F94314ED9
:1045F0002F85388949895A890F940E4FA30192015A
:104600000F94114A2D813E814F8158850F94324E6F
:104610006B017C01ED85FE85E20DF31DEE0FFF1FA2
:10462000EE0FFF1FE85AFB4F80809180A280B3807D
:10463000020D131DF801EE0FFF1FEE0FFF1FE85ACA
:10464000FB4FA501940160817181828193810F9458
:10465000314E2F85388949895A890F940E4FA3010D
:1046600092010F94114AA50194010F94324EA701B3
:1046700096010F94314E4B015C01F101EE0FFF1FCB
:10468000EE0FFF1FEA5DF14E29813A814B815C817B
:1046900060817181828193810F94314E9B01AC01C5
:1046A000C501B4010F940E4F4B015C0129813A8181
:1046B0004B815C8169857A858B859C850F94314E11
:1046C0009B01AC01C501B4010F94114AA7019601E9
:1046D0000F94324E64960FB6F894DEBF0FBECDBF76
:1046E000DF91CF911F910F91FF90EF90DF90CF90CE
:1046F000BF90AF909F908F907F906F905F904F9002
:104700003F902F90089567FFE1CE60E0DFCE67FF16
:1047100004CF60E002CFFC017081472F50E0062EED
:1047200002C0559547950A94E2F740FF14C04091A6
:104730001E0450E0062E02C0559547950A94E2F7F4
:1047400040FF09C021E030E001C0220F6A95EAF77E
:10475000209527232083089560910A0270910B020F
:10476000072E000C880B990B0F94B2492AE037ED05
:1047700043E25CE30F94114A20913B0430913C04E6
:1047800040913D0450913E040F94114A6093690298
:1047900070936A0280936B0290936C0208958091EB
:1047A000EB0A811104C08091110480931D0B0895C0
:1047B00061E0FC0183810F9489348FEF0C947EF3C8
:1047C000CF93DF93EC016EBDFA01CA019E5F0DB479
:1047D00007FEFDCF20812EBD0DB407FEFDCF218148
:1047E0002EBD3296E817F90791F70DB407FEFDCFFD
:1047F0008FEF0E947EF38FEF0E947EF30E9483F37F
:104800008E838F71853041F083E18C83CE01D0DFC0
:1048100080E0DF91CF91089581E0FBCF8F929F924E
:10482000AF92BF92EF92FF920F931F93CF93DF93BC
:104830008C01EB017A010F9482374B015C012CE271
:10484000820E21E0921EA11CB11C0E9483F3F8018C
:1048500086838F3F69F40F948237681979098A0932
:104860009B0997FDF2CF81E1F8018483C0E021C06C
:104870008E3F69F5F1E0EF1AF1088FEF8EBDFE0172
:104880002FEF0DB407FEFDCF8EB581932EBDCF0166
:104890008C1B9D0B8E159F05A0F30DB407FEFDCF5D
:1048A0008EB5CE0DDF1D88830E9483F30E9483F3B3
:1048B000C1E0C8017DDF8C2FDF91CF911F910F9157
:1048C000FF90EF90BF90AF909F908F9008958FE0F2
:1048D000CBCFCF93DF93C0912B1DD0912C1D209770
:1048E00029F16091271D7091281D8091291D9091BB
:1048F0002A1D0F94764F6E5F7F4F24976C177D07AC
:10490000ACF47093DB056093DA050F948237605C3A
:1049100073468F4F9F4F6093DC057093DD05809346
:10492000DE059093DF05DF91CF9108951092DC05AD
:104930001092DD051092DE051092DF05F4CFCF93C3
:10494000DF93EC018D810E948AF360E08B81DF911F
:10495000CF910D9489340F931F93CF938C01EFDF88
:104960000F94EE37C82F882369F08DEF0E947EF3F5
:104970000F94EE37C82FC8011BDF8C2FCF911F91EA
:104980000F91089582E1F8018483F5CF0F931F936F
:10499000CF93DF93EC018B01D2DF0F94EE378111BF
:1049A0000BC085E18C8310E0CE0102DF812FDF9107
:1049B000CF911F910F910895A8016CEFCE0100DFF8
:1049C000182F882371F3F0CF0F931F93CF93DF93AA
:1049D000EC018B01B4DF40E052E0B801CE01DF9181
:1049E000CF911F910F911ACFDF92EF92FF920F9309
:1049F0001F93CF93DF938C01C62FD22FF32EE42E7B
:104A0000D52E9DDF0F94EE378C2F80640E947EF3AD
:104A10008D2D0E947EF38E2D0E947EF38F2D0E949D
:104A20007EF38D2F0E947EF387E8C11101C085E9D6
:104A30000E947EF3CC3011F40E9483F3C0E00E9408
:104A400083F3F801868387FF04C0CF3F11F0CF5F67
:104A5000F6CFDF91CF911F910F91FF90EF90DF90F4
:104A600008958F929F92AF92BF92CF92DF92EF9272
:104A7000FF920F931F93CF93DF93EC016A017B01A9
:104A8000590120E030E0A90167E3AEDFA5019801FC
:104A900067E1CE01A9DF811125C08F81833039F014
:104AA00089E0CC0CDD1CEE1CFF1C8A95D1F7A70118
:104AB000960169E1CE0198DF11E0882319F010E03A
:104AC00087E08C83CE0174DE812FDF91CF911F911F
:104AD0000F91FF90EF90DF90CF90BF90AF909F909D
:104AE0008F90089589E08C8310E0ECCF0F931F9393
:104AF000CF93DF93EC0189018F81833039F089E016
:104B0000440F551F661F771F8A95D1F79A01AB0195
:104B100068E1CE0169DF811127C0A8016EEFCE01E7
:104B20004FDE182F8823A9F00F94EE37182F882313
:104B3000C1F020E030E0A9016DE0CE0155DF88230F
:104B400021F086E18C8310E004C00E9483F3811180
:104B5000F8CFCE012DDE812FDF91CF911F910F91E4
:104B6000089587E18C83F5CF86E0ECCF1F93CF9338
:104B7000DF93EC01E4DE20E030E0A9016CE0CE013F
:104B800033DF11E0882319F010E083E08C83CE013D
:104B90000FDE812FDF91CF911F9108951F93CF9347
:104BA000DF93EC018F81833039F089E0440F551F8A
:104BB000661F771F8A95D1F79A01AB0162E1CE019A
:104BC00013DF11E0882319F010E085E08C83CE011B
:104BD000EFDD812FDF91CF911F9108950F931F93E8
:104BE000CF93DF93EC0189018F81833039F089E025
:104BF000440F551F661F771F8A95D1F79A01AB01A5
:104C000061E1CE01F1DE811109C040E052E0B8015E
:104C1000CE01DF91CF911F910F9100CE84E08C8364
:104C2000CE01C6DD80E0DF91CF911F910F910895F5
:104C30008F929F92AF92BF92CF92DF92EF92FF92AC
:104C40000F931F93CF93DF93EC01162F1F821C82CB
:104C50004B830F9482376B017C0120EDC20E27E05D
:104C6000D21EE11CF11CA89561E08B810F94893460
:104C70008B8190E0FC01ED5CF84C24918352994CBF
:104C8000FC018491882399F090E0880F991FFC0122
:104C9000E450FF4EA591B491FC01ED53F94C859180
:104CA00094918FB7F894EC912E2B2C938FBF209A70
:104CB000289A219A2398229A81E00E948AF385E01B
:104CC0008D830E948AF30AE08FEF0E947EF30150E9
:104CD000D9F7A89520E030E0A90160E0CE0184DE9C
:104CE0008E83813079F00F9482376C197D098E099B
:104CF0009F0997FDEFCF81E08C83CE0159DD1A82A9
:104D000080E065C0A8952AEA31E040E050E068E024
:104D1000CE016ADE853031F581E08F83A8958F81E1
:104D2000812C912C5401823029F4812C912CA12CBE
:104D300080E4B82E20E030E0A90167E3CE0154DE24
:104D4000A501940169E2CE014FDE8E838823F1F044
:104D50000F9482376C197D098E099F0997FDEACF60
:104D60008AE0CACF04E00E9483F38E830150D9F712
:104D70008A3A11F482E0D1CF0F9482376C197D0901
:104D80008E099F0997FDBFCF82E0B6CF8F81823019
:104D9000B9F420E030E0A9016AE3CE0125DE8823E2
:104DA00011F088E0A9CF0E9483F3807C803C11F44D
:104DB00083E08F830E9483F30E9483F30E9483F336
:104DC000CE01F6DC81E08A83173070F41D83DF9119
:104DD000CF911F910F91FF90EF90DF90CF90BF90F8
:104DE000AF909F908F90089588E18C8389CF0F9327
:104DF0001F93CF93DF93EC018B0120E030E0A901FA
:104E000069E0F2DD811109C040E150E0B801CE0156
:104E1000DF91CF911F910F9101CD80E18C83CE0165
:104E2000C7DC80E0DF91CF911F910F9108958F92A1
:104E30009F92AF92BF92CF92DF92EF92FF920F9329
:104E40001F93CF934B015A0168017901C2E48F3F50
:104E500009F0C4E580E20E94CBD18C2F0E94CBD117
:104E60008AE30E94CBD1F4016081718182819381B8
:104E700042E00F945F1E8CEE90E10E941CD2F5017F
:104E8000608171818281938142E00F945F1E20E0F6
:104E900030E040E85DE3C701B6010F94114AAB0171
:104EA000BC0189EE90E10E94C5D789E20E94CBD176
:104EB00062E070E080E090E0CF911F910F91FF9051
:104EC000EF90DF90CF90BF90AF909F908F900D9418
:104ED000EA364091800421E0422764E070E00D94BE
:104EE000822C4091800421E0422761E070E00D9423
:104EF000822C4091800421E042276CE070E00D9408
:104F0000822C4091800421E0422761E070E00D9402
:104F1000822C4091800421E0422768E070E00D94EB
:104F2000822C4091800421E0422762E070E00D94E1
:104F3000822C4091800421E042276CE070E00D94C7
:104F4000822C41E061E070E00D94822C409180045D
:104F500021E042270D94822C62E070E00D941B3713
:104F600064E070E00D941B3761E070E00D941B3736
:104F700061E070E00D941B376CE070E00D941B371E
:104F8000CF93C82FCB010E941CD282E193E00E94F4
:104F90001CD283E093E0CC2311F088E093E0CF9122
:104FA0000C945FD920E040E070E060E082EB92E595
:104FB0000E94397D81E08093100410920F041092BA
:104FC0000E04089520E040E070E060E080E49AE2A2
:104FD0000C94397D3F924F925F926F927F928F92A5
:104FE0009F92AF92BF92CF92DF92EF92FF920F9378
:104FF0001F93CF93DF9361E081E00E94DB7CC0913F
:10500000E00A85E0682E6C0E02E094E1E92E92E061
:10501000F92ED4E0DC1B7724739429E1C22E22E020
:10502000D22E13E01C1B35E2A32E32E0B32E502EFD
:105030005C1A44E3842E42E0942E472C4C1A3C2EFA
:105040003194C11138C08091DF0A8823B1F080917A
:105050006802882359F081E09091DF0A911180E085
:1050600024E048E352E0632D0F94AD2FCF5FC611CB
:10507000E8CF85E08093D80A0CC08091DA0A1092BC
:10508000DA0A882321F30E94D27E8091D90A8823EC
:10509000F1F2DF91CF911F910F91FF90EF90DF9090
:1050A000CF90BF90AF909F908F907F906F905F90C8
:1050B0004F903F900895C13001F59091DF0A9130F3
:1050C00069F080916802882389F281E0913009F0CB
:1050D00080E020E24AE252E0642DC6CF8091DA0AF5
:1050E0001092DA0A882369F390927E0A80927D0AF0
:1050F0008091D90A882329F3CCCFC23009F065C04A
:105100001092EB0A1092EF0A1092EE0A1092ED0A3A
:105110001092EC0A9091DF0A923071F0809168024F
:10512000882309F4A3CF81E0923009F080E020E2E7
:105130004EE152E0652D98CF8091DA0A1092DA0A9A
:10514000882361F3B0927E0AA0927D0A8091D90AE9
:10515000882321F39ECF7092EB0A1092EF0A1092EF
:10516000EE0A1092ED0A1092EC0A9091DF0A933049
:1051700071F080916802882309F478CF81E0933040
:1051800009F080E020E24EE152E0612F6DCF809186
:10519000DA0A1092DA0A882361F3D0927E0AC0926A
:1051A0007D0A8091D90A882321F373CF8091DA0A8E
:1051B0001092DA0A8823E1F0F0927E0AE0927D0AEA
:1051C0008091D90A8823A1F064CFC33021F2C43082
:1051D00009F04CCF0093EB0A1092EF0A1092EE0AFE
:1051E0001092ED0A1092EC0A9091DF0A9430F1F2DD
:1051F00080916802882309F439CF81E0943009F066
:1052000080E020E24EE152E06D2F2ECF609111043C
:105210008FEF0D944D3D80911104682F0D944D3DFD
:105220006FEF809111040D944D3D4F925F926F92FC
:105230007F928F929F92AF92BF92CF92DF92EF9226
:10524000FF920F931F93CF93DF930091110461E0BE
:1052500081E00E94DB7CC091E00A10E0000F111F8A
:105260000C5D174C95E0592E5C0E2DE6E22E22E0E7
:10527000F22ED3E0DC1B30E1C32E39E2D32E4BE714
:10528000A42E42E0B42E82E0782E7C1A53EB852EB9
:1052900052E0952E81E0682E6C1A4C2E4194C1117B
:1052A00037C08091DF0A8823B1F08091680288239B
:1052B00059F081E09091DF0A911180E024E049E803
:1052C00052E0642D0F94AD2FCF5FC511E8CF84E07D
:1052D0008093D80A0CC08091DA0A1092DA0A8823E7
:1052E00021F30E94D27E8091D90A8823F1F2DF91C6
:1052F000CF911F910F91FF90EF90DF90CF90BF90D3
:10530000AF909F908F907F906F905F904F90089597
:10531000C13089F5F801859194911092EB0A909330
:10532000EF0A8093EE0A1092ED0A1092EC0A809137
:10533000DF0A813081F080916802882329F21F9270
:105340009F928F926F9281E09091DF0A913009F4E1
:105350007FC080E07DC08091DA0A1092DA0A88234B
:1053600051F380911104682F0F944D3D8091D90A1B
:10537000882309F3BCCFC23009F047C0F8018591FA
:1053800094911092EB0A9093EF0A8093EE0A109298
:10539000ED0A1092EC0A8091DF0A8230D1F0809100
:1053A0006802882309F490CFDF92CF92BF92AF9228
:1053B0007F9281E09091DF0A923009F080E08F9334
:1053C0000E94CD7C0F900F900F900F900F900F9038
:1053D0007BCF8091DA0A1092DA0A882301F320DF6A
:1053E0008091D90A8823D9F282CF8091DA0A10926B
:1053F000DA0A8823F1F0609111048FEF0F944D3D8C
:105400008091D90A8823A9F072CFC33009F05CCF0C
:10541000F801859194911092EB0A9093EF0A809392
:10542000EE0A1092ED0A1092EC0A8091DF0A8330A6
:10543000E1F280916802882309F446CF1F92FF921F
:10544000EF92DF9381E09091DF0A933009F081CFF2
:105450008F930E94CD7C0F900F900F900F900F9024
:1054600033CF65E47AE282E00D94BD3B68E47AE2F2
:1054700081E00D94BD3B6BE47AE280E00D94BD3B8E
:105480006EEA70E683E00D94BD3B82E00C9429A1A6
:1054900081E00C9429A180E00C9429A1CF92DF92A5
:1054A000EF92FF920F931F9387EEC82E81E0D82EC4
:1054B000F12CE12C09EE11E030E020E042EE57E261
:1054C00069EF71E08EEF91E00E943C8C1F910F918B
:1054D000FF90EF90DF90CF900895CF93DF9300D0AF
:1054E0001F92CDB7DEB78DEC9CECACECBCE38983AE
:1054F0009A83AB83BC83CE0101960E94767D0F9088
:105500000F900F900F90DF91CF910895CF93DF937D
:1055100000D01F92CDB7DEB78DEC9CECACECBDE3B8
:1055200089839A83AB83BC83CE0101960E94767DEA
:105530000F900F900F900F90DF91CF9108950F93E0
:10554000FC010150040F84A996A9941788F008174C
:1055500010F4041778F42150260F83A995A9961703
:1055600058F0281760F481E0261720F40F91089571
:10557000081778F780E0FACF2817A8F7FBCF81E06B
:10558000F5CF4F925F926F927F928F929F92AF92E0
:10559000BF92CF92DF92EF92FF920F931F93CF9320
:1055A000DF93EC01562E142F622E402E220F220F75
:1055B000220FC5DF882319F1410E5E018CE1A80E90
:1055C000B11C862C912C762C052D6701F601849157
:1055D0006A817B810C8F1D8F1F8E8E8F95014BE30F
:1055E000CE010F945838FFEFCF1ADF0A7A94085F84
:1055F0007110ECCFE80CF91C1F5F4112E4CFDF9172
:10560000CF911F910F91FF90EF90DF90CF90BF90BF
:10561000AF909F908F907F906F905F904F90089584
:105620001092481C81E08093471C1092221C61E07C
:1056300084E10F94893461E085E10F948934E9EBCA
:10564000F0E080818E7F808380818D7F808388E4FD
:105650008093B80085E48093BC000895CF93DF93D6
:1056600091E09093E0058823B1F0C091B800D0910B
:10567000BA008091BC008A7B8093BC0060E084E12A
:105680000F94893460E085E10F948934C9DFD093A9
:10569000BA00C093B800DF91CF91089585ED809353
:1056A000BC0080914A1C90914B1CA0914C1CB09165
:1056B0004D1C0796A11DB11D23E0B695A7959795A2
:1056C00087952A95D1F72091BC0024FD03C0109244
:1056D000481C089540914A1C50914B1C60914C1CF1
:1056E00070914D1C452B462B472B69F30097A10564
:1056F000B10541F025E32A95F1F700000197A109D2
:10570000B109E1CF8091491CA9CF1F920F920FB62A
:105710000F9211240BB60F922F933F934F935F93E9
:105720006F937F938F939F93AF93BF93EF93FF9369
:105730008091B900887F803609F44CC008F03FC0E2
:10574000883209F4A8C028F5803109F49CC0C8F457
:10575000882309F4FAC0883009F495C0FF91EF91CD
:10576000BF91AF919F918F917F916F915F914F9179
:105770003F912F910F900BBE0F900FBE0F901F9077
:105780001895883109F487C0803241F78093461C10
:1057900014C0803409F49CC040F48033B9F38833DA
:1057A000E9F68093461C85ECAFC0803509F484C0CF
:1057B000883509F495C0883489F670DFCFCF8839F1
:1057C00009F48CC038F5883729F050F4883611F088
:1057D000803721F683E08093481C1092230657C03F
:1057E000883809F47BC0803919F0803809F0B6CFC9
:1057F00080912306803208F071C0E091230681E099
:105800008E0F809323068091BB00F0E0ED5FF94F8F
:1058100080833DC0803B39F0E0F4803A09F479C0E0
:10582000883A09F09BCF84E08093481C10920206CE
:1058300010920106E091C81DF091C91D1995809143
:10584000010681110FC081E0809301061092E105ED
:1058500009C0803C09F4A7CF883C09F4A4CF883B59
:1058600009F07CCFE091020681E08E0F8093020662
:10587000F0E0EF51FA4F80818093BB0090910206D7
:105880008091010629C08091231C8093BB0085EC88
:105890008093BC0063CF9091451C8091441C981765
:1058A00058F5E091451C81E08E0F8093451CF0E097
:1058B000EC5DF34E8081E9CFE091451C81E08E0FD5
:1058C0008093451C8091BB00F0E0EC5DF34E80833B
:1058D0009091451C8091441C9817C8F285E8D8CF58
:1058E000E091451C81E08E0F8093451C8091BB00A8
:1058F000F0E0EC5DF34E80838091471C81115DCF19
:1059000081E08093221C84EA8093BC001092481CA2
:1059100025CF85EC8093BC001092481C8091230613
:10592000803230F4E0912306F0E0ED5FF94F108211
:105930006091230670E0E091CA1DF091CB1D83E0D9
:1059400096E019951092230609CF1092461C35CF88
:105950008DE00E94CBD18AE00C94CBD1CF93DF9322
:10596000EC018991882319F00E94CBD1FACFDF9105
:10597000CF9108950E9477C58AE00C94CBD11F93F4
:10598000CF93DF93182FEB010E941BD58DEB92E193
:105990000E941CD289EA92E1113011F48FEA92E15F
:1059A0000E941CD2BE0185EB92E1DF91CF911F9145
:1059B000E1CF8091571F82FD04C00E946ACF8823E7
:1059C000D1F04091531F5091541F6091551F709119
:1059D000561F87E992E10E94D8D28FE20E94CBD174
:1059E00060914F1F7091501F8091511F9091521FD5
:1059F0000F94DB1DADCF86E892E10C941CD2BC0164
:105A000088EA91E10E9477C585EA91E10C941CD265
:105A10008091571F84FF04C08460877F8093571F45
:105A20000895CF92DF92EF92FF920F931F93CF933F
:105A3000DF93CDB7DEB7EDB6FEB6DC010D900020EA
:105A4000E9F79D01281B390B285F3F4FEDB7FEB7E3
:105A5000E21BF30B0FB6F894FEBF0FBEEDBF0DB700
:105A60001EB70F5F1F4F9F938F938EE991E19F9316
:105A70008F931F930F930F9445496801F4E0CF0E65
:105A8000D11C0F900F900F900F900F900F90D60198
:105A90008D916D01882349F0082E000C990B0F940D
:105AA000FA50F60131978083F2CF69E971E1C801BC
:105AB0000F94DE484FE350E0B8018FE79AE00F946F
:105AC00052510FB6F894FEBE0FBEEDBEDF91CF91DE
:105AD0001F910F91FF90EF90DF90CF900895FC0100
