:100000000C948F1B0C94CF1B0C94CF1B0C94CF1B08
:100010000C94CF1B0C94CF1B0C94CF1B0C94CF1BB8
:100020000C94CF1B0C94CF1B0C94CF1B0C94CF1BA8
:100030000C94CF1B0D947A170C94CF1B0C94CF1BF0
:100040000C94CF1B0C94DFC20C94CF1B0C94CF1BD1
:100050000C94CF1B0C94BBC10C94CF1B0D94301788
:100060000C94CF1B0C948D870C9483870C94CF1B1E
:100070000C94CF1B0C94CF1B0C94CF1B0C94CF1B58
:100080000C94CF1B0C94CF1B0C94CF1B0C94CF1B48
:100090000C94CF1B0C94CF1B0C94CF1B0C94CF1B38
:1000A0000C94CF1B0C94CF1B0C94CF1B0C94CF1B28
:1000B0000C94CF1B0C94CF1B0C94CF1B0C94CF1B18
:1000C0000C94CF1B0C94CF1B0C94CF1B0C94CF1B08
:1000D0000C94CF1B0C94CF1B0C94CF1B0C94CF1BF8
:1000E0000C94CF1B084AD73B3BCE016E84BCBFFDAE
:1000F000C12F3D6C74319ABD56833DDA3D00C77FF8
:1001000011BED9E4BB4C3E916BAAAABE0000008090
:100110003F05A84CCDB2D44EB93836A9020C50B91F
:10012000918688083CA6AAAA2ABE000000803F004B
:100130000D94CF2C0D949B0F0D94D60F0D94B00FF2
:100140000D94C20F0D94D00F0D94E6260D94DA0F86
:100150000D94A70F0D94AA0F0D9432260D944126ED
:100160000D94890F0D94C4250D94B8230D94BA0FE6
:100170000D94840F0D94BE0F0D94A30F0D94CC0F0E
:100180000D949F0F0D9420260D94B40F0D94C80F5D
:100190004E414E494E495459494E46CDCCCC3D0A6C
:1001A000D7233C17B7D13877CC2B329595E6241F4F
:1001B000B14F0A000020410000C84200401C462008
:1001C000BCBE4CCA1B0E5AAEC59D7400407A10F3DB
:1001D0005A00A0724E18090010A5D4E80000E87675
:1001E00048170000E40B54020000CA9A3B000000CC
:1001F000E1F505000080969800000040420F0000E5
:1002000000A08601000000102700000000E80300A5
:100210000000006400000000000A0000000000016F
:1002200000000000002C76D888DC674F0823DFC16F
:10023000DFAE59E1B1B796E5E3E453C63AE651992A
:100240007696E8E6C28426EB898C9B62ED407C6F53
:10025000FCEFBC9C9F40F2BAA56FA5F490055A2A0A
:10026000F75C936B6CF9676DC11BFCE0E40D47FE16
:10027000F520E6B500D0ED902E030094357705000B
:1002800080841E080000204E0A000000C80C333392
:1002900033330F986E12831141EF8D2114893BE6A1
:1002A0005516CFFEE6DB18D1844B381BF77C1D902A
:1002B0001DA4BBE424203284725E228100C9F12493
:1002C000ECA1E53D27554E4C4F41442046494C4159
:1002D0004D454E54004C4F41442046494C414D45FC
:1002E0004E540046494C414D454E54204348414EE2
:1002F0004745004E796C6F6E0050455447004142AF
:100300005300504C4100436F6F6C696E672E2E2E68
:100310000045312025530042656420436F6F6C69AE
:100320006E672E2E2E004265642048656174696EEA
:10033000672E2E2E00206661696C65642120426163
:1003400064206865617465722069640A00504944DC
:10035000204175746F74756E650023646566696EFF
:10036000652044454641554C545F004B6420004B8A
:100370006920004B7020002066696E6973686564AF
:10038000212050757420746865206C617374204B53
:10039000702C204B6920616E64204B6420636F6E6B
:1003A0007374616E74732066726F6D2062656C6F1A
:1003B0007720696E746F20436F6E6669677572612E
:1003C00074696F6E2E680A00504944204175746F3D
:1003D00074756E6500206661696C656421207469BE
:1003E0006D656F75740A00504944204175746F74CF
:1003F000756E6500206661696C6564212054656DC9
:10040000706572617475726520746F6F20686967BA
:10041000680A00504944204175746F74756E650018
:10042000504944204379636C657300255320256946
:100430002F256900204B643A2000204B693A2000A8
:10044000204B703A200020436C6173736963205025
:100450004944200A002054753A2000204B753A2068
:1004600000206D61783A2000206D696E3A200020EE
:10047000643A200020626961733A20004865617423
:10048000696E672E2E2E002073746172740A0050FC
:100490004944204175746F74756E6500206661690A
:1004A0006C6564212054656D706572617475726548
:1004B00020746F6F20686967680A005049442041C2
:1004C00075746F74756E6500504944204175746F82
:1004D00074756E65004572723A20757466382066D0
:1004E0006F6E74206E6F7420696E697469616C69D7
:1004F0007A65642E004572723A20757466382066FB
:100500006F6E74206E6F7420696E697469616C69B6
:100510007A65642E004572723A20757466382066DA
:100520006F6E74206E6F7420696E697469616C6996
:100530007A65642E002000200020003A003A002551
:1005400068753A25303268750025303268753A256D
:10055000303268750025303268752725303268756D
:1005600000256875642025303268753A2530326878
:10057000750042656400456E636C6F73757265004B
:100580004500200020002000200020002500202021
:100590002020202020002020202000657272001FD3
:1005A000E0201020102010102010202010201030EB
:1005B000300840048003001FE03FF03FF03FF01F91
:1005C000E01FE03FF03FF03FF00FC0078003003F27
:1005D000FFF038007030FC3020FC10207810203004
:1005E000102C00D02E31D02F7BD02F7BD02E31D0AD
:1005F0002C00D020301020781020FC1030FC303837
:1006000000703FFFF03FFFF03800703186302387E5
:10061000102787902F87D02F03D0203010207810FC
:100620002078102030102F03D02F87D027879023D9
:1006300087103186303800703FFFF01FFFF81FFF32
:10064000F80410400208200208200410400820800E
:100650001041001041000820800410400000001FDD
:10066000FFF81FFFF83E0FF0C18618C1860C018607
:10067000040306041F0604030604018604C1860C55
:10068000C186183E0FF05072696E742041626F721D
:10069000746564004D323520500A4D32340050618B
:1006A0007573696E672E2E2E004D3234004545500D
:1006B000524F4D2056657273696F6E204572726F8E
:1006C0007200454550524F4D20496E646578204573
:1006D00072726F7200454550524F4D204352432075
:1006E0004572726F72003F0049676E6F726500520B
:1006F0006573657400496E697469616C697A652017
:10070000454550524F4D004C6F6164206D6D005552
:100710006E6C6F6164206D6D0046696C2E204469BB
:10072000612E004F6666004F6E004520696E206D99
:100730006D5E330020082046616374002008204D60
:100740006178002008204D696E004D696E2054725A
:100750006176656C205370656564004D696E205646
:10076000656C6F63697479004D6178204020537027
:10077000656564004D6178204520416363656C00C8
:100780004D6178204020416363656C00547261764E
:10079000656C20416363656C0052657472616374BB
:1007A00020416363656C00416363656C0050726F48
:1007B0006265205A204F66667365740050726F62DE
:1007C000652059204F66667365740050726F6265CC
:1007D0002058204F666673657400402073746570FE
:1007E000732F6D6D00416476616E6365642053659F
:1007F0007474696E6773003F0043616E63656C00DB
:10080000496E6974004D34323800496E697469610B
:100810006C697A6520454550524F4D0046696C61C0
:100820006D656E740054656D706572617475726586
:100830000053746570732F6D6D0050726F62652088
:100840004F666673657473004A756E6374696F6E84
:100850002044657600416363656C65726174696FFD
:100860006E004D617820537065656420286D6D2F92
:1008700073290053657420486F6D65204F66667359
:1008800065747300436F6E66696775726174696F32
:100890006E003F004E65787420436F726E65720083
:1008A000446F6E65004E65787400486F6D696E67C1
:1008B0002058595A0053746F7265205365747469D7
:1008C0006E6773004C6F61642053657474696E6762
:1008D0007300426564205472616D6D696E670050EB
:1008E000726F6265205A204F6666736574004661B8
:1008F000646520486569676874004F6666004F6EDE
:1009000000426564204C6576656C696E67004C65D5
:1009100076656C20426564004732394E00473239B3
:10092000004175746F20486F6D65004D6F74696F7D
:100930006E00426564004E6F7A7A6C650046616EA7
:1009400020537065656400436F6E666967757261F8
:1009500074696F6E00526573746F726520446566CA
:1009600061756C7473004C6F6164205365747469B5
:100970006E67730053746F72652053657474696E8B
:1009800067730050726568656174202420436F6E40
:1009900066004F6666004F6E0052756E6F7574206C
:1009A00053656E736F720050726F6265205A204FEC
:1009B000666673657400416476616E636564205396
:1009C000657474696E6773004D61696E004D3730F0
:1009D0003220542564004D363030204230205425DA
:1009E00064004D373032203B2564004D37303120D4
:1009F000542564004368616E67652046696C616DCB
:100A0000656E740050726568656174204375737417
:100A10006F6D0050726568656174202400426163E7
:100A20006B004D363030423000436F6E74696E7526
:100A300065004F6666004F6E0052756E6F757420CC
:100A400053656E736F72005075726765206D6F72BB
:100A50006500524553554D45204F5054494F4E5314
:100A60003A005052494E5420504155534544002FAE
:100A700000200020204E6F7A7A6C653A2000506189
:100A8000726B696E672E2E2E00000057616974200C
:100A9000666F720066696C616D656E742063686173
:100AA0006E676500746F20737461727400576169BA
:100AB0007420666F720066696C616D656E74207576
:100AC0006E6C6F616400004E6F7A7A6C65206865A9
:100AD0006174696E6700506C656173652077616948
:100AE000742E2E2E0000507265737320627574741C
:100AF0006F6E00746F2068656174206E6F7A7A6C17
:100B0000650000496E736572742066696C616D657D
:100B10006E7400616E642070726573732062757408
:100B2000746F6E00746F20636F6E74696E7565000C
:100B30005761697420666F720066696C616D656EDD
:100B400074206C6F6164000050726573732042758D
:100B500074746F6E00746F20726573756D652070AC
:100B600072696E7400005761697420666F7220703C
:100B700072696E7400746F20726573756D652E2EC8
:100B80002E0000436C69636B20746F2066696E6988
:100B900073680066696C616D656E7420707572674C
:100BA0006500003132300035004245443A2045505E
:100BB000434F53203130304B0052756E617761796D
:100BC0002057617463683A204F4E004D617820547D
:100BD000656D7000323635004D696E2054656D705C
:100BE00000350045313A204550434F5320313030D5
:100BF0004B005053550047656E6572696300507233
:100C00006F746F636F6C00312E3000426175640049
:100C100032353030303000437265616C697479333D
:100C2000442052414D50530042696C696E656172B7
:100C3000204C6576656C696E6700457874727564E2
:100C40006572730031006D61726C696E66772E6F2C
:100C500072670043522D313020533400323032332A
:100C60002D30312D3234006275676669782D322E51
:100C7000312E78004D61726C696E00546865726D3A
:100C80006973746F727300426F61726420496E669B
:100C90006F005072696E74657220496E666F004D08
:100CA00061696E003F004261636B0053746F7000B6
:100CB0003F004E4F00594553004368616E67652001
:100CC00046696C616D656E74004E6F204D65646998
:100CD00061005072696E742066726F6D204D65649C
:100CE0006961004368616E6765204D6564696100F4
:100CF0004D32310041626F7574205072696E7465B7
:100D00007200436F6E66696775726174696F6E0019
:100D100054656D7065726174757265004D6F7469AC
:100D20006F6E00526573756D65205072696E740048
:100D300054756E650053746F70205072696E740044
:100D40005061757365205072696E7400496E666FEC
:100D50002053637265656E003F00537461727420A6
:100D60005072696E740043616E63656C0050726905
:100D70006E740043616E6E6F7420656E74657220D0
:100D80007375626469723A200002202E2E004D6154
:100D9000696E002100486F74656E6420746F6F2067
:100DA000636F6C64004261636B0050726F636565D2
:100DB00064004D6F766520457874727564657200C5
:100DC0004D6F74696F6E0044697361626C65205386
:100DD00074657070657273004D383400426564202C
:100DE0004C6576656C696E67004175746F20486F5D
:100DF0006D6500473238004D61696E00507265685C
:100E000065617420242042656400507265686561E4
:100E100074202420456E640054656D7065726174A1
:100E2000757265000203FE02F902F302436F6F6CF4
:100E3000646F776E005072656865617420240046A7
:100E4000616E20537065656400426564004E6F7A80
:100E50007A6C65004D61696E003A00546F74616C84
:100E6000004261627973746570205A004261627950
:100E700073746570204000466C6F770046616E2089
:100E8000537065656400426564004E6F7A7A6C65E4
:100E9000005370656564004D61696E00000C0F00C1
:100EA000FE07022503BB017FFE08FE08FE050808B9
:100EB00006000040F0C888889878100508080600E9
:100EC00000C0F88888888888F80505050600012094
:100ED00030F830200508080600002070F820202097
:100EE00020E00509090600FF2070A8A8B8888870CE
:100EF00020070505070001D86C366CD805090906DE
:100F000000FFF8A88888888888A8F8050A0A0600DB
:100F1000FE205050505088A8A88870030303060094
:100F20000340A040FFFFFFFFFFFFFFFFFFFFFFFFAA
:100F3000FFFFFFFFFFFFFFFFFFFF0000000605FFB1
:100F40000107070602008080808080008003030381
:100F5000060105A0A0A005060606000050F85050A6
:100F6000F8500509090600FF2070A8A07028A87095
:100F700020050707060000C8C810204098980507FC
:100F80000706000040A0A040A890680103030602E5
:100F9000058080800309090601FF20404080808091
:100FA0004040200309090601FF80404020202040E6
:100FB000408005070706000020A8702070A82005C3
:100FC00005050600012020F820200203030601FF8A
:100FD000C04080050101060003F80202020601007C
:100FE000C0C005070706000008101020404080051B
:100FF0000707060000708898A8C8887003070706CE
:10100000010040C040404040E00507070600007076
:101010008808102040F8050707060000F80810307F
:1010200008887005070706000010305090F810106F
:10103000050707060000F880F00808887005070714
:10104000060000304080F088887005070706000021
:10105000F808101020202005070706000070888877
:101060007088887005070706000070888878081067
:1010700060020505060100C0C000C0C002060606E9
:1010800001FFC0C000C040800305050601012040EB
:10109000804020050303060002F800F8030505065A
:1010A000010180402040800507070600007088107D
:1010B000202000200507070600007088B8A8B88027
:1010C00070050707060000708888F888888805077B
:1010D00007060000F04848704848F005070706007A
:1010E0000070888080808870050707060000F0483F
:1010F00048484848F0050707060000F88080F0805F
:1011000080F8050707060000F88080F080808005E1
:10111000070706000070888080988870050707061A
:101120000000888888F8888888030707060100E09F
:101130004040404040E0050707060000381010100E
:101140001090600507070600008890A0C0A0908856
:10115000050707060000808080808080F80507076B
:1011600006000088D8A88888888805070706000038
:101170008888C8A8988888050707060000708888AE
:1011800088888870050707060000F08888F080804E
:101190008005070706000070888888A89068050702
:1011A00007060000F08888F0A09088050707060071
:1011B0000070888070088870050707060000F82016
:1011C00020202020200507070600008888888888BE
:1011D0008870050707060000888888885050200519
:1011E000070706000088888888A8A8500507070612
:1011F000000088885020508888050707060000886E
:10120000885020202020050707060000F80810203D
:101210004080F80309090601FFE08080808080801B
:1012200080E00507070600008040402010100803FA
:1012300009090601FFE020202020202020E00503EE
:10124000030600052050880501010600FEF803038F
:10125000030601058040200505050600007008789A
:1012600088780507070600008080F0888888F005E8
:1012700005050600007080808870050707060000DD
:10128000080878888888780505050600007088F0C9
:101290008070050707060000304840E040404005E8
:1012A00007070600FE70888888780870050707061B
:1012B00000008080F08888888803070706010040C6
:1012C00000C0404040E00409090601FE1000301053
:1012D000101010906005070706000080808890E0DD
:1012E0009088030707060100C04040404040E005E9
:1012F0000505060000D0A8A8A8A805050506000059
:10130000B0C8888888050505060000708888887040
:101310000507070600FEF0888888F080800507072B
:101320000600FE788888887808080505050600000C
:10133000B0C880808005050506000078807008F040
:101340000507070600002020F820202018050505C5
:1013500006000088888898680505050600008888CA
:101360008850200505050600008888A8A8500505B6
:101370000506000088502050880507070600FE88F3
:10138000888850204080050505060000F8102040A0
:10139000F80309090601FF204040408040404020FA
:1013A0000109090602FF80808080808080808003A0
:1013B00009090601FF80404040204040408005036D
:1013C0000306000248A890FF434F4D4D554E494338
:1013D0004154494F4E0044525952554E00455252C5
:1013E0004F525300494E464F004543484F00535417
:1013F0004F505045442E20005072696E7465722023
:1014000073746F707065642064756520746F2065F7
:1014100072726F72732E2046697820746865206539
:1014200072726F7220616E6420757365204D393958
:101430003920746F20726573746172742E20285481
:10144000656D70657261747572652069732072656F
:101450007365742E20536574206974206166746509
:10146000722072657374617274696E67290A004E26
:101470006F20436865636B73756D207769746820AE
:101480006C696E65206E756D6265722C204C61739F
:1014900074204C696E653A20004E6F204368656386
:1014A0006B73756D2077697468206C696E65206E4A
:1014B000756D6265722C204C617374204C696E6589
:1014C0003A2000636865636B73756D206D69736D99
:1014D000617463682C204C617374204C696E653AAA
:1014E00020004C696E65204E756D626572206973CF
:1014F000206E6F74204C617374204C696E65204EB1
:10150000756D6265722B312C204C617374204C69AF
:101510006E653A20004D3131300053657269616C5F
:1015200020737461747573206D69736D6174636881
:101530000A0053442072656164206572726F720AFA
:10154000004B494C4C20627574746F6E2F70696E3D
:101550000A002121204B494C4C206361757365645E
:101560002062792000746F6F206D75636820696E4A
:101570006163746976652074696D65202D206375DB
:101580007272656E7420636F6D6D616E643A2000D7
:101590002121204B494C4C206361757365642062A6
:1015A000792000627573793A2070617573656420E3
:1015B000666F7220696E7075740A00627573793A8D
:1015C0002070617573656420666F72207573657233
:1015D0000A00627573793A2070726F63657373697C
:1015E0006E670A004D656469612052656D6F7665AE
:1015F00064004D6564696120496E73657274656449
:10160000004D36303000506C656173652052657353
:101610006574005052494E5445522048414C54453F
:10162000440025533A202553004B494C4C45442E49
:1016300020005072696E7465722068616C74656414
:101640002E206B696C6C28292063616C6C656421A9
:101650000A00006563686F3A004572726F723A0063
:1016600042696C696E656172204C6576656C696E65
:101670006720477269643A0A00486F74656E642097
:10168000746F6F20636F6C640A0053656E64204D45
:1016900031303820746F20726573756D650A0049AA
:1016A0006E736572742066696C616D656E7420611D
:1016B0006E642073656E64204D3130380A005365C6
:1016C0006E64204D31303820746F2068656174205D
:1016D0006E6F7A7A6C650A004732362043616E631A
:1016E000656C6564004732362048656174696E67D1
:1016F000204E6F7A7A6C65004732362048656174F7
:10170000696E67204265640057616974696E67207D
:10171000666F72206865617475702E0A004669787C
:101720006564204C656E677468205072696D650051
:10173000446F6E65205072696D696E67004D616E11
:1017400075616C207072696D696E672E2E2E004C6B
:10175000656176696E6720473236003F5370656376
:10176000696669656420582C5920636F6F726469DB
:101770006E617465206F7574206F6620626F756E80
:1017800064732E0A003F28522965706561742076C3
:10179000616C7565206E6F7420706C617573696221
:1017A0006C653B206D757374206265206174206CDC
:1017B0006561737420312E0A003F5370656369665A
:1017C000696564206E6F7A7A6C652074656D7065EA
:1017D000726174757265206E6F7420706C617573C0
:1017E00069626C652E0A003F5370656369666965BE
:1017F000642066696C616D656E742073697A65201A
:101800006E6F7420706C61757369626C652E0A006E
:101810003F537065636966696564207072696D65C0
:10182000206C656E677468206E6F7420706C6175D3
:101830007369626C652E0A003F537065636966695F
:101840006564206E6F7A7A6C652073697A65206EA4
:101850006F7420706C61757369626C652E0A003F4D
:1018600052657472616374696F6E204D756C746932
:10187000706C696572206D75737420626520737079
:10188000656369666965642E0A003F537065636924
:10189000666965642052657472616374696F6E2055
:1018A0004D756C7469706C696572206E6F74207010
:1018B0006C61757369626C652E0A003F53706563D5
:1018C0006966696564206C6179657220686569671D
:1018D0006874206E6F7420706C61757369626C65DA
:1018E0002E0A0043292E0A003F537065636966691A
:1018F0006564206265642074656D706572617475DD
:101900007265206E6F7420706C61757369626C65AE
:10191000202834302D004732362073746172746988
:101920006E672E2E2E0A004F46460A0046616465F9
:10193000204865696768742000426564204C6576BC
:10194000656C696E6720004661696C656420746F20
:1019500020656E61626C6520426564204C65766529
:101960006C696E670A00496E76616C6964206D650A
:1019700073682E0A0050726F62696E6720506F693B
:101980006E740025532025692F2569002E0A002F2B
:101990000050726F62696E67206D65736820706FAA
:1019A000696E742000202844525952554E29004730
:1019B0003239204175746F20426564204C6576652C
:1019C0006C696E67003F20284C2C522C462C422913
:1019D000206F7574206F6620626F756E64732E0AB7
:1019E000003F2856296572626F7365206C657665C5
:1019F0006C20696D706C61757369626C652028304C
:101A00002D34292E0A00426164205A2076616C75BB
:101A1000650A004E6F2062696C696E6561722067AD
:101A20007269640A0020440020204D323030205377
:101A300000202844697361626C6564293A00466934
:101A40006C616D656E742073657474696E67730084
:101A500020204D3230312058004D617820416363A1
:101A6000656C65726174696F6E2028756E69747338
:101A70002F7332290020204D3230332058004D6121
:101A800078206665656472617465732028756E6977
:101A900074732F73290020520020204D32303420DF
:101AA0005000416363656C65726174696F6E2028D4
:101AB000756E6974732F7332292028503C707269D7
:101AC0006E742D616363656C3E20523C7265747266
:101AD0006163742D616363656C3E20543C74726174
:101AE00076656C2D616363656C3E2900204A002099
:101AF000540020530020204D3230352042004164F4
:101B000076616E6365642028423C6D696E5F736523
:101B1000676D656E745F74696D655F75733E2053A4
:101B20003C6D696E5F66656564726174653E2054E4
:101B30003C6D696E5F74726176656C5F6665656445
:101B4000726174653E204A3C6A756E635F646576B7
:101B50003E290020440020490020204D3330312010
:101B60005000486F74656E642050494400203B006B
:101B700020550020204D363033204C0046696C61E2
:101B80006D656E74206C6F61642F756E6C6F61642F
:101B9000003B200020496E76616C69642065787492
:101BA0007275646572200047322F4733206261648A
:101BB00020706172616D65746572730A00536C65A3
:101BC00065702E2E2E005A2050726F626520506173
:101BD0007374204265640A005A2050726F62652057
:101BE0005061737420426564004732384C300020E5
:101BF0005A3A200020593A200042656420583A2081
:101C0000004D65736820706F696E74206F75742065
:101C10006F662072616E67650A00436C69636B20B2
:101C2000746F20526573756D652E2E2E004E6F20D9
:101C30004D6F76652E00456E642066696C65206C7C
:101C40006973740A00426567696E2066696C652075
:101C50006C6973740A004E6F206D656469610A00D7
:101C6000286E6F2066696C65290043757272656E17
:101C7000742066696C653A20004E6F7420534420CE
:101C80007072696E74696E670A00534420707269DD
:101C90006E74696E67206279746520002E0A0044B4
:101CA000656C6574696F6E206661696C65642C2073
:101CB00046696C653A200046696C652064656C6510
:101CC0007465643A002569730025696D2025697380
:101CD000002569682025696D2025697300256964E0
:101CE000202569682025696D20256973002569799B
:101CF00020256964202569682025696D2025697380
:101D0000005072696E742074696D653A20006F6BC3
:101D1000006F666600E913E413DD13D613C813449D
:101D2000454255473A004D31313320530043522D3F
:101D30003130205334204F46462E00434F4E464903
:101D4000475F4558504F5254004D45415450414310
:101D50004B00434F4F4C45525F54454D5045524107
:101D600054555245004348414D4245525F54454DFC
:101D700050455241545552450042414259535445F1
:101D80005050494E470041524353004D4F54494F24
:101D90004E5F4D4F44455300544845524D414C5FB2
:101DA00050524F54454354494F4E00455854454EA8
:101DB0004445445F4D323000435553544F4D5F46C8
:101DC00049524D574152455F55504C4F4144004C8C
:101DD000464E5F5752495445004C4F4E475F464967
:101DE0004C454E414D45004155544F5245504F5280
:101DF000545F53445F5354415455530053445F5709
:101E00005249544500524550454154004D554C549B
:101E1000495F564F4C554D45005344434152440091
:101E200050524F4D50545F535550504F52540048EC
:101E30004F53545F414354494F4E5F434F4D4D41C3
:101E40004E445300454D455247454E43595F50411E
:101E50005253455200434153455F4C494748545FF4
:101E60004252494748544E45535300544F47474CFC
:101E7000455F4C494748545300534F4654574152CD
:101E8000455F504F574552004255494C445F5045BD
:101E90005243454E54004C4556454C494E475F44CD
:101EA000415441005A5F50524F42450052554E4FE7
:101EB0005554004155544F4C4556454C00505249DD
:101EC0004E545F4A4F420050524F475245535300C1
:101ED0004155544F5245504F52545F54454D500058
:101EE0004155544F5245504F52545F504F53005636
:101EF0004F4C554D455452494300454550524F4D66
:101F00000042494E4152595F46494C455F54524147
:101F10004E534645520053455249414C5F584F4E2F
:101F20005F584F4646004649524D574152455F4E15
:101F3000414D453A4D61726C696E20627567666904
:101F4000782D322E312E7820284A616E20323620AC
:101F5000323032332031393A35313A313629205353
:101F60004F555243455F434F44455F55524C3A6786
:101F700069746875622E636F6D2F4D61726C696E46
:101F80004669726D776172652F4D61726C696E2062
:101F900050524F544F434F4C5F56455253494F4E4A
:101FA0003A312E30204D414348494E455F545950F7
:101FB000453A43522D313020533420455854525520
:101FC0004445525F434F554E543A3120555549448C
:101FD0003A63656465326132662D343161322D3485
:101FE0003734382D396231322D63353563363266F8
:101FF0003336376666002F2F004D31343520533C81
:10200000696E6465783E206F7574206F662072611A
:102010006E67652028302D31290A003F4A206F75F0
:1020200074206F662072616E67652028302E303113
:1020300020746F20302E33290A0020580020204DB4
:1020400061783A2000200020204D696E3A2000205F
:102050003B200020204D323131205300536F6674F5
:1020600020656E6473746F707300250A0046523ADF
:102070000020466C6F773A20004261627973746584
:1020800070205A0064697300656E0043290A00617C
:10209000626C656420286D696E2074656D70200027
:1020A000436F6C6420657874727564657320617227
:1020B0006520004F4646004F4E0046696C616D65D5
:1020C0006E742072756E6F757420004D343231203D
:1020D000696E636F727265637420706172616D65A1
:1020E0007465722075736167650A004D65736820B9
:1020F000706F696E74206F7574206F662072616EE8
:1021000067650A00454550524F4D204F4B0A002944
:102110000A0020746F20003F5A206F7574206F668C
:102120002072616E6765202800290A0020746F20E4
:10213000003F59206F7574206F662072616E67656D
:1021400020282D00290A0020746F20003F58206F9E
:102150007574206F662072616E676520282D004DB2
:10216000383400446F6E65207072696E74696E67F2
:102170002066696C650A004D3737004D3331002009
:10218000204D323036205800486F6D65206F6666EE
:10219000736574004F666673657473204170706C6C
:1021A000696564004572723A20546F6F20666172EF
:1021B0002100546F6F206661722066726F6D20720D
:1021C00065666572656E636520706F696E740A007E
:1021D000446966663A2020200046726F6D53747021
:1021E0003A00537465707065723A00556E4C6576AE
:1021F000656C3A004C6576656C65643A00526177AF
:102200003A20202020000A4C6F676963616C3A0015
:10221000436F756E7420453A004361703A00203B6D
:102220000020204D3835312058005A2D50726F62F1
:1022300065204F666673657400486F6D696E672030
:102240004661696C6564006F70656E005452494761
:102250004745524544003A200066696C616D656EE1
:1022600074007A5F6D696E00795F6D696E00785FEA
:102270006D696E005265706F7274696E6720656E6D
:102280006473746F70207374617475730A002074C2
:102290006F6F206C6F6E6720657874727573696FED
:1022A0006E2070726576656E7465640A0020636FD7
:1022B0006C6420657874727573696F6E20707265D6
:1022C00076656E7465640A00486F6D65202573201D
:1022D00046697273740000008040000000400000F6
:1022E00000005761726E696E673A20486F6D696EC3
:1022F000672042756D702044697669736F72203C67
:1023000020310A000202040000C8430000C8430054
:1023100000C8430000A0400000A0400000004000B2
:1023200000C8430000C8430000C84300000000008C
:102330000000000000000053657474696E6773202C
:1023400053746F72656400290A00206279746573A2
:102350003B20637263200053657474696E67732059
:1023600053746F72656420280048617264636F64FF
:1023700065642044656661756C7420536574746986
:102380006E6773204C6F616465640020286D6D2951
:1023900000203B204C6576656C696E67200020202C
:1023A0004D3432302053004175746F2042656420F3
:1023B0004C6576656C696E670020460020480020F9
:1023C000204D3134352053004D6174657269616C64
:1023D0002068656174757020706172616D657465E7
:1023E000727300203B2053656E736F7220002020B3
:1023F0004D34313220530046696C616D656E742036
:1024000072756E6F75742073656E736F7200204AFB
:10241000002020473239205720490020204D3134F8
:10242000392043203B20556E69747320696E204328
:10243000656C736975730A0054656D7065726174BB
:1024400075726520556E6974730020204732312003
:102450003B004C696E65617220556E69747300456E
:102460004550524F4D206461746173697A652065EF
:1024700072726F722E0A00290A00206279746573E5
:102480003B2063726320002073746F726564207355
:10249000657474696E6773207265747269657665B8
:1024A00064202800202863616C63756C6174656426
:1024B00029210A0020213D2000454550524F4D2042
:1024C000435243206D69736D61746368202D202829
:1024D00073746F7265642920002053697A653A200D
:1024E00000496E6465783A2000000096430000962B
:1024F000430000A040000048420000A0420000A0AD
:10250000420000C8430080F2432C0100002C01006F
:10251000006400000088130000204D61726C696E39
:102520003D563837290A00454550524F4D207665B3
:102530007273696F6E206D69736D617463682028B2
:10254000454550524F4D3D0020436F756E742058E5
:102550003A00426564004531004500626564002C24
:102560002073797374656D2073746F707065642166
:10257000204865617465725F49443A200045727273
:102580003A204D415854454D50004D415854454D09
:10259000502074726967676572656400486561748C
:1025A000696E67204661696C65640048656174699D
:1025B0006E67206661696C6564004D353234004D8C
:1025C0003131322053687574646F776E00457272D2
:1025D0003A204D494E54454D50004D494E54454DBD
:1025E000502074726967676572656400202F00204F
:1025F00042403A0020403A0020573A0020573A0023
:10260000496E76616C696420657874727564657270
:102610000A007C3C3E5E2B3D3F2F5B5D3B2C2A221B
:102620005C004D6564696120496E6974204661698A
:102630006C0053442063617264206F6B0A006F70FA
:10264000656E526F6F74206661696C65640A00760E
:102650006F6C756D652E696E6974206661696C6555
:10266000640A004E6F20534420636172640A005371
:102670004420636172642072656C65617365640AED
:10268000000A4D3234004D3233202573002E0A00EB
:102690006F70656E206661696C65642C2046696C9C
:1026A000653A200046696C652073656C65637465E6
:1026B000640A002053697A653A200046696C6520F7
:1026C0006F70656E65643A2000454E442053554254
:1026D000524F5554494E450A002220706F73002214
:1026E00020706172656E743A2200535542524F5504
:1026F00054494E452043414C4C20746172676574C7
:102700003A220053756263616C6C204F7665726685
:102710006C6F77004578636565646564206D6178EA
:1027200020535542524F5554494E452064657074AC
:10273000683A0057726974696E6720746F20666921
:102740006C653A200020583A006672657368006430
:102750006F696E67002066696C653A20004E6F777E
:1027600020002F6175746F25632E67000200000042
:1027700000000000600000000000FC00000FF000FE
:1027800000000007E00000000001861FC018700074
:1027900000000000603C0C000001830C6010300061
:1027A00000000000603C0C000001830C3030300061
:1027B0000000000060000C000000030C1830000056
:1027C0000000000060003F0F3C00030C0C6001DFC4
:1027D0000FE0FE00601C1C061800060C0C6000F3E5
:1027E00018318300600C0C0318001E0C0C6000E014
:1027F00030398300600C0C033000030C0C6000C007
:1028000030380F00600C0C033000018C0C6000C0ED
:102810003FF8FB00600C0C033000018C0C6030C0F2
:1028200030018300600C0C01F001818C0C6030C021
:1028300030018300600C0C00E001818C183030C046
:1028400018318300600C0C40E001838C301860C0AC
:102850000C6187C0E01C0CC06000C30C600FC3F0AB
:1028600007C0FFC7FC7F0781C0007E1FC0000000BB
:102870000000000000000007000000000000000051
:10288000000000000000000700000000006D617201
:102890006C696E66772E6F7267006275676669781D
:1028A0002D322E312E78001FFFFFFFFFFFFF60004B
:1028B00000000001FF400000000000FF8000000059
:1028C00000007F83CF00000C303F87FF80000C307A
:1028D0001F867980000C000F8C30C7838C30E78C0A
:1028E00030CFC7CC31F38C30DCECEC33B98C30D842
:1028F0006C6C33198C30D06C0C33198C30D86C0C58
:1029000033198C30DC6C0E3B198C30CF7C079F194F
:102910008C30C77C038F194000000000000260006B
:1029200000000000061FFFFFFFFFFFF870012C01F1
:1029300090012701B0012201C0011D01F001180121
:102940001002130130020E0160020901900204011D
:10295000C002FF000003FA004003F5008003F0000E
:10296000D003EB002004E6007004E100E004DC008A
:102970004005D700C005D2004006CD00D006C800F3
:102980008007C3003008BE00F008B900C009B400D9
:10299000B00AAF00B00BAA00D00CA500000EA0003A
:1029A000500F9B00C01096005012910000148C0034
:1029B000C0158700B0178200B0197D00D01B7800C9
:1029C000001E730040206E0090226900F024640015
:1029D00040275F0090295A00E02B5500102E500030
:1029E00020304B0010324600E033410090353C006F
:1029F0001037370070383200A0392D00B03A280067
:102A0000A03B2300603C1E00103D1900903D1400C7
:102A1000103E0F00703E0A00C03E0500003F00005F
:102A2000403FFBFF803FF6FFC03FF1FF2020506C8E
:102A3000616E6E6572427566666572427974657321
:102A40003A20002046726565204D656D6F72793AB7
:102A5000200020436F6D70696C65643A204A616E96
:102A600020323620323032330A00204C6173742019
:102A7000557064617465643A20323032332D3031E0
:102A80002D3234207C20417574686F723A202843BF
:102A90006F6F6C5A65726F4E4C2C20646566617561
:102AA0006C7420636F6E666967290A004D61726CF1
:102AB000696E206275676669782D322E312E780A2C
:102AC0000020536F66747761726520526573657478
:102AD0000A00205761746368646F672052657365EC
:102AE000740A002042726F776E206F7574205265F1
:102AF0007365740A002045787465726E616C2052AB
:102B0000657365740A00506F77657255700A0073BB
:102B1000746172740A00473237004D313030310031
:102B20006572726F722077726974696E6720746F54
:102B30002066696C650A00446F6E65207361766972
:102B40006E672066696C652E0A004D323900456E4D
:102B50006473746F707300255320256320256320F0
:102B6000256320256300205A3A0020593A00205856
:102B70003A00656E6473746F7073206869743A20EC
:102B80000000000A0B02090C0D0E080703040100E7
:102B90000000000000000000000000000000000035
:102BA00000000000000000000000000000121110F2
:102BB0000000000000000000000000000000000015
:102BC0000000000000000000000000000000000005
:102BD0000000000000000024F404D9201BC40C5C99
:102BE0000E9804C4095F0265077101F405F900FB42
:102BF00004B30048048700C103690058035500036B
:102C0000034500BE023A008402310053022A002923
:102C100002250004022000E4011C00C8011900AFD5
:102C20000117009801140084011300710110006164
:102C300001100051010E0043010D0036010B002B65
:102C4000010B0020010B00150109000C0109000314
:102C5000010800FB000800F3000800EB000700E497
:102C6000000600DE000600D8000600D2000600CCF8
:102C7000000500C7000500C2000500BD000400B942
:102C8000000400B5000400B1000400AD000400A978
:102C9000000400A5000300A20003009F0004009BA5
:102CA00000030098000300950002009300030090C9
:102CB0000003008D0002008B0003008800020086E4
:102CC00000020084000300810002007F0002007DFA
:102CD0000002007B0002007900020077000100760C
:102CE0000002007400020072000100710002006F17
:102CF0000002006D0001006C0002006A0001006922
:102D00000002006700010066000100650001006428
:102D10000002006200010061000100600001005F2C
:102D20000002005D0001005C0001005B0001005A30
:102D30000001005900010058000100570001005631
:102D40000001005500010054000100530000005331
:102D50000001005200010051000100500001004F2D
:102D60000001004E0000004E0001004D0001004C2B
:102D70000001004B0000004B0001004A0001004927
:102D80000001004800000048000100470001004623
:102D9000000000460001004500000045000100441D
:102DA0000001004300000043000100420000004217
:102DB0000001004100000041000100400001003F0F
:102DC0000000003F0001003E0000003E0001003D09
:102DD0000000003D0001003C0000003C0000003C01
:102DE0000001003B0000003B0001003A0000003AF7
:102DF00000010039000000390001003800000038EF
:102E000000000038000100370000003700010036E4
:102E100000000036000000360001003500000035DB
:102E200000000035000100340000003400000034D0
:102E300000010033000000330000003300010032C5
:102E400000000032000000320001003100000031BB
:102E500000000031000100300000003000000030B0
:102E60000001002F0000002F0000002F0000002FA5
:102E70000001002E0000002E0000002E0001002D99
:102E80000000002D0000002D0000002D0001002C8E
:102E90000000002C0000002C0000002C0001002B82
:102EA0000000002B0000002B0000002B0001002A76
:102EB0000000002A0000002A0000002A000100296A
:102EC000000000290000002900000029000000295E
:102ED0000001002800000028000000280000002851
:102EE0000000002800010027000000270000002744
:102EF0000000002700000027000100260000002637
:102F00000000002600000026000000260001002529
:102F1000000000250000002500000025000000251D
:102F2000000000250001002400000024000000240F
:102F30000000002400000024000100230000002302
:102F400000000023000000230000002300000023F5
:102F500000000023000100220000002200000022E7
:102F600000000022000000220000002200010021D9
:102F700000000021000000210000002100000021CD
:102F800000000021000000210001002000000020BE
:102F900000000020000000200000002000000020B1
:102FA00000000020000000200001001F0000001FA2
:102FB0000000001F0000001F0000001F0000001F95
:102FC0000000001F0001001E0000001E0000001E87
:102FD0000000001E00000024F4D43050C38E20C234
:102FE000A24017828B7011127A910D816CD90AA8B8
:102FF00061E108C7586607615143061E4B5D05C174
:1030000045A7041A411104093D9803713931034061
:1030100036DB0265339102D4305402802E1D0263E8
:103020002CEE01752AC501B028A001102781018F5F
:103030002564012B244B01E0223401AC211F018DBA
:10304000200D01801FFC00841EED00971DDF00B8DD
:103050001CD200E61BC600201BBC00641AB200B2E2
:1030600019A8000A19A0006A189900D11791004008
:10307000178B00B516840031167E00B31579003A1F
:10308000157300C7146F0058146A00EE13660088A9
:1030900013630025135E00C7125B006C1257001506
:1030A000125400C111510070114F0021114B00D674
:1030B0001049008D1047004610440002104200C025
:1030C0000F4000800F3E00420F3C00060F3B00CB3C
:1030D0000E3800930E37005C0E3500270E3400F3D7
:1030E0000D3200C10D3100900D3000600D2E003208
:1030F0000D2D00050D2C00D90C2B00AE0C290085E0
:103100000C29005C0C2700350C27000E0C2600E86B
:103110000B2400C40B2400A00B23007D0B23005ABA
:103120000B2100390B2100180B2000F80A1F00D9D1
:103130000A1E00BB0A1E009D0A1D00800A1D0063B6
:103140000A1C00470A1B002C0A1B00110A1A00F770
:10315000091A00DD091900C4091900AB0919009208
:103160000917007B091800630917004C091600367F
:10317000091600200916000A091500F5081500E0D7
:10318000081400CC081400B8081400A40814009017
:103190000813007D0812006B08130058081200463F
:1031A0000812003408110023081100120811000150
:1031B000081100F0071000E0071000D0071000C051
:1031C000071000B0070F00A107100091070E008341
:1031D000070F0074070F0065070E0057070E004920
:1031E000070E003B070D002E070E0020070D0013F1
:1031F000070D0006070D00F9060C00ED060D00E0B6
:10320000060C00D4060C00C8060C00BC060C00B06E
:10321000060C00A4060B0099060C008D060B00821C
:10322000060B0077060B006C060B0061060A0057C0
:10323000060B004C060A0042060A0038060A002E59
:10324000060A0024060A001A060A001006090007EA
:10325000060A00FD050900F4050900EB050900E276
:10326000050900D9050900D0050900C7050900BEF8
:10327000050900B5050800AD050800A50509009C75
:10328000050800940508008C050800840508007CEA
:10329000050800740508006C050700650508005D59
:1032A000050700560508004E0507004705070040C2
:1032B00005080038050700310507002A0507002327
:1032C0000507001C050600160507000F0507000886
:1032D00005060002050700FB040600F5040700EEE2
:1032E000040600E8040600E2040700DB040600D53B
:1032F000040600CF040600C9040600C3040600BD8E
:10330000040600B7040600B1040500AC040600A6DC
:10331000040600A00405009B040600950405009027
:103320000406008A04050085040500800406007A6E
:1033300004050075040500700405006B04050066B3
:10334000040500610405005C0405005704050052F3
:103350000405004D04050048040500430405003E33
:103360000404003A04050035040500300404002C70
:1033700004050027040400230405001E0404001AA9
:1033800004040016040500110404000D04040009DF
:103390000405000404040000040400FC030400F815
:1033A000030400F4030400F0030400EC030400E849
:1033B000030400E4030400E0030400DC030400D879
:1033C000030400D4030400D0030400CC030400C8A9
:1033D000030300C50303003A2E00007B1D00001804
:1033E0001100004A090000DB0400007C02000041DB
:1033F000010000A10000004D6F766520246D6D0076
:10340000302E303235004D6F766520302E316D6DA7
:10341000004D6F766520316D6D004D6F7665203102
:10342000306D6D004D6F76652041786973004D6F8A
:103430007665202A004D6F7665204000200050728E
:10344000696E742066726F6D204D6564696100203D
:103450000020004572726F722077726974696E671E
:1034600020746F20454550524F4D210A00DB0FC993
:103470003F45BCDA3F8FB30240FCF02740569461D1
:1034800040FE4B9B4084A5D840E0231841346A5647
:1034900041E859974164DBD5416E271742B4B755CF
:1034A00042CE1A9742C8AED542B5885A43D4068454
:1034B000BFA65FA7BF7443E0BF10B11AC01C2C5851
:1034C000C0E8F697C0B849D6C04E4E17C124D355B0
:1034D000C1802497C1A0B5D5C1121A17C244AE55F8
:1034E000C2781797C26CACD5C267885AC320746F74
:1034F0006F206C6F6E6720657874727573696F6E7C
:103500002070726576656E7465640A0020636F6C66
:103510006420657874727573696F6E207072657659
:10352000656E7465640A00544845524D414C205202
:10353000554E4157415900546865726D616C205277
:10354000756E6177617900496E7365727420666982
:103550006C616D656E7420616E642073656E6420AD
:103560004D3130380A0050726F62696E67204661D3
:10357000696C65640A0050726F62696E672046610B
:10358000696C656400205A3A200020593A200042B4
:10359000656420583A2000FFFFFF43616E6E6F7430
:1035A000206F70656E207375626469722000452714
:1035B000FD35F935F535204500205A002059002009
:1035C000204D393220580053746570732070657235
:1035D00020756E697400220A00556E6B6E6F776EEF
:1035E00020636F6D6D616E643A20220020420020DE
:1035F00050006F6B0020453A00205A3A0020593A9B
:1036000000583A006F6B0A00526573656E643A2089
:103610000000002200250028002B002E003100347D
:103620000002010000050108010B01000021002437
:103630000027002A002D00300033000101000004A3
:103640000107010A01050505050705080808080224
:103650000202020A0A08080404040401010101012B
:103660000101010303030303030303040707070C1A
:103670000C0C0C0C0C0C0C020202020606060606D0
:103680000606060B0B0B0B0B0B0B0B07070A0A0AA4
:103690000A0A0A050505040404080801021020208E
:1036A0000808102040102040800201020108040296
:1036B000010102040810204080804020100804020C
:1036C0000180040201804020100804020108040265
:1036D000010102040810204080010204081020406B
:1036E000801008040880102040044080102040040E
:1036F0008043522D31302053342052656164792E3D
:10370000005072696E74696E672E2E2E00507269B9
:103710006E742050617573656400B40098001124C4
:103720001FBECFEFD1E2DEBFCDBF00E00CBF84B73C
:103730008093CD1514BE0FB6F894A89580916000C3
:10374000886180936000109260000FBE13E0A0E0DB
:10375000B2E0EEE7F8E702E00BBF02C007900D927F
:10376000A43DB107D9F725E1A4EDB3E001C01D9256
:10377000AD3CB207E1F71BE1CEE8DBE100E006C0BB
:1037800021970109802FFE010F94D338CD38D1073E
:1037900080E00807A9F70F94C7240D942E3C0C94E1
:1037A00000006091230270912402072E000C880B08
:1037B000990B0F9412322AE037ED43E25CE30F9449
:1037C00071322091120630911306409114065091E7
:1037D00015060F94713260936202709363028093B6
:1037E000640290936502089580917308811104C06A
:1037F00080915308809399080895089508958F92B1
:103800009F92AF92BF92CF92DF92EF92FF92CF93AF
:103810006B017C0120E030E0A9010F940C3287FF9E
:10382000A3C06DEB77E386E095EBA70196010F94BB
:10383000EE386B017C0120E030E040E251E40F946F
:10384000713220E030E048EC52E40F9471324B01C9
:103850005C0120E030E040E251ECC701B6010F947A
:103860000C32181654F420E030E048EC52E4C70162
:10387000B6010F94153B87FD8BC020E030E0A90115
:10388000C701B6010F940C3287FF73C060E070E08F
:1038900080EA90ECA50194010F94EE3820E030E02E
:1038A00040E251E40F94CA390F94323A6B017C0123
:1038B000F7FC64C020E137E240E050E00F94583854
:1038C000CA01B9012AE030E040E050E00F945838D6
:1038D000605D6093F005C701B60128EE33E040E07B
:1038E00050E00F9458389AE0892E912CA12CB12CDD
:1038F000CA01B901A50194010F945838605D609325
:10390000F105C701B60124E630E040E050E00F9435
:103910005838CA01B901A50194010F945838605D67
:103920006093F2058EE28093F305C701B601A5010D
:1039300094010F945838C62FCA01B901A50194010A
:103940000F945838605D6093F405C05DC093F50531
:1039500080EF95E0CF91FF90EF90DF90CF90BF90F8
:10396000AF909F908F9008956DEB77E386E095E39D
:103970005CCF60E070E080EA90E48CCFF094E0945B
:10398000D094C094C11CD11CE11CF11C6DE2A1CFEC
:1039900020E030E0A901C701B6010F940C3287FF87
:1039A0006AC060E070E080EA90ECA50194010F9499
:1039B000EE3820E030E040E251E40F94CA390F9431
:1039C000323A4B015C0120E030E0A901C701B601A9
:1039D0000F94153B87FD0BC020E030E040E251E43E
:1039E000C701B6010F940C3260E287FD13C0B7FC2B
:1039F00047C0C501B40128EE33E040E050E00F9429
:103A00005838CA01B9012AE030E040E050E00F9494
:103A10005838605D6093F105C501B40124E630E0DB
:103A200040E050E00F9458388AE0C82ED12CE12CA9
:103A3000F12CCA01B901A70196010F945838605DB5
:103A40006093F2058EE28093F305C501B401A701EE
:103A500096010F945838C62FCA01B901A7019601E3
:103A60000F945838605D6093F405C05DC093F50510
:103A700081EF95E06FCF60E070E080EA90E495CF51
:103A8000B094A09490948094811C911CA11CB11CB2
:103A90006DE2C0CFCF93DF93EC01CB01BA010F945D
:103AA000123229EC38EC48EC5EE30F94CA3920E07E
:103AB00030E040E05FE30F94EE380F94373A6883CC
:103AC000DF91CF910895E091730886E0E802F0015C
:103AD0001124EF5CF74F8091530890E09583848325
:103AE0000895CF93DF93EC01CB01BA010F9412320A
:103AF000688379838A839B83DF91CF910895CF93E5
:103B0000DF93EC01CB01BA010F9412326883798301
:103B10008A839B83DF91CF9108958F929F92AF927A
:103B2000BF92CF92DF92EF92FF926B017C0120E077
:103B300030E0A9010F940C3287FD6BC06DEB77E389
:103B400086E095E3A70196010F94EE386B017C01A6
:103B500020E030E040E251E40F94713220E030E0A8
:103B600040E251E40F9471324B015C0120E030E0FF
:103B7000A901C701B6010F940C3220E030E040EA01
:103B800050E487FF04C020E030E040EA50ECC5017B
:103B9000B4010F94EE3820E030E040E251E40F949D
:103BA000CA390F94323A9B018BE237FF05C02227B6
:103BB0003327261B370B8DE28093F105C90164E69C
:103BC00070E00F94C038CB01EAE0F0E0BF010F9441
:103BD000C038805D8093F205C901BF010F94C038E1
:103BE000282FCB01BF010F94C038805D8093F3056F
:103BF0008EE28093F405205D2093F50581EF95E03A
:103C0000FF90EF90DF90CF90BF90AF909F908F90FC
:103C100008956DEB77E386E095EB94CF8F929F92BA
:103C2000AF92BF92CF92DF92EF92FF92CF936B0150
:103C30007C0120E030E0A9010F940C3287FDD6C052
:103C40006DEB77E386E095E3A70196010F94EE38DC
:103C50006B017C0120E030E0A9010F940C3287FF5A
:103C6000CAC0C701B601905820E030E040E251E4FC
:103C70000F94713220E030E048EC52E40F9471323E
:103C800020E030E040EA50E40F94EE3820E030E0ED
:103C900040E251E40F94CA390F94323A6B017C012F
:103CA00060E280E4C81682E4D8068FE0E806F104FA
:103CB0008CF0C701B60120E432E44FE050E00F94ED
:103CC0005838CA01B9012AE030E040E050E00F94D2
:103CD0005838605D6093EE0560E280EAC81686E8B9
:103CE000D80681E0E806F1048CF0C701B60120EAAD
:103CF00036E841E050E00F945838CA01B9012AE093
:103D000030E040E050E00F945838605D6093EF057C
:103D100060E280E1C81687E2D806E104F1048CF085
:103D2000C701B60120E137E240E050E00F94583877
:103D3000CA01B9012AE030E040E050E00F94583861
:103D4000605D6093F00560E288EEC81683E0D806F7
:103D5000E104F1048CF0C701B60128EE33E040E045
:103D600050E00F945838CA01B9012AE030E040E031
:103D700050E00F945838605D6093F105C701B601BB
:103D800024E630E040E050E00F9458388AE0882E76
:103D9000912CA12CB12CCA01B901A50194010F9459
:103DA0005838605D6093F2058EE28093F305C70199
:103DB000B601A50194010F945838C62FCA01B90164
:103DC000A50194010F945838605D6093F405C05DBF
:103DD000C093F5058EEE95E0CF91FF90EF90DF90C8
:103DE000CF90BF90AF909F908F9008956DEB77E349
:103DF00086E095EB29CF20E030E040E251E4C701B6
:103E0000B60136CF8F929F92AF92BF92CF92DF9240
:103E1000EF92FF92CF936B017C0120E030E0A9018B
:103E20000F940C3287FD93C06DEB77E386E095E34A
:103E3000A70196010F94EE386B017C0120E030E081
:103E400040E251E40F94713220E030E04AE754E45C
:103E50000F9471324B015C0120E030E0A901C701F1
:103E6000B6010F940C3220E030E040EA50E487FFC6
:103E700004C020E030E040EA50ECC501B4010F94EA
:103E8000EE3820E030E040E251E40F94CA390F945C
:103E9000323A6B017C01C114D104E104F10409F44C
:103EA0005BC0F7FE59C0F094E094D094C094C11C5C
:103EB000D11CE11CF11C8DE28093F005C701B60115
:103EC00028EE33E040E050E00F9458388AE0882E26
:103ED000912CA12CB12CCA01B901A50194010F9418
:103EE0005838605D6093F1058EE28093F205C7015A
:103EF000B60124E630E040E050E00F945838CA01A3
:103F0000B901A50194010F945838605D6093F305E1
:103F1000C701B601A50194010F945838C62FCA01F4
:103F2000B901A50194010F945838605D6093F405C0
:103F3000C05DC093F50580EF95E0CF91FF90EF90C5
:103F4000DF90CF90BF90AF909F908F9008956DEBD2
:103F500077E386E095EB6CCF80E2AECFCF93DF9333
:103F6000EC01CB01BA010F94123220E030E048ECB2
:103F700052E40F94CA39688379838A839B83DF91E3
:103F8000CF910895CF93DF93EC01CB01BA010F9449
:103F9000123220E030E048EC52E40F94CA396883D2
:103FA00079838A839B83DF91CF9108950F94123296
:103FB00020E030E048EC52E40F94CA392FCECF9382
:103FC000DF93EC01CB01BA010F94123220E030E014
:103FD00040E251E40F94CA39688379838A839B83D2
:103FE000DF91CF9108950F94123220E030E040E24B
:103FF00051E40F94CA3991CDCF93DF93EC01CB01FB
:10400000BA010F9412322AE037ED43E25DE30F94D8
:10401000CA390F94373A688379838A839B83DF9107
:10402000CF910895CF93DF93EC01CB01BA010F94A8
:1040300012322AE037ED43E25DE30F94CA39688318
:1040400079838A839B83DF91CF910895CF93DF9308
:10405000EC01CB01BA010F941232688379838A8311
:104060009B83DF91CF9108950F94123220E030E0CE
:1040700048EC52E40F94CA39C2CBCF93DF93EC01E2
:10408000CB01BA010F9412320F94323A79836883CC
:10409000DF91CF910895CF93DF93EC01CB01BA016B
:1040A0000F94123220E030E04AE754E40F94CA390A
:1040B000688379838A839B83DF91CF9108950F94DE
:1040C000123220E030E04AE754E40F94CA399ACE25
:1040D000FC0184910895FC0180810895FC01A08178
:1040E000B1811C92A281B3818C918F5F8C930280ED
:1040F000F381E02D90818CE0989F800D1124E8EFF2
:10410000F3E113AE84AF0895119800C090910201BD
:1041100087FD9095917090930001119A00C000C0A6
:10412000119800C09091020186FD90959170909336
:104130000001119A00C000C0119800C090910201C6
:1041400085FD9095917090930001119A00C000C078
:10415000119800C09091020184FD90959170909308
:104160000001119A00C000C0119800C09091020196
:1041700083FD9095917090930001119A00C000C04A
:10418000119800C09091020182FD909591709093DA
:104190000001119A00C000C0119800C09091020166
:1041A00081FD9095917090930001119A00C000C01C
:1041B000119800C080910201817080930001119AD2
:1041C00000C000C0089590E080E00895CF93DF9391
:1041D000C0912E08D0912F0881E0CE31D105E4F0B6
:1041E00020E030E040E05FE360912A0870912B0806
:1041F00080912C0890912D080F94EE380F94323A4C
:104200006C1B7D0B77FF03C071956195710981E08F
:10421000633071050CF080E0DF91CF910895CF926B
:10422000DF92EF92FF92CF93C82F0F947A106B0119
:104230007C0124EA30E74DE75FE360911002709162
:10424000110280911202909113020F940C3287FD9B
:1042500018C08AEF90E0A0E0B0E08C0D9D1DAE1D6F
:10426000BF1D80930B0590930C05A0930D05B09393
:104270000E05C0930F02CF91FF90EF90DF90CF908B
:10428000089580E090E0DC01E8CFCF92DF92EF92DA
:10429000FF920F931F930F947A100091E2041091F4
:1042A000E3042091E4043091E5046B017C01C01A21
:1042B000D10AE20AF30A9701860137FD11C0209165
:1042C000E10420952093E1046A547C4F8F4F9F4F67
:1042D0006093E2047093E3048093E4049093E50414
:1042E00081E09091E104911101C080E01F910F9154
:1042F000FF90EF90DF90CF900895CF93DF93CDB7ED
:10430000DEB720E2488559856F818E810F94890B35
:10431000DF91CF910895CF92DF92EF92FF920F94A9
:1043200012326B017C0120E030E0A9010F940C32C5
:104330002DEB37E346E055E387FF04C02DEB37E371
:1043400046E055EBC701B6010F94EE386B017C01D6
:1043500020E030E0A9010F940C3220E030E040E092
:104360005FE387FF04C020E030E040E05FEBC7017F
:10437000B6010F94EE380F94323ACB01FF90EF90D4
:10438000DF90CF900C948DDD0F9412320F94323A5F
:10439000CB010C948DDD0F94123229EC38EC48ECF3
:1043A0005EE30F94CA3920E030E040E05FE30F9411
:1043B000EE380F94373A862F0C94C2DD6091530883
:1043C0008FEF0D947D1F80915308682F0D947D1FF2
:1043D0006FEF809153080D947D1F69ED79E482E0C1
:1043E0000D9428226BED79E481E00D9428226DED87
:1043F00079E480E00D9428226BE877E483E00D9463
:104400002822809145158823D1F08150809345154D
:10441000E6E6F3E1882351F08150990B2BE1289FC8
:10442000F001299FF00D1124E95CFB4E8BE1ABE418
:10443000B3E101900D928A95E1F70F94D51C20917C
:104440004515211105C08091501580648093501549
:1044500081E090E0A0E0B0E0211103C080E090E0B6
:10446000DC0180935A0890935B08A0935C08B0939A
:104470005D081092500881E080936A0883E0809381
:10448000610208950F9471011092AB0810925F02BF
:104490000E947E79882331F089EA96E09093E307C1
:1044A0008093E2070C9407DB8F929F92AF92BF92AA
:1044B000EF92FF920F931F93CF93DF93EC018B0149
:1044C000E42EF22E8091F6139091F7138C179D072E
:1044D000D9F11092DA032FE2C23CD20709F03FC0B3
:1044E0008A53904471F40F947A106E517B4F8F4F22
:1044F0009F4F609358057093590580935A05909388
:104500005B05D093F713C093F61330E020E00093DF
:104510005A0810935B0820935C0830935D08E09282
:104520005008F0924908CA53D04421F41092AD08C3
:104530001092570582E08093610281E080936A08BF
:104540001092630510925E05DF91CF911F910F913C
:10455000FF90EF90BF90AF909F908F90089520E4D0
:10456000CA33D20771F6825C9F42D9F40F947A1055
:104570008090580590905905A0905A05B0905B0521
:10458000681979098A099B0997FF0BC080917C0DF6
:104590008770873031F40E946679C4EDD2E28111D0
:1045A000B0CFCAE3D0E4ADCF20E040E070E060E0FF
:1045B0008EEE96E479DF81E08093AD081092DC0303
:1045C0001092DB03089520E040E070E060E08CEFA3
:1045D00091E26ACFCF93C1E0C093AD08FC01808126
:1045E0009181A281B3818093100290931102A093D4
:1045F0001202B093130220E040E070E060E080918E
:1046000051089091520850DFC093DA03CF9108957A
:10461000CF93DF9300D01F92CDB7DEB78DEC9CEC2B
:10462000ACECBCE389839A83AB83BC83CE01019657
:10463000D1DF0F900F900F900F90DF91CF910895E1
:10464000CF93DF9300D01F92CDB7DEB78DEC9CECFB
:10465000ACECBDE389839A83AB83BC83CE01019626
:10466000B9DF0F900F900F900F90DF91CF910895C9
:10467000CF93DF9300D01F92CDB7DEB780E090E0FC
:10468000A0E8BFE389839A83AB83BC83CE01019604
:10469000A1DF0F900F900F900F90DF91CF910895B1
:1046A000CF93DF9300D01F92CDB7DEB780E090E0CC
:1046B000A0E2B1E489839A83AB83BC83CE010196E7
:1046C00089DF0F900F900F900F90DF91CF91089599
:1046D00020E040E070E060E08AE390E4E5CE1092F4
:1046E00099080E94F3C1F4CF83E692E10E9461B37E
:1046F000EFDF0D94710185E098E09093E3078093DC
:10470000E207E6CF80919B1390919C130E94157550
:10471000811107C082E29AE09093E3078093E20759
:10472000089520E040E070E060E087EA98E6BCCEC3
:1047300090912A0681E089270C942A7581E0809364
:10474000AD0880917C0D8770873051F010927C0D00
:104750001092030683EF9DE09093E3078093E207B6
:1047600080912A068093600580E00E942A7520E0EF
:1047700040E070E060E089EB9EE396CE61E083E587
:1047800098E00C94917580E090E0A0E8B0E480930C
:10479000790290937A02A0937B02B0937C0285ED1C
:1047A00092E00E9466D480E090E0A0EFB1E48093B4
:1047B000710290937202A0937302B093740280937B
:1047C000750290937602A0937702B0937802E091FD
:1047D0005F05EE0FFF0BEB54FD4F8081918183301D
:1047E000910549F184309105D9F1029761F480E097
:1047F00090E0A9EBB3E48093710290937202A093CE
:104800007302B09374028DEB92E00E9466D4109212
:10481000790210927A0210927B0210927C0285ED4E
:1048200092E00E9466D480915F058F5F8430ECF443
:1048300080935F05089580E090E0A9EBB3E4809356
:10484000710290937202A0937302B09374028093EA
:10485000750290937602A0937702B0937802D3CF3B
:1048600080E090E0A9EBB3E4F2CF10925F050895E9
:10487000CF93DF9300D01F92CDB7DEB70F94373AB6
:104880000F94103269837A838B839C83CE010196C7
:104890000E940FDC0F900F900F900F90DF91CF913F
:1048A00008950F9412322AE037ED43E25DE30F944E
:1048B000CA39DECFCF92DF92EF92FF92CF93DF9390
:1048C00000D01F92CDB7DEB76B017C0120E030E055
:1048D000A9010F940C3287FD1BC06DEB77E386E0D6
:1048E00095E3A70196010F94EE3869837A838B8351
:1048F0009C83CE0101960E940FDC0F900F900F90C9
:104900000F90DF91CF91FF90EF90DF90CF900895BF
:104910006DEB77E386E095EBE4CF0F9412322AE05B
:1049200037ED43E25DE30F94CA39C4CF0F941232DE
:10493000C1CFCF92DF92EF92FF926B017C0120E01A
:1049400030E0A9010F940C3287FD26C06DEB77E3B0
:1049500086E095E3A70196010F94EE386B017C0188
:1049600020E030E0A9010F940C3220E030E040E07C
:104970005FE387FF04C020E030E040E05FEBC70169
:10498000B6010F94EE380F94323ACB01FF90EF90BE
:10499000DF90CF900C940EDD6DEB77E386E095EB26
:1049A000D9CF0F941232C5CF0C94F1C70C94F1C734
:1049B0000C94A3C70C94A3C70C94A3C70C94A3C7CF
:1049C000BF92CF92DF92EF92FF920F931F93CF93FC
:1049D000DF936B01E9014A3009F4DFC0453109F08A
:1049E0008AC0DB011296ED91FC911281C681D781BC
:1049F00080910201809582708093000100C00000C8
:104A000086E290E00197F0F7012F0295007F20E108
:104A1000B22EB10E88EF78DB00C0000086E290E095
:104A20000197F0F7103208F0A5C0812F80778068D9
:104A30006BDB802F69DB00C0000086E290E001970D
:104A4000F0F780E861DB80E05FDB00C0000086E219
:104A500090E00197F0F78AEF57DB00C0000086E294
:104A600090E00197F0F77E01B0E1EB0EF11C888138
:104A7000807F4ADB89918295807F46DBCE15DF05FA
:104A8000B1F700C0000086E290E00197F0F71F5FE9
:104A9000005F1B11BFCF80910201827080930001E3
:104AA000D6011296ED91FC9180819281980F9283AC
:104AB0002181921708F0EDC194819F5F94839381C7
:104AC000890F821710F08FEF820F8383458150E0AA
:104AD000440F551F70E060E0868197810F94DA3BA8
:104AE00081E0DF91CF911F910F91FF90EF90DF90C8
:104AF000CF90BF900895FB0102811381423309F4E6
:104B0000CAC108F4D2C1463409F4BFC1473409F41C
:104B1000C7C14B3329F789812B81D80112966C913B
:104B2000129713964C91213009F404C2233009F0F6
:104B3000E5C138EF380F582F91E0431708F490E0A3
:104B400041E0531708F040E031E0561708F430E038
:104B5000592F542B352319F4942309F4C1CFFA802B
:104B600030E0F901EF55FD4FD08023563D4FF9015C
:104B7000E080DDC180EE810F8068807FC5DA812F03
:104B80008295807FC1DA00C0000086E290E0019744
:104B9000F0F780E8B9DA80E857CF809101018260B0
:104BA00080930101809102018270809300018091C5
:104BB00001018160809301018091020181708093E5
:104BC0000001099A119A8091020180958270809368
:104BD000000100C0000086E290E00197F0F788E74E
:104BE00090E0CEE9DFE0FE013197F1F70197D9F7C8
:104BF00088EF8ADA00C0000086E290E00197F0F7C3
:104C000080E282DA80E080DA00C0000086E290E094
:104C10000197F0F780E078DA80E876DA00C00000EB
:104C200086E290E00197F0F780E06EDA80E16CDADE
:104C300000C0000086E290E00197F0F7CE010197F6
:104C4000F1F7CE010197F1F7CE010197F1F7CE010F
:104C50000197F1F7CE010197F1F7CE010197F1F736
:104C6000CE010197F1F7CE010197F1F7CE0101973F
:104C7000F1F7CE010197F1F7CE010197F1F7CE01DF
:104C80000197F1F7CE010197F1F7CE010197F1F706
:104C90002197F1F780E238DA80E436DA00C00000CC
:104CA00086E290E00197F0F780E22EDA80E62CDAD7
:104CB00000C0000086E290E00197F0F7D0E0C0E08D
:104CC0008C2F8077806820DA8D2F1EDA00C00000DC
:104CD00086E290E00197F0F780E816DA80E014DAD7
:104CE00000C0000086E290E00197F0F78AEF0CDA4E
:104CF00000C0000086E290E00197F0F790E2119882
:104D000000C080910201817080930001119A00C05F
:104D100000C0119800C08091020181708093000151
:104D2000119A00C000C0119800C0809102018170EA
:104D300080930001119A00C000C0119800C08091BA
:104D40000201817080930001119A00C000C0119887
:104D500000C080910201817080930001119A00C00F
:104D600000C0119800C08091020181708093000101
:104D7000119A00C000C0119800C08091020181709A
:104D800080930001119A00C000C0119800C080916A
:104D90000201817080930001119A00C000C0119837
:104DA00000C080910201817080930001119A00C0BF
:104DB00000C0119800C080910201817080930001B1
:104DC000119A00C000C0119800C08091020181704A
:104DD00080930001119A00C000C0119800C080911A
:104DE0000201817080930001119A00C000C01198E7
:104DF00000C080910201817080930001119A00C06F
:104E000000C0119800C08091020181708093000160
:104E1000119A00C000C0119800C0809102018170F9
:104E200080930001119A00C000C0119800C08091C9
:104E30000201817080930001119A00C000C000C07F
:104E40000000E6E2F0E03197F0F7915009F057CF1B
:104E500088EF5AD900C0000086E290E00197F0F791
:104E6000CF5FD05FC03209F02BCF80E04DD980EC0E
:104E70004BD900C0000086E290E00197F0F78091E6
:104E800002018270809300012BCEF8018581888316
:104E900027CE80E026CEB901C8010F94191820CE84
:104EA000D80111968C9188831BCE443191F0473103
:104EB00009F016CE1882D80112968C911297898328
:104EC00015968C91159781508A8313968C918B83BC
:104ED00007CED80115964C91159750E0440F551FF9
:104EE00070E060E016968D919C910F94DA3BF8018A
:104EF00012828081815083831482F2CD481708F496
:104F0000EFCD861708F4ECCDFA80E12CD12C2430BB
:104F100070F426CEBE01C8010F94191889819881BA
:104F20009D0D98838E0D8983FF0C09F4D9CDF7FE72
:104F3000F6CFF0CF58E0580F382FFECDEF92FF920A
:104F40000F931F93CF93DF93EC018B017A018A8536
:104F50009B858617970731F0888199810F944B1AAA
:104F60001B870A87B701888199810F94540C2E8181
:104F70003F81820F932F911D9F838E8390E080E06D
:104F8000DF91CF911F910F91FF90EF9008959F9225
:104F9000AF92BF92CF92DF92EF92FF920F931F9347
:104FA000CF93DF93EC018B01942EA52E8A859B85F0
:104FB0008617970731F0888199810F944B1A1B87C8
:104FC0000A8788859985019649F5BC800A818E817A
:104FD000080FC880D980D6015596ED91FC91C60185
:104FE0001995B80EE92CFA2C10E0F70121917F01F8
:104FF000211127C08E819F81810F911D9F838E83F8
:1050000090E080E0DF91CF911F910F91FF90EF90A2
:10501000DF90CF90BF90AF909F9008950E811F8139
:10502000692D7A2D888199810F94540C800F912FCE
:10503000911D288539852817390738F681E090E0D9
:10504000E1CF4B2D602FC6010F94A31A080F180F44
:10505000CCCFDF92EF92FF920F931F93CF93DF930A
:10506000EC01D62E1CAD0BAD7C0184E0E80EF11CEA
:10507000E98DFA8DC7011995412F480F2D2D602F0D
:10508000C7010F94A31A9BAD890F8BAF81E090E00D
:10509000DF91CF911F910F91FF90EF90DF900895D6
:1050A0002F923F924F925F926F927F928F929F9238
:1050B000AF92BF92CF92DF92EF92FF920F931F9326
:1050C000CF93DF93CDB7DEB72D970FB6F894DEBF41
:1050D0000FBECDBF8091B212813031F0809150155A
:1050E00082FF6EC087FD6CC00E94BADA4B015C0182
:1050F00045E050E060E270E08BEE94E00F94DA3B24
:1051000085E48093E9048AE38093EA04C501B4014D
:1051100020E13EE040E050E00F943638D22EC32E1E
:10512000022F132F8CE3282E312C412C512CC5013A
:10513000B401A20191010F943638762E672ECA0170
:10514000B901A20191010F9436389E012F5F3F4FA4
:10515000790130E8831631E5930631E0A306B10406
:1051600008F447C07F936F93C80168E170E00F9423
:10517000AC389F938F93C501B40120E831E541E03D
:1051800050E00F9436383F932F9381E695E09F933C
:105190008F93FF92EF920F94A531C7010F945B316B
:1051A0000FB6F894DEBF0FBECDBF2CE030E0A901F2
:1051B000481B5109CA01B70187519B4F0F94FF3B10
:1051C0002D960FB6F894DEBF0FBECDBFDF91CF9105
:1051D0001F910F91FF90EF90DF90CF90BF90AF9015
:1051E0009F908F907F906F905F904F903F902F9007
:1051F00008950115110599F46F927F927F936F9333
:1052000085E595E09F938F93FF92EF920F94A531E0
:105210000FB6F894DEBF0FBECDBF85E0C6CF043613
:10522000110538F47F936F93CF92DF9289E495E074
:10523000E9CF7F936F93CF92DF928FE395E09F93B7
:105240008F93FF92EF920F94A5310FB6F894DEBFC3
:105250000FBECDBF86E0A9CFCF93C091F704CC237A
:1052600091F14CE050E060E270E089EE94E00F9440
:10527000DA3B80E2C43628F08C2F64E60F94933832
:10528000805D8093F30590E2CA3040F02AE08C2FD5
:10529000622F0F9493380F949338905D9093F40598
:1052A0008C2F6AE00F949338905D9093F50583E01E
:1052B000E3EFF5E0ADEEB4E001900D928A95E1F7F1
:1052C00085E28093F004CF910895CF92DF92EF9220
:1052D000FF920F931F93CF93DF93CDB7DEB72C9739
:1052E0000FB6F894DEBF0FBECDBFF0903314E09040
:1052F00034142091E00421111DC045EF54E06E2DBF
:105300008F2D0F940E1B90E080E0F80EF092331476
:10531000E092341499272C960FB6F894DEBF0FBE96
:10532000CDBFDF91CF911F910F91FF90EF90DF9054
:10533000CF900895C0900014D09001142CEF33E169
:105340003A8329832F2D30E03C832B832E2D30E0B0
:105350003E832D8318861F827A8769871C861B8669
:1053600007EC17E29E012F5F3F4F48E650E2BC0179
:10537000C6010F940B01B6018CEF93E10F944B1A09
:105380008F819885C2CF0E945DC7882339F020E0C5
:1053900040E070E060E089EA96E386C814C90F93A4
:1053A0001F93CF93DF938C01EB019091E413209135
:1053B000E513921305C00E94A1DE0E941CE9F5CFFF
:1053C0008091E31334E0839FF0011124EA51FC4EF5
:1053D00011830083D383C2839F5F9093E4138F5F15
:1053E000281739F08093E313DF91CF911F910F912C
:1053F00008951092E313F8CF63E972E084E690E039
:10540000CEDF70E060E08AE090E0C9DF6AEB72E036
:1054100084E690E0C4CF0E94BDD8EECF8111ECCFDE
:1054200068E270E080E991E0BACF0E94BBC4F6CF99
:105430000E9490E7F3CFCF930E94BDD80E94BBC4D7
:10544000C82F882319F080E00E94B6C38C2FE6DFB6
:10545000CF913EC9CF93DF93C0919B13D0919C1302
:10546000209729F160919713709198138091991367
:1054700090919A130F94323A6E5F7F4F24976C1776
:105480007D07ACF470938706609386060F947A10BC
:10549000605C73468F4F9F4F6093880670938906B8
:1054A00080938A0690938B06DF91CF910895109296
:1054B00088061092890610928A0610928B06F4CF05
:1054C000C9CF6111609366024093AF088C3008F039
:1054D00038C0E82F880FFF0B8827EE58F54D8F4F07
:1054E0000D94D338A22A7E2A892AA52A8C2A8F2AAB
:1054F000922A9E2A952AA12A982A9B2A8FE190E433
:1055000021E02093AD0820E040E070E060E00C94E2
:10551000542285E290E4F4CF88E290E4F1CF8BE26C
:1055200090E4EECF8EE290E4EBCF81E390E4E8CF1D
:1055300084E390E4E5CF87E390E4E2CF85E091E572
:10554000DFCFC6C88CE190E4DBCF82E290E4D8CF15
:10555000282F10926F0880915A0890915B08A091B3
:105560005C08B0915D08B7FF08C010925A0810920D
:105570005B0810925C0810925D0880916605882394
:1055800031F080915A0880934F0810926A088091F8
:1055900049081816FCF4082E000C990B821B91097F
:1055A00020914F08022E000C330B2817390794F076
:1055B00097FF02C090E080E080934F08092E000C16
:1055C000AA0BBB0B80935A0890935B08A0935C08CE
:1055D000B0935D0880914F086623A9F09091500820
:1055E000891714F48093500820915008022E000C63
:1055F000330B2C5F3F4F482F082E000C550B241700
:1056000035071CF48450809350080895CF93DF939E
:10561000C0915705CC23B9F0C150C093570589E01C
:10562000C89FE0011124CF5DDA4F6A817B812F8111
:105630004E81888199810E94542288858093AD088B
:10564000DF91CF910895DF91CF9142C84F925F9241
:105650006F927F928F929F92AF92BF92CF92DF9282
:10566000EF92FF920F931F93CF93DF930091530814
:1056700061E081E06DDFC091500810E0000F111F64
:105680000C5D114F95E0592E5C0E2CEFE22E2DE0B3
:10569000F22ED3E0DC1B38EEC32E31E2D32E4AE0EB
:1056A000A42E4EE0B42E82E0782E7C1A55E3852E8F
:1056B0005EE0952E81E0682E6C1A4C2E4194C1114B
:1056C00036C080914F088823B1F080916102882311
:1056D00059F081E090914F08911180E024E048E179
:1056E0005EE0642D0F94890BCF5FC511E8CF84E095
:1056F000809349080BC080914A0810924A08882379
:1057000021F384DF80916A088823F9F2DF91CF9139
:105710001F910F91FF90EF90DF90CF90BF90AF90CF
:105720009F908F907F906F905F904F900895C130C1
:1057300089F5F801859194911092730890937708F8
:1057400080937608109275081092740880914F0823
:10575000813081F080916102882331F21F929F9203
:105760008F926F9281E090914F08913009F480C040
:1057700080E07EC080914A0810924A08882351F345
:1057800080915308682F0F947D1F80916A088823A9
:1057900009F3BCCFC23009F048C0F801859194915B
:1057A000109273089093770880937608109275088A
:1057B0001092740880914F088230D1F0809161027C
:1057C000882309F491CFDF92CF92BF92AF927F925C
:1057D00081E090914F08923009F080E08F930E9411
:1057E0007D210F900F900F900F900F900F907CCF16
:1057F00080914A0810924A08882301F30E94E82108
:1058000080916A088823D1F281CF80914A08109252
:105810004A088823F1F0609153088FEF0F947D1FA1
:1058200080916A088823A9F071CFC33009F05CCF5A
:10583000F801859194911092730890937708809362
:105840007608109275081092740880914F08833082
:10585000E1F280916102882309F446CF1F92FF9202
:10586000EF92DF9381E090914F08933009F080CF61
:105870008F930E947D210F900F900F900F900F90AB
:1058800033CF80E090E0A0E8B0E480937902909379
:105890007A02A0937B02B0937C0285ED92E00E9495
:1058A00066D4809160050E942A751092AD08AECE34
:1058B000E0915705E63028F581E08E0F809357057B
:1058C00040915A0850915B0860915C0870915D08A6
:1058D00020915008909149088091AD0839E0E39FEC
:1058E000F0011124EF5DFA4FA091F613B091F71378
:1058F000B183A08342835383648375832683978314
:1059000080870895CF93DF93EC01D2DF20E040E061
:1059100070E060E0CE01DF91CF910C9454229F9211
:10592000AF92BF92CF92DF92EF92FF920F931F93AD
:10593000CF93DF9361E081E00BDEC091500885E0FA
:10594000E82EEC0E98EDC92E9DE0D92ED4E0DC1B9C
:1059500013E01C1B23EFA22E2DE0B22E02E00C1B45
:1059600081E0F82EFC1A9C2E9194C11131C08091D7
:105970004F088823B1F080916102882359F081E0BB
:1059800090914F08911180E024E047EF5DE0692D90
:105990000F94890BCF5FEC12E8CF85E08093490824
:1059A0000BC080914A0810924A08882321F32EDE0A
:1059B00080916A088823F9F2DF91CF911F910F91AE
:1059C000FF90EF90DF90CF90BF90AF909F900895A1
:1059D000C13009F580914F08813079F080916102E2
:1059E0008823C1F281E090914F08913009F080E066
:1059F00023E044E254E36F2DCBCF80914A0810920C
:105A00004A08882359F387E79DE27CDF80916A0882
:105A1000882321F3D1CFC23009F052C090914F08B2
:105A2000923071F080916102882309F4B3CF81E054
:105A3000923009F080E020E249EE5DE0602FA8CFCF
:105A400080914A0810924A08882361F3B092E307D4
:105A5000A092E20780916A08882321F3ADCF80915C
:105A60004F08833081F080916102882309F492CF3E
:105A700081E090914F08933009F080E023E04CEDF5
:105A80005DE0612F85CF80914A0810924A088823F3
:105A900051F38FE096E536DF80916A08882319F389
:105AA0008BCF80914A0810924A08882391F0D092B7
:105AB000E307C092E20780916A08882351F07CCF07
:105AC000C33069F2C43009F065CF90914F0894302B
:105AD00041F380916102882309F45CCF81E0943026
