:100000000C94AD1B0C94ED1B0C94ED1B0C94ED1B90
:100010000C94ED1B0C94ED1B0C94ED1B0C94ED1B40
:100020000C94ED1B0C94ED1B0C94ED1B0C94ED1B30
:100030000C94ED1B0D9442180C94ED1B0C94ED1BCD
:100040000C94ED1B0C9447C40C94ED1B0C94ED1B0D
:100050000C94ED1B0C9423C30C94ED1B0D94F8171A
:100060000C94ED1B0C94BD880C94B3880C94ED1B80
:100070000C94ED1B0C94ED1B0C94ED1B0C94ED1BE0
:100080000C94ED1B0C94ED1B0C94ED1B0C94ED1BD0
:100090000C94ED1B0C94ED1B0C94ED1B0C94ED1BC0
:1000A0000C94ED1B0C94ED1B0C94ED1B0C94ED1BB0
:1000B0000C94ED1B0C94ED1B0C94ED1B0C94ED1BA0
:1000C0000C94ED1B0C94ED1B0C94ED1B0C94ED1B90
:1000D0000C94ED1B0C94ED1B0C94ED1B0C94ED1B80
:1000E0000C94ED1B084AD73B3BCE016E84BCBFFD90
:1000F000C12F3D6C74319ABD56833DDA3D00C77FF8
:1001000011BED9E4BB4C3E916BAAAABE0000008090
:100110003F05A84CCDB2D44EB93836A9020C50B91F
:10012000918688083CA6AAAA2ABE000000803F004B
:100130000D9463100D9451100D94972D0D94092773
:100140000D9482100D946B100D94A2100D948024C8
:100150000D949E100D944C100D9472100D94671018
:100160000D948A100D9486100D94E8260D94FA26AD
:100170000D946F100D9490100D9498100D94AE275F
:100180000D9478100D9494100D948C260D947C1081
:100190004E414E494E495459494E46CDCCCC3D0A6C
:1001A000D7233C17B7D13877CC2B329595E6241F4F
:1001B000B14F0A000020410000C84200401C462008
:1001C000BCBE4CCA1B0E5AAEC59D7400407A10F3DB
:1001D0005A00A0724E18090010A5D4E80000E87675
:1001E00048170000E40B54020000CA9A3B000000CC
:1001F000E1F505000080969800000040420F0000E5
:1002000000A08601000000102700000000E80300A5
:100210000000006400000000000A0000000000016F
:1002200000000000002C76D888DC674F0823DFC16F
:10023000DFAE59E1B1B796E5E3E453C63AE651992A
:100240007696E8E6C28426EB898C9B62ED407C6F53
:10025000FCEFBC9C9F40F2BAA56FA5F490055A2A0A
:10026000F75C936B6CF9676DC11BFCE0E40D47FE16
:10027000F520E6B500D0ED902E030094357705000B
:1002800080841E080000204E0A000000C80C333392
:1002900033330F986E12831141EF8D2114893BE6A1
:1002A0005516CFFEE6DB18D1844B381BF77C1D902A
:1002B0001DA4BBE424203284725E228100C9F12493
:1002C000ECA1E53D27554E4C4F41442046494C4159
:1002D0004D454E54004C4F41442046494C414D45FC
:1002E0004E540046494C414D454E54204348414EE2
:1002F0004745004E796C6F6E0050455447004142AF
:100300005300504C410042656420436F6F6C696E2E
:10031000672E2E2E004265642048656174696E6701
:100320002E2E2E00206661696C6564212042616476
:10033000206865617465722069640A005049442030
:100340004175746F74756E650023646566696E65CA
:100350002044454641554C545F004B6420004B6996
:1003600020004B7020002066696E69736865642107
:100370002050757420746865206C617374204B7014
:100380002C204B6920616E64204B6420636F6E7378
:1003900074616E74732066726F6D2062656C6F7726
:1003A00020696E746F20436F6E6669677572617441
:1003B000696F6E2E680A00504944204175746F744D
:1003C000756E6500206661696C6564212074696DD5
:1003D000656F75740A00504944204175746F7475D7
:1003E0006E6500206661696C6564212054656D70DE
:1003F0006572617475726520746F6F2068696768D3
:100400000A00504944204175746F74756E65005040
:100410004944204379636C65730025532025692F77
:10042000256900204B643A2000204B693A200020C7
:100430004B703A200020436C61737369632050490C
:1004400044200A002054753A2000204B753A2000C1
:10045000206D61783A2000206D696E3A200020649A
:100460003A200020626961733A200048656174692E
:100470006E672E2E2E002073746172740A0050492C
:1004800044204175746F74756E6500206661696CF7
:100490006564212054656D706572617475726520A4
:1004A000746F6F20686967680A005049442041757D
:1004B000746F74756E6500504944204175746F7493
:1004C000756E65004572723A207574663820666FE5
:1004D0006E74206E6F7420696E697469616C697ADC
:1004E00065642E004572723A207574663820666F16
:1004F0006E74206E6F7420696E697469616C697ABC
:1005000065642E004572723A207574663820666FF5
:100510006E74206E6F7420696E697469616C697A9B
:1005200065642E002000200020003A003A00256873
:10053000753A25303268750025303268753A2530B5
:1005400032687500253032687527253032687500AD
:10055000256875642025303268753A253032687513
:100560000042656400456E636C6F7375726500458B
:100570000020002000200020002000250020202056
:1005800020202020002020202000657272001FE023
:1005900020102010201010201020201020103030AB
:1005A0000840048003001FE03FF03FF03FF01FE0F1
:1005B0001FE03FF03FF03FF00FC0078003003FFF18
:1005C000F038007030FC3020FC1020781020301003
:1005D0002C00D02E31D02F7BD02F7BD02E31D02CA1
:1005E00000D020301020781020FC1030FC30380073
:1005F000703FFFF03FFFF0380070318630238710E6
:100600002787902F87D02F03D020301020781020FC
:1006100078102030102F03D02F87D0278790238782
:10062000103186303800703FFFF01FFFF81FFFF8D1
:100630000410400208200208200410400820801006
:1006400041001041000820800410400000001FFFFE
:10065000F81FFFF83E0FF0C18618C1860C01860412
:100660000306041F0604030604018604C1860CC1A8
:1006700086183E0FF05072696E742041626F72747A
:100680006564004D323520500A4D3234005061759A
:1006900073696E672E2E2E004D3234004545505240
:1006A0004F4D2056657273696F6E204572726F727E
:1006B00000454550524F4D20496E64657820457283
:1006C000726F7200454550524F4D204352432045B2
:1006D00072726F72003F0049676E6F7265005265FB
:1006E00073657400496E697469616C697A65204547
:1006F0004550524F4D0050726F6265205A204F6630
:1007000066736574004C6F6164206D6D00556E6C8E
:100710006F6164206D6D0046696C2E204469612E06
:10072000004F6666004F6E004520696E206D6D5E5D
:10073000330020082046616374002008204D617852
:10074000002008204D696E004D696E20547261765C
:10075000656C205370656564004D696E2056656C4C
:100760006F63697479004D6178204020537065652E
:1007700064004D6178204520416363656C004D61E4
:1007800078204020416363656C0054726176656C2B
:1007900020416363656C005265747261637420412B
:1007A0006363656C00416363656C0050726F6265E2
:1007B000205A204F66667365740050726F62652020
:1007C00059204F66667365740050726F62652058D9
:1007D000204F666673657400402073746570732FD4
:1007E0006D6D00416476616E636564205365747459
:1007F000696E6773003F0043616E63656C00496E0C
:100800006974004D34323800496E697469616C69ED
:100810007A6520454550524F4D0046696C616D65C3
:100820006E740054656D7065726174757265005305
:10083000746570732F6D6D0050726F6265204F6626
:100840006673657473004A756E6374696F6E2044D5
:10085000657600416363656C65726174696F6E00F3
:100860004D617820537065656420286D6D2F732964
:100870000053657420486F6D65204F66667365741C
:100880007300436F6E66696775726174696F6E009D
:100890003F004E65787420436F726E657200446F3E
:1008A0006E65004E65787400486F6D696E672058FC
:1008B000595A0053746F72652053657474696E677A
:1008C00073004C6F61642053657474696E677300C4
:1008D000426564205472616D6D696E670050726F7D
:1008E0006265205A204F66667365740046616465D0
:1008F00020486569676874004F6666004F6E004265
:100900006564204C6576656C696E67004C6576653C
:100910006C20426564004732394E0047323900414D
:1009200075746F20486F6D65004D6F74696F6E0050
:10093000426564004E6F7A7A6C650046616E2053A2
:100940007065656400436F6E66696775726174698E
:100950006F6E00526573746F7265204465666175D1
:100960006C7473004C6F61642053657474696E67B6
:10097000730053746F72652053657474696E677386
:100980000050726568656174202420436F6E6600B4
:100990004F6666004F6E0052756E6F75742053651A
:1009A0006E736F720050726F6265205A204F6666D8
:1009B00073657400416476616E6365642053657489
:1009C00074696E6773004D61696E004D3730322077
:1009D000542564004D3630302042302054256400C8
:1009E0004D373032203B2564004D373031205425BF
:1009F00064004368616E67652046696C616D656E71
:100A000074005072656865617420437573746F6D0E
:100A100000507265686561742024004261636B0058
:100A20004D363030423000436F6E74696E7565002C
:100A30004F6666004F6E0052756E6F757420536579
:100A40006E736F72005075726765206D6F7265000E
:100A5000524553554D45204F5054494F4E533A003F
:100A60005052494E5420504155534544002F0020C8
:100A70000020204E6F7A7A6C653A20005061726BCC
:100A8000696E672E2E2E0000005761697420666F14
:100A9000720066696C616D656E74206368616E6773
:100AA0006500746F207374617274005761697420FB
:100AB000666F720066696C616D656E7420756E6C30
:100AC0006F616400004E6F7A7A6C652068656174AE
:100AD000696E6700506C6561736520776169742E7B
:100AE0002E2E0000507265737320627574746F6EE1
:100AF00000746F2068656174206E6F7A7A6C65008F
:100B000000496E736572742066696C616D656E7400
:100B100000616E6420707265737320627574746F07
:100B20006E00746F20636F6E74696E756500576137
:100B3000697420666F720066696C616D656E742001
:100B40006C6F616400005072657373204275747439
:100B50006F6E00746F20726573756D6520707269B9
:100B60006E7400005761697420666F72207072693C
:100B70006E7400746F20726573756D652E2E2E0075
:100B800000436C69636B20746F2066696E697368DB
:100B90000066696C616D656E7420707572676500C2
:100BA000003132300035004245443A204550434F31
:100BB00053203130304B0052756E61776179205788
:100BC000617463683A204F4E004D61782054656D22
:100BD0007000323635004D696E2054656D700035F9
:100BE0000045313A204550434F53203130304B00BF
:100BF0005053550047656E657269630050726F749B
:100C00006F636F6C00312E300042617564003235C5
:100C10003030303000437265616C69747933442040
:100C200052414D50530042696C696E656172204CAF
:100C30006576656C696E6700457874727564657277
:100C4000730031006D61726C696E66772E6F72672A
:100C50000043522D313020533400323032332D30A6
:100C6000312D3234006275676669782D322E312E4F
:100C700078004D61726C696E00546865726D6973BD
:100C8000746F727300426F61726420496E666F0008
:100C90005072696E74657220496E666F004D6169AD
:100CA0006E003F004261636B0053746F70003F0041
:100CB0004E4F00594553004368616E676520466991
:100CC0006C616D656E74004E6F204D6564696100E6
:100CD0005072696E742066726F6D204D6564696133
:100CE000004368616E6765204D65646961004D323F
:100CF000310041626F7574205072696E74657200C4
:100D0000436F6E66696775726174696F6E005465D2
:100D10006D7065726174757265004D6F74696F6E88
:100D200000526573756D65205072696E740054755C
:100D30006E650053746F70205072696E740050615C
:100D4000757365205072696E7400496E666F20532A
:100D5000637265656E003F00537461727420507257
:100D6000696E740043616E63656C005072696E74E5
:100D70000043616E6E6F7420656E746572207375CA
:100D8000626469723A200002202E2E004D61696E65
:100D9000002100486F74656E6420746F6F20636F6C
:100DA0006C64004261636B0050726F636565640040
:100DB0004D6F7665204578747275646572004732B0
:100DC000385A004732385900486F6D652040004757
:100DD000323858004175746F20486F6D6500473296
:100DE00038004D6F74696F6E0044697361626C65A1
:100DF000205374657070657273004D38340042651D
:100E000064204C6576656C696E6700486F6D696E2D
:100E100067004D61696E00507265686561742024D9
:100E20002042656400507265686561742024204525
:100E30006E640054656D7065726174757265000250
:100E400003FE02F902F302436F6F6C646F776E006A
:100E50005072656865617420240046616E2053708D
:100E600065656400426564004E6F7A7A6C65004D7A
:100E700061696E0050726F6265205A204F6666731A
:100E8000657400466C6F770046616E20537065652F
:100E90006400426564004E6F7A7A6C650053706539
:100EA0006564004D61696E00000C0F00FE070225AD
:100EB00003BB017FFE08FE08FE050808060000408F
:100EC000F0C88888987810050808060000C0F888DF
:100ED00088888888F80505050600012030F830204C
:100EE0000508080600002070F820202020E00509F1
:100EF000090600FF2070A8A8B8888870200705059B
:100F0000070001D86C366CD80509090600FFF8A85F
:100F10008888888888A8F8050A0A0600FE205050AC
:100F2000505088A8A8887003030306000340A0401F
:100F3000FFFFFFFFFFFFFFFFFFFFFFFFFFFFFFFFC1
:100F4000FFFFFFFFFFFF0000000605FF0107070688
:100F5000020080808080800080030303060105A0DA
:100F6000A0A005060606000050F85050F8500509EC
:100F7000090600FF2070A8A07028A87020050707A8
:100F8000060000C8C8102040989805070706000012
:100F900040A0A040A890680103030602058080805D
:100FA0000309090601FF2040408080804040200363
:100FB00009090601FF8040402020204040800507AD
:100FC0000706000020A8702070A82005050506006F
:100FD000012020F820200203030601FFC040800505
:100FE0000101060003F8020202060100C0C0050765
:100FF0000706000008101020404080050707060083
:1010000000708898A8C8887003070706010040C0D0
:1010100040404040E00507070600007088081020A7
:1010200040F8050707060000F8081030088870052A
:10103000070706000010305090F81010050707064B
:101040000000F880F00808887005070706000030E7
:101050004080F0888870050707060000F808101027
:101060002020200507070600007088887088887097
:1010700005070706000070888878081060020505DB
:10108000060100C0C000C0C00206060601FFC0C0C5
:1010900000C0408003050506010120408040200576
:1010A0000303060002F800F803050506010180406D
:1010B00020408005070706000070881020200020CF
:1010C0000507070600007088B8A8B88070050707F4
:1010D000060000708888F8888888050707060000E1
:1010E000F04848704848F0050707060000708880FF
:1010F00080808870050707060000F0484848484887
:10110000F0050707060000F88080F08080F80507EA
:1011100007060000F88080F0808080050707060041
:10112000007088808098887005070706000088880E
:1011300088F8888888030707060100E0404040409F
:1011400040E00507070600003810101010906005F9
:1011500007070600008890A0C0A090880507070632
:101160000000808080808080F805070706000088E6
:10117000D8A8888888880507070600008888C8A836
:101180009888880507070600007088888888887016
:10119000050707060000F08888F0808080050707B3
:1011A00006000070888888A8906805070706000078
:1011B000F08888F0A09088050707060000708880F6
:1011C00070088870050707060000F82020202020FE
:1011D000200507070600008888888888887005072A
:1011E00007060000888888885050200507070600F9
:1011F0000088888888A8A850050707060000888806
:101200005020508888050707060000888850202055
:101210002020050707060000F80810204080F8038A
:1012200009090601FFE080808080808080E005075A
:10123000070600008040402010100803090906013D
:10124000FFE020202020202020E0050303060005E9
:101250002050880501010600FEF80303030601057E
:10126000804020050505060000700878887805078D
:10127000070600008080F0888888F00505050600D4
:1012800000708080887005070706000008087888CD
:101290008888780505050600007088F080700507CD
:1012A00007060000304840E04040400507070600C0
:1012B000FE7088888878087005070706000080801F
:1012C000F0888888880307070601004000C0404076
:1012D00040E00409090601FE1000301010101090C3
:1012E0006005070706000080808890E0908803076B
:1012F00007060100C04040404040E00505050600EB
:1013000000D0A8A8A8A8050505060000B0C88888D0
:10131000880505050600007088888870050707069F
:1013200000FEF0888888F080800507070600FE78B8
:10133000888888780808050505060000B0C8808000
:101340008005050506000078807008F0050707068F
:1013500000002020F8202020180505050600008840
:10136000888898680505050600008888885020054B
:1013700005050600008888A8A85005050506000098
:1013800088502050880507070600FE88888850206E
:101390004080050505060000F8102040F803090903
:1013A0000601FF20404040804040402001090906DE
:1013B00002FF808080808080808080030909060190
:1013C000FF8040404020404040800503030600026B
:1013D00048A890FF434F4D4D554E49434154494F06
:1013E0004E0044525952554E004552524F525300EE
:1013F000494E464F004543484F0053544F505045C7
:10140000442E20005072696E7465722073746F7080
:101410007065642064756520746F206572726F72E8
:10142000732E2046697820746865206572726F7229
:1014300020616E6420757365204D39393920746FD1
:1014400020726573746172742E202854656D706506
:101450007261747572652069732072657365742E8C
:10146000205365742069742061667465722072650A
:101470007374617274696E67290A004E6F20436845
:1014800065636B73756D2077697468206C696E6530
:10149000206E756D6265722C204C617374204C69EE
:1014A0006E653A20004E6F20436865636B73756DFF
:1014B0002077697468206C696E65206E756D626551
:1014C000722C204C617374204C696E653A20006365
:1014D0006865636B73756D206D69736D61746368A6
:1014E0002C204C617374204C696E653A20004C6965
:1014F0006E65204E756D626572206973206E6F7423
:10150000204C617374204C696E65204E756D626568
:10151000722B312C204C617374204C696E653A201B
:10152000004D3131300053657269616C2073746114
:10153000747573206D69736D617463680A00534438
:101540002072656164206572726F720A004B494CAB
:101550004C20627574746F6E2F70696E0A002121C1
:10156000204B494C4C20636175736564206279207F
:1015700000746F6F206D75636820696E61637469B4
:1015800076652074696D65202D2063757272656EB5
:101590007420636F6D6D616E643A20002121204BD1
:1015A000494C4C2063617573656420627920006248
:1015B0007573793A2070617573656420666F722067
:1015C000696E7075740A00627573793A207061757E
:1015D00073656420666F7220757365720A006275A8
:1015E00073793A2070726F63657373696E670A006E
:1015F0004D656469612052656D6F766564004D6567
:1016000064696120496E736572746564004D36309B
:101610003000506C656173652052657365740050CD
:1016200052494E5445522048414C5445440025539C
:101630003A202553004B494C4C45442E2000507213
:10164000696E7465722068616C7465642E206B69C4
:101650006C6C28292063616C6C6564210A0000654C
:1016600063686F3A004572726F723A0042696C6942
:101670006E656172204C6576656C696E6720477295
:1016800069643A0A00486F74656E6420746F6F2055
:10169000636F6C640A0053656E64204D31303820EE
:1016A000746F20726573756D650A00496E7365729B
:1016B000742066696C616D656E7420616E64207360
:1016C000656E64204D3130380A0053656E64204DDC
:1016D00031303820746F2068656174206E6F7A7ABB
:1016E0006C650A004732362043616E63656C656441
:1016F000004732362048656174696E67204E6F7A04
:101700007A6C65004732362048656174696E6720DF
:101710004265640057616974696E6720666F722064
:101720006865617475702E0A004669786564204C9E
:10173000656E677468205072696D6500446F6E65F0
:10174000205072696D696E67004D616E75616C2025
:101750007072696D696E672E2E2E004C6561766918
:101760006E6720473236003F53706563696669656E
:101770006420582C5920636F6F7264696E617465C0
:10178000206F7574206F6620626F756E64732E0A09
:10179000003F28522965706561742076616C75651B
:1017A000206E6F7420706C61757369626C653B208C
:1017B0006D757374206265206174206C656173744B
:1017C00020312E0A003F53706563696669656420A5
:1017D0006E6F7A7A6C652074656D70657261747570
:1017E0007265206E6F7420706C61757369626C65D0
:1017F0002E0A003F537065636966696564206669F7
:101800006C616D656E742073697A65206E6F7420EB
:10181000706C61757369626C652E0A003F53706568
:10182000636966696564207072696D65206C656EB8
:10183000677468206E6F7420706C61757369626C78
:10184000652E0A003F537065636966696564206EA2
:101850006F7A7A6C652073697A65206E6F74207078
:101860006C61757369626C652E0A003F5265747213
:10187000616374696F6E204D756C7469706C696515
:1018800072206D757374206265207370656369667C
:101890006965642E0A003F53706563696669656413
:1018A0002052657472616374696F6E204D756C743B
:1018B00069706C696572206E6F7420706C617573ED
:1018C00069626C652E0A003F5370656369666965DD
:1018D00064206C6179657220686569676874206E40
:1018E0006F7420706C61757369626C652E0A0043B9
:1018F000292E0A003F53706563696669656420623A
:1019000065642074656D7065726174757265206EB2
:101910006F7420706C61757369626C652028343057
:101920002D00473236207374617274696E672E2EF3
:101930002E0A004F46460A004661646520486569E4
:101940006768742000426564204C6576656C696E3A
:101950006720004661696C656420746F20656E6164
:10196000626C6520426564204C6576656C696E67C3
:101970000A00496E76616C6964206D6573682E0A91
:101980000050726F62696E6720506F696E74002537
:10199000532025692F2569002E0A002F0050726FF1
:1019A00062696E67206D65736820706F696E742060
:1019B00000202844525952554E29004732392041BF
:1019C00075746F20426564204C6576656C696E673E
:1019D000003F20284C2C522C462C4229206F757435
:1019E000206F6620626F756E64732E0A003F285662
:1019F000296572626F7365206C6576656C20696D10
:101A0000706C61757369626C652028302D34292EE5
:101A10000A00426164205A2076616C75650A004EA6
:101A20006F2062696C696E65617220677269640A11
:101A30000020440020204D32303020530020284424
:101A4000697361626C6564293A0046696C616D6511
:101A50006E742073657474696E67730020204D3254
:101A600030312058004D617820416363656C6572A8
:101A70006174696F6E2028756E6974732F733229D3
:101A80000020204D3230332058004D6178206665AB
:101A9000656472617465732028756E6974732F7341
:101AA000290020520020204D323034205000416364
:101AB00063656C65726174696F6E2028756E6974F8
:101AC000732F7332292028503C7072696E742D6117
:101AD0006363656C3E20523C726574726163742D61
:101AE000616363656C3E20543C74726176656C2D55
:101AF000616363656C3E2900204A00205400205336
:101B00000020204D323035204200416476616E6302
:101B100065642028423C6D696E5F7365676D656E14
:101B2000745F74696D655F75733E20533C6D696EBB
:101B30005F66656564726174653E20543C6D696ED4
:101B40005F74726176656C5F666565647261746509
:101B50003E204A3C6A756E635F6465763E290020CC
:101B6000440020490020204D333031205000486F80
:101B700074656E642050494400203B0020550020CD
:101B8000204D363033204C0046696C616D656E74B3
:101B9000206C6F61642F756E6C6F6164003B200078
:101BA00020496E76616C696420657874727564652D
:101BB00072200047322F47332062616420706172C7
:101BC000616D65746572730A00536C6565702E2EC5
:101BD0002E005A2050726F6265205061737420424B
:101BE00065640A005A2050726F62652050617374F8
:101BF00020426564004732384C3000205A3A2000B9
:101C000020593A200042656420583A20004D6573FF
:101C10006820706F696E74206F7574206F66207213
:101C2000616E67650A00436C69636B20746F2052B4
:101C30006573756D652E2E2E004E6F204D6F766587
:101C40002E00456E642066696C65206C6973740AA9
:101C500000426567696E2066696C65206C69737403
:101C60000A004E6F206D656469610A00286E6F205E
:101C700066696C65290043757272656E74206669C9
:101C80006C653A20004E6F74205344207072696E68
:101C900074696E670A005344207072696E74696ECD
:101CA00067206279746520002E0A0044656C6574B3
:101CB000696F6E206661696C65642C2046696C658D
:101CC0003A200046696C652064656C657465643A09
:101CD000002569730025696D2025697300256968F1
:101CE0002025696D202569730025696420256968B0
:101CF0002025696D2025697300256979202569648F
:101D0000202569682025696D202569730050726956
:101D10006E742074696D653A20006F6B006F6666A3
:101D200000F513F013E913E213D413444542554769
:101D30003A004D31313320530043522D313020537E
:101D400034204F46462E00434F4E4649475F455884
:101D5000504F5254004D4541545041434B00434F66
:101D60004F4C45525F54454D504552415455524594
:101D7000004348414D4245525F54454D5045524104
:101D80005455524500424142595354455050494ED2
:101D9000470041524353004D4F54494F4E5F4D4F02
:101DA00044455300544845524D414C5F50524F54A6
:101DB000454354494F4E00455854454E4445445FB1
:101DC0004D323000435553544F4D5F4649524D57A5
:101DD0004152455F55504C4F4144004C464E5F5771
:101DE00052495445004C4F4E475F46494C454E4181
:101DF0004D45004155544F5245504F52545F534446
:101E00005F5354415455530053445F57524954450E
:101E100000524550454154004D554C54495F564F72
:101E20004C554D45005344434152440050524F4D90
:101E300050545F535550504F525400484F53545FC5
:101E4000414354494F4E5F434F4D4D414E44530023
:101E5000454D455247454E43595F504152534552B7
:101E600000434153455F4C494748545F42524947FC
:101E700048544E45535300544F47474C455F4C49D7
:101E80004748545300534F4654574152455F504FB3
:101E9000574552004255494C445F50455243454EC8
:101EA00054004C4556454C494E475F44415441000F
:101EB0005A5F50524F42450052554E4F55540041C3
:101EC00055544F4C4556454C005052494E545F4A6C
:101ED0004F420050524F4752455353004155544FC3
:101EE0005245504F52545F54454D50004155544F48
:101EF0005245504F52545F504F5300564F4C554D22
:101F0000455452494300454550524F4D0042494EB9
:101F10004152595F46494C455F5452414E534645E4
:101F2000520053455249414C5F584F4E5F584F46FF
:101F300046004649524D574152455F4E414D453A44
:101F40004D61726C696E206275676669782D322EFC
:101F5000312E7820284A616E2032392032303233D7
:101F60002031323A33353A31312920534F555243DB
:101F7000455F434F44455F55524C3A6769746875F5
:101F8000622E636F6D2F4D61726C696E4669726D62
:101F9000776172652F4D61726C696E2050524F549B
:101FA0004F434F4C5F56455253494F4E3A312E30B6
:101FB000204D414348494E455F545950453A43529C
:101FC0002D31302053342045585452554445525FEA
:101FD000434F554E543A3120555549443A63656450
:101FE00065326132662D343161322D343734382D0B
:101FF000396231322D6335356336326633363766B2
:1020000066002F2F004D31343520533C696E6465D6
:10201000783E206F7574206F662072616E67652050
:1020200028302D31290A003F4A206F7574206F66D1
:102030002072616E67652028302E303120746F2049
:10204000302E33290A0020580020204D61783A2094
:1020500000200020204D696E3A2000203B20002007
:10206000204D323131205300536F667420656E6409
:1020700073746F707300250A0046523A0020466C54
:102080006F773A20004261627973746570205A005C
:1020900050726F6265204F6666736574205A0050F7
:1020A000726F6265204F6666736574205A006469BA
:1020B0007300656E0043290A0061626C6564202824
:1020C0006D696E2074656D702000436F6C642065CF
:1020D000787472756465732061726520004F46469E
:1020E000004F4E0046696C616D656E742072756EAE
:1020F0006F757420004D34323120696E636F7272D7
:1021000065637420706172616D65746572207573AA
:102110006167650A004D65736820706F696E742091
:102120006F7574206F662072616E67650A004545A1
:1021300050524F4D204F4B0A00290A0020746F2047
:10214000003F5A206F7574206F662072616E67655C
:10215000202800290A0020746F20003F59206F7545
:1021600074206F662072616E676520282D00290A31
:102170000020746F20003F58206F7574206F662018
:1021800072616E676520282D004D383400446F6EF3
:1021900065207072696E74696E672066696C650A85
:1021A000004D3737004D33310020204D323036207E
:1021B0005800486F6D65206F6666736574004F66E2
:1021C0006673657473204170706C69656400457254
:1021D000723A20546F6F206661722100546F6F2035
:1021E0006661722066726F6D207265666572656EDB
:1021F000636520706F696E740A00446966663A20F0
:1022000020200046726F6D5374703A0053746570ED
:102210007065723A00556E4C6576656C3A004C6597
:1022200076656C65643A005261773A202020200080
:102230000A4C6F676963616C3A00436F756E742076
:10224000453A004361703A00203B0020204D38356C
:10225000312058005A2D50726F6265204F666673A8
:10226000657400436F6F6C696E672E2E2E004531CA
:1022700020255300486F6D696E67204661696C6563
:1022800064006F70656E005452494747455245449B
:10229000003A200066696C616D656E74007A5F6D4E
:1022A000696E00795F6D696E00785F6D696E0052CE
:1022B00065706F7274696E6720656E6473746F7099
:1022C000207374617475730A0020746F6F206C6FD3
:1022D0006E6720657874727573696F6E20707265B1
:1022E00076656E7465640A0020636F6C642065789F
:1022F00074727573696F6E2070726576656E746541
:10230000640A00486F6D65202573204669727374F6
:102310000000008040000000400000000057617293
:102320006E696E673A20486F6D696E672042756D01
:10233000702044697669736F72203C20310A000274
:1023400002040000C8430000B4430000C84300007A
:10235000A0400000A040000000400000C843000072
:10236000B4430000C843000000000000000000006B
:10237000000053657474696E67732053746F7265DF
:102380006400290A002062797465733B20637263DC
:10239000200053657474696E67732053746F72659F
:1023A0006420280048617264636F6465642044653A
:1023B0006661756C742053657474696E6773204C24
:1023C0006F616465640020286D6D2900203B204CFE
:1023D0006576656C696E67200020204D34323020B0
:1023E00053004175746F20426564204C6576656CBE
:1023F000696E670020460020480020204D313435AA
:102400002053004D6174657269616C206865617468
:10241000757020706172616D657465727300203B28
:102420002053656E736F72200020204D34313220AE
:10243000530046696C616D656E742072756E6F75C0
:10244000742073656E736F7200204A00202047323B
:1024500039205720490020204D3134392043203B7A
:1024600020556E69747320696E2043656C736975BD
:10247000730A0054656D70657261747572652055DC
:102480006E697473002020473231203B004C696E26
:1024900065617220556E69747300454550524F4D09
:1024A000206461746173697A65206572726F722E3F
:1024B0000A00290A002062797465733B2063726305
:1024C00020002073746F7265642073657474696E84
:1024D00067732072657472696576656420280020D0
:1024E0002863616C63756C6174656429210A00203E
:1024F000213D2000454550524F4D20435243206D11
:1025000069736D61746368202D202873746F726520
:10251000642920002053697A653A2000496E646579
:10252000783A200000009643000096430000A04047
:10253000000048420000A0420000A0420000C84342
:102540000080F2432C0100002C0100006400000018
:1025500088130000204D61726C696E3D5638372932
:102560000A00454550524F4D2076657273696F6E73
:10257000206D69736D617463682028454550524F22
:102580004D3D0020436F756E7420583A00426564DB
:10259000004531004500626564002C207379737436
:1025A000656D2073746F7070656421204865617477
:1025B00065725F49443A20004572723A204D415895
:1025C00054454D50004D415854454D50207472694A
:1025D0006767657265640048656174696E67204667
:1025E00061696C65640048656174696E6720666145
:1025F000696C6564004D353234004D313132205301
:10260000687574646F776E004572723A204D494E5A
:1026100054454D50004D494E54454D5020747269FB
:1026200067676572656400202F002042403A0020F1
:10263000403A0020573A0020573A00496E76616CC4
:1026400069642065787472756465720A007C3C3E2A
:102650005E2B3D3F2F5B5D3B2C2A225C004D656469
:10266000696120496E6974204661696C0053442099
:1026700063617264206F6B0A006F70656E526F6FDA
:1026800074206661696C65640A00766F6C756D65AF
:102690002E696E6974206661696C65640A004E6F0C
:1026A00020534420636172640A00534420636172C2
:1026B000642072656C65617365640A000A4D32348A
:1026C000004D3233202573002E0A006F70656E2096
:1026D0006661696C65642C2046696C653A20004629
:1026E000696C652073656C65637465640A002053CA
:1026F000697A653A200046696C65206F70656E6581
:10270000643A2000454E4420535542524F55544997
:102710004E450A002220706F73002220706172659E
:102720006E743A2200535542524F5554494E45203B
:1027300043414C4C207461726765743A22005375B2
:102740006263616C6C204F766572666C6F770045D2
:1027500078636565646564206D61782053554252E5
:102760004F5554494E452064657074683A0057725D
:102770006974696E6720746F2066696C653A200021
:1027800020583A00667265736800646F696E67006E
:102790002066696C653A20004E6F7720002F6175C6
:1027A000746F25632E6700020000000000000060C7
:1027B0000000000000FC00000FF00000000007E037
:1027C0000000000001861FC01870000000000060BB
:1027D0003C0C000001830C60103000000000006021
:1027E0003C0C000001830C30303000000000006021
:1027F000000C000000030C18300000000000006016
:10280000003F0F3C00030C0C6001DF0FE0FE006096
:102810001C1C061800060C0C6000F31831830060C5
:102820000C0C0318001E0C0C6000E03039830060B3
:102830000C0C033000030C0C6000C030380F00603B
:102840000C0C033000018C0C6000C03FF8FB0060F2
:102850000C0C033000018C0C6030C0300183006030
:102860000C0C01F001818C0C6030C03001830060E1
:102870000C0C00E001818C183030C01831830060EE
:102880000C0C40E001838C301860C00C6187C0E004
:102890001C0CC06000C30C600FC3F007C0FFC7FC76
:1028A0007F0781C0007E1FC0000000000000000004
:1028B0000000070000000000000000000000000011
:1028C00000000700000000006D61726C696E6677A1
:1028D0002E6F7267006275676669782D322E312E11
:1028E00078001FFFFFFFFFFFFF600000000001FFF7
:1028F000400000000000FF8000000000007F83CF48
:1029000000000C303F87FF80000C301F867980006C
:102910000C000F8C30C7838C30E78C30CFC7CC31A4
:10292000F38C30DCECEC33B98C30D86C6C33198C14
:1029300030D06C0C33198C30D86C0C33198C30DCE3
:102940006C0E3B198C30CF7C079F198C30C77C03F1
:102950008F19400000000000026000000000000627
:102960001FFFFFFFFFFFF870012C0190012701B04E
:10297000012201C0011D01F00118011002130130F4
:10298000020E016002090190020401C002FF000072
:1029900003FA004003F5008003F000D003EB0020B1
:1029A00004E6007004E100E004DC004005D700C04C
:1029B00005D2004006CD00D006C8008007C3003015
:1029C00008BE00F008B900C009B400B00AAF00B0FA
:1029D0000BAA00D00CA500000EA000500F9B00C059
:1029E0001096005012910000148C00C0158700B0A2
:1029F000178200B0197D00D01B7800001E730040C4
:102A0000206E0090226900F024640040275F00904F
:102A1000295A00E02B5500102E500020304B00109A
:102A2000324600E033410090353C001037370070EB
:102A3000383200A0392D00B03A2800A03B230060B6
:102A40003C1E00103D1900903D1400103E0F007018
:102A50003E0A00C03E0500003F0000403FFBFF80F3
:102A60003FF6FFC03FF1FF2020506C616E6E657233
:102A700042756666657242797465733A2000204635
:102A8000726565204D656D6F72793A200020436F45
:102A90006D70696C65643A204A616E20323920326B
:102AA0003032330A00204C617374205570646174B5
:102AB00065643A20323032332D30312D3234207C6F
:102AC00020417574686F723A2028436F6F6C5A65A5
:102AD000726F4E4C2C2064656661756C7420636F58
:102AE0006E666967290A004D61726C696E206275B5
:102AF000676669782D322E312E780A0020536F6672
:102B000074776172652052657365740A002057619D
:102B1000746368646F672052657365740A002042AD
:102B2000726F776E206F75742052657365740A003A
:102B30002045787465726E616C2052657365740A05
:102B400000506F77657255700A0073746172740A71
:102B500000473237004D31303031006572726F728C
:102B60002077726974696E6720746F2066696C657E
:102B70000A00446F6E6520736176696E672066692E
:102B80006C652E0A004D323900456E6473746F70A7
:102B900073002553202563202563202563202563AA
:102BA00000205A3A0020593A0020583A00656E64D5
:102BB00073746F7073206869743A200000000A0B08
:102BC00002090C0D0E0807030401000000000000BC
:102BD00000000000000000000000000000000000F5
:102BE00000000000000000001211100000000000B2
:102BF00000000000000000000000000000000000D5
:102C000000000000000000000000000000000000C4
:102C1000000024F404D9201BC40C5C0E9804C409E1
:102C20005F0265077101F405F900FB04B300480475
:102C30008700C10369005803550003034500BE0225
:102C40003A008402310053022A00290225000402BE
:102C50002000E4011C00C8011900AF011700980111
:102C60001400840113007101100061011000510172
:102C70000E0043010D0036010B002B010B0020015B
:102C80000B00150109000C01090003010800FB00FD
:102C90000800F3000800EB000700E4000600DE0077
:102CA0000600D8000600D2000600CC000500C700D0
:102CB0000500C2000500BD000400B9000400B50015
:102CC0000400B1000400AD000400A9000400A50048
:102CD0000300A20003009F0004009B000300980073
:102CE00003009500020093000300900003008D0094
:102CF00002008B00030088000200860002008400AE
:102D00000300810002007F0002007D0002007B00C2
:102D100002007900020077000100760002007400D2
:102D2000020072000100710002006F0002006D00DD
:102D300001006C0002006A000100690002006700E7
:102D400001006600010065000100640002006200ED
:102D5000010061000100600001005F0002005D00F1
:102D600001005C0001005B0001005A0001005900F5
:102D700001005800010057000100560001005500F5
:102D800001005400010053000000530001005200F4
:102D9000010051000100500001004F0001004E00F1
:102DA00000004E0001004D0001004C0001004B00EE
:102DB00000004B0001004A000100490001004800EA
:102DC00000004800010047000100460000004600E6
:102DD00001004500000045000100440001004300DF
:102DE00000004300010042000000420001004100D9
:102DF000000041000100400001003F0000003F00D2
:102E000001003E0000003E0001003D0000003D00CA
:102E100001003C0000003C0000003C0001003B00C1
:102E200000003B0001003A0000003A0001003900B8
:102E300000003900010038000000380000003800B0
:102E400001003700000037000100360000003600A6
:102E5000000036000100350000003500000035009C
:102E60000100340000003400000034000100330091
:102E70000000330000003300010032000000320087
:102E8000000032000100310000003100000031007C
:102E900001003000000030000000300001002F0071
:102EA00000002F0000002F0000002F0001002E0066
:102EB00000002E0000002E0001002D0000002D005B
:102EC00000002D0000002D0001002C0000002C004F
:102ED00000002C0000002C0001002B0000002B0043
:102EE00000002B0000002B0001002A0000002A0037
:102EF00000002A0000002A0001002900000029002B
:102F0000000029000000290000002900010028001D
:102F10000000280000002800000028000000280011
:102F20000100270000002700000027000000270004
:102F300000002700010026000000260000002600F7
:102F400000002600000026000100250000002500EA
:102F500000002500000025000000250000002500DD
:102F600001002400000024000000240000002400D0
:102F700000002400010023000000230000002300C3
:102F800000002300000023000000230000002300B5
:102F900001002200000022000000220000002200A8
:102FA000000022000000220001002100000021009A
:102FB000000021000000210000002100000021008D
:102FC000000021000100200000002000000020007F
:102FD0000000200000002000000020000000200071
:102FE0000000200001001F0000001F0000001F0063
:102FF00000001F0000001F0000001F0000001F0055
:1030000001001E0000001E0000001E0000001E0047
:10301000000024F4D43050C38E20C2A24017828B0B
:103020007011127A910D816CD90AA861E108C75814
:103030006607615143061E4B5D05C145A7041A4151
:103040001104093D9803713931034036DB026533C1
:103050009102D4305402802E1D02632CEE01752A99
:10306000C501B028A001102781018F2564012B2400
:103070004B01E0223401AC211F018D200D01801F86
:10308000FC00841EED00971DDF00B81CD200E61B7B
:10309000C600201BBC00641AB200B219A8000A19AD
:1030A000A0006A189900D117910040178B00B5163F
:1030B000840031167E00B31579003A157300C714E9
:1030C0006F0058146A00EE1366008813630025131E
:1030D0005E00C7125B006C12570015125400C1113C
:1030E000510070114F0021114B00D61049008D1076
:1030F00047004610440002104200C00F4000800FFD
:103100003E00420F3C00060F3B00CB0E3800930EF2
:1031100037005C0E3500270E3400F30D3200C10D70
:103120003100900D3000600D2E00320D2D00050D88
:103130002C00D90C2B00AE0C2900850C29005C0C4E
:103140002700350C27000E0C2600E80B2400C40BCA
:103150002400A00B23007D0B23005A0B2100390B08
:103160002100180B2000F80A1F00D90A1E00BB0A14
:103170001E009D0A1D00800A1D00630A1C00470AEC
:103180001B002C0A1B00110A1A00F7091A00DD099E
:103190001900C4091900AB091900920917007B092D
:1031A0001800630917004C0916003609160020099B
:1031B00016000A091500F5081500E0081400CC08EF
:1031C0001400B8081400A4081400900813007D0827
:1031D00012006B0813005808120046081200340849
:1031E0001100230811001208110001081100F00756
:1031F0001000E0071000D0071000C0071000B00753
:103200000F00A107100091070E0083070F0074073D
:103210000F0065070E0057070E0049070E003B0719
:103220000D002E070E0020070D0013070D000607E6
:103230000D00F9060C00ED060D00E0060C00D406AA
:103240000C00C8060C00BC060C00B0060C00A4065E
:103250000B0099060C008D060B0082060B0077060A
:103260000B006C060B0061060A0057060B004C06AB
:103270000A0042060A0038060A002E060A00240642
:103280000A001A060A001006090007060A00FD05D2
:103290000900F4050900EB050900E2050900D9055C
:1032A0000900D0050900C7050900BE050900B505DC
:1032B0000800AD050800A50509009C050800940557
:1032C00008008C050800840508007C0508007405CA
:1032D00008006C050700650508005D050700560538
:1032E00008004E050700470507004005080038059F
:1032F0000700310507002A050700230507001C0504
:103300000600160507000F05070008050600020560
:103310000700FB040600F5040700EE040600E804BD
:103320000600E2040700DB040600D5040600CF0413
:103330000600C9040600C3040600BD040600B70465
:103340000600B1040500AC040600A6040600A004B3
:1033500005009B04060095040500900406008A04FD
:10336000050085040500800406007A040500750444
:103370000500700405006B04050066040500610487
:1033800005005C04050057040500520405004D04C7
:10339000050048040500430405003E0404003A0407
:1033A000050035040500300404002C040500270442
:1033B0000400230405001E0404001A04040016047B
:1033C0000500110404000D040400090405000404B0
:1033D000040000040400FC030400F8030400F403E8
:1033E0000400F0030400EC030400E8030400E40319
:1033F0000400E0030400DC030400D8030400D40349
:103400000400D0030400CC030400C8030300C50378
:1034100003003A2E00007B1D0000181100004A092D
:103420000000DB0400007C02000041010000A1005C
:1034300000004D6F766520246D6D00302E303235E2
:10344000004D6F766520302E316D6D004D6F7665C5
:1034500020316D6D004D6F76652031306D6D004D02
:103460006F76652041786973004D6F7665202A007C
:103470004D6F766520400020005072696E742066A2
:10348000726F6D204D6564696100200020004572F7
:10349000726F722077726974696E6720746F20454D
:1034A0004550524F4D210A00DB0FC93F45BCDA3F62
:1034B0008FB30240FCF0274056946140FE4B9B4086
:1034C00084A5D840E0231841346A5641E859974111
:1034D00064DBD5416E271742B4B75542CE1A9742E6
:1034E000C8AED542B5885A43D40684BFA65FA7BFED
:1034F0007443E0BF10B11AC01C2C58C0E8F697C046
:10350000B849D6C04E4E17C124D355C1802497C1A7
:10351000A0B5D5C1121A17C244AE55C2781797C2CA
:103520006CACD5C267885AC320746F6F206C6F6E05
:103530006720657874727573696F6E207072657636
:10354000656E7465640A0020636F6C64206578742E
:10355000727573696F6E2070726576656E746564DE
:103560000A00544845524D414C2052554E41574156
:103570005900546865726D616C2052756E61776197
:103580007900496E736572742066696C616D656E51
:103590007420616E642073656E64204D3130380A8A
:1035A0000050726F62696E67204661696C65640ADB
:1035B0000050726F62696E67204661696C656400D5
:1035C000205A3A200020593A200042656420583A97
:1035D0002000FFFFFF43616E6E6F74206F70656E99
:1035E0002073756264697220008027383634363063
:1035F00036204500205A0020590020204D39322025
:10360000580053746570732070657220756E69740C
:1036100000220A00556E6B6E6F776E20636F6D6DC2
:10362000616E643A2022002042002050006F6B003F
:1036300020453A00205A3A0020593A00583A006F83
:103640006B0A00526573656E643A20000000220028
:10365000250028002B002E0031003400020100005C
:10366000050108010B0100002100240027002A00A9
:103670002D003000330001010000040107010A01A0
:1036800005050505070508080808020202020A0ADE
:1036900008080404040401010101010101010303FC
:1036A000030303030303040707070C0C0C0C0C0CA7
:1036B0000C0C0202020206060606060606060B0BA4
:1036C0000B0B0B0B0B0B07070A0A0A0A0A0A050564
:1036D00005040404080801021020200808102040F6
:1036E00010204080020102010804020101020408C6
:1036F0001020408080402010080402018004020154
:10370000804020100804020108040201010204089C
:103710001020408001020408102040801008040896
:1037200080102040044080102040048043522D31FE
:10373000302053342052656164792E005072696ED6
:1037400074696E672E2E2E005072696E742050615F
:10375000757365640000A6009C0011241FBECFEFA6
:10376000D1E2DEBFCDBF00E00CBF84B78093D91596
:1037700014BE0FB6F894A89580916000886180937C
:103780006000109260000FBE13E0A0E0B2E0EEE037
:10379000FAE702E00BBF02C007900D92A03EB1070E
:1037A000D9F725E1A0EEB3E001C01D92A93DB20713
:1037B000E1F71BE1CCEADBE100E006C0219701095B
:1037C000802FFE010F949B39CB3AD10780E0080788
:1037D000A9F70F948F250D94F63C0C94000060918E
:1037E000230270912402072E000C880B990B0F9472
:1037F000DA322AE037ED43E25CE30F94393320916B
:103800001E0630911F0640912006509121060F940C
:1038100039336093620270936302809364029093E1
:103820006502089580917F08811104C080915F082E
:103830008093A508089508950895CF93DF93EC0130
:10384000CB01BA010F94DA3229EC38EC48EC5EE394
:103850000F94923A20E030E040E05FE30F94B639F5
:103860000F94FF3A6883DF91CF910895E0917F082C
:1038700086E0E802F0011124E35CF74F80915F08D5
:1038800090E0958384830895CF93DF93EC01CB017F
:10389000BA010F94DA32688379838A839B83DF913C
:1038A000CF910895CF93DF93EC01CB01BA010F9430
:1038B000DA32688379838A839B83DF91CF9108957D
:1038C0008F929F92AF92BF92CF92DF92EF92FF9230
:1038D0006B017C0120E030E0A9010F94D43287FD18
:1038E0006BC06DEB77E386E095E3A70196010F943B
:1038F000B6396B017C0120E030E040E251E40F94E6
:10390000393320E030E040E251E40F9439334B0189
:103910005C0120E030E0A901C701B6010F94D43268
:1039200020E030E040EA50E487FF04C020E030E0CF
:1039300040EA50ECC501B4010F94B63920E030E004
:1039400040E251E40F94923A0F94FA3A9B018BE2D1
:1039500037FF05C022273327261B370B8DE28093C4
:10396000FD05C90164E670E00F948839CB01EAE0F7
:10397000F0E0BF010F948839805D8093FE05C90196
:10398000BF010F948839282FCB01BF010F948839CC
:10399000805D8093FF058EE280930006205D20937A
:1039A00001068DEF95E0FF90EF90DF90CF90BF90F4
:1039B000AF909F908F9008956DEB77E386E095EB45
:1039C00094CF8F929F92AF92BF92CF92DF92EF925D
:1039D000FF92CF936B017C0120E030E0A9010F94AE
:1039E000D43287FDD6C06DEB77E386E095E3A7017F
:1039F00096010F94B6396B017C0120E030E0A901FB
:103A00000F94D43287FFCAC0C701B601905820E096
:103A100030E040E251E40F94393320E030E048ECEC
:103A200052E40F94393320E030E040EA50E40F9440
:103A3000B63920E030E040E251E40F94923A0F941E
:103A4000FA3A6B017C0160E280E4C81682E4D80691
:103A50008FE0E806F1048CF0C701B60120E432E4FF
:103A60004FE050E00F942039CA01B9012AE030E05C
:103A700040E050E00F942039605D6093FA0560E209
:103A800080EAC81686E8D80681E0E806F1048CF0E2
:103A9000C701B60120EA36E841E050E00F94203932
:103AA000CA01B9012AE030E040E050E00F9420392B
:103AB000605D6093FB0560E280E1C81687E2D8068E
:103AC000E104F1048CF0C701B60120E137E240E0E7
:103AD00050E00F942039CA01B9012AE030E040E0FB
:103AE00050E00F942039605D6093FC0560E288EE41
:103AF000C81683E0D806E104F1048CF0C701B601D2
:103B000028EE33E040E050E00F942039CA01B901BB
:103B10002AE030E040E050E00F942039605D60938F
:103B2000FD05C701B60124E630E040E050E00F9407
:103B300020398AE0882E912CA12CB12CCA01B90120
:103B4000A50194010F942039605D6093FE058EE21B
:103B50008093FF05C701B601A50194010F94203998
:103B6000C62FCA01B901A50194010F942039605DE7
:103B700060930006C05DC09301068AEF95E0CF9187
:103B8000FF90EF90DF90CF90BF90AF909F908F907D
:103B900008956DEB77E386E095EB29CF20E030E0E8
:103BA00040E251E4C701B60136CF8F929F92AF92A7
:103BB000BF92CF92DF92EF92FF92CF936B017C0185
:103BC00020E030E0A9010F94D43287FD93C06DEB63
:103BD00077E386E095E3A70196010F94B6396B0170
:103BE0007C0120E030E040E251E40F94393320E0E2
:103BF00030E04AE754E40F9439334B015C0120E094
:103C000030E0A901C701B6010F94D43220E030E0C2
:103C100040EA50E487FF04C020E030E040EA50EC86
:103C2000C501B4010F94B63920E030E040E251E420
:103C30000F94923A0F94FA3A6B017C01C114D104AB
:103C4000E104F10409F45BC0F7FE59C0F094E0947C
:103C5000D094C094C11CD11CE11CF11C8DE2809356
:103C6000FC05C701B60128EE33E040E050E00F94B8
:103C700020398AE0882E912CA12CB12CCA01B901DF
:103C8000A50194010F942039605D6093FD058EE2DB
:103C90008093FE05C701B60124E630E040E050E025
:103CA0000F942039CA01B901A50194010F9420395C
:103CB000605D6093FF05C701B601A50194010F94F3
:103CC0002039C62FCA01B901A50194010F942039EA
:103CD000605D60930006C05DC09301068CEF95E0C7
:103CE000CF91FF90EF90DF90CF90BF90AF909F90DB
:103CF0008F9008956DEB77E386E095EB6CCF80E2D3
:103D0000AECF8F929F92AF92BF92CF92DF92EF92FF
:103D1000FF92CF936B017C0120E030E0A9010F946A
:103D2000D43287FFA3C06DEB77E386E095EBA70164
:103D300096010F94B6396B017C0120E030E040E23F
:103D400051E40F94393320E030E048EC52E40F9412
:103D500039334B015C0120E030E040E251ECC70117
:103D6000B6010F94D432181654F420E030E048EC39
:103D700052E4C701B6010F94DD3B87FD8BC020E004
:103D800030E0A901C701B6010F94D43287FF73C098
:103D900060E070E080EA90ECA50194010F94B639E0
:103DA00020E030E040E251E40F94923A0F94FA3A66
:103DB0006B017C01F7FC64C020E137E240E050E099
:103DC0000F942039CA01B9012AE030E040E050E008
:103DD0000F942039605D6093FC05C701B60128EEA1
:103DE00033E040E050E00F9420399AE0892E912C86
:103DF000A12CB12CCA01B901A50194010F9420395D
:103E0000605D6093FD05C701B60124E630E040E047
:103E100050E00F942039CA01B901A50194010F9413
:103E20002039605D6093FE058EE28093FF05C70137
:103E3000B601A50194010F942039C62FCA01B9011A
:103E4000A50194010F942039605D60930006C05D68
:103E5000C09301068CEF95E0CF91FF90EF90DF903B
:103E6000CF90BF90AF909F908F9008956DEB77E3C8
:103E700086E095E35CCF60E070E080EA90E48CCF70
:103E8000F094E094D094C094C11CD11CE11CF11CAE
:103E90006DE2A1CF20E030E0A901C701B6010F9487
:103EA000D43287FF6AC060E070E080EA90ECA50140
:103EB00094010F94B63920E030E040E251E40F94D1
:103EC000923A0F94FA3A4B015C0120E030E0A901EC
:103ED000C701B6010F94DD3B87FD0BC020E030E049
:103EE00040E251E4C701B6010F94D43260E287FD8D
:103EF00013C0B7FC47C0C501B40128EE33E040E071
:103F000050E00F942039CA01B9012AE030E040E0C6
:103F100050E00F942039605D6093FD05C501B40148
:103F200024E630E040E050E00F9420398AE0C82ECB
:103F3000D12CE12CF12CCA01B901A70196010F94F3
:103F40002039605D6093FE058EE28093FF05C50118
:103F5000B401A70196010F942039C62FCA01B901F7
:103F6000A70196010F942039605D60930006C05D43
:103F7000C09301068DEF95E06FCF60E070E080EABE
:103F800090E495CFB094A09490948094811C911C5F
:103F9000A11CB11C6DE2C0CFCF93DF93EC01CB012C
:103FA000BA010F94DA3220E030E048EC52E40F948A
:103FB000923A688379838A839B83DF91CF910895B6
:103FC000CF93DF93EC01CB01BA010F94DA3220E0FA
:103FD00030E048EC52E40F94923A688379838A8304
:103FE0009B83DF91CF9108950F94DA3220E030E087
:103FF00048EC52E40F94923AE4CCCF93DF93EC0177
:10400000CB01BA010F94DA3220E030E040E251E413
:104010000F94923A688379838A839B83DF91CF914F
:1040200008950F94DA3220E030E040E251E40F943A
:10403000923A46CCCF93DF93EC01CB01BA010F94B7
:10404000DA322AE037ED43E25DE30F94923A0F94BF
:10405000FF3A688379838A839B83DF91CF910895A8
:10406000CF93DF93EC01CB01BA010F94DA322AE04F
:1040700037ED43E25DE30F94923A688379838A8354
:104080009B83DF91CF910895CF93DF93EC01CB0118
:10409000BA010F94DA32688379838A839B83DF9134
:1040A000CF9108950F94DA3220E030E048EC52E4EA
:1040B0000F94923A26CECF93DF93EC01CB01BA0155
:1040C0000F94DA320F94FA3A79836883DF91CF91B3
:1040D0000895CF93DF93EC01CB01BA010F94DA324C
:1040E00020E030E04AE754E40F94923A6883798301
:1040F0008A839B83DF91CF9108950F94DA3220E079
:1041000030E04AE754E40F94923A4FCDFC01849199
:104110000895FC0180810895FC01A081B1811C9269
:10412000A281B3818C918F5F8C930280F381E02D0B
:1041300090818CE0989F800D1124E4E0F4E113AEAF
:1041400084AF0895119800C09091020187FD909569
:10415000917090930001119A00C000C0119800C0A6
:104160009091020186FD9095917090930001119AB3
:1041700000C000C0119800C09091020185FD90958B
:10418000917090930001119A00C000C0119800C076
:104190009091020184FD9095917090930001119A85
:1041A00000C000C0119800C09091020183FD90955D
:1041B000917090930001119A00C000C0119800C046
:1041C0009091020182FD9095917090930001119A57
:1041D00000C000C0119800C09091020181FD90952F
:1041E000917090930001119A00C000C0119800C016
:1041F00080910201817080930001119A00C000C07B
:10420000089590E080E00895CF93DF93C0913A083D
:10421000D0913B0881E0CE31D105E4F020E030E0E0
:1042200040E05FE36091360870913708809138086C
:10423000909139080F94B6390F94FA3A6C1B7D0BA4
:1042400077FF03C071956195710981E06330710555
:104250000CF080E0DF91CF910895CF92DF92EF9242
:10426000FF92CF93C82F0F9442116B017C0124EA77
:1042700030E74DE75FE36091100270911102809189
:104280001202909113020F94D43287FD18C08AEF66
:1042900090E0A0E0B0E08C0D9D1DAE1DBF1D809391
:1042A000150590931605A0931705B0931805C093B4
:1042B0000F02CF91FF90EF90DF90CF90089580E0B4
:1042C00090E0DC01E8CFCF92DF92EF92FF920F9364
:1042D0001F930F9442110091EC041091ED04209172
:1042E000EE043091EF046B017C01C01AD10AE20A9E
:1042F000F30A9701860137FD11C02091EB04209548
:104300002093EB046A547C4F8F4F9F4F6093EC04D3
:104310007093ED048093EE049093EF0481E090910C
:10432000EB04911101C080E01F910F91FF90EF907D
:10433000DF90CF900895CF93DF93CDB7DEB720E223
:10434000488559856F818E810F94510CDF91CF91F3
:104350000895CF92DF92EF92FF920F94DA326B01C1
:104360007C0120E030E0A9010F94D4322DEB37E33B
:1043700046E055E387FF04C02DEB37E346E055EBFD
:10438000C701B6010F94B6396B017C0120E030E023
:10439000A9010F94D43220E030E040E05FE387FFD2
:1043A00004C020E030E040E05FEBC701B6010F94AD
:1043B000B6390F94FA3ACB01FF90EF90DF90CF908F
:1043C0000C945FDE0F94DA320F94FA3ACB010C941E
:1043D0005FDE0F94DA3229EC38EC48EC5EE30F94A0
:1043E000923A20E030E040E05FE30F94B6390F945A
:1043F000FF3A862F0C9494DE60915F088FEF0D9446
:10440000452080915F08682F0D9445206FEF8091C3
:104410005F080D9445206DE57AE482E00D94F0226A
:104420006FE57AE481E00D94F02261E67AE480E0C1
:104430000D94F0226FE078E483E00D94F0228091F7
:1044400051158823D1F0815080935115E2E7F3E1B3
:10445000882351F08150990B2BE1289FF001299F6F
:10446000F00D1124ED5BFB4E8BE1A7E5B3E101906C
:104470000D928A95E1F70F949D1D20915115211100
:1044800005C080915C15806480935C1581E090E0AC
:10449000A0E0B0E0211103C080E090E0DC01809357
:1044A000660890936708A0936808B0936908109213
:1044B0005C0881E08093760883E080936102089530
:1044C0000F9443021092B70810925F020E949E79E7
:1044D000882331F088E996E09093EF078093EE0708
:1044E0000C947EDC8F929F92AF92BF92EF92FF92DC
:1044F0000F931F93CF93DF93EC018B01E42EF22EE9
:1045000080910214909103148C179D07D9F1109299
:10451000E60320E3C33ED20709F03FC08B55914428
:1045200071F40F9442116E517B4F8F4F9F4F6093E8
:104530006205709363058093640590936505D0933D
:104540000314C093021430E020E000936608109337
:1045500067082093680830936908E0925C08F0923D
:104560005508CB55D14421F41092B9081092610539
:1045700082E08093610281E08093760810926D055D
:1045800010926805DF91CF911F910F91FF90EF90EE
:10459000BF90AF909F908F90089521E4CB35D207C4
:1045A00071F6835E9043D9F40F94421180906205B6
:1045B00090906305A0906405B0906505681979092D
:1045C0008A099B0997FF0BC08091880D87708730FF
:1045D00031F40E948679C3E6DAE48111B0CFCBE5ED
:1045E000D1E4ADCF20E040E070E060E08AE192E20B
:1045F00079CFCF93C1E0C093B908FC01808191814C
:10460000A281B3818093100290931102A0931202B1
:10461000B093130220E040E070E060E080915D081C
:1046200090915E085FDFC093E603CF910895CF932A
:10463000DF9300D01F92CDB7DEB78DEC9CECACECD5
:10464000BCE389839A83AB83BC83CE010196D1DF1F
:104650000F900F900F900F90DF91CF910895CF930F
:10466000DF9300D01F92CDB7DEB78DEC9CECACECA5
:10467000BDE389839A83AB83BC83CE010196B9DF06
:104680000F900F900F900F90DF91CF910895CF93DF
:10469000DF9300D01F92CDB7DEB780E090E0A0E8B6
:1046A000BFE389839A83AB83BC83CE010196A1DFEC
:1046B0000F900F900F900F90DF91CF910895CF93AF
:1046C000DF9300D01F92CDB7DEB780E090E0A0E28C
:1046D000B1E489839A83AB83BC83CE01019689DFE1
:1046E0000F900F900F900F90DF91CF91089520E0E1
:1046F00040E070E060E08BE591E4F4CE1092A50814
:104700000E945BC3F4CF8FE692E10E94C9B4EFDF51
:104710000D94430283E098E09093EF078093EE07B7
:10472000E6CF8091A7139091A8130E94357581114F
:1047300007C080E29AE09093EF078093EE07089518
:1047400020E040E070E060E087ED99E6CBCE90910C
:10475000360681E089270C944A7581E08093B90878
:104760008091880D8770873051F01092880D1092DB
:104770000F068EED9DE09093EF078093EE078091FA
:10478000360680936A0580E00E944A7520E040E08A
:1047900070E060E08AED9FE3A5CE61E08FE598E0F0
:1047A0000C94B17580E090E0A0E8B0E480937902C9
:1047B00090937A02A0937B02B0937C0285ED92E005
:1047C0000E94CED580E090E0A0EFB1E4809371022A
:1047D00090937202A0937302B09374028093750257
:1047E00090937602A0937702B0937802E0916905E6
:1047F000EE0FFF0BEB54FD4F8081918183309105CB
:1048000049F18430910591F1029761F480E090E0E4
:10481000A9EBB3E48093710290937202A0937302A8
:10482000B09374028DEB92E00E94CED51092790283
:1048300010927A0210927B0210927C0285ED92E037
:104840000E94CED5809169058F5F8430E4F4809317
:104850006905089580E090E0A9EBB3E480937102CC
:1048600090937202A0937302B093740280E090E080
:10487000A5EAB3E48093750290937602A093770241
:10488000B0937802CFCF109269050895CF93DF934C
:1048900000D01F92CDB7DEB70F94FF3A0F94D832F5
:1048A00069837A838B839C83CE0101960E94E1DC2D
:1048B0000F900F900F900F90DF91CF9108950F946C
:1048C000DA322AE037ED43E25DE30F94923ADECF2D
:1048D000CF92DF92EF92FF92CF93DF9300D01F929F
:1048E000CDB7DEB76B017C0120E030E0A9010F9469
:1048F000D43287FD1BC06DEB77E386E095E3A7011B
:1049000096010F94B63969837A838B839C83CE0199
:1049100001960E94E1DC0F900F900F900F90DF91B5
:10492000CF91FF90EF90DF90CF9008956DEB77E3FC
:1049300086E095EBE4CF0F94DA322AE037ED43E2DC
:104940005DE30F94923AC4CF0F94DA32C1CFCF9285
:10495000DF92EF92FF926B017C0120E030E0A90131
:104960000F94D43287FD26C06DEB77E386E095E3A4
:10497000A70196010F94B6396B017C0120E030E06D
:10498000A9010F94D43220E030E040E05FE387FFDC
:1049900004C020E030E040E05FEBC701B6010F94B7
:1049A000B6390F94FA3ACB01FF90EF90DF90CF9099
:1049B0000C94E0DD6DEB77E386E095EBD9CF0F94B7
:1049C000DA32C5CF0C9459C90C9459C90C940BC94F
:1049D0000C940BC90C940BC90C940BC9BF92CF92C9
:1049E000DF92EF92FF920F931F93CF93DF936B01B0
:1049F000E9014A3009F4DFC0453109F08AC0DB0122
:104A00001296ED91FC911281C681D78180910201AD
:104A1000809582708093000100C0000086E290E0E3
:104A20000197F0F7012F0295007F20E1B22EB10E21
:104A300088EF88DB00C0000086E290E00197F0F785
:104A4000103208F0A5C0812F807780687BDB802F33
:104A500079DB00C0000086E290E00197F0F780E883
:104A600071DB80E06FDB00C0000086E290E0019720
:104A7000F0F78AEF67DB00C0000086E290E0019764
:104A8000F0F77E01B0E1EB0EF11C8881807F5ADBEC
:104A900089918295807F56DBCE15DF05B1F700C086
:104AA000000086E290E00197F0F71F5F005F1B11A6
:104AB000BFCF80910201827080930001D6011296CF
:104AC000ED91FC9180819281980F928321819217C0
:104AD00008F0EDC194819F5F94839381890F8217C1
:104AE00010F08FEF820F8383458150E0440F551FF4
:104AF00070E060E0868197810F94A23C81E0DF91B5
:104B0000CF911F910F91FF90EF90DF90CF90BF90CA
:104B10000895FB0102811381423309F4CAC108F4EC
:104B2000D2C1463409F4BFC1473409F4C7C14B337D
:104B300029F789812B81D80112966C9112971396CF
:104B40004C91213009F404C2233009F0E5C138EF5B
:104B5000380F582F91E0431708F490E041E05317C5
:104B600008F040E031E0561708F430E0592F542B9C
:104B7000352319F4942309F4C1CFFA8030E0F90108
:104B8000EF55FD4FD08023563D4FF901E080DDC148
:104B900080EE810F8068807FD5DA812F8295807FBB
:104BA000D1DA00C0000086E290E00197F0F780E8DB
:104BB000C9DA80E857CF80910101826080930101BA
:104BC00080910201827080930001809101018160D7
:104BD0008093010180910201817080930001099A04
:104BE000119A80910201809582708093000100C02B
:104BF000000086E290E00197F0F788E790E0CEE9C8
:104C0000DFE0FE013197F1F70197D9F788EF9ADAE3
:104C100000C0000086E290E00197F0F780E292DAAF
:104C200080E090DA00C0000086E290E00197F0F7A3
:104C300080E088DA80E886DA00C0000086E290E052
:104C40000197F0F780E07EDA80E17CDA00C00000B6
:104C500086E290E00197F0F7CE010197F1F7CE01DF
:104C60000197F1F7CE010197F1F7CE010197F1F726
:104C7000CE010197F1F7CE010197F1F7CE0101972F
:104C8000F1F7CE010197F1F7CE010197F1F7CE01CF
:104C90000197F1F7CE010197F1F7CE010197F1F7F6
:104CA000CE010197F1F7CE010197F1F72197F1F7C6
:104CB00080E248DA80E446DA00C0000086E290E054
:104CC0000197F0F780E23EDA80E63CDA00C00000AF
:104CD00086E290E00197F0F7D0E0C0E08C2F80777B
:104CE000806830DA8D2F2EDA00C0000086E290E076
:104CF0000197F0F780E826DA80E024DA00C00000AF
:104D000086E290E00197F0F78AEF1CDA00C000001D
:104D100086E290E00197F0F790E2119800C0809150
:104D20000201817080930001119A00C000C01198A7
:104D300000C080910201817080930001119A00C02F
:104D400000C0119800C08091020181708093000121
:104D5000119A00C000C0119800C0809102018170BA
:104D600080930001119A00C000C0119800C080918A
:104D70000201817080930001119A00C000C0119857
:104D800000C080910201817080930001119A00C0DF
:104D900000C0119800C080910201817080930001D1
:104DA000119A00C000C0119800C08091020181706A
:104DB00080930001119A00C000C0119800C080913A
:104DC0000201817080930001119A00C000C0119807
:104DD00000C080910201817080930001119A00C08F
:104DE00000C0119800C08091020181708093000181
:104DF000119A00C000C0119800C08091020181701A
:104E000080930001119A00C000C0119800C08091E9
:104E10000201817080930001119A00C000C01198B6
:104E200000C080910201817080930001119A00C03E
:104E300000C0119800C08091020181708093000130
:104E4000119A00C000C0119800C0809102018170C9
:104E500080930001119A00C000C000C00000E6E28B
:104E6000F0E03197F0F7915009F057CF88EF6AD909
:104E700000C0000086E290E00197F0F7CF5FD05FBE
:104E8000C03209F02BCF80E05DD980EC5BD900C047
:104E9000000086E290E00197F0F7809102018270B5
:104EA000809300012BCEF8018581888327CE80E096
:104EB00026CEB901C8010F94E11820CED801119671
:104EC0008C9188831BCE443191F0473109F016CE86
:104ED0001882D80112968C911297898315968C911D
:104EE000159781508A8313968C918B8307CED801B6
:104EF00015964C91159750E0440F551F70E060E0F7
:104F000016968D919C910F94A23CF801128280819B
:104F1000815083831482F2CD481708F4EFCD8617B1
:104F200008F4ECCDFA80E12CD12C243070F426CE9C
:104F3000BE01C8010F94E118898198819D0D988365
:104F40008E0D8983FF0C09F4D9CDF7FEF6CFF0CF93
:104F500058E0580F382FFECDEF92FF920F931F931A
:104F6000CF93DF93EC018B017A018A859B858617AD
:104F7000970731F0888199810F94131B1B870A874B
:104F8000B701888199810F941C0D2E813F81820F7A
:104F9000932F911D9F838E8390E080E0DF91CF91CE
:104FA0001F910F91FF90EF9008959F92AF92BF9243
:104FB000CF92DF92EF92FF920F931F93CF93DF93E5
:104FC000EC018B01942EA52E8A859B858617970769
:104FD00031F0888199810F94131B1B870A8788857C
:104FE0009985019649F5BC800A818E81080FC88099
:104FF000D980D6015596ED91FC91C6011995B80E50
:10500000E92CFA2C10E0F70121917F01211127C032
:105010008E819F81810F911D9F838E8390E080E020
:10502000DF91CF911F910F91FF90EF90DF90CF9084
:10503000BF90AF909F9008950E811F81692D7A2DAA
:10504000888199810F941C0D800F912F911D2885C7
:1050500039852817390738F681E090E0E1CF4B2DEC
:10506000602FC6010F946B1B080F180FCCCFDF9277
:10507000EF92FF920F931F93CF93DF93EC01D62E05
:105080001CAD0BAD7C0184E0E80EF11CE98DFA8DBE
:10509000C7011995412F480F2D2D602FC7010F947F
:1050A0006B1B9BAD890F8BAF81E090E0DF91CF91BF
:1050B0001F910F91FF90EF90DF9008952F923F92F4
:1050C0004F925F926F927F928F929F92AF92BF9218
:1050D000CF92DF92EF92FF920F931F93CF93DF93C4
:1050E000CDB7DEB72D970FB6F894DEBF0FBECDBF9C
:1050F0008091BE12813031F080915C1582FF6EC0CC
:1051000087FD6CC00E9431DC4B015C0145E050E042
:1051100060E270E085EF94E00F94A23C85E4809318
:10512000F3048AE38093F404C501B40120E13EE076
:1051300040E050E00F94FE38D22EC32E022F132FE2
:105140008CE3282E312C412C512CC501B401A20135
:1051500091010F94FE38762E672ECA01B901A20183
:1051600091010F94FE389E012F5F3F4F790130E887
:10517000831631E5930631E0A306B10408F447C075
:105180007F936F93C80168E170E00F9474399F9327
:105190008F93C501B40120E831E541E050E00F9460
:1051A000FE383F932F9380E595E09F938F93FF9276
:1051B000EF920F946D32C7010F9423320FB6F8941B
:1051C000DEBF0FBECDBF2CE030E0A901481B510966
:1051D000CA01B7018D509B4F0F94C73C2D960FB657
:1051E000F894DEBF0FBECDBFDF91CF911F910F911D
:1051F000FF90EF90DF90CF90BF90AF909F908F90F7
:105200007F906F905F904F903F902F900895011581
:10521000110599F46F927F927F936F9384E495E0E8
:105220009F938F93FF92EF920F946D320FB6F89485
:10523000DEBF0FBECDBF85E0C6CF0436110538F402
:105240007F936F93CF92DF9288E395E0E9CF7F93CE
:105250006F93CF92DF928EE295E09F938F93FF92B0
:10526000EF920F946D320FB6F894DEBF0FBECDBF34
:1052700086E0A9CFCF93C0910105CC2391F14CE0FA
:1052800050E060E270E083EF94E00F94A23C80E293
:10529000C43628F08C2F64E60F945B39805D8093D0
:1052A000FF0590E2CA3040F02AE08C2F622F0F9465
:1052B0005B390F945B39905D909300068C2F6AE008
:1052C0000F945B39905D9093010683E0EFEFF5E07A
:1052D000A7EFB4E001900D928A95E1F785E2809303
:1052E000FA04CF910895CF92DF92EF92FF920F933D
:1052F0001F93CF93DF93CDB7DEB72C970FB6F894FB
:10530000DEBF0FBECDBFF0903F14E090401420915F
:10531000EA0421111DC044EE54E06E2D8F2D0F9430
:10532000D61B90E080E0F80EF0923F14E09240141B
:1053300099272C960FB6F894DEBF0FBECDBFDF9134
:10534000CF911F910F91FF90EF90DF90CF90089534
:10535000C0900C14D0900D1428E034E13A832983D6
:105360002F2D30E03C832B832E2D30E03E832D8388
:1053700018861F827A8769871C861B8605ED17E2CF
:105380009E012F5F3F4F46E850E2BC01C6010F94DB
:10539000DD01B60188E094E10F94131B8F8198859D
:1053A000C2CF0E94C5C8882339F020E040E070E0F9
:1053B00060E08AEC97E396C815C90F931F93CF93CB
:1053C000DF938C01EB019091F0132091F113921374
:1053D00005C00E9473DF0E94EEE9F5CF8091EF13C4
:1053E00034E0839FF0011124EE50FC4E11830083C2
:1053F000D383C2839F5F9093F0138F5F281739F098
:105400008093EF13DF91CF911F910F910895109228
:10541000EF13F8CF63E972E084E690E0CEDF70E04E
:1054200060E08AE090E0C9DF6AEB72E084E690E039
:10543000C4CF0E9428DAEECF8111ECCF68E270E091
:1054400080E991E0BACF0E9423C6F6CF0E9462E8BD
:10545000F3CFCF930E9428DA0E9423C6C82F882357
:1054600019F080E00E941EC58C2FE6DFCF913FC966
:10547000CF93DF93C091A713D091A813209729F160
:105480006091A3137091A4138091A5139091A6131A
:105490000F94FA3A6E5F7F4F24976C177D07ACF438
:1054A00070939306609392060F944211605C73466A
:1054B0008F4F9F4F60939406709395068093960646
:1054C00090939706DF91CF910895109294061092D1
:1054D00095061092960610929706F4CFC9CF6111E7
:1054E000609366024093BB088C3008F038C0E82F08
:1054F000880FFF0B8827E058F54D8F4F0D949B398F
:10550000B02A8C2A972AB32A9A2A9D2AA02AAC2A42
:10551000A32AAF2AA62AA92A80E491E421E02093B5
:10552000B90820E040E070E060E00C94722286E46C
:1055300091E4F4CF89E491E4F1CF8CE491E4EECFEF
:105540008FE491E4EBCF82E591E4E8CF85E591E447
:10555000E5CF88E591E4E2CF85E792E5DFCFC7C8E4
:105560008DE391E4DBCF83E491E4D8CF282F109230
:105570007B088091660890916708A0916808B091B7
:105580006908B7FF08C01092660810926708109269
:1055900068081092690880917005882331F0809125
:1055A000660880935B08109276088091550818165B
:1055B000FCF4082E000C990B821B910920915B08CA
:1055C000022E000C330B2817390794F097FF02C006
:1055D00090E080E080935B08092E000CAA0BBB0BC7
:1055E0008093660890936708A0936808B093690851
:1055F00080915B086623A9F090915C08891714F4E8
:1056000080935C0820915C08022E000C330B2C5F09
:105610003F4F482F082E000C550B241735071CF45C
:10562000845080935C080895CF93DF93C091610507
:10563000CC23B9F0C150C093610589E0C89FE00157
:105640001124C55DDA4F6A817B812F814E8188816B
:1056500099810E94722288858093B908DF91CF9149
:105660000895DF91CF9143C84F925F926F927F92DE
:105670008F929F92AF92BF92CF92DF92EF92FF9262
:105680000F931F93CF93DF9300915F0861E081E058
:105690006DDFC0915C0810E0000F111F015C114F1D
:1056A00095E0592E5C0E27E1E22E2EE0F22ED3E09B
:1056B000DC1B36E0C32E32E2D32E45E2A42E4EE0B0
:1056C000B42E82E0782E7C1A50E5852E5EE0952E71
:1056D00081E0682E6C1A4C2E4194C11136C0809125
:1056E0005B088823B1F080916102882359F081E042
:1056F00090915B08911180E024E043E35EE0642D2B
:105700000F94510CCF5FC511E8CF84E0809355080A
:105710000BC08091560810925608882321F384DF2D
:10572000809176088823F9F2DF91CF911F910F9134
:10573000FF90EF90DF90CF90BF90AF909F908F90B1
:105740007F906F905F904F900895C13089F5F80178
:105750008591949110927F0890938308809382089A
:10576000109281081092800880915B08813081F04E
:1057700080916102882331F21F929F928F926F92E3
:1057800081E090915B08913009F480C080E07EC098
:105790008091560810925608882351F380915F0833
:1057A000682F0F94452080917608882309F3BCCF99
:1057B000C23009F048C0F8018591949110927F0899
:1057C0009093830880938208109281081092800839
:1057D00080915B088230D1F080916102882309F4C6
:1057E00091CFDF92CF92BF92AF927F9281E0909162
:1057F0005B08923009F080E08F930E949B210F900C
:105800000F900F900F900F900F907CCF80915608C3
:1058100010925608882301F30E9406228091760890
:105820008823D1F281CF80915608109256088823A0
:10583000F1F060915F088FEF0F944520809176081A
:105840008823A9F071CFC33009F05CCFF8018591AE
:10585000949110927F08909383088093820810920D
:1058600081081092800880915B088330E1F280917A
:105870006102882309F446CF1F92FF92EF92DF93D3
:1058800081E090915B08933009F080CF8F930E9464
:105890009B210F900F900F900F900F9033CF3F925E
:1058A0004F925F926F927F928F929F92AF92BF9230
:1058B000CF92DF92EF92FF920F931F93CF93DF93DC
:1058C00061E081E053DEC0915C0885E0682E6C0EDB
:1058D00002E09EEBE92E9DE0F92ED4E0DC1B77245C
:1058E000739423ECC22E2DE0D22E13E01C1B3FEC50
:1058F000A32E3DE0B32E502E5C1A4EED842E4DE0CB
:10590000942E472C4C1A3C2E3194C11137C08091F3
:105910005B088823B1F080916102882359F081E00F
:1059200090915B08911180E024E042EE5DE0632DF0
:105930000F94510CCF5FC611E8CF85E080935508D6
:105940000BC08091560810925608882321F36CDE14
:10595000809176088823F9F2DF91CF911F910F9102
:10596000FF90EF90DF90CF90BF90AF909F908F907F
:105970007F906F905F904F903F900895C13001F5F8
:1059800090915B08913069F080916102882391F2D7
:1059900081E0913009F080E020E244ED5DE0642D8B
:1059A000C7CF8091560810925608882369F39092C9
:1059B000EF078092EE0780917608882329F3CCCFF9
:1059C000C23009F065C010927F08109283081092CF
:1059D0008208109281081092800890915B089230A2
:1059E00071F080916102882309F4A4CF81E09230A4
:1059F00009F080E020E248EC5DE0652D99CF8091D0
:105A0000560810925608882361F3B092EF07A092CF
:105A1000EE0780917608882321F39ECF70927F084D
:105A200010928308109282081092810810928008C8
:105A300090915B08933071F080916102882309F4A2
:105A400079CF81E0933009F080E020E248EC5DE01E
:105A5000612F6ECF8091560810925608882361F30B
:105A6000D092EF07C092EE0780917608882321F349
:105A700073CF80915608109256088823E1F0F09277
:105A8000EF07E092EE07809176088823A1F064CFBB
:105A9000C33021F2C43009F04DCF00937F0810923B
:105AA00083081092820810928108109280089091C9
:105AB0005B089430F1F280916102882309F43ACFB7
:105AC00081E0943009F080E020E248EC5DE06D2F49
:105AD0002FCF80E090E0A0E8B0E48093790290932B
