:100000000C949D170C94D6170C94D6170C94D617F5
:100010000C94D6170C94D6170C94D6170C94D617AC
:100020000C94D6170C94D6170C94D6170C94D6179C
:100030000C94D6170C94D6170C94D6170C94D6178C
:100040000C94D6170C9443740C94D6170C94D617B2
:100050000C94D6170C9449D00C94D6170C9478BEF7
:100060000C94D6170C9464450C945A450C94D617EE
:100070000C94D6170C94D6170C94D6170C94D6174C
:100080000C94D6170C94D6170C94D6170C94D6173C
:100090000C94D6170C94D6170C94D6170C94D6172C
:1000A0000C94D6170C94D6170C94D6170C94D6171C
:1000B0000C94D6170C94D6170C94D6170C94D6170C
:1000C0000C94D6170C94D6170C94D6170C94D617FC
:1000D0000C94D6170C94D6170C94D6170C94D617EC
:1000E0000C94D6174E414E494E495459494E46CD6F
:1000F000CCCC3D0AD7233C17B7D13877CC2B3295DF
:1001000095E6241FB14F0A000020410000C84200BC
:10011000401C4620BCBE4CCA1B0E5AAEC59D744343
:100120004F4D4D554E49434154494F4E004452594D
:1001300052554E004552524F525300494E464F00C1
:100140004543484F004572726F7220777269746937
:100150006E6720746F20454550524F4D210A005361
:10016000544F505045442E20005072696E74657291
:100170002073746F707065642064756520746F20DF
:100180006572726F72732E204669782074686520DC
:100190006572726F7220616E6420757365204D39CF
:1001A000393920746F20726573746172742E20283F
:1001B00054656D7065726174757265206973207223
:1001C000657365742E2053657420697420616674AC
:1001D00065722072657374617274696E67290A00B2
:1001E0004E6F20436865636B73756D207769746823
:1001F000206C696E65206E756D6265722C204C6195
:100200007374204C696E653A20004E6F2043686518
:10021000636B73756D2077697468206C696E6520F7
:100220006E756D6265722C204C617374204C696E22
:10023000653A2000636865636B73756D206D697343
:100240006D617463682C204C617374204C696E6519
:100250003A20004C696E65204E756D6265722069AA
:1002600073206E6F74204C617374204C696E65202E
:100270004E756D6265722B312C204C617374204C6D
:10028000696E653A20004D31313000536572696105
:100290006C20737461747573206D69736D61746320
:1002A000680A0053442072656164206572726F723F
:1002B0000A00746F6F206D75636820696E616374E6
:1002C0006976652074696D65202D2063757272658D
:1002D0006E7420636F6D6D616E643A200021212081
:1002E0004B494C4C20636175736564206279200032
:1002F000627573793A2070617573656420666F72F8
:1003000020696E7075740A00627573793A207061A5
:100310007573656420666F7220757365720A00627A
:100320007573793A2070726F63657373696E670ACB
:10033000004D656469612052656D6F766564004D9E
:100340006564696120496E73657274656400506C00
:1003500065617365205265736574005052494E544F
:1003600045522048414C5445440025533A202553DA
:10037000004B494C4C45442E20005072696E746508
:10038000722068616C7465642E206B696C6C28291E
:100390002063616C6C6564210A006563686F3A00D4
:1003A0004572726F723A00486F74656E6420746FA4
:1003B0006F20636F6C640A005072657373206275FE
:1003C00074746F6E20746F20726573756D650A00AA
:1003D000496E736572742066696C616D656E742018
:1003E000616E6420707265737320627574746F6ED1
:1003F0000A00507265737320627574746F6E207496
:100400006F2068656174206E6F7A7A6C650A0020CF
:10041000496E76616C696420657874727564657282
:100420002000536C6565702E2E2E00436C69636B43
:1004300020746F20526573756D652E2E2E004E6FE1
:10044000204D6F76652E00456E642066696C6520D0
:100450006C6973740A00426567696E2066696C6531
:10046000206C6973740A004E6F206D656469610ABF
:1004700000286E6F2066696C65290043757272658D
:100480006E742066696C653A20004E6F7420534488
:10049000207072696E74696E670A0053442070722E
:1004A000696E74696E67206279746520002E0A0097
:1004B00044656C6574696F6E206661696C65642C57
:1004C0002046696C653A200046696C652064656C5D
:1004D000657465643A005072696E742074696D6564
:1004E0003A20000A53746174733A2046696C616D56
:1004F000656E7420757365643A20002C204C6F6E15
:1005000067657374206A6F623A2000546F74616C7F
:100510002074696D653A200053746174733A200049
:100520002C204661696C65643A20002C2046696E77
:1005300069736865643A20005072696E74733A207A
:100540000053746174733A20006F6B006F6666002D
:1005500040013B0134012D011F0144454255473AFA
:10056000004D3131322053687574646F776E004DE1
:1005700031313320530057616E68616F2F447570BD
:100580006C696361746F72203453204F46462E00AD
:1005900020204D39322058002F2F004D3134352086
:1005A000533C696E6465783E206F7574206F6620D9
:1005B00072616E67652028302D31290A00204400C1
:1005C00020204D32303020540020204D3230302059
:1005D000530020204D32303120580020450020208B
:1005E0004D32303320580020520020204D3230341C
:1005F000205000204A0020540020530020204D327B
:1006000030352042003F4A206F7574206F6620729B
:10061000616E67652028302E303120746F20302EB7
:1006200033290A0020204D3230362058004F4646EC
:10063000004F4E0020204D61783A200020002020FD
:100640004D696E3A2000203B200020204D32313190
:1006500020530020204D32313700205A002059000D
:1006600020580020204D32313820540046523A00A4
:1006700020466C6F773A200042616279737465702E
:10068000205A0020440020490020204D33303120E2
:100690005000496E76616C69642065787472756487
:1006A00065720A0064697300656E0043290A00617F
:1006B000626C656420286D696E2074656D70200021
:1006C000436F6C6420657874727564657320617221
:1006D0006520004F666673657473204170706C69A5
:1006E0006564004572723A20546F6F206661722112
:1006F00000546F6F206661722066726F6D207265A4
:10070000666572656E636520706F696E740A004578
:100710004550524F4D204F4B0A0020286D6D290047
:10072000203B00205500204C0020204D3630332047
:1007300054004D383400446F6E65207072696E74D9
:10074000696E672066696C650A004D3737004D3366
:1007500031004361703A00434F4E4649475F455868
:10076000504F5254004D4541545041434B00434F6C
:100770004F4C45525F54454D50455241545552459A
:10078000004348414D4245525F54454D504552410A
:100790005455524500424142595354455050494ED8
:1007A000470041524353004D4F54494F4E5F4D4F08
:1007B00044455300544845524D414C5F50524F54AC
:1007C000454354494F4E00455854454E4445445FB7
:1007D0004D323000435553544F4D5F4649524D57AB
:1007E0004152455F55504C4F4144004C464E5F5777
:1007F00052495445004C4F4E475F46494C454E4187
:100800004D45004155544F5245504F52545F53444B
:100810005F5354415455530053445F575249544514
:1008200000524550454154004D554C54495F564F78
:100830004C554D45005344434152440050524F4D96
:1008400050545F535550504F525400484F53545FCB
:10085000414354494F4E5F434F4D4D414E44530029
:10086000454D455247454E43595F504152534552BD
:1008700000434153455F4C494748545F4252494702
:1008800048544E45535300544F47474C455F4C49DD
:100890004748545300534F4654574152455F504FB9
:1008A000574552004255494C445F50455243454ECE
:1008B00054004C4556454C494E475F444154410015
:1008C0005A5F50524F42450052554E4F55540041C9
:1008D00055544F4C4556454C005052494E545F4A72
:1008E0004F420050524F4752455353004155544FC9
:1008F0005245504F52545F54454D50004155544F4E
:100900005245504F52545F504F5300564F4C554D27
:10091000455452494300454550524F4D0042494EBF
:100920004152595F46494C455F5452414E534645EA
:10093000520053455249414C5F584F4E5F584F4605
:1009400046004649524D574152455F4E414D453A4A
:100950004D61726C696E206275676669782D322E02
:10096000312E7820284465632031312032303232F4
:100970002031353A35333A31322920534F555243DD
:10098000455F434F44455F55524C3A6769746875FB
:10099000622E636F6D2F4D61726C696E4669726D68
:1009A000776172652F4D61726C696E2050524F54A1
:1009B0004F434F4C5F56455253494F4E3A312E30BC
:1009C000204D414348494E455F545950453A57617F
:1009D0006E68616F2F4475706C696361746F72200B
:1009E00034532045585452554445525F434F554E59
:1009F000543A3220555549443A6365646532613250
:100A0000662D343161322D343734382D396231322C
:100A10002D633535633632663336376666002569B1
:100A2000730025696D202569730025696820256993
:100A30006D20256973002569642025696820256972
:100A40006D20256973002569792025696420256951
:100A5000682025696D2025697300436F6F6C696E8E
:100A6000672E2E2E00452563202553004265642005
:100A7000436F6F6C696E672E2E2E004265642048AE
:100A8000656174696E672E2E2E00206661696C6543
:100A90006421204261642068656174657220696424
:100AA0000A00504944204175746F74756E650023C7
:100AB000646566696E652044454641554C545F0047
:100AC0004B6420004B6920004B7020002066696E4B
:100AD0006973686564212050757420746865206CA2
:100AE000617374204B702C204B6920616E64204B25
:100AF0006420636F6E7374616E74732066726F6DC1
:100B00002062656C6F7720696E746F20436F6E662C
:100B1000696775726174696F6E2E680A0050494486
:100B2000204175746F74756E6500206661696C652F
:100B300064212074696D656F75740A005049442002
:100B40004175746F74756E6500206661696C6564CB
:100B5000212054656D706572617475726520746FC3
:100B60006F20686967680A00504944204175746FB6
:100B700074756E6500504944204379636C65730059
:100B800025532025692F256900204B643A20002039
:100B90004B693A2000204B703A200020436C61736F
:100BA00073696320504944200A002054753A20009C
:100BB000204B753A2000206D61783A2000206D6945
:100BC0006E3A200020643A200020626961733A2066
:100BD0000048656174696E672E2E2E002073746163
:100BE00072740A00504944204175746F74756E65C3
:100BF00000206661696C6564212054656D706572C2
:100C0000617475726520746F6F20686967680A0087
:100C1000504944204175746F74756E6500504944A5
:100C2000204175746F74756E6500A1000000690045
:100C3000A20000006300B00000000900C100000035
:100C40004100C20000004100C30000004100C40098
:100C500000004100C50000004100C6000000414501
:100C6000C70000004300C80000004500C9000000A4
:100C70004500CD0000004900D10000004E00D50025
:100C800000004F00D60000004F00D70000007800A1
:100C9000DC0000005500DD0000005900E00000000D
:100CA0006100E10000006100E20000006100E3007B
:100CB00000006100E40000006100E5000000610048
:100CC000E60000006165E70000006300E800000046
:100CD0006500E90000006500EA0000006500EB0027
:100CE00000006500EC0000006900ED0000006900F4
:100CF000EE0000006900EF0000006900F100000054
:100D00006E00F20000006F00F30000006F00F400BE
:100D100000006F00F50000006F00F60000006F009B
:100D2000F80000006F00F90000007500FA000000F4
:100D30007500FB0000007500FC0000007500FD0060
:100D400000007900FF00000079000401000041006C
:100D500005010000610006010000430007010000DA
:100D600063000C01000043000D01000063000E0150
:100D7000000044000F010000640011010000640045
:100D80001901000065001A01000045001B01000068
:100D900065001F01000067003001000049003101BB
:100DA00000006900410100004C00420100006C009D
:100DB000430100004E00440100006E0048010000A5
:100DC0006E005801000052005901000072005A01E3
:100DD000000053005B01000073005F01000073001E
:100DE0006001000053006101000073006501000014
:100DF00074006F01000075007C0100007A007D0125
:100E000000005A007E0100007A0092010000660096
:100E1000E30200007800222000002E001E210000C6
:100E2000507822210000544D902100003C2D922149
:100E300000002D3EB02100000300BB210000040093
:100E40003C2200007E00482200007E3D602200001F
:100E5000213D612200003D00642200003C3D6522EE
:100E600000003E3DF12300000700A03000003D00DF
:100E700021F301000200C2F401000500A2000000FD
:100E8000EC00B0000000DF00E4000000E100F6002C
:100E90000000EF00F7000000FD00FC000000F5007E
:100EA000E3020000EB0087030000A5008F030000B1
:100EB000F40098030000F2009E030000E300A30387
:100EC0000000F600A9030000F400AC030000E000FD
:100ED000AD030000E300B1030000E000B203000036
:100EE000E200B5030000E300B8030000F200BC0319
:100EF0000000E400BE030000E300C0030000F700B0
:100F0000C1030000E600C3030000E50090210000DB
:100F10007F00922100007E001A220000E8001E22BD
:100F20000000F30088250000FF0002300000A1004F
:100F30000C300000A2000D300000A3009B30000028
:100F4000DE009C300000DF00A03000003D00A1303A
:100F50000000A700A2300000B100A3300000A800EC
:100F6000A4300000B200A5300000A900A6300000A7
:100F7000B300A7300000AA00A8300000B400A930D8
:100F80000000AB00AA300000B500AB300000B60096
:100F9000AC300000B6DEAD300000B700AE3000006F
:100FA000B7DEAF300000B800B0300000B8DEB130BE
:100FB0000000B900B2300000B9DEB3300000BA0062
:100FC000B4300000BADEB5300000BB00B63000001F
:100FD000BBDEB7300000BC00B8300000BCDEB9306A
:100FE0000000BD00BA300000BDDEBB300000BE0016
:100FF000BC300000BEDEBD300000BF00BE300000CF
:10100000BFDEBF300000C000C0300000C0DEC13015
:101010000000C100C2300000C1DEC3300000AF00DC
:10102000C4300000C200C5300000C2DEC63000007F
:10103000C300C7300000C3DEC8300000C400C930A0
:101040000000C4DECA300000C500CB300000C6007E
:10105000CC300000C700CD300000C800CE3000000A
:10106000C900CF300000CA00D0300000CADED13045
:101070000000CADFD2300000CB00D3300000CBDE4E
:10108000D4300000CBDFD5300000CC00D6300000DB
:10109000CCDED7300000CCDFD8300000CD00D93016
:1010A0000000CDDEDA300000CDDFDB300000CE0006
:1010B000DC300000CEDEDD300000CEDFDE300000B0
:1010C000CF00DF300000D000E0300000D100E13080
:1010D0000000D200E2300000D300E3300000AC009A
:1010E000E4300000D400E5300000AD00E630000040
:1010F000D500E7300000AE00E8300000D600E9304F
:101100000000D700EA300000D800EB300000D90022
:10111000EC300000DA00ED300000DB00EF300000C2
:10112000DC00F2300000A600F3300000DD00F430F7
:101130000000B3DEF7300000DCDEFA300000A6DE8F
:10114000FB300000A500FC300000B000FD300000C6
:10115000A400074E0000FB0086510000FC00435332
:101160000000FA0064FF0000A40065FF0000A50075
:1011700066FF0000A60067FF0000A70068FF0000F0
:10118000A80069FF0000A9006AFF0000AA006BFF29
:101190000000AB006CFF0000AC006DFF0000AD0074
:1011A0006EFF0000AE006FFF0000AF0070FF000098
:1011B000B00071FF0000B10072FF0000B20073FFC9
:1011C0000000B30074FF0000B40075FF0000B5001C
:1011D00076FF0000B60077FF0000B70078FF000040
:1011E000B80079FF0000B9007AFF0000BA007BFF69
:1011F0000000BB007CFF0000BC007DFF0000BD00C4
:101200007EFF0000BE007FFF0000BF0080FF0000E7
:10121000C00081FF0000C10082FF0000C20083FF08
:101220000000C30084FF0000C40085FF0000C5006B
:1012300086FF0000C60087FF0000C70088FF00008F
:10124000C80089FF0000C9008AFF0000CA008BFFA8
:101250000000CB008CFF0000CC008DFF0000CD0013
:101260008EFF0000CE008FFF0000CF0090FF000037
:10127000D00091FF0000D10092FF0000D20093FF48
:101280000000D30094FF0000D40095FF0000D500BB
:1012900096FF0000D60097FF0000D70098FF0000DF
:1012A000D80099FF0000D9009AFF0000DA009BFFE8
:1012B0000000DB009CFF0000DC009DFF0000DD0063
:1012C0009EFF0000DE009FFF0000DF00E5FF000042
:1012D0005C0000000000010204040000001C1C0C63
:1012E00004040402010000000000040810000000D3
:1012F000000003002D2D2D2D2D2D007C4D61726CD5
:10130000696E7C0001002D2D2D2D2D2D0025005006
:101310003A002568753A2530326875002530326804
:10132000753A2530326875002530326875272530CA
:1013300032687500200020003A003A00001C1F119E
:10134000111F00000006191803130C00040E1F04DF
:101350001C000000000E1315110E00001C101817C1
:1013600005060500040A0A0A0A11110E0C12120CD5
:1013700000000000001F1511151F000042656400E9
:10138000456E636C6F737572650045002000250023
:1013900020202020202020005072696E742041629D
:1013A0006F72746564004D323520500A4D3234003E
:1013B00050617573696E672E2E2E004D32340045D4
:1013C0004550524F4D2056657273696F6E204572BD
:1013D000726F7200454550524F4D20496E646578DA
:1013E000204572726F7200454550524F4D20435256
:1013F00043204572726F72003F0049676E6F7265DD
:1014000000526573657400496E697469616C697A2C
:101410006520454550524F4D004C6F6164202A00B5
:101420004C6F6164206D6D00556E6C6F6164202A95
:1014300000556E6C6F6164206D6D0046696C2E20E6
:101440004469612E202A0046696C2E204469612E71
:10145000004520696E206D6D5E33002002204661DC
:101460006374002002204D6178002002204D696ED7
:10147000004F6666004F6E004175746F74656D7045
:1014800000402073746570732F6D6D004164766148
:101490006E6365642053657474696E677300466992
:1014A0006C616D656E740054656D70657261747504
:1014B00072650053746570732F6D6D00436F6E66B7
:1014C000696775726174696F6E005A205261697341
:1014D0006500326E64204E6F7A7A6C65204000435E
:1014E0006F6E66696775726174696F6E00526573BD
:1014F000746F72652044656661756C7473004C6F1F
:1015000061642053657474696E67730053746F72FD
:10151000652053657474696E677300546F6F6C2037
:101520004368616E676500546F6F6C204F66667329
:1015300065747300416476616E63656420536574FD
:1015400074696E6773004D61696E004D37303220EB
:10155000542564004D36303020423020542564003C
:101560004D373032203B2564004D37303120542533
:1015700064004368616E67652046696C616D656EE5
:101580007400556E6C6F61642046696C616D656EA8
:1015900074004C6F61642046696C616D656E740007
:1015A0005072656865617420437573746F6D005087
:1015B0007265686561742024004261636B00554E5A
:1015C0004C4F41442046494C414D454E54004C4FF0
:1015D00041442046494C414D454E540046494C41FA
:1015E0004D454E54204348414E474500414253002B
:1015F000504C4100556E6C6F6164202A004C6F6145
:1016000064202A004368616E67652046696C616DDD
:10161000656E74202A004D61696E00436F6E7469B7
:101620006E7565005075726765206D6F726500524A
:101630004553554D45204F5054494F4E533A005055
:1016400052494E542050415553454400200020003B
:10165000202020002F0020204E6F7A7A6C653A20DF
:10166000005061726B696E672E2E2E00000057616C
:10167000697420666F720066696C616D656E7420B6
:101680006368616E676500746F20737461727400C3
:101690005761697420666F720066696C616D656E72
:1016A0007420756E6C6F616400004E6F7A7A6C65A1
:1016B0002068656174696E6700506C6561736520B0
:1016C000776169742E2E2E0000507265737320624C
:1016D0007574746F6E00746F2068656174206E6F2E
:1016E0007A7A6C650000496E736572742066696C65
:1016F000616D656E7400616E642070726573732035
:10170000627574746F6E00746F20636F6E74696EAF
:101710007565005761697420666F720066696C6157
:101720006D656E74206C6F61640000507265737338
:1017300020427574746F6E00746F20726573756DDE
:1017400065207072696E7400005761697420666F5D
:1017500072207072696E7400746F20726573756D9B
:10176000652E2E2E00005761697420666F72006628
:10177000696C616D656E7420707572676500004DEF
:1017800036303020423020542569004D373031202A
:10179000542569004D37303220542569003F0042FE
:1017A00061636B0053746F70004E6F204D65646908
:1017B00061005072696E742066726F6D204D6564B1
:1017C0006961004368616E6765204D656469610009
:1017D0004D3231004368616E67652046696C616D0A
:1017E000656E7400436F6E66696775726174696FC8
:1017F0006E0054656D7065726174757265004D6F31
:1018000074696F6E00526573756D65205072696EF4
:10181000740054756E650053746F70205072696E59
:1018200074005061757365205072696E7400496E62
:10183000666F2053637265656E003F00537461727A
:1018400074205072696E740043616E63656C005061
:1018500072696E740043616E6E6F7420656E74659C
:1018600072207375626469723A200005202E2E0082
:101870004D61696E004D6F766520246D6D00302ED0
:10188000303235004D6F766520302E316D6D004D54
:101890006F766520316D6D004D6F76652031306D4E
:1018A0006D002100486F74656E6420746F6F206353
:1018B0006F6C64004261636B0050726F63656564B6
:1018C000004D6F7665202A004D6F7665204578744F
:1018D0007275646572004D6F76652040004D6F74BF
:1018E000696F6E0044697361626C65205374657042
:1018F00070657273004D3834004732385A004732F1
:10190000385900486F6D6520400047323858004113
:1019100075746F20486F6D6500473238004D6F76E3
:10192000652041786973004D61696E005072656889
:1019300065617420242042656400507265686561A9
:1019400074202420416C6C005072656865617420BD
:101950002420456E64207E005072656865617420A5
:1019600024207E0054656D70657261747572650027
:10197000F015EC15436F6F6C646F776E00507265F5
:1019800068656174202400426564004E6F7A7A6C49
:1019900065207E004D61696E003A00546F74616C81
:1019A000004261627973746570205A004261627905
:1019B00073746570204000466C6F77207E00466C23
:1019C0006F7700426564004E6F7A7A6C65207E0006
:1019D0005370656564004D61696E00486F6D696E96
:1019E00067204661696C6564006F70656E005452D3
:1019F00049474745524544003A20007A5F6D696E79
:101A000000795F6D617800785F6D61780052657074
:101A10006F7274696E6720656E6473746F70207383
:101A200074617475730A00008084430000164300DB
:101A30000020430000000000000000000000002023
:101A4000746F6F206C6F6E67206578747275736940
:101A50006F6E2070726576656E7465640A0020632F
:101A60006F6C6420657874727573696F6E20707224
:101A70006576656E7465640A000080844300001614
:101A800043000000005761726E696E673A20486F2C
:101A90006D696E672042756D702044697669736F59
:101AA00072203C20310A00020204008084430000BE
:101AB0001643000020430000A0400000A0400000AA
:101AC0000040DB0FC93F45BCDA3F8FB30240FCF05A
:101AD000274056946140FE4B9B4084A5D840E023AC
:101AE0001841346A5641E859974164DBD5416E2765
:101AF0001742B4B75542CE1A9742C8AED542B58800
:101B00005A43D40684BFA65FA7BF7443E0BF10B199
:101B10001AC01C2C58C0E8F697C0B849D6C04E4E23
:101B200017C124D355C1802497C1A0B5D5C1121ABD
:101B300017C244AE55C2781797C26CACD5C267883D
:101B40005AC320746F6F206C6F6E67206578747253
:101B50007573696F6E2070726576656E7465640A60
:101B60000020636F6C6420657874727573696F6EA2
:101B70002070726576656E7465640A0053657474CE
:101B8000696E67732053746F72656400290A0020C0
:101B900062797465733B20637263200053657474CB
:101BA000696E67732053746F726564202800486102
:101BB0007264636F6465642044656661756C74204B
:101BC00053657474696E6773204C6F61646564005B
:101BD000454550524F4D206461746173697A6520A8
:101BE0006572726F722E0A00290A0020627974658C
:101BF000733B2063726320002073746F72656420EE
:101C000073657474696E6773207265747269657642
:101C10006564202800202863616C63756C617465BD
:101C20006429210A0020213D2000454550524F4D96
:101C300020435243206D69736D61746368202D20C9
:101C40002873746F7265642920002053697A653A9D
:101C50002000496E6465783A200000007A43000055
:101C60007A430000A0410000C8428747BC42874732
:101C7000BC420000C843590C0443E8030000E803D9
:101C800000006400000088130000204D61726C6940
:101C90006E3D563837290A00454550524F4D207643
:101CA000657273696F6E206D69736D61746368200E
:101CB00028454550524F4D3D0020436F756E7420AE
:101CC000583A000001453200426564004531004544
:101CD00000626564002C2073797374656D207374E1
:101CE0006F7070656421204865617465725F494456
:101CF0003A20004572723A204D415854454D5000EB
:101D00004D415854454D502074726967676572653E
:101D100064004572723A204D494E54454D50004D75
:101D2000494E54454D502074726967676572656409
:101D30000048656174696E67204661696C6564007E
:101D400048656174696E67206661696C65640070DE
:101D5000012C0190012701B0012201C0011D01F0F9
:101D60000118011002130130020E016002090190F6
:101D7000020401C002FF000003FA004003F50080E6
:101D800003F000D003EB002004E6007004E100E063
:101D900004DC004005D700C005D2004006CD00D0CD
:101DA00006C8008007C3003008BE00F008B900C0B4
:101DB00009B400B00AAF00B00BAA00D00CA5000017
:101DC0000EA000500F9B00C0109600501291000012
:101DD000148C00C0158700B0178200B0197D00D0A8
:101DE0001B7800001E730040206E0090226900F0F6
:101DF00024640040275F0090295A00E02B55001012
:101E00002E500020304B0010324600E0334100904D
:101E1000353C001037370070383200A0392D00B043
:101E20003A2800A03B2300603C1E00103D190090A2
:101E30003D1400103E0F00703E0A00C03E05000039
:101E40003F0000403FFBFF803FF6FFC03FF1FF54E3
:101E50004845524D414C2052554E4157415900542E
:101E60006865726D616C2052756E61776179004DA5
:101E7000415836363735204661756C743A204F70BC
:101E8000656E20436972637569740A0054656D70EC
:101E9000206D6561737572656D656E742065727213
:101EA0006F72212000202F002040002042403A0085
:101EB00020403A00496E76616C69642065787472DE
:101EC000756465720A0041637469766520457874AB
:101ED00072756465723A20000009121B242D363F8A
:101EE00048415A536C657E7719100B023D342F26FA
:101EF0005158434A757C676E323B2029161F040DEA
:101F00007A7368615E574C452B2239300F061D14D9
:101F1000636A7178474E555C646D767F4049525BC9
:101F20002C253E3708011A137D746F6659504B42B9
:101F3000353C272E1118030A565F444D727B6069A9
:101F40001E170C053A3328214F465D546B62797099
:101F5000070E151C232A31384148535A656C777E89
:101F600009001B122D243F3658514A437C756E6779
:101F70001019020B343D262F737A6168575E454C69
:101F80003B3229201F160D046A6378714E475C5559
:101F9000222B3039060F141D252C373E0108131A49
:101FA0006D647F7649405B523C352E2718110A0339
:101FB000747D666F5059424B171E050C333A212829
:101FC0005F564D447B7269600E071C152A23383119
:101FD000464F545D626B70790000211042206330DF
:101FE0008440A550C660E770088129914AA16BB171
:101FF0008CC1ADD1CEE1EFF1311210027332522219
:10200000B5529442F772D662399318837BB35AA3C0
:10201000BDD39CC3FFF3DEE36224433420040114E8
:10202000E664C774A44485546AA54BB52885099510
:10203000EEE5CFF5ACC58DD55336722611163006B8
:10204000D776F6669556B4465BB77AA71997388760
:10205000DFF7FEE79DD7BCC7C448E5588668A77878
:102060004008611802282338CCC9EDD98EE9AFF9B0
:10207000488969990AA92BB9F55AD44AB77A966A58
:10208000711A500A333A122AFDDBDCCBBFFB9EEB00
:10209000799B588B3BBB1AABA66C877CE44CC55C28
:1020A000222C033C600C411CAEED8FFDECCDCDDD50
:1020B0002AAD0BBD688D499D977EB66ED55EF44EF8
:1020C000133E322E511E700E9FFFBEEFDDDFFCCFA0
:1020D0001BBF3AAF599F788F8891A981CAB1EBA1F4
:1020E0000CD12DC14EF16FE18010A100C230E32070
:1020F0000450254046706760B9839893FBA3DAB318
:102100003DC31CD37FE35EF3B1029012F322D232BF
:102110003542145277625672EAB5CBA5A8958985E7
:102120006EF54FE52CD50DC5E234C324A01481040F
:102130006674476424540544DBA7FAB79987B897B7
:102140005FE77EF71DC73CD7D326F2369106B0165F
:1021500057667676154634564CD96DC90EF92FE977
:10216000C899E9898AB9ABA94458654806782768AF
:10217000C018E1088238A3287DCB5CDB3FEB1EFB57
:10218000F98BD89BBBAB9ABB754A545A376A167AFF
:10219000F10AD01AB32A923A2EFD0FED6CDD4DCD27
:1021A000AABD8BADE89DC98D267C076C645C454C4F
:1021B000A23C832CE01CC10C1FEF3EFF5DCF7CDFF7
:1021C0009BAFBABFD98FF89F176E367E554E745E9F
:1021D000932EB23ED10EF01E7C3C3E5E2B3D3F2F37
:1021E0005B5D3B2C2A225C004D6564696120496E71
:1021F0006974204661696C005344206361726420F5
:102200006F6B0A006F70656E526F6F742066616944
:102210006C65640A00766F6C756D652E696E697405
:10222000206661696C65640A004E6F205344206328
:102230006172640A00534420636172642072656CA9
:1022400065617365640A000A4D3234004D323320F3
:102250002573002E0A006F70656E206661696C65DB
:10226000642C2046696C653A200046696C652073D1
:10227000656C65637465640A002053697A653A2069
:102280000046696C65206F70656E65643A20004594
:102290004E4420535542524F5554494E450A002250
:1022A00020706F73002220706172656E743A220094
:1022B000535542524F5554494E452043414C4C20B2
:1022C0007461726765743A220053756263616C6C65
:1022D000204F766572666C6F77004578636565643C
:1022E0006564206D617820535542524F5554494ED4
:1022F000452064657074683A0057726974696E6746
:1023000020746F2066696C653A2000667265736898
:1023100000646F696E67002066696C653A20004E44
:102320006F7720002F6175746F25632E67006D61D4
:10233000726C696E66772E6F7267006D61726C6980
:102340006E66772E6F7267006275676669782D32E8
:102350002E312E78006275676669782D322E312E07
:102360007800006D61726C696E66772E6F7267001F
:102370006D61726C696E66772E6F72670020627590
:10238000676669782D322E312E78003D0A573F3D21
:102390000A573FCDCCCC3E0000803F0000803F205C
:1023A00020506C616E6E6572427566666572427928
:1023B0007465733A20002046726565204D656D6F27
:1023C00072793A200020436F6D70696C65643A2021
:1023D00044656320313120323032320A00204C61B2
:1023E000737420557064617465643A2032303232FF
:1023F0002D31322D3038207C20417574686F723A4F
:102400002028436F6F6C5A65726F4E4C2C206465A8
:102410006661756C7420636F6E666967290A004D8A
:1024200061726C696E206275676669782D322E3133
:102430002E780A0020536F667477617265205265AA
:102440007365740A00205761746368646F67205273
:10245000657365740A002042726F776E206F757421
:102460002052657365740A002045787465726E6148
:102470006C2052657365740A00506F7765725570F1
:102480000A0073746172740A00473237004D3130AC
:102490003031006F6B006572726F722077726974F1
:1024A000696E6720746F2066696C650A00446F6E00
:1024B0006520736176696E672066696C652E0A0017
:1024C0004D323900456E6473746F7073002553206C
:1024D000256320256320256320256300205A3A00C8
:1024E00020593A0020583A00656E6473746F707317
:1024F000206869743A200000002100240027002A87
:10250000002D003000330001010000040107010A22
:102510000100002200250028002B002E003100348D
:102520000002010000050108010B0100002000234A
:1025300000260029002C002F0032000001000003BB
:102540000106010901050505050705080808080237
:102550000202020A0A08080404040401010101013C
:102560000101010303030303030303040707070C2B
:102570000C0C0C0C0C0C0C020202020606060606E1
:102580000606060B0B0B0B0B0B0B0B07070A0A0AB5
:102590000A0A0A050505040404080801021020209F
:1025A00008081020401020408002010201080402A7
:1025B000010102040810204080804020100804021D
:1025C0000180040201804020100804020108040276
:1025D000010102040810204080010204081020407C
:1025E000801008040880102040044080102040041F
:1025F0008000000A0B02090C0D0E080703040100FD
:1026000000000000000000000000000000000000CA
:102610000000000000000000000000000012111087
:1026200000000000000000000000000000000000AA
:10263000000000000000000000000000000000009A
:102640000000000000000024F404D9201BC40C5C2E
:102650000E9804C4095F0265077101F405F900FBD7
:1026600004B30048048700C1036900580355000300
:10267000034500BE023A008402310053022A0029B9
:1026800002250004022000E4011C00C8011900AF6B
:1026900001170098011400840113007101100061FA
:1026A00001100051010E0043010D0036010B002BFB
:1026B000010B0020010B00150109000C01090003AA
:1026C000010800FB000800F3000800EB000700E42D
:1026D000000600DE000600D8000600D2000600CC8E
:1026E000000500C7000500C2000500BD000400B9D8
:1026F000000400B5000400B1000400AD000400A90E
:10270000000400A5000300A20003009F0004009B3A
:10271000000300980003009500020093000300905E
:102720000003008D0002008B000300880002008679
:1027300000020084000300810002007F0002007D8F
:102740000002007B000200790002007700010076A1
:102750000002007400020072000100710002006FAC
:102760000002006D0001006C0002006A00010069B7
:1027700000020067000100660001006500010064BE
:102780000002006200010061000100600001005FC2
:102790000002005D0001005C0001005B0001005AC6
:1027A00000010059000100580001005700010056C7
:1027B00000010055000100540001005300000053C7
:1027C0000001005200010051000100500001004FC3
:1027D0000001004E0000004E0001004D0001004CC1
:1027E0000001004B0000004B0001004A00010049BD
:1027F00000010048000000480001004700010046B9
:1028000000000046000100450000004500010044B2
:1028100000010043000000430001004200000042AC
:102820000001004100000041000100400001003FA4
:102830000000003F0001003E0000003E0001003D9E
:102840000000003D0001003C0000003C0000003C96
:102850000001003B0000003B0001003A0000003A8C
:102860000001003900000039000100380000003884
:10287000000000380001003700000037000100367A
:102880000000003600000036000100350000003571
:102890000000003500010034000000340000003466
:1028A000000100330000003300000033000100325B
:1028B0000000003200000032000100310000003151
:1028C0000000003100010030000000300000003046
:1028D0000001002F0000002F0000002F0000002F3B
:1028E0000001002E0000002E0000002E0001002D2F
:1028F0000000002D0000002D0000002D0001002C24
:102900000000002C0000002C0000002C0001002B17
:102910000000002B0000002B0000002B0001002A0B
:102920000000002A0000002A0000002A00010029FF
:1029300000000029000000290000002900000029F3
:1029400000010028000000280000002800000028E6
:1029500000000028000100270000002700000027D9
:1029600000000027000000270001002600000026CC
:1029700000000026000000260000002600010025BF
:1029800000000025000000250000002500000025B3
:1029900000000025000100240000002400000024A5
:1029A0000000002400000024000100230000002398
:1029B000000000230000002300000023000000238B
:1029C000000000230001002200000022000000227D
:1029D000000000220000002200000022000100216F
:1029E0000000002100000021000000210000002163
:1029F0000000002100000021000100200000002054
:102A00000000002000000020000000200000002046
:102A100000000020000000200001001F0000001F37
:102A20000000001F0000001F0000001F0000001F2A
:102A30000000001F0001001E0000001E0000001E1C
:102A40000000001E00000024F4D43050C38E20C2C9
:102A5000A24017828B7011127A910D816CD90AA84D
:102A600061E108C7586607615143061E4B5D05C109
:102A700045A7041A411104093D98037139310340F7
:102A800036DB0265339102D4305402802E1D02637E
:102A90002CEE01752AC501B028A001102781018FF5
:102AA0002564012B244B01E0223401AC211F018D50
:102AB000200D01801FFC00841EED00971DDF00B873
:102AC0001CD200E61BC600201BBC00641AB200B278
:102AD00019A8000A19A0006A189900D1179100409E
:102AE000178B00B516840031167E00B31579003AB5
:102AF000157300C7146F0058146A00EE136600883F
:102B000013630025135E00C7125B006C125700159B
:102B1000125400C111510070114F0021114B00D609
:102B20001049008D1047004610440002104200C0BA
:102B30000F4000800F3E00420F3C00060F3B00CBD1
:102B40000E3800930E37005C0E3500270E3400F36C
:102B50000D3200C10D3100900D3000600D2E00329D
:102B60000D2D00050D2C00D90C2B00AE0C29008575
:102B70000C29005C0C2700350C27000E0C2600E801
:102B80000B2400C40B2400A00B23007D0B23005A50
:102B90000B2100390B2100180B2000F80A1F00D967
:102BA0000A1E00BB0A1E009D0A1D00800A1D00634C
:102BB0000A1C00470A1B002C0A1B00110A1A00F706
:102BC000091A00DD091900C4091900AB091900929E
:102BD0000917007B091800630917004C0916003615
:102BE000091600200916000A091500F5081500E06D
:102BF000081400CC081400B8081400A408140090AD
:102C00000813007D0812006B0813005808120046D4
:102C100008120034081100230811001208110001E5
:102C2000081100F0071000E0071000D0071000C0E6
:102C3000071000B0070F00A107100091070E0083D6
:102C4000070F0074070F0065070E0057070E0049B5
:102C5000070E003B070D002E070E0020070D001386
:102C6000070D0006070D00F9060C00ED060D00E04B
:102C7000060C00D4060C00C8060C00BC060C00B004
:102C8000060C00A4060B0099060C008D060B0082B2
:102C9000060B0077060B006C060B0061060A005756
:102CA000060B004C060A0042060A0038060A002EEF
:102CB000060A0024060A001A060A00100609000780
:102CC000060A00FD050900F4050900EB050900E20C
:102CD000050900D9050900D0050900C7050900BE8E
:102CE000050900B5050800AD050800A50509009C0B
:102CF000050800940508008C050800840508007C80
:102D0000050800740508006C050700650508005DEE
:102D1000050700560508004E050700470507004057
:102D200005080038050700310507002A05070023BC
:102D30000507001C050600160507000F050700081B
:102D400005060002050700FB040600F5040700EE77
:102D5000040600E8040600E2040700DB040600D5D0
:102D6000040600CF040600C9040600C3040600BD23
:102D7000040600B7040600B1040500AC040600A672
:102D8000040600A00405009B0406009504050090BD
:102D90000406008A04050085040500800406007A04
:102DA00004050075040500700405006B0405006649
:102DB000040500610405005C040500570405005289
:102DC0000405004D04050048040500430405003EC9
:102DD0000404003A04050035040500300404002C06
:102DE00004050027040400230405001E0404001A3F
:102DF00004040016040500110404000D0404000975
:102E00000405000404040000040400FC030400F8AA
:102E1000030400F4030400F0030400EC030400E8DE
:102E2000030400E4030400E0030400DC030400D80E
:102E3000030400D4030400D0030400CC030400C83E
:102E4000030300C50303003A2E00007B1D00001899
:102E50001100004A090000DB0400007C0200004170
:102E6000010000A10000005072696E742066726F4C
:102E70006D204D6564696100200020002000200065
:102E8000200020000101FF43616E6E6F74206F709F
:102E9000656E207375626469722000496E73657295
:102EA000742066696C616D656E7420616E6420705B
:102EB0007265737320627574746F6E0A00220A0063
:102EC000556E6B6E6F776E20636F6D6D616E643AD9
:102ED000202200486F6D65202573257325732046D9
:102EE000697273740020453A00205A3A0020593A1A
:102EF00000583A006F6B0A00526573656E643A20A1
:102F00000057616E68616F2F4475706C69636174FE
:102F10006F722034532052656164792E00507269BB
:102F20006E74696E672E2E2E005072696E7420507A
:102F30006175736564002BD48CDD11241FBECFEF47
:102F4000D1E2DEBFCDBF84B78093CB1314BE0FB6E2
:102F5000F894A89580916000886180936000109239
:102F600060000FBE13E0A0E0B2E0E8E5F2ED01E0A2
:102F70000BBF02C007900D92AA3AB107D9F723E11F
:102F8000AAEAB3E001C01D92AB3CB207E1F717E13A
:102F9000CCE9D7E104C02197FE010E9478E6CB3945
:102FA000D107C9F70E943DD50C9420E90C9400008C
:102FB0004F925F926F927F928F929F92AF92BF9249
:102FC000CF92DF92EF92FF926B017C0120E030E024
:102FD000A9010E9406E287FFA7C06DEB77E386E0B8
:102FE00095EBA70196010E94D1E66B017C0120E0E0
:102FF00030E040E251E40E946BE220E030E048EC37
:1030000052E40E946BE24B015C0120E030E040E2C0
:1030100051ECC701B6010E9406E2181654F420E0F4
:1030200030E048EC52E4C701B6010E9434E887FD65
:103030008FC020E030E0A901C701B6010E9406E27E
:1030400087FF77C060E070E080EA90ECA501940112
:103050000E94D1E620E030E040E251E40E9448E7DF
:103060000E94B0E76B017C01F7FC68C020E137E209
:1030700040E050E00E945CE6CA01B9012AE030E07D
:1030800040E050E00E945CE6605D60938904C70107
:10309000B60128EE33E040E050E00E945CE69AE0A2
:1030A000892E912CA12CB12CCA01B901A501940142
:1030B0000E945CE6605D60938A04C701B60124E665
:1030C00030E040E050E00E945CE6CA01B901A50191
:1030D00094010E945CE6605D60938B048EE28093B5
:1030E0008C04C701B601A50194010E945CE66B0146
:1030F000CA01B901A50194010E945CE6605D60937C
:103100008D0480E3C80EC0928E0489E894E0FF909D
:10311000EF90DF90CF90BF90AF909F908F907F9077
:103120006F905F904F9008956DEB77E386E095E3A5
:1031300058CF60E070E080EA90E488CFF094E094AB
:10314000D094C094C11CD11CE11CF11C6DE29DCF38
:1031500020E030E0A901C701B6010E9406E287FF26
:103160006BC060E070E080EA90ECA50194010E94E1
:10317000D1E620E030E040E251E40E9448E70E94BE
:10318000B0E74B015C0120E030E0A901C701B601C6
:103190000E9434E887FD0BC020E030E040E251E4BB
:1031A000C701B6010E9406E260E287FD13C0B7FCCA
:1031B00048C0C501B40128EE33E040E050E00E9471
:1031C0005CE6CA01B9012AE030E040E050E00E942C
:1031D0005CE6605D60938A04C501B40124E630E0DA
:1031E00040E050E00E945CE68AE0482E512C612CC1
:1031F000712CCA01B901A30192010E945CE6605DD5
:1032000060938B048EE280938C04C501B401A3010A
:1032100092010E945CE66B01CA01B901A30192010F
:103220000E945CE6605D60938D0480E3C80EC092EE
:103230008E048AE894E06BCF60E070E080EA90E46E
:1032400094CFB094A09490948094811C911CA11C64
:10325000B11C6DE2BFCFCF93DF93EC01CB01BA017C
:103260000E940CE2688379838A839B83DF91CF91EC
:103270000895CF93DF93EC01CB01BA010E940CE2D9
:10328000688379838A839B83DF91CF9108958091AE
:10329000BC07882369F08091FE068770873041F46F
:1032A00089E199E190930D0780930C071092BC0778
:1032B00008958F929F92AF92BF92CF92DF92EF923A
:1032C000FF926B017C0120E030E0A9010E9406E240
:1032D00087FDC3C06DEB77E386E095E3A701960118
:1032E0000E94D1E66B017C0120E030E0A9010E9440
:1032F00006E287FFB7C0C701B601905820E030E072
:1033000040E251E40E946BE220E030E040E251E410
:103310000E946BE220E030E040EA50E40E94D1E6F7
:1033200020E030E040E251E40E9448E70E94B0E72C
:103330006B017C0160E280EAC81686E8D80681E06D
:10334000E806F1048CF0C701B60120EA36E841E056
:1033500050E00E945CE6CA01B9012AE030E040E09A
:1033600050E00E945CE6605D6093880460E280E16A
:10337000C81687E2D806E104F1048CF0C701B60153
:1033800020E137E240E050E00E945CE6CA01B9016A
:103390002AE030E040E050E00E945CE6605D60932F
:1033A000890460E288EEC81683E0D806E104F104DF
:1033B0008CF0C701B60128EE33E040E050E00E94F7
:1033C0005CE6CA01B9012AE030E040E050E00E942A
:1033D0005CE6605D60938A0460E284E6C816D1040E
:1033E000E104F1048CF0C701B60124E630E040E0CE
:1033F00050E00E945CE6CA01B9012AE030E040E0FA
:1034000050E00E945CE6605D60938B048AE0882E49
:10341000912CA12CB12CC701B601A50194010E94E9
:103420005CE66B01CA01B901A50194010E945CE64A
:10343000605D60938C048EE280938D0480E3C80EFF
:10344000C0928E0488E894E0FF90EF90DF90CF90D8
:10345000BF90AF909F908F9008956DEB77E386E0DB
:1034600095EB3CCF20E030E040E251E4C701B601EB
:1034700049CFB0E0A0E0EFE3FAE10C94A3E66B01E2
:103480007C0120E030E0A9010E9406E287FD43C0F4
:103490006DEB77E386E095E3A70196010E94D1E604
:1034A0006B017C0120E030E0A9010E9406E220E0EF
:1034B00030E040E05FE387FF04C020E030E040E020
:1034C0005FEBC701B6010E94D1E60E94B0E78B0115
:1034D000FB0177FF25C0119501951109ED398FEF9B
:1034E000F8070CF05FC08DE280938B04C80164E69E
:1034F00070E00E9449E6CB012AE030E0B9010E9469
:1035000049E6805D80938C04C801B9010E9449E6B8
:10351000CB01B90129C06DEB77E386E095EBBCCF19
:10352000083E83E01807CCF1C80168EE73E00E9402
:1035300049E6CB01CAE0D0E0BE010E9449E6805DC9
:1035400080938B04C80164E670E00E9449E6CB01D9
:10355000BE010E9449E6805D80938C04C801BE01D3
:103560000E9449E6CB01BE010E9449E6805D80933E
:103570008D04C8016AE070E00E9449E6805D809396
:103580008E048BE894E0CDB7DEB7E8E00C94BFE69C
:103590008DE2F7FDECCF80E2EACF80E20436110540
:1035A0000CF0A2CF80E280938B0480938C040A30CD
:1035B000110574F38DE2F7FF80E280938C04C8015B
:1035C0006AE070E00E9449E6605D60938D04D1CFAF
:1035D0008F929F92AF92BF92CF92DF92EF92FF9223
:1035E0006B017C0120E030E0A9010E9406E287FD2A
:1035F00093C06DEB77E386E095E3A70196010E9407
:10360000D1E66B017C0120E030E040E251E40E9411
:103610006BE220E030E04AE754E40E946BE24B01A9
:103620005C0120E030E0A901C701B6010E9406E27A
:1036300020E030E040EA50E487FF04C020E030E0C2
:1036400040EA50ECC501B4010E94D1E620E030E030
:1036500040E251E40E9448E70E94B0E76B017C0120
:10366000C114D104E104F10409F45BC0F7FE59C0B0
:10367000F094E094D094C094C11CD11CE11CF11CC6
:103680008DE280938904C701B60128EE33E040E063
:1036900050E00E945CE68AE0882E912CA12CB12C8F
:1036A000CA01B901A50194010E945CE6605D6093C6
:1036B0008A048EE280938B04C701B60124E630E0D1
:1036C00040E050E00E945CE6CA01B901A501940106
:1036D0000E945CE6605D60938C04C701B601A501A1
:1036E00094010E945CE66B01CA01B901A501940135
:1036F0000E945CE6605D60938D0480E3C80EC0921A
:103700008E0489E894E0FF90EF90DF90CF90BF9017
:10371000AF909F908F9008956DEB77E386E095EBE7
:103720006CCF80E2AECFCF93DF93EC01CB01BA0137
:103730000E940CE220E030E040E251E40E9448E7C1
:10374000688379838A839B83DF91CF9108950E9458
:103750000CE220E030E040E251E40E9448E7A9CDCD
:10376000CF93DF93EC01CB01BA010E940CE220E081
:1037700030E048EC52E40E9448E7688379838A830A
:103780009B83DF91CF9108950E940CE220E030E00E
:1037900048EC52E40E9448E70BCCCF93DF93EC0156
:1037A000CB01BA010E940CE20E94B0E779836883E2
:1037B000DF91CF9108950E940CE25BCECF93DF930F
:1037C000EC01CB01BA010E940CE220E030E04AE7B4
:1037D00054E40E9448E7688379838A839B83DF915E
:1037E000CF9108950E940CE220E030E04AE754E4D3
:1037F0000E9448E7EDCEFC0184910895FC01808190
:103800000895B0E0A0E0E7E0FCE10C94A1E6EC0153
:103810005B018A01FB01099587FD10C0C82ED12CE0
:10382000F12CE12C2196F801C082D182E282F38250
:10383000CE01CDB7DEB7EAE00C94BDE6982F907EBE
:10384000903CA9F48F7190E0B0E0A0E06C017D01A4
:1038500056E0CC0CDD1CEE1CFF1C5A95D1F7CE01B6
:103860000196F50109958F73C82A2296DCCF982F0F
:10387000907F903E11F58F7090E0B0E0A0E06C0179
:103880007D0136E0CC0CDD1CEE1CFF1C3A95D1F717
:10389000CE010196F50109958F73C82A46E0CC0C3C
:1038A000DD1CEE1CFF1C4A95D1F7CE010296F501F6
:1038B00009958F73C82A2396B6CF982F987F903F8B
:1038C00079F5877090E0B0E0A0E06C017D0186E0C2
:1038D000CC0CDD1CEE1CFF1C8A95D1F7CE010196A5
:1038E000F50109958F73C82A96E0CC0CDD1CEE1CFF
:1038F000FF1C9A95D1F7CE010296F50109958F73B9
:10390000C82A26E0CC0CDD1CEE1CFF1C2A95D1F742
:10391000CE010396F50109958F73C82A249683CFAB
:10392000982F907C903841F4807C803869F42196FF
:10393000CE01F5010995F8CF8E7F8D3F28F02196B5
:10394000CE01F5010995F8CFC12CD12C76016BCFB2
:10395000CF93DF93C0911F06D091200681E0CE3136
:10396000D105E4F020E030E040E05FE360911B0629
:1039700070911C0680911D0690911E060E94D1E652
:103980000E94B0E76C1B7D0B77FF03C071956195BA
:10399000710981E0633071050CF080E0DF91CF9117
:1039A0000895CF93DF93DB01F9019C919130C1F031
:1039B000943080F094509C938830D1F48081918130
:1039C000009771F0019791838083480F591FEA0196
:1039D000188206C08C3539F49C5F9C93943041F476
:1039E000DF91CF9108958B3339F781E08C93F8CF35
:1039F00020813181B9016F5F7F4F71836083420FF6
:103A0000531FEA018883808191818F3591056CF77E
:103A1000E7CF0F931F9381E000913611109137117A
:103A20002091381130913911409132115091331158
:103A30006091341170913511041715072607370767
:103A400008F480E01F910F91089590E080E00895C0
:103A50002091EA03833021F425FD0CC024FD0CC025
:103A600030E0A90102C0559547958A95E2F7CA0151
:103A70008170089581E0089580E0089580910504A3
:103A800084FD0BC08091070487FD07C09091080456
:103A9000937081E019F480E0089581E008952FEBA0
:103AA000280F2A3108F047C0E22FF0E0809105048A
:103AB00090910604A0910704B091080404C0B69543
:103AC000A795979587952A95D2F780FD02C08170BA
:103AD0000895E551FC4FE081EE2341F18091CF073D
:103AE0009091D007E80FF92FF11D808190ED980F8C
:103AF0009A3030F08E3251F4818180538A3098F4BC
:103B0000F093E403E093E30381E008958D3211F034
:103B10008B3249F4818190ED980F9A3088F38E3280
:103B200011F48281EACFF0E0E0E0EACF1092E40302
:103B30001092E303E9CF80E008950C949CAD0C94BF
:103B4000C2AD0C94E8ADCF92DF92EF92FF920E944B
:103B50000CE26B017C0120E030E0A9010E9406E24A
:103B60002DEB37E346E055E387FF04C02DEB37E349
:103B700046E055EBC701B6010E94D1E66B017C011E
:103B800020E030E0A9010E9406E220E030E040E0C1
:103B90005FE387FF04C020E030E040E05FEBC70157
:103BA000B6010E94D1E60E94B0E7CB010E94D79BEC
:103BB000FF90EF90DF90CF9008950E940CE20E945A
:103BC000B0E7CB010C94D79B80913B02882341F056
:103BD000609176047091770441E081E00C9435B9EE
:103BE0000895A4E0B0E0E7EFFDE10C9499E67C8352
:103BF0006B83FC01C080D180E280F380C701B601F5
:103C000020E831E541E050E00E94E1E5C9016DE6C0
:103C100071E00E9435E61B018C01C701B60120E16D
:103C20003EE040E050E00E94E1E5CA01B90128E130
:103C300030E040E050E00E94E1E54B015C017A8316
:103C400069838CE3482E512C612C712CC701B6017D
:103C5000A30192010E94E1E56B017C01CA01B90157
:103C6000A30192010E94E1E521143104F9F0DF92F1
:103C7000CF927F936F939F928F921F930F933F9258
:103C80002F9286E49AE09F938F93FC81FF934B8160
:103C90004F930E949FE10FB6F894DEBF0FBECDBFD9
:103CA0008B819C812496E2E10C94B5E60115110507
:103CB00099F0DF92CF927F936F939F928F921F9391
:103CC0000F9386E39AE09F938F939C819F93EB8160
:103CD000EF930E949FE1DFCFE981FA81EF2B89F01A
:103CE000DF92CF927F936F939F928F928AE29AE0B6
:103CF0009F938F93FC81FF934B814F930E949FE191
:103D0000CACF6115710579F0DF92CF927F936F93DF
:103D100082E29AE09F938F939C819F93EB81EF9334
:103D20000E949FE1B8CFDF92CF928EE19AE09F93FD
:103D30008F935C815F938B818F930E949FE10F90A3
:103D40000F900F900F900F900F90AACF0C94C878FF
:103D50000C94C87863E972E084E690E00E9489A33D
:103D600070E060E08AE090E00E9489A36AEB72E074
:103D700084E690E00C9489A3882309F0EBCF68E2F5
:103D800070E080E991E00C9489A30E944175F4CF22
:103D90000E94699AF1CF0E94D898DCCFCF93DF932D
:103DA000C0911F06D0912006209729F160911B0633
:103DB00070911C0680911D0690911E060E94B0E72E
:103DC0006E5F7F4F24976C177D07ACF47093E60409
:103DD0006093E5040E9469BB605A75418F4F9F4F05
:103DE0006093E7047093E8048093E9049093EA04F5
:103DF000DF91CF9108951092E7041092E804109299
:103E0000E9041092EA04F4CFA8E0B0E0EAE0FFE1B0
:103E10000C94A9E6DE01119630E020E0AD01FB0133
:103E2000E20FF31FE491ED932F5F3F4F28303105F0
:103E3000B1F7BA010E94C4BF2896E2E00C94C5E62F
:103E4000A6E0B0E0E6E2FFE10C94A3E68A0146E0DA
:103E5000469F9001479F300D1124BC01620F731FD4
:103E600046E050E0CE0101960E942FE1C980DA8041
:103E7000EB80FC80F80140815181628173818FEF7A
:103E80009FEFC416D506E606F70648F081E090E0FD
:103E90004C155D056E057F0510F090E080E02696DC
:103EA000E8E00C94BFE6AEE0B0E0E9E5FFE10C9499
:103EB000A7E68B011E861D86FC01608171818281CF
:103EC00093816F83788789879A872FEF2B87603854
:103ED00071058105910538F48EEF9FE00E94AFBF18
:103EE00081E090E02FC09E01235F3F4FAE01495F0C
:103EF0005F4F69EB70E08CE79EE00E947FB497FD16
:103F000025C08D859E8526E0289FB001299F700DD4
:103F100011246458714F46E050E0CE0101960E9492
:103F20002FE16D818EEF9FE00E94AFBF0130110540
:103F3000B9F26E816623A1F28EEF9FE00E94AFBFBF
:103F400082E090E02E96E4E00C94C3E69E01235FAD
:103F50003F4FAE01495F5F4F63E670E08AE29CE04D
:103F60000E947FB497FD0BC08D859E8526E0289F1B
:103F7000B001299F700D1124665D734FCCCF6FE3A4
:103F8000ABCF8091E3039091E403009731F04AE0D6
:103F900050E070E060E00C9427E060E070E0CB015E
:103FA00008958091E3039091E403009731F04AE093
:103FB00050E070E060E00C94FCDE60E070E0CB016B
:103FC0000895EFDFCB010895ECDF97FD0AC0E9DF2C
:103FD0006F3F71058105910509F02CF4E2DF862F12
:103FE000089580E008958FEF08958091E303909104
:103FF000E403892B39F0E8DF91E0811101C090E002
:10400000892F089591E0FCCF4FE350E0BC018EE092
:1040100097E00C9406E9382F8FEF809316021092E8
:1040200069078091540790915507A0915607B09168
:104030005707B7FF08C01092540710925507109207
:104040005607109257072091540720938604109228
:104050006407809184041816ECF4082E000C990B68
:10406000831B9109022E000C330B2817390794F09B
:1040700097FF02C090E080E080938604092E000C38
:10408000AA0BBB0B8093540790935507A093560738
:10409000B0935707809186046623A9F09091870416
:1040A000891714F48093870420918704022E000C52
:1040B000330B2D5F3F4F482F082E000C550B241754
:1040C00035071CF48350809387040895E0917504AC
:1040D000E63028F581E08E0F8093750440915407F7
:1040E00050915507609156077091570720918704AA
:1040F000909184048091830439E0E39FF0011124BE
:10410000E15CFB4FA091FC0FB091FD0FB183A08348
:1041100042835383648375832683978380870895BE
:10412000B0E0A0E0E6E9F0E20C94A9E68D81282F4A
:10413000082E000C330B9091520F9217130609F0C2
:104140008CF48093520F9E01285F3F4F4E815F8118
:1041500068E270E089E29FE00E94CEE11092280FB1
:104160001092270FE2E00C94C5E60F931F93CF93B4
:10417000DF938C016F3F19F41092520F60E0209191
:10418000520F862F062E000C990B2817190609F0DE
:1041900014F56093520FC8010E9455E1800F911FE2
:1041A000EC01C01BD10BC932D1053CF00197FC01D9
:1041B0002491207C2038D1F3F3CFDD27AE01B80164
:1041C00089E29FE00E9476E1C75DD04F188210928D
:1041D000280F1092270FDF91CF911F910F91089513
:1041E000CF92DF92EF92FF920F931F930E9469BBD1
:1041F0000091330410913404209135043091360439
:104200006B017C01C01AD10AE20AF30A9701860108
:1042100037FD2EC02091030130E020FF34E04091B3
:104220001602242F220F220F240F4091030144FD78
:104230000FC020933204645D7E4F8F4F9F4F609379
:1042400033047093340480933504909336040EC085
:104250004091030143FD02C02195EBCF4091030142
:1042600042FFFACF4091030141FFE3CF3093310485
:104270008091310481709091310491FD8260909120
:104280003004981749F0813049F168F08230A9F084
:104290008330C1F0809330041F910F91FF90EF9015
:1042A000DF90CF900895913089F0923099F79091F6
:1042B000320420911602921B0EC0992339F09330DC
:1042C000B1F3E8CF913099F3923021F79091320415
:1042D00020911602920F90933204DCCF992339F388
:1042E0009330C1F6F3CFCF92DF92EF92FF92CF934C
:1042F000C82F833011F460931F040E9469BB6B01C7
:104300007C0124EA30E74DE75FE36091170270918A
:1043100018028091190290911A020E9406E287FD0C
:1043200018C08AEF90E0A0E0B0E08C0D9D1DAE1D9E
:10433000BF1D8093200490932104A0932204B09386
:104340002304C0930B02CF91FF90EF90DF90CF90AA
:10435000089580E090E0DC01E8CFCF92DF92EF9209
:10436000FF920F931F930E9469BB00911704109155
:1043700018042091190430911A046B017C01C01AB1
:10438000D10AE20AF30A9701860137FD11C0209194
:1043900016042095209316046A547C4F8F4F9F4F2C
:1043A00060931704709318048093190490931A046F
:1043B00081E090911604911101C080E01F910F914E
:1043C000FF90EF90DF90CF900895FC0180E0309750
:1043D00049F09491992331F0907C903809F08F5FE7
:1043E0003196F7CF0895009751F0FC0180E091914C
:1043F000992331F0907C9038D1F38F5FF8CF80E033
:10440000089564E773E180E0FFDC6CE673E181E02E
:10441000FBDC64E673E182E0F7DC6CE573E186E0E7
:10442000F3DC64E573E187E0EFDC6CE473E183E0E7
:10443000EBDC64E473E184E0E7DC6CE373E185E0EA
:10444000E3CCCF93823061F4C4E0C15050F088E0F7
:10445000C89FB00111246E527D4E8C2FD5DCF5CF54
:10446000D0DFCF9108950F931F93522F2091FC0F0F
:104470003091FD0F2817390791F110927C04909329
:10448000FD0F8093FC0F8B0130E020E00093540778
:10449000109355072093560730935707409387048E
:1044A00050938404835E984221F410928304109206
:1044B00075040E947ABF81E02091FC0F3091FD0FBE
:1044C000235E384209F080E0BCDF82E080933B024B
:1044D00081E08093640780931602109278041F9104
:1044E0000F91089520E040E070E060E083EE98E2F4
:1044F000BACFCF93DF93C0917504CC23B1F0C150F4
:10450000C093750489E0C89FE0011124C15CDB4FB2
:104510006A817B812F814E8188819981A4DF888582
:1045200080938304DF91CF910895DCDFFBCF0E945D
:10453000D8980E94417520DCD5CF4F925F926F9240
:104540007F928F929F92AF92BF92CF92DF92EF9223
:10455000FF921F93CF93DF93CDB7DEB728970FB6A7
:10456000F894DEBF0FBECDBF0E9469BB6B017C011A
:1045700080910B028F3F09F445C00E9469BB809077
:10458000200490902104A0902204B0902304681984
:1045900079098A099B0997FD35C08091C20F9091D6
:1045A000C30F8F5F8F70891769F180910B0240E014
:1045B00050E065E073E4843050F424E0829FF00121
:1045C0001124E256FD4F40815181628173814D83F8
:1045D0005E836F83788719821A821B821C824091C6
:1045E0001F04833011F04091BC079E012F5F3F4FA5
:1045F000BE016B5F7F4F86E592E00E9452888FEF8D
:1046000080930B02EDDD8091310482FF33C08091F5
:104610002F04811131C091E090932F048091BA074B
:104620008927809385041092BA0783E080933B0228
:10463000109231040E9469BB6C507E4F8F4F9F4F88
:10464000609333047093340480933504909336045C
:1046500068E873E182E090E00E9489A316E01150BF
:1046600059F00E942DA362E070E080E090E00E948B
:1046700036BBF5CF10922F0480912B0490912C041F
:10468000A0912D04B0912E04A7019601281B390B8F
:104690004A0B5B0BDA01C901B7FD88C1D701C6011E
:1046A0008C599F4FAF4FBF4F80932B0490932C0496
:1046B000A0932D04B0932E0460913204062E000CBA
:1046C000770B77FF03C07195619571099091320462
:1046D00080912A04981398C0633008F095C0109216
:1046E00032048091320480932A04653008F09EC021
:1046F0008091850481111CC18091FC0F9091FD0F68
:10470000835E984241F480910C02882309F422C10F
:10471000815080930C020E940E798090B604909094
:10472000B704A090B804B090B90481110E941B791D
:1047300020913B02222309F44BC0D501C4014AE079
:10474000B695A795979587954A95D1F7009741E03B
:10475000A407B10520F08FEF9FEFA0E0B0E09695A1
:104760008795009739F0409124045091250448170B
:10477000590770F5223038F0243008F4FDC0243099
:1047800011F410923B02E091FC0FF091FD0F09959E
:10479000109285048091FC0F9091FD0F835E9842EA
:1047A000F9F40E9469BBDC01CB018C199D09AE09AB
:1047B000BF098090240490902504B12CA12C881668
:1047C0009906AA06BB0620F490932504809324043E
:1047D0008091FC0F9091FD0F835E984209F4D0C048
:1047E000809183048111CCC080912604909127048C
:1047F000A0912804B0912904C81AD90AEA0AFB0A30
:10480000F7FCCCC06FDECAC08DEF860F823008F097
:1048100068CF8091320491E087FD9FEF892F880F48
:10482000880F890F8093320465E05BCF8091690720
:1048300021E030E040E050E0882309F456C0809049
:10484000650790906607A0906707B090680781148D
:104850009104A104B104E9F170E090E080E00E94CD
:104860000AE220E030E040EA50E40E9448E72B01F1
:104870003C01C701B601681979098A099B090E94A0
:104880000AE29B01AC01C301B2010E9448E720E0AB
:1048900030E04AE754E40E946BE24B015C0120E007
:1048A00030E040EA52E40E9434E824E630E040E0A0
:1048B00050E087FF12C020E030E040EF51E4C50136
:1048C000B4010E9434E82AE030E040E050E087FF85
:1048D00004C021E030E040E050E0C0926507D09293
:1048E0006607E0926707F0926807A09132040A2EEB
:1048F000000CBB0B0E9493E625E030E040E050E066
:104900000E945CE68091540790915507A09156074C
:10491000B0915707820F931FA41FB51F80935407B0
:1049200090935507A0935607B093570710923204FF
:10493000D701C6018856954CAF4FBF4F80932604D0
:1049400090932704A0932804B093290481E08093D6
:104950003B02D2CE89E080930C0280912404909196
:104960002504009729F0019790932504809324044F
:1049700081E080933B02CFCE81E080933B0203CF66
:1049800038E9C30E3AE3D31EE11CF11CC0922604A1
:10499000D0922704E0922804F092290480913B02EF
:1049A0008130D1F0833011F40E947ABF28960FB67F
:1049B000F894DEBF0FBECDBFDF91CF911F91FF9066
:1049C000EF90DF90CF90BF90AF909F908F907F90AF
:1049D0006F905F904F90089510923B02E7CF8093C5
:1049E0007D0420E040E070E060E08BE998E23BCDA0
:1049F000CF9380913704811109C080EB93E19093AC
:104A000077048093760481E0809337045FDB20E0B5
:104A100040E070E060E084EE9DE125DDC1E0C09300
:104A200083040E94EC781092830463DDC0938304B6
:104A300060E089E29FE299DB4091BC0761E080E0A1
:104A40000E94EFAF86EA93E190930D0780930C07E5
:104A5000CF910895A8E1B0E0E0E3F5E20C94A6E67A
:104A60008091051088608093051084E0F82EF09204
:104A70000B1084E180930C108BE39DE00197F1F71C
:104A800060E08EEF9FE00E9426BF60E38EEF9FE024
:104A90000E9454BF0BE416E4C8010197F1F760E3EC
:104AA0008EEF9FE00E9454BFC8010197F1F760E3C9
:104AB0008EEF9FE00E9454BF83E592E00197F1F7EB
:104AC00060E28EEF9FE00E9454BF6091051060622B
:104AD00040E08EEF9FE00E9462BFF092061040E03F
:104AE0006CE08EEF9FE00E9462BF0E947ABF82E07E
:104AF0008093071040E066E08EEF9FE00E9462BF67
:104B000088E0E6E6F2E0DE01519601900D928A958A
:104B1000E1F788E0EEE6F2E0DE01199601900D92F1
:104B20008A95E1F788E0E6E7F2E0DE011196019070
:104B30000D928A95E1F7BE016F5E7F4F80E00E9483
:104B4000C4BFBE01675F7F4F86E00E94C4BFBE0145
:104B50006F5F7F4F87E00E94C4BF81E02091FC0F10
:104B60003091FD0F235E384209F080E06ADC0E943C
:104B70007ABF6896E5E00C94C2E66CDFE4E0F1E011
:104B800080818E7F808380910501809581708093E4
:104B9000030180818F7E80838081877F808320DBFB
:104BA000109232040C94E8B46FEF7FEF7CC9A4E05C
:104BB000B0E0EDEDF5E20C94A1E66C015B017A0149
:104BC00010E000E00E151F05C8F4AE014F5F5F4F07
:104BD000B501C6010E94011C6C0189819A81AB81DB
:104BE000BC81892B8A2B8B2B49F0B701601B710B81
:104BF000CE01019658D9080F191FE4CFC801249699
:104C0000EAE00C94BDE64FEF5FEF6EEF7BE1CFCFB4
:104C10004FEF5FEF6BEF7BE1CACFA8E0B0E0E3E1DD
:104C2000F6E20C949FE67C01162F5A014901862F6B
:104C3000660F990B9C0126563D4F69011016D4F55D
:104C4000AE014B5F5F4F6BEF7BE1C7010E94011C20
:104C50007C018D819E81AF81B8850097A105B1054A
:104C600049F18D339105A105B10509F45FC08E3777
:104C70009105A105B10509F459C08A329105A10534
:104C8000B105E9F417FF0FC080E893E11E3F11F072
:104C90008CE793E1402F002E000C550B6BEF7BE16E
:104CA00086DF081B7BC08AE893E1B2DF015009F080
:104CB0003FC000E0802F2896ECE00C94BBE68432E5
:104CC0009105A105B105C1F48114910451F0402F63
:104CD000002E000C550B6BEF7BE1C40168DF081B55
:104CE000ADCFA114B104E9F0402F002E000C550BFC
:104CF0006EEF7BE1C501F2CF80349105A105B105CE
:104D000081F40150F6018081082E000C990BAA0B4A
:104D1000BB0B89839A83AB83BC83CE01019644DFAE
:104D20008DCFCE01059640DF015088CF17FDACCF67
:104D300081E04D815E816F8178854D33510561053C
:104D4000710509F480E0810F8A30C4F001506AE0F7
:104D50000E9428E6192F082E000C990BC096092EE8
:104D6000000CAA0BBB0B89839A83AB83BC83CE0157
:104D700001961ADF002309F49CCF812F082E000C26
:104D8000990BC096092E000CAA0BBB0B89839A8342
:104D9000AB83BC83CE01019607DF0150002309F4E9
:104DA00088CF402F002E000C550B6BEF7BE1C70125
:104DB000FEDE081B7FCF462F682F8EEF9FE00C94FE
:104DC00084BFFC01A081B1811C92A281B3818C912E
:104DD0008F5F8C930280F381E02D608180E0EBCFC8
:104DE0004F925F926F927F928F929F92BF92CF92DB
:104DF000DF92EF92FF920F931F93CF93DF93CDB784
:104E0000DEB728970FB6F894DEBF0FBECDBF7C018A
:104E10003B016A014901FB016081FC018081CBDF1C
:104E2000C114D10469F1FA82E9827C826B8201119A
:104E300020C0AE014B5F5F4FB401C6010E94011C50
:104E40006C018D819E81AF81B885892B8A2B8B2B3C
:104E5000B9F0CE010596A8DEF70180818F5F8083CF
:104E6000843138F3CE010196ACDFE3CFB12C86015B
:104E700029C08601B12C26C0452846284728B1F70D
:104E800028960FB6F894DEBF0FBECDBFDF91CF914D
:104E90001F910F91FF90EF90DF90CF90BF909F9068
:104EA0008F907F906F905F904F900895B39407C05C
:104EB000B1102EC001151105C9F20F5F1F4F01156A
:104EC0001105A9F2AE014B5F5F4FB401C6010E940C
:104ED000011C6C014D805E806F8078844114510408
:104EE00061047104A9F0F0E24F16510461047104E9
:104EF000F9F2D301C2018D97A109B1090297A10569
:104F0000B10530F04BE2441651046104710471F6AE
:104F1000F7018081482F4B0D5527551F453151050D
:104F20002CF0853018F0CE0101964BDF81E0411462
:104F300051046104710409F480E0B80EF701808126
:104F40008B0D8083BB2009F497CFBA94AE014B5FE1
:104F50005F4FB401C8010E94011C8C01CE0105966F
:104F600023DEF0CFA6E0B0E0E8EBF7E20C9499E6A0
:104F70004C011B015A013901280181E0809383040F
:104F8000409154075091550760915607709157070B
:104F9000411551056105710571F0141615060CF0E7
:104FA00080E0809378041092540710925507109275
:104FB00056071092570710917804809185048E83CC
:104FC00010928504811105C080913B02882309F469
:104FD000ACC0C201FAD9082F80E0C114D10411F08D
:104FE000C601F3D91D821982E114F104B1F4402FF6
:104FF00050E0282F30E0CA01820F931F45976CF4D0
:1050000084E190E0841B950B821B930B97FD019626
:10501000959587958D8381E0898301E02BEF3BE1B6
:10502000A201BE016F5F7F4FCE010596D9DEE1146C
:10503000F10489F08D81882321F01D8289818F5FA1
:10504000898300E02EEF3BE1A701BE016F5F7F4F38
:10505000CE010596C5DEC114D10451F000E02BEF5E
:105060003BE1A601BE016F5F7F4FCE010596B8DE22
:1050700063E080E0A0DE8BE590E0A0E0B0E01123EB
:1050800021F080E290E0A0E0B0E089839A83AB83D6
:10509000BC83CE01019688DDC101BADD8DE590E0CB
:1050A000A0E0B0E0112321F080E290E0A0E0B0E0C9
:1050B00089839A83AB83BC83CE01019675DDC401DD
:1050C00084D963E092E1981B892F75DE80E290E03D
:1050D000A0E0B0E0112321F08BE590E0A0E0B0E08B
:1050E00089839A83AB83BC83CE0101965DDDC401C5
:1050F0008FDD80E290E0A0E0B0E0112321F08DE5AB
:1051000090E0A0E0B0E089839A83AB83BC83CE01BA
:1051100001964ADDEE81EE2341F0111101C05301E9
:10512000A114B10431F0F50109952696E2E10C9441
:10513000B5E6DFD9FACFB0E0A0E0E1EAF8E20C94FE
:10514000A1E6ADB6BEB687E094E13FD990E0019606
:105150002DB73EB7281B390B0FB6F8943EBF0FBED4
:105160002DBF8DB79EB701967C0167E074E10E9468
:105170004EE180917D0404ED13E1813031F00FEBBD
:1051800013E1823011F007EE13E188EFC82E83E1BE
:10519000D82E22E732E247E952E26AEF73E181E07A
:1051A00094E1E0DE0FB6F894BEBE0FBEADBEEAE0FD
:1051B0000C94BDE6CF93DF93EA01FDDDCE01F4DC74
:1051C000DF91CF910895A4E0B0E0E9EEF8E20C940D
:1051D0009FE610926907E091270FF091280F309712
:1051E00021F0099581110E94E8B480918504109204
:1051F0008504882361F020E040E070E060E087E112
:105200009BEA31D927DC2496ECE00C94BBE6A5D8C8
:10521000182F60E080E0CFDD20E030E040E05FE389
:1052200060912B0670912C0680912D0690912E0690
:105230000E94D1E60E94B0E74B01E0902F06F0906B
:10524000300682E090E0A0E0B0E089839A83AB83EF
:10525000BC83CE010196A8DC81E893E097FC03C0F3
:10526000C4010E94D79BCFDC84E596E1D1DC11110B
:10527000DFC18091FF04882309F4DAC180E596E15B
:10528000C7DC81E090E0A0E0B0E089839A83AB8343
:10529000BC83CE01019688DC8EE496E1B9DC8AE01D
:1052A000E816F1041CF48CE496E1B2DC60E08AE0DC
:1052B00082DD20E030E040E05FE3609142067091E3
:1052C000430680914406909145060E94D1E60E94D3
:1052D000B0E74B01E0904606F090470682E090E090
:1052E000A0E0B0E089839A83AB83BC83CE010196B2
:1052F0005BDC81E893E097FC03C0C4010E94D79B6C
:1053000082DC84E596E184DC111197C1809104056B
:10531000882309F492C180E596E17ADC81E090E08F
:10532000A0E0B0E089839A83AB83BC83CE01019671
:105330003BDC8EE496E16CDC9AE0E916F1041CF4A7
:105340008CE496E165DC61E080E035DD20E030E072
:1053500040E05FE360911B0670911C0680911D0682
:1053600090911E060E94D1E60E94B0E74B01E090AA
:105370001F06F090200619821A821B821C82CE0121
:10538000019612DC81E893E097FC03C0C4010E94FF
:10539000D79B39DC84E596E13BDC111153C1809148
:1053A0000905882309F44EC180E596E131DC81E0EE
:1053B00090E0A0E0B0E089839A83AB83BC83CE0108
:1053C0000196F2DB8EE496E123DCEAE0EE16F104CE
:1053D0001CF48CE496E11CDC61E08CE0ECDC2091B8
:1053E000890C30918A0C40918B0C50918C0C6091FF
:1053F0005E0270915F0280916002909161020E9452
:10540000D1E66B017C0120E030E040E251E40E94F3
:105410006BE220E030E048EC52E40E946BE24B018A
:105420005C0120E030E0A901C701B6010E9406E25C
:1054300020E030E040EA50EC87FD04C020E030E09E
:1054400040EA50E4C501B4010E94D1E620E030E01A
:1054500040E251E40E9448E70E94B0E76B017C0102
:1054600080E2F7FE09C0F094E094D094C094C11C8F
:10547000D11CE11CF11C8DE28093880460E2F0E114
:10548000CF16F7E2DF06E104F1048CF0C701B601A4
:1054900020E137E240E050E00E945CE6CA01B90139
:1054A0002AE030E040E050E00E945CE6605D6093FE
:1054B000890460E288EEC81683E0D806E104F104AE
:1054C0008CF0C701B60128EE33E040E050E00E94C6
:1054D0005CE6CA01B9012AE030E040E050E00E94F9
:1054E0005CE6605D60938A04C701B60124E630E0A3
:1054F00040E050E00E945CE69AE0892E912CA12CBD
:10550000B12CCA01B901A50194010E945CE6605D5D
:1055100060938B04C701B601A50194010E945CE66B
:105520006B017C01CA01B901A50194010E945CE6EE
:10553000CC2009F48CC02EE220938C04605D609333
:105540008D0490E3C90EC0928E048AE590E0A0E03D
:10555000B0E089839A83AB83BC83CE01019624DBC0
:10556000112309F486C088E894E04DDB86E090E0E2
:10557000A0E0B0E089839A83AB83BC83AE014F5F28
:105580005F4F62E080E016DE80911B0290911C026A
:105590000E94D79B38DB8EE893E13ADB86E080936C
:1055A0001E0482E080931D0480917E0290917F0210
:1055B000A0918002B091810289839A83AB83BC83DE
:1055C0000E94AD2190911C048917D9F00E94AD2151
:1055D00080931C0480911B048F5F823008F06EC0A2
:1055E00080931B04E0911B04F0E0EE0FFF1F81E0AD
:1055F00090E08C0F9D1FE80FF91F0190F081E02DC6
:10560000099563E080E0D7DB89E29FE00E94F32107
:10561000182F44E150E06EEF7BE189E29FE0C7DAAA
:10562000143108F0F0CD8CE893E1F2DA1F5FF8CF87
:10563000C7010E94AC9BE7DA24CEC7010E94AC9B55
:10564000E2DA6CCEC7010E94AC9BDDDAB0CE6623F5
:1056500051F02EE220938C04605D60938D0480E213
:1056600080938E0472CF80E280938D0480938C04AB
:10567000F6CF87E00E94228A82FF18C008E814E073
:10568000F80181918F01882309F470CF8F320CF0DB
:105690008FE3082E000C990BAA0BBB0B89839A830E
:1056A000AB83BC83CE0101967FDAEACF8091FE0600
:1056B00082FD59CF80E993E1ABDA58CF10921B04F9
:1056C00091CFA4E0B0E0E7E6FBE20C949FE66C012A
:1056D0007B0181E08093160280906D0790906E07A9
:1056E000A0906B07B0906C0710916A0761E080E0B2
:1056F00062DB03E19401A501612FC6018EDA182F48
:10570000E114F104E9F08AE393E182DAC7010E942F
:10571000F3218F5F115061E0181708F462E000E296
:1057200010E020E030E009831A832B833C83AE0134
:105730004F5F5F4F94E1981B892F3CDDC70163DA0F
:105740002496ECE00C94BBE60F931F93CF93DF936A
:10575000FC01EB018091540790915507A0915607E9
:10576000B0915707B7FF08C0109254071092550721
:105770001092560710925707809158079091590739
:10578000A0915A07B0915B0740915407509155077B
:10579000609156077091570784179507A607B707BA
:1057A00044F48093540790935507A0935607B09301
:1057B000570780913B028823D9F06091540770917C
:1057C0005507809156079091570700915C071091FB
:1057D0005D0720915E0730915F07600F711F821F88
:1057E000931F0995BC01809162079091630769DF5F
:1057F00080918504811108C0809151078823A9F107
:1058000080913B02882389F1809160079091610724
:105810000097B1F040915407509155076091560799
:105820007091570700915C0710915D0720915E070A
:1058300030915F07400F511F621F731FFE010995D2
:10584000E0915207F0915307309741F08091510752
:10585000811103C08091850481110995809185048F
:105860001092850481110E947922DF91CF911F91BE
:105870000F91089569E379E183EA9DE165CF60EBDB
:105880007BE184EC9BE160CF63E97BE187EA9BE10C
:105890005BCF6DEC7BE18DED9DE156CF6BE279E165
:1058A0008BED9BE151CF6EED7BE182EF9BE14CCF25
:1058B000A4E0B0E0EEE5FCE20C94A0E6982EB62E53
:1058C0006A017901A02E2115310509F463C0C901CF
:1058D000002391F10E94E521182F8EE390E0A0E0D3
:1058E000B0E0911004C080E290E0A0E0B0E08983D5
:1058F0009A83AB83BC83AE014F5F5F4F6B2D80E01B
:1059000059DC02E1011B20916D0730916E07409137
:105910006B0750916C0760916A07C6017ED9082F0A
:105920001123A9F088E393E173D9002341F086E3C2
:1059300093E16ED90150F9CF0E94F321CDCFAA2077
:1059400051F04FEF5FEF6BEF7BE1C70130D9249649
:10595000EBE00C94BCE6C70156D9F9CF8EE390E09A
:10596000A0E0B0E089839A83AB83BC83AE014F5F34
:105970005F4F6B2D80E01EDC20916D0730916E072C
:1059800040916B0750916C0702E160916A07C60174
:1059900044D9DDCF8111E2CF10E0A5CFA4E0B0E083
:1059A000E4EDFCE20C94A5E67A01102F811101C010
:1059B00020E2822F220F990BAA0BBB0B89839A83BB
:1059C000AB83BC83AE014F5F5F4F80E0F3DB209180
:1059D0006D0730916E0740916B0750916C0702E1A3
:1059E00060916A07C70119D9082F002329F084E3C1
:1059F00093E10ED90150F9CF012F110F110B220B9A
:105A0000330B09831A832B833C83CE010196CCD8B8
:105A10002496E6E00C94C1E6B0E0A0E0E2E1FDE20D
:105A20000C949EE661E081E00E940B207090870458
:105A3000C0E0872D8C0F59F5809186048823B1F042
:105A400080913B02882359F081E090918604911166
:105A500080E003E023E04FED54E16C2F9FDFCF5F48
:105A6000C43039F782E0809384040CC080918504AF
:105A700010928504882321F30E9479228091640783
:105A80008823F1F2CDB7DEB7EDE00C94BAE68130B1
:105A900031F780918604813009F449C080913B023E
:105AA0008823E9F2D1E080918604813009F0D0E0CA
:105AB000C0906E06D0906F06E0907006F090710670
:105AC00020E030E0A901C701B6010E9406E22DEBFB
:105AD00037E346E055EB87FD04C02DEB37E346E0A6
